:100000000C9496060C94B3060C94B3060C94B306A9
:100010000C94B3060C94B3060C94B3060C94B3067C
:100020000C94B3060C94B3060C94FF280C94D129BD
:100030000C94C31A0C94B3060C94B3060C94B30638
:100040000C94B3060C94B3060C94B3060C94B3064C
:100050000C94B3060C941C1B0C94B3060C94B306BE
:100060000C94B3060C94B3060C94B3060C94B3062C
:100070000C94B3060C94B3060C94B3060C94B3061C
:100080000C94B3060C94B3060C94B3060C94B3060C
:100090000C94B3060C94B3060C94B3060C94B306FC
:1000A0000C94B3060C94B3060C94B306031103111D
:1000B000351135118211A011EB12EB12E2117B12F6
:1000C0008C128C1280138013921392138913921343
:1000D00092139213801380138E13921392138E1324
:1000E0003E2A652A5D2B652A5D2BB12AD42A5D2B19
:1000F0002B2B3A2B6D61747269785F696E69745F3E
:10010000637573746F6D28292063616C6C6564007E
:1001100000000000000000000000000000000000DF
:1001200000000000000000000000000000000000CF
:1001300000000000000000000000000000000000BF
:1001400000000000000000000000000000000000AF
:10015000000000000000000000000000000000009F
:10016000000000000000000000000000000000008F
:100170000000000000000000000000002900000056
:10018000000000000000000000000000000000006F
:10019000000000000000000000000000000000005F
:1001A000000000002B0014001A00080015001700C2
:1001B0001C0018000C00120013002F00300000007B
:1001C000000000000000000000000000000000002F
:1001D00000000000000039000400160007000900BC
:1001E0000A000B000D000E000F0033003400000069
:1001F00028000000000000000000000000000000D7
:100200000000000000000000E10000001D001B00D5
:1002100006001900050011001000360037003800F4
:100220000000E500000000000000000000000000E9
:100230000000000000000000E000E300E2002C00ED
:10024000E60000006500E40000000000000000007F
:1002500044454255473A2064697361626C65642E77
:100260000A0044454255473A20656E61626C6564F8
:100270002E0A000A0025303862003A20002530326C
:1002800058000A722F632030313233343536370A42
:10029000000A002530325820006B6579626F617268
:1002A000645F7265706F72743A20000A0025303204
:1002B00058006B6579626F6172645F7365745F6C1F
:1002C00065643A20006D6174726978207363616EB1
:1002D000206672657175656E63793A2025640A003F
:1002E000290A002575002F002575005D280025646A
:1002F0000020002564002000256400200025640003
:100300007C0025303258006D6F7573656B65792000
:100310005B62746E7C782079207620685D28726537
:10032000702F61636C293A205B006D6B5F776865A5
:10033000656C5F74696D655F746F5F6D6178203D9A
:100340002025640A006D6B5F776865656C5F6D6181
:10035000785F7370656564203D2025640A006D6BCD
:100360005F74696D655F746F5F6D6178203D2025F6
:10037000640A006D6B5F6D61785F73706565642002
:100380003D2025640A006D6B5F696E74657276614D
:100390006C203D2025640A006D6B5F64656C61799B
:1003A000203D2025640A006D6B5F776865656C5F92
:1003B00074696D655F746F5F6D6178203D202564A1
:1003C0000A006D6B5F776865656C5F6D61785F7360
:1003D00070656564203D2025640A006D6B5F74695B
:1003E0006D655F746F5F6D6178203D2025640A0044
:1003F0006D6B5F6D61785F7370656564203D20256E
:10040000640A006D6B5F696E74657276616C203D85
:100410002025640A006D6B5F64656C6179203D2066
:1004200025640A000A00257500363A20776865655C
:100430006C5F74696D655F746F5F6D61783A200001
:100440000A00257500353A20776865656C5F6D6137
:10045000785F73706565643A20000A002575003482
:100460003A2074696D655F746F5F6D61783A200042
:100470000A00257500333A206D61785F73706565F9
:10048000643A20000A00257500323A20696E7465CE
:100490007276616C286D73293A20000A0025750078
:1004A000313A2064656C6179282A31306D73293ABC
:1004B00020000A092D2056616C756573202D0A00F5
:1004C0004D3E004D25643E20003F0073657420645E
:1004D000656661756C740A00433E2000776865723A
:1004E000652064656C74613A20637572736F723D48
:1004F00025642C20776865656C3D25640A53656525
:1005000020687474703A2F2F656E2E77696B69704E
:10051000656469612E6F72672F77696B692F4D6F04
:100520007573655F6B6579730A000A092D204D6F3D
:100530007573656B6579202D0A4553432F713A0910
:10054000717569740A313A0964656C6179282A31D8
:10055000306D73290A323A09696E74657276616C7E
:10056000286D73290A333A096D61785F7370656588
:10057000640A343A0974696D655F746F5F6D617800
:100580000A353A09776865656C5F6D61785F7370ED
:100590006565640A363A09776865656C5F74696DEC
:1005A000655F746F5F6D61780A0A703A09707269ED
:1005B0006E742076616C7565730A643A09736574AC
:1005C0002064656661756C74730A75703A092B3125
:1005D0000A646F776E3A092D310A706775703A09AF
:1005E0002B31300A7067646F776E3A092D31300A0B
:1005F0000A7370656564203D2064656C7461202A0F
:10060000206D61785F7370656564202A20287265AB
:1006100070656174202F2074696D655F746F5F6D04
:100620006178290A003F004D3E2000433E20004CE7
:1006300025640A0074696D65725F726561643332A6
:1006400028293A202530346C580A006B6579626F8E
:100650006172645F69646C653A2025580A006B65B5
:1006600079626F6172645F70726F746F636F6C3AFE
:100670002025580A00686F73745F6B6579626F613B
:1006800072645F6C65647328293A2025580A000A51
:10069000092D20537461747573202D0A004743435C
:1006A0003A20352E342E30204156522D4C494243AB
:1006B0003A20322E302E30204156525F415243486C
:1006C0003A20617672350A004F5054494F4E533AE2
:1006D000204C554641204D4F5553454B45592045DB
:1006E000585452414B455920434F4E534F4C45208F
:1006F000434F4D4D414E44203531320A0042554959
:100700004C443A2022302E392E372D32322D676359
:10071000383135346422202831343A31363A353490
:10072000204A756E2031392032303230290A005685
:1007300049443A2030784645454428487567682042
:100740004D756E67697329205049443A20307830DE
:1007500030303028616B65313630383836292056D4
:1007600045523A203078303030310A004445534306
:100770003A204120637573746F6D206B6579626FE9
:100780006172640A000A092D2056657273696F6EE2
:10079000202D0A000A092D20436F6E736F6C6520AF
:1007A0002D0A4553432F713A09717569740A6D3AE0
:1007B000096D6F7573656B65790A000A092D204D07
:1007C00061676963202D0A443A09446562756720B0
:1007D0004D65737361676520546F67676C650A5870
:1007E0003A094D6174726978204465627567204DDD
:1007F0006F646520546F67676C65202D2053686FA8
:1008000077206B65797072657373657320696E20EC
:100810006D617472697820677269640A4B3A094B9A
:100820006579626F61726420446562756720546FF8
:1008300067676C65202D2053686F77206B65797032
:1008400072657373207265706F72740A4D3A094451
:1008500065627567204D6F75736520546F67676CAF
:10086000650A563A0956657273696F6E0A533A09FA
:100870005374617475730A433A094163746976610C
:10088000746520436F6E736F6C65204D6F64650AED
:1008900046312D4631303A095377697463682074C4
:1008A0006F204C6179657220302D39202846313017
:1008B000203D204C30290A302D393A09537769748C
:1008C000636820746F204C6179657220302D390A7D
:1008D00047524156453A0953776974636820746FEB
:1008E000204C6179657220302028616C7465726ECD
:1008F000617465290A423A094A756D7020746F2047
:10090000426F6F746C6F616465720A4553433A09B4
:100910004A756D7020746F20426F6F746C6F6164E4
:1009200065722028616C7465726E617465290A4570
:100930003A095072696E7420454550524F4D20530C
:10094000657474696E67730A4253504143453A09AE
:10095000436C65617220454550524F4D0A000A00B4
:100960002575002E6E6B726F3A20000A0025750007
:100970002E737761705F6261636B736C6173685F24
:100980006261636B73706163653A20000A002575CC
:10099000002E737761705F67726176655F65736360
:1009A0003A20000A002575002E6E6F5F6775693A60
:1009B00020000A002575002E737761705F72616CEC
:1009C000745F726775693A20000A002575002E73FE
:1009D0007761705F6C616C745F6C6775693A200059
:1009E0000A002575002E737761705F7263746C5F07
:1009F000726775693A20000A002575002E737761C9
:100A0000705F6C63746C5F6C6775693A20000A00F4
:100A10002575002E636170736C6F636B5F746F5F1D
:100A2000636F6E74726F6C3A20000A002575002E99
:100A3000737761705F636F6E74726F6C5F63617008
:100A4000736C6F636B3A20000A0025303258006BDC
:100A500065796D61705F636F6E6669672E7261772D
:100A60003A20000A002575002E6D6F7573653A20D7
:100A7000000A002575002E6B6579626F6172643A19
:100A800020000A002575002E6D61747269783A2085
:100A9000000A002575002E656E61626C653A2000C3
:100AA0000A00253032580064656275675F636F6EB7
:100AB0006669672E7261773A20000A002575006426
:100AC000656661756C745F6C617965723A20003F90
:100AD000000A6D6F7573653A206F66660A000A6DCD
:100AE0006F7573653A206F6E0A000A6B6579626FE5
:100AF0006172643A206F66660A000A6B6579626FFC
:100B00006172643A206F6E0A000A6D6174726978CE
:100B10003A206F66660A000A6D61747269783A203D
:100B20006F6E0A000A64656275673A206F66660A2E
:100B3000000A64656275673A206F6E0A000A0A4A05
:100B4000756D70696E6720746F20626F6F746C6F63
:100B5000616465722E2E2E2000433E2000436C659A
:100B60006172696E6720454550524F4D0A006565B8
:100B7000636F6E6669673A0A005B735D004B657967
:100B8000626F6172642073746172742E0A005B5725
:100B90005D005B535D005B525D005B445D005B4349
:100BA0005D00040330000000140361006B00650069
:100BB00031003600300038003800360000001803DD
:100BC000480075006700680020004D0075006E0049
:100BD00067006900730000000403090409025B0058
:100BE000030100A0FA09040000010301010009212A
:100BF000110100012240000705810308000A0904D1
:100C000001000103000000092111010001228100FF
:100C10000705820320000A09040200020300000005
:100C20000921110100012222000705830320000190
:100C3000070503032000011201100100000008ED68
:100C4000FE00000100010203010631FF0974A10149
:100C50000975150026FF0095207508810209761593
:100C60000026FF00952075089102C005010902A128
:100C70000185020901A100050919012905150025B1
:100C80000195057501810295017503810105010931
:100C90003009311581257F950275088106093815BF
:100CA00081257F950175088106050C0A380215819A
:100CB000257F950175088106C0C005010980A10145
:100CC000850319012AB700150126B7009501751093
:100CD0008100C0050C0901A101850419012AA002A7
:100CE000150126A002950175108100C005010906B5
:100CF000A101050719E029E71500250195087501EF
:100D000081029501750881010507190029FF150069
:100D100026FF00950675088100050819012905952B
:100D20000575019102950175039101C011241FBE43
:100D3000CFEFDAE0DEBFCDBF11E0A0E0B1E0ECE143
:100D4000F8E502C005900D92A839B107D9F722E065
:100D5000A8E9B1E001C01D92A33DB207E1F70E94EE
:100D600025260C940C2C0C940000FF93EF93E0913B
:100D70009801F0919901309709F00995EF91FF9151
:100D80000895FC018591803011F0EFDFFBCF0895CD
:100D9000FF27E0E230E247FF0CC0419597FF09C012
:100DA000EDE26095709580959095611D711D811D96
:100DB000911D27FF02C0219530E350E2AA27660F5C
:100DC000771F881F991FAA1FA41710F0A41B6395F3
:100DD0005A95A9F7AA3008F0A95FA05DAF93F395E3
:100DE000611571058105910541F7ED3211F4EF931D
:100DF000F395F21718F43F93F395FBCF8F91B5DF7E
:100E0000FA95E1F70895E991F9918591803021F003
:100E1000853219F0AADFF9CF089520E0E8945591C2
:100E20005532C1F3503311F4689455915A3348F454
:100E3000505390F3220F022E220F220F200D250F68
:100E4000F4CF0EF4219589919991533619F35337C4
:100E500029F1533559F1BC0188279927E8945C366C
:100E600021F48991999168945591543639F446EF5B
:100E70007EF077FF0DC08FEF9FEF0AC055374AE035
:100E800039F0583540E121F0523642E009F008953A
:100E9000FF93EF937DDFEF91FF91B7CFFF93EF9338
:100EA000FC0181918030B9F360DFFBCFFF93EF93BA
:100EB00068DFF1CFDF93CF93CDB7DEB72596A3DF01
:100EC000CF91DF910895CF93DF9384EF90E09F93CC
:100ED0008F930E945A07249A579A2C9A5F98A5E1FB
:100EE000B1E04DE151E00F900F9061E070E08D9125
:100EF000E82FE295EF70F0E021A18F70EB0102C0C6
:100F0000CC0FDD1F8A95E2F7CE019C2F909592239E
:100F100091A392A1892B82A34A175B0741F788E12D
:100F20005F9AD0E1DA95F1F75F9890E19A95F1F741
:100F30008150B1F7DF91CF9108958F929F92AF9238
:100F4000BF92CF92DF92EF92FF920F931F93CF93B6
:100F5000DF932C985F9A20E12A95F1F72C9A5F98FD
:100F600030E13A95F1F7FC018C010C5E1F4F80E0F7
:100F7000C12CD12C7601C394C5E1D1E060E070E0D2
:100F800090E02991A22FA295AF70B0E090964C917D
:100F900050E02F70DA0102C0B595A7952A95E2F7C7
:100FA000A0FD0DC0A7019601062E04C0220F331F1D
:100FB000441F551F0A94D2F749015A0103C0812CDE
:100FC000912C540198296F5F7F4F68307105C9F6E5
:100FD00021E03081391301C020E0822B91935F9A88
:100FE00030E13A95F1F75F9840E14A95F1F7E01763
:100FF000F10711F6DF91CF911F910F91FF90EF90C4
:10100000DF90CF90BF90AF909F908F90089581E038
:10101000089581E008950C94090808950C940D0832
:101020001F93CF93DF9300D000D01F92CDB7DEB7D0
:1010300049835A836B833091C40189819A8131112C
:1010400014C0662359F0222349F00E943C18182F3F
:10105000682F89819A810E94E51703C00E941018A9
:10106000182F69817A81812F04C00E943C18698100
:101070007A810F900F900F900F900F90DF91CF918A
:101080001F910C94D908FC01262F40815181628167
:10109000738184810C941008CF93DF93EC0160E09E
:1010A0000E944308BE01DF91CF910C940E080E946C
:1010B0007819811102C00E94181A0C941A0B0C9412
:1010C000160B08950C94610881E008950C9464084F
:1010D000CF93C82F0E9462088C2F0E946608CF9180
:1010E000089508950E946E130E9471082FEF84E303
:1010F0009CE0215080409040E1F700C000000C943B
:10110000421B0F931F93CF93DF93EC0161E00E948A
:1011100043088C01BE010E940B08882309F442C0D9
:10112000BE01C8010E94EB0B8823E1F1BE01C8019A
:101130000E942C0C8823B1F1BE01C8010E94570DFA
:10114000882381F18A81882331F101308CE51807E9
:1011500051F00E3D8CE51807D9F001151C45D9F466
:101160000E9472081FC080917602C82FC095C1707E
:10117000C0FB80F980937602CC2329F082E692E0CE
:101180000E94C1060FC080E592E00E94C1060BC01C
:101190000E94181A07C0CE01DF91CF911F910F91C5
:1011A0000C940708C0E08C2FDF91CF911F910F9115
:1011B0000895E72FF0E094E1899FE00DF11D1124DF
:1011C00083E0EE0FFF1F8A95E1F7E60FF11DEE0FAA
:1011D000FF1FE05FFE4F859194910895CF93DF93B9
:1011E0000E94D9080E94F009EC01811521E59207BF
:1011F00008F043C0811540E5940708F08AC0883E96
:10120000910520F5803E910508F0E6C0883A9105E9
:1012100070F4853A910508F074C08130910509F4A5
:10122000DBC008F4D7C0049708F0D6C0D3C08F3B0A
:10123000910508F0CFC0C85AD0E0CC0FDD1FC35EC7
:10124000DE4F0990D881C02DD464C6C0C11580E29C
:10125000D80758F4C11521E0D20708F0BDC0C03F3F
:10126000D10508F4B7C0D065B7C0C11540E4D407B4
:1012700008F4B0C0DF70D06AAFC0C11585E5D807EB
:10128000A0F4C11524E5D20708F08AC0C11543E5D2
:10129000D40708F06FC0C11582E5D80708F054C024
:1012A000DC2FCC27C16FD06A97C0C11529E5D207C2
:1012B000A0F4C11548E5D40708F077C0C11586E54C
:1012C000D80708F087C08C2F0E94840A8F71C82F1E
:1012D000D0E0DC2FCC27D0627FC0C1152AE5D20731
:1012E00008F468C0CE0190568115904208F072C093
:1012F0008D2F8F710E94840ADD27D0628F71D82BC9
:101300006BC0C55AD0E0C55BDE4FC881D0E0D06469
:1013100063C074E0969587957A95E1F783709C2F6A
:10132000937021E030E002C0220F331F9A95E2F75C
:101330003C68382BCF70C695C69580E2C89FE00107
:101340001124C22BD32B48C0CE018370992721E0F2
:1013500030E002C0220F331F8A95E2F78C2F86956A
:10136000869540E2849FC0011124E901C82BD92B46
:10137000DC6832C0CE018370992721E030E002C0E2
:10138000220F331F8A95E2F78C2F8695869540E2CF
:10139000849FC0011124E901C82BD92BDA681CC035
:1013A000DC2FCC27C46FD06A17C0DC2FCC27C06FCE
:1013B000D06A12C08C2F8F700E94840A94E0D69558
:1013C000C7959A95E1F7CF70D0E0DC2FCC27D06994
:1013D000C82B02C0C0E0D0E0CE01DF91CF910895CC
:1013E0008238910569F1B0F48133910509F46DC03B
:1013F00048F48932910509F463C08A32910509F4F1
:1014000069C008958533910509F455C08933910564
:10141000B9F00895833E910569F138F4803E910555
:10142000B1F0823E910509F10895863E9105A9F13A
:10143000873E9105B9F1843E910509F064C023C04F
:101440002091C40220FD4FC021FD4DC00895809120
:10145000C40280FD44C08091C50280FF44C08091D9
:10146000C40284FD42C083EE4DC08091C40282FF5D
:1014700038C0F5CF8091C40282FD33C08091C5028F
:1014800080FD31C0ECCF8091C50281FF32C08091D8
:10149000C40284FD2AC087EE35C08091C40283FF58
:1014A00026C0F5CF8091C40283FD21C08091C50282
:1014B00081FD1FC0ECCF8091C40285FD1CC01DC002
:1014C0008091C40285FD19C016C08091C40286FDBA
:1014D00016C017C08091C40286FD13C010C089E3F6
:1014E00011C082EE0FC080EE0DC080E00BC086EE12
:1014F00009C084EE07C089E205C085E303C08AE223
:1015000001C081E390E008959091C40292FF0DC064
:10151000282F2871283019F4877F846006C0282F6F
:101520002471243011F48B7F886093FF0DC0282F25
:101530002871283119F4877E846106C0282F247110
:10154000243111F48B7E88612091C50220FF0DC0EB
:10155000382F3871383019F4877F816006C0382FF2
:101560003171313011F48E7F886021FF0DC0282F3A
:101570002871283119F4877E816106C0282F2171D6
:10158000213111F48E7E886194FD877E0895E82FC5
:10159000F0E0E655FD4F80810895CF92DF92EF9203
:1015A000FF920F931F93CF93DF9382E892E00E9404
:1015B000C1068AEAE82E82E0F82EC0E0D0E09DE77E
:1015C000C92E92E0D92E05E712E0DF93CF93DF9288
:1015D000CF920E945A078AE792E00E94C106F70163
:1015E00081917F010E9466191F928F931F930F9321
:1015F0000E945A0783E792E00E94C10621968DB7A8
:101600009EB708960FB6F8949EBF0FBE8DBFC4312B
:10161000D105D9F6DF91CF911F910F91FF90EF90F7
:10162000DF90CF90089508950C94130B0C94140B35
:101630000C94130B0C94180B0E946307E6E9F2E07C
:10164000AAEAB2E011921D9282E0EA3AF807D1F7D5
:1016500084E10E94400B0C945708CF9386E992E0F6
:101660000E949D07C82F282F44E16AEA72E086E9AC
:1016700092E00E94410B0E945F088C2FCF91089549
:101680000895FF920F931F93CF93DF938C01F62E53
:10169000D72FC42F222349F081E080939C010E9420
:1016A000F51A90939B0180939A0180919C01882365
:1016B000C1F080919A0190919B010E940D1B0697A9
:1016C00080F0EF2DFD2FD8014C2F50E0CD01801B75
:1016D000910B841795071CF48D918193F7CF10928D
:1016E0009C01DF91CF911F910F91FF9008950F936F
:1016F0001F93CF93DF93C62FD42F122FFC0182812B
:101700008823C9F060939F010E94F51A90939E016F
:1017100080939D0180E28C0F883008F057C0C7701D
:1017200081E001C0880FCA95EAF7DF91CF911F9140
:101730000F910C94BF1080919F01681330C080916D
:101740009D0190919E010E940D1B883C910538F5EA
:1017500000E20D0FCD17B9F080E28C0F883040F415
:10176000C77081E001C0880FCA95EAF70E94C610D1
:10177000083028F581E09D2F977001C0880F9A9559
:10178000EAF70E94BF10812F0E94AC100830F0F4DD
:10179000D77081E001C0880FDA95EAF70AC080E2CD
:1017A0008C0F883098F4C77081E001C0880FCA950B
:1017B000EAF7DF91CF911F910F910C94C610812F02
:1017C000DF91CF911F910F910C94AC10DF91CF91CD
:1017D0001F910F9108959C01CB01233F4CE53407E5
:1017E000F9F078F4283DFCE53F07B9F0293D4CE5D8
:1017F000340711F1273D3C4531F526E241EE61EE1B
:101800001EC0253FFCE53F0799F070F0263F3C45A0
:10181000D1F427E245EE66EE12C027E245EE0EC097
:1018200026E241EE60EE0BC027E245EE64EE07C013
:1018300026E241EE62EE03C028E241E065EE0E943E
:10184000770B80E00895FC018281882319F01092C3
:101850009F01089581E00895CF93DF93EC01FB0190
:101860008281882309F41FC1C230FCE5DF0708F438
:101870001BC1C6319CE5D90738F09E012A5F3C4563
:101880002930310508F010C10E948B199093C502D0
:101890008093C402C031ECE5DE0709F4C3C008F050
:1018A00041C0C8308CE5D80709F49AC0F0F4C430C0
:1018B000ECE5DE0709F487C068F4C2308CE5D80790
:1018C00009F477C0C330DC4509F0E3C08091C4025D
:1018D000826076C0C630ECE5DE0709F46EC008F021
:1018E0007BC08091C40288606BC0CC308CE5D80787
:1018F00009F485C068F4CA30ECE5DE0709F474C069
:1019000008F079C00E946E138091C402806858C0AC
:10191000CE308CE5D80709F476C008F07FC08091FE
:10192000C4028BC0CB3FECE5DE0709F44FC018F5CD
:10193000C3318CE5D80709F47DC078F4C131ECE5FA
:10194000DE0709F473C0C231DC4509F0A2C00E9471
:101950006E138091C4028F7733C0C5318CE5D807F0
:1019600009F472C008F486C0CA3FDC4509F091C092
:101970008091C5023EC0CF3FFCE5DF0709F45FC0A0
:1019800058F4CD3F9CE5D90709F444C008F43FC0A2
:101990008091C50282602DC0C130FDE5DF0709F4EA
:1019A00075C008F45DC0C230DD4509F072C080E04A
:1019B0006EC08091C402816003C08091C4028061C6
:1019C0008093C40266C08091C40211C08091C50298
:1019D00082608093C5025DC08091C4028062F0CFB6
:1019E0008091C4028064ECCF8091C40288608460DE
:1019F000E7CF8160EECF8091C4028E7FE1CF8091EE
:101A0000C4028D7FDDCF8091C402877FD9CF8091C2
:101A1000C50218C08091C5028D7FDBCF8091C402C2
:101A20008F7ECECF8091C4028F7DCACF8091C402B9
:101A30008F7BC6CF8091C402877F8B7FC1CF80917F
:101A4000C5028D7F8E7FC5CF8091C40282FB222785
:101A500020F991E0922790FB82F990FB83F9B0CFB7
:101A60008091C502982F909591708E7F892B90FB65
:101A700081F9AFCF0E946E138091C40287FB2227A9
:101A800020F991E0922790FB87F99ACF81E00E949C
:101A90001A1A8091C4029091C5020E949C190E945A
:101AA0006E1380E001C081E0DF91CF910895CF9364
:101AB000DF9386319C4541F5EB010E94BD18982FBC
:101AC0008A812091000130910101882379F09A7A6E
:101AD00081E009F480E08093A001911102C069E2E5
:101AE00001C065E3C9010E94611A0AC08091A0018A
:101AF000811102C069E201C065E3C9010E94631A55
:101B00000E94FE1880E001C081E0DF91CF9108952E
:101B10009093A6018093A5010895E091A501F0910D
:101B2000A601309721F00190F081E02D099480E02A
:101B30000895EF92FF920F931F93CF93DF93E0915D
:101B4000A501F091A6013097B1F18C010280F381DB
:101B5000E02D09958091760282FF2DC080FF04C0A0
:101B600089E992E00E94C106E80118E083E9E82EC5
:101B700082E0F82E8091760280FF0BC088811F9250
:101B80008F93FF92EF920E945A070F900F900F9041
:101B90000F90115021961111EDCF8091760280FFA8
:101BA0000AC081E992E0DF91CF911F910F91FF90E0
:101BB000EF900C94C106DF91CF911F910F91FF9090
:101BC000EF900895E091A501F091A601309739F0CA
:101BD00022E0DC012C930480F581E02D0994089526
:101BE0002091A3013091A4012817390771F0909337
:101BF000A4018093A301E091A501F091A601309783
:101C000021F00680F781E02D099408952091A1012B
:101C10003091A2012817390771F09093A2018093A7
:101C2000A101E091A501F091A601309721F0008477
:101C3000F185E02D09940895CF92DF92EF92FF9203
:101C40008091BC019091BD01A091BE01B091BF01F6
:101C50000196A11DB11D8093BC019093BD01A0937D
:101C6000BE01B093BF010E94011B6B017C018091FA
:101C7000C0019091C101A091C201B091C301A7011F
:101C80009601281B390B4A0B5B0BDA01C901893E0F
:101C90009340A105B10560F18091760280FF18C0E4
:101CA0008091BF018F938091BE018F938091BD0180
:101CB0008F938091BC018F9385EC92E09F938F93DB
:101CC0000E945A070F900F900F900F900F900F9057
:101CD000C092C001D092C101E092C201F092C30152
:101CE0001092BC011092BD011092BE011092BF0172
:101CF000FF90EF90DF90CF90089585B7806885BF03
:101D000085B7806885BF089508950C94840E0C945F
:101D1000850E0C94840E0C94840E0E947D0E0E94FD
:101D2000890E0C94870E81E008950C94930E0E9406
:101D3000EC1A0E941C0B0E94741B0C948B0ECF9308
:101D4000C82F8091760282FF1EC080FF04C082EB04
:101D500092E00E94C1068091760280FF0CC01F9223
:101D6000CF938DEA92E09F938F930E945A070F9032
:101D70000F900F900F908091760280FF04C08BEA45
:101D800092E00E94C1068C2FCF910C946808AF920C
:101D9000BF92CF92DF92EF92FF920F931F93CF9358
:101DA000DF93CDB7DEB72A970FB6F894DEBF0FBE2C
:101DB000CDBF0E942D0B0E94950E811111C08FEF97
:101DC00089838A831B820E94F51A8160782F9D8304
:101DD0008C8349815A816B818D810E94610F40C043
:101DE00088EAA82E81E0B82E00E010E0C02E802FF7
:101DF0000E94C70AE82EF501D1905F01D82631F480
:101E00000F5F1F4F0431110589F7D9CF80917602FA
:101E100081FD0E94CD0A80E0FF24F3949D2D9F2137
:101E2000D1F08E83CF82EF2081E009F480E08887B3
:101E30000E94F51A8160782F9A8789874E815F8189
:101E400068858A850E94610FF801E855FE4F808100
:101E5000F826F08205C08F5FFF0C8830F9F6D0CFEE
:101E60000E941C0E0E94881D0E948D0D9091A7015A
:101E70008917B1F00E948D0D8093A7012A960FB6A5
:101E8000F894DEBF0FBECDBFDF91CF911F910F91B0
:101E9000FF90EF90DF90CF90BF90AF900C949F0E8B
:101EA0002A960FB6F894DEBF0FBECDBFDF91CF915B
:101EB0001F910F91FF90EF90DF90CF90BF90AF9068
:101EC0000895CF93DF93CDB7DEB72B970FB6F89475
:101ED000DEBF0FBECDBF4F83588769877A878B8758
:101EE000DE01119686E0FD0111928A95E9F785E001
:101EF000FE01379601900D928A95E1F749815A814A
:101F00006B817C818D819E810E9427162B960FB656
:101F1000F894DEBF0FBECDBFDF91CF910895FC01D5
:101F2000808191810E947E180895CF93882309F4BF
:101F3000A9C0C82F8238C1F40E948D0D81FDA2C0B6
:101F400069E380910001909101010E94611A0E9451
:101F5000FE182FEF81EE94E0215080409040E1F791
:101F600000C0000069E319C0833801F50E948D0D9F
:101F700080FD88C063E580910001909101010E947D
:101F8000611A0E94FE182FEF81EE94E021508040EC
:101F90009040E1F700C0000063E58091000190915E
:101FA00001010E94631ACF910C94FE188438C1F489
:101FB0000E948D0D82FD66C067E4809100019091C2
:101FC00001010E94611A0E94FE182FEF81EE94E039
:101FD000215080409040E1F700C0000067E4DDCF71
:101FE0008CEF8C0F813AF8F48C2F0E94982281118B
:101FF00049C06C2F80910001909101010E942B1A21
:10200000882349F06C2F80910001909101010E947A
:10201000631A0E94FE186C2F8091000190910101BB
:102020000E94611AC0CF80E28C0F883048F4C770DC
:1020300081E001C0880FCA95EAF70E94C018B3CFAB
:10204000EBE5EC0FE33040F4F0E0E458FE4F808124
:1020500090E0CF910C94F00DE8E5EC0FE73150F4EF
:10206000F0E0EE0FFF1FE25BFE4F80819181CF9188
:102070000C94060EC03F30F08C2F0E940E1CCF91A6
:102080000C94FB1CCF910895882309F464C0823816
:1020900079F40E948D0D81FF5EC069E3809100019B
:1020A000909101010E94611A0E94FE1869E310C01C
:1020B0008338B1F40E948D0D80FF4DC063E580919F
:1020C0000001909101010E94611A0E94FE1863E5CF
:1020D00080910001909101010E94631A0C94FE18F6
:1020E000843879F40E948D0D82FF35C067E48091B9
:1020F0000001909101010E94611A0E94FE1867E49C
:10210000E7CF9CEF980F913A10F4682FE1CF90E25F
:10211000980F983050F4877091E001C0990F8A951C
:10212000EAF7892F0E94C618D9CF9BE5980F933004
:1021300020F480E090E00C94F00D98E5980F973132
:1021400020F480E090E00C94060E803F20F00E9486
:10215000761C0C94FB1C0895CF93C82F0E94950FFA
:10216000C93349F42FEF87EE93E02150804090402F
:10217000E1F700C000008C2FCF910C94441088230D
:1021800021F00E94C0180C94FE180895882321F0B5
:102190000E94C6180C94FE180895CF92DF92EF9219
:1021A000FF920F931F93CF93DF937C01D62FC72FFE
:1021B000FC01058102950F70128111110E94DD183A
:1021C0000E94B618882379F0112369F080E28D0F00
:1021D000883048F082E00E9448190E94B61891E0C9
:1021E000D82ED92601C0D12CCC2EC2948FE0C82283
:1021F0008C2D90E08C30910508F0EDC1FC01EA5A7D
:10220000FF4F0C94B02B8C2F807FCF70882311F060
:10221000C295C07F112399F0CC2309F4C8C180E294
:102220008D0F883010F0D11104C08C2F0E94C0187F
:1022300003C08C2F0E94D0180E94FE18B8C18D2FA9
:102240000E944410CC2309F4C6C180E28D0F88306F
:1022500010F0D11104C08C2F0E94C61803C08C2F1F
:102260000E94D6180E94FE18B6C18C2F807FCF70B6
:10227000803211F0C295C07FDD2319F0D130C9F052
:1022800022C0112371F0002341F0013031F40E948B
:10229000E3188C2B0E94EB189EC10E94E3188C2B34
:1022A0001DC0002319F0013009F495C10E94F418F3
:1022B00025C0112321F0063008F08DC10EC0053075
:1022C00008F089C11BC0112361F0002331F0F70130
:1022D000858180FF6CC18F7085838C2F0E94BF1019
:1022E0007AC1002359F0D93309F072C1FFEF07EE2C
:1022F00013E0F15000401040E1F768C18C2F0E94BC
:10230000C61069C18C2F86958695837019F081302F
:1023100061F061C1112321F08D2F9C2F937002C0B9
:1023200080E090E00E94F00D5EC1112321F08D2F1E
:102330009C2F937002C080E090E00E94060E53C173
:102340001123F9F0D53F51F0D63F71F0D43FA9F4F5
:102350008091BE029091BF0281600BC08091BE024D
:102360009091BF02826005C08091BE029091BF0231
:1023700084609093BF028093BE028D2F0E940E1C3A
:102380001EC0D53F51F0D63F71F0D43FA9F48091E3
:10239000BE029091BF028E7F0BC08091BE029091D1
:1023A000BF028D7F05C08091BE029091BF028B7FDE
:1023B0009093BF028093BE028D2F0E94761C0E94D4
:1023C000FB1C11C18C2F837009F047C0111107C18C
:1023D0002D2F229526952770220F220F6D2F6F70BB
:1023E000862F90E0A0E0B0E0022E04C0880F991F75
:1023F000AA1FBB1F0A94D2F7D4FF10C04FE050E0D1
:1024000060E070E004C0440F551F661F771F2A95D7
:10241000D2F7409550956095709503C040E050E02C
:10242000BA01C695C695C3708A019B01082B192B6A
:102430002A2B3B2BC901B801C23049F058F4C130F6
:1024400019F00E94FB16CBC00E94E916C8C00E947A
:102450000D17C5C00E94E716C2C0112319F08C2FBA
:10246000817001C08695882309F4B9C02D2F22956B
:1024700026952770220F220F6D2F6F70862F90E008
:10248000A0E0B0E0022E04C0880F991FAA1FBB1F56
:102490000A94D2F7D4FF10C04FE050E060E070E043
:1024A00004C0440F551F661F771F2A95D2F7409529
:1024B00050956095709503C040E050E0BA01C69514
:1024C000C695C3708A019B01082B192B2A2B3B2B25
:1024D000C901B801C23049F058F4C13019F00E9466
:1024E000C0177DC00E94AE177AC00E94D21777C075
:1024F0000E94211774C0CF70112339F08C2F0E94D5
:1025000047178D2F0E94BF106AC08D2F0E94C610E2
:102510008C2F0E94681763C0D23F01F128F4D03F8E
:1025200041F0D13FA1F03FC0D33FF9F0D43F39F1A2
:102530003AC0112341F0053008F04DC08C2F8F7147
:102540000E948D1748C0063008F045C0F7CF112310
:1025500039F08C2F8F710E9447173DC01123C9F3AA
:102560008C2F8F710E94681736C0112329F08C2F91
:102570008F710E9432172FC00E942D172CC011237B
:1025800049F0CF718C2F0E94471763E08C2F0E9477
:10259000331921C081E00E9448190230E0F082E046
:1025A0000E94481918C0112331F0002391F28D2F99
:1025B0000E94950F10C0002399F2D93349F41FEF00
:1025C00027EE33E0115020403040E1F700C000001A
:1025D0008D2F0E94441088EF8C0D843020F40E94CF
:1025E0008D0D0E946808DD20C9F00E94B21880FDA0
:1025F00015C0F70112820E94AC180E944717C7014C
:102600000E942F130E94AC18DF91CF911F910F9160
:10261000FF90EF90DF90CF900C946817DF91CF91EF
:102620001F910F91FF90EF90DF90CF9008950F933F
:102630001F93CF93DF93EC01688179818A810E9497
:1026400089188C010E94E4170E94D516B801CE01AA
:102650000E94CD10DF91CF911F910F910895CF93DC
:10266000DF93FC019081818123813481232B31F020
:102670008F3F31F481E09F3F19F403C081E001C036
:1026800080E080FD0EC0EF01CF010E948108882309
:1026900041F0CE010E941713CE01DF91CF910C942F
:1026A0004C08DF91CF9108950E94DD180E94E01838
:1026B0000E94FE180E94A71E0E94FB1C80E090E072
:1026C0000E94F00D80E090E00C94060E80910001D5
:1026D000909101010E94651A0C9454130E94CD1828
:1026E0000C946613E92FE295EF704E2F50E0FA013B
:1026F0003297EE30F105B0F4EE59FF4F0C94B02B49
:10270000803F91F018F4883E68F40EC0843F51F485
:102710000BC0883E48F0813F29F406C093FB882710
:1027200080F9089580E0089581E008950E947E1860
:102730000E9472130895CF93DF9300D000D01F92B0
:10274000CDB7DEB70F900F900F900F900F90DF91E5
:10275000CF910895CF93DF9300D000D000D0CDB7B4
:10276000DEB726960FB6F894DEBF0FBECDBFDF9161
:10277000CF9108951F93CF93DF93C091C50116E0C9
:102780008091C601C81799F0D0E01C9FF0011D9FF1
:10279000F00D1124E953FE4F408151816281738114
:1027A000848195810E94AA132196C770E9CFDF9199
:1027B000CF911F9108954091F7015091F8016091D8
:1027C000F9017091FA018091FB019091FC010C9448
:1027D000AA130F931F93CF93DF938091FC018295EF
:1027E0008F7009F05DC08091F901882309F458C009
:1027F0008091C5011091C6016091F7017091F801B7
:10280000C091FA01D091FB0191E06F3F09F090E097
:10281000292F06E0811709F443C0209721F07F3F5C
:1028200021F030E003C031E001C0322F90E030FDF4
:1028300034C0089FF001099FF00D1124DF01A95356
:10284000BE4F11963C911197371327C03C91361318
:1028500024C012963C91129731111FC013964D91CE
:102860005C9114974C1B5D0B483C5105B0F4809172
:10287000FC018F7080618093FC01E453FE4F8081E6
:102880008F708061808387EF91E00E942F13DF912A
:10289000CF911F910F910C94BA1301968770BACF04
:1028A000DF91CF911F910F9108959F92AF92BF92A8
:1028B000CF92DF92EF92FF920F931F93CF93DF930C
:1028C000CDB7DEB761970FB6F894DEBF0FBECDBFB0
:1028D0008C0185E0F801DE011D9601900D928A952C
:1028E000E1F7F80140815181E2809091F701609118
:1028F000F8012091FA013091FB012115310531F0E9
:102900006F3F31F481E09F3F19F403C081E001C0C3
:1029100080E0F82FF1709F2E80FD46C1F801A38062
:10292000B48087EFC82E81E0D82EF090F901F50130
:10293000E21BF30BFF2009F4DFC08091FC01E83CAF
:10294000F10508F09BC0282F207F09F052C05613D4
:1029500013C0491311C0FE2CE1100EC08F708061AE
:102960008093FC010E94DB13C6010E942F1380910B
:10297000FC01F801858358C1AB2831F05F3F31F489
:1029800081E04F3F19F403C081E001C080E080FD89
:1029900003C081E08E2502C080E090E0F82FF17046
:1029A000FF2E80FF1CC08091C5012091C60136E03A
:1029B000821709F417C190E0389FF001399FF00D9C
:1029C0001124E953FE4F6181561306C060814613FE
:1029D00003C06281E61203C001968770E9CFFE2C26
:1029E000EE2009F421C18091FC0181608093FC01FB
:1029F0005AC0561306C0491304C0E11002C0F801C2
:102A00009FC04D875E878D859E850E949613882383
:102A100079F1EE2069F12091FC01822F82958F706F
:102A200090E0029774F08091F7019091F8019887F7
:102A30008F831986BB86AA862C87CE0107960E94B3
:102A40002F1386E0F801A7EFB1E001900D928A956F
:102A5000E1F70E94E9130E94DB130DC0561729F11C
:102A60004D875E878D859E850E94961381112CC0AF
:102A7000C8010E942F13FF24F394D6C0282F207F73
:102A800069F77A2DB98AA88A6E2D89890E949B13CD
:102A900087EF91E00E942F1386E0F60111928A954C
:102AA000E9F70E94DB13F12CBFC04913D9CFE11025
:102AB000D7CFF8018583C8010E942F1386E0F60165
:102AC00011928A95E9F7B0C0EE2091F22091FC01B5
:102AD000822F82958F7090E002970CF4B2CF809194
:102AE000F7019091F8019A8389831B82BD82AC82A1
:102AF0002E83CE010196A3CFE83CF10508F047C034
:102B0000FE2CEE2009F4B4CF561330C049132EC06A
:102B10002091FC0120FD21C0822F82958F70482FCB
:102B200050E041155105C9F0F80125834F3051059A
:102B300041F08F5F982F9295907F822F8F70892B15
:102B40008583C8010E942F1386E0F801A7EFB1E04A
:102B500001900D928A95E1F742C086E0F801A7EF57
:102B6000B1E001900D928A95E1F75EC04D875E87D6
:102B70008D859E850E949613811163CF8091FC0103
:102B800081608093FC01C8010E942F134DC07A2DF3
:102B9000B98AA88A6E2D89890E949B1386E0F60166
:102BA00011928A95E9F71BC0EE2009F461CF4D8799
:102BB0005E878D859E850E949613F82E882309F4E2
:102BC00057CF86E0F801A7EFB1E001900D928A950A
:102BD000E1F787EF91E00E948F0F0E94E9130E94B6
:102BE000DB1322C04D875E878D859E850E947E18EF
:102BF000292F22952F70223028F49F7039F08111EF
:102C000005C00BC0243028F49F7049F4805E8830E2
:102C100020F0C8010E942F139F2CF92C05C0F80149
:102C20009581907F99F7F9CF8F2D61960FB6F89423
:102C3000DEBF0FBECDBFDF91CF911F910F91FF90EF
:102C4000EF90DF90CF90BF90AF909F9008951F932B
:102C5000CF93DF93CDB7DEB72C970FB6F894DEBFD6
:102C60000FBECDBF4F83588769877A878B879C8734
:102C7000CE0107960E9455148823D1F09F81888544
:102C80002A853B85232B31F08F3F31F481E09F3F34
:102C900019F403C081E001C080E080FD47C04F818E
:102CA000588569857A858B859C850E94AA133EC0CC
:102CB00086E0FE013796DE01119601900D928A950D
:102CC000E1F7FF81E8856A857B856115710531F043
:102CD000EF3F31F481E0FF3F19F403C081E001C010
:102CE00080E080FD23C02091C60130E0C90101963B
:102CF000877099274091C50150E084179507F1F13D
:102D0000F983EA837D836C8396E0929FD001939F41
:102D1000B00D1124A953BE4FFE01319601900D92C2
:102D20009A95E1F78093C6010E94BA1316E080914C
:102D3000C5019091C601891771F1189FC001112436
:102D400089539E4F0E945514882329F1E091C501B3
:102D50001E9FF0011124E953FE4F40815181628191
:102D60007381848195810E94AA138091C50190E0AE
:102D70000196877099278093C501D9CF0E946E1361
:102D80001092C6011092C501E7EFF1E086E0DF0185
:102D90001D928A95E9F72C960FB6F894DEBF0FBE08
:102DA000CDBFDF91CF911F910895089508950C94A0
:102DB000D6160C94D7160E94D916609365027093AC
:102DC000660280936702909368020C9454130C94EB
:102DD000DB160F931F9300916502109166022091FC
:102DE000670230916802602B712B822B932B1F910D
:102DF0000F910C94DB160F931F93009165021091B5
:102E00006602209167023091680260237123822359
:102E100093231F910F910C94DB160F931F93009136
:102E20006502109166022091670230916802602766
:102E30007127822793271F910F910C94DB160C9416
:102E4000D6160E941F1760936102709362028093EE
:102E50006302909364020C94541360E070E0CB0121
:102E60000C9421170F931F9341E050E060E070E055
:102E70008A019B0104C0000F111F221F331F8A9576
:102E8000D2F7C901B8011F910F910C9421170F932C
:102E90001F9341E050E060E070E004C0440F551F14
:102EA000661F771F8A95D2F7809161029091620226
:102EB000A0916302B09164028A019B01082B192B37
:102EC0002A2B3B2BC901B8011F910F910C9421179C
:102ED0000F931F9341E050E060E070E004C0440FA6
:102EE000551F661F771F8A95D2F7409550956095BC
:102EF00070958091610290916202A0916302B091FD
:102F000064028A019B01082319232A233B23C90158
:102F1000B8011F910F910C9421170F931F9341E05B
:102F200050E060E070E004C0440F551F661F771F3B
:102F30008A95D2F78091610290916202A09163021A
:102F4000B09164028A019B01082719272A273B2791
:102F5000C901B8011F910F910C9421170F931F9372
:102F6000009161021091620220916302309164022B
:102F7000602B712B822B932B1F910F910C94211797
:102F80000F931F93009161021091620220916302DE
:102F90003091640260237123822393231F910F9148
:102FA0000C9421170F931F930091610210916202FC
:102FB0002091630230916402602771278227932752
:102FC0001F910F910C942117089528E0929F800D76
:102FD0001124E82FE695E695E695877051E001C04B
:102FE000550F8A95EAF785E0E89FF0011124E35038
:102FF000FE4F20E030E070E04081CB01022E02C0A5
:10300000969587950A94E2F78170819584278523A8
:10301000842781932F5F3F4F2530310569F708954D
:1030200028E0929F800D1124682F6695669566951D
:10303000982F977085E0689FB001112440E050E020
:1030400080E0FB01E40FF51FE350FE4F208130E0EC
:10305000092E02C0369527950A94E2F7217033278E
:10306000042E01C0220F0A94EAF7822B4F5F5F4FB4
:103070004530510531F70895BF92CF92DF92EF921C
:10308000FF920F931F93CF93DF938C01C090610247
:10309000D0906202E0906302F09064028091650239
:1030A00090916602A0916702B0916802C82AD92A5D
:1030B000EA2AFB2ACFE1D0E0D701C6010C2E04C0DA
:1030C000B695A795979587950A94D2F780FD04C089
:1030D000219790F7B12C07C0BC2EB8018C2F0E940D
:1030E000EE080197A9F38B2DDF91CF911F910F91DE
:1030F000FF90EF90DF90CF90BF900895CF93DF9334
:10310000EC010E943C18BE010E94EE08DF91CF91B5
:1031100008951F93CF93DF93EB019091C4019923FE
:1031200021F0CB010E947E1813C0882349F0CB0107
:103130000E943C18182F682FCE010E94E51704C08A
:10314000CB010E941018182FBE01812F0E94EE089B
:10315000DF91CF911F9108958091690285958595A2
:10316000859508958091690287700895909169020C
:10317000977081E009F480E00895809175020895C8
:1031800090917502892B8093750208958095909196
:10319000750289238093750208951092750208952F
:1031A00090917402892B8093740208958095909178
:1031B0007402892380937402089510927402089512
:1031C00010927302089580916A02089508950C94F4
:1031D000E6180C94E71890916A02981721F08093F2
:1031E0006A020C94E918089580916A02882329F0F4
:1031F00010926A0280E00C94E9180895E0910001B1
:10320000F0910101809175028083E0910001F091BD
:103210000101908180917402892B8083E0910001EB
:10322000F0910101908180917302892B80838091BC
:103230006A02882381F0E0910001F0910101908100
:10324000892B808380910001909101010E941F1AB7
:1032500081110E94F41880910001909101010C9459
:10326000990D0C94E61898E0899F90011124262B63
:10327000209369020E944717809169028595859580
:1032800085950C9431191092690280E00C943119E3
:10329000209169028095822380936902982F97700C
:1032A00079F430E0482F082E000C550B2417350711
:1032B00039F08595859585950E9468170C9443197A
:1032C0000895909399018093980108958295982F7D
:1032D000937344E0949F900111248C7C869586958D
:1032E000282B822F8575880F2A7A2695822B0895A0
:1032F00080E090E00E94D22B21E08C3E9E4F09F0AE
:1033000020E0822F089582E090E00C94CA2B83E0A5
:1033100090E00C94CA2BCF9384E090E00E94CA2BDB
:10332000C82F81E290E00E94CA2B2C2F30E0A90127
:10333000582BCA01CF910895CF93C92F682F84E0ED
:1033400090E00E94D82B6C2F81E290E0CF910C94FA
:10335000D82BAB01BC018FE090E00C94EA2BAB01C1
:10336000BC0183E190E00C94EA2B60E070E0CB01BB
:103370000C94AF1960E070E0CB010E94A9190C9485
:10338000B5196CEE7EEF80E090E00E94F62B60E0D5
:1033900082E090E00E94D82B60E083E090E00E9401
:1033A000D82B10926502109266021092670210925A
:1033B000680260E084E090E00E94D82B60E081E247
:1033C00090E00E94D82B60E085E090E00E94D82B2E
:1033D00060E086E090E00E94D82B6FEF87E090E0FD
:1033E0000E94D82B40E050E0BA0188E090E00E94B3
:1033F000EA2B60E08DE090E00E94D82B40E050E0A6
:10340000BA0188E190E00E94EA2B60E087E190E059
:103410000E94D82B40E050E0BA018CE190E00E947D
:10342000EA2B60E080E290E00E94D82B0C94BA195D
:103430000C94C119682F8EE090E00C94D82BFC01FD
:10344000329697E080E0915029F021912223D9F320
:103450008F5FF9CF0895662349F0FC0132960896F4
:103460002191621729F0E817F907D1F780E0089554
:1034700081E008959C01FC0132969FEF80E041912C
:10348000461789F09F3F19F4411101C0982F8F5FB3
:103490008630A9F79F3F39F0F901E90FF11D97FD3B
:1034A000FA956283089508959C012A5F3F4FFC01BD
:1034B0004281461301C01282019682179307B9F721
:1034C00008950C943A1A0C94541A029626E0FC01C2
:1034D00011922A95E9F7089508950C946C1A0C94AA
:1034E0006C1ACF930E946F1A0E942D0B0E946D1AC6
:1034F000C0E08C2F0E94C70A811104C0CF5FC43185
:10350000C1F701C081E0CF9108950C946C1A0C941E
:10351000851A0E94871A8091CA02843049F110925C
:10352000770220E488E190E00FB6F894A8958093A4
:1035300060000FBE2093600080E00E9468080E9437
:10354000871A83B7817F846083BF83B7816083BF1D
:103550007894889583B78E7F83BF0FB6F894A8952B
:1035600080916000886180936000109260000FBEBF
:1035700008950C946C1A0E946E130E948D0D0E9487
:1035800068080C94B91A1F920F920FB60F9211246B
:103590008F939F93AF93BF9380917702811113C054
:1035A0008091C0029091C102A091C202B091C30269
:1035B0004196A11DB11D8093C0029093C102A093BA
:1035C000C202B093C302BF91AF919F918F910F90B0
:1035D0000FBE0F901F90189582E084BD93E095BDBB
:1035E0009AEF97BD80936E0008952FB7F89480915D
:1035F000C0029091C102A091C202B091C3022FBF3C
:1036000008952FB7F8946091C0027091C102809123
:10361000C2029091C3022FBF08959C014FB7F89446
:103620008091C0029091C102A091C202B091C302E8
:103630004FBF821B930B089578941F920F920FB681
:103640000F9211248F939F93AF93BF938091C002E9
:103650009091C102A091C202B091C3020196A11D36
:10366000B11D8093C0029093C102A093C202B09397
:10367000C302BF91AF919F918F910F900FBE0F909A
:103680001F901895F89481E08093E00080E2809389
:10369000D800E9ECF0E010828FE19EE40197F1F7A9
:1036A00000C000001DBA109268001CBC10BE1FBAFA
:1036B00010927A0010926E0010926F0010927100BA
:1036C000109272001082ECEBF0E0108214B817B880
:1036D0001AB81DB810BA108215B818B81BB81EB8A1
:1036E00011BA0C94003F08950E947819811102C00C
:1036F0000E94181A0E948319809376020E948B19E7
:103700009093C5028093C4020E948719682F70E0CD
:1037100080E090E00C94E71680917F0280FF0BC060
:103720006091070185E0689FB00111247595679548
:10373000759567952BC081FF09C06091070185E0F1
:10374000689FB00111247595679520C082FF07C05E
:103750006091070185E0689FB001112417C0909126
:103760007E029923D1F060910601961788F7209187
:10377000070185E0289F90011124929FA001939F4B
:10378000500D112470E0CA010E949C2B6038710515
:1037900040F46115710519F406C065E070E0862FEC
:1037A00008958FE7089581E0089580917F0280FF5A
:1037B00008C06091030170E07595679575956795F0
:1037C00021C081FF06C06091030170E07595679587
:1037D00019C082FF04C06091030170E010C0909195
:1037E0007E02992399F0609102019617A0F78091CB
:1037F0000301899FC001112470E00E949C2B603856
:10380000710540F46115710519F406C061E070E0BE
:10381000862F08958FE7089581E00895803F21F471
:103820000E948C1B819504C0813F29F40E948C1B4F
:10383000809383020895823F21F40E948C1B81951E
:1038400004C0833F29F40E948C1B80938202089558
:10385000893F19F40E94D51B05C08A3F31F40E94AC
:10386000D51B81958093840208958B3F21F40E949B
:10387000D51B819504C08C3F29F40E94D51B8093F1
:1038800085020895843F21F480918102816017C0F0
:10389000853F21F480918102826011C0863F21F42E
:1038A0008091810284600BC0873F21F48091810266
:1038B000886005C0883F31F48091810280618093E7
:1038C000810208958D3F21F480917F0281600BC0B9
:1038D0008E3F21F480917F02826005C08F3F29F4E2
:1038E00080917F02846080937F020895803F39F445
:1038F0008091830287FF6CC01092830269C0813F70
:1039000029F4809183021816BCF362C09091820260
:10391000823F29F497FF5CC01092820259C0833F16
:1039200019F41916CCF354C0893F41F480918402F4
:1039300018160CF04DC0109284024AC08A3F29F438
:103940008091840287FF44C0F6CF8B3F39F4809189
:10395000850287FF3DC0109285023AC08C3F29F452
:10396000809185021816BCF333C0843F21F4809106
:1039700081028E7F17C0853F21F4809181028D7F67
:1039800011C0863F21F4809181028B7F0BC0873F5D
:1039900021F480918102877F05C0883F31F48091B6
:1039A00081028F7E8093810213C08D3F21F480912C
:1039B0007F028E7F0BC08E3F21F480917F028D7F2E
:1039C00005C08F3F29F480917F028B7F80937F0217
:1039D0008091820281110EC08091830281110AC000
:1039E00080918402811106C080918502811102C0FC
:1039F00010927E0208958091760283FF7EC087E058
:103A000093E00E94C106809181021F928F9382E011
:103A100093E09F938F930E945A0780E093E00E9467
:103A2000C10680918202282F082E000C330B3F9391
:103A30008F938DEF92E09F938F930E945A078BEFA5
:103A400092E00E94C10680918302282F082E000C6C
:103A5000330B3F938F9388EF92E09F938F930E9455
:103A60005A0786EF92E00E94C10680918402282FB7
:103A7000082E000C330B3F938F9383EF92E09F93BC
:103A80008F930E945A0781EF92E00E94C1068091B5
:103A90008502282F082E000C330B3F938F938EEE58
:103AA00092E09F938F930E945A078BEE92E00E94C0
:103AB000C10680917E021F928F9388EE92E09F93C1
:103AC0008F930E945A0786EE92E00E94C106809171
:103AD0007F021F928F9383EE92E09F938F930E94B9
:103AE0005A0780EE92E00E94C1068DB79EB74C96B1
:103AF0000FB6F8949EBF0FBE8DBF80E892E00E9483
:103B0000E20D0E94F51A90937D0280937C02089545
:103B1000CF93DF9300D000D000D0CDB7DEB786E0E2
:103B2000E0E8F2E0DE01119601900D928A95E1F74E
:103B300080918202811105C080918302882309F45B
:103B40007AC080917A0290917B020E940D1BAC0199
:103B500090917E02992339F02091080130E02417DA
:103B6000350758F068C0209109018AE0289F90012C
:103B700011242417350718F05EC09F3F19F09F5F8E
:103B800090937E02109284021092850280918202AC
:103B9000181624F40E948C1B80938202809182026A
:103BA00087FF05C00E948C1B8195809382028091C3
:103BB0008302181624F40E948C1B80938302809148
:103BC000830287FF05C00E948C1B8195809383022E
:103BD000309182023323E1F0209183022223C1F04D
:103BE00045EB3403C0011124992319F0909382020C
:103BF00003C081E08093820235EB2303C0011124CE
:103C0000992319F09093830203C081E0809383028B
:103C10000E94FB1C80917C0290917D0290937B021C
:103C200080937A0286E0FE013196A0E8B2E001902E
:103C30000D928A95E1F780918402811105C08091EF
:103C40008502882309F47AC08091780290917902E4
:103C50000E940D1BAC0190917E02992339F02091B6
:103C6000040130E02417350758F068C020910501A1
:103C70008AE0289F900111242417350718F05EC0B0
:103C80009F3F19F09F5F90937E02109282021092E4
:103C9000830280918402181624F40E94D51B80931D
:103CA00084028091840287FF05C00E94D51B819504
:103CB0008093840280918502181624F40E94D51BFB
:103CC000809385028091850287FF05C00E94D51BE5
:103CD000819580938502309184023323E1F0209115
:103CE00085022223C1F045EB3403C001112499233E
:103CF00019F09093840203C081E08093840235EB35
:103D00002303C0011124992319F09093850203C065
:103D100081E0809385020E94FB1C80917C0290913F
:103D20007D02909379028093780286E0FE013196BD
:103D3000A0E8B2E001900D928A95E1F726960FB6C1
:103D4000F894DEBF0FBECDBFDF91CF910895E0E8BC
:103D5000F2E086E0DF011D928A95E9F710927E027B
:103D600010927F0208958AE295E00E94C1061F9298
:103D700081E08F931F9285E08F938CED94E09F9369
:103D80008F930E945A070F900F900F900F900F90F3
:103D90000F9008958330E9F128F4813061F082308A
:103DA00009F10895853009F462C008F449C08630ED
:103DB00009F474C0089580910901262F30E0280F7E
:103DC000311D2F3F310524F4680F6093090103C0B2
:103DD0008FEF80930901809109011F928F9385E1F4
:103DE00094E072C080910801262F30E0280F311D29
:103DF0002F3F310524F4680F6093080103C08FEF53
:103E000080930801809108011F928F9383E094E0D2
:103E10005BC080910701262F30E0280F311D2F3F16
:103E2000310524F4680F6093070103C08FEF80937E
:103E30000701809107011F928F9380EF93E044C0A8
:103E400080910601262F30E0280F311D2F3F3105CC
:103E500024F4680F6093060103C08FEF809306017E
:103E6000809106011F928F938BED93E02DC080917E
:103E70000301262F30E0280F311D2F3F310524F498
:103E8000680F6093030103C08FEF8093030180915B
:103E900003011F928F9382EC93E016C08091020180
:103EA000262F30E0280F311D2F3F310524F4680FF5
:103EB0006093020103C08FEF8093020180910201A1
:103EC0001F928F9387EA93E09F938F930E945A07E4
:103ED0000F900F900F900F900895833081F128F488
:103EE000813059F08230D1F00895853009F449C00D
:103EF000B8F1863009F456C0089580910901681719
:103F000020F4861B8093090102C010920901809160
:103F100009011F928F9388E993E054C080910801B2
:103F2000681720F4861B8093080102C010920801D4
:103F3000809108011F928F9386E893E043C080919F
:103F40000701681720F4861B8093070102C01092B6
:103F50000701809107011F928F9383E793E032C09E
:103F600080910601681720F4861B8093060102C029
:103F700010920601809106011F928F938EE593E0C7
:103F800021C080910301681720F4861B80930301F0
:103F900002C010920301809103011F928F9385E468
:103FA00093E010C080910201681720F4861B809373
:103FB000020102C010920201809102011F928F93B0
:103FC0008AE293E09F938F930E945A070F900F907D
:103FD0000F900F900895CF93C82F1F928F938FE269
:103FE00096E09F938F930E945A0781E090E0A0E0B3
:103FF000B0E0BC01CD0104C0660F771F881F991F78
:10400000CA95D2F70E94E7160F900F900F900F906D
:10401000CF910C946E13CF93DF938B3109F4EEC1E3
:1040200008F08FC18B3009F4B2C108F065C1863049
:1040300009F4B0C120F4853009F4BEC161C28730F3
:1040400009F4C1C1883009F05BC28EE69BE00E9492
:10405000C1068FEB9AE00E94C1060E9487191F9249
:104060008F938CEB9AE09F938F930E945A078AEB71
:104070009AE00E94C1060E948319C82F87EA9AE03D
:104080000E94C1061F92CF9382EA9AE09F938F937A
:104090000E945A0780EA9AE00E94C10686E99AE0E7
:1040A0000E94C1068C2F81701F928F9383E99AE042
:1040B0009F938F930E945A0781E99AE00E94C1065C
:1040C00087E89AE00E94C106C1FB882780F91F9209
:1040D0008F9384E89AE09F938F930E945A0782E817
:1040E0009AE00E94C10686E79AE00E94C106C2FBE0
:1040F000882780F91F928F9383E79AE09F938F938D
:104100000E945A0781E79AE00E94C10688E69AE079
:104110000E94C106C3FBCC27C0F91F92CF9385E64E
:104120009AE09F938F930E945A0783E69AE00E9439
:10413000C1060E948B19EC018FE49AE00E94C1062F
:10414000DF93CF938AE49AE09F938F930E945A075C
:1041500088E49AE00E94C1068FE29AE00E94C106BC
:104160008C2F81701F928F938CE29AE09F938F9394
:104170000E945A078DB79EB780960FB6F8949EBFDF
:104180000FBE8DBF8AE29AE00E94C10683E19AE0E9
:104190000E94C106C1FB882780F91F928F9380E19E
:1041A0009AE09F938F930E945A078EE09AE00E94B4
:1041B000C1068CEF99E00E94C1068D2F81701F927D
:1041C0008F9389EF99E09F938F930E945A0787EF0F
:1041D00099E00E94C10685EE99E00E94C106D6953D
:1041E000D1701F92DF9382EE99E09F938F930E948C
:1041F0005A0780EE99E00E94C1068EEC99E00E9479
:10420000C106C2FB882780F91F928F938BEC99E03F
:104210009F938F930E945A0789EC99E00E94C106F0
:1042200087EB99E00E94C106C3FB882780F91F92A3
:104230008F9384EB99E09F938F930E945A0782EBB0
:1042400099E00E94C10688EA99E00E94C106C4FB79
:10425000882780F91F928F9385EA99E09F938F9327
:104260000E945A0783EA99E00E94C10681E999E019
:104270000E94C106C5FB882780F91F928F938EE8A4
:1042800099E09F938F930E945A078CE899E00E94CF
:10429000C10680E799E00E94C106C6FB882780F925
:1042A0001F928F938DE699E09F938F930E945A07F8
:1042B0008DB79EB780960FB6F8949EBF0FBE8DBF88
:1042C0008BE699E00E94C10683E699E00E94C10650
:1042D000C7FBCC27C0F91F92CF9380E699E09F934C
:1042E0008F930E945A078EE599E00E94C1060F90B5
:1042F0000F900F900F9049C0803109F4A9C020F4AD
:104300008E3009F48FC0FCC0863109F4BCC08931FD
:1043100009F0F6C085E897E00E94C1068CE697E0B8
:104320000E94C1068FE297E00E94C1068DEF96E0E1
:104330000E94C10688EC96E00E94C1068DE996E0D5
:1043400084C08A32E1F060F4873209F4D5C028F4E1
:104350008E3108F4D5C08D51D0C0893269F1D0C0FA
:10436000833448F48A3308F0C5C0853309F4C4C0E7
:10437000883369F0C5C0833409F4BEC0C1C08DE57F
:104380009BE00E94C1060E94181AC1E0BEC08BEBE0
:1043900097E05BC080917602817F8E7F809376026A
:1043A00084E997E00E94C10689E59BE00E94C1066E
:1043B00081E080938702E9CF8DE39BE00E94C106F4
:1043C0000E947208E2CF80917602C82FC095C1701A
:1043D000C0FB80F980937602CC2329F081E39BE037
:1043E0000E94C10692C084E29BE00E94C1068091B7
:1043F0007602897F877F80937602C7CF909176027D
:1044000091FBCC27C0F981E0C827892FC0FB81F937
:1044100080937602CC2319F087E19BE029C089E0E4
:104420009BE013C09091760292FBCC27C0F981E00B
:10443000C827892FC0FB82F980937602CC2319F01C
:104440008AEF9AE015C08AEE9AE00E94C1069DCFDD
:104450009091760293FBCC27C0F981E0C827892F81
:10446000C0FB83F980937602CC2351F08EED9AE065
:104470000E94C1068091760281608093760245C0D9
:1044800081ED9AE0E2CF8FE896E00E94C1060E949B
:104490008D0D1F928F9385E796E09F938F930E94D7
:1044A0005A07809114011F928F938EE596E09F9397
:1044B0008F930E945A07809194021F928F938BE4EE
:1044C00096E09F938F930E945A070E94011B9F932F
:1044D0008F937F936F9384E396E09F938F930E94D3
:1044E0005A078DB79EB742960FB6F8949EBF0FBE7F
:1044F0008DBF4BCF895301C080E00E94EB1F45CF99
:104500008FEC9AE00E94C106C0E08C2FDF91CF9122
:10451000089580E008950C9489228E518A3030F4F9
:10452000E82FF0E0E158FE4F8081089580E0089583
:10453000CF93C82F80918702813059F020F08230CC
:1045400009F445C039C10E94BD18823209F036C154
:1045500004C00E94BD18823261F48C2F0E948B220D
:10456000811104C08C2F0E940B202FC081E090E0AD
:104570002CC08C2F0E948922811126C0C431E1F009
:1045800070F4CB3081F0C031D1F40E94B31E87E2C9
:1045900096E00E94C10682E08093870215C0C9326E
:1045A00059F0C83361F484E997E00E94C1068BE2B8
:1045B00096E00E94C10608C01092870201C185E200
:1045C00096E00E94C106FCC081E08170FBC0C4324D
:1045D00028F5CE3108F0C1C0CB30A1F1D0F4C730FE
:1045E00009F0D0C08EE18093090182E38093080135
:1045F0008AE08093070184E18093060188E080933C
:10460000030188E2809302018BEC94E00E94C106D2
:10461000BCC0C33149F1C431C1F0B4C0CB3409F4DA
:10462000A6C028F4C93289F0C83361F0ABC0C135E7
:1046300009F49BC0C23509F496C0CE3409F0A2C07B
:104640006AE09BC00E94B31EA0C0809186028823AE
:1046500019F01092860299C088ED94E00E94C1067C
:1046600081E080938702AEC082EB94E00E94C10695
:1046700080EA94E00E94C106809109011F928F9305
:104680008DE994E09F938F930E945A078BE994E001
:104690000E94C10689E894E00E94C1068091080149
:1046A0001F928F9386E894E09F938F930E945A07FE
:1046B00084E894E00E94C10685E794E00E94C10668
:1046C000809107011F928F9382E794E09F938F93CD
:1046D0000E945A0780E794E00E94C1068FE594E0AB
:1046E0000E94C106809106011F928F938CE594E091
:1046F0009F938F930E945A078AE594E00E94C10617
:1047000085E494E00E94C106809103011F928F937B
:1047100082E494E09F938F930E945A0780E494E090
:104720000E94C10689E294E00E94C10680910201C4
:104730001F928F9386E294E09F938F930E945A0773
:1047400084E294E00E94C1068DB79EB748960FB6EA
:10475000F8949EBF0FBE8DBF18C08C2F0E948D2273
:104760008093860212C061E003C061E006C06AE087
:10477000809186020E94CA1E08C0809186020E9413
:104780006D1F03C089EC94E013C0809186028823DA
:1047900069F01F928F9383EC94E09F938F930E9414
:1047A0005A070F900F900F900F9004C080EC94E088
:1047B0000E94C10681E006C01092870280E002C01C
:1047C00080E003CFCF9108958091930208959FB721
:1047D000F89410928A029FBF9091CA02943009F017
:1047E00057C09091E9009F703091EC00232F217009
:1047F00030FD20E8922B23E02093E9002091EB008C
:1048000020FF43C02091EE0027FF3FC02091880287
:10481000222321F02091E80025FF37C01092880262
:1048200026E03091E80035FD15C03091CA023430E1
:1048300061F53091EB0035FD28C0215021F481E075
:104840008093880222C0EFE9FFE03197F1F700C0C2
:104850000000E7CF8093F1008091E80085FD0AC059
:104860008091E80080FFFCCF8091E8008E778093F4
:10487000E80006C08FB7F89421E020938A028FBF2A
:104880009F709093E90080E008959F709093E900F5
:104890008FEF0895CF93DF9300D01F92CDB7DEB78F
:1048A0009091CA02943019F589837B836A8382E0F0
:1048B0008093E9008FEF9091E800815095FD06C04C
:1048C00095ED9A95F1F700008111F5CF8091E80000
:1048D00085FF0DC040E050E063E070E0CE0101963E
:1048E0000E94F3268091E8008E778093E8000F9075
:1048F0000F900F90DF91CF910895CF93DF93EC014C
:104900000E94D626823011F0843031F4BE0184E05A
:10491000DF91CF910C944A24DF91CF910895BC018F
:1049200083E00C944A24CF93DF93EC010E94D626B7
:10493000823011F08430F9F482E08093E9008FEF47
:104940009091E800815095FD06C095ED9A95F1F79C
:1049500000008111F5CF8091E80085FF0CC040E098
:1049600050E066E070E0CE010E94F3268091E800FE
:104970008E778093E800DF91CF910895CF93DF93F6
:10498000EC010E94D626823011F0843039F581E0A6
:104990008093E9008FEF9091E800815095FD06C06B
:1049A00095ED9A95F1F700008111F5CF8091E8001F
:1049B00085FF14C040E050E068E070E0CE010E9446
:1049C000F3268091E8008E778093E80088E0FE016E
:1049D000ABE8B2E001900D928A95E1F7DF91CF91BB
:1049E00008958EE99BE00E94C1068091C902811161
:1049F00009C00E9484280E94E1288091E20084601E
:104A00008093E20008958AE99BE00E94C10610921B
:104A1000C902089586E99BE00C94C10682E99BE0F7
:104A20000C94C1068EE89BE00E94C1060C94BB1A50
:104A3000209189022F5F822F62E30E94902B99239D
:104A400019F02093890208951092890280918A02B8
:104A5000882371F18091CA02843041F58091E90088
:104A60008F702091EC00922F917020FD90E8892B9F
:104A700093E09093E9009091EB0090FF14C0909127
:104A8000EE0097FF10C09091E80095FF03C01092D0
:104A9000F100F9CF9091E80090FF05C09091E800F7
:104AA0009E779093E8008F708093E90010928A02BD
:104AB000089542E061EC81E00E94FD2742E261EC52
:104AC00082E00E94FD2742E261EC83E00C94FD2726
:104AD0008091CC02833009F460C030F4813071F0F1
:104AE000823009F499C008958A3009F485C08B306A
:104AF00009F46BC0893009F0A7C020C08091CB02B7
:104B0000813A09F0A1C08091E800877F8093E80096
:104B10008091CF029091D002892B21F468E08BE83C
:104B200092E003C060E080E090E070E00E943E27E9
:104B30008091E8008B778093E80008958091CB0204
:104B4000813209F081C08091CF029091D00202970A
:104B500008F07AC08091E800877F8093E800809118
:104B6000E80082FD05C08091CA028111F8CF6CC0B7
:104B70002091F3008091F20090E0922B029729F4AB
:104B80008091F1008B7F813021F48091F10080933E
:104B900093028091E8008B7753C08091CB02813AD9
:104BA00009F052C08091CF029091D002892B09F078
:104BB0004BC08091E800877F8093E8008091E800F7
:104BC00080FFFCCF8091140136C08091CB028132EE
:104BD000D9F58091CF029091D002892BA9F58091CF
:104BE000E800877F8093E8000E9432288091CD0200
:104BF000809314010C946E138091CB02813221F5C5
:104C00008091E800877F8093E8000E94322880919D
:104C1000CE028093940208958091CB02813AA1F450
:104C20008091E800877F8093E8008091E80080FF12
:104C3000FCCF809194028093F1008091E8008E7700
:104C40008093E8000C943228089584B7877F84BF4E
:104C50000FB6F894A89580916000886180936000F9
:104C6000109260000FBE90E080E80FB6F894809339
:104C70006100909361000FBE0E948D0E0E948428F7
:104C80000E94E1288091E20084608093E20087EE38
:104C900093E20E94611978940E94752B0E94970EEE
:104CA0008AE091E00E94880D8DE79BE00E94C1069A
:104CB0008091CA02853089F489E79BE00E94C10691
:104CC0000E94891A8091C802882391F30E94711A68
:104CD000882371F30E94DD26EBCF0E94C70EE8CF38
:104CE0000C947226292F332723303105C9F060F444
:104CF0002130310581F02230310509F047C08BE5C4
:104D000090E02CED3BE046C02132310511F122321A
:104D1000310561F13BC082E190E027E33CE03AC01D
:104D200099278130910561F040F08230910559F06A
:104D3000039761F5E2EAFBE008C0E8EDFBE005C09F
:104D4000EEEBFBE002C0E8EAFBE0849190E09F011B
:104D500021C063307105D0F4660F771FFB01EE565A
:104D6000FE4F2081318189E090E014C063307105ED
:104D700068F4FB01EE0FFF1FE457FE4F20813181E5
:104D8000FB01E757FE4F808190E004C080E090E097
:104D900020E030E0FA013183208308958091CA0237
:104DA000843011F081E0089582E0089580919502A9
:104DB000811102C00C94CE26089580E189BD82E164
:104DC00089BD09B400FEFDCF8091D8008F7D80930E
:104DD000D8008091E00082608093E0008091E00044
:104DE00081FDFCCF0895CF92DF92EF92FF920F9357
:104DF0001F93CF93DF93EC018B017A010E9451281E
:104E0000811133C0E114F10439F0F70180819181FF
:104E1000081B190BC80FD91FC12CD12C0115110566
:104E200019F18091E80085FD16C08091E8008E7729
:104E30008093E800E114F10449F0F7018081918149
:104E4000C80ED91ED182C08285E00FC00E945128B1
:104E5000882321F30AC089918093F1000150110940
:104E6000FFEFCF1ADF0ADACF80E0DF91CF911F91F9
:104E70000F91FF90EF90DF90CF9008952091D10295
:104E80003091D2022617370748F06115710539F4C1
:104E90002091E8002E772093E80001C0B901FC01C1
:104EA00020E06115710579F18091CA028823F1F142
:104EB0008530F1F18091E80083FD3CC08091E800ED
:104EC00082FD2EC08091E80080FFEBCF2091F3009F
:104ED0008091F20090E0922B6115710551F08830BD
:104EE000910538F421912093F100615071090196E8
:104EF000F3CF21E0089709F020E08091E8008E7759
:104F00008093E800CECF2111CFCF0AC08091CA0292
:104F1000882361F0853061F08091E80083FD0AC04C
:104F20008091E80082FFF2CF80E0089582E008954A
:104F300083E0089581E008952091D1023091D2025A
:104F40002617370748F06115710539F42091E800FC
:104F50002E772093E80001C0B901FC0120E0611523
:104F6000710591F18091CA02882309F440C085300F
:104F700009F43FC08091E80083FD3DC08091E800C6
:104F800082FD2FC08091E80080FFE9CF2091F300DF
:104F90008091F20090E0922B6115710559F08830F4
:104FA000910540F424912093F100319661507109EC
:104FB0000196F2CF21E0089709F020E08091E80007
:104FC0008E778093E800CBCF2111CCCF0AC080919F
:104FD000CA02882361F0853061F08091E80083FD8A
:104FE0000AC08091E80082FFF2CF80E0089582E05D
:104FF000089583E0089581E00895982F973068F52B
:105000009093E900981739F07091EC002091ED0031
:105010005091F00003C0242F762F50E021FD02C0F4
:105020009F5FECCF3091EB003E7F3093EB003091EF
:10503000ED003D7F3093ED003091EB003160309317
:10504000EB007093EC002093ED005093F000209162
:10505000EE0027FDE5CF80E008958F708093E90092
:1050600081E008958091CB0287FF11C08091E80014
:1050700082FD05C08091CA028111F8CF11C08091D4
:10508000E8008B770BC08091CA02882349F0809199
:10509000E80080FFF8CF8091E8008E778093E800E9
:1050A00008952091E4003091E50095E64091EC00F0
:1050B000842F817040FF23C08091E80080FD1DC0D7
:1050C0008091CA02882399F0853099F08091EB0095
:1050D00085FD11C04091E4005091E500241735078B
:1050E00029F3915011F09A01E1CF84E0089582E014
:1050F000089583E0089581E0089580E00895409147
:10510000E80042FFDDCF08950E94F2280E94FA28AD
:10511000E0EEF0E0808181608083E8EDF0E0808166
:105120008F77808319BCA7EDB0E08C918E7F8C9334
:1051300080818F7E80831092C90208950F931F9300
:10514000CF93DF930E94F2280E94FA28C8EDD0E0A6
:1051500088818F77888388818068888388818F7D24
:10516000888319BC1092CA021092C6021092C8021B
:105170001092C70200EE10E0F80180818B7F8083DF
:1051800088818160888342E060E080E00E94FD27A2
:10519000E1EEF0E080818E7F8083E2EEF0E08081BE
:1051A00081608083808188608083F80180818E7F28
:1051B0008083888180618883DF91CF911F910F91D7
:1051C0000895E8EDF0E080818F7E8083E7EDF0E0E8
:1051D00080818160808384E082BF81E08093C90206
:1051E0000C949E28E8EDF0E080818E7F8083109201
:1051F000E20008951092DA001092E10008951F92E3
:105200000F920FB60F9211242F933F934F935F93FA
:105210006F937F938F939F93AF93BF93EF93FF937E
:105220008091E10082FF0BC08091E20082FF07C005
:105230008091E1008B7F8093E1000E94182580918E
:10524000DA0080FF1FC08091D80080FF1BC08091D2
:10525000DA008E7F8093DA008091D90080FF0DC044
:1052600080E189BD82E189BD09B400FEFDCF81E006
:105270008093CA020E94F12405C019BC1092CA0290
:105280000E9403258091E10080FF19C08091E20017
:1052900080FF15C08091E2008E7F8093E2008091B4
:1052A000E20080618093E2008091D8008062809368
:1052B000D80019BC85E08093CA020E940E25809117
:1052C000E10084FF30C08091E20084FF2CC080E1C7
:1052D00089BD82E189BD09B400FEFDCF8091D8006F
:1052E0008F7D8093D8008091E1008F7E8093E100D4
:1052F0008091E2008F7E8093E2008091E2008160E5
:105300008093E2008091C602882311F084E007C0F8
:105310008091E30087FD02C081E001C083E08093BB
:10532000CA020E9412258091E10083FF29C080916A
:10533000E20083FF25C08091E100877F8093E10038
:1053400082E08093CA021092C6028091E1008E7FB3
:105350008093E1008091E2008E7F8093E200809153
:10536000E20080618093E20042E060E080E00E9421
:10537000FD278091F00088608093F0000E940A254C
:10538000FF91EF91BF91AF919F918F917F916F911D
:105390005F914F913F912F910F900FBE0F901F90F3
:1053A00018951F920F920FB60F9211242F933F93CF
:1053B0004F935F936F937F938F939F93AF93BF931D
:1053C000CF93DF93EF93FF93C091E900CF7080916B
:1053D000EC00D82FD17080FDD0E81092E9008091C8
:1053E000F000877F8093F00078940E94152A109235
:1053F000E9008091F00088608093F000CD2BCF70A1
:10540000C093E900FF91EF91DF91CF91BF91AF91F0
:105410009F918F917F916F915F914F913F912F91CC
:105420000F900FBE0F901F9018951F93CF93DF938F
:10543000CDB7DEB7AA970FB6F894DEBF0FBECDBFCB
:10544000EBECF2E08091F100819322E0E33DF20782
:10545000C9F70E9468258091E80083FF2EC18091E2
:10546000CB029091CC02492F50E04A30510508F010
:1054700024C1FA01E059FF4F0C94B02B803821F081
:10548000823809F01AC108C08091C7029091C80201
:10549000992389F082600FC08091CF028F7087308E
:1054A00008F00BC18093E9008091EB0085FB882711
:1054B00080F91092E9009091E800977F9093E800BE
:1054C0008093F1001092F100D1C0282F2D7F09F0B8
:1054D000F4C0882319F0823061F0EFC08091CD02D2
:1054E000813009F0EAC0933009F080E08093C8026F
:1054F0002EC08091CD0281112AC08091CF028F7081
:105500002FEF280F263008F0D8C08093E9002091B3
:10551000EB0020FF1CC0933021F48091EB008062EF
:1055200014C09091EB0090619093EB0021E030E08B
:10553000A90102C0440F551F8A95E2F74093EA0083
:105540001092EA008091EB0088608093EB0010924B
:10555000E9008091E800877F8093E8000E9432286C
:10556000ACC08111AAC01091CD021F778091E300D9
:105570008078812B8093E3008091E800877F80937F
:10558000E8000E9432288091E80080FFFCCF8091E3
:10559000E30080688093E300111102C082E001C043
:1055A00083E08093CA0289C08058823008F085C0A9
:1055B0008091CD029091CE028C3D53E0950779F514
:1055C00083E08A838AE289834FB7F894DE011396D9
:1055D00020E03EE051E2E32FF0E050935700E491E9
:1055E00020FF03C0E295EF703F5FEF708E2F90E0D9
:1055F000EA3010F0C79601C0C0968D939D932F5F3F
:10560000243149F74FBF8091E800877F8093E800FD
:105610006AE270E0CE0101960E943E2716C06091BA
:10562000CF027091D002AE014F5F5F4F0E94702693
:10563000BC01892B09F441C09091E800977F9093B9
:10564000E80089819A810E949C278091E8008B77ED
:105650008093E80032C0803881F58091E800877F30
:105660008093E8008091C6028093F1008091E80069
:105670008E7772CF811121C08091CD029091CE02A0
:1056800099270297D4F48091E800877F8093E800FF
:105690008091CD028093C6020E9432288091C6027A
:1056A000811106C08091E30087FD02C081E001C046
:1056B00084E08093CA020E9459258091E80083FF0C
:1056C0000AC08091E800877F8093E8008091EB001A
:1056D00080628093EB00AA960FB6F894DEBF0FBEEF
:1056E000CDBFDF91CF911F910895CF938091CA02D2
:1056F0008823A1F0C091E900CF709091EC00892F30
:10570000817090FD80E8C82B1092E9008091E8003C
:1057100083FD0E94152ACF70C093E900CF910895B0
:10572000991B79E004C0991F961708F0961B881FF3
:105730007A95C9F78095089597FB072E16F4009483
:1057400007D077FD09D00E94B62B07FC05D03EF4A8
:10575000909581959F4F0895709561957F4F08951D
:10576000EE0FFF1F0590F491E02D0994AA1BBB1BBF
:1057700051E107C0AA1FBB1FA617B70710F0A61B51
:10578000B70B881F991F5A95A9F780959095BC0172
:10579000CD010895F999FECF92BD81BDF89A992760
:1057A00080B50895A8E1B0E042E050E00C94FE2BF3
:1057B000262FF999FECF92BD81BDF89A019700B4CA
:1057C000021639F01FBA20BD0FB6F894FA9AF99A6A
:1057D0000FBE08950396272F0E94D92B0E94D82B25
:1057E000252F0E94D92B242F0C94D92B0196272FDB
:1057F0000E94D92B0C94D82BDC01CB01FC01F99928
:10580000FECF06C0F2BDE1BDF89A319600B40D920C
:0C58100041505040B8F70895F894FFCFC5
:10581C006B022808641E140A321EE423BE2493244F
:10582C008F247D2401F0F1F4F5F6F73635E200E92A
:10583C0000EA00B500B600B700CD008301CC008AA9
:10584C00019201940121022302240225022602273F
:10585C00022A02B300B4006F007000818283E20060
:10586C00E900EA00B500B600B700CD008301CC001A
:10587C008A019201940121022302240225022602AC
:10588C0027022A02B300B4006F00700081828301EA
:10589C00020304050607080900408122EC0C6B0C7E
:0858AC00490CEE0B070C200C67
:00000001FF
