:100000000C9465020C94A9020C94A9020C94A90208
:100010000C94A9020C94A9020C94A9020C94A902B4
:100020000C94A9020C94A9020C94A00C0C94720DCF
:100030000C94A9020C94A9020C94A9020C94A90294
:100040000C94A9020C9446220C94A9020C94A902C7
:100050000C94A9020C94EA1B0C94A9020C94A9021A
:100060000C94A9020C94A9020C94A9020C94A90264
:100070000C94A9020C94A9020C94A9020C94A90254
:100080000C94A9020C94A9020C94A9020C94A90244
:100090000C94A9020C94A9020C94A9020C94A90234
:1000A0000C94A9020C94A9020C94A902D70DF90D85
:1000B000E40EF90DE40E3B0E5E0EE40EB30EC60E1A
:1000C000C011C0110112011243127F127F147F145C
:1000D00097127F148E138E1359147F147F146D148E
:1000E0000000F0A12E004C002A00003035810000F5
:1000F0001E00140004001D7134004D001F001A0082
:1001000016001B00E104C1002000080007000600E3
:1001100050002C0021001500090019004F004A0072
:10012000220017000A000500000065745000015409
:100130000000007F0000E3004F0001540000007742
:100140000000E20023001C000B00110000002971D8
:10015000240018000D74100052004B0025000C0004
:100160000E00360051002800260012000F00370054
:100170002F002B81270013003382387130004E008E
:100180002D00310034780130C10000000100010071
:1001900001000100010000003A001E0022002602BA
:1001A000010001003B001F002300270201000100A5
:1001B0003C00200024002F004B0101003D002100E5
:1001C000250030004E0101003E00010026002700FE
:1001D000000001000100010000000100000001001A
:1001E0000100010000000100000001003F000100CB
:1001F0002402310200000100400022022D022602EA
:100200000100010041002E002D0027020100010025
:1002100042001F0213002000010001004300010002
:100220002E02010001000100440045000100010010
:1002300001000000010001000100010001000000B8
:1002400001000100010001000100010001000100A6
:10025000F2000100010001000100F000F1000100C6
:10026000F400010001000100F3000100F5000100AD
:100270000100010001000100000001000100010077
:100280000000010000000100010001000000010069
:100290000000010001000100010001000000010058
:1002A0000100010001000100A9000100010001009E
:1002B0000100AC00AA00B600010001000100AB0083
:1002C000A80001000100010001000100010001007F
:1002D00001000100AE00010001000000160345000E
:1002E000720067006F0044006F0078002000450036
:1002F0005A00000016034500720067006F004400BA
:100300006F007800200045005A0000000403090433
:1003100009026D00040100A0FA09040000010301B4
:100320000100092111010001223F00070581030896
:10033000000A090401000103010200092111010062
:1003400001224D000705820308000A09040200018A
:100350000300000009211101000122360007058376
:100360000308000A09040300010300000009211129
:100370000100012239000705840310000112011059
:100380000100000008EDFE07130100010200010555
:10039000010906A101050719E029E71500250195C6
:1003A0000875018102050819012905950575019156
:1003B000029501750391010507190029771500259C
:1003C00001957875018102C005010980A1018502AE
:1003D00016010026B7001A01002AB7007510950112
:1003E0008100C0050C0901A1018503160100269CAE
:1003F000021A01002A9C02751095018100C00501B6
:100400000902A1010901A100050919012905150029
:10041000250195057501810295017503810105018D
:10042000093009311581257F950275088106093843
:100430001581257F950175088106050C0A3802157E
:1004400081257F950175088106C0C005010906A1B7
:1004500001050719E029E7150025019508750181B7
:100460000295017508810105081901290595057591
:100470000191029501750391010507190029FF15E6
:100480000025FF950675088100C0000000000000EF
:100490000000000000010204060A0F17202C3A4A4F
:1004A0005D71879DB3C7DAE9F5FCFFFCF5E9DAC7B2
:1004B000B39D87715D4A3A2C20170F0A060402018A
:1004C0000000000000000000000011241FBECFEF5C
:1004D000DAE0DEBFCDBF04B603FE24C08091F00198
:1004E0009091F101A091F201B091F3018730904B0E
:1004F000A740B04BB9F41092F0011092F1011092A4
:10050000F2011092F30114BE84B7877F84BF88E1A3
:100510000FB6F89480936000109260000FBEE0E088
:10052000FFE3099511E0A0E0B1E0EAE1F8E402C0E0
:1005300005900D92A433B107D9F711E0A4E3B1E01F
:1005400001C01D92A03FB107E1F70E94E6090C949B
:100550000B240C940000662319F06130F1F03DC0CB
:10056000FC018281882341F00E94B51B90933501E4
:100570008093340181EE1CC080913401909135014B
:100580000E94C11B8634910534F486E20E94481013
:1005900086E20E94101181EE1EC0FC018281882338
:1005A00051F00E94B51B909335018093340185EE84
:1005B0000E94481012C080913401909135010E9430
:1005C000C11B8634910534F487E20E94481087E20B
:1005D0000E94101185EE0E94101180E090E00895B5
:1005E00008956091B3017091B4018091B50190912B
:1005F000B6010E94131B56985E9825982D98269850
:100600002E9827982F98813019F0823021F0089584
:10061000259A2D9A0895269A2E9A08950C94F102FF
:1006200056985E9825982D9826982E9827982F985A
:100630008FEF90E0909389008093880090938B00D7
:1006400080938A0090938D0080938C00259A2D9A38
:100650002FEF80E792E0215080409040E1F700C00A
:100660000000269A2E9A2FEF80E792E021508040DA
:100670009040E1F700C00000279A2F9A2FEF80E703
:1006800092E0215080409040E1F700C000002598A2
:100690002D982FEF80E792E0215080409040E1F7C5
:1006A00000C0000026982E982FEF80E792E021509E
:1006B00080409040E1F700C0000027982F9856989E
:1006C0005E9825982D9826982E9827982F9808950B
:1006D00089EA8093800089E08093810024982C9897
:1006E0003F988AB18F748AB96E98479A8BB1806BA4
:1006F0008BB9769A0E9410030C94F00280E28093EA
:1007000000018091360181110EC00E94CD0381E06D
:10071000809336012FEF83ED90E32150804090408D
:10072000E1F700C0000080E40E94D3038093000141
:1007300081112EC00E94FD0380930001811128C009
:100740000E94FD0380930001811122C08FE30E946B
:10075000FD038093000181111BC00E94F50380E41A
:100760000E94D30380930001811112C08CE00E948B
:10077000FD038093000181110BC00E94FD03809353
:100780000001811105C08FE30E94FD0380930001E9
:100790000E94F5038091000108951092B9008AE04B
:1007A0008093B800089594EA9093BC009091BC00A7
:1007B00097FFFCCF9091B900987F983021F090314D
:1007C00011F081E008958093BB0084E88093BC0021
:1007D0008091BC0087FFFCCF8091B900887F883171
:1007E00011F0803471F780E0089584E98093BC00B3
:1007F0008091BC0084FDFCCF08958093BB0084E809
:100800008093BC008091BC0087FFFCCF9091B90021
:10081000987F81E0983209F480E0089584E880931D
:10082000BC008091BC0087FFFCCF8091BB00089585
:1008300080910001811115C080E40E94D303809350
:10084000000181110CC082E10E94FD038093000130
:10085000811105C08FEF0E94FD03809300010E946B
:10086000F50384B1807F84B985B1807F85B98AB171
:10087000837F8AB98BB1837F8BB93E984698089560
:100880000E947E03809300010E94180480B38C7044
:1008900080BB81B3836F81BBE6E4F1E0A8E3B1E004
:1008A00011921D9281E0E435F807D1F70C946803AA
:1008B000BF92CF92DF92EF92FF920F931F93CF934D
:1008C000DF9380910001882379F0809137018F5F59
:1008D00080933701811108C00E947E03809300013C
:1008E000811102C00E94100308E311E0C0E0D0E0D3
:1008F000DD24D39482E0C82EEE24E394F12CC7309B
:1009000000F580910001811162C080E40E94D30350
:1009100080930001811112C082E10E94FD03809347
:10092000000181110BC0C7010C2E01C0880F0A9471
:10093000EAF780950E94FD03809300010E94F50371
:1009400046C0CA30A1F028F4C83059F0C93061F06F
:1009500005C0CC3089F070F0CD3089F0209A28980D
:1009600010C0219A29980DC0229A2A980AC0239A69
:100970002B9807C0529A01C0539A5B9802C03E9AC6
:100980004698E0EAEA95F1F78FB179995AC092E07A
:1009900081708D25892B7C9B02C090E001C094E082
:1009A000892B7D9B02C090E001C098E0892B7E9B43
:1009B00002C090E001C090E1892B9FB19095991FF2
:1009C0009927991F9295990F907E892B0FC080913E
:1009D000000181114BC080E40E94D3038093000189
:1009E000882389F1B12C0E94F5038B2DF8019081A9
:1009F000981719F08083C09201010E941804219673
:100A00000F5F1F4FCE30D10509F079CF80910101E2
:100A1000882371F1815080930101882339F08FE997
:100A20009FE00197F1F700C0000022C0A6E4B1E00A
:100A3000E8E3F1E081918D9391E0E634F907D1F795
:100A400017C090E0A5CF83E10E94FD0380930001D1
:100A50008111C8CF81E40E94D303809300018111EA
:100A6000C1CF0E940E04B82EB094BDCF80E0BECF9F
:100A70000E940E0381E0DF91CF911F910F91FF90B3
:100A8000EF90DF90CF90BF900895E82FF0E0EA5B01
:100A9000FE4F808108950895089596E0799FF001B2
:100AA000112494E5899FE00DF11D1124E60FF11D3D
:100AB000EE0FFF1FEC51FF4F859194910895880F21
:100AC000991F805A9040FC01859194910895880F58
:100AD000991F80529F4FFC018591949108950F9327
:100AE0001F93CF93DF93EC01811520E3920730F53C
:100AF000811530E2930708F0B1C08B3B910588F473
:100B0000883A910508F058C0853A910508F049C027
:100B10008430910508F043C08130910509F4B2C1D9
:100B2000AEC18F3F910509F0D0F5803F910508F0E7
:100B300092C0805E9109089790F1A1C1C11581E52D
:100B4000D807A8F4C23090E5D90708F09FC0C115B6
:100B500020E5D20709F486C008F092C0C11580E4F0
:100B6000D80708F08CC18E011127106CCCC1C115BB
:100B700090E8D90758F4C11520E7D20708F07BC1E7
:100B8000C11530E6D30708F423C179C1C11580E946
:100B9000D80708F074C18E011F70106AB4C18E01AD
:100BA000B2C1853A910509F470C1863A910509F4FC
:100BB0006FC103E810E4A7C1883A910509F46BC13D
:100BC000893A910509F46AC18A3A910509F469C123
:100BD0008B3A910509F468C18C3A910509F467C113
:100BE0008D3A910509F466C1803B910509F465C110
:100BF0008E3A910509F464C18F3A910509F463C1F5
:100C0000813B910509F462C1823B910509F461C100
:100C1000833B910509F460C1843B910509F45FC1F0
:100C2000853B910509F45EC1863B910509F45DC1E0
:100C3000873B910509F45CC1883B910509F45BC1D0
:100C4000893B910509F45AC18A3B910509F059C1C4
:100C50000AE216E458C18C01106555C19F700E94CC
:100C6000670552C10E94A2149FEF24E33CE091501B
:100C700020403040E1F700C000000E940F1C43C13B
:100C80008091CF0181608093CF013DC10E94B71D4B
:100C9000811102C00E949D1D0E94D41D90E090937E
:100CA000F0018093EF01C23080E5D80721F48091F4
:100CB000EF01816086C0C43090E5D90721F48091AE
:100CC000EF0182607EC0C63020E5D20721F480911A
:100CD000EF01846076C0C83030E5D30719F4809105
:100CE000EF0127C0CA3080E5D80721F48091EF01D9
:100CF000806167C0CC3090E5D90721F48091EF0185
:100D000080625FC0CE3020E5D20721F48091EF01F0
:100D1000806457C0C03130E5D30721F48091EF01E2
:100D200080684FC0C23180E5D80729F48091EF0177
:100D30008460886046C0C33090E5D90721F4809173
:100D4000EF018E7F3EC0C53020E5D20721F48091AF
:100D5000EF018D7F36C0C73030E5D30721F4809195
:100D6000EF018B7F2EC0C93080E5D80719F4809140
:100D7000EF0126C0CB3090E5D90721F48091EF0137
:100D80008F7E1FC0CD3020E5D20721F48091EF0186
:100D90008F7D17C0CF3030E5D30721F48091EF016C
:100DA0008F7B0FC0C13180E5D80721F48091EF011E
:100DB0008F7707C0C331D04531F48091EF018B7F2D
:100DC000877F8093EF018091EF010E94D81D9BC027
:100DD0008D2F99278F70992781309105E9F48E0125
:100DE000037011279C0102C0220F331F0A95E2F7FE
:100DF00089011C68CE0164E0880F991F6A95E1F7AC
:100E000088279370082B192B73E0CC0FDD1F7A9580
:100E1000E1F7C076DD272CC08230910529F41C2F24
:100E20000027016F106A6FC08330910561F4CE0115
:100E30008370992701E010E002C0000F111F8A950E
:100E4000E2F71C680EC0049709F05DC0CE01837004
:100E5000992701E010E002C0000F111F8A95E2F708
:100E60001A6843E0CC0FDD1F4A95E1F7C07ED770CA
:100E70000C2B1D2B48C08E011F70106244C000E077
:100E800010E041C001E010E03EC001E810E43BC0CA
:100E900002E810E438C002EE14E435C009EE14E4B0
:100EA00032C00AEE14E42FC005EB14E42CC006EBAC
:100EB00014E429C007EB14E426C00CEC14E423C0AE
:100EC0000DEC14E420C003E815E41DC00AE815E4A5
:100ED0001AC002E915E417C004E915E414C001E2E0
:100EE00016E411C003E216E40EC004E216E40BC0DF
:100EF00005E216E408C006E216E405C007E216E4BF
:100F000002C000E014E4C801DF91CF911F910F915E
:100F1000089596E0799FF001112494E5899FE00DF2
:100F2000F11D1124E60FF11DEE0FFF1FEC51FF4FD5
:100F300085919491803E9105E0F4803C910558F5AF
:100F40008133910509F46FC048F48932910509F4A1
:100F500063C08A32910509F46DC072C0893391056E
:100F6000E9F082389105D1F08533910509F44DC03F
:100F700067C0833E910581F138F4803E9105B9F058
:100F8000823E9105D9F05CC0863E910561F1873EB5
:100F90009105A1F155C00E945F0508952091EF01D0
:100FA00020FD02C021FF4CC080EE90E049C080913E
:100FB000EF0180FFF9CF89E390E042C08091EF011B
:100FC00082FF0EC08091EF0184FF03C080E090E0BB
:100FD00037C083EE90E034C08091EF0182FFF2CF02
:100FE00082EE90E02DC08091EF0183FF0BC08091D5
:100FF000EF0184FDEBCF87EE90E022C08091EF01FE
:1010000083FFF5CF86EE90E01BC08091EF0185FF56
:1010100007C089E290E014C08091EF0185FFF9CF0D
:1010200085E390E00DC08091EF0186FF07C08AE262
:1010300090E006C08091EF0186FFF9CF81E390E058
:101040000E946F05089508950C942308809164010F
:101050000895CF93DF9300D01F92CDB7DEB72091D4
:10106000E601243019F523E029839B838A832093AA
:10107000E9008FEF9091E800815095FD06C095ED55
:101080009A95F1F700008111F5CF8091E80085FF76
:101090000DC040E050E063E070E0CE0101960E9498
:1010A000930A8091E8008E778093E8000F900F906C
:1010B0000F90DF91CF910895CF93DF9300D01F92CF
:1010C000CDB7DEB72091E601243021F522E0298357
:1010D0009B838A8383E08093E9008FEF9091E800FF
:1010E000815095FD06C095ED9A95F1F700008111AC
:1010F000F5CF8091E80085FF0DC040E050E063E04F
:1011000070E0CE0101960E94930A8091E8008E77EC
:101110008093E8000F900F900F90DF91CF9108958A
:101120002091E6012430F1F422E02093E9002FEF32
:101130003091E800215035FD06C035ED3A95F1F7C4
:1011400000002111F5CF2091E80025FF0BC040E001
:1011500050E065E070E00E94930A8091E8008E778D
:101160008093E8000895CF93DF93EC018091E6012E
:10117000843009F046C090910C019923D9F09091E8
:101180000D019923B9F08093E9008FEF9091E80069
:10119000815095FD06C095E19A95F1F70000811107
:1011A000F5CF8091E80085FF2CC040E050E060E181
:1011B00070E017C081E08093E9008FEF9091E80024
:1011C000815095FD06C095ED9A95F1F700008111CB
:1011D000F5CF8091E80085FF14C040E050E068E062
:1011E00070E0CE010E94930A8091E8008E77809390
:1011F000E80080E1FE01A4E5B1E001900D928A953E
:10120000E1F7DF91CF9108958091E501811109C047
:101210000E94250C0E94820C8091E20084608093E1
:10122000E20008951092E501089508950C94332288
:101230000E94A61B0E9439220E941F0F0C942408B2
:1012400042E061EC81E00E949F0B42E061EC82E0B1
:101250000E949F0B42E061EC83E00E949F0B42E101
:1012600061EC84E00C949F0B8091E801833009F4D9
:1012700055C030F4813071F0823009F48EC0089589
:101280008A3009F47AC08B3009F460C0893009F0E3
:101290009CC020C08091E701813A09F096C08091FE
:1012A000E800877F8093E8008091EB019091EC014A
:1012B000892B21F060E080E090E003C060E184E5EC
:1012C00091E070E00E94DC0A8091E8008B778093C7
:1012D000E80008958091E701813209F076C080919D
:1012E000EB019091EC01009719F0039709F06DC0A4
:1012F0008091E800877F8093E8008091E80082FD7C
:1013000005C08091E6018111F8CF5FC08091F100A6
:10131000809364018091E8008B7753C08091E7014E
:10132000813A09F052C08091EB019091EC01892B38
:1013300009F04BC08091E800877F8093E80080919E
:10134000E80080FFFCCF80910C0136C08091E7015E
:101350008132D9F58091EB019091EC01892BA9F5AF
:101360008091E800877F8093E8000E94D40B8091F1
:10137000E90180930C010C94A2148091E701813261
:1013800021F58091E800877F8093E8000E94D40BCC
:101390008091EA018093650108958091E701813A87
:1013A000A1F48091E800877F8093E8008091E800B5
:1013B00080FFFCCF809165018093F1008091E8006F
:1013C0008E778093E8000C94D40B089584B7877FC0
:1013D00084BF88E10FB6F89480936000109260009B
:1013E0000FBE90E080E80FB6F89480936100909370
:1013F00061000FBE0E946E0F0E94250C0E94820C9D
:101400008091E20084608093E20078940E94FD0E57
:101410000E94700F82E091E00E941A0F0E94212228
:101420008091E601853069F40E94661B8091E40199
:101430008823B1F30E94911B882391F30E947D0AB7
:10144000EFCF0E94760FECCF292F332723303105C1
:10145000A9F06CF42130310509F442C02230310585
:1014600009F043C08DE690E020E133E042C0213234
:101470003105C9F02232310519F137C09927813081
:10148000910541F08230910541F0892B71F5ECE036
:10149000F3E005C0E4EFF2E002C0ECEDF2E084918D
:1014A00090E09F0126C0643000F5E62FF0E0EE0FDB
:1014B000FF1FEE5DFE4F2081318189E090E019C071
:1014C000643098F4E62FF0E0DF01AA0FBB1FA65EA0
:1014D000BE4F2D913C91EA5EFE4F808190E009C0A5
:1014E00082E190E02DE733E004C080E090E020E06E
:1014F00030E0FA0131832083089580E189BD82E1E3
:1015000089BD09B400FEFDCF8091D8008F7D809306
:10151000D8008091E00082608093E0008091E0003C
:1015200081FDFCCF0895CF92DF92EF92FF920F934F
:101530001F93CF93DF937C018B01EA010E94F50B8F
:10154000811131C0209731F088819981081B190BD6
:10155000E80EF91EC12CD12C0115110519F180914D
:10156000E80085FD14C08091E8008E778093E80044
:10157000209741F0888199818C0D9D1D99838883E6
:1015800085E011C00E94F50B882331F30CC0F701F0
:1015900081917F018093F10001501109FFEFCF1A73
:1015A000DF0ADACF80E0DF91CF911F910F91FF909A
:1015B000EF90DF90CF9008952091ED013091EE01F2
:1015C0002617370748F06115710539F42091E800B6
:1015D0002E772093E80001C0B901FC0120E06115DD
:1015E0007105B9F18091E601882309F440C0853086
:1015F00009F43FC08091E80083FD3DC08091E80080
:1016000082FF06C08091E80082FF26C080E0089536
:101610008091E80080FFE3CF2091F3008091F200F9
:1016200090E0922B6115710551F08830910538F4E6
:1016300021912093F100615071090196F3CF21E0CF
:10164000089709F020E08091E8008E778093E80009
:10165000C6CF2111C7CFD6CF8091E601882339F0BC
:10166000853039F08091E80083FFCCCF04C082E060
:10167000089583E0089581E008952091ED0130916F
:10168000EE012617370748F06115710539F42091EE
:10169000E8002E772093E80001C0B901FC0120E0AA
:1016A00061157105C1F18091E601882309F441C0FB
:1016B000853009F440C08091E80083FD3EC08091F0
:1016C000E80082FF06C08091E80082FF27C080E02A
:1016D00008958091E80080FFE3CF2091F30080918E
:1016E000F20090E0922B6115710559F08830910558
:1016F00040F424912093F1003196615071090196D4
:10170000F2CF21E0089709F020E08091E8008E7781
:101710008093E800C5CF2111C6CFD5CF8091E601D7
:10172000882339F0853039F08091E80083FFCBCFF2
:1017300004C082E0089583E0089581E00895982F21
:10174000973058F59093E900981739F07091EC00B4
:101750002091ED005091F00003C0242F762F50E02F
:1017600021FF19C03091EB003E7F3093EB003091A8
:10177000ED003D7F3093ED003091EB003160309310
:10178000EB007093EC002093ED005093F00020915B
:10179000EE0027FF07C09F5FD3CF8F708093E900D3
:1017A00081E0089580E008958091E70187FD05C0FC
:1017B0008091E80080FF0EC012C08091E80082FD99
:1017C00005C08091E6018111F8CF08958091E8006D
:1017D0008B7708C08091E6018111EACF089580914E
:1017E000E8008E778093E80008958091E40090915E
:1017F000E50045E62091EC0020FF21C02091E800A3
:1018000020FD21C02091E601222389F0253089F0B6
:101810002091EB0025FD0FC02091E4003091E50000
:101820002817390739F3415041F0C901E3CF82E06D
:10183000089583E0089581E0089584E0089520915B
:10184000E80022FFDFCF80E008950E94930C0E9401
:101850009B0CE0EEF0E0808181608083E8EDF0E0B9
:1018600080818F77808319BCA7EDB0E08C918E7F4B
:101870008C9380818F7E80831092E50108950F9371
:101880001F93CF93DF930E94930C0E949B0CC8ED93
:10189000D0E088818F778883888180688883888179
:1018A0008F7D888319BC1092E6011092E20110929C
:1018B000E4011092E30100EE10E0F80180818B7FDB
:1018C000808388818160888342E060E080E00E94BC
:1018D0009F0BE1EEF0E080818E7F8083E2EEF0E00E
:1018E000808181608083808188608083F80180812D
:1018F0008E7F8083888180618883DF91CF911F9163
:101900000F910895E8EDF0E080818F7E8083E7ED10
:10191000F0E080818160808384E082BF81E08093F9
:10192000E5010C943F0CE8EDF0E080818E7F808330
:101930001092E20008951092DA001092E1000895EA
:101940001F920F920FB60F9211242F933F934F9334
:101950005F936F937F938F939F93AF93BF93EF9317
:10196000FF938091E10082FF0BC08091E20082FF33
:1019700007C08091E1008B7F8093E1000E94FC0E04
:101980008091DA0080FF1FC08091D80080FF1BC0CB
:101990008091DA008E7F8093DA008091D90080FFF9
:1019A0000DC080E189BD82E189BD09B400FEFDCF93
:1019B00081E08093E6010E94040905C019BC1092E1
:1019C000E6010E9412098091E10080FF19C0809118
:1019D000E20080FF15C08091E2008E7F8093E200DC
:1019E0008091E20080618093E2008091D800806263
:1019F0008093D80019BC85E08093E6010E94160907
:101A00008091E10084FF30C08091E20084FF2CC00F
:101A100080E189BD82E189BD09B400FEFDCF8091DE
:101A2000D8008F7D8093D8008091E1008F7E8093D5
:101A3000E1008091E2008F7E8093E2008091E200DD
:101A400081608093E2008091E201882311F084E0BC
:101A500007C08091E30087FF02C083E001C081E0FE
:101A60008093E6010E9418098091E10083FF29C05C
:101A70008091E20083FF25C08091E100877F809301
:101A8000E10082E08093E6011092E2018091E100A2
:101A90008E7F8093E1008091E2008E7F8093E20050
:101AA0008091E20080618093E20042E060E080E0AB
:101AB0000E949F0B8091F00088608093F0000E944C
:101AC0001509FF91EF91BF91AF919F918F917F91F8
:101AD0006F915F914F913F912F910F900FBE0F909B
:101AE0001F9018951F920F920FB60F9211242F93EB
:101AF0003F934F935F936F937F938F939F93AF9396
:101B0000BF93CF93EF93FF93C091E900CF70809183
:101B1000EC001092E9008091F000877F8093F00044
:101B200078940E94AE0D1092E9008091F0008860D8
:101B30008093F000C093E900FF91EF91CF91BF91A6
:101B4000AF919F918F917F916F915F914F913F9155
:101B50002F910F900FBE0F901F9018951F93CF934A
:101B6000DF93CDB7DEB7AA970FB6F894DEBF0FBEEE
:101B7000CDBFE7EEF1E08091F100819321E0EF3EEF
:101B8000F207C9F70E9434098091E80083FF1CC165
:101B90002091E7013091E801832F90E08A30910590
:101BA00008F012C1FC01EA5AFF4F0C94BB23203805
:101BB00081F0223809F008C18091EB018F70809389
:101BC000E9008091EB0085FB882780F91092E900FD
:101BD00006C08091E3019091E4019111826090919F
:101BE000E800977F9093E8008093F1001092F10055
:101BF000C5C0822F8D7F09F0E7C0222319F0223063
:101C000061F0E2C08091E901813009F0DDC033303C
:101C100009F080E08093E40128C08091E9018111FE
:101C200024C02091EB012F7009F4CEC02093E9006D
:101C30008091EB0080FF19C08091EB00333011F4EC
:101C4000806211C080618093EB0081E090E0022E01
:101C500001C0880F0A94EAF78093EA001092EA0024
:101C60008091EB0088608093EB001092E9008091F6
:101C7000E800877F86C02111A7C01091E9011F7776
:101C80008091E3008078812B8093E3008091E800CD
:101C9000877F8093E8000E94D40B8091E80080FF4A
:101CA000FCCF8091E30080688093E300112311F062
:101CB00083E001C082E08093E60186C02058223094
:101CC00008F082C08091E9019091EA018C3D23E007
:101CD000920779F583E08A838AE289834FB7F89483
:101CE000DE01139620E03EE051E2E32FF0E0509356
:101CF0005700E49120FF03C0E295EF703F5FEF7063
:101D00008E2F90E0EA3010F0C79601C0C0968D93F8
:101D10009D932F5F243149F74FBF8091E800877F63
:101D20008093E8006AE270E0CE0101960E94DC0A2E
:101D300014C0AE014F5F5F4F6091EB010E94240A17
:101D4000009709F441C02091E800277F2093E80024
:101D5000BC0189819A810E943D0B8091E8008B77BC
:101D60008093E80031C0203879F58091E800877FC2
:101D70008093E8008091E2018093F1008091E80077
:101D80008E778093E8000E94D40B1EC021111CC0E6
:101D90009091E9019230C0F48091E800877F8093B0
:101DA000E8009093E2010E94D40B8091E20181113E
:101DB00004C08091E30087FF02C084E001C081E09D
:101DC0008093E6010E9420098091E80083FF0AC009
:101DD0008091E800877F8093E8008091EB0080622B
:101DE0008093EB00AA960FB6F894DEBF0FBECDBF6E
:101DF000DF91CF911F9108950895CF938091E601CF
:101E00008823B1F08091E9008F709091EC0090FFF1
:101E100002C090E801C090E0C92FC82B1092E900E1
:101E20008091E80083FD0E94AE0DCF70C093E90061
:101E3000CF91089590936B0180936A010895E0918A
:101E40006A01F0916B01309721F00190F081E02D53
:101E5000099480E00895E0916A01F0916B01309758
:101E600021F00280F381E02D09940895E0916A0148
:101E7000F0916B01309721F00480F581E02D0994F9
:101E8000089520916801309169018217930771F0DC
:101E90009093690180936801E0916A01F0916B0170
:101EA000309721F00680F781E02D09940895209164
:101EB0006601309167018217930771F09093670173
:101EC00080936601E0916A01F0916B01309721F0F7
:101ED0000084F185E02D0994089508950C946D0F08
:101EE0000E94AC1B0E9440040C94721CCF92DF92A3
:101EF000EF92FF920F931F93CF93DF93CDB7DEB78F
:101F00002B970FB6F894DEBF0FBECDBF0E945804CA
:101F10003DE6E32E31E0F32E00E010E0C02E802FEE
:101F20000E944505F701D1907F01D826B1F40F5FDB
:101F30001F4F0E30110591F78FEF89838A831B8223
:101F40000E94B51B8160782F9D838C8349815A81C3
:101F50006B818D810E94191041C09091CF0191FF3A
:101F600004C08B870E944B058B8520E030E04D2D0F
:101F700050E0922FBA01022E02C0759567950A941F
:101F8000E2F760FF25C02E83CF82EE24E394F12C8C
:101F900002C0EE0CFF1C9A95E2F790E08E219F2183
:101FA00021E0892B09F420E028870E94B51B81607D
:101FB000782F9A8789874E815F8168858A850E94FC
:101FC0001910F801E359FE4F80818E25808306C0E9
:101FD0002F5F3F4F2630310561F6A9CF0E94561F73
:101FE00010916C010E941F0F1817A1F00E941F0F83
:101FF00080936C012B960FB6F894DEBF0FBECDBF59
:10200000DF91CF911F910F91FF90EF90DF90CF90D4
:102010000C9424082B960FB6F894DEBF0FBECDBFEC
:10202000DF91CF911F910F91FF90EF90DF90CF90B4
:102030000895CF93DF93CDB7DEB72B970FB6F89403
:10204000DEBF0FBECDBF4F83588769877A878B87E6
:10205000DE01119686E0FD0111928A95E9F785E08F
:10206000FE01379601900D928A95E1F749815A81D8
:102070006B817C818D819E810E946E172B960FB69D
:10208000F894DEBF0FBECDBFDF91CF9108950895C4
:10209000CF93C82F882309F4C1C0823859F40E9415
:1020A0001F0F81FDBBC089E30E941A1A0E94E41A27
:1020B00089E30CC0833879F40E941F0F80FDAEC005
:1020C00083E50E941A1A0E94E41A83E50E945A1AB4
:1020D000CF910C94E41A843859F40E941F0F82FDAA
:1020E0009DC087E40E941A1A0E94E41A87E4EECF8A
:1020F0008CEF8C0F813A48F48C2F0E94892181113A
:102100008DC08C2F0E941A1AE3CF80E28C0F88308A
:1021100048F4C77081E001C0880FCA95EAF70E94B1
:102120009B1AD6CF8BE58C0F833078F4C53A29F013
:10213000C63A31F482E890E005C081E890E002C040
:1021400083E890E0CF910C94410F88E58C0F8331A8
:1021500008F064C0C83A39F1C93A41F1CA3A49F1C4
:10216000CB3A51F1CC3A59F1CD3A61F1C03B69F12A
:10217000CE3A71F1CF3A79F1C13B81F1C23B89F19D
:10218000C33B91F1C43B99F1C53BA1F1C63BA9F119
:10219000C73BB1F1C83BB9F1C93BC1F1CA3BC9F575
:1021A0008AE292E038C082EE90E035C089EE90E09D
:1021B00032C08AEE90E02FC085EB90E02CC086EB19
:1021C00090E029C087EB90E026C08CEC90E023C023
:1021D0008DEC90E020C083E891E01DC08AE891E09A
:1021E0001AC082E991E017C084E991E014C081E24D
:1021F00092E011C083E292E00EC084E292E00BC054
:1022000085E292E008C086E292E005C087E292E0B3
:1022100002C080E090E0CF910C94570FCF910895C9
:10222000882309F44BC0823859F40E941F0F81FFA4
:1022300045C089E30E941A1A0E94E41A89E30CC07F
:10224000833871F40E941F0F80FF38C083E50E941D
:102250001A1A0E94E41A83E50E945A1A0C94E41A8E
:10226000843859F40E941F0F82FF28C087E40E941F
:102270001A1A0E94E41A87E4EFCF9CEF980F913A64
:1022800058F390E2980F983050F4877091E001C0B5
:10229000990F8A95EAF7892F0E94A11ADFCF9BE553
:1022A000980F933020F480E090E00C94410F885A0E
:1022B000833120F480E090E00C94570F0895882338
:1022C00021F00E949B1A0C94E41A0895882321F0AF
:1022D0000E94A11A0C94E41A0895CF92DF92EF9213
:1022E000FF920F931F93CF93DF93CDB7DEB728975D
:1022F0000FB6F894DEBF0FBECDBF8C0185E0F801AC
:10230000DE01119601900D928A95E1F7F801D080D7
:10231000E180F280558152955F7023813481232BB7
:1023200039F0FFEFEF1206C081E0DF1203C003C0F7
:1023300081E001C080E080FDE2C2C8015F830E94AD
:102340004710D982EA8269817A818F2D0E94161AFC
:102350009E8388870E94CA190E949D184E815F81C2
:102360006885FF2029F00E94B81A68855F814E8138
:10237000E42FE295EF70F0E0E05AFF4F0C94BB239E
:10238000842F807F142F1F70882311F01295107FE7
:10239000FF20B1F0112309F467C280E2860F883074
:1023A00028F4812F68870E949B1A04C0812F6887B8
:1023B0000E94AB1A688568870E94E41A688554C237
:1023C000862F68870E9410116885112309F497C22F
:1023D000605E812F683018F40E94A11A02C00E942A
:1023E000B11A28960FB6F894DEBF0FBECDBFDF91AD
:1023F000CF911F910F91FF90EF90DF90CF900C94B1
:10240000E41A242F207F842F8F70203211F08295C0
:10241000807F662319F0613019F12BC0FF20B1F0E5
:10242000552309F493C1513009F090C128960FB695
:10243000F894DEBF0FBECDBFDF91CF911F910F91FA
:10244000FF90EF90DF90CF900C94CB1A552319F0AA
:10245000513009F454C28E830E94CE1A8E8189C1F4
:10246000FF2021F0523008F04AC270C1511147C21A
:1024700080C1FF2021F0552309F468C1F5C155231F
:1024800009F477C105C2242F26952695237030E0E4
:102490002115310521F021303105C9F030C2FF206E
:1024A00021F0862F942F937002C080E090E0289650
:1024B0000FB6F894DEBF0FBECDBFDF91CF911F9155
:1024C0000F91FF90EF90DF90CF900C94410FFF2081
:1024D00021F0862F942F937002C080E090E0289620
:1024E0000FB6F894DEBF0FBECDBFDF91CF911F9125
:1024F0000F91FF90EF90DF90CF900C94570F862FA5
:10250000FF2019F00E945E1E02C00E94C61E28967F
:102510000FB6F894DEBF0FBECDBFDF91CF911F91F4
:102520000F91FF90EF90DF90CF900C944B1F842F72
:10253000837009F076C0F110E2C1262F229526950E
:102540002770220F220F862F8F70C82ED12CE12CDE
:10255000F12C022E04C0CC0CDD1CEE1CFF1C0A94D6
:10256000D2F764FF10C06FE070E080E090E004C03C
:10257000660F771F881F991F2A95D2F7609570956F
:102580008095909503C060E070E0CB01242F2695E4
:1025900026952370422F50E042305105D1F0433050
:1025A000510559F16C297D298E299F29413051050A
:1025B00041F128960FB6F894DEBF0FBECDBFDF9174
:1025C000CF911F910F91FF90EF90DF90CF900C94DF
:1025D000C2186C297D298E299F2928960FB6F89458
:1025E000DEBF0FBECDBFDF91CF911F910F91FF9046
:1025F000EF90DF90CF900C94DC180E94C218C701B6
:10260000B60128960FB6F894DEBF0FBECDBFDF919E
:10261000CF911F910F91FF90EF90DF90CF900C948E
:10262000A818FF2019F0842F817001C08695882397
:1026300009F465C1262F229526952770220F220FB7
:10264000862F8F70C82ED12CE12CF12C022E04C0C5
:10265000CC0CDD1CEE1CFF1C0A94D2F764FF10C0EA
:102660006FE070E080E090E004C0660F771F881F85
:10267000991F2A95D2F7609570958095909503C023
:1026800060E070E0CB01242F269526952370422F21
:1026900050E042305105D1F04330510559F16C29D9
:1026A0007D298E299F294130510541F128960FB689
:1026B000F894DEBF0FBECDBFDF91CF911F910F9178
:1026C000FF90EF90DF90CF900C9496196C297D29A4
:1026D0008E299F2928960FB6F894DEBF0FBECDBF76
:1026E000DF91CF911F910F91FF90EF90DF90CF90EE
:1026F0000C94B0190E949619C701B60128960FB61E
:10270000F894DEBF0FBECDBFDF91CF911F910F9127
:10271000FF90EF90DF90CF900C947C19603FC9F14F
:1027200018F4603E50F49BC0623F09F460C008F4A6
:102730004AC0633F09F46FC092C0162F1F70842FE8
:102740008F71FF2099F00E941519812F28960FB6DE
:10275000F894DEBF0FBECDBFDF91CF911F910F91D7
:10276000FF90EF90DF90CF900C945F110E9436198C
:10277000812F28960FB6F894DEBF0FBECDBFDF9134
:10278000CF911F910F91FF90EF90DF90CF900C941D
:102790006611FF20A1F05111B2C0842F8F712896CD
:1027A0000FB6F894DEBF0FBECDBFDF91CF911F9162
:1027B0000F91FF90EF90DF90CF900C945B19523007
:1027C00008F09DC0EACFFF20A1F0842F8F712896DA
:1027D0000FB6F894DEBF0FBECDBFDF91CF911F9132
:1027E0000F91FF90EF90DF90CF900C941519FF2080
:1027F00061F3842F8F7128960FB6F894DEBF0FBE59
:10280000CDBFDF91CF911F910F91FF90EF90DF909F
:10281000CF900C943619FF2091F0842F8F71289659
:102820000FB6F894DEBF0FBECDBFDF91CF911F91E1
:102830000F91FF90EF90DF90CF900C9400192896A5
:102840000FB6F894DEBF0FBECDBFDF91CF911F91C1
:102850000F91FF90EF90DF90CF900C94F618FF202F
:10286000A1F0552309F4B1CF862F28960FB6F8941E
:10287000DEBF0FBECDBFDF91CF911F910F91FF90B3
:10288000EF90DF90CF900C944810552309F4B1CF0E
:10289000862F28960FB6F894DEBF0FBECDBFDF910E
:1028A000CF911F910F91FF90EF90DF90CF900C94FC
:1028B00010114F70C8010E94AB0228960FB6F89411
:1028C000DEBF0FBECDBFDF91CF911F910F91FF9063
:1028D000EF90DF90CF900C941B184F70C801289692
:1028E0000FB6F894DEBF0FBECDBFDF91CF911F9121
:1028F0000F91FF90EF90DF90CF900C944C052896AD
:102900000FB6F894DEBF0FBECDBFDF91CF911F9100
:102910000F91FF90EF90DF90CF9008950E94B81A2A
:102920000E94C81A0E948D1A0E94E41A0E94F71F82
:102930000E944B1F80E090E00E94410F80E090E0F9
:102940000C94570F0E94A81A0C948E140E940B1A14
:10295000292F22952F7030E02C3031054CF42A308D
:1029600031056CF4225031092230310590F407C052
:102970002C30310551F02F30310539F00AC0803E3E
:1029800010F0803F31F481E0089593FB882780F9AF
:10299000089580E00895CF93DF9300D000D01F9278
:1029A000CDB7DEB70F900F900F900F900F90DF9183
:1029B000CF910895CF93DF9300D000D000D0CDB752
:1029C000DEB726960FB6F894DEBF0FBECDBFDF91FF
:1029D000CF9108951F93CF93DF93C0917B0116E0B1
:1029E00080917C01C81799F0D0E01C9FF0011D9FD9
:1029F000F00D1124E358FE4F4081518162817381B3
:102A0000848195810E94DA142196C770E9CFDF9105
:102A1000CF911F9108954091AD015091AE01609109
:102A2000AF017091B0018091B1019091B2010C940D
:102A3000DA14CF938091B20182958F7009F05FC054
:102A40008091AF01882309F45AC020917B01A091A5
:102A50007C016091AD017091AE018091B0019091C7
:102A6000B10131E06F3F09F030E0B32FC6E02A1723
:102A700009F445C0009721F07F3F21F44B2F03C09C
:102A800041E001C040E030E040FD35C0C29FF001B0
:102A9000C39FF00D1124E358FE4F418174132BC0E6
:102AA0004081641328C04281411125C04381548173
:102AB0004817590710F441505109481B590B483C1D
:102AC0005105C8F48091B2018F7080618093B2018A
:102AD00086E0829FF001839FF00D1124EE57FE4F98
:102AE00080818F70806180838DEA91E00E946D11FA
:102AF000CF910C94EA142F5F3F4F2770B8CFCF913E
:102B00000895CF92DF92EF92FF920F931F93CF938E
:102B1000DF93CDB7DEB762970FB6F894DEBF0FBE76
:102B2000CDBF8C0185E0F801DE011D9601900D926C
:102B30008A95E1F7D8014C9111965C911197129604
:102B40006C9112971396ED90FC9014977091AD01D3
:102B5000E091AE012091B0013091B1012115310514
:102B600031F0EF3F31F481E07F3F19F403C081E0A1
:102B700001C080E0B82FB170CB2E80FD6CC1D09029
:102B8000AF01DD2009F4F5C0F091B201E216F306C1
:102B900038F0C701821B930B883C910548F09BC01D
:102BA000209530952E0D3F1D283C310508F093C02F
:102BB0008F2F807F09F052C0E51314C0741312C028
:102BC000D62E61110FC0FF70F061F093B2010E9428
:102BD0000B158DEA91E00E946D118091B201F80110
:102BE00085836CC1EF2831F05F3F31F481E04F3FC6
:102BF00019F403C081E001C080E080FD03C081E0E2
:102C0000862701C080E0F82FF170FF2E80FF1CC0E6
:102C100080917B0120917C0136E0821709F428C164
:102C200090E0389FF001399FF00D1124E358FE4FDA
:102C30007181571306C07081471303C072816713F7
:102C400003C001968770E9CFD62E662309F436C1FA
:102C50008091B20181608093B20153C0E51308C036
:102C6000741306C0611104C0D8011596FC93AEC060
:102C70004D875E878D859E856A8B0E94A6146A8922
:102C8000882329F1D62E662311F12091B201822FDB
:102C900082958F7090E002970CF460C08091AD0136
:102CA0009091AE0198878F831986FB86EA862C87E0
:102CB000CE01079651C0E51731F14D875E878D85AE
:102CC0009E856A8B0E94A6146A8981112EC0C80154
:102CD0000E946D11A4C08F2F807F69F77E2DF98A25
:102CE000E88A89890E94CB148DEA91E00E946D11D7
:102CF000EDEAF1E086E0DF011D928A95E9F70E9496
:102D00000B15D12CDBC07413D8CF6111D6CFD801ED
:102D10001596FC93C8010E946D11EDEAF1E086E082
:102D2000DF011D928A95E9F7C9C0D62E662379F294
:102D30002091B201822F82958F7090E0029774F0FB
:102D40008091AD019091AE019A8389831B82FD82AF
:102D5000EC822E83CE0101960E946D1186E0F8016F
:102D6000ADEAB1E001900D928A95E1F70E94191544
:102D70006FC0E216F30628F0C701821B930B9C017B
:102D800004C0209530952E0D3F1D283C310508F0DC
:102D900052C0D62E662309F49ACFE5132CC07413C3
:102DA0002AC08091B20180FD1DC0982F92959F701E
:102DB000C9F0D80115968C9315979F3039F09F5F15
:102DC0009295907F8F70892B15968C93C8010E94E5
:102DD0006D1186E0F801ADEAB1E001900D928A959F
:102DE000E1F736C086E0F801ADEAB1E001900D925E
:102DF0008A95E1F763C04D875E878D859E850E9429
:102E0000A614882379F086E0F801ADEAB1E00190DC
:102E10000D928A95E1F70E9419150E940B15DD2489
:102E2000D3944CC08091B20181608093B201C801FB
:102E30000E946D1143C07E2DF98AE88A89890E941B
:102E4000CB14EDEAF1E086E0DF011D928A95E9F707
:102E50000E940B1533C0662309F439CF4D875E8776
:102E60008D859E850E94A614882309F430CFCBCF90
:102E70004D875E878D859E850E940B1A292F22958E
:102E80002F7030E0223031052CF49F7041F0811119
:102E900006C00CC0243031052CF49F7049F4805ECC
:102EA000883020F0C8010E946D11CF2CDC2C06C0A8
:102EB000D80115969C91907F91F7F8CF8D2D629651
:102EC0000FB6F894DEBF0FBECDBFDF91CF911F913B
:102ED0000F91FF90EF90DF90CF9008951F93CF93C5
:102EE000DF93CDB7DEB72C970FB6F894DEBF0FBED9
:102EF000CDBF4F83588769877A878B879C87CE01A0
:102F000007960E9481158823C1F02F8138858A8514
:102F10009B85892B31F03F3F11F080E003C02F3FAC
:102F2000E1F781E0811147C04F81588569857A8535
:102F30008B859C850E94DA143EC086E0FE013796A0
:102F4000DE01119601900D928A95E1F7FF81E885E7
:102F50004A855B854115510531F0EF3F31F481E041
:102F6000FF3F19F403C081E001C080E080FD23C071
:102F700020917C0130E0C90101968770992760910A
:102F80007B0170E086179707F1F1F983EA835D838F
:102F90004C8396E0929FD001939FB00D1124A358CB
:102FA000BE4FFE01319601900D929A95E1F7809304
:102FB0007C010E94EA1416E080917B0190917C01D3
:102FC000891779F1189FC001112483589E4F0E94E0
:102FD0008115882331F1E0917B011E9FF0011124BE
:102FE000E358FE4F408151816281738184819581D4
:102FF0000E94DA1480917B0190E0019687709927F6
:1030000080937B01D9CF0E94A21410927C01109270
:103010007B01EDEAF1E086E0DF011D928A95E9F798
:10302000CACF2C960FB6F894DEBF0FBECDBFDF918E
:10303000CF911F910895EF92FF920F931F93CF931B
:10304000DF939C01009709F471C0F12CEE24E39406
:10305000E9012196F9018491843740F4843008F025
:1030600056C0813081F0823021F160C0853709F48B
:1030700049C0C0F19CE7980F903708F057C08F7790
:103080000E94101146C089010E5F1F4FFE018491FE
:1030900090E2980F983050F48770FE2D01C0FF0F1A
:1030A0008A95EAF78F2F0E94BB1A15C00E9448101C
:1030B00014C089010E5F1F4FFE01849190E2980FAA
:1030C000983068F48770FE2D01C0FF0F8A95EAF7EB
:1030D0008F2F0E94C11A0E94E41AE8011AC00E94B0
:1030E0001011FBCF2E5F3F4FFE01C491CC2341F066
:1030F0008FE99FE00197F1F700C00000C150F6CFC3
:10310000E90107C0FE01F490E901229602C00E9485
:1031100048108F2D882341F0EFE9FFE03197F1F758
:1031200000C000008150F6CF9E0192CFDF91CF9179
:103130001F910F91FF90EF90089508956093B7014C
:103140007093B8018093B9019093BA010C948E14D6
:103150000F931F930091B7011091B8012091B9010D
:103160003091BA01062B172B282B392B0093B7016E
:103170001093B8012093B9013093BA011F910F91B8
:103180000C948E140F931F930091B7011091B80106
:103190002091B9013091BA0106231723282339233E
:1031A0000093B7011093B8012093B9013093BA018D
:1031B0001F910F910C948E140F931F930091B701E0
:1031C0001091B8012091B9013091BA010627172753
:1031D000282739270093B7011093B8012093B9012C
:1031E0003093BA011F910F910C948E141092B30179
:1031F0001092B4011092B5011092B6010C948E1485
:1032000041E050E060E070E004C0440F551F661FCD
:10321000771F8A95D2F74093B3015093B40160931E
:10322000B5017093B6010C948E1441E050E060E05B
:1032300070E004C0440F551F661F771F8A95D2F7B0
:103240008091B3019091B401A091B501B091B60104
:10325000842B952BA62BB72B8093B3019093B401AD
:10326000A093B501B093B6010C948E1441E050E0E8
:1032700060E070E004C0440F551F661F771F8A95F9
:10328000D2F740955095609570958091B3019091DB
:10329000B401A091B501B091B60184239523A62372
:1032A000B7238093B3019093B401A093B501B09379
:1032B000B6010C948E1441E050E060E070E004C070
:1032C000440F551F661F771F8A95D2F78091B3016F
:1032D0009091B401A091B501B091B60184279527D2
:1032E000A627B7278093B3019093B401A093B501AB
:1032F000B093B6010C948E140F931F930091B301F9
:103300001091B4012091B5013091B601062B172B15
:10331000282B392B0093B3011093B4012093B501EE
:103320003093B6011F910F910C948E140F931F933D
:103330000091B3011091B4012091B5013091B60113
:1033400006231723282339230093B3011093B401D4
:103350002093B5013093B6011F910F910C948E14F8
:103360000F931F930091B3011091B4012091B50107
:103370003091B60106271727282739270093B30174
:103380001093B4012093B5013093B6011F910F91B2
:103390000C948E140895CF92DF92EF92FF920F93C8
:1033A0001F93CF93DF93EC01C090B701D090B80189
:1033B000E090B901F090BA018091B3019091B4010D
:1033C000A091B501B091B601C82AD92AEA2AFB2AF0
:1033D0000FE110E0B701A601002E04C076956795B5
:1033E000579547950A94D2F740FD05C00150110941
:1033F00088F780E007C0BE01802F0E9489070197EF
:10340000A9F3802FDF91CF911F910F91FF90EF9043
:10341000DF90CF900895CF93DF93EC010E94CB19FA
:10342000BE010E948907DF91CF910895CB010E94D0
:103430000B1A089590910C019923D9F090910D01E8
:103440009923B9F0982F9695969596959F3088F583
:10345000E0910E01F0910F01E90FF11D877021E05D
:1034600030E001C0220F8A95EAF78181822B8183A7
:10347000089540910E0150910F0120E030E09FEF40
:10348000FA01E20FF31F6281681799F09F3F19F468
:10349000611101C0922F2F5F3F4F2E30310581F710
:1034A0009F3F39F0FA01E90FF11D97FDFA958283EC
:1034B0000895089590910C019923E1F090910D01E8
:1034C0009923C1F0982F9695969596959F3020F563
:1034D000E0910E01F0910F01E90FF11D877021E0DD
:1034E00030E001C0220F8A95EAF7209581812823D8
:1034F0002183089540910E0150910F0120E030E0AA
:10350000FA01E20FF31F9281981301C012822F5F1C
:103510003F4F2E303105A1F7089581E090E0E09112
:103520000E01F0910F01E80FF91F10820196803112
:103530009105A9F708959091CE01982B9093CE0113
:10354000089580959091CE0198239093CE0108958F
:103550001092CE0108959091CD01982B9093CD01BA
:10356000089580959091CD0198239093CD01089571
:103570001092CD0108959091CC01982B9093CC019D
:10358000089580959091CC0198239093CC01089553
:103590001092CC0108958093BB0108951092BB0155
:1035A000089540910E0150910F0120E030E080E03D
:1035B000FA01E20FF31F918191118F5F2F5F3F4F4F
:1035C0002F303105A9F70895E0910E01F0910F0118
:1035D0008091CE018083E0910E01F0910F018081F6
:1035E0009091CD01892B8083E0910E01F0910F0124
:1035F00080819091CC01892B80839091BB0199238C
:1036000061F0E0910E01F0910F018081892B8083A0
:103610000E94D11A81111092BB0180910E019091EC
:103620000F010C942B0FCF92DF92EF92FF920F932A
:103630001F936C01EE24FF24C114D104E104F104B2
:1036400021F46B017C0180E001C080E133272F2D44
:103650001E2D0D2D011511052105310519F0885F6D
:103660006801790197018601A4E0369527951795A1
:103670000795AA95D1F7011511052105310519F016
:103680008C5F6801790197018601F2E036952795F4
:1036900017950795FA95D1F7011511052105310503
:1036A00019F08E5F68017901B701A60176956795DB
:1036B00057954795452B462B472B09F08F5F1F9158
:1036C0000F91FF90EF90DF90CF9008958091E601E9
:1036D000843021F11092D00120E488E190E00FB60F
:1036E000F894A895809360000FBE2093600080E05E
:1036F0000E94240883B7817F846083BF83B7816081
:1037000083BF7894889583B78E7F83BF88E10FB697
:10371000F89480936000109260000FBE08950895A1
:103720000895CF930E948F1B0E9458040E94901B03
:10373000C0E08C2F0E944505811105C0CF5FCE30BF
:10374000C1F780E001C081E0CF9108950E94A214EA
:103750000E941F0F0C94240882E084BD93E095BD65
:103760009AEF97BD80936E0008952FB7F8948091DB
:10377000D1019091D201A091D301B091D4012FBF7A
:103780000895CF92DF92EF92FF920F931F932FB77E
:10379000F8944091D1015091D2016091D301709180
:1037A000D4012FBF6A017B01EE24FF248C0120E0AD
:1037B00030E0C016D106E206F30610F4415051097C
:1037C000481B590BCA011F910F91FF90EF90DF909A
:1037D000CF9008951F920F920FB60F9211248F93DE
:1037E0009F93AF93BF938091D1019091D201A0910B
:1037F000D301B091D4010196A11DB11D8093D101D7
:103800009093D201A093D301B093D401BF91AF9113
:103810009F918F910F900FBE0F901F9018950E944F
:10382000250CF8942FEF87EA91E6215080409040D4
:10383000E1F700C0000087E090EBDC018093F0012D
:103840009093F101A093F201B093F3012CE088E191
:1038500090E00FB6F894A895809360000FBE209377
:103860006000FFCFEF92FF920F931F93CF93DF93F0
:10387000E82EF12C8F2D0E944505C0E0D0E0082FE6
:1038800010E098010C2E02C0359527950A94E2F7B6
:1038900020FD05C02196C630D10599F709C06C2FCF
:1038A0007F2D80E00E944D05E812F4CF81E005C035
:1038B000F3948EE0F812DECF80E0DF91CF911F917C
:1038C0000F91FF90EF900895CF93C82F8CE20E9444
:1038D000321C882321F08C2FCF910C94321C80E075
:1038E000CF910895CF930E94B71D811102C00E940D
:1038F0009D1DC5E6C15049F00E9458048FE39CE924
:103900000197F1F700C00000F5CF89E20E94641C26
:10391000811111C18AE20E94641C81110E949D1DC7
:1039200085E00E94641C81110E940F1C0E94C21D30
:103930008093CF0187E00E94641C882399F18BE17A
:103940000E94641C882351F09091CF0191FB88273D
:1039500080F921E0822780FB91F922C08EE00E944D
:10396000641C882351F09091CF0192FB882780F945
:1039700021E0822780FB92F913C080E10E94641C41
:103980009091CF01882341F093FB882780F921E0B3
:10399000822780FB93F904C0892F809580FB90F9E2
:1039A0009093CF018091CF010E94C61D0E94D41D2B
:1039B0008093EF0180EE0E94641C882341F0809187
:1039C000EF01982F909590FB80F98093EF0189E3A8
:1039D0000E94641C882359F09091EF0191FB882785
:1039E00080F921E0822780FB91F99093EF0182EE2C
:1039F0000E94641C882359F09091EF0192FB882764
:103A000080F921E0822780FB92F99093EF0186EE06
:103A10000E94641C882359F09091EF0193FB882742
:103A200080F921E0822780FB93F99093EF0183EEE8
:103A30000E94641C882359F09091EF0194FB882721
:103A400080F921E0822780FB94F99093EF0185E3D0
:103A50000E94641C882359F09091EF0195FB882700
:103A600080F921E0822780FB95F99093EF0181E3B3
:103A70000E94641C882359F09091EF0196FB8827DF
:103A800080F921E0822780FB96F99093EF0181E194
:103A90000E94641C882359F09091EF0197FB8827BE
:103AA00080F921E0822780FB97F99093EF018091C4
:103AB000EF010E94D81D8091EF0187FB882780F9D4
:103AC00080930D0187E20E94641CC82F8EE10E9442
:103AD000641C8111C2608FE10E94641C8111C4606A
:103AE00080E20E94641C8111C86081E20E94641C13
:103AF0008111C06182E20E94641C8111C06283E274
:103B00000E94641C8111C06484E20E94641C8823AA
:103B100011F0C06802C0CC2329F08C2F0E94CF1D69
:103B20006C2F03C00E94CB1D682F70E080E090E0F6
:103B3000CF910C949E18CF9108956DEE7EEF80E0AA
:103B400090E00E94F52360E082E090E00E94E32391
:103B500060E083E090E00E94E32360E084E090E096
:103B60000E94E32360E085E090E00C94E32380E092
:103B700090E00E94DD2321E08D3E9E4F09F020E081
:103B8000822F089582E090E00C94D523682F82E084
:103B900090E00C94E32383E090E00C94D523682F0D
:103BA00083E090E00C94E32384E090E00C94D52330
:103BB000682F84E090E00C94E3238091D70180FF8C
:103BC0000BC06091130185E0689FB00111247595C9
:103BD0006795759567952AC081FF09C060911301AB
:103BE00085E0689FB0011124759567951FC082FF1D
:103BF00007C06091130185E0689FB001112416C0D1
:103C00004091D8014423C9F060911201461788F70A
:103C10002091130185E0289F90011124429FC0014B
:103C2000439F900D112470E00E94A7236038710516
:103C300040F46115710539F002C065E070E0862F2F
:103C400008958FE7089581E008958091D70180FF5E
:103C500008C06091110170E075956795759567953D
:103C600021C081FF06C06091110170E075956795D4
:103C700019C082FF04C06091110170E010C08091F2
:103C8000D8018823C1F0609110018617A0F79091A8
:103C90001101989FC001112470E00E94A723603891
:103CA000710528F46115710521F0862F08958FE7BD
:103CB000089581E0089561E070E0F4CF803F21F441
:103CC0000E94DD1D819504C0813F29F40E94DD1D05
:103CD0008093DB010895823F21F40E94DD1D8195D0
:103CE00004C0833F29F40E94DD1D8093DA0108950A
:103CF000893F19F40E94251E05C08A3F31F40E94B5
:103D0000251E81958093DC0108958B3F21F40E944C
:103D1000251E819504C08C3F29F40E94251E8093A6
:103D2000DD010895843F21F48091D901816017C09D
:103D3000853F21F48091D901826011C0863F21F432
:103D40008091D90184600BC0873F21F48091D90113
:103D5000886005C0883F31F48091D90180618093EB
:103D6000D90108958D3F21F48091D70181600BC066
:103D70008E3F21F48091D701826005C08F3F29F4E6
:103D80008091D70184608093D7010895803F39F4F2
:103D90008091DB0187FF6CC01092DB0169C0813F1D
:103DA00029F48091DB011816BCF362C09091DA010E
:103DB000823F29F497FF5CC01092DA0159C0833F1B
:103DC00019F41916CCF354C0893F41F48091DC01F9
:103DD00018160CF04DC01092DC014AC08A3F29F43D
:103DE0008091DC0187FF44C0F6CF8B3F39F480918E
:103DF000DD0187FF3DC01092DD013AC08C3F29F400
:103E00008091DD011816BCF333C0843F21F480910A
:103E1000D9018E7F17C0853F21F48091D9018D7F14
:103E200011C0863F21F48091D9018B7F0BC0873F61
:103E300021F48091D901877F05C0883F31F48091BA
:103E4000D9018F7E8093D90113C08D3F21F48091D9
:103E5000D7018E7F0BC08E3F21F48091D7018D7FDB
:103E600005C08F3F29F48091D7018B7F8093D701C4
:103E70008091DA0181110EC08091DB0181110AC0AD
:103E80008091DC01811106C08091DD01811102C0A9
:103E90001092D801089589ED91E00E94360F0E949A
:103EA000B51B9093D6018093D50108951F93CF93AE
:103EB000DF938091D5019091D6010E94C11B409162
:103EC000D801442321F02091140130E006C0209154
:103ED00015015AE0259F900111248217930708F4D9
:103EE00082C08091DA011091DB01D091DC01C09198
:103EF000DD01811107C0111105C0D11103C0CC2310
:103F000009F471C04F3F19F04F5F4093D801181664
:103F100024F40E94DD1D8093DA018091DA0187FF8D
:103F200005C00E94DD1D81958093DA01111624F4ED
:103F30000E94DD1D8093DB018091DB0187FF05C0BE
:103F40000E94DD1D81958093DB016091DA0166237B
:103F500039F11091DB01112319F1772767FD709575
:103F6000872F972F0E94B82223E333E343E35FE3D5
:103F70000E941C230E9485226093DA01612F77271B
:103F800067FD7095872F972F0E94B82223E333E3B4
:103F900043E35FE30E941C230E9485226093DB01C0
:103FA0001D1624F40E94251E8093DC018091DC0103
:103FB00087FF05C00E94251E81958093DC011C1699
:103FC00024F40E94251E8093DD018091DD0187FF8E
:103FD00005C00E94251E81958093DD01DF91CF9160
:103FE0001F910C944B1FDF91CF911F910895E9ED24
:103FF000F1E085E0DF011D928A95E9F71092D80182
:104000001092D7010895833081F128F4813059F05E
:104010008230D1F00895853009F449C0B8F1863076
:1040200009F456C0089520911501862F90E0820F63
:10403000911D8F3F910520F4620F60931501089543
:104040008FEF80931501089520911401862F90E041
:10405000820F911D8F3F910520F4620F6093140130
:1040600008958FEF80931401089520911301862FF6
:1040700090E0820F911D8F3F910520F4620F6093B5
:10408000130108958FEF8093130108952091120179
:10409000862F90E0820F911D8F3F910520F4620FD3
:1040A0006093120108958FEF80931201089520917B
:1040B0001101862F90E0820F911D8F3F910520F412
:1040C000620F6093110108958FEF8093110108959D
:1040D00020911001862F90E0820F911D8F3F910556
:1040E00020F4620F6093100108958FEF8093100108
:1040F0000895833011F128F4813049F0823091F035
:104100000895853081F120F18630C1F108958091C4
:104110001501681720F4861B8093150108951092ED
:104120001501089580911401681720F4861B80936F
:1041300014010895109214010895809113016817D5
:1041400020F4861B809313010895109213010895A3
:1041500080911201681720F4861B80931201089544
:1041600010921201089580911101681720F4861BA6
:10417000809311010895109211010895809110010A
:10418000681720F4861B8093100108951092100187
:1041900008958D3109F442C020F58E3009F477C0BE
:1041A00070F4873009F459C018F48630F1F134C046
:1041B000883009F4A8C08B3009F4A5C02DC0863121
:1041C00009F4A1C038F4803109F472C0813109F4D6
:1041D00079C022C0893109F496C08B3109F44DC0F1
:1041E0001BC0853309F487C048F4873209F483C0C3
:1041F00008F473C0893209F47EC00EC0833438F4E9
:104200008A3308F068C0883309F47DC005C0833460
:1042100009F471C0883499F080E008950E943F222B
:104220000E941F0F0E9424086EC08091CF01817FE1
:104230008E7F8093CF0181E08093DF0108950E94FB
:10424000A2142FEF83ED90E3215080409040E1F7DE
:1042500000C000000E940F1C56C09091CF01892F12
:104260008095817080FB90F919F0966098601DC070
:10427000997F977F9093CF0146C09091CF0191FB9A
:10428000882780F921E0822780FB91F909C090916D
:10429000CF0192FB882780F921E0822780FB92F9E9
:1042A0009093CF01882379F191609093CF01089585
:1042B0009091CF0193FB882780F921E0822780FB32
:1042C00093F9EECF0E94A21480910D0191E089270D
:1042D00080930D0118C027EC01C023EE280F61E088
:1042E00070E080E090E004C0660F771F881F991F80
:1042F0002A95D2F704C061E070E080E090E00E946F
:104300009E180E94A21481E0089580E0089580E044
:104310000895CF93C82F8091DF01813079F018F094
:104320008230D1F184C0A0910E01B0910F018C9127
:10433000813169F0823209F07CC009C0A0910E0180
:10434000B0910F018C91813111F0823249F48C2FA0
:104350000E94852181111DC08C2F0E94C9201AC086
:104360008C2F0E948721811114C0C43179F048F448
:10437000CB3079F0C03109F060C082E08093DF017A
:1043800008C0C93219F0C83321F057C01092DF01BC
:1043900054C081E0817053C0C93289F118F5C4312D
:1043A00071F1A8F4C73009F046C08AE08093150186
:1043B00094E19093140193E0909313018093120180
:1043C00088E08093110188E28093100134C0CE51BF
:1043D000C63088F5EC2FF0E0E65DFE4F80818093DB
:1043E000DE0129C0CE34E9F020F4CB3421F56AE0B7
:1043F00013C0C13579F0C235F1F461E00DC0809190
:10440000DE01882319F01092DE0115C081E080934F
:10441000DF0115C061E006C08091DE010E9403202B
:104420000AC06AE08091DE010E94792004C01092E7
:10443000DF0180E004C081E002C080E0ABCFCF911B
:104440000895E1E8F0E08081886080838081816068
:1044500080838FB7F89493E09093890090ED9093C8
:1044600088008FBF0895EFE6F0E08081826080834E
:104470000895EFE6F0E080818D7F80830895EFE678
:10448000F0E0808192E08927808308951F920F9247
:104490000FB60F9211242F933F934F935F936F9317
:1044A0007F938F939F93AF93BF93EF93FF938091ED
:1044B000E0019091E10101969093E1018093E00188
:1044C000811103C082E00E942408E091E101E69599
:1044D000E695F0E0E657FB4FE4918091E0018E1302
:1044E00003C080E00E942408FF91EF91BF91AF913B
:1044F0009F918F917F916F915F914F913F912F91FC
:104500000F900FBE0F901F90189504D06894B111B2
:104510008DC0089570D088F09F5790F0B92F9927DB
:10452000B751A0F0D1F0660F771F881F991F1AF0BE
:10453000BA95C9F712C0B13081F077D0B1E00895D3
:1045400074C0672F782F8827B85F39F0B93FCCF354
:10455000869577956795B395D9F73EF490958095B4
:10456000709561957F4F8F4F9F4F0895E89409C0D4
:1045700097FB3EF490958095709561957F4F8F4F96
:104580009F4F9923A9F0F92F96E9BB279395F695AC
:10459000879577956795B795F111F8CFFAF4BB0F2A
:1045A00011F460FF1BC06F5F7F4F8F4F9F4F16C08E
:1045B000882311F096E911C0772321F09EE8872F18
:1045C000762F05C0662371F096E8862F70E060E0D4
:1045D0002AF09A95660F771F881FDAF7880F96954D
:1045E000879597F9089557FD9058440F551F59F036
:1045F0005F3F71F04795880F97FB991F61F09F3FD0
:1046000079F087950895121613061406551FF2CFF8
:104610004695F1DF08C0161617061806991FF1CF48
:1046200086957105610508940895E894BB2766276F
:104630007727CB0197F908950BD078C069D028F07F
:104640006ED018F0952309F05AC05FC01124EECF48
:10465000CADFA0F3959FD1F3950F50E0551F629FDD
:10466000F001729FBB27F00DB11D639FAA27F00DCB
:10467000B11DAA1F649F6627B00DA11D661F829FF2
:104680002227B00DA11D621F739FB00DA11D621FD7
:10469000839FA00D611D221F749F3327A00D611DF4
:1046A000231F849F600D211D822F762F6A2F1124D6
:1046B0009F5750408AF0E1F088234AF0EE0FFF1F29
:1046C000BB1F661F771F881F91505040A9F79E3F60
:1046D000510570F014C0AACF5F3FECF3983EDCF3B5
:1046E000869577956795B795F795E7959F5FC1F79D
:1046F000FE2B880F911D9695879597F9089597F948
:104700009F6780E870E060E008959FEF80EC089577
:1047100000240A94161617061806090608950024A0
:104720000A9412161306140605060895092E03941A
:10473000000C11F4882352F0BB0F40F4BF2B11F48E
:1047400060FF04C06F5F7F4F8F4F9F4F089597FBAF
:10475000072E16F4009407D077FD09D00E94C123DC
:1047600007FC05D03EF4909581959F4F0895709574
:1047700061957F4F0895EE0FFF1F0590F491E02D96
:104780000994AA1BBB1B51E107C0AA1FBB1FA61798
:10479000B70710F0A61BB70B881F991F5A95A9F7EA
:1047A00080959095BC01CD010895F999FECF92BDF9
:1047B00081BDF89A992780B50895A8E1B0E042E05C
:1047C00050E00C94FD23262FF999FECF92BD81BDB8
:1047D000F89A019700B4021639F01FBA20BD0FB63F
:1047E000F894FA9AF99A0FBE08950196272F0E941D
:1047F000E4230C94E323DC01CB01FC01F999FECF07
:1048000006C0F2BDE1BDF89A319600B40D92415058
:0A4810005040B8F70895F894FFCF68
:10481A0020022608B30890085C0829080101BC0197
:10482A0028080A03140A3F4D36394B04FE03C8030D
:10483A008F0322033B0354036D030102030405069D
:04484A000708090052
:00000001FF
