:100000000C9425020C9469020C9469020C94690208
:100010000C9469020C9469020C9469020C946902B4
:100020000C9469020C9469020C94800D0C94520E8D
:100030000C9469020C9469020C9469020C94690294
:100040000C9469020C940C210C9469020C946902C2
:100050000C9469020C94EE1B0C9469020C946902D6
:100060000C9469020C9469020C9469020C94690264
:100070000C9469020C9469020C9469020C94690254
:100080000C9469020C9469020C9469020C94690244
:100090000C9469020C9469020C9469020C94690234
:1000A0000C9469020C9469020C946902BF0EE10E73
:1000B000CF0FE10ECF0F260F490FCF0F9E0FB10FBD
:1000C00080128012AF12AF12E512051336143614E7
:1000D00010133614C013C0132714361436143014FA
:1000E000CD13CD13CD13CD13CD13CD13CD13CD1310
:1000F000CD13CD13CD13CD13CD13CD13CD13CD1300
:10010000DF13EC13F313FA13041435002B00E00093
:10011000E1003A0000001E00140004001D003B0036
:10012000E2001F001A0016001B003C00296120009D
:100130000700080006003D002A0021000900170002
:100140001900E300A90022000E000A0005000000CB
:10015000AA003E00310000002F000000A8003F0070
:100160000153000030000000AE0023000D001C0011
:1001700013000000AB002400180011001000E7007D
:10018000AC00250015000C00360050002C002600A5
:100190000F001200370051003400270033000B001D
:1001A00038005200E6002E002D002800E5004F0028
:1001B0000000010001000100010001000000010039
:1001C0000100010001000100010001000100010027
:1001D000010001000100010008000700010001000A
:1001E00001000100150009000100010001000100EB
:1001F00017000100010000000100010001000000E3
:1002000001000000010001000100000001000000E9
:10021000010001001C000B001100000001000100A2
:1002200018000D0001000100010001000C000E008B
:10023000010001000100010012000F000100010097
:100240000100010013003300010001000100010062
:1002500001000100010001000000160345007200CA
:1002600067006F0044006F007800200045005A00CE
:10027000000016034500720067006F0044006F0025
:100280007800200045005A00000004030904090218
:100290006D00040100A0FA0904000001030101003F
:1002A0000921110100012240000705810308000A0D
:1002B00009040100010301020009211101000122CA
:1002C0004D000705820308000A090402000103002B
:1002D00000000921110100012236000705830308EF
:1002E000000A0904030001030000000921110100B4
:1002F00001223900070584031000011201100100DA
:10030000000008EDFE0713010001020001050109CC
:1003100006A101050719E029E715002501950875D3
:1003200001810205081901290595057501910295BC
:10033000017503910105071900297715002501951D
:100340007875018102C005010980A10185021601AD
:100350000026B7001A01002AB70075109501810028
:10036000C0050C0901A1018503160100269C021A93
:1003700001002A9C02751095018100C00501090247
:10038000A1010901A100050919012905150025018F
:1003900095057501810295017503810105010930FB
:1003A00009311581257F9502750881060938158167
:1003B000257F950175088106050C0A3802158125EF
:1003C0007F950175088106C0C005010906A10105D8
:1003D0000719E029E71500250195087501810295A7
:1003E0000175088101050819012905950575019117
:1003F000029501750391010507190029FF150026D3
:10040000FF00950675088100C00000000000000094
:1004100000000000010204060A0F17202C3A4A5D72
:1004200071879DB3C7DAE9F5FCFFFCF5E9DAC7B3DC
:100430009D87715D4A3A2C20170F0A0604020100BD
:100440000000000000000000000011241FBECFEFDC
:10045000DAE0DEBFCDBF04B603FE24C08091FD010B
:100460009091FE01A091FF01B09100028730904B66
:10047000A740B04BB9F41092FD011092FE0110920A
:10048000FF011092000214BE84B7877F84BF88E109
:100490000FB6F89480936000109260000FBEE0E009
:1004A000FFE3099511E0A0E0B1E0E6EAF5E402C05F
:1004B00005900D92A433B107D9F711E0A4E3B1E0A0
:1004C00001C01D92AD3FB107E1F70E94C80A0C942C
:1004D000D1220C9400001092B9008AE08093B800F9
:1004E000089594EA9093BC009091BC0097FFFCCFD4
:1004F0009091B900987F983021F0903111F081E00F
:1005000008958093BB0084E88093BC008091BC0078
:1005100087FFFCCF8091B900887F883111F080344B
:1005200071F780E0089584E98093BC008091BC005D
:1005300084FDFCCF08958093BB0084E88093BC00C9
:100540008091BC0087FFFCCF9091B900987F81E03B
:10055000983209F480E0089584E88093BC0080918B
:10056000BC0087FFFCCF8091BB00089580B38C70E6
:1005700080BB81B3836F81BB08958091010181119C
:1005800015C080E40E9471028093010181110CC0AA
:1005900082E10E949B0280930101811105C08FEFCF
:1005A0000E949B02809301010E94930284B1807F8C
:1005B00084B985B1807F85B98AB1837F8AB98BB1CF
:1005C000837F8BB93E98469808950E948704809354
:1005D00001010E94BD020E94B602A5E3B1E0E3E47E
:1005E000F1E08EE08E0F11921D928E13FCCF0C94D1
:1005F00071040E948704809301010E94BD020E9441
:10060000B602A5E3B1E0E3E4F1E08EE08E0F1192D3
:100610001D928E13FCCF0895BF92CF92DF92EF927E
:10062000FF920F931F93CF93DF9380910101882353
:1006300079F0809134018F5F80933401811108C07B
:100640000E94870480930101811102C00E94190455
:1006500005E311E0C0E0D0E0DD24D39482E0C82EB1
:10066000EE24E394F12CC730D10500F5809101010F
:10067000811164C080E40E947102809301018111A4
:1006800012C082E10E949B028093010181110BC084
:10069000C7010C2E01C0880F0A94EAF780950E94CA
:1006A0009B02809301010E94930248C0CA30A1F0CE
:1006B00028F4C83059F0C93061F005C0CC3089F059
:1006C00070F0CD3089F0209A289810C0219A29988E
:1006D0000DC0229A2A980AC0239A2B9807C0529AD2
:1006E00001C0539A5B9802C03E9A469890EA9A9548
:1006F000F1F79FB1799902C082E001C080E091706A
:100700009D25982B7C9902C084E001C080E0892B54
:100710007D9902C038E001C030E0832B7E9902C091
:1007200020E101C020E0822B9FB19095991F99276D
:10073000991F9295990F907E892B0FC0809101018E
:10074000811149C080E40E947102809301018823D5
:1007500079F1B12C0E9493028B2DF80190819817AA
:1007600019F08083C09200010E94BD0221960F5FA4
:100770001F4FCE30D10509F076CF8091000188233C
:1007800061F1815080930001882339F08FE99FE067
:100790000197F1F700C0000020C0A3E4B1E0E5E359
:1007A000F1E0CF01825F91919D938E13FCCF15C034
:1007B00083E10E949B02809301018111CACF81E4F1
:1007C0000E947102809301018111C3CF0E94AC028B
:1007D000B82EB094BFCF80E0C0CF0E94170481E054
:1007E000DF91CF911F910F91FF90EF90DF90CF900D
:1007F000BF900895E82FF0E0ED5BFE4F80810895F3
:1008000008950F931F93CF93DF93C3E4D1E010E0DB
:100810000C2F025F899190E00E94151B180F0C139A
:10082000F9CF812FDF91CF911F910F9108950C94F3
:10083000DA0456985E9825982D9826982E98279831
:100840002F988FEF90E09093890080938800909389
:100850008B0080938A0090938D0080938C00259A62
:100860002D9A2FEF80E792E0215080409040E1F7F1
:1008700000C00000269A2E9A2FEF80E792E02150C8
:1008800080409040E1F700C00000279A2F9A2FEF98
:1008900080E792E0215080409040E1F700C00000E6
:1008A00025982D982FEF80E792E0215080409040CE
:1008B000E1F700C0000026982E982FEF80E792E025
:1008C000215080409040E1F700C0000027982F9809
:1008D00056985E9825982D9826982E9827982F98A8
:1008E000089589EA8093800089E0809381002498AC
:1008F0002C983F988AB18F748AB96E98479A8BB1B9
:10090000806B8BB9769A0E9419040C94D90480E20A
:10091000809301018091510181110EC00E946B02F0
:1009200081E0809351012FEF83ED90E321508040CF
:100930009040E1F700C0000080E40E9471028093C3
:10094000010181112EC00E949B028093010181113F
:1009500028C00E949B0280930101811122C08FE375
:100960000E949B028093010181111BC00E9493028F
:1009700080E40E94710280930101811112C08CE019
:100980000E949B028093010181110BC00E949B0277
:1009900080930101811105C08FE30E949B02809327
:1009A00001010E94930280910101089580E090E08E
:1009B000089508956091BE017091BF018091C001BA
:1009C0009091C1010E94211B56985E9825982D9800
:1009D00026982E9827982F98813011F4259A2D9AD1
:1009E000089581E0089581E008950C94F30408953A
:1009F000282F882339F090E02A3010F44D9608957E
:100A00000697089587E290E00895AF92BF92DF9233
:100A1000EF92FF920F931F93CF93DF938C01FC0112
:100A2000C081D181CE010E949A19BE010E94750831
:100A3000EC01B8010E94F504882309F4C9C1F8014A
:100A40008281882309F4BEC080915E0181111FC09C
:100A5000C431F0E7DF0709F0B5C10E94F70481E077
:100A600080935E010E94B81B90935D0180935C01AE
:100A7000109255011092570110925601109259018F
:100A80001092580110925B0110925A01A1C18091FD
:100A90005C0190915D010E94C41B883C910570F43B
:100AA00080915501E82FF0E0EE0FFF1FEA5AFE4F4C
:100AB000D183C0838F5F809355018AC1C13020E804
:100AC000D20708F451C0F8018281882309F47EC05E
:100AD0005E01E894B7F880915401813079F050F0CC
:100AE0008230C1F482EE0E94241187E50E94241115
:100AF00087E50EC082EE0E9424110CC080EE0E9499
:100B0000241181EE0E94241188E10E94241188E1C1
:100B10000E94EC118CE0E82EF12CC5010E2C02C0D5
:100B2000969587950A94E2F78F700E94F804D82E64
:100B30000E9424118D2D0E94EC11F4E0EF1AF108AF
:100B40002CEFE2162FEFF20641F78091540181302D
:100B500029F010F0823041F482EE04C080EE0E9451
:100B6000EC1181EE0E94EC11C43180E7D80768F4E3
:100B7000C23090E7D90708F046C0C115E0E7DE07AC
:100B800071F0C130D047A1F10CC1C33320E7D207C7
:100B900009F4D8C0C433D04709F4EBC002C1F8014E
:100BA0008281882309F402C10E94A114FFEF24E38B
:100BB0008CE0F15020408040E1F700C000000E942E
:100BC000131C06C1C13080E8D80770F2C43120E799
:100BD000D20708F0B3C0C23080E7D807A0F4C1152F
:100BE00090E7D90709F4E2C0C130D04709F0D9C075
:100BF000F8018281882309F4D9C08091DB018160EA
:100C00008093DB01E5C0F8018281882309F4CEC01E
:100C10000E946D1C811102C00E94531C0E94801C06
:100C200090E09093EF018093EE01C230F0E7DF0790
:100C300021F48091EE0181607AC0C33020E7D207B1
:100C400021F48091EE01826072C0C43080E7D80741
:100C500021F48091EE0184606AC0C53090E7D90725
:100C600019F48091EE0127C0C630E0E7DE0721F4D9
:100C70008091EE0180615BC0C730F0E7DF0721F4AF
:100C80008091EE01806253C0C83020E7D20721F482
:100C90008091EE0180644BC0C93080E7D80721F411
:100CA0008091EE01806843C0CA3090E7D90729F4EB
:100CB0008091EE01846088603AC0CB30E0E7DE07C7
:100CC00021F48091EE018E7F32C0CC30F0E7DF0757
:100CD00021F48091EE018D7F2AC0CD3020E7D2072C
:100CE00021F48091EE018B7F22C0CE3080E7D807BF
:100CF00019F48091EE011AC08091EE01CF3090E797
:100D0000D90711F48F7E13C0C031E0E7DE0711F47C
:100D10008F7D0DC0C131F0E7DF0711F48F7B07C075
:100D2000C231D04711F48F7702C08B7F877F8093C9
:100D3000EE018091EE010E94841C4AC0C333F0E7AB
:100D4000DF07A1F4F8018281882321F0109252017B
:100D500082E016C080915201811106C086E20E9495
:100D6000241186E20E94EC1182E018C0C433D047FF
:100D7000C1F4F8018281882331F01092530180E29E
:100D80000E943B1225C080915301811106C087E269
:100D90000E94241187E20E94EC1180E20E9442121C
:100DA00017C081E08093520180935301C801DF9105
:100DB000CF911F910F91FF90EF90DF90BF90AF9078
:100DC0000C94F104C130F0E8DF0708F081CECCCEFE
:100DD00080E0DF91CF911F910F91FF90EF90DF9016
:100DE000BF90AF90089526E0729FF001112444E572
:100DF000849FE00DF11D1124E60FF11DEE0FFF1F82
:100E0000E65FFE4F859194910E948708811560E40A
:100E10009607B0F5811570E3970708F0DEC0803EB5
:100E20009105D8F4803C910508F06CC0883A910592
:100E300078F4853A910508F06BC08130910509F48A
:100E400052C108F40FC18430910508F04CC10AC1A9
:100E50008B3B910508F467C005C18F3F910509F0F0
:100E600048F4803F910508F0ADC0883E910508F434
:100E70003AC1F8C0811520E2920708F0A5C0089594
:100E8000811543E5940790F4811562E5960708F013
:100E9000C8C0811571E5970708F0BEC0811520E52F
:100EA000920708F09DC09F70906A0895811545E5EE
:100EB0009407D8F4811564E5960708F0C8C0482F58
:100EC0004695469570E2479FA001112483709927AB
:100ED00021E030E0B90102C0660F771F8A95E2F782
:100EE000CB01842B952B9A680895811576E5970799
:100EF00008F4B2C09C0130562115304108F0B2C050
:100F00009F70AEC0FC01EE0FFF1FE657F04062C0BD
:100F1000853A910509F4A9C0863A910509F0A8C05F
:100F200082E890E40895883A910509F4A4C0893ACA
:100F3000910509F4A3C08A3A910509F4A2C08B3A3D
:100F4000910509F4A1C08C3A910509F4A0C08D3A2D
:100F5000910509F49FC0803B910509F49EC08E3A2B
:100F6000910509F49DC08F3A910509F49CC0813B1D
:100F7000910509F49BC0823B910509F49AC0833B1B
:100F8000910509F499C0843B910509F498C0853B0B
:100F9000910509F497C0863B910509F496C0873BFB
:100FA000910509F495C0883B910509F494C0893BEB
:100FB000910509F493C08A3B910509F492C080E041
:100FC00094E4089590650895FC01FF70EE0FFF1FF3
:100FD000E65FFE4F8591949108959927906C08954E
:100FE000482F437021E030E002C0220F331F4A95A2
:100FF000E2F73C68AC0164E0569547956A95E1F7E5
:101000004370342B8F708695869560E2869FC00171
:101010001124822B932B0895982F8827816F906A33
:101020000895482F4695469570E2479FA0011124E8
:101030008370992721E030E0B90102C0660F771F65
:101040008A95E2F7CB01842B952B9C680895982F05
:101050008827846F906A08958F719927982F882721
:101060009062089580E090E0089581E890E408950A
:1010700083E890E4089582EE94E4089589EE94E480
:1010800008958AEE94E4089585EB94E4089586EB40
:1010900094E4089587EB94E408958CEC94E4089527
:1010A0008DEC94E4089583E895E408958AE895E446
:1010B000089582E995E4089584E995E4089581E22C
:1010C00096E4089583E296E4089584E296E4089510
:1010D00085E296E4089586E296E4089587E296E430
:1010E00008958AE296E40895089596E0799FF001C4
:1010F000112494E5899FE00DF11D1124E60FF11DE7
:10110000EE0FFF1FE65FFE4F8591949108958238A0
:10111000910549F1B0F48133910509F458C048F4C0
:101120008932910509F44EC08A32910509F454C000
:1011300008958533910509F440C08933910599F0EC
:101140000895833E910529F138F4803E910591F090
:10115000823E9105A1F00895863E9105F9F0873E03
:10116000910531F108952091EE0120FD3AC021FD55
:1011700038C008958091EE0180FD35C032C0809165
:10118000EE0182FF32C08091EE0184FD30C083EE1B
:1011900039C08091EE0182FD28C0F5CF8091EE012B
:1011A00083FF27C08091EE0184FD21C087EE2AC015
:1011B0008091EE0183FD1DC0F5CF8091EE0185FD8C
:1011C0001AC01BC08091EE0185FD17C014C080912C
:1011D000EE0186FD14C015C08091EE0186FD11C0A0
:1011E0000EC080EE0FC089E30DC082EE0BC080E020
:1011F00009C086EE07C089E205C085E303C08AE224
:1012000001C081E390E0089508950C940409809151
:101210006F010895CF93DF9300D01F92CDB7DEB753
:101220009C018091F401843019F593E099833B830C
:101230002A839093E9008FEF9091E800815095FD0B
:1012400006C095ED9A95F1F700008111F5CF8091D8
:10125000E80085FF0DC040E050E063E070E0CE01A3
:1012600001960E94700B8091E8008E778093E800D1
:101270000F900F900F90DF91CF910895CF93DF9350
:1012800000D01F92CDB7DEB72091F401243021F5B4
:1012900022E029839B838A8383E08093E9008FEF98
:1012A0009091E800815095FD06C095ED9A95F1F773
:1012B00000008111F5CF8091E80085FF0DC040E06E
:1012C00050E063E070E0CE0101960E94700B8091C7
:1012D000E8008E778093E8000F900F900F90DF91D9
:1012E000CF9108952091F4012430F1F422E020936D
:1012F000E9002FEF3091E800215035FD06C035EDB3
:101300003A95F1F700002111F5CF2091E80025FF73
:101310000BC040E050E065E070E00E94700B8091EF
:10132000E8008E778093E8000895CF93DF93EC0177
:101330009091F401943009F046C080910C0188230B
:10134000D9F080910D018823B9F09093E9008FEFD7
:101350009091E800815095FD06C095E19A95F1F7CE
:1013600000008111F5CF8091E80085FF2CC040E09E
:1013700050E060E170E017C081E08093E9008FEFFA
:101380009091E800815095FD06C095ED9A95F1F792
:1013900000008111F5CF8091E80085FF14C040E086
:1013A00050E068E070E0CE010E94700B8091E80090
:1013B0008E778093E80080E1FE01AFE5B1E0019017
:1013C0000D928A95E1F7DF91CF9108958091F30115
:1013D000811109C00E94050D0E94620D8091E200FA
:1013E00084608093E20008951092F30108950895B7
:1013F0000C94F9200E94A91B0E94FF200E94081053
:101400000C94050942E061EC81E00E947F0C42E00F
:1014100061EC82E00E947F0C42E061EC83E00E947C
:101420007F0C42E161EC84E00C947F0C8091F6012A
:10143000833009F455C030F4813071F0823009F402
:101440008EC008958A3009F47AC08B3009F460C0E8
:10145000893009F09CC020C08091F501813A09F0E3
:1014600096C08091E800877F8093E8008091F90121
:101470009091FA01892B21F460E18FE591E003C09E
:1014800060E080E090E070E00E94BB0B8091E8009B
:101490008B778093E80008958091F501813209F0FF
:1014A00076C08091F9019091FA01009719F00397A5
:1014B00009F06DC08091E800877F8093E8008091FB
:1014C000E80082FD05C08091F4018111F8CF5FC072
:1014D0008091F10080936F018091E8008B7753C079
:1014E0008091F501813A09F052C08091F901909103
:1014F000FA01892B09F04BC08091E800877F809327
:10150000E8008091E80080FFFCCF80910C0136C09C
:101510008091F5018132D9F58091F9019091FA011C
:10152000892BA9F58091E800877F8093E8000E94CD
:10153000B40C8091F70180930C010C94A11480915C
:10154000F501813221F58091E800877F8093E800E2
:101550000E94B40C8091F8018093700108958091ED
:10156000F501813AA1F48091E800877F8093E8003B
:101570008091E80080FFFCCF809170018093F100A2
:101580008091E8008E778093E8000C94B40C089565
:1015900084B7877F84BF88E10FB6F894809360009A
:1015A000109260000FBE80E880936100109261008D
:1015B0000E9457100E94050D0E94620D8091E2006A
:1015C00084608093E20078940E94E80F0E94591092
:1015D00082E091E00E9403100E94E7208091F401D4
:1015E000853069F40E94711B8091F2018823B1F368
:1015F0000E949B1B882391F30E945A0BEFCF0E94FD
:101600005F10ECCF292F332723303105C9F064F464
:101610002130310581F02230310509F043C08DE6DB
:1016200090E02EE832E042C021323105F1F0223262
:10163000310541F137C082E190E02BEF32E036C056
:1016400099278130910541F08230910541F0892B35
:1016500049F5EAE8F2E005C0E2E7F2E002C0EAE5B7
:10166000F2E0849190E09F0121C06430D8F4E62F2D
:10167000F0E0EE0FFF1FEE5DFE4F2081318189E02B
:1016800090E014C0643070F470E0FB01EE0FFF1FB7
:10169000E65EFE4F20813181FB01EA5EFE4F8081D4
:1016A00090E004C080E090E020E030E0FA01318377
:1016B0002083089580E189BD82E189BD09B400FEDF
:1016C000FDCF8091D8008F7D8093D8008091E0007D
:1016D00082608093E0008091E00081FDFCCF08955E
:1016E000CF92DF92EF92FF920F931F93CF93DF93EE
:1016F000EC018B016A010E94D30C811133C0C1142B
:10170000D10439F0F60180819181081B190BC80FB3
:10171000D91FE12CF12C0115110519F18091E80078
:1017200085FD16C08091E8008E778093E800C11493
:10173000D10449F0F60180819181E80EF91EF18211
:10174000E08285E00FC00E94D30C882321F30AC0F9
:1017500089918093F10001501109FFEFEF1AFF0A00
:10176000DACF80E0DF91CF911F910F91FF90EF9042
:10177000DF90CF9008952091FB013091FC01261756
:10178000370748F06115710539F42091E8002E778C
:101790002093E80001C0B90140E061157105A9F18D
:1017A0002091F401222309F443C0253009F442C0FA
:1017B0002091E80023FD40C02091E80022FD32C0C6
:1017C0002091E80020FFE9CF4091F3002091F20042
:1017D00030E0342BFC01CF016115710559F0283040
:1017E000310540F481918093F100615071092F5FC0
:1017F0003F4FF1CF41E02830310509F040E0209122
:10180000E8002E772093E800C8CF4111C9CF0AC065
:101810008091F401882361F0853061F08091E800C7
:1018200083FD0AC08091E80082FFF2CF80E0089536
:1018300082E0089583E0089581E008952091FB01FE
:101840003091FC012617370748F06115710539F40E
:101850002091E8002E772093E80001C0B901FC0137
:1018600020E06115710591F18091F401882309F45C
:1018700040C0853009F43FC08091E80083FD3DC041
:101880008091E80082FD2FC08091E80080FFE9CFC1
:101890002091F3008091F20090E0922B6115710588
:1018A00059F08830910540F424912093F10031964D
:1018B000615071090196F2CF21E0089709F020E00C
:1018C0008091E8008E778093E800CBCF2111CCCFB8
:1018D0000AC08091F401882361F0853061F0809125
:1018E000E80083FD0AC08091E80082FFF2CF80E02B
:1018F000089582E0089583E0089581E00895982F87
:10190000973058F59093E900981739F07091EC00F2
:101910002091ED005091F00003C0242F762F50E06D
:1019200021FF19C03091EB003E7F3093EB003091E6
:10193000ED003D7F3093ED003091EB00316030934E
:10194000EB007093EC002093ED005093F000209199
:10195000EE0027FF07C09F5FD3CF8F708093E90011
:1019600081E0089580E008958091F50187FF11C01E
:101970008091E80082FD05C08091F4018111F8CFCB
:1019800011C08091E8008B770BC08091F40188230F
:1019900049F08091E80080FFF8CF8091E8008E77D1
:1019A0008093E80008952091E4003091E50095E6E9
:1019B0004091EC00842F817040FF22C08091E800AC
:1019C00080FD1CC08091F401882391F0853091F056
:1019D0008091EB0085FD10C04091E4005091E5003E
:1019E0004217530729F39A01915011F784E00895A3
:1019F00082E0089583E0089581E0089580E00895ED
:101A00004091E80042FFDECF08950E94730D0E94CE
:101A10007B0DE0EEF0E0808181608083E8EDF0E016
:101A200080818F77808319BCA7EDB0E08C918E7F89
:101A30008C9380818F7E80831092F30108950F93A1
:101A40001F93CF93DF930E94730D0E947B0DC8ED0F
:101A5000D0E088818F7788838881806888838881B7
:101A60008F7D888319BC1092F4011092F0011092BE
:101A7000F2011092F10100EE10E0F80180818B7FFD
:101A8000808388818160888342E060E080E00E94FA
:101A90007F0CE1EEF0E080818E7F8083E2EEF0E06B
:101AA000808181608083808188608083F80180816B
:101AB0008E7F8083888180618883DF91CF911F91A1
:101AC0000F910895E8EDF0E080818F7E8083E7ED4F
:101AD000F0E080818160808384E082BF81E0809338
:101AE000F3010C941F0DE8EDF0E080818E7F808380
:101AF0001092E20008951092DA001092E100089529
:101B00001F920F920FB60F9211242F933F934F9372
:101B10005F936F937F938F939F93AF93BF93EF9355
:101B2000FF938091E10082FF0BC08091E20082FF71
:101B300007C08091E1008B7F8093E1000E94E70F56
:101B40008091DA0080FF1FC08091D80080FF1BC009
:101B50008091DA008E7F8093DA008091D90080FF37
:101B60000DC080E189BD82E189BD09B400FEFDCFD1
:101B700081E08093F4010E94E60905C019BC10922F
:101B8000F4010E94F4098091E10080FF19C0809166
:101B9000E20080FF15C08091E2008E7F8093E2001A
:101BA0008091E20080618093E2008091D8008062A1
:101BB0008093D80019BC85E08093F4010E94F80955
:101BC0008091E10084FF30C08091E20084FF2CC04E
:101BD00080E189BD82E189BD09B400FEFDCF80911D
:101BE000D8008F7D8093D8008091E1008F7E809314
:101BF000E1008091E2008F7E8093E2008091E2001C
:101C000081608093E2008091F001882311F084E0EC
:101C100007C08091E30087FD02C081E001C083E03E
:101C20008093F4010E94FA098091E10083FF29C0AA
:101C30008091E20083FF25C08091E100877F80933F
:101C4000E10082E08093F4011092F0018091E100C4
:101C50008E7F8093E1008091E2008E7F8093E2008E
:101C60008091E20080618093E20042E060E080E0E9
:101C70000E947F0C8091F00088608093F0000E94A9
:101C8000F709FF91EF91BF91AF919F918F917F9154
:101C90006F915F914F913F912F910F900FBE0F90D9
:101CA0001F9018951F920F920FB60F9211242F9329
:101CB0003F934F935F936F937F938F939F93AF93D4
:101CC000BF93CF93DF93EF93FF93C091E900CF7061
:101CD0008091EC00D82FD17080FDD0E81092E900FF
:101CE0008091F000877F8093F00078940E94960E98
:101CF0001092E9008091F00088608093F000CD2B75
:101D0000CF70C093E900FF91EF91DF91CF91BF9128
:101D1000AF919F918F917F916F915F914F913F9183
:101D20002F910F900FBE0F901F9018951F93CF9378
:101D3000DF93CDB7DEB7AA970FB6F894DEBF0FBE1C
:101D4000CDBFE5EFF1E088E08E0F9091F100919327
:101D50008E13FBCF0E94160A8091E80083FF1FC1FB
:101D60008091F5019091F601492F50E04A305105DC
:101D700008F015C1FA01EA5AFF4F0C94812280380D
:101D800081F0823809F00BC18091F9018F70809346
:101D9000E9008091EB0085FB882780F91092E9002B
:101DA00006C08091F1019091F201911182609091B1
:101DB000E800977F9093E8008093F1001092F10083
:101DC000C8C0282F2D7F09F0EAC0882319F082307F
:101DD00061F0E5C08091F701813009F0E0C09330F7
:101DE00009F080E08093F2012BC08091F70181110E
:101DF00027C08091F9018F7009F4D1C08093E90068
:101E00002091EB0020FF1CC0933021F48091EB0067
:101E1000806214C09091EB0090619093EB0021E000
:101E200030E0A90102C0440F551F8A95E2F74093A4
:101E3000EA001092EA008091EB0088608093EB004A
:101E40001092E9008091E800877F86C08111A7C0C9
:101E50001091F7011F778091E3008078812B8093A8
:101E6000E3008091E800877F8093E8000E94B40C33
:101E70008091E80080FFFCCF8091E3008068809330
:101E8000E300111102C082E001C083E08093F401FD
:101E900086C08058823008F082C08091F70190910E
:101EA000F8018C3D53E0950779F583E08A838AE257
:101EB00089834FB7F894DE01139620E03EE051E2AB
:101EC000E32FF0E050935700E49120FF03C0E29528
:101ED000EF703F5FEF708E2F90E0EA3010F0C79602
:101EE00001C0C0968D939D932F5F243149F74FBF5A
:101EF0008091E800877F8093E8006AE270E0CE017D
:101F000001960E94BB0B14C0AE014F5F5F4F609102
:101F1000F9010E94020BBC01009709F440C09091A6
:101F2000E800977F9093E80089819A810E941E0CB7
:101F30008091E8008B778093E80031C0803879F594
:101F40008091E800877F8093E8008091F001809382
:101F5000F1008091E8008E778093E8000E94B40C35
:101F60001EC081111CC09091F7019230C0F4809185
:101F7000E800877F8093E8009093F0010E94B40C02
:101F80008091F001811106C08091E30087FD02C0BD
:101F900081E001C084E08093F4010E94020A8091F4
:101FA000E80083FF0AC08091E800877F8093E80003
:101FB0008091EB0080628093EB00AA960FB6F894B4
:101FC000DEBF0FBECDBFDF91CF911F910895089561
:101FD000CF938091F4018823A1F0C091E900CF70E4
:101FE0009091EC00892F817090FD80E8C82B1092B1
:101FF000E9008091E80083FD0E94960ECF70C093A7
:10200000E900CF910895909376018093750108952A
:10201000E0917501F0917601309721F00190F08107
:10202000E02D099480E00895E0917501F09176012A
:10203000309721F00280F381E02D09940895E0911A
:102040007501F0917601309721F00480F581E02D43
:1020500009940895209173013091740182179307B8
:1020600071F09093740180937301E0917501F09188
:102070007601309721F00680F781E02D09940895CC
:1020800020917101309172018217930771F0909342
:10209000720180937101E0917501F09176013097A2
:1020A00021F00084F185E02D0994089508950C94A1
:1020B00056100E94AF1B0E94E5020C94351C9F92A3
:1020C000AF92BF92CF92DF92EF92FF920F931F9346
:1020D000CF93DF9300D000D000D0CDB7DEB70E9401
:1020E0000C030DE010E0AA24A394B12C902E802FB5
:1020F0000E94FA03980128583E4F6901F901F080C7
:10210000F826A1F40150110988F78FEF89838A839B
:102110001B820E94B81B8160782F9D838C8349812C
:102120005A816B818D810E94F6102FC09091DB0146
:1021300091FF04C08E830E9400048E8125E030E070
:10214000A501022E01C0440F0A94EAF7E42E4F21A4
:10215000C1F029839A828E2191E009F490E09B835B
:102160000E94B81B8160782F9D838C8349815A819E
:102170006B818D810E94F610F6018081E826E08255
:1021800004C021503109E0F6BDCF0E94031E10911A
:1021900077010E9408101817B9F00E940810809368
:1021A000770126960FB6F894DEBF0FBECDBFDF9144
:1021B000CF911F910F91FF90EF90DF90CF90BF9044
:1021C000AF909F900C94050926960FB6F894DEBF49
:1021D0000FBECDBFDF91CF911F910F91FF90EF9078
:1021E000DF90CF90BF90AF909F900895CF93DF93F3
:1021F000CDB7DEB72B970FB6F894DEBF0FBECDBFBD
:102200004F83588769877A878B87DE01119686E02E
:10221000FD0111928A95E9F785E0FE01379601905C
:102220000D928A95E1F749815A816B817C818D817C
:102230009E810E943F172B960FB6F894DEBF0FBE0B
:10224000CDBFDF91CF910895CF93882309F4C2C009
:10225000C82F823859F40E94081081FDBBC089E361
:102260000E94191A0E94E61A89E30CC0833879F497
:102270000E94081080FDAEC083E50E94191A0E94DA
:10228000E61A83E50E945B1ACF910C94E61A843813
:1022900059F40E94081082FD9DC087E40E94191A1B
:1022A0000E94E61A87E4EECF8CEF8C0F813A48F457
:1022B0008C2F0E944D2081118DC08C2F0E94191AE5
:1022C000E3CF80E28C0F883048F4C77081E001C012
:1022D000880FCA95EAF70E949F1AD6CF8BE58C0F1C
:1022E000833078F4C53A29F0C63A31F083E890E0BB
:1022F00005C081E890E002C082E890E0CF910C94A4
:102300002A1088E58C0F833108F064C0C83A39F18F
:10231000C93A41F1CA3A49F1CB3A51F1CC3A59F1B3
:10232000CD3A61F1C03B69F1CE3A71F1CF3A79F122
:10233000C13B81F1C23B89F1C33B91F1C43B99F1AF
:10234000C53BA1F1C63BA9F1C73BB1F1C83BB9F10F
:10235000C93BC1F1CA3BC9F180E090E038C082EED0
:1023600090E035C089EE90E032C08AEE90E02FC058
:1023700085EB90E02CC086EB90E029C087EB90E0E5
:1023800026C08CEC90E023C08DEC90E020C083E868
:1023900091E01DC08AE891E01AC082E991E017C07F
:1023A00084E991E014C081E292E011C083E292E0FE
:1023B0000EC084E292E00BC085E292E008C086E2A3
:1023C00092E005C087E292E002C08AE292E0CF91FB
:1023D0000C944010CF910895882309F44BC08238A3
:1023E00059F40E94081081FF45C089E30E94191A20
:1023F0000E94E61A89E30CC0833871F40E94081029
:1024000080FF38C083E50E94191A0E94E61A83E50E
:102410000E945B1A0C94E61A843859F40E94081042
:1024200082FF28C087E40E94191A0E94E61A87E4F6
:10243000EFCF9CEF980F913A58F390E2980F9830B5
:1024400050F4877091E001C0990F8A95EAF7892FBF
:102450000E94A51ADFCF9BE5980F933020F480E00F
:1024600090E00C942A10885A833120F480E090E0A8
:102470000C9440100895882321F00E949F1A0C9418
:10248000E61A0895882321F00E94A51A0C94E61AF2
:1024900008957F928F929F92AF92BF92CF92DF92D8
:1024A000EF92FF920F931F93CF93DF931F92CDB7BD
:1024B000DEB77C01C62E772EFC01058102950F70D8
:1024C000128111110E94BC1A0E94121A882379F0FD
:1024D000112369F080E28C0D883048F082E00E9480
:1024E000FB190E94121A91E0D82ED92601C0D12CD6
:1024F000E72DE295EF70F0E0E05AFF4F0C94812257
:10250000872D807F072D0F70882311F00295007FA3
:10251000112389F0002309F490C180E28C0D8830EA
:1025200020F4802F0E949F1A03C0802F0E94AF1AB0
:102530000E94E61A82C18C2D0E94EC11002309F43E
:1025400095C180E28C0D883020F4802F0E94A51A5E
:1025500003C0802F0E94B51A0E94E61A87C1972DEA
:10256000907F872D8F70903211F08295807FCC20E4
:1025700021F0F1E0CF16B1F01EC0112349F0002385
:1025800009F414C1013009F011C10E94CF1A6EC1C3
:10259000002319F0013009F469C189830E94D21A1D
:1025A00089810AC1112321F0023008F05FC1FEC009
:1025B00001115CC101C1112321F0002309F4F6C00F
:1025C0003CC1002309F4F8C03EC1872D869586954D
:1025D000837090E0009719F0019761F047C11123D3
:1025E00021F08C2D972D937002C080E090E00E9426
:1025F0002A103CC1112321F08C2D972D937002C01D
:1026000080E090E00E94401031C18C2D112319F020
:102610000E940B1D02C00E94731D0E94F81D26C15E
:10262000872D837009F052C0111120C18C2D829525
:1026300086958770880F880F9C2D9F70892E912C0E
:10264000A12CB12C082E04C0880C991CAA1CBB1C00
:102650000A94D2F7C4FE14C00FE010E020E030E08E
:10266000B901A80104C0440F551F661F771F8A9542
:10267000D2F7CB01BA01609570958095909503C013
:1026800060E070E0CB01272D26952695237030E081
:102690002230310569F02330310589F06829792924
:1026A0008A299B292130310571F00E948718DEC0EC
:1026B000682979298A299B290E94A318D7C00E94DA
:1026C0008718C501B4010E946B18D0C0112319F0FE
:1026D000872D817001C08695882309F4C7C08C2D91
:1026E000829586958770880F880F9C2D9F70892E04
:1026F000912CA12CB12C082E04C0880C991CAA1C6A
:10270000BB1C0A94D2F7C4FE14C00FE010E020E016
:1027100030E0B901A80104C0440F551F661F771FA0
:102720008A95D2F7CB01BA01609570958095909506
:1027300003C060E070E0CB01272D2695269523701D
:10274000422F50E04230510569F04330510589F085
:10275000682979298A299B294130510571F00E9405
:10276000611984C0682979298A299B290E947D19C9
:102770007DC00E946119C501B4010E94451976C04F
:102780008C2D90E0FC01E05EF109E531F10508F0E7
:1027900050C0E059FF4F0C9481220C2D0F70872DF3
:1027A0008F71112331F00E94DE18802F0E943B129E
:1027B0005DC00E94FF18802F0E94421257C0112353
:1027C00039F0011153C0872D8F710E9424194EC01A
:1027D000023008F04BC0F7CF112339F0872D8F71ED
:1027E0000E94DE1843C01123C9F3872D8F710E9408
:1027F000FF183CC0112329F0872D8F710E94C91842
:1028000035C00E94BF1832C0112351F0172D1F711F
:10281000812F0E94DE1863E0812F0E94F21926C0EA
:1028200081E00E94FB19023008F182E00E94FB194E
:102830001DC0112331F0002389F28C2D0E94241138
:1028400015C0002391F28C2D0E94EC110FC0472D72
:102850004F706C2DC7010E94D6040E94E31706C07A
:10286000472D4F706C2DC7010E947408DD20F9F0D0
:102870000E94EE1980FD1BC0F70112820E94E81928
:102880000E94DE18C7010E9466140E94E8190F908A
:10289000DF91CF911F910F91FF90EF90DF90CF903C
:1028A000BF90AF909F908F907F900C94FF180F90E7
:1028B000DF91CF911F910F91FF90EF90DF90CF901C
:1028C000BF90AF909F908F907F9008950F931F932C
:1028D000CF93DF93EC01888199812B813C81232B5D
:1028E000B9F09F3F11F48F3F99F0CE010E9405058A
:1028F000882371F0688179818A810E94E4198C01B2
:102900000E9499190E946018B801CE010E944912D4
:10291000DF91CF911F910F9108950E94BC1A0E94E0
:10292000CC1A0E94911A0E94E61A0E94A91E0E94C7
:10293000F81D80E090E00E942A1080E090E00C9466
:1029400040100E94AC1A0C948D140E94D919292FA2
:1029500022952F7030E02C3031054CF42A303105AF
:102960006CF42250310922303105A8F407C02C3014
:10297000310569F02F30310551F00DC0803F69F00D
:1029800018F4803E40F409C0843F29F406C093FB4C
:10299000882780F9089580E0089581E00895CF9315
:1029A000DF9300D000D01F92CDB7DEB70F900F900D
:1029B0000F900F900F90DF91CF910895CF93DF93F9
:1029C00000D000D000D0CDB7DEB726960FB6F89471
:1029D000DEBF0FBECDBFDF91CF9108951F93CF9380
:1029E000DF93C091860116E080918701C81799F0A6
:1029F000D0E01C9FF0011D9FF00D1124E857FE4F01
:102A00004081518162817381848195810E94DE14AD
:102A10002196C770E9CFDF91CF911F910895409122
:102A2000B8015091B9016091BA017091BB018091D8
:102A3000BC019091BD010C94DE148091BD01829582
:102A40008F7009F054C08091BA01882309F44FC0F7
:102A500080918601A09187016091B8017091B901C0
:102A60004091BB015091BC01B6E08A1709F43FC008
:102A700090E041155105C1F17F3F11F46F3FA1F185
:102A8000B89FF001B99FF00D1124E857FE4F218146
:102A900072132AC02081621327C02281211124C011
:102AA000238134812417350710F421503109241B68
:102AB000350B283C3105C0F42091BD012F702061F9
:102AC0002093BD0126E0289FF001299FF00D1124DD
:102AD000E357FE4F80818F708061808388EB91E0A7
:102AE0000E9466140C94EE1401968770BECF089570
:102AF000CF92DF92EF92FF920F931F93CF93DF93CA
:102B0000CDB7DEB762970FB6F894DEBF0FBECDBF6C
:102B10008C0185E0F801DE011D9601900D928A95E9
:102B2000E1F7D8014C9111965C91119712966C9136
:102B300012971396CD90DC9014973091B801709154
:102B4000B9018091BB019091BC01009709F46BC160
:102B50007F3F19F43F3F09F466C1E090BA01EE20CF
:102B600009F4C0C02091BD01C816D90628F0F601AD
:102B7000E81BF90BCF0104C0809590958C0D9D1D2D
:102B8000FF24F394883C910578F0F12C207F09F024
:102B9000C6C07C2DD98AC88A89890E94CF1488EB47
:102BA00091E00E946614B1C0822F807F09F046C078
:102BB000751314C0341312C0611110C02F7020613E
:102BC0002093BD010E940F1588EB91E00E946614CE
:102BD0008091BD01D80115968C932EC0CD2819F196
:102BE0005F3F11F44F3FF9F0F62E61111CC0809148
:102BF00086012091870136E0821709F45AC090E0DF
:102C0000389FF001399FF00D1124E857FE4F718174
:102C1000571306C07081471303C07281711103C03E
:102C200001968770E9CFF62E662309F418C18091CA
:102C3000BD0181608093BD01F12C11C1751308C0E5
:102C4000341306C0611104C08091BD01D801C3C016
:102C50004D875E878D859E856A8B0E94A5146A8943
:102C60008823E1F16623D1F12091BD01822F829565
:102C70008F7090E0029774F08091B8019091B90143
:102C800098878F831986DB86CA862C87CE010796A4
:102C90000E94661486E0F801A8EBB1E001900D9265
:102CA0008A95E1F70E941D150E940F15FF24F394E9
:102CB000D6C04D875E878D859E850E94D919292FA4
:102CC00022952F7030E0223031050CF0BCC09F708F
:102CD00009F0B6C0805E883008F4C1C0C8010E9407
:102CE0006614E4CFC816D90608F453C0F601E81BF1
:102CF000F90BCF01883C910508F450C0F12C7C2DD4
:102D0000D98AC88A89890E94CF14E8EBF1E086E06D
:102D1000DF011D928A95E9F70E940F15A0C0751377
:102D200014C0341312C0611110C08091BD01F801AC
:102D30008583C8010E94661486E0E8EBF1E0DF01BC
:102D40001D928A95E9F7FE2C8AC04D875E878D8596
:102D50009E856A8B0E94A5146A89882309F4BECFD8
:102D6000662309F4BBCF2091BD01822F82958F701D
:102D700090E002970CF48ECF8091B8019091B90148
:102D80009A8389831B82DD82CC822E83CE010196B9
:102D90007FCF809590958C0D9D1DACCFF62E662330
:102DA00009F49CCF75132EC034132CC02091BD01A3
:102DB00020FD1FC0822F82958F70D9F0D801159603
:102DC0002C9315978F3049F08F5F982F9295907FB5
:102DD000822F8F70892B15968C93C8010E946614E0
:102DE00086E0F801A8EBB1E001900D928A95E1F739
:102DF00093CF86E0F801A8EBB1E001900D928A959F
:102E0000E1F72DC04D875E878D859E850E94A514B4
:102E1000811140CF8091BD0181608093BD01C801C7
:102E20000E9466141CC0662309F458CF4D875E8744
:102E30008D859E850E94A514882309F44FCF2ACF43
:102E4000811148CF0CC0243031050CF047CF9F7062
:102E500009F440CFF8019581907F09F03BCF8F2D89
:102E600062960FB6F894DEBF0FBECDBFDF91CF9153
:102E70001F910F91FF90EF90DF90CF9008951F93D7
:102E8000CF93DF93CDB7DEB72C970FB6F894DEBFA4
:102E90000FBECDBF4F83588769877A878B879C8702
:102EA000CE0107960E947815882369F08F81988556
:102EB0002A853B85232BF1F19F3F09F063C08F3FAB
:102EC00009F060C037C086E0FE013796DE0111963A
:102ED00001900D928A95E1F76F817885EA85FB85EF
:102EE000309741F17F3F11F46F3F21F1209187012D
:102EF00030E0C9010196877099274091860150E022
:102F00008417950709F447C069837A83FD83EC83AE
:102F100096E0929FD001939FB00D1124A857BE4F09
:102F2000FE01319601900D929A95E1F78093870109
:102F30000E94EE1416E08091860190918701891716
:102F4000C1F1189FC001112488579E4F0E94781527
:102F5000882379F1E09186011E9FF0011124E85742
:102F6000FE4F4081518162817381848195810E94ED
:102F7000DE148091860190E00196877099278093F6
:102F80008601D9CF4F81588569857A858B859C8547
:102F90000E94DE14CFCF0E94A114109287011092DC
:102FA0008601E8EBF1E086E0DF011D928A95E9F702
:102FB000C1CF2C960FB6F894DEBF0FBECDBFDF9108
:102FC000CF911F910895EF92FF920F931F93CF938C
:102FD000DF938C01009709F46CC0F12CEE24E3948C
:102FE000E8012196F8018491843740F4843008F098
:102FF00051C0813081F0823019F15BC0853709F40E
:1030000044C0A8F19CE7980F903708F052C08F7722
:103010000E94EC1141C00E5F1F4FFE01C49180E27F
:103020008C0F883048F4C7708E2D01C0880FCA9568
:10303000EAF70E94BF1A14C08C2F0E9424112DC0E1
:103040000E5F1F4FFE01C49180E28C0F883058F450
:10305000C7708E2D01C0880FCA95EAF70E94C51A65
:103060000E94E61A1AC08C2F0E94EC1116C00E5F47
:103070001F4FFE01C491CC2381F08FE99FE001979F
:10308000F1F700C00000C150F6CF0E5F1F4FFE01E8
:10309000F49003C00E9424118E018F2D882309F41F
:1030A0009FCFEFE9FFE03197F1F700C000008150BA
:1030B000F5CFDF91CF911F910F91FF90EF90089581
:1030C00008956093C2017093C3018093C4019093EB
:1030D000C5010C948D140F931F930091C2011091A0
:1030E000C3012091C4013091C501DC01CB01802BCB
:1030F000912BA22BB32B8093C2019093C301A09379
:10310000C401B093C5011F910F910C948D140F93BE
:103110001F930091C2011091C3012091C40130910D
:10312000C501DC01CB0180239123A223B32380932B
:10313000C2019093C301A093C401B093C5011F9134
:103140000F910C948D140F931F930091C201109155
:10315000C3012091C4013091C501DC01CB0180275E
:103160009127A227B3278093C2019093C301A09314
:10317000C401B093C5011F910F910C948D1410924E
:10318000BE011092BF011092C0011092C1010C94B7
:103190008D1441E050E060E070E004C0440F551F22
:1031A000661F771F8A95D2F74093BE015093BF01E7
:1031B0006093C0017093C1010C948D1441E050E004
:1031C00060E070E004C0440F551F661F771F8A95AA
:1031D000D2F78091BE019091BF01A091C001B09142
:1031E000C101482B592B6A2B7B2B4093BE01509376
:1031F000BF016093C0017093C1010C948D1441E034
:1032000050E060E070E004C0440F551F661F771F58
:103210008A95D2F740955095609570958091BE0142
:103220009091BF01A091C001B091C10148235923E1
:103230006A237B234093BE015093BF016093C0017A
:103240007093C1010C948D1441E050E060E070E097
:1032500004C0440F551F661F771F8A95D2F78091CF
:10326000BE019091BF01A091C001B091C10148275A
:1032700059276A277B274093BE015093BF01609373
:10328000C0017093C1010C948D140F931F93009192
:10329000BE011091BF012091C0013091C101DC013C
:1032A000CB01802B912BA22BB32B8093BE0190934B
:1032B000BF01A093C001B093C1011F910F910C9465
:1032C0008D140F931F930091BE011091BF012091A7
:1032D000C0013091C101DC01CB0180239123A223E5
:1032E000B3238093BE019093BF01A093C001B0931C
:1032F000C1011F910F910C948D140F931F93009196
:10330000BE011091BF012091C0013091C101DC01CB
:10331000CB0180279127A227B3278093BE019093EA
:10332000BF01A093C001B093C1011F910F910C94F4
:103330008D140895CF92DF92EF92FF920F931F9317
:10334000CF93DF938C01C090C201D090C301E09075
:10335000C401F090C5018091BE019091BF01A09180
:10336000C001B091C101C82AD92AEA2AFB2ACFE1BB
:10337000D0E0D701C6010C2E04C0B695A79597954D
:1033800087950A94D2F780FF06C0B8018C2F0E945F
:10339000F306019721F4219760F780E001C08C2F9C
:1033A000DF91CF911F910F91FF90EF90DF90CF9021
:1033B0000895CF93DF93EC010E949A19BE010E94F9
:1033C000F306DF91CF910895CB010E94D91908959A
:1033D0008091C60185958595859508958091C60152
:1033E0008770089598E0899F90011124262B2093DF
:1033F000C6010C94DE182091C6018095822380932B
:10340000C601982F977069F430E0482F552747FD83
:1034100050952417350729F08595859585950C9449
:10342000FF1808959091C601977081E009F480E03B
:10343000089590910C01992321F090910D01911123
:1034400009C020910E0130910F01F90132969FEFD2
:1034500040E01FC0982F9695969596959F3050F511
:10346000E0910E01F0910F01E90FF11D877021E04D
:1034700030E0A90102C0440F551F8A95E2F7CA0146
:103480009181892B818308959F3F39F04F5F4E30A2
:1034900041F051915813F8CF0DC05111F7CF942F2F
:1034A000F5CF9F3F39F0F901E90FF11D97FDFA952E
:1034B00082830895089590910C01992321F09091B1
:1034C0000D01911109C020910E0130910F01F901F8
:1034D0003296205F3F4F1FC0982F969596959695F0
:1034E0009F30F0F4E0910E01F0910F01E90FF11D12
:1034F000877021E030E0A90102C0440F551F8A9572
:10350000E2F7CA01809591818923818308953196DC
:10351000E217F30729F090819813F9CF1082F7CFC3
:10352000089581E090E0E0910E01F0910F01E80F25
:10353000F91F1082019680319105A9F708959091A5
:10354000DA01892B8093DA01089580959091DA0150
:1035500089238093DA0108951092DA0108959091F9
:10356000D901892B8093D901089580959091D90133
:1035700089238093D90108951092D90108959091DB
:10358000D801892B8093D801089580959091D80116
:1035900089238093D80108951092D80108958093CB
:1035A000C70108951092C701089580910E0190916E
:1035B0000F01FC0131969C01205F3F4F80E091910B
:1035C00091118F5FE217F307D1F70895E0910E0193
:1035D000F0910F018091DA018083E0910E01F0916A
:1035E0000F0190818091D901892B8083E0910E0198
:1035F000F0910F0190818091D801892B8083809177
:10360000C701882361F0E0910E01F0910F019081D4
:10361000892B80830E94D51A81111092C701809155
:103620000E0190910F010C94141020E0009739F0D6
:10363000AC0141505109842395232F5FF7CF822F8E
:103640000895CF92DF92EF92FF926C01EE24FF2457
:10365000C114D104E104F10421F0C701B60120E155
:1036600001C020E0C72ED82EE92EFF24C114D104BA
:10367000E104F10419F0285FC701B6016B017C0178
:1036800054E0F694E794D794C7945A95D1F7C114AF
:10369000D104E104F10419F02C5FC701B6016B01FC
:1036A0007C0142E0F694E794D794C7944A95D1F709
:1036B000C114D104E104F10419F02E5FC701B60171
:1036C000DC01CB01B695A79597958795892B8A2B19
:1036D0008B2B09F02F5F822FFF90EF90DF90CF9020
:1036E00008958091F401843021F11092DC0120E4EE
:1036F00088E190E00FB6F894A895809360000FBE23
:103700002093600080E00E94050983B7817F846078
:1037100083BF83B7816083BF7894889583B78E7F9A
:1037200083BF88E10FB6F894809360001092600028
:103730000FBE089508950E94F9020E940C030E9492
:103740009A1B0E94010491E0811101C090E0892F31
:1037500008950E94A1140E9408100C94050982E0AB
:1037600084BD93E095BD9AEF97BD80936E00089558
:103770002FB7F8948091DD019091DE01A091DF01D7
:10378000B091E0012FBF0895CF92DF92EF92FF92A8
:103790000F931F932FB7F8944091DD015091DE01F4
:1037A0006091DF017091E0012FBF6A017B01EE247F
:1037B000FF248C0120E030E0C016D106E206F306BB
:1037C00010F4415051099A01281B390BC9011F916E
:1037D0000F91FF90EF90DF90CF9008951F920F927E
:1037E0000FB60F9211248F939F93AF93BF93809145
:1037F000DD019091DE01A091DF01B091E001019621
:10380000A11DB11D8093DD019093DE01A093DF0126
:10381000B093E001BF91AF919F918F910F900FBE38
:103820000F901F9018950E94050DF8942FEF87EACE
:1038300091E6215080409040E1F700C0000087E011
:1038400090EBDC018093FD019093FE01A093FF01BA
:10385000B09300029CE088E10FB6F894A89580939D
:1038600060000FBE90936000FFCF0E946D1C81111D
:1038700002C00E94531C0E94781C8093DB010E94AE
:10388000801C90E09093EF018093EE0187FB8827E6
:1038900080F980930D010E947C1C682F70E080E00D
:1038A00090E00C9461186DEE7EEF80E090E00E9455
:1038B000BB2260E082E090E00E94A92260E083E009
:1038C00090E00E94A92260E084E090E00E94A9229A
:1038D00060E085E090E00C94A92280E090E00E94F6
:1038E000A32221E08D3E9E4F09F020E0822F089513
:1038F00082E090E00C949B2283E090E00C949B2269
:1039000084E090E00C949B22682F84E090E00C947B
:10391000A9228091E30180FF0BC06091130185E033
:10392000689FB001112475956795759567952BC0B3
:1039300081FF09C06091130185E0689FB0011124E7
:103940007595679520C082FF07C06091130185E0DF
:10395000689FB001112417C09091E4019923D1F020
:1039600060911201961788F72091130185E0289F36
:1039700090011124929FA001939F500D112470E09B
:10398000CA010E946D226038710540F4611571050D
:1039900039F002C065E070E0862F08958FE7089542
:1039A00081E008958091E30180FF08C060911101DA
:1039B00070E0759567957595679521C081FF06C084
:1039C0006091110170E07595679519C082FF04C080
:1039D0006091110170E010C09091E4019923C1F051
:1039E000609110019617A0F780911101899FC00185
:1039F000112470E00E946D226038710528F4611571
:103A0000710521F0862F08958FE7089581E00895CC
:103A100061E070E0F4CF803F21F40E94891C819521
:103A200004C0813F29F40E94891C8093E701089516
:103A3000823F21F40E94891C819504C0833F29F4B0
:103A40000E94891C8093E6010895893F19F40E9421
:103A5000D21C05C08A3F31F40E94D21C819580930C
:103A6000E80108958B3F21F40E94D21C819504C087
:103A70008C3F29F40E94D21C8093E9010895843F71
:103A800021F48091E501816017C0853F21F4809188
:103A9000E501826011C0863F21F48091E5018460D8
:103AA0000BC0873F21F48091E501886005C0883F05
:103AB00031F48091E50180618093E50108958D3FA7
:103AC00021F48091E30181600BC08E3F21F480914D
:103AD000E301826005C08F3F29F48091E301846097
:103AE0008093E3010895803F39F48091E70187FFD7
:103AF0006CC01092E70169C0813F29F48091E70111
:103B00001816BCF362C09091E601823F29F497FF3A
:103B10005CC01092E60159C0833F19F41916CCF32A
:103B200054C0893F41F48091E80118160CF04DC053
:103B30001092E8014AC08A3F29F48091E80187FF8A
:103B400044C0F6CF8B3F39F48091E90187FF3DC037
:103B50001092E9013AC08C3F29F48091E9011816CE
:103B6000BCF333C0843F21F48091E5018E7F17C000
:103B7000853F21F48091E5018D7F11C0863F21F4BE
:103B80008091E5018B7F0BC0873F21F48091E50197
:103B9000877F05C0883F31F48091E5018F7E809357
:103BA000E50113C08D3F21F48091E3018E7F0BC0AE
:103BB0008E3F21F48091E3018D7F05C08F3F29F472
:103BC0008091E3018B7F8093E3018091E601811175
:103BD0000EC08091E70181110AC08091E801811136
:103BE00006C08091E901811102C01092E40108959C
:103BF00085EE91E00E941F100E94B81B9093E20195
:103C00008093E10108951F93CF93DF938091E101A9
:103C10009091E2010E94C41BAC019091E4019923B0
:103C200021F02091140130E006C0209115018AE0B6
:103C3000289F900111244217530708F486C08091F1
:103C4000E601C091E701D091E8011091E9018111ED
:103C500007C0C11176C0D11174C0111172C075C0F6
:103C60009F3F19F09F5F9093E401181624F40E947F
:103C7000891C8093E6018091E60187FF05C00E94C0
:103C8000891C81958093E6011C1624F40E94891CEE
:103C90008093E7018091E70187FF05C00E94891C9E
:103CA00081958093E7016091E601662339F1C09127
:103CB000E701CC2319F1772767FD7095872F972FA0
:103CC0000E947E2123E333E343E35FE30E94E2218A
:103CD0000E944B216093E6016C2F772767FD70955A
:103CE000872F972F0E947E2123E333E343E35FE393
:103CF0000E94E2210E944B216093E7011D1624F4EB
:103D00000E94D21C8093E8018091E80187FF05C0E2
:103D10000E94D21C81958093E801111624F40E9420
:103D2000D21C8093E9018091E90187FF05C00E94C0
:103D3000D21C81958093E901DF91CF911F910C9462
:103D4000F81D9F3F09F08ECF96CFDF91CF911F9145
:103D50000895E5EEF1E085E0DF011D928A95E9F72F
:103D60001092E4011092E3010895833081F128F468
:103D7000813059F08230D1F00895853009F449C07E
:103D8000B8F1863009F456C0089580911501262FA8
:103D900030E0280F311D2F3F310524F4680F609368
:103DA000150108958FEF80931501089580911401F6
:103DB000262F30E0280F311D2F3F310524F4680FE6
:103DC0006093140108958FEF8093140108958091FA
:103DD0001301262F30E0280F311D2F3F310524F429
:103DE000680F6093130108958FEF80931301089576
:103DF00080911201262F30E0280F311D2F3F310511
:103E000024F4680F6093120108958FEF80931201DC
:103E1000089580911101262F30E0280F311D2F3F8A
:103E2000310524F4680F6093110108958FEF80939A
:103E30001101089580911001262F30E0280F311DC7
:103E40002F3F310524F4680F6093100108958FEF20
:103E5000809310010895833011F128F4813049F0E6
:103E6000823091F00895853081F120F18630C1F1E2
:103E7000089580911501681720F4861B8093150121
:103E8000089510921501089580911401681720F487
:103E9000861B809314010895109214010895809157
:103EA0001301681720F4861B809313010895109264
:103EB0001301089580911201681720F4861B8093E6
:103EC000120108951092120108958091110168174E
:103ED00020F4861B8093110108951092110108951A
:103EE00080911001681720F4861B809310010895BB
:103EF0001092100108950F931F938D3109F471C032
:103F000008F045C0803109F485C008F5873009F410
:103F10006FC068F4863009F0ADC08091DB01817F0D
:103F20008E7F8093DB0181E08093EB01A4C08B3016
:103F300009F49EC08E3009F09DC08091DB0182FBA8
:103F4000222720F991E0922790FB82F96CC08631FC
:103F500009F48EC060F4813109F08CC00E94A11474
:103F600090910D0181E0892780930D0181C08931F5
:103F700009F47EC08B3109F07DC08091DB0181FBAB
:103F8000222720F991E0922790FB81F94CC08533DC
:103F900009F466C048F4873209F462C008F44FC0DF
:103FA000893209F45DC066C0833438F48A3308F07E
:103FB00044C0883309F45CC05DC0833409F450C048
:103FC000883409F057C00E94A1140FEF13ED20E3CD
:103FD000015010402040E1F700C000000E94131C77
:103FE00047C00E9405210E9408100E94050940C098
:103FF0009091DB01892F8095817080FB90F929F0E9
:10400000966098609093DB0136C0997F977F90937C
:10401000DB012EC08091DB0183FB222720F991E098
:10402000922790FB83F98093DB01992309F180911A
:10403000DB0181608093DB011BC0895301C08D517E
:1040400041E050E060E070E08A019B0104C0000F95
:10405000111F221F331F8A95D2F7C901B80104C06E
:1040600061E070E080E090E00E9461180E94A1147D
:1040700081E001C080E01F910F91089580E00895D4
:1040800080E008958E518A3030F4E82FF0E0E65D4C
:10409000FE4F8081089580E00895CF93C82F8091CE
:1040A000EB01813079F018F08230E9F186C0E091BF
:1040B0000E01F0910F018081813169F0823209F0A7
:1040C0007EC009C0E0910E01F0910F018081813125
:1040D00011F0823261F48C2F0E943E20811104C0C5
:1040E0008C2F0E947B1F1DC081E090E01AC08C2F96
:1040F0000E944020811114C0C43179F048F4CB30C3
:1041000079F0C03109F05FC082E08093EB0108C014
:10411000C93219F0C83321F056C01092EB0153C0D8
:1041200081E0817052C0C93281F110F5C43169F16A
:10413000A8F4C73009F045C08AE08093150194E1E6
:104140009093140193E0909313018093120188E0FF
:104150008093110188E28093100133C082EE8C0FAE
:10416000863078F58C2F0E9442208093EA0129C086
:10417000CE34E9F020F4CB3421F56AE013C0C13528
:1041800079F0C235F1F461E00DC08091EA01882335
:1041900019F01092EA0115C081E08093EB0115C07F
:1041A00061E006C08091EA010E94B51E0AC06AE083
:1041B0008091EA010E942B1F04C01092EB0180E065
:1041C00004C081E002C080E0ACCFCF910895E1E867
:1041D000F0E08081886080838081816080838FB7F8
:1041E000F89493E09093890090ED909388008FBFAE
:1041F0000895EFE6F0E08081826080830895EFE625
:10420000F0E080818D7F80830895EFE6F0E090817B
:1042100082E08927808308951F920F920FB60F9234
:1042200011242F933F934F935F936F937F938F93BB
:104230009F93AF93BF93EF93FF938091EC01909185
:10424000ED0101969093ED018093EC01811103C083
:1042500082E00E940509E091ED01E695E695F0E027
:10426000E75FFB4FE4918091EC018E1303C080E087
:104270000E940509FF91EF91BF91AF919F918F919E
:104280007F916F915F914F913F912F910F900FBE52
:104290000F901F90189504D06894B1118DC00895A7
:1042A00070D088F09F5790F0B92F9927B751A0F0A0
:1042B000D1F0660F771F881F991F1AF0BA95C9F7BA
:1042C00012C0B13081F077D0B1E0089574C0672F8B
:1042D000782F8827B85F39F0B93FCCF3869577956A
:1042E0006795B395D9F73EF4909580957095619553
:1042F0007F4F8F4F9F4F0895E89409C097FB3EF47E
:1043000090958095709561957F4F8F4F9F4F992322
:10431000A9F0F92F96E9BB279395F69587957795A0
:104320006795B795F111F8CFFAF4BB0F11F460FF60
:104330001BC06F5F7F4F8F4F9F4F16C0882311F0B8
:1043400096E911C0772321F09EE8872F762F05C0CC
:10435000662371F096E8862F70E060E02AF09A9567
:10436000660F771F881FDAF7880F9695879597F95C
:10437000089557FD9058440F551F59F05F3F71F055
:104380004795880F97FB991F61F09F3F79F08795BC
:104390000895121613061406551FF2CF4695F1DF45
:1043A00008C0161617061806991FF1CF86957105D5
:1043B000610508940895E894BB2766277727CB0109
:1043C00097F908950BD078C069D028F06ED018F016
:1043D000952309F05AC05FC01124EECFCADFA0F3C5
:1043E000959FD1F3950F50E0551F629FF001729F8A
:1043F000BB27F00DB11D639FAA27F00DB11DAA1FA9
:10440000649F6627B00DA11D661F829F2227B00DF5
:10441000A11D621F739FB00DA11D621F839FA00D80
:10442000611D221F749F3327A00D611D231F849FD0
:10443000600D211D822F762F6A2F11249F57504027
:104440008AF0E1F088234AF0EE0FFF1FBB1F661FC2
:10445000771F881F91505040A9F79E3F510570F07B
:1044600014C0AACF5F3FECF3983EDCF386957795B6
:104470006795B795F795E7959F5FC1F7FE2B880F76
:10448000911D9695879597F9089597F99F6780E80C
:1044900070E060E008959FEF80EC089500240A9496
:1044A0001616170618060906089500240A9412160F
:1044B0001306140605060895092E0394000C11F442
:1044C000882352F0BB0F40F4BF2B11F460FF04C0EF
:1044D0006F5F7F4F8F4F9F4F089597FB072E16F406
:1044E000009407D077FD09D00E94872207FC05D0F1
:1044F0003EF4909581959F4F0895709561957F4FFB
:104500000895EE0FFF1F0590F491E02D0994AA1B6A
:10451000BB1B51E107C0AA1FBB1FA617B70710F0AE
:10452000A61BB70B881F991F5A95A9F780959095E0
:10453000BC01CD010895F999FECF92BD81BDF89AD5
:10454000992780B50895A8E1B0E042E050E00C94CE
:10455000C322262FF999FECF92BD81BDF89A01970B
:1045600000B4021639F01FBA20BD0FB6F894FA9ABB
:10457000F99A0FBE08950196272F0E94AA220C9443
:10458000A922DC01CB01FC01F999FECF06C0F2BDE6
:10459000E1BDF89A319600B40D9241505040B8F701
:0645A0000895F894FFCF1E
:1045A60002200709950972093E090A090101C80195
:1045B60028080A03140A404D3639C9037C0346030A
:1045C6000D03A002B902D202EB02010203040506A2
:0445D60007080900C9
:00000001FF
