:100000000C947A020C94BE020C94BE020C94BE02B4
:100010000C94BE020C94BE020C94BE020C94BE0260
:100020000C94BE020C94BE020C94E60D0C94B80E17
:100030000C94BE020C94BE020C94BE020C94BE0240
:100040000C94BE020C94C2220C94BE020C94BE020C
:100050000C94BE020C94551C0C94BE020C94BE026F
:100060000C94BE020C94BE020C94BE020C94BE0210
:100070000C94BE020C94BE020C94BE020C94BE0200
:100080000C94BE020C94BE020C94BE020C94BE02F0
:100090000C94BE020C94BE020C94BE020C94BE02E0
:1000A0000C94BE020C94BE020C94BE02250F470FA6
:1000B0003510470F35108C0FAF0F35100410171087
:1000C000E612E612151315134B136B139C149C14B4
:1000D00076139C14261426148D149C149C149614C8
:1000E00033143314331433143314331433143314D8
:1000F00033143314331433143314331433143314C8
:1001000045145214591460146A140000F0A135000B
:100110003A4129710030023000001E00370004000F
:1001200038004A003C761F003600120014004E00D2
:100130002B002000330008000D004B002800210098
:10014000130018000E004D003D7522001C000C002D
:100150001B0000003E7D64004C770000E3000000BF
:100160003F412E00C1000000E60000004041230096
:100170000900070005000000417D24000A00150069
:100180001000500044752500060017001A005100A9
:100190002C0026000B001100190052002A00270035
:1001A0000F0016001D004F0045762D00307F347182
:1001B000013003300000000001000000043016018F
:1001C00000003A006400000000001D0102543B00E2
:1001D0006402F20000001B01F5003C00F000F10099
:1001E00000000601F4003D000000F30000001901CA
:1001F00000003E0000000000000000000000A6001B
:1002000000000000000000000100A5000100000047
:100210004600000001003F00000000000000000058
:10022000AE004000240021001E000000A900410093
:10023000250022001F003700AB00420026002300EB
:1002400020002700AC004300550057005400670011
:10025000AA0044002F00310000000000000035001B
:10026000010029710030023000001E00140004005B
:100270001D004A0001001F001A0016001B004E005E
:100280002B0020000800070006004B00280021007A
:100290001500090019004D003D75220017000A00E5
:1002A000050000003E7D64004C770000E300000084
:1002B00001002E0001000000E60000000100230004
:1002C0001C000B0011000000417D240018000D00EF
:1002D00010005000447525000C000E00360051003F
:1002E0002C00260012000F00370052002A002700C1
:1002F0001300330038004F0045762D00307F3471F5
:1003000001300330000016034500720067006F00E3
:1003100044006F007800200045005A0000001603DA
:100320004500720067006F0044006F0078002000F5
:1003300045005A0000000403090409026D0004018D
:1003400000A0FA09040000010301010009211101C4
:100350000001223F000705810308000A090401008B
:100360000103010200092111010001224D000705CE
:10037000820308000A0904020001030000000921A9
:10038000110100012236000705830308000A090451
:1003900003000103000000092111010001223900BE
:1003A000070584031000011201100100000008ED90
:1003B000FE071301000102000105010906A1010564
:1003C0000719E029E7150025019508750181020547
:1003D000081901290595057501910295017503918B
:1003E0000105071900297715002501957875018108
:1003F00002C005010980A101850216010026B7008F
:100400001A01002AB700751095018100C0050C097A
:1004100001A1018503160100269C021A01002A9CF5
:1004200002751095018100C005010902A1010901B1
:10043000A10005091901290515002501950575017A
:10044000810295017503810105010930093115818A
:10045000257F95027508810609381581257F95014C
:1004600075088106050C0A38021581257F950175EE
:10047000088106C0C005010906A101050719E02988
:10048000E715002501950875018102950175088120
:100490000105081901290595057501910295017558
:1004A0000391010507190029FF150025FF95067521
:1004B000088100C0000000000000000000000001F2
:1004C0000204060A0F17202C3A4A5D71879DB3C7B4
:1004D000DAE9F5FCFFFCF5E9DAC7B39D87715D4AFF
:1004E0003A2C20170F0A0604020100000000000049
:1004F0000000000011241FBECFEFDAE0DEBFCDBF49
:1005000004B603FE24C08091FD019091FE01A091EC
:10051000FF01B09100028730904BA740B04BB9F477
:100520001092FD011092FE011092FF011092000244
:1005300014BE84B7877F84BF88E10FB6F894809398
:100540006000109260000FBEE0E0FFE3099511E04B
:10055000A0E0B1E0E2E1F9E402C005900D92A4331D
:10056000B107D9F711E0A4E3B1E001C01D92AD3F9E
:10057000B107E1F70E942A0B0C9487240C94000029
:100580001092B9008AE08093B800089594EA90939D
:10059000BC009091BC0097FFFCCF9091B900987F70
:1005A000983021F0903111F081E008958093BB00E4
:1005B00084E88093BC008091BC0087FFFCCF8091D1
:1005C000B900887F883111F0803471F780E0089598
:1005D00084E98093BC008091BC0084FDFCCF089529
:1005E0008093BB0084E88093BC008091BC0087FFAF
:1005F000FCCF9091B900987F81E0983209F480E0B7
:10060000089584E88093BC008091BC0087FFFCCFF4
:100610008091BB00089580910101811115C080E493
:100620000E94C6028093010181110CC082E10E94E8
:10063000F00280930101811105C08FEF0E94F0024A
:10064000809301010E94E80284B1807F84B985B162
:10065000807F85B98AB1837F8AB98BB1837F8BB95B
:100660003E98469808950E94C604809301010E9416
:100670000B0380B38C7080BB81B3836F81BBA5E318
:10068000B1E0E3E4F1E08EE08E0F11921D928E1343
:10069000FCCF0C94B004BF92CF92DF92EF92FF9206
:1006A0000F931F93CF93DF9380910101882379F0FB
:1006B000809134018F5F80933401811108C00E94C2
:1006C000C60480930101811102C00E94580405E311
:1006D00011E0C0E0D0E0DD24D39482E0C82EEE2407
:1006E000E394F12CC730D10500F58091010181110F
:1006F00064C080E40E94C60280930101811112C08F
:1007000082E10E94F0028093010181110BC0C701B8
:100710000C2E01C0880F0A94EAF780950E94F0021F
:10072000809301010E94E80248C0CA30A1F028F479
:10073000C83059F0C93061F005C0CC3089F070F094
:10074000CD3089F0209A289810C0219A29980DC0A0
:10075000229A2A980AC0239A2B9807C0529A01C05D
:10076000539A5B9802C03E9A469890EA9A95F1F7A0
:100770009FB1799902C082E001C080E091709D250F
:10078000982B7C9902C084E001C080E0892B7D9980
:1007900002C038E001C030E0832B7E9902C020E126
:1007A00001C020E0822B9FB19095991F9927991F36
:1007B0009295990F907E892B0FC080910101811134
:1007C00049C080E40E94C60280930101882379F128
:1007D000B12C0E94E8028B2DF8019081981719F036
:1007E0008083C09200010E940B0321960F5F1F4F70
:1007F000CE30D10509F076CF80910001882361F1D8
:10080000815080930001882339F08FE99FE00197A0
:10081000F1F700C0000020C0A3E4B1E0E5E3F1E09F
:10082000CF01825F91919D938E13FCCF15C083E120
:100830000E94F002809301018111CACF81E40E94DD
:10084000C602809301018111C3CF0E940103B82E1B
:10085000B094BFCF80E0C0CF0E94560481E0DF910A
:10086000CF911F910F91FF90EF90DF90CF90BF90AD
:100870000895E82FF0E0ED5BFE4F80810895089524
:100880000F931F93CF93DF93C3E4D1E010E00C2FBD
:10089000025F899190E00E947B1B180F0C13F9CF27
:1008A000812FDF91CF911F910F9108950C94A50591
:1008B00056985E9825982D9826982E9827982F98C8
:1008C0008FEF90E0909389008093880090938B0045
:1008D00080938A0090938D0080938C00259A2D9AA6
:1008E0002FEF80E792E0215080409040E1F700C078
:1008F0000000269A2E9A2FEF80E792E02150804048
:100900009040E1F700C00000279A2F9A2FEF80E770
:1009100092E0215080409040E1F700C0000025980F
:100920002D982FEF80E792E0215080409040E1F732
:1009300000C0000026982E982FEF80E792E021500B
:1009400080409040E1F700C0000027982F9856980B
:100950005E9825982D9826982E9827982F98089578
:1009600089EA8093800089E08093810024982C9804
:100970003F988AB18F748AB96E98479A8BB1806B11
:100980008BB9769A0E9458040C94A40580E2809357
:1009900001018091510181110EC00E94C00281E0CD
:1009A000809351012FEF83ED90E3215080409040E0
:1009B000E1F700C0000080E40E94C60280930101BC
:1009C00081112EC00E94F00280930101811128C084
:1009D0000E94F00280930101811122C08FE30E94E6
:1009E000F0028093010181111BC00E94E80280E4A3
:1009F0000E94C60280930101811112C08CE00E9406
:100A0000F0028093010181110BC00E94F0028093DB
:100A10000101811105C08FE30E94F0028093010162
:100A20000E94E802809101010895FC01623009F4FE
:100A300045C028F4662351F0613041F182C0633033
:100A400009F45BC0643009F472C07BC082818823E2
:100A500041F00E941F1C909353018093520185EE38
:100A60006AC085EE0E94521280915201909153010A
:100A70000E942B1C8F3591050CF063C086EE0E94FE
:100A80008A1184E30E948A1184E34DC0828181111E
:100A9000E0CF85EE0E945212809152019091530155
:100AA0000E942B1C8F3591050CF04BC086EE0E94E6
:100AB0008A1181E30E948A1181E335C082818823F3
:100AC00041F00E941F1C909353018093520182EECB
:100AD00032C082EE0E9452128091520190915301D5
:100AE0000E942B1C8F35910564F586EE0E948A11B9
:100AF0008FE20E948A118FE216C082818111E1CFBC
:100B000082EE0E94521280915201909153010E94F4
:100B10002B1C8F359105ACF486EE0E948A1180E380
:100B20000E948A1180E30E94521286EE08C08281E0
:100B3000882321F089E30E948A1103C089E30E947F
:100B4000521280E090E0089508956091BF01709185
:100B5000C0018091C1019091C2010E94871B5698EB
:100B60005E9825982D9826982E9827982F98813052
:100B700029F0823029F4269A2E9A02C0279A2F9AB9
:100B80000E946E1081FF02C0259A2D9A089581E07F
:100B9000089581E008950C94C90508950F931F935B
:100BA000CF93DF938C01FC01C081D181CE010E94E3
:100BB000001ABE010E947706EC01B8010E94CB0525
:100BC000882309F48DC0F8018281882309F44AC082
:100BD00080915F0181111FC0C431F0E5DF0709F08A
:100BE00051C00E94CD0581E080935F010E941F1CCF
:100BF00090935E0180935D0110925601109258010E
:100C00001092570110925A011092590110925C01F2
:100C100010925B0165C080915D0190915E010E9420
:100C20002B1C883C910570F480915601E82FF0E070
:100C3000EE0FFF1FE95AFE4FD183C0838F5F809371
:100C400056014EC0C43880E5D80721F0C538D045DC
:100C500001F13AC0F8018281882341F010925401D9
:100C600082E01EC0C438E0E5DE0759F580915401EA
:100C7000811106C086E20E948A1186E20E94521209
:100C800082E01CC0C438F0E5DF0741F3C538D04529
:100C9000D9F4F8018281882331F01092550180E265
:100CA0000E94A1121DC080915501811106C087E2EA
:100CB0000E948A1187E20E94521280E20E94A812CA
:100CC0000FC0C538D04529F381E08093540180934B
:100CD0005501C801DF91CF911F910F910C94C70569
:100CE00080E0DF91CF911F910F910895089596E0D4
:100CF000799FF001112494E5899FE00DF11D1124E5
:100D0000E60FF11DEE0FFF1FE25FFE4F85919491FC
:100D10000895880F991FFC01E657F0408591949142
:100D20000895880F991FFC01E65FFE4F859194910D
:100D300008950F931F93CF93DF93EC01811520E368
:100D4000920750F5C11580E2D80708F0C3C0CB3B2D
:100D5000D10590F4C83AD10508F06AC0C53AD1056A
:100D600008F05BC0C430D10508F0D0C1219709F06C
:100D7000CAC101E010E00AC2CF3FD10511F008F06E
:100D8000C5C1C03FD10508F0A2C0CE01805E910967
:100D9000089708F4BBC1B7C1C13090E5D90709F481
:100DA000A2C020F5C0318FE4D80770F4C11590E4DB
:100DB000D90708F094C0C11521E3D20708F0A3C1F8
:100DC000DD278E01106CE2C1C115D04509F09BC131
:100DD0000E9407158FEF94E32CE081509040204053
:100DE000E1F700C000000E947A1CD0C1C11597E550
:100DF000D90758F4C03121E5D20708F01CC1C4312D
:100E000080E5D80708F475C07EC1CE0190578115E2
:100E1000904108F078C1DF7073C1C53AD10509F47B
:100E200077C1C63AD10509F076C102E810E4AEC137
:100E3000C83AD10509F472C1C93AD10509F471C1A2
:100E4000CA3AD10509F470C1CB3AD10509F46FC192
:100E5000CC3AD10509F46EC1CD3AD10509F46DC182
:100E6000C03BD10509F46CC1CE3AD10509F46BC180
:100E7000CF3AD10509F46AC1C13BD10509F469C172
:100E8000C23BD10509F468C1C33BD10509F467C170
:100E9000C43BD10509F466C1C53BD10509F465C160
:100EA000C63BD10509F464C1C73BD10509F463C150
:100EB000C83BD10509F462C1C93BD10509F461C140
:100EC000CA3BD10509F460C100E014E45FC18E01A2
:100ED00010655CC1CE019F700E94910658C1DF7001
:100EE0008E01106A53C18091DC0181608093DC0126
:100EF0004DC10E941F1E811102C00E94051E0E944A
:100F00003C1E90E09093FD018093FC01C23080E58F
:100F1000D80721F48091FC01816086C0C43090E53F
:100F2000D90721F48091FC0182607EC0C63020E5A3
:100F3000D20721F48091FC01846076C0C83080E53E
:100F4000D80719F48091FC0127C0CA3090E5D90771
:100F500021F48091FC01806167C0CC3020E5D2078C
:100F600021F48091FC0180625FC0CE3080E5D8071B
:100F700021F48091FC01806457C0C03190E5D9070D
:100F800021F48091FC0180684FC0C23120E5D20776
:100F900029F48091FC018460886046C0C33080E5FC
:100FA000D80721F48091FC018E7F3EC0C53090E5CA
:100FB000D90721F48091FC018D7F36C0C73020E530
:100FC000D20721F48091FC018B7F2EC0C93080E5CF
:100FD000D80719F48091FC0126C0CB3090E5D907E1
:100FE00021F48091FC018F7E1FC0CD3020E5D20717
:100FF00021F48091FC018F7D17C0CF3080E5D807A8
:1010000021F48091FC018F7B0FC0C13190E5D9079D
:1010100021F48091FC018F7707C0C331D04531F4B2
:101020008091FC018B7F877F8093FC018091FC0184
:101030000E94401EABC08D2F99278F709927813059
:101040009105D9F49E012370332702C0880F991FA0
:101050002A95E2F79C688E0144E0000F111F4A9523
:10106000E1F700271370802B912B53E0CC0FDD1F8D
:101070005A95E1F7C076DD272FC08230910531F413
:10108000DC2FCC278E01016F106A80C08330910560
:1010900069F4CE018370992701E010E002C0000FCF
:1010A000111F8A95E2F7C8019C680FC08430910532
:1010B000B9F4CE018370992701E010E002C0000F5F
:1010C000111F8A95E2F7C8019A6823E0CC0FDD1F53
:1010D0002A95E1F7C07ED7708C010C2B1D2B56C0D2
:1010E0008530910531F4DC2FCC278E01046F106A16
:1010F0004DC0069709F04AC0CF71DD27DC2FCC2701
:101100008E01106243C000E010E040C08E013EC07E
:1011100001E810E43BC003E810E438C002EE14E438
:1011200035C009EE14E432C00AEE14E42FC005EB1A
:1011300014E42CC006EB14E429C007EB14E426C029
:101140000CEC14E423C00DEC14E420C003E815E417
:101150001DC00AE815E41AC002E915E417C004E945
:1011600015E414C001E216E411C003E216E40EC057
:1011700004E216E40BC005E216E408C006E216E439
:1011800005C007E216E402C00AE216E4C801DF91D6
:10119000CF911F910F91089596E0799FF00111244E
:1011A00094E5899FE00DF11D1124E60FF11DEE0F6E
:1011B000FF1FE25FFE4F85919491803E9105E0F420
:1011C000803C910558F58133910509F46FC048F4CE
:1011D0008932910509F463C08A32910509F46DC022
:1011E00072C089339105E9F082389105D1F08533D9
:1011F000910509F44DC067C0833E910581F138F433
:10120000803E9105B9F0823E9105D9F05CC0863EE2
:10121000910561F1873E9105A1F155C00E948906B3
:1012200008952091FC0120FD02C021FF4CC080EEFA
:1012300090E049C08091FC0180FFF9CF89E390E004
:1012400042C08091FC0182FF0EC08091FC0184FFAE
:1012500003C080E090E037C083EE90E034C080911E
:10126000FC0182FFF2CF82EE90E02DC08091FC0164
:1012700083FF0BC08091FC0184FDEBCF87EE90E0F3
:1012800022C08091FC0183FFF5CF86EE90E01BC069
:101290008091FC0185FF07C089E290E014C0809135
:1012A000FC0185FFF9CF85E390E00DC08091FC0142
:1012B00086FF07C08AE290E006C08091FC0186FFAD
:1012C000F9CF81E390E00E949906089508950C9467
:1012D0006609809170010895CF93DF9300D01F922B
:1012E000CDB7DEB79C018091F301843019F593E00E
:1012F00099833B832A839093E9008FEF9091E800D4
:10130000815095FD06C095ED9A95F1F70000811189
:10131000F5CF8091E80085FF0DC040E050E063E02C
:1013200070E0CE0101960E94D60B8091E8008E7786
:101330008093E8000F900F900F90DF91CF91089568
:10134000CF93DF9300D01F92CDB7DEB72091F3018A
:10135000243021F522E029839B838A8383E08093D4
:10136000E9008FEF9091E800815095FD06C095ED62
:101370009A95F1F700008111F5CF8091E80085FF83
:101380000DC040E050E063E070E0CE0101960E94A5
:10139000D60B8091E8008E778093E8000F900F9035
:1013A0000F90DF91CF9108952091F3012430F1F453
:1013B00022E02093E9002FEF3091E800215035FD25
:1013C00006C035ED3A95F1F700002111F5CF2091D7
:1013D000E80025FF0BC040E050E065E070E00E94AF
:1013E000D60B8091E8008E778093E8000895CF9324
:1013F000DF93EC019091F301943009F046C08091A5
:101400000C018823D9F080910D018823B9F09093C5
:10141000E9008FEF9091E800815095FD06C095E1BD
:101420009A95F1F700008111F5CF8091E80085FFD2
:101430002CC040E050E060E170E017C081E0809394
:10144000E9008FEF9091E800815095FD06C095ED81
:101450009A95F1F700008111F5CF8091E80085FFA2
:1014600014C040E050E068E070E0CE010E94D60B6E
:101470008091E8008E778093E80080E1FE01A0E68D
:10148000B1E001900D928A95E1F7DF91CF91089537
:101490008091F201811109C00E946B0D0E94C80D5C
:1014A0008091E20084608093E20008951092F2013E
:1014B000089508950C94AF220E94101C0E94B5223A
:1014C0000E946E100C94670942E061EC81E00E947A
:1014D000E50C42E061EC82E00E94E50C42E061EC48
:1014E00083E00E94E50C42E161EC84E00C94E50CA1
:1014F0008091F501833009F455C030F4813071F0EA
:10150000823009F48EC008958A3009F47AC08B3095
:1015100009F460C0893009F09CC020C08091F401BA
:10152000813A09F096C08091E800877F8093E800B7
:101530008091F8019091F901892B21F460E180E616
:1015400091E003C060E080E090E070E00E94210C38
:101550008091E8008B778093E80008958091F401F2
:10156000813209F076C08091F8019091F9010097DD
:1015700019F0039709F06DC08091E800877F809390
:10158000E8008091E80082FD05C08091F30181119F
:10159000F8CF5FC08091F100809370018091E800E6
:1015A0008B7753C08091F401813A09F052C0809149
:1015B000F8019091F901892B09F04BC08091E80066
:1015C000877F8093E8008091E80080FFFCCF8091C6
:1015D0000C0136C08091F4018132D9F58091F80177
:1015E0009091F901892BA9F58091E800877F80937C
:1015F000E8000E941A0D8091F60180930C010C9472
:1016000007158091F401813221F58091E800877FF0
:101610008093E8000E941A0D8091F7018093710178
:1016200008958091F401813AA1F48091E800877FC8
:101630008093E8008091E80080FFFCCF80917101E9
:101640008093F1008091E8008E778093E8000C94FD
:101650001A0D089584B7877F84BF88E10FB6F89488
:1016600080936000109260000FBE90E080E80FB69B
:10167000F89480936100909361000FBE0E94BD10AA
:101680000E946B0D0E94C80D8091E20084608093DF
:10169000E20078940E944E100E94BF1082E091E018
:1016A0000E9469100E949D228091F301853069F4A7
:1016B0000E94D71B8091F1018823B1F30E94021C84
:1016C000882391F30E94C00BEFCF0E94C510ECCF8E
:1016D000292F332723303105C9F064F42130310537
:1016E00081F02230310509F043C08DE690E02AE315
:1016F00033E042C021323105F1F02232310541F1AF
:1017000037C082E190E027EA33E036C09927813084
:10171000910541F08230910541F0892B49F5E6E3CE
:10172000F3E005C0EEE1F3E002C0E6E0F3E084910F
:1017300090E09F0121C06430D8F4E62FF0E0EE0F76
:10174000FF1FEE5DFE4F2081318189E090E014C0E3
:10175000643070F470E0FB01EE0FFF1FE65EFE4F99
:1017600020813181FB01EA5EFE4F808190E004C060
:1017700080E090E020E030E0FA013183208308959A
:1017800080E189BD82E189BD09B400FEFDCF809171
:10179000D8008F7D8093D8008091E0008260809394
:1017A000E0008091E00081FDFCCF0895CF92DF92B0
:1017B000EF92FF920F931F93CF93DF93EC018B0176
:1017C0006A010E94390D811133C0C114D10439F06E
:1017D000F60180819181081B190BC80FD91FE12CDC
:1017E000F12C0115110519F18091E80085FD16C055
:1017F0008091E8008E778093E800C114D10449F00D
:10180000F60180819181E80EF91EF182E08285E087
:101810000FC00E94390D882321F30AC0899180935B
:10182000F10001501109FFEFEF1AFF0ADACF80E053
:10183000DF91CF911F910F91FF90EF90DF90CF90AC
:1018400008952091FA013091FB012617370748F0DF
:101850006115710539F42091E8002E772093E80096
:1018600001C0B90140E061157105A9F12091F301B2
:10187000222309F443C0253009F442C02091E80036
:1018800023FD40C02091E80022FD32C02091E800F5
:1018900020FFE9CF4091F3002091F20030E0342B9B
:1018A000FC01CF016115710559F02830310540F474
:1018B00081918093F100615071092F5F3F4FF1CF0B
:1018C00041E02830310509F040E02091E8002E7712
:1018D0002093E800C8CF4111C9CF0AC08091F3011D
:1018E000882361F0853061F08091E80083FD0AC0B3
:1018F0008091E80082FFF2CF80E0089582E00895B1
:1019000083E0089581E008952091FA013091FB0170
:101910002617370748F06115710539F42091E80062
:101920002E772093E80001C0B901FC0120E0611589
:10193000710591F18091F301882309F440C085304D
:1019400009F43FC08091E80083FD3DC08091E8002C
:1019500082FD2FC08091E80080FFE9CF2091F30045
:101960008091F20090E0922B6115710559F088305A
:10197000910540F424912093F10031966150710952
:101980000196F2CF21E0089709F020E08091E8006D
:101990008E778093E800CBCF2111CCCF0AC0809105
:1019A000F301882361F0853061F08091E80083FDC8
:1019B0000AC08091E80082FFF2CF80E0089582E0C3
:1019C000089583E0089581E00895982F973058F5A1
:1019D0009093E900981739F07091EC002091ED0098
:1019E0005091F00003C0242F762F50E021FF19C042
:1019F0003091EB003E7F3093EB003091ED003D7F66
:101A00003093ED003091EB0031603093EB00709338
:101A1000EC002093ED005093F0002091EE0027FFA2
:101A200007C09F5FD3CF8F708093E90081E0089556
:101A300080E008958091F40187FF11C08091E80053
:101A400082FD05C08091F3018111F8CF11C0809112
:101A5000E8008B770BC08091F301882349F08091D7
:101A6000E80080FFF8CF8091E8008E778093E8004F
:101A700008952091E4003091E50095E64091EC0056
:101A8000842F817040FF22C08091E80080FD1CC03F
:101A90008091F301882391F0853091F08091EB00E3
:101AA00085FD10C04091E4005091E50042175307B6
:101AB00029F39A01915011F784E0089582E0089586
:101AC00083E0089581E0089580E008954091E80062
:101AD00042FFDECF08950E94D90D0E94E10DE0EE95
:101AE000F0E0808181608083E8EDF0E080818F7795
:101AF000808319BCA7EDB0E08C918E7F8C938081A0
:101B00008F7E80831092F20108950F931F93CF93DD
:101B1000DF930E94D90D0E94E10DC8EDD0E08881CD
:101B20008F77888388818068888388818F7D888388
:101B300019BC1092F3011092EF011092F101109272
:101B4000F00100EE10E0F80180818B7F80838881B6
:101B50008160888342E060E080E00E94E50CE1EE75
:101B6000F0E080818E7F8083E2EEF0E08081816012
:101B70008083808188608083F80180818E7F80836C
:101B8000888180618883DF91CF911F910F910895A3
:101B9000E8EDF0E080818F7E8083E7EDF0E08081EA
:101BA0008160808384E082BF81E08093F2010C94A5
:101BB000850DE8EDF0E080818E7F80831092E20059
:101BC00008951092DA001092E10008951F920F928A
:101BD0000FB60F9211242F933F934F935F936F9300
:101BE0007F938F939F93AF93BF93EF93FF938091D6
:101BF000E10082FF0BC08091E20082FF07C080916C
:101C0000E1008B7F8093E1000E944D108091DA000B
:101C100080FF1FC08091D80080FF1BC08091DA0038
:101C20008E7F8093DA008091D90080FF0DC080E123
:101C300089BD82E189BD09B400FEFDCF81E08093BA
:101C4000F3010E94480A05C019BC1092F3010E94DA
:101C5000560A8091E10080FF19C08091E20080FF68
:101C600015C08091E2008E7F8093E2008091E200B7
:101C700080618093E2008091D80080628093D800D8
:101C800019BC85E08093F3010E945A0A8091E1001B
:101C900084FF30C08091E20084FF2CC080E189BDC8
:101CA00082E189BD09B400FEFDCF8091D8008F7D0F
:101CB0008093D8008091E1008F7E8093E100809135
:101CC000E2008F7E8093E2008091E2008160809349
:101CD000E2008091EF01882311F084E007C0809139
:101CE000E30087FD02C081E001C083E08093F3013F
:101CF0000E945C0A8091E10083FF29C08091E2008C
:101D000083FF25C08091E100877F8093E10082E01E
:101D10008093F3011092EF018091E1008E7F809318
:101D2000E1008091E2008E7F8093E2008091E200EA
:101D300080618093E20042E060E080E00E94E50C78
:101D40008091F00088608093F0000E94590AFF9112
:101D5000EF91BF91AF919F918F917F916F915F9123
:101D60004F913F912F910F900FBE0F901F9018959C
:101D70001F920F920FB60F9211242F933F934F9300
:101D80005F936F937F938F939F93AF93BF93CF9303
:101D9000DF93EF93FF93C091E900CF708091EC0047
:101DA000D82FD17080FDD0E81092E9008091F0002A
:101DB000877F8093F00078940E94FC0E1092E900D7
:101DC0008091F00088608093F000CD2BCF70C0939D
:101DD000E900FF91EF91DF91CF91BF91AF919F917A
:101DE0008F917F916F915F914F913F912F910F90C4
:101DF0000FBE0F901F9018951F93CF93DF93CDB711
:101E0000DEB7AA970FB6F894DEBF0FBECDBFE4EFE2
:101E1000F1E088E08E0F9091F10091938E13FBCF4B
:101E20000E94780A8091E80083FF1FC18091F4012D
:101E30009091F501492F50E04A30510508F015C145
:101E4000FA01EA5AFF4F0C943724803881F0823827
:101E500009F00BC18091F8018F708093E9008091A7
:101E6000EB0085FB882780F91092E90006C080917D
:101E7000F0019091F101911182609091E800977FBB
:101E80009093E8008093F1001092F100C8C0282FD1
:101E90002D7F09F0EAC0882319F0823061F0E5C097
:101EA0008091F601813009F0E0C0933009F080E0C4
:101EB0008093F1012BC08091F601811127C08091A0
:101EC000F8018F7009F4D1C08093E9002091EB00F4
:101ED00020FF1CC0933021F48091EB00806214C07D
:101EE0009091EB0090619093EB0021E030E0A9012C
:101EF00002C0440F551F8A95E2F74093EA00109202
:101F0000EA008091EB0088608093EB001092E9007A
:101F10008091E800877F86C08111A7C01091F601EB
:101F20001F778091E3008078812B8093E30080917C
:101F3000E800877F8093E8000E941A0D8091E800F6
:101F400080FFFCCF8091E30080688093E300111153
:101F500002C082E001C083E08093F30186C0805814
:101F6000823008F082C08091F6019091F7018C3D9B
:101F700053E0950779F583E08A838AE289834FB736
:101F8000F894DE01139620E03EE051E2E32FF0E00A
:101F900050935700E49120FF03C0E295EF703F5F3C
:101FA000EF708E2F90E0EA3010F0C79601C0C09617
:101FB0008D939D932F5F243149F74FBF8091E800A7
:101FC000877F8093E8006AE270E0CE0101960E946C
:101FD000210C14C0AE014F5F5F4F6091F8010E9469
:101FE000680BBC01009709F440C09091E800977F0E
:101FF0009093E80089819A810E94840C8091E80086
:102000008B778093E80031C0803879F58091E800C3
:10201000877F8093E8008091EF018093F1008091A9
:10202000E8008E778093E8000E941A0D1EC081118F
:102030001CC09091F6019230C0F48091E800877F37
:102040008093E8009093EF010E941A0D8091EF01B8
:10205000811106C08091E30087FD02C081E001C0CC
:1020600084E08093F3010E94640A8091E80083FF7A
:102070000AC08091E800877F8093E8008091EB00A0
:1020800080628093EB00AA960FB6F894DEBF0FBE75
:10209000CDBFDF91CF911F9108950895CF93809187
:1020A000F3018823A1F0C091E900CF709091EC007A
:1020B000892F817090FD80E8C82B1092E9008091F3
:1020C000E80083FD0E94FC0ECF70C093E900CF9121
:1020D000089590937701809376010895E0917601B9
:1020E000F0917701309721F00190F081E02D099473
:1020F00080E00895E0917601F0917701309721F02A
:102100000280F381E02D09940895E0917601F09129
:102110007701309721F00480F581E02D099408952E
:1021200020917401309175018217930771F090939B
:10213000750180937401E0917601F09177013097F9
:1021400021F00680F781E02D099408952091720115
:10215000309173018217930771F09093730180930C
:102160007201E0917601F0917701309721F00084BF
:10217000F185E02D0994089508950C94BC100E94F7
:10218000161C0E9433030C94D81C9F92AF92BF92EE
:10219000CF92DF92EF92FF920F931F93CF93DF9333
:1021A00000D000D000D0CDB7DEB70E944B030DE0C9
:1021B00010E0AA24A394B12C902E802F0E94390401
:1021C000980127583E4F6901F901F080F826A1F4E3
:1021D0000150110988F78FEF89838A831B820E943F
:1021E0001F1C8160782F9D838C8349815A816B816C
:1021F0008D810E945C112FC09091DC0191FF04C081
:102200008E830E943F048E8125E030E0A501022EDE
:1022100001C0440F0A94EAF7E42E4F21C1F029834C
:102220009A828E2191E009F490E09B830E941F1C0A
:102230008160782F9D838C8349815A816B818D8148
:102240000E945C11F6018081E826E08204C02150E2
:102250003109E0F6BDCF0E94BF1F109178010E94A6
:102260006E101817B9F00E946E10809378012696B0
:102270000FB6F894DEBF0FBECDBFDF91CF911F9197
:102280000F91FF90EF90DF90CF90BF90AF909F9015
:102290000C94670926960FB6F894DEBF0FBECDBF2B
:1022A000DF91CF911F910F91FF90EF90DF90CF9032
:1022B000BF90AF909F900895CF93DF93CDB7DEB7D7
:1022C0002B970FB6F894DEBF0FBECDBF4F83588754
:1022D00069877A878B87DE01119686E0FD0111926E
:1022E0008A95E9F785E0FE01379601900D928A956F
:1022F000E1F749815A816B817C818D819E810E94A9
:10230000A5172B960FB6F894DEBF0FBECDBFDF9199
:10231000CF910895CF93882309F4C2C0C82F823883
:1023200059F40E946E1081FDBBC089E30E947F1AA0
:102330000E944C1B89E30CC0833879F40E946E1014
:1023400080FDAEC083E50E947F1A0E944C1B83E58E
:102350000E94C11ACF910C944C1B843859F40E94EE
:102360006E1082FD9DC087E40E947F1A0E944C1B64
:1023700087E4EECF8CEF8C0F813A48F48C2F0E94CB
:10238000022281118DC08C2F0E947F1AE3CF80E240
:102390008C0F883048F4C77081E001C0880FCA955F
:1023A000EAF70E94051BD6CF8BE58C0F833078F4BB
:1023B000C53A29F0C63A31F083E890E005C081E8DB
:1023C00090E002C082E890E0CF910C94901088E5F4
:1023D0008C0F833108F064C0C83A39F1C93A41F131
:1023E000CA3A49F1CB3A51F1CC3A59F1CD3A61F1BF
:1023F000C03B69F1CE3A71F1CF3A79F1C13B81F13D
:10240000C23B89F1C33B91F1C43B99F1C53BA1F1BA
:10241000C63BA9F1C73BB1F1C83BB9F1C93BC1F11A
:10242000CA3BC9F180E090E038C082EE90E035C050
:1024300089EE90E032C08AEE90E02FC085EB90E00C
:102440002CC086EB90E029C087EB90E026C08CEC96
:1024500090E023C08DEC90E020C083E891E01DC0A7
:102460008AE891E01AC082E991E017C084E991E01E
:1024700014C081E292E011C083E292E00EC084E2D7
:1024800092E00BC085E292E008C086E292E005C0CF
:1024900087E292E002C08AE292E0CF910C94A6100B
:1024A000CF910895882309F44BC0823859F40E94D3
:1024B0006E1081FF45C089E30E947F1A0E944C1B69
:1024C00089E30CC0833871F40E946E1080FF38C01D
:1024D00083E50E947F1A0E944C1B83E50E94C11A6B
:1024E0000C944C1B843859F40E946E1082FF28C053
:1024F00087E40E947F1A0E944C1B87E4EFCF9CEF79
:10250000980F913A58F390E2980F983050F48770F2
:1025100091E001C0990F8A95EAF7892F0E940B1B61
:10252000DFCF9BE5980F933020F480E090E00C948F
:102530009010885A833120F480E090E00C94A6102B
:102540000895882321F00E94051B0C944C1B0895CC
:10255000882321F00E940B1B0C944C1B08957F9242
:102560008F929F92AF92BF92CF92DF92EF92FF92A3
:102570000F931F93CF93DF931F92CDB7DEB77C01EC
:10258000C62E772EFC01058102950F701281111164
:102590000E94221B0E94781A882379F0112369F087
:1025A00080E28C0D883048F082E00E94611A0E941F
:1025B000781A91E0D82ED92601C0D12CE72DE295CA
:1025C000EF70F0E0E05AFF4F0C943724872D807FA6
:1025D000072D0F70882311F00295007F112389F0D9
:1025E000002309F490C180E28C0D883020F4802F04
:1025F0000E94051B03C0802F0E94151B0E944C1BCC
:1026000082C18C2D0E945212002309F495C180E2F0
:102610008C0D883020F4802F0E940B1B03C0802F6C
:102620000E941B1B0E944C1B87C1972D907F872DFA
:102630008F70903211F08295807FCC2021F0F1E0F4
:10264000CF16B1F01EC0112349F0002309F414C1C4
:10265000013009F011C10E94351B6EC1002319F031
:10266000013009F469C189830E94381B89810AC13C
:10267000112321F0023008F05FC1FEC001115CC1DE
:1026800001C1112321F0002309F4F6C03CC100234D
:1026900009F4F8C03EC1872D86958695837090E039
:1026A000009719F0019761F047C1112321F08C2D9B
:1026B000972D937002C080E090E00E9490103CC182
:1026C000112321F08C2D972D937002C080E090E0B3
:1026D0000E94A61031C18C2D112319F00E94C71E33
:1026E00002C00E942F1F0E94B41F26C1872D837035
:1026F00009F052C0111120C18C2D829586958770EA
:10270000880F880F9C2D9F70892E912CA12CB12CA5
:10271000082E04C0880C991CAA1CBB1C0A94D2F772
:10272000C4FE14C00FE010E020E030E0B901A801C1
:1027300004C0440F551F661F771F8A95D2F7CB013F
:10274000BA01609570958095909503C060E070E047
:10275000CB01272D26952695237030E022303105B8
:1027600069F02330310589F0682979298A299B2964
:102770002130310571F00E94ED18DEC068297929F9
:102780008A299B290E940919D7C00E94ED18C5010A
:10279000B4010E94D118D0C0112319F0872D817087
:1027A00001C08695882309F4C7C08C2D8295869533
:1027B0008770880F880F9C2D9F70892E912CA12CDB
:1027C000B12C082E04C0880C991CAA1CBB1C0A94AE
:1027D000D2F7C4FE14C00FE010E020E030E0B901F1
:1027E000A80104C0440F551F661F771F8A95D2F7B2
:1027F000CB01BA01609570958095909503C060E01B
:1028000070E0CB01272D269526952370422F50E0AE
:102810004230510569F04330510589F06829792922
:102820008A299B294130510571F00E94C71984C043
:10283000682979298A299B290E94E3197DC00E9471
:10284000C719C501B4010E94AB1976C08C2D90E068
:10285000FC01E05EF109E531F10508F050C0E059F6
:10286000FF4F0C9437240C2D0F70872D8F7111237F
:1028700031F00E944419802F0E94A1125DC00E9475
:102880006519802F0E94A81257C0112339F0011139
:1028900053C0872D8F710E948A194EC0023008F0F4
:1028A0004BC0F7CF112339F0872D8F710E94441947
:1028B00043C01123C9F3872D8F710E9465193CC055
:1028C000112329F0872D8F710E942F1935C00E9486
:1028D000251932C0112351F0172D1F71812F0E942D
:1028E000441963E0812F0E94581A26C081E00E949B
:1028F000611A023008F182E00E94611A1DC01123A2
:1029000031F0002389F28C2D0E948A1115C000231A
:1029100091F28C2D0E9452120FC0472D4F706C2DDA
:10292000C7010E9415050E94491806C0472D4F7027
:102930006C2DC7010E947606DD20F9F00E94541A22
:1029400080FD1BC0F70112820E944E1A0E9444199A
:10295000C7010E94CC140E944E1A0F90DF91CF91B4
:102960001F910F91FF90EF90DF90CF90BF90AF90AD
:102970009F908F907F900C9465190F90DF91CF916D
:102980001F910F91FF90EF90DF90CF90BF90AF908D
:102990009F908F907F9008950F931F93CF93DF9315
:1029A000EC01888199812B813C81232BB9F09F3FD9
:1029B00011F48F3F99F0CE010E94CE05882371F06B
:1029C000688179818A810E944A1A8C010E94FF19CC
:1029D0000E94C618B801CE010E94AF12DF91CF91BC
:1029E0001F910F9108950E94221B0E94321B0E948A
:1029F000F71A0E944C1B0E9465200E94B41F80E0C1
:102A000090E00E94901080E090E00C94A6100E944C
:102A1000121B0C94F3140E943F1A292F22952F7039
:102A200030E02C3031054CF42A3031056CF4225062
:102A3000310922303105A8F407C02C30310569F086
:102A40002F30310551F00DC0803F69F018F4803E01
:102A500040F409C0843F29F406C093FB882780F91D
:102A6000089580E0089581E00895CF93DF9300D02A
:102A700000D01F92CDB7DEB70F900F900F900F9040
:102A80000F90DF91CF910895CF93DF9300D000D0C6
:102A900000D0CDB7DEB726960FB6F894DEBF0FBED6
:102AA000CDBFDF91CF9108951F93CF93DF93C09156
:102AB000870116E080918801C81799F0D0E01C9F2B
:102AC000F0011D9FF00D1124E757FE4F4081518109
:102AD00062817381848195810E9444152196C7701B
:102AE000E9CFDF91CF911F9108954091B9015091A5
:102AF000BA016091BB017091BC018091BD019091C0
:102B0000BE010C9444158091BE0182958F7009F02E
:102B100054C08091BB01882309F44FC08091870184
:102B2000A09188016091B9017091BA014091BC01F6
:102B30005091BD01B6E08A1709F43FC090E04115FD
:102B40005105C1F17F3F11F46F3FA1F1B89FF00132
:102B5000B99FF00D1124E757FE4F218172132AC04F
:102B60002081621327C02281211124C02381348156
:102B70002417350710F421503109241B350B283C4C
:102B80003105C0F42091BE012F7020612093BE0159
:102B900026E0289FF001299FF00D1124E257FE4FF7
:102BA00080818F708061808389EB91E00E94CC14DA
:102BB0000C94541501968770BECF0895CF92DF9282
:102BC000EF92FF920F931F93CF93DF93CDB7DEB7B2
:102BD00062970FB6F894DEBF0FBECDBF8C0185E0C3
:102BE000F801DE011D9601900D928A95E1F7D8015A
:102BF0004C9111965C91119712966C9112971396C5
:102C0000CD90DC9014973091B9017091BA01809108
:102C1000BC019091BD01009709F46BC17F3F19F48D
:102C20003F3F09F466C1E090BB01EE2009F4C0C04B
:102C30002091BE01C816D90628F0F601E81BF90B51
:102C4000CF0104C0809590958C0D9D1DFF24F394B9
:102C5000883C910578F0F12C207F09F0C6C07C2DCE
:102C6000D98AC88A89890E94351589EB91E00E942A
:102C7000CC14B1C0822F807F09F046C0751314C0F8
:102C8000341312C0611110C02F7020612093BE0157
:102C90000E94751589EB91E00E94CC148091BE01D1
:102CA000D80115968C932EC0CD2819F15F3F11F4F1
:102CB0004F3FF9F0F62E61111CC0809187012091E1
:102CC000880136E0821709F45AC090E0389FF0017D
:102CD000399FF00D1124E757FE4F7181571306C03D
:102CE0007081471303C07281711103C00196877010
:102CF000E9CFF62E662309F418C18091BE018160E8
:102D00008093BE01F12C11C1751308C0341306C0A5
:102D1000611104C08091BE01D801C3C04D875E8798
:102D20008D859E856A8B0E940B156A898823E1F147
:102D30006623D1F12091BE01822F82958F7090E0A1
:102D4000029774F08091B9019091BA0198878F83AE
:102D50001986DB86CA862C87CE0107960E94CC1482
:102D600086E0F801A9EBB1E001900D928A95E1F7B8
:102D70000E9483150E947515FF24F394D6C04D87D9
:102D80005E878D859E850E943F1A292F22952F7080
:102D900030E0223031050CF0BCC09F7009F0B6C0A5
:102DA000805E883008F4C1C0C8010E94CC14E4CF12
:102DB000C816D90608F453C0F601E81BF90BCF0179
:102DC000883C910508F450C0F12C7C2DD98AC88A22
:102DD00089890E943515E9EBF1E086E0DF011D925B
:102DE0008A95E9F70E947515A0C0751314C03413B5
:102DF00012C0611110C08091BE01F8018583C80125
:102E00000E94CC1486E0E9EBF1E0DF011D928A9587
:102E1000E9F7FE2C8AC04D875E878D859E856A8B7B
:102E20000E940B156A89882309F4BECF662309F432
:102E3000BBCF2091BE01822F82958F7090E00297C8
:102E40000CF48ECF8091B9019091BA019A83898355
:102E50001B82DD82CC822E83CE0101967FCF8095AE
:102E600090958C0D9D1DACCFF62E662309F49CCF5A
:102E700075132EC034132CC02091BE0120FD1FC03D
:102E8000822F82958F70D9F0D80115962C931597C3
:102E90008F3049F08F5F982F9295907F822F8F709F
:102EA000892B15968C93C8010E94CC1486E0F801FA
:102EB000A9EBB1E001900D928A95E1F793CF86E0FE
:102EC000F801A9EBB1E001900D928A95E1F72DC0D0
:102ED0004D875E878D859E850E940B15811140CFA1
:102EE0008091BE0181608093BE01C8010E94CC1414
:102EF0001CC0662309F458CF4D875E878D859E855B
:102F00000E940B15882309F44FCF2ACF811148CF97
:102F10000CC0243031050CF047CF9F7009F440CF2E
:102F2000F8019581907F09F03BCF8F2D62960FB607
:102F3000F894DEBF0FBECDBFDF91CF911F910F91EF
:102F4000FF90EF90DF90CF9008951F93CF93DF9382
:102F5000CDB7DEB72C970FB6F894DEBF0FBECDBF4E
:102F60004F83588769877A878B879C87CE0107961E
:102F70000E94DE15882369F08F8198852A853B851C
:102F8000232BF1F19F3F09F063C08F3F09F060C030
:102F900037C086E0FE013796DE01119601900D9252
:102FA0008A95E1F76F817885EA85FB85309741F155
:102FB0007F3F11F46F3F21F12091880130E0C9017A
:102FC0000196877099274091870150E084179507F3
:102FD00009F447C069837A83FD83EC8396E0929F6E
:102FE000D001939FB00D1124A757BE4FFE0131961B
:102FF00001900D929A95E1F7809388010E945415F3
:1030000016E080918701909188018917C1F1189F7E
:10301000C001112487579E4F0E94DE15882379F145
:10302000E09187011E9FF0011124E757FE4F408178
:10303000518162817381848195810E9444158091C0
:10304000870190E001968770992780938701D9CFF7
:103050004F81588569857A858B859C850E944415AA
:10306000CFCF0E9407151092880110928701E9EBDB
:10307000F1E086E0DF011D928A95E9F7C1CF2C9639
:103080000FB6F894DEBF0FBECDBFDF91CF911F9179
:103090000895EF92FF920F931F93CF93DF938C01CC
:1030A000009709F46CC0F12CEE24E394E80121961A
:1030B000F8018491843740F4843008F051C08130A5
:1030C00081F0823019F15BC0853709F444C0A8F162
:1030D0009CE7980F903708F052C08F770E945212E9
:1030E00041C00E5F1F4FFE01C49180E28C0F8830FB
:1030F00048F4C7708E2D01C0880FCA95EAF70E9468
:10310000251B14C08C2F0E948A112DC00E5F1F4FEB
:10311000FE01C49180E28C0F883058F4C7708E2D68
:1031200001C0880FCA95EAF70E942B1B0E944C1B16
:103130001AC08C2F0E94521216C00E5F1F4FFE0144
:10314000C491CC2381F08FE99FE00197F1F700C093
:103150000000C150F6CF0E5F1F4FFE01F49003C078
:103160000E948A118E018F2D882309F49FCFEFE9E9
:10317000FFE03197F1F700C000008150F5CFDF91FB
:10318000CF911F910F91FF90EF9008950895609354
:10319000C3017093C4018093C5019093C6010C9440
:1031A000F3140F931F930091C3011091C401209158
:1031B000C5013091C601DC01CB01802B912BA22BE4
:1031C000B32B8093C3019093C401A093C501B09326
:1031D000C6011F910F910C94F3140F931F9300914C
:1031E000C3011091C4012091C5013091C601DC01D9
:1031F000CB0180239123A223B3238093C301909317
:10320000C401A093C501B093C6011F910F910C9406
:10321000F3140F931F930091C3011091C4012091E7
:10322000C5013091C601DC01CB0180279127A2277F
:10323000B3278093C3019093C401A093C501B093B9
:10324000C6011F910F910C94F3141092BF011092BC
:10325000C0011092C1011092C2010C94F31441E01C
:1032600050E060E070E004C0440F551F661F771FF8
:103270008A95D2F74093BF015093C0016093C1017A
:103280007093C2010C94F31441E050E060E070E0F0
:1032900004C0440F551F661F771F8A95D2F780918F
:1032A000BF019091C001A091C101B091C201482B12
:1032B000592B6A2B7B2B4093BF015093C001609325
:1032C000C1017093C2010C94F31441E050E060E03E
:1032D00070E004C0440F551F661F771F8A95D2F710
:1032E00040955095609570958091BF019091C00177
:1032F000A091C101B091C201482359236A237B23C5
:103300004093BF015093C0016093C1017093C2010B
:103310000C94F31441E050E060E070E004C0440F0E
:10332000551F661F771F8A95D2F78091BF01909134
:10333000C001A091C101B091C201482759276A2755
:103340007B274093BF015093C0016093C1017093EC
:10335000C2010C94F3140F931F930091BF011091BD
:10336000C0012091C1013091C201DC01CB01802B51
:10337000912BA22BB32B8093BF019093C001A093FC
:10338000C101B093C2011F910F910C94F3140F93DC
:103390001F930091BF011091C0012091C101309194
:1033A000C201DC01CB0180239123A223B3238093AC
:1033B000BF019093C001A093C101B093C2011F91BE
:1033C0000F910C94F3140F931F930091BF01109170
:1033D000C0012091C1013091C201DC01CB018027E5
:1033E0009127A227B3278093BF019093C001A09398
:1033F000C101B093C2011F910F910C94F314089571
:10340000CF92DF92EF92FF920F931F93CF93DF93B0
:103410008C01C090C301D090C401E090C501F09030
:10342000C6018091BF019091C001A091C101B091EE
:10343000C201C82AD92AEA2AFB2ACFE1D0E0D70163
:10344000C6010C2E04C0B695A795979587950A944A
:10345000D2F780FF06C0B8018C2F0E94CC080197DC
:1034600021F4219760F780E001C08C2FDF91CF918C
:103470001F910F91FF90EF90DF90CF900895CF9321
:10348000DF93EC010E94001ABE010E94CC08DF917C
:10349000CF910895CB010E943F1A08958091C701F2
:1034A00085958595859508958091C70187700895C4
:1034B00098E0899F90011124262B2093C7010C943A
:1034C00044192091C701809582238093C701982FCA
:1034D000977069F430E0482F552747FD5095241721
:1034E000350729F08595859585950C94651908957E
:1034F0009091C701977081E009F480E00895909160
:103500000C01992321F090910D01911109C0209196
:103510000E0130910F01F90132969FEF40E01FC07C
:10352000982F9695969596959F3050F5E0910E01BF
:10353000F0910F01E90FF11D877021E030E0A90142
:1035400002C0440F551F8A95E2F7CA019181892B69
:10355000818308959F3F39F04F5F4E3041F0519184
:103560005813F8CF0DC05111F7CF942FF5CF9F3FCF
:1035700039F0F901E90FF11D97FDFA95828308955D
:10358000089590910C01992321F090910D019111D2
:1035900009C020910E0130910F01F9013296205F90
:1035A0003F4F1FC0982F9695969596959F30F0F4B3
:1035B000E0910E01F0910F01E90FF11D877021E0FC
:1035C00030E0A90102C0440F551F8A95E2F7CA01F5
:1035D000809591818923818308953196E217F307BD
:1035E00029F090819813F9CF1082F7CF089581E0E8
:1035F00090E0E0910E01F0910F01E80FF91F1082A9
:10360000019680319105A9F708959091DB01892BEE
:103610008093DB01089580959091DB01892380934D
:10362000DB0108951092DB0108959091DA01892B56
:103630008093DA01089580959091DA01892380932F
:10364000DA0108951092DA0108959091D901892B39
:103650008093D901089580959091D9018923809311
:10366000D90108951092D90108958093C801089551
:103670001092C801089580910E0190910F01FC01F4
:1036800031969C01205F3F4F80E0919191118F5FB7
:10369000E217F307D1F70895E0910E01F0910F01C1
:1036A0008091DB018083E0910E01F0910F01908108
:1036B0008091DA01892B8083E0910E01F0910F0156
:1036C00090818091D901892B80838091C8018823C2
:1036D00061F0E0910E01F0910F019081892B8083C0
:1036E0000E943B1B81111092C80180910E019091A4
:1036F0000F010C947A1020E0009739F0AC01415092
:103700005109842395232F5FF7CF822F0895CF92FD
:10371000DF92EF92FF926C01EE24FF24C114D104DA
:10372000E104F10421F0C701B60120E101C020E06D
:10373000C72ED82EE92EFF24C114D104E104F104D0
:1037400019F0285FC701B6016B017C0154E0F694C3
:10375000E794D794C7945A95D1F7C114D104E104E2
:10376000F10419F02C5FC701B6016B017C0142E046
:10377000F694E794D794C7944A95D1F7C114D1042D
:10378000E104F10419F02E5FC701B601DC01CB01A1
:10379000B695A79597958795892B8A2B8B2B09F042
:1037A0002F5F822FFF90EF90DF90CF900895809150
:1037B000F301843021F11092DD0120E488E190E0F2
:1037C0000FB6F894A895809360000FBE2093600018
:1037D00080E00E94670983B7817F846083BF83B7DD
:1037E000816083BF7894889583B78E7F83BF88E19B
:1037F0000FB6F89480936000109260000FBE089599
:10380000089508950E94001C0E944B030E94011C11
:103810000E94400491E0811101C090E0892F089539
:103820000E9407150E946E100C94670982E084BD07
:1038300093E095BD9AEF97BD80936E0008952FB7E2
:10384000F8948091DE019091DF01A091E001B091A8
:10385000E1012FBF0895CF92DF92EF92FF920F9375
:103860001F932FB7F8944091DE015091DF016091D2
:10387000E0017091E1012FBF6A017B01EE24FF247A
:103880008C0120E030E0C016D106E206F30610F409
:10389000415051099A01281B390BC9011F910F9101
:1038A000FF90EF90DF90CF9008951F920F920FB688
:1038B0000F9211248F939F93AF93BF938091DE015A
:1038C0009091DF01A091E001B091E1010196A11D6D
:1038D000B11D8093DE019093DF01A093E001B093CE
:1038E000E101BF91AF919F918F910F900FBE0F900B
:1038F0001F9018950E946B0DF8942FEF87EA91E6C0
:10390000215080409040E1F700C0000087E090EB3C
:10391000DC018093FD019093FE01A093FF01B09321
:1039200000029CE088E10FB6F894A89580936000AF
:103930000FBE90936000FFCFEF92FF920F931F9303
:10394000CF93DF93D82FCDE08C2F0E94390405E070
:1039500010E0E82EF12CC701002E02C09595879546
:103960000A94E2F780FF09C0602F7C2F80E00E945C
:103970007706D81302C081E006C00150110958F73C
:10398000C15010F780E0DF91CF911F910F91FF9010
:10399000EF900895CF93C82F8CE20E949C1C88233F
:1039A00021F08C2FCF910C949C1C80E0CF91089536
:1039B000CF930E941F1E811102C00E94051EC5E602
:1039C000C15049F00E944B038FE39CE90197F1F746
:1039D00000C00000F5CF89E20E94CA1C811113C10A
:1039E0008AE20E94CA1C81110E94051E85E00E9485
:1039F000CA1C81110E947A1C0E942A1E8093DC013D
:103A000087E00E94CA1C8823A9F18BE10E94CA1C8E
:103A1000882351F08091DC0181FB222720F991E07D
:103A2000922790FB81F90EC08EE00E94CA1C882369
:103A300061F08091DC0182FB222720F991E092273E
:103A400090FB82F98093DC0115C080E10E94CA1CC2
:103A50009091DC01882341F093FB222720F981E03B
:103A6000822780FB93F904C0892F809580FB90F911
:103A70009093DC018091DC010E942E1E0E943C1E6E
:103A80008093FC0180EE0E94CA1C882341F0809143
:103A9000FC01982F909590FB80F98093FC0189E3BD
:103AA0000E94CA1C882359F08091FC0181FB2227C7
:103AB00020F991E0922790FB81F98093FC0182EE3E
:103AC0000E94CA1C882359F08091FC0182FB2227A6
:103AD00020F991E0922790FB82F98093FC0186EE19
:103AE0000E94CA1C882359F08091FC0183FB222785
:103AF00020F991E0922790FB83F98093FC0183EEFB
:103B00000E94CA1C882359F08091FC0184FB222763
:103B100020F991E0922790FB84F98093FC0185E3E2
:103B20000E94CA1C882359F08091FC0185FB222742
:103B300020F991E0922790FB85F98093FC0181E3C5
:103B40000E94CA1C882359F08091FC0186FB222721
:103B500020F991E0922790FB86F98093FC0181E1A6
:103B60000E94CA1C882359F08091FC0187FB222700
:103B700020F991E0922790FB87F98093FC018091D6
:103B8000FC010E94401E8091FC0187FB882780F980
:103B900080930D0187E20E94CA1CC82F8EE10E940B
:103BA000CA1C8111C2608FE10E94CA1C8111C460CD
:103BB00080E20E94CA1C8111C86081E20E94CA1C76
:103BC0008111C06182E20E94CA1C8111C06283E23D
:103BD0000E94CA1C8111C06484E20E94CA1C88230E
:103BE00011F0C06802C0CC2329F08C2F0E94371E30
:103BF0006C2F03C00E94331E682F70E080E090E0BD
:103C0000CF910C94C718CF9108956DEE7EEF80E0B0
:103C100090E00E94712460E082E090E00E945F24C6
:103C200060E083E090E00E945F2460E084E090E048
:103C30000E945F2460E085E090E00C945F2480E0C7
:103C400090E00E94592421E08D3E9E4F09F020E033
:103C5000822F089582E090E00C945124682F82E036
:103C600090E00C945F2483E090E00C945124682F42
:103C700083E090E00C945F2484E090E00C94512465
:103C8000682F84E090E00C945F248091E40180FF31
:103C90000BC06091130185E0689FB00111247595F8
:103CA0006795759567952BC081FF09C060911301D9
:103CB00085E0689FB00111247595679520C082FF4B
:103CC00007C06091130185E0689FB001112417C0FF
:103CD0009091E5019923D1F060911201961788F730
:103CE0002091130185E0289F90011124929FA0014B
:103CF000939F500D112470E0CA010E942324603864
:103D0000710540F46115710539F002C065E070E09D
:103D1000862F08958FE7089581E008958091E4014A
:103D200080FF08C06091110170E0759567957595E9
:103D3000679521C081FF06C06091110170E0759503
:103D4000679519C082FF04C06091110170E010C036
:103D50009091E5019923C1F0609110019617A0F7A9
:103D600080911101899FC001112470E00E942324D9
:103D70006038710528F46115710521F0862F0895CA
:103D80008FE7089581E0089561E070E0F4CF803F0F
:103D900021F40E94451E819504C0813F29F40E94B0
:103DA000451E8093E8010895823F21F40E94451E3C
:103DB000819504C0833F29F40E94451E8093E7014A
:103DC0000895893F19F40E948E1E05C08A3F31F480
:103DD0000E948E1E81958093E90108958B3F21F406
:103DE0000E948E1E819504C08C3F29F40E948E1E75
:103DF0008093EA010895843F21F48091E601816077
:103E000017C0853F21F48091E601826011C0863F92
:103E100021F48091E60184600BC0873F21F48091FA
:103E2000E601886005C0883F31F48091E601806139
:103E30008093E60108958D3F21F48091E401816033
:103E40000BC08E3F21F48091E401826005C08F3F5A
:103E500029F48091E40184608093E4010895803F17
:103E600039F48091E80187FF6CC01092E80169C0C5
:103E7000813F29F48091E8011816BCF362C090914B
:103E8000E701823F29F497FF5CC01092E70159C017
:103E9000833F19F41916CCF354C0893F41F4809143
:103EA000E90118160CF04DC01092E9014AC08A3F92
:103EB00029F48091E90187FF44C0F6CF8B3F39F4A4
:103EC0008091EA0187FF3DC01092EA013AC08C3F21
:103ED00029F48091EA011816BCF333C0843F21F421
:103EE0008091E6018E7F17C0853F21F48091E60125
:103EF0008D7F11C0863F21F48091E6018B7F0BC03E
:103F0000873F21F48091E601877F05C0883F31F427
:103F10008091E6018F7E8093E60113C08D3F21F4EE
:103F20008091E4018E7F0BC08E3F21F48091E401EB
:103F30008D7F05C08F3F29F48091E4018B7F8093B2
:103F4000E4018091E70181110EC08091E8018111A7
:103F50000AC08091E901811106C08091EA018111B6
:103F600002C01092E501089586EE91E00E9485104E
:103F70000E941F1C9093E3018093E20108951F9318
:103F8000CF93DF938091E2019091E3010E942B1C7B
:103F9000AC019091E501992321F02091140130E0CA
:103FA00006C0209115018AE0289F90011124421734
:103FB000530708F486C08091E701C091E801D091D1
:103FC000E9011091EA01811107C0C11176C0D11138
:103FD00074C0111172C075C09F3F19F09F5F90931C
:103FE000E501181624F40E94451E8093E701809194
:103FF000E70187FF05C00E94451E81958093E70178
:104000001C1624F40E94451E8093E8018091E8016B
:1040100087FF05C00E94451E81958093E80160914D
:10402000E701662339F1C091E801CC2319F1772724
:1040300067FD7095872F972F0E94342323E333E386
:1040400043E35FE30E9498230E9401236093E7010A
:104050006C2F772767FD7095872F972F0E94342349
:1040600023E333E343E35FE30E9498230E940123A9
:104070006093E8011D1624F40E948E1E8093E901CE
:104080008091E90187FF05C00E948E1E8195809373
:10409000E901111624F40E948E1E8093EA0180919A
:1040A000EA0187FF05C00E948E1E81958093EA0178
:1040B000DF91CF911F910C94B41F9F3F09F08ECFD9
:1040C00096CFDF91CF911F910895E6EEF1E085E064
:1040D000DF011D928A95E9F71092E5011092E40143
:1040E0000895833081F128F4813059F08230D1F085
:1040F0000895853009F449C0B8F1863009F456C0F6
:10410000089580911501262F30E0280F311D2F3F93
:10411000310524F4680F6093150108958FEF8093A3
:104120001501089580911401262F30E0280F311DCC
:104130002F3F310524F4680F6093140108958FEF29
:1041400080931401089580911301262F30E0280FE9
:10415000311D2F3F310524F4680F6093130108953A
:104160008FEF80931301089580911201262F30E084
:10417000280F311D2F3F310524F4680F6093120181
:1041800008958FEF80931201089580911101262FD9
:1041900030E0280F311D2F3F310524F4680F609364
:1041A000110108958FEF80931101089580911001FE
:1041B000262F30E0280F311D2F3F310524F4680FE2
:1041C0006093100108958FEF80931001089583305C
:1041D00011F128F4813049F0823091F00895853052
:1041E00081F120F18630C1F10895809115016817A1
:1041F00020F4861B809315010895109215010895EF
:1042000080911401681720F4861B8093140108958F
:1042100010921401089580911301681720F4861BF1
:104220008093130108951092130108958091120153
:10423000681720F4861B80931201089510921201D2
:10424000089580911101681720F4861B8093110155
:10425000089510921101089580911001681720F4BB
:10426000861B8093100108951092100108950F93FA
:104270001F938D3109F46BC008F03FC08E3009F4F4
:104280007FC0C0F4873009F469C068F4863009F053
:10429000B1C08091DC01817F8E7F8093DC0181E061
:1042A0008093EC01A8C0883009F4A2C08B3009F4D7
:1042B0009FC0A0C0863109F49BC078F4803109F416
:1042C00072C0813109F096C00E94071590910D01CE
:1042D00081E0892780930D018BC0893109F488C062
:1042E0008B3109F087C08091DC0181FB222720F906
:1042F00091E0922790FB81F94CC0853309F470C09E
:1043000048F4873209F46CC008F459C0893209F4C2
:1043100067C070C0833438F48A3308F04EC08833E5
:1043200009F466C067C0833409F45AC0883409F0C0
:1043300061C00E9407150FEF13ED20E301501040FC
:104340002040E1F700C000000E947A1C51C00E948A
:10435000BB220E946E100E9467094AC09091DC0146
:10436000892F8095817080FB90F929F09660986084
:104370009093DC0140C0997F977F9093DC0138C017
:104380008091DC0182FB222720F991E0922790FBAB
:1043900082F98093DC01992359F18091DC018160DD
:1043A0008093DC0125C08091DC0183FB222720F96A
:1043B00091E0922790FB83F9ECCF895301C08D5196
:1043C00041E050E060E070E08A019B0104C0000F12
:1043D000111F221F331F8A95D2F7C901B80104C0EB
:1043E00061E070E080E090E00E94C7180E9407152D
:1043F00081E001C080E01F910F91089580E0089551
:1044000080E00895CF93C82F8091EC01813079F03E
:1044100018F08230E9F187C0E0910E01F0910F01B0
:104420008081813169F0823209F07FC009C0E0915A
:104430000E01F0910F018081813111F0823261F41F
:104440008C2F0E94FE21811104C08C2F0E943721E5
:104450001DC081E090E01AC08C2F0E9400228111C3
:1044600014C0C43179F048F4CB3079F0C03109F090
:1044700060C082E08093EC0108C0C93219F0C833F3
:1044800021F057C01092EC0154C081E0817053C0FC
:10449000C93289F118F5C43171F1A8F4C73009F0B7
:1044A00046C08AE08093150194E19093140193E053
:1044B000909313018093120188E08093110188E2A8
:1044C0008093100134C0CE51C63088F5EC2FF0E057
:1044D000E65DFE4F80818093EB0129C0CE34E9F088
:1044E00020F4CB3421F56AE013C0C13579F0C23530
:1044F000F1F461E00DC08091EB01882319F0109276
:10450000EB0115C081E08093EC0115C061E006C0AD
:104510008091EB010E9471200AC06AE08091EB015A
:104520000E94E72004C01092EC0180E004C081E00A
:1045300002C080E0ABCFCF910895E1E8F0E0808148
:10454000886080838081816080838FB7F89493E056
:104550009093890090ED909388008FBF0895EFE6C7
:10456000F0E08081826080830895EFE6F0E0808152
:104570008D7F80830895EFE6F0E0908182E08927C7
:10458000808308951F920F920FB60F9211242F93DC
:104590003F934F935F936F937F938F939F93AF93CB
:1045A000BF93EF93FF938091ED019091EE010196FF
:1045B0009093EE018093ED01811103C082E00E948F
:1045C0006709E091EE01E695E695F0E0EC54FB4FCB
:1045D000E4918091ED018E1303C080E00E94670991
:1045E000FF91EF91BF91AF919F918F917F916F91CB
:1045F0005F914F913F912F910F900FBE0F901F90A1
:10460000189504D06894B1118DC0089570D088F0C9
:104610009F5790F0B92F9927B751A0F0D1F0660FAE
:10462000771F881F991F1AF0BA95C9F712C0B130C9
:1046300081F077D0B1E0089574C0672F782F882774
:10464000B85F39F0B93FCCF3869577956795B39508
:10465000D9F73EF490958095709561957F4F8F4F77
:104660009F4F0895E89409C097FB3EF4909580957C
:10467000709561957F4F8F4F9F4F9923A9F0F92F28
:1046800096E9BB279395F695879577956795B795A6
:10469000F111F8CFFAF4BB0F11F460FF1BC06F5F8C
:1046A0007F4F8F4F9F4F16C0882311F096E911C09E
:1046B000772321F09EE8872F762F05C0662371F0BF
:1046C00096E8862F70E060E02AF09A95660F771FD3
:1046D000881FDAF7880F9695879597F9089557FD03
:1046E0009058440F551F59F05F3F71F04795880F60
:1046F00097FB991F61F09F3F79F0879508951216F7
:1047000013061406551FF2CF4695F1DF08C01616A2
:1047100017061806991FF1CF869571056105089453
:104720000895E894BB2766277727CB0197F908956A
:104730000BD078C069D028F06ED018F0952309F01E
:104740005AC05FC01124EECFCADFA0F3959FD1F30A
:10475000950F50E0551F629FF001729FBB27F00D2F
:10476000B11D639FAA27F00DB11DAA1F649F662784
:10477000B00DA11D661F829F2227B00DA11D621FD3
:10478000739FB00DA11D621F839FA00D611D221F8D
:10479000749F3327A00D611D231F849F600D211D71
:1047A000822F762F6A2F11249F5750408AF0E1F014
:1047B00088234AF0EE0FFF1FBB1F661F771F881F5D
:1047C00091505040A9F79E3F510570F014C0AACFF8
:1047D0005F3FECF3983EDCF3869577956795B79548
:1047E000F795E7959F5FC1F7FE2B880F911D969572
:1047F000879597F9089597F99F6780E870E060E0E2
:1048000008959FEF80EC089500240A941616170669
:1048100018060906089500240A94121613061406B1
:1048200005060895092E0394000C11F4882352F014
:10483000BB0F40F4BF2B11F460FF04C06F5F7F4FCC
:104840008F4F9F4F089597FB072E16F4009407D0C3
:1048500077FD09D00E943D2407FC05D03EF49095D9
:1048600081959F4F0895709561957F4F0895EE0F44
:10487000FF1F0590F491E02D0994AA1BBB1B51E189
:1048800007C0AA1FBB1FA617B70710F0A61BB70BC0
:10489000881F991F5A95A9F780959095BC01CD0165
:1048A0000895F999FECF92BD81BDF89A992780B5F8
:1048B0000895A8E1B0E042E050E00C947924262F5E
:1048C000F999FECF92BD81BDF89A019700B4021606
:1048D00039F01FBA20BD0FB6F894FA9AF99A0FBEB4
:1048E00008950196272F0E9460240C945F24DC0118
:1048F000CB01FC01F999FECF06C0F2BDE1BDF89AEB
:10490000319600B40D9241505040B8F70895F89494
:02491000FFCFD7
:1049120002206909F709D409A0096C090101C9013A
:1049220028080A03140A3F4D363975042804F20395
:10493200B9034C0365037E039703010203040506D2
:044942000708090059
:00000001FF
