:100000000C94EA030C9407040C9407040C946D26DA
:100010000C9407040C9407040C9407040C94070434
:100020000C9407040C9407040C947F210C943B213E
:100030000C947C220C9407040C9407040C94070481
:100040000C9407040C9407040C9407040C94070404
:100050000C9407040C9458220C9407040C94070485
:100060000C9407040C9407040C9407040C940704E4
:100070000C9407040C9407040C9407040C940704D4
:100080000C9407040C9407040C9407040C940704C4
:100090000C9407040C9407040C9407040C940704B4
:1000A0000C9407040C9407040C9407044049504333
:1000B000003A20002C20003C3E010150005B5D0115
:1000C0000150002C2000282901015000010190015D
:1000D000010701019000010190010106010190005A
:1000E000010190010105010190000101900101044D
:1000F00001019000656820002C2000636A64726E24
:10010000676B6420002C2000616E73656B732000A8
:100110005B5D0101500045303547004530364200F7
:1001200045303543004530354200413431443133A8
:100130002F313100413632423233004136324231C2
:10014000380029001E001F00200021002200557EDB
:1001500014001A00080015001700D14004221624CC
:10016000072109220A00E1001D281B0006001900D2
:100170000500D100D2002B212A442A2261522D00F1
:10018000270026002500240023002E001300120063
:100190000C0018001C00340033220F000E000D006C
:1001A0000B00310038283724362110001100685226
:1001B000910090472C432846050029001E001F008F
:1001C000200021002200557E14001A0008001500AE
:1001D0001700E10004001600070009000A00E30010
:1001E0001D001B00060019000500010001002B2165
:1001F0002A442A22010001002700260025002400AD
:1002000023000100130012000C0018001C00010064
:1002100033220F000E000D000B0001003828372498
:100220003621100011000100010001000100010051
:1002300005000000000000000000000000000000B9
:1002400000000000000000000000000000000000AE
:10025000000000000000000000000000000000009E
:10026000000000000000000000000000000000008E
:10027000000000000000000000000000000000007E
:10028000000000000000000000000000000000006E
:10029000000000000000000000000000000000005E
:1002A0000000000000000000000001003A013B00D7
:1002B0003C003D043E002B08567E0D050E050F0543
:1002C0003F003D09E300E200E000E10040000709D3
:1002D0001D431B0106011901050150094F090100C9
:1002E0002A004C0008520000270426042504240498
:1002F000000000000000230422042104000000008C
:100300004F00520051005000490000004D004B00CA
:100310004E004A00650001000100010001000100DB
:10032000000001004E7E13001B003D040000010090
:1003300000000000547E537E38000100044416443F
:100340002D210944370001001D44527E06442E0031
:100350003100D900DA00010001000100085201005B
:1003600000002702260230002F00010000002600B6
:10037000250024003500340233022300220021002E
:10038000517E3102010020001F001E0000002702E4
:1003900026020100274301000000000000000000C9
:1003A000000000000000000000000000000000004D
:1003B000000000000000000000000000000000003D
:1003C000000000000000000000000000000000002D
:1003D000000000000000000000000000000000001D
:1003E000000000000000000000000000000000000D
:1003F00000000000000000000000000000000000FD
:1004000000000000000000000000000000000000EC
:10041000000001003A013B003C003D043E00180092
:100420000000DA00CD00D9003F001300E100CF004A
:10043000CE00D00040001B00E300E200E000E1003D
:10044000050101000100E0002C0028000052007CA2
:1004500043004200410040003F00047C00000000D7
:100460000000DF0000002800D300D200D100DD0032
:10047000000000004F0052005100500065000100D4
:1004800001000100010001000000010020780000CF
:1004900000000000000000002178237825782778EC
:1004A00000000000E100E200E000E10000000000C8
:1004B000E300000000000000000001000100010056
:1004C000010001000000000000000000000000002A
:1004D0000000000000004200410040004500000014
:1004E00000003F003E003D004400000000003C00D2
:1004F0003B003A00430036023702010001000100D0
:10050000000029003A01000000523D040000557E21
:100510000000D2005200D1000000520850085000E4
:1005200051004F002A0001003D04D200D100D40048
:100530002800010001002B21E100D400005200003E
:1005400000000000000000000000000000000000AB
:10055000CD000000000000000000D000CE00CF0061
:10056000000000000000000000000000000001008A
:10057000010001000100010000000100DA0100009B
:1005800027043D0400002B00D90121042204230488
:100590001B002800160A1E041F0420044E7E2C0097
:1005A000000024042504260413000100E2000100D9
:1005B000010001000052007C00000000000000006B
:1005C000000000000000000000000000000000002B
:1005D000000000000000000020780000E100277803
:1005E00025782378217836023702010001000100C6
:1005F00000520000000000000000000000000000A9
:1006000000000000000000000000000000000000EA
:100610000000000000007E0F00D4FFFFFFC70000B5
:10062000007800000000000000002A2B28000000D5
:100630000000000000000000000000000029000091
:1006400000002C1E3420212224342627252E362D6E
:100650003738271E1F202122232425263333362E08
:1006600037381F0405060708090A0B0C0D0E0F107A
:100670001112131415161718191A1B1C1D2F3130BF
:10068000232D350405060708090A0B0C0D0E0F1063
:100690001112131415161718191A1B1C1D2F31309F
:1006A000354C05010902A10185020901A1000509D6
:1006B0001901290815002501950875018102050118
:1006C000093009311581257F9502750881060938A1
:1006D0001581257F950175088106050C0A380215DC
:1006E00081257F950175088106C0C005010980A19B
:1006F00001850319012AB700150126B70095017578
:10070000108100C0050C0901A101850419012AA06E
:1007100002150126A002950175108100C00501098E
:1007200006A101050719E029E715002501950875BF
:100730000181029501750881010507190029FF153E
:100740000026FF0095067508810005081901290596
:10075000950575019102950175039101C009023B50
:1007600000020100A0FA09040000010301010009D0
:100770002111010001224000070581030800010941
:100780000401000103000000092111010001227B86
:10079000000705820320000112010002000000088A
:1007A0008379694B0100010200010E034B006900CF
:1007B0006D0069006B006F00000014034B006500C2
:1007C0007900630061007000730073007300000023
:1007D0000403090411241FBECFEFDAE0DEBFCDBF52
:1007E00011E0A0E0B1E0ECE3F1E502C005900D926C
:1007F000AE36B107D9F722E0AEE6B1E001C01D92F6
:10080000A53BB207E1F70E94A3220C9486280C9422
:100810000000813D20E49207A9F048F48B3221E2E8
:10082000920781F08A32924269F080E0089588321E
:1008300026E4920739F0803927E4920719F08D31C8
:10084000944499F781E00895FC01AC014B5F5F4F40
:100850008FEF91E32191822728E030E087FF09C0E4
:10086000880F892721503109C9F7E417F50791F757
:100870000895880FF7CFE8EDF0E080818E7F8083C8
:100880001092E2001092DA001092E100A0EEB0E0C7
:100890008C9181608C9380818F77808319BCA7EDC8
:1008A000B0E08C918E7F8C9380818F7E80831092BC
:1008B0009D0208952091E4003091E50095E6A9019C
:1008C0002091EC00822F817020FF06C08091E8000B
:1008D00080FF06C080E008952091E80022FD1AC044
:1008E0008091AB02882389F0853089F08091EB00FC
:1008F00085FD0FC02091E4003091E50042175307B9
:10090000F9F29150E1F684E0089582E0089583E0E1
:10091000089581E008958091AD0287FF13C0809112
:10092000E80082FF06C08091E8008B778093E800A2
:1009300004C08091AB028111F2CF08958091AB0287
:100940008823D9F38091E80080FFF8CF8091E800F8
:100950008E77ECCF982F9093E900242F762F50E0DC
:10096000891731F07091EC002091ED005091F0006A
:1009700021FD07C09F5F973071F78093E90081E008
:1009800008953091EB003E7F3093EB003091ED0005
:100990003D7F3093ED003091EB0031603093EB0000
:1009A0007093EC002093ED005093F0002091EE0046
:1009B00027FDE0CF80E00895B0E0A0E0E2EEF4E0B3
:1009C0000C949327C8EDD0E088818F7E8883E7ED73
:1009D000F0E080818160808384E082BF81E0809349
:1009E0009D0288818E7F888302EE10E0F8011082DC
:1009F0001092DA0081EEC82ED12CF6011082888187
:100A00008F77888388818068888388818F7D8883B9
:100A100019BC1092AB021092AC021092AA02109272
:100A2000A90290EEE92EF12CF70180818B7F808363
:100A300088818160888342E060E080E00E94AA04AF
:100A4000F60180818E7F8083F801808181608083C0
:100A5000808188608083F70180818E7F8083888198
:100A600080618883CDB7DEB7E8E00C94AF27FC0146
:100A70008091B3029091B40286179707A0F0611598
:100A8000710529F49091E8009E779093E80090E03A
:100A90006115710551F4911108C08091E80082FF41
:100AA00034C080E00895BC01F2CF8091AB0288236E
:100AB000C1F18530C1F18091E80083FD30C08091A3
:100AC000E80082FDEACF8091E80080FFE1CF8091CD
:100AD000F3002091F200382F6115710519F02830CC
:100AE000310558F091E02830310509F090E020916F
:100AF000E8002E772093E800CBCF81918093F1001E
:100B0000615071092F5F3F4FE7CF8091AB0288237F
:100B100041F0853041F08091E80083FFBECF81E055
:100B2000089582E0089583E008958091A0020895D9
:100B30009C014FB7F8948091990290919A02A091EC
:100B40009B02B0919C024FBF821B930B08952FB75D
:100B5000F8946091990270919A0280919B02909111
:100B60009C022FBF08952FB7F8948091990290911D
:100B70009A02A0919B02B0919C022FBF0895A3E01E
:100B8000B0E0E5ECF5E00C949927209196023091C5
:100B9000970228173907A1F0909397028093960245
:100BA000E0919402F0919502309751F024E029836E
:100BB0009B838A830680F781E02DCE0101960995FB
:100BC0002396E2E00C94B527A3E0B0E0EAEEF5E06E
:100BD0000C9499272091920230919302281739079B
:100BE000A1F09093930280939202E0919402F0918D
:100BF0009502309751F023E029839B838A830680F6
:100C0000F781E02DCE01019609952396E2E00C9440
:100C1000B527CF93DF93EC01409187025091880272
:100C20006091890270918A022FB7F894809199029D
:100C300090919A02A0919B02B0919C022FBF841BBD
:100C4000950BA60BB70B843F9140A105B10518F594
:100C50008091870290918802A0918902B0918A02C6
:100C60008093830290938402A0938502B0938602BE
:100C700084EF91E0A0E0B0E080937F029093800247
:100C8000A0938102B0938202D0938F02C0938E0210
:100C9000DF91CF9108950E94A7056093830270931E
:100CA0008402809385029093860282E390E0A0E024
:100CB000B0E0E2CFFC018581862351F49281992333
:100CC000B9F06923818583FF05C081E061110FC000
:100CD00080E00895892F8F7092959F70982B862FB2
:100CE0008F7062956F70682B81E09613F1CF089535
:100CF00081E0FDCF0E94B3059C0190915602809146
:100D00005702982B21F03093530220935202909176
:100D1000580280915902982B21F030935102209370
:100D20005002E0919402F0919502309749F082E0F0
:100D3000809354020480F581E02D84E592E00995CA
:100D4000089587FD27C067FF14C0062E000C770B9F
:100D50006F5F7F4F98ED969F9001979F300D112404
:100D600037FF02C021503F4F632F811111C0862FE2
:100D7000089581110BC06623D1F328ED6203B00101
:100D80001124672F87FFF3CF6150F1CF6E317CF7CD
:100D90006F5FEDCF16168CF3633E4CF3F5CF81E019
:100DA00008958823B1F040914D0280914C029091BA
:100DB0004902923098F491E090934902082E000C79
:100DC000990B81382FEF92070CF042C081E89FEF1A
:100DD000089540914B0280914A02E9CF842F042E5E
:100DE000000C990B982F80E06EE170E00E94C02704
:100DF0009B01DB010E94FC27BB2797FDBA95A92F19
:100E0000982F872FFC0147FF0EC0EE27FF27E81B16
:100E1000F90B21E030E0411102C030E020E03195D3
:100E20002195310904C021E030E0442391F34CE0E6
:100E30004E9FC0014F9F900D1124892F990F990B40
:100E4000820F931F8038910509F0BBCF8FE790E0A8
:100E5000089580E00895F894E82FE295EF70F0E0AF
:100E600031A1282F2F7081E090E001C0880F2A95D2
:100E7000EAF7982F9095932391A392A1892B82A3AF
:100E80007894089590912B0292FF06C0282F287124
:100E90002830F9F4877F846093FF06C0282F2871DB
:100EA0002831F1F4877E846120912C0220FF06C056
:100EB000382F38713830D9F4877F816021FF06C020
:100EC000282F28712831D1F4877E816194FD877E97
:100ED0000895282F24712430F9F68B7F8860DCCFA9
:100EE000282F2471243101F78B7E8861DDCF382FC4
:100EF0003171313019F78E7F8860E0CF282F217152
:100F0000213121F78E7E8861E1CF82389105B9F1D8
:100F1000B0F48133910509F47DC048F4893291051C
:100F200009F46DC08A32910509F47BC008958533B8
:100F3000910509F45FC08933910509F10895833E55
:100F40009105D9F138F4803E910529F1823E910551
:100F500079F10895863E9105D9F1873E910509F40E
:100F60003EC0843E910541F520912C0221FF24C012
:100F700080912B0284FD19C087EE90E008952091A6
:100F80002B02237009F05AC020912C0223FF14C0B9
:100F900089E290E0089520912B0220FD38C0309125
:100FA0002C0230FF09C024FF43C090E080E0089588
:100FB00020912B0222FDF7CF089520912B0222FDD4
:100FC0003AC030912C0230FD39C024FFF5CFEDCF6F
:100FD00020912B0223FFF0CF24FDE7CFCDCF20912E
:100FE0002B0223FD2EC030912C0231FFEECF84EE78
:100FF00090E0089520912B0225FFDECFC9CF2091EC
:101000002B0225FD21C020912C0223FFD5CF89E39F
:1010100090E0D2CF20912B0226FFCECF8AE290E043
:10102000089520912B0226FFC7CF81E390E0089519
:1010300083EE90E0089582EE90E0089580EE90E0D7
:10104000089586EE90E0089585E390E00895972F47
:101050007A30B8F46630A8F48A30B0F470E026E054
:10106000929F600D711D1124FB019CE3899FE00D8F
:10107000F11D1124EE0FFF1FEE5BFE4F8591949141
:10108000089580E090E0089581E0FCCF1F93CF9316
:10109000DF930E948507EC01C11580E5D807F0F5C4
:1010A000C11580E4D80708F09CC0C03ED10520F5EA
:1010B000CD3CD10508F082C0C83AD10578F4C53AD4
:1010C000D10508F073C0C130D10519F1209709F19D
:1010D000C430D105F0F4D0E0C0E01BC0C33CD10562
:1010E000D0F7C85AD0E0CC0FDD1FC55DDE4F0990A8
:1010F000D881C02DD4640DC0C11580E2D80708F096
:10110000D1C0C11581E0D80708F05AC0C83ED1054A
:1011100010F7CE01DF91CF911F910895C03682E57F
:10112000D80718F5C03482E5D80708F06BC0C03284
:1011300082E5D80708F05FC0C11582E5D80708F43A
:1011400097C02C2F2695269580E2289F9001112488
:101150008C2F8370C1E0D0E002C0CC0FDD1F8A95D8
:10116000E2F7C22BD32BDD68D4CFC03A82E5D80793
:1011700060F4C03882E5D80708F459C0CF71D0E0D8
:10118000DC2FCC27C46FD06AC4CFC03C82E5D8071F
:1011900008F462C0C03E82E5D80708F09CCFDC2F7F
:1011A000CC27CC27DF71C06FD06AB3CFC55AD0E04F
:1011B000C85DDE4FC881D0E0D064ABCFD065A9CF89
:1011C0008D2F0E944207182FCE0199270E94850774
:1011D000C12FD0E0DC2FCC27CC27DF71C82BD92B37
:1011E00098CFCE0199270E948507CC27DF70C82BA6
:1011F000D92BD06A8ECFCF71D0E0DC2FCC27C16F36
:10120000D06A87CF2C2F26952695277080E2289FBD
:10121000900111248C2F8370C1E0D0E002C0CC0F6C
:10122000DD1F8A95E2F7C22BD32BDC6872CF2C2FFF
:1012300026952695277080E2289F900111248C2FF7
:101240008370C1E0D0E002C0CC0FDD1F8A95E2F7C9
:10125000C22BD32BDA685DCF8C2F8F710E9442078F
:10126000C82FD0E0DC2FCC27CC27DF71D06251CF44
:101270008C2F8F710E94420755E0D695C7955A95DD
:10128000E1F7CF70D0E0DC2FCC27282F30E084FFAF
:1012900005C044E0220F331F4A95E1F7C22BD32B40
:1012A000D06937CF8D2F8F710E944207182FCE0142
:1012B00099270E948507C12FD0E0DC2FCC27CC27AF
:1012C000DF71C82BD92BD2CF8091EE01882331F06A
:1012D0001092EE011092ED011092EC010895CF935F
:1012E000C82F80912C0282FF0CC08091EE018C17D8
:1012F00041F00E94B3059093ED018093EC01C093FF
:10130000EE01CF910895809590919E02982390933D
:101310009E020895E2E7F1E09191891303C0DF0195
:1013200011971C9291E0E837F907B1F70895A2E709
:10133000B1E0EFEF90E02D91821751F0EF3F19F4FB
:10134000211101C0E92F9F5F9630A9F7EF3F09F403
:1013500008950E2E000CFF0BE059FE4F8283089576
:101360002091E0019091AF0156E0291302C080E086
:10137000089530E0529FF001539FF00D1124E05585
:10138000FE4F7181761306C07081781303C072819D
:10139000741304C02F5F3F4F2770E7CF81E008959B
:1013A0008091E0019091AF01981301C008958F5F83
:1013B0008770FACFB0E0A0E0E0EEF9E00C9492275D
:1013C0007C010091290210912A02809127029091BC
:1013D0002802082B192BCFE0D0E0CC24C394D12CC9
:1013E000BC2EC6010C2E02C0880F991F0A94E2F78A
:1013F00080239123892B49F4219790F7B12C8B2DD1
:10140000CDB7DEB7E9E00C94AE27B7018C2F0E9470
:1014100027080E944608019779F3F1CFCF93DF9315
:10142000EC010E94DA09BE010E9427080E944608CA
:10143000DF91CF9108959A3078F5863068F5E82FDE
:10144000F0E086E0989FE00DF11D11249E2F97702B
:1014500083E0F695E7958A95E1F7EE0FFF1FEE0F13
:10146000FF1FE757FE4F50E040E080E0219130E061
:10147000092E02C0369527950A94E2F7217033278A
:10148000042E01C0220F0A94EAF7822B4F5F5F4FB0
:101490004430510559F7089580E008959A3098F541
:1014A000863088F5E82FF0E086E0989FE00DF11D8A
:1014B00011248E2F877041E001C0440F8A95EAF70E
:1014C00083E0F695E7958A95E1F7EE0FFF1FEE0FA3
:1014D000FF1FE757FE4F30E020E070E05191DF0141
:1014E0001197CB01022E02C0969587950A94E2F7D8
:1014F000817081958527842385278C932F5F3F4FAB
:101500002430310559F7089590932A0280932902D7
:10151000089521E030E002C0220F331F8A95E2F7E0
:10152000209530958091290290912A02822393235D
:101530000E94840A08959091E30180958923809305
:10154000E301282F2770B1F4282F082E000C330B4D
:101550009217130679F090912C0292FF0BC085959B
:10156000859585950E94890A1092E3011092E20107
:101570001092E101089521E030E002C0220F331FF4
:101580008A95E2F78091290290912A02822B932B6F
:101590000E94840A08959093280280932702089558
:1015A000FC0183819481892B29F080819181892399
:1015B0008F3F51F480E00895843FE1F717C0883EE3
:1015C000A8F0813FB9F712C0808191810E940E0A74
:1015D00092959F70963099F358F4925F9F70923075
:1015E00048F7803F19F040F7883E20F781E00895E2
:1015F0009A5FF4CF662309F46DC093E3980F92309D
:1016000098F48E3C79F08FEF80934C0280914902E0
:10161000823028F481E00E94D106809357020E9414
:101620007A06089581E0F0CF91E3980F923088F424
:10163000803D69F08FEF80934A02809149028230A9
:1016400070F780E00E94D10680935602E8CF81E0D7
:10165000F2CF893D29F40E94CF0680935802DFCF54
:101660008A3D21F40E94CF068195F7CF8B3D31F45E
:101670000E94CF06819580935902D1CF8C3D19F4F9
:101680000E94CF06F8CF9FE2980F983070F4815DEA
:10169000990B21E030E001C0220F8A95EAF7809192
:1016A0005502822B80935502BACF8D3D31F4809143
:1016B0004F02816080934F02B2CF8E3D21F4809122
:1016C0004F028260F7CF8F3D09F0A9CF80914F0282
:1016D0008460F0CF8D3C81F480914C02181614F098
:1016E00010924C028091580290915902892B09F076
:1016F00096CF10924E0293CF8E3C29F480914C02EB
:1017000087FFEECFEFCF8F3C39F480914A02181655
:101710004CF310924A02E6CF803D29F480914A02B0
:1017200087FFF7CFDFCF90915802893D29F4191632
:10173000CCF610925802D6CF8A3D19F497FFD2CF3B
:10174000F8CF909159028B3D29F497FFCBCF10929F
:101750005902C8CF8C3D19F41916CCF3C3CF9FE2C0
:10176000980F983090F4815D990B21E030E0A90149
:1017700002C0440F551F8A95E2F7CA0180959091E7
:101780005502892380935502ADCF8D3D31F4809170
:101790004F028E7F80934F02A5CF8E3D21F4809122
:1017A0004F028D7FF7CF8F3D09F09CCF80914F0284
:1017B0008B7FF0CFA5E0B0E0E0EEFBE00C94982743
:1017C00049835A8389819A81662399F0222389F07B
:1017D0000E94DA09182F682F89819A810E944E0A87
:1017E00069817A81812F0E9427082596E3E00C9475
:1017F000B4270E941B0A182FF3CF9C013A9521159C
:101800003F4150F5FC01EE27F170BC016627727074
:10181000AC01442754709C012227387094FF0EC0FD
:1018200080E1EF2B09F480E0672B09F08062452B03
:1018300009F08064232B89F08068089581E0EF2B04
:1018400009F480E0672B09F08260452B09F0846081
:10185000232B19F08860089580E008950F931F935B
:10186000CF93DF938B01EA019091AB02943061F545
:101870008093E9008FEF9091E800815095FD06C0BC
:1018800095ED9A95F1F700008111F5CF8091E80070
:1018900085FF1AC00E945A04811111C08091E8008E
:1018A00085FD06C08091E8008E778093E800F2CF36
:1018B000F80181918F018093F100219779F7809150
:1018C000E8008E778093E800DF91CF911F910F9110
:1018D000089543E050E0BC0182E00E942E0C089580
:1018E00046E050E0BC0182E00E942E0C0895CF93A8
:1018F000DF93EC0148E050E0BC0181E00E942E0C37
:1019000088E0FE01A1EAB2E001900D928A95E1F72C
:10191000DF91CF910895B0E0A0E0E1E9FCE00C9404
:1019200091277C015B016A018091160201E010E0C1
:101930008A3010F40AE010E0C1E0D0E0B501C70140
:10194000F6010995811104C021960C171D072CF48E
:10195000CDB7DEB7EAE00C94AD27CC9F9001CD9FC8
:10196000300D300D112490E080E045E34A95F1F709
:101970000000019682179307C1F7E0CF8091FE0126
:10198000811110C08091D80080618093D8008AE1D5
:101990008A95F1F700C08091D90080FF0AC081E0EC
:1019A0008093FE0181E09091FE01913009F080E08A
:1019B000089582E08093FE010E943B041092AB02E6
:1019C000F1CF0E94BE0C882359F0E0919402F0916F
:1019D0009502309729F00190F081E02D0995089546
:1019E00080E0089580919E0290915A02892B809305
:1019F00070018091EE01882319F10E94B3052091B6
:101A0000EC013091ED01821B930B8838934110F06B
:101A10000E946409809170019091EE01892B80935E
:101A2000700120E082E791E0FC013191CF0131119A
:101A30002F5FF1E088379F07B9F721110E946409F1
:101A400080918B02809590917001892390918C02F6
:101A5000892B8093700148E050E064EE71E080E7EC
:101A600091E00E947028892BA9F088E0E0E7F1E07E
:101A7000A4EEB1E001900D928A95E1F7E091940215
:101A8000F0919502309731F00280F381E02D80E7EC
:101A900091E00995089580912601877F8093260122
:101AA00090915A029D7F90935A0284FF08C08F7EC6
:101AB0008093260180919E02826080939E02809195
:101AC000260185FF08C08F7D8093260180919E02AC
:101AD000806280939E020E94F20C0895882341F058
:101AE000809590915A02892380935A020E94F20CA9
:101AF0000895882339F090915A02982B90935A02B6
:101B00000E94F20C0895882321F00E9483090E940C
:101B1000F20C0895882339F090919E02982B9093AF
:101B20009E020E94F20C0895882309F456C0823860
:101B300079F40E94E10C81FF50C089E30E9497096B
:101B40000E94F20C89E30E948A090E94F20C089517
:101B5000833859F40E94E10C80FF3FC083E50E9466
:101B600097090E94F20C83E5EECF843859F40E9465
:101B7000E10C82FF32C087E40E9497090E94F20CB8
:101B800087E4E1CF9CEF980F913AE8F290E2980F4A
:101B9000983050F4877091E001C0990F8A95EAF768
:101BA000892F0E948309D1CF9BE5980F933028F4A9
:101BB00090E080E00E94E405089598E5980F9B313D
:101BC00028F490E080E00E94BF05089593E3980F09
:101BD000933118F460E00E94FA0A0895FF920F937F
:101BE0001F93CF93DF93F82E0091900210919102F2
:101BF0000115110509F449C010928F0210928E024E
:101C000010928B0210928C02D8011796CD91DC9124
:101C10009E013A9521153F4108F4D07ED1E0C111D3
:101C200001C0D0E0D8011A96ED91FC911B97309736
:101C300031F01C966D917C9180E00995D823DD23CD
:101C400039F08CEF8C0F813A30F58C2F0E948A0985
:101C5000FF2099F0E0919002F0919102818584FD3E
:101C60000CC080918D02882341F0808191819C017C
:101C7000215031092F333E47A0F00E94F20C109200
:101C800091021092900210928D02C801CDB7DEB77A
:101C9000E5E00C94B2270E94F20C8C2F0E94940D68
:101CA000D7CF0E940906E9CFCF93DF93EC010E94C2
:101CB000940DCE010E94FD0B9E01205E310928305B
:101CC000310510F0CD2B29F40E94830DDF91CF91C7
:101CD00008950E946E0DFACFCF93C82F8823C9F0C4
:101CE0008238C9F40E94E10C81FD13C089E30E948F
:101CF00097090E94F20C2FEF87EE93E0215080406D
:101D00009040E1F700C0000089E30E948A090E9428
:101D1000F20CCF9108958338A1F40E94E10C80FD6C
:101D2000F8CF83E50E9497090E94F20C2FEF81EE15
:101D300094E0215080409040E1F700C0000083E52E
:101D4000E4CF8438A1F40E94E10C82FDE2CF87E465
:101D50000E9497090E94F20C2FEF81EE94E021502F
:101D600080409040E1F700C0000087E4CECF8CEFC8
:101D70008C0F813A68F4E2E7F1E08191C817E9F14C
:101D800021E0E837F207C9F78C2F0E949709BFCFEF
:101D900080E28C0F883068F4C77021E030E001C029
:101DA000220FCA95EAF780919E02822B80939E02B1
:101DB000AECFEBE5EC0FE33040F4F0E0E85DFE4F32
:101DC000808190E00E94E405A4CFE8E5EC0FEB31C0
:101DD00050F4F0E0EE0FFF1FE55DFE4F8081918132
:101DE0000E94BF0596CF83E38C0F833108F091CF1B
:101DF00061E08C2F0E94FA0A8CCF8C2F0E948A09F6
:101E00000E94F20CC1CF1F93CF93DF93182FD0E025
:101E1000C0E0893311F4C0E5D0E0812F0E946C0E40
:101E2000209739F4812F0E94940DDF91CF911F915B
:101E300008958FE99FE00197F1F700C00000219716
:101E4000EFCFB0E0A0E0E7E2FFE00C949427E82FAA
:101E5000F0E0EE5DF94FD490282F26952695269533
:101E600030E0F901EE5EF94F0491877010E0082E22
:101E700002C0159507950A94E2F701701127F90140
:101E8000EE5FF94FE490F12C082E02C0F594E79430
:101E90000A94E2F791E0E922FF24F901EE50FA4FAB
:101EA000C491D0E002C0D595C7958A95E2F7C1707C
:101EB000DD270115110519F081EE0E946C0EE11469
:101EC000F10419F086EE0E946C0E8D2D0E94030F16
:101ED000E114F10419F086EE0E94940D011511052C
:101EE00019F081EE0E94940DCD2B19F08CE20E9426
:101EF000030FCDB7DEB7E7E00C94B027FF920F9346
:101F00001F93CF93DF938C018AE0F82EF801849120
:101F1000882309F44BC0813009F044C0E8012196C0
:101F2000FE018491813049F42196FE0184910E9442
:101F3000030F8E010F5F1F4FE9CF823039F4E801A4
:101F40002296FE0184910E946C0EF3CF833039F407
:101F5000E8012296FE0184910E94940DEACF84301C
:101F600041F7E8012296FE01249190E080E0FE0115
:101F700031962053330B2A30310548F00197C8F2CF
:101F8000EFE9FFE03197F1F700C00000F7CFF89ECE
:101F9000A001F99E500D1124C901840F951F2491B1
:101FA000EF01E5CF0E94210FE801C3CFCDB7DEB727
:101FB000E5E00C94B227CF93DF93EC010E94FD0B78
:101FC0009E01205E31092830310510F0209741F440
:101FD0000E948A0D8C2F0E946C0EDF91CF91089584
:101FE0000E94790DF7CFB0E0A0E0E9EFFFE00C949C
:101FF00094278C01EB018091260182FF86C0E0903E
:102000007D02F0907E02E016F10621F00115110527
:1020100009F07BC0809126018B7F8093260181FD92
:102020006DC080917B0290917C02AE01481B590BE0
:1020300081E020912401309125014217530708F4D3
:1020400080E08170D82E80912601D0FA81F98093AA
:10205000260187011127F80184E0F695E7958A9516
:10206000E1F7EE0FFF1FE55AFD4F20813181A701F7
:102070004F70552781E090E002C0880F991F4A9564
:10208000E2F7DD20E9F1822B932B9183808380910D
:102090009E0281FF08C08091260180618093260105
:1020A00082E00E94830980919E0285FF08C0809192
:1020B000260180628093260180E20E948309DD2050
:1020C00029F080915A02826080935A02C70190528F
:1020D0008115904308F47801C7010E94DB0F8091BD
:1020E0007D0290917E029C0130522115304308F40C
:1020F00099270E94540E0E944B0D17C081E0A1CF7A
:102100008095909582239323C0CFC801905281156A
:102110009043A0F4C80199270E94540E80917D023B
:1021200090917E020817190731F3D0937C02C09377
:102130007B02CDB7DEB7E7E00C94B027C801ECCF47
:102140000F931F93CF93DF938C01EB010E94DB0F62
:10215000209741F4C8010E94540EDF91CF911F9146
:102160000F9108958FE99FE00197F1F700C00000FB
:102170002197EECF90912C0292FB222720F928176D
:1021800079F080FB92F990932C0260912B02709170
:102190002C0284E090E00E945A2882E00E949B0A70
:1021A0000895CF93C6E0E2E7F1E0DF018C2F1D92A6
:1021B0008A95E9F790E080E00E94E40590E080E0F5
:1021C0000E94BF0510925A020E94F20CE4E5F2E070
:1021D000DF011D92CA95E9F710924E0210924F024C
:1021E0001092490210924B0210924D0210924A0234
:1021F00010924C020E947A06CF910895AAE2B0E0B4
:10220000E4E0F1E10C9498278DEA92E02091F1004E
:10221000FC012193CF01F2E0853B9F07B9F7809144
:10222000AE02833009F470C0B8F4813009F447C0BD
:10223000823009F4B3C08091E80083FF80C28091AE
:10224000AD029091AE029A3008F079C2E92FF0E029
:10225000E857F74D0C94F6278A3009F48EC08B307E
:1022600009F46FC0893039F78091AD02813219F7D6
:102270008091B1029091B2020297E8F68091E80055
:10228000877F8093E8008091E80082FF38C09091BA
:10229000F3008091F200029731F48091F1008130D7
:1022A00011F0863021F48091F1008093A00280919A
:1022B000E8008B778093E8000E948B04BCCF80916C
:1022C000AD02813A09F0B7CF8091E800877F809313
:1022D000E8008091B1029091B202892B61F468E02C
:1022E00081EA92E070E00E9437058091E8008B77E8
:1022F0008093E800A0CF60E090E080E0F3CF809191
:10230000AB028111C0CF97CF8091AD02813A09F025
:1023100092CF8091B1029091B202892B09F08BCFBC
:102320008091E800877F8093E8008091E80080FF3B
:10233000FCCF809127018093F1008091E8008E7797
:10234000B9CF8091AD02813209F075CF8091B10291
:102350009091B202892B09F06ECF8091E800877FBF
:102360008093E8000E948B048091AF028093270144
:1023700010929E020E94D1105ECF8091AD028132F8
:1023800009F059CF8091E800877F8093E8000E9490
:102390008B048091B00280939F024DCF8091AD025B
:1023A000813A09F048CF8091E800877F8093E80068
:1023B0008091E80080FFFCCF80919F02BCCF8038E5
:1023C00099F0823809F0BBC18091B1028F708730DB
:1023D00008F0B5C18093E9008091EB0085FB882768
:1023E00080F91092E90006C08091A9029091AA029A
:1023F000911182609091E800977F9093E80080931C
:10240000F1001092F1008091E8008E7794C188234A
:1024100009F482C1823009F092C18091AF0281112A
:1024200085C18091B1028F702FEF280F263008F000
:1024300086C18093E9002091EB0020FF77C19330A3
:1024400031F48091EB0080628093EB006FC190913A
:10245000EB0090619093EB0021E030E001C0220F8F
:102460008A95EAF72093EA001092EA008091EB0047
:102470008860EACF811163C11091AF021F7780910C
:10248000E3008078812B8093E3008091E800877FD0
:102490008093E8000E948B048091E80080FFFCCFCD
:1024A0008091E30080688093E30082E0111183E073
:1024B0008093AB0244C18058823008F040C18091C3
:1024C000AF029091B0028C3D23E09207A1F583E02A
:1024D0008A838AE289834FB7F894DE01139620E05D
:1024E0003EE051E2E32FF0E050935700E49120FFEB
:1024F00003C0E295EF703F5FEF708E2F90E0EA30FF
:10250000C0F0C7968D939D932F5F243159F74FBF2D
:102510008091E800877F8093E8006AE270E0CE0156
:1025200001960E9437058091E8008B778093E80040
:1025300006C1C096E7CF4091B1025091B202292F57
:1025400033272330310509F444C078F521303105B3
:1025500009F46FC08BE390E0EDE5F7E02230310540
:1025600009F0EDC02091E800277F2093E80020913A
:10257000B3023091B4028217930708F49C0140E043
:102580002115310509F064C0411162C08091E80055
:1025900082FDC9CF8091AB02882329F2853019F2E0
:1025A0008091E80083FFF2CFBECF21323105A9F13F
:1025B0002232310509F0C3C04115510509F443C069
:1025C0004130510509F0BBC08BE790E0E2EAF6E04C
:1025D000C9CF992781309105C1F0009759F0029732
:1025E00009F0ADC0EAEAF7E0E4918E2F90E0EAEA64
:1025F000F7E007C0E0EDF7E0E4918E2F90E0E0ED2A
:10260000F7E0009709F49BC0ADCFEAEBF7E0E49167
:102610008E2F90E0EAEBF7E0F4CF4115510571F011
:102620004130510509F08BC089E090E0E8E8F7E01F
:1026300099CF82E190E0E8E9F7E094CF89E090E07B
:10264000EFE6F7E08FCF80E490E0EDE1F7E08ACFAE
:102650008091AB02882309F466CF853009F463CFFB
:102660008091E80083FD5FCF8091E80082FD8ECFEE
:102670008091E80080FF84CF9091F3008091F20078
:102680002115310519F08830910550F041E0089787
:1026900009F040E08091E8008E778093E80070CFE9
:1026A00044914093F1003196215031090196E8CFD1
:1026B000803809F044C08091E800877F8093E8006B
:1026C0008091AC028093F1009ECE811138C01091B0
:1026D000AF021230A0F58091E800877F8093E80078
:1026E0001093AC020E948B04112311F084E005C00A
:1026F0008091E30087FDFACF81E08093AB0242E056
:1027000061EC81E00E94AA0442E261EC82E00E9456
:10271000AA048091AB0213C08091AF02813079F49A
:1027200081E0933009F080E08093AA021092E900E2
:102730008091E800877F8093E8000E948B0480915D
:10274000E80083FF0AC08091E800877F8093E8005B
:102750008091EB0080628093EB00AA96E3E00C94FA
:10276000B42710929E020E94D1102FEF84E39CE0C8
:10277000215080409040E1F700C0000088E19AE0DD
:102780000FB6F894A895809360000FBE90936000F8
:10279000FFCFB0E0A0E0EFECF3E10C9489278C01CF
:1027A000FC0183819481892B39F040815181842FF0
:1027B00085238F3F09F026C7CDB7DEB7E2E10C9441
:1027C000A527882371F010927F0110927E0110924C
:1027D0007D0110927C0110927B0181E080937A014F
:1027E00084C080917D01882309F47FC080917F019E
:1027F000882319F08FE40E94030F80917E018823C3
:1028000009F473C081E080937A018FE40E94030F82
:102810006CC0882309F4D8C080917A01811121C04D
:102820008AE20E94030F8AE20E94030F8AE20E945A
:10283000030F8AE20E94030F8AE20E94030F8AE2DA
:102840000E94030F80917B0190917C01892B49F4B8
:102850008AE20E94030F8AE20E94030F8AE20E942A
:10286000030F80917B0190917C018130910581F073
:1028700082309105A1F0892BC1F58BE391E00E9494
:102880007E0F81E090E090937C0180937B012DC0CE
:1028900084E391E00E947E0F82E090E0F4CF8AE230
:1028A00091E00E947E0F10927C0110927B011DC06E
:1028B000882309F489C080917A0181110CC08AE2D1
:1028C0000E94030F8AE20E94030F8AE20E94030F14
:1028D0008AE20E94030F80917B0190917C018130FC
:1028E000910561F104F5892B31F1F801E280EE20C8
:1028F00009F4A6C1CE35FCE7DF0709F49DC1CF3549
:102900002CE7D20751F0CD353CE7D30709F098C149
:1029100080910001882309F48FC11092000180E0AA
:102920000E94EE0DBAC08230910559F00397E9F686
:1029300086E191E0B6CF85E291E0A1CF80E291E01F
:10294000A9CF8BE191E00E947E0F83E090E09BCFC6
:10295000882359F285E60E94030F8BE057CF882326
:1029600021F23BCF8330910529F1049709F0BDCFC7
:1029700080917A01882359F180917E0181113AC0BA
:102980008BEF90E00E947E0F82E090E019C01092E1
:102990007901109278018AE20E94030F80917801F8
:1029A0009091790101969093790180937801029733
:1029B00094F302C788E091E00E947E0F84E090E0EB
:1029C00090937C0180937B0110927A018ECF1092BC
:1029D0007901109278018AE20E94030F80917801B8
:1029E00090917901019690937901809378010397F2
:1029F00094F3C2CF80917D01882311F285E091E0AC
:102A00000E947E0F10927D01BBCF80917A018823B6
:102A100069F080917E0181111CC084EF90E00E94DA
:102A20007E0F10927C0110927B01CECF1092790123
:102A3000109278018AE20E94030F809178019091B0
:102A4000790101969093790180937801049794F32A
:102A5000E0CF80917D01882301F388EF90E00E9410
:102A60007E0F10927D01D9CFF8019581907F09F4F6
:102A70004DC0882309F450C080917A01811103C0B0
:102A80008AE20E94030F80917B0190917C0181304A
:102A9000910571F1A4F4892B01F18091E301877014
:102AA00009F48ACEF8018281882309F485CE8091C9
:102AB0002C0282FF81CE82E00E949B0A7DCE823072
:102AC0009105E9F0039749F78CEC90E00E947E0FA6
:102AD00010927C0110927B01E0CF8AEE90E00E9480
:102AE0007E0F81E090E090937C0180937B01D5CFB5
:102AF00080EE90E00E947E0F82E090E0F4CF86EDC1
:102B000090E00E947E0F83E090E0EDCF882321F0DB
:102B100081EE0E946C0EC1CF81EE0E94940D109246
:102B20007A01BBCF882311F082EEF3CF82EE0E94B0
:102B3000940DB3CFF8019581907F39F0882339F057
:102B400083EC90E00E947E0FA8CF8111E1CF81EE4F
:102B5000EECFF8019581907F49F0882359F070E01D
:102B600060E086E19AE00E94A01097CF882311F0E0
:102B700083EECFCF83EEDBCF882309F48ECF70E0D6
:102B800060E08EE290E0EFCFF8019581907F71F3E5
:102B9000882381F370E060E08DE191E0E4CF882349
:102BA00011F084EDB6CF84EDC2CF882309F49DCE19
:102BB0008DEB90E00E947E0F81E080937E0195CEA8
:102BC000882309F492CE87EB90E00E947E0F81E08B
:102BD00080937F018ACE882309F487CE81EB90E031
:102BE000B1C5882309F481CE88E20E94030F81E0F9
:102BF00090E00E94840A79CE882309F476CE8CEA8C
:102C000090E0A0C58823A1F08091F801811106C051
:102C100081E08093F80182EE0E946C0E0E94B30561
:102C20009093F7018093F6018BE20E946C0E5DCECB
:102C30008BE20E94940D59CE81E0809300012DCF4C
:102C400080910001882309F495C46E0180EEC81AB2
:102C5000D108F090EE0180919E02F82A98E0C91602
:102C6000D10418F59E012770332781E090E001C060
:102C7000880F2A95EAF7EE20A9F0F82A80919002B1
:102C800090919102009709F475C4E8E0CE16D10442
:102C900010F56F2D0E945A0681116CC481E00E94CC
:102CA000EE0D68C48095F822E9CFEE2009F495C4B2
:102CB000D0938101C09380010E94A7056093870291
:102CC000709388028093890290938A0210928F02F7
:102CD00010928E02D3CFFC0120813181C217D3071D
:102CE00009F042C4E11042C410928D0280E0D7CFB7
:102CF000C4319CE7D907B9F080F090912601892F63
:102D00008E7F90FF8160C531FCE7DF0709F056C474
:102D1000809326010E944B0D51C480912601816051
:102D2000809326014BC4809126018E7FF1CF809144
:102D3000240190912501059690932501809324010B
:102D40003DC480912401909125010597F5CF809095
:102D50002401909025018091010190910201881633
:102D6000990611F5809188018032F1F4E2E8F1E0F2
:102D70007F0181918032E1F36AE0B62EF701808114
:102D8000882309F41BC4813009F082C091818281BB
:102D9000913009F043C0F2E0EF0EF11C0E94030FE6
:102DA000EFEFEE1AFE0AEACF909202018092010143
:102DB00080E280938801B12CA12C1092870172E8E7
:102DC000272E71E0372E7101EAE04E2E512C612C36
:102DD000712CC501B401A30192010E94D427605D4A
:102DE000603319F42E143F0431F081149104A104CE
:102DF000B10409F460E2F7016483C501B401A301E1
:102E000092010E94D42749015A01F1E0EF1AF1081A
:102E10002DE731E02E153F05E1F6A8CF923031F4D1
:102E200022E0E20EF11C0E946C0EBACF933031F416
:102E300032E0E30EF11C0E94940DB2CF943021F0E9
:102E40008FEFE81AF80AACCF92E0E90EF11C30E0FF
:102E500020E0A7014F5F5F4F8053990B8A309105A7
:102E600058F02150310908F49BCF8FE99FE001977A
:102E7000F1F700C00000F5CFB29EB001B39E700D17
:102E800011249C01260F371FF70181817A01E1CFC0
:102E90000E94210F85CF809126018F7EC13ED105F2
:102EA00039F0C53ED10509F069C0809126018F7DBA
:102EB000809326018091260180FF8AC3F8018281D8
:102EC000CB32D10509F47DC008F070C09E012E51AF
:102ED00031092A30310508F474C08111D4C0F801D9
:102EE0008281C081D181882309F420C1CE010E9452
:102EF000DA09F82E682FCE010E944E0ABE018F2DEE
:102F00000E9427080E944608D82FC92FA82EF80132
:102F1000F280D580D2943FE0D3228091E301877084
:102F2000F1F0CF2CFF20E1F0892F807F803451F029
:102F300080E28D0F883098F0D11004C0892F807EF8
:102F4000803269F080912C0282FF09C082E00E94E9
:102F50009B0A8091E3018770CC24C3948111C12C1A
:102F6000BC2EB2942FE0B222FBE0FB1508F458C14E
:102F7000EB2DF0E0EE56F74D0C94F627CE01905273
:102F80008115904308F096CF8091260182FFA7CF4C
:102F9000CE010E940904882309F4A1CF42E452E043
:102FA000B60190E080E00E94F30F12C3CD32D1054C
:102FB00008F493CFC933D10520F0C436D10509F008
:102FC0008CCF882309F459C08091EE0190919E0224
:102FD000982B292F2D7F61F110927E0210927D0295
:102FE000FE0144E0F695E7954A95E1F7EE0FFF1FE5
:102FF000E55AFD4F9E012F70332781E090E002C01B
:10300000880F991F2A95E2F780959095208131814C
:103010008223932391838083CE010E94DB0F8091D2
:10302000EE018D7F0E946F0982E00E949B0A35CDE0
:1030300026E0F801A2E4B2E001900D922A95E1F7B2
:1030400010924402109246021092450220912601ED
:1030500091FB21F9209326018D7F0E946F09D09367
:103060007E02C0937D02D0927C02C0927B0280914E
:103070002601846080932601D7CFA801B601CE0136
:103080000E94F30F0ACD10927E0210927D02C3308F
:10309000FCE7DF07C1F150F4C1153CE7D307A9F005
:1030A000C130DC4709F01BCF0E94B113CB359CE740
:1030B000D90709F439C0CC35ECE7DE0759F1CA3538
:1030C000DC4709F00CCF81E02CC010929E020E94D8
:1030D000D1102FEF34E38CE0215030408040E1F7F5
:1030E00000C0000087E797E79093010880930008ED
:1030F00088E19AE00FB6F894A895809360000FBE1F
:1031000090936000FFCF6FEF7FEF90E080E00E9430
:103110005A28CACF80912C0282FB882780F991E03F
:1031200089270E94BA10DBCE80E0FBCFCE010E943F
:103130001B0AF82EE3CE2C2F2F70E22EC07F19F041
:10314000E29490EFE922FF20B9F0EE2069F080E2EE
:103150008D0F883010F0A11009C080919E02E82ADE
:10316000E0929E020E94F20C8D2F58C080915A026C
:10317000E82AE0925A02F6CF8D2F0E94940DEE209D
:1031800009F44EC0D05ED83010F0A11004C08E2DCE
:103190000E94830906C0E09480915A02E822E092DE
:1031A0005A020E94F20C3CC03C2F3F70E32EC07FBD
:1031B000C03219F0E29480EFE822AA20F9F081E011
:1031C000A81609F47DC0FF2009F487C0DD2009F4AA
:1031D0007DC020E0F801408151816281738184814A
:1031E0000E94DA0B0E940904882309F4BDCFF8017C
:1031F000858180FFB9CF8F70858368C080912C0254
:1032000082FD3CC0FF20A1F1EE2039F080919E02AA
:10321000E82AE0929E020E94F20C80E00E946C0E6E
:10322000EB2DE850FF0B349710F40E94E10CCC20FA
:10323000A9F08091E30180FD11C0F801128285950B
:10324000859585950E94BB0AC8010E94C91380918B
:10325000E3018595859585950E94890A20E0F8010E
:10326000408151816281738184810E94DA0BA4CAFA
:1032700080E00E94940DEE2099F289CFFF2071F03A
:103280008091EE018E29D11003C00E948A0DC8CF13
:1032900091E0D912FACF0E946F09C2CFD11006C0B7
:1032A0000E9464098E2D0E94830DBACFE1E0DE16E4
:1032B00009F4B6CF8E2D0E94830D0E946409B0CF11
:1032C000FF2031F0F5E0FD1508F4AACF8E2DDDCFFB
:1032D00024E02D1508F4A4CFE5CFDD2019F3F9E3A0
:1032E000AF123BC12FEF37EE83E0215030408040DA
:1032F000E1F700C0000031C18C2F86958695837060
:1033000069F0813009F08CCF8D2F9C2F9370F110D4
:1033100002C080E090E00E94BF0582CF8D2F9C2FDD
:103320009370F11002C080E090E00E94E40578CF35
:103330006F2D8D2F0E94FA0A73CF8C2F837009F0A6
:103340003FC0F1106DCF4D2F429546954770440F09
:10335000440F2D2F2F7030E0042E02C0220F331F98
:103360000A94E2F790E080E0D4FF09C08FE090E09B
:1033700002C0880F991F4A95E2F780959095C695EF
:10338000C695C370C23099F078F4409127025091ED
:103390002802C13039F0822B932B842395230E947D
:1033A000CB0A3ECF242B352B822B932BF8CF822BAD
:1033B000932B209127023091280282279327EFCF69
:1033C0008695FF2011F08C2F8170882309F428CF77
:1033D0004D2F429546954770440F440F2D2F2F7067
:1033E00030E0042E02C0220F331F0A94E2F790E06F
:1033F00080E0D4FF09C08FE090E002C0880F991FE1
:103400004A95E2F780959095C695C695C370C230EF
:1034100099F078F44091290250912A02C13039F094
:10342000822B932B842395230E94840AF9CE242B8C
:10343000352B822B932BF8CF822B932B20912902B3
:1034400030912A0282279327EFCFCF70FF2029F0F7
:103450008C2F0E94BB0A8D2F18CF8D2F0E94830DB9
:103460008C2F0E94890ADCCE8D2F92EFA91699F13C
:103470009A1570F0E0EFAE16D1F0F1EFAF1691F0C3
:10348000FF2009F465C0D1106FCE8C2F8F7127C03B
:1034900023EFA21639F134EFA312F2CF80912C0260
:1034A00082FD2EC08C2F8F71FF20D9F218C0FF2013
:1034B00069F084E08D1508F4B3CECF7181E090E01F
:1034C00002C0880F991FCA95E2F7B8CF95E09D1505
:1034D00008F4A6CEF2CF8C2F8F71F110C2CF0E94CC
:1034E000BB0A9ECE90E080E0FF2009F49DCFCF7113
:1034F00081E090E002C0880F991FCA95E2F794CF4F
:10350000FF20D9F0CF718C2F0E94BB0A80912C0232
:1035100082FF11C0E8E0CE9FC00111248360809338
:10352000E3018C2F0E94BB0A0E94B3059093E20135
:103530008093E10175CE8C2FD2CF81E00E949B0A4F
:10354000F1E0FD1508F06CCE82E00E949B0A68CE87
:10355000DD2039F0893309F4C5CE8D2F0E94940DFA
:103560005FCE8C2F8F717DCFEE2021F0FC01818505
:1035700085FFBCCB0E94B3056C01F80182818823D2
:1035800009F489CC8091260182FF07C042E452E011
:10359000B60190E080E00E94F30FC231FCE7DF0744
:1035A00009F4D5CB08F0A4CBC0313CE7D30709F42C
:1035B000C8CBC1318CE7D80709F4B9CBCE01905202
:1035C0008115904308F076CC10927E0210927D0215
:1035D000F801828181115BCD82CC80918001909134
:1035E0008101C817D90709F049CB109281011092C7
:1035F0008001109287021092880210928902109224
:103600008A0264CB21E06281738184810E94DA0B9B
:10361000EC01F8018281C134FEE7DF0709F4C5CA75
:1036200008F075C0CD3133E4D30709F4ADCA98F57D
:10363000C633D10509F493C9B8F49E012E5131095E
:103640002A30310508F051C9882309F44EC9809108
:103650007F01811105C080917E01882309F445C94D
:1036600081E080937D01BAC8CA32E2E2DE0709F444
:10367000A8C8C13DF0E4DF0709F037C9F80195811A
:10368000907F09F48CCA882309F48DCA60E570E044
:1036900089E390E068CAC93024E4D20709F44ACA31
:1036A000B8F4C43094E4D90709F4DEC9C630E4E4C0
:1036B000DE0709F01AC9F8019581907F09F45CCA08
:1036C000882309F4EAC970E060E08DE292E04BCA19
:1036D000CD31F4E4DF0709F43CCACA3224E4D2074E
:1036E00009F46FC8C63134E4D30709F0FEC8F80105
:1036F0009581907F09F416CA882309F417CA86ECCD
:1037000090E00E947E0F81E080937F01C6C9C035A2
:103710009EE7D90709F465CA50F5C434FEE7DF0710
:1037200009F459CA90F4C2343EE7D30709F448CAF1
:10373000C3349EE7D90709F0D8C8882309F4D5C84F
:1037400084EB90E00E947E0FD0C8CE34EEE7DE0717
:1037500009F4FEC8CF34FEE7DF0709F0C6C88823A6
:1037600009F4C3C885E60E94030F8DE04FC8C33536
:103770002EE7D20709F44DC858F5C1359EE7D907A1
:1037800009F43ACAC235EEE7DE0709F0AEC888236D
:1037900009F4ABC880917B0190917C018230910546
:1037A00009F433C90CF0DEC8892B09F09EC880915A
:1037B0007A01882309F4EBC880917E018111C5C884
:1037C00080E191E00E947E0F81E080937E01BDC880
:1037D000C535FEE7DF0709F415CA08F469C8C63520
:1037E0003EE7D30709F081C8882309F47EC870E05A
:1037F00060E08DE095E00E94A01070E060E08BE05A
:1038000095E00E94A01071C81F93CF93DF93809121
:10381000AE01807F09F04BC08091AB01882309F491
:1038200046C08091E001C091AF014091A901509143
:10383000AA016091AC017091AD01D42FD52316E09F
:10384000C817A9F190E061157105A9F1DF3F99F161
:10385000189FF001199FF00D1124DF01A055BE4FF4
:1038600011962C911197251326C02C91241323C057
:1038700012962C91129721111EC013962D913C91F6
:10388000261B370B283C3105B0F48091AE018F70B8
:1038900080618093AE01EB54FE4F80818F70806118
:1038A000808389EA91E00E94C9130E94D009DF91C8
:1038B000CF911F91089501968770C2CFA1E1B0E02A
:1038C000E4E6FCE10C948D278C0185E0F801DE0133
:1038D0001D9601900D928A95E1F7D8016C90119692
:1038E0007C9011971296EC9012971396AD90BC9025
:1038F00020E04091A9015091AA016091AB01709123
:10390000AC018091AD010E94DA0B6C0189EA882E2E
:1039100081E0982E4091AC015091AD0141155105C7
:1039200009F439C19091A9012091AA01892F82231C
:103930008F3F09F430C1F090AB01F501E41BF50BAA
:10394000FF2009F40AC18091AE01382F307FE83C96
:10395000F10508F0D1C0D80111964C9111973111A1
:103960008CC0FE2C241315C02C91291312C0E11019
:1039700010C08F7080618093AE01C4010E94C91392
:103980008091AE01F80185838F2D6196EEE00C9455
:10399000A927A114B104C9F1862D87218F3FA9F170
:1039A00081E08E2580FF05C04E2D672D862D0E945B
:1039B000B009A114B10459F1862D87218F3F39F147
:1039C00081E08E25F82FF170BF2E80FF3CC04E2D78
:1039D000672D862D0E94B009F82E811134C06D86A6
:1039E0007E868D859E850E940E0A292F22952F7036
:1039F000243078F49F702230A8F09923C1F0D801C8
:103A000015969C91907F99F4BFCF80E0CBCF80E05A
:103A1000D9CF2A5F2F70223078F0C8010E94C913D5
:103A2000FB2CB2CF992319F0882309F4ADCF805E27
:103A3000883008F4A9CFF1CF803F08F4A5CF815F8B
:103A4000833058F7A1CFE11002C0F12C9DCF8091B7
:103A5000AE0181608093AE01C6010E9409048823F3
:103A6000A1F389EA91E00E94C91386E0E9EAF1E056
:103A7000DF011D928A95E9F7E8CF241313C0F801FE
:103A8000208129130FC0E1100DC08583C8010E9459
:103A9000C91386E0F801A9EAB1E001900D928A9578
:103AA000E1F772CFC8010E94D00A882309F1EE2005
:103AB000F9F08091AE01803270F02091A90130912F
:103AC000AA0138872F831986BB86AA868C87CE01E8
:103AD00007960E94C91386E0F801A9EAB1E00190B7
:103AE0000D928A95E1F70E94041CFF24F3944CCFB9
:103AF000C8010E94C913F9CF332309F4B2CFD8010A
:103B000011963C911197321310C02C9129130DC0BE
:103B1000E1100BC015968C93C8010E94C91386E072
:103B2000F40111928A95E9F72FCFC8010E94D00ABB
:103B30008823F1F2EE20E1F28091AE01803258F25A
:103B40002091A9013091AA013A8329831B82BD8269
:103B5000AC828E83CE010196BCCFE83CF105F8F62D
:103B6000FE2CEE2029F2D80111968C911197821328
:103B700004C08C91891709F48CCFC8010E94D00A27
:103B80008111A9CF8091AE0181608093AE01C801FF
:103B90000E94C913F9CEEE2009F4AACFC8010E94F1
:103BA000D00AF82E882309F4A3CF86E0F801A9EA09
:103BB000B1E001900D928A95E1F78091A901909171
:103BC000AA010E940E0A0E94041CDECEA7E1B0E00A
:103BD000ECEEFDE10C9498274B8B5C8B6D8B7E8B10
:103BE0008F8B611110925A021A8A198A85E0FE01A0
:103BF0007396DE011D9601900D928A95E1F78091F2
:103C00002C0282FF1CC00E94B3052091E10130917B
:103C1000E201821B930B8838934120F08091E301ED
:103C200082FF7AC00E94B3052091EC013091ED0132
:103C3000821B930B8838934110F00E94640986E040
:103C4000FE013D96DE01179601900D928A95E1F7EF
:103C5000CE0107960E945E1C811112C086E0FE0113
:103C60003796DE01119601900D928A95E1F78A85CB
:103C70009B85892B29F088859F8189238F3F81F53A
:103C800016E08091E0019091AF01891317C067960B
:103C9000E3E00C94B42796E0929FD001939FB00D7F
:103CA0001124A055BE4FFE01319601900D929A95B8
:103CB000E1F78093AF010E94D009E2CF819FC0015C
:103CC000112480559E4F0E945E1C882301F3809131
:103CD000E00190E00196877099278093E001D1CFB1
:103CE0002091AF0130E0C90101968770992740917A
:103CF000E0014817190679F610929E020E94D11031
:103D00001092AF011092E00186E0E9EAF1E0DF01F4
:103D10001D928A95E9F7B4CF82E00E949B0A82CF78
:103D2000A5E0B0E0E6E9FEE10C9497270E94B30518
:103D30008C018091EF019091F00180179107A1F023
:103D40008FEF89838A831B820E94B3058160782F5D
:103D50009D838C8349815A816B818D810E94E61DF0
:103D60001093F0010093EF012596E4E00C94B32743
:103D7000A4E0B0E0EEEBFEE10C9497274091120234
:103D80005091130260911402709115022FB7F894AC
:103D90008091990290919A02A0919B02B0919C020D
:103DA0002FBF841B950BA60BB70B11E08436910532
:103DB000A105B10590F10E94BE0C882399F10E94E3
:103DC000A7056E5F7F4F8F4F9F4F69837A838B83E9
:103DD0009C838091140190911501885F9D4F4091C3
:103DE000130150E04530510510F044E050E0BE01B1
:103DF0006F5F7F4F0E947D2882E090E00E94132732
:103E0000182F882351F00E94A70560931202709327
:103E100013028093140290931502812F2496E4E0FC
:103E20000C94B3270E94A705009117021091180265
:103E30002091190230911A02600F711F821F931F87
:103E4000C0CFEF92FF921F93CF93DF9300D000D0AB
:103E500000D0CDB7DEB77B0190E080E00E94132751
:103E6000182F882309F46AC04091060150E04115DB
:103E7000510511F041E050E0609107017091080197
:103E8000685F7D4FCE0106960E947D284091040216
:103E90005091050260910602709107022FB7F894C5
:103EA0008091990290919A02A0919B02B0919C02FC
:103EB0002FBF841B950BA60BB70B84369105A1056C
:103EC000B10538F489E092E00E9424049E818917AC
:103ED000A9F181E090E00E941327882309F44EC0E5
:103EE00040910E0150E04630510510F045E050E0A1
:103EF00060910F0170911001685F7D4FCE010196B6
:103F00000E947D2889E092E00E9424049E8189130A
:103F100035C00E94A7056093040270930502809348
:103F200006029093070285E0FE013196AFEFB1E003
:103F300001900D928A95E1F711E00BC085E0E9E070
:103F4000F2E0DE01119601900D928A95E1F71111D0
:103F5000EACF85E0EFEFF1E0D70101900D928A956D
:103F6000E1F7812F26960FB6F894DEBF0FBECDBFC6
:103F7000DF91CF911F91FF90EF90089510E0E9CF6E
:103F8000AFE0B0E0E6ECFFE10C948E278E010F5F0E
:103F90001F4F8AE0D8011D928A95E9F783E6C82E63
:103FA00081E0D82EF12CE12CAA24A394B12C2EE68A
:103FB000822E21E0922EF60181916F018F3F09F44C
:103FC00042C0F894E82FE295EF70F0E021A18F70E5
:103FD000A50102C0440F551F8A95E2F7CA01922F2E
:103FE000982B91A392A18095892382A3789400C0F5
:103FF000E8E6F1E0712C31E021912F3F09F46BC02C
:10400000A22FA295AF70B0E090968C9190E02F70A7
:1040100002C0959587952A95E2F780FD5CC0832FB5
:10402000782A330F8E169F0639F7F6013197808173
:104030008F3F11F00E942B0750EA5A95F1F7F801D3
:10404000EE0DFF1D70828FEFE81AF80AA5E0EA1660
:10405000F10409F0B0CF4AE050E0B8018BE192E002
:104060000E947028009741F02AE0F801ABE1B2E02D
:1040700001900D922A95E1F700912602892B69F1B2
:1040800081E08093F3010E94B3059093F201809345
:10409000F1018091F1019091F2010E94980505973C
:1040A00000F110E0035D1D4F45E050E06BE172E070
:1040B000C8010E947028B12C892B51F085E0EBE1FA
:1040C000F2E0D80101900D928A95E1F7BB24B394F8
:1040D0001092F30107C080E0A3CF8091F30181111A
:1040E000D8CFB12C0E94BE0CA82EE09126028823C6
:1040F00009F480C07E01BBE0EB0EF11C85E0D70126
:104100001D928A95E9F70E2F10E0035D1D4F8091F7
:1041100016028A30E0F541E25FE1B701C8010E9472
:104120008B0C882309F455C048EB5EE1B701C80148
:104130000E948B0C882309F44CC0109216028091C7
:10414000250290E045E050E0B701835D9D4F0E945D
:10415000702821E02093FD01892B71F5A12C80911D
:10416000F801882371F08091F6019091F7010E9487
:104170009805893E934028F082EE0E94940D10929B
:10418000F8018A2D8B292F96EDE00C94AA278091B7
:10419000F4019091F5010E949805843F914008F048
:1041A000BACF8091FD018823C9F285E0F701119211
:1041B0008A95E9F71092FD01A0912502B0E0A35D78
:1041C000BD4F85E0FE013B9601900D928A95E1F787
:1041D000C6CF809116028F3F31F08F5F8093160219
:1041E0008A3008F4ACCF0E94B3059093F501809318
:1041F000F401D7CFF0E0E35DFD4F85E0A9E0B2E048
:1042000001900D928A95E1F789E092E00E942404E2
:1042100080930802C0900E02D0900F02E09010022E
:10422000F09011028091F9019091FA01A091FB01A7
:10423000B091FC01C816D906EA06FB0609F4A1CF25
:10424000C092F901D092FA01E092FB01F092FC01D8
:104250000E94BE0C811195CF0E94A705C61AD70AED
:10426000E80AF90AC0921702D0921802E0921902E5
:10427000F0921A0286CF1F920F920FB60F9211245E
:104280002F933F934F935F936F937F938F939F935E
:10429000AF93BF93CF93DF93EF93FF93D091E90058
:1042A000DF708091EC00C82FC17080FDC0E81092D3
:1042B000E9008091F000877F8093F00078940E945D
:1042C000FE101092E9008091F00088608093F00069
:1042D000CD2BCF70C093E900FF91EF91DF91CF918B
:1042E000BF91AF919F918F917F916F915F914F910E
:1042F0003F912F910F900FBE0F901F9018951F9216
:104300000F920FB60F9211242F933F934F935F9309
:104310006F937F938F939F93AF93BF93EF93FF938D
:104320008091E10082FF09C08091E20082FF05C018
:104330008091E1008B7F8093E1008091DA0080FF23
:1043400024C08091D80080FF20C08091DA008E7F49
:104350008093DA008091D90080FF9DC080E189BD03
:1043600082E189BD09B400FEFDCF81E08093AB02FC
:1043700080919D02811109C00E943B040E94DC04CF
:104380008091E20084608093E2008091E10080FFF0
:1043900017C08091E20080FF13C08091E2008E7F01
:1043A0008093E2008091E20080618093E20080913E
:1043B000D80080628093D80019BC85E08093AB025E
:1043C0008091E10084FF2BC08091E20084FF27C030
:1043D00080E189BD82E189BD89B5982F917080FF08
:1043E000FBCF8091D8008F7D8093D8008091E10031
:1043F0008F7E8093E1008091E2008F7E8093E200C7
:104400008091E20081608093E2008091AC02882379
:1044100009F447C084E08093AB028091AB028091A5
:10442000E10083FF27C08091E20083FF23C08091D9
:10443000E100877F8093E10082E08093AB021092DD
:10444000AC028091E1008E7F8093E1008091E200D8
:104450008E7F8093E2008091E20080618093E20091
:1044600042E060E080E00E94AA048091F000886051
:104470008093F000FF91EF91BF91AF919F918F9149
:104480007F916F915F914F913F912F910F900FBE50
:104490000F901F90189519BC1092AB0210929D02BC
:1044A00074CF8091E30087FD93E09093AB02B5CF8A
:1044B00078941F921FB61F9211248F939F93AF93EE
:1044C000BF938091990290919A02A0919B02B09122
:1044D0009C020196A11DB11D8093990290939A02AE
:1044E000A0939B02B0939C02BF91AF919F918F913B
:1044F0001F901FBE1F9018951F921FB61F92112468
:104500008F939F93AF93BF9380919802811113C0B3
:104510008091990290919A02A0919B02B0919C0285
:104520004196A11DB11D8093990290939A02A09388
:104530009B02B0939C02BF91AF919F918F911F906E
:104540001FBE1F901895CDB7DEB72B970FB6F89406
:10455000DEBF0FBECDBF85B7806885BF85B78068D9
:1045600085BF84B7877F84BF0FB6F894A8958091E4
:104570006000886180936000109260000FBE80E848
:1045800090E00FB6F89480936100909361000FBEA5
:1045900089E297E090936F0180936E010E943B0443
:1045A0000E94DC048091E20084608093E2007894B1
:1045B0008091AB028823A1F01091E9001F709091C7
:1045C000EC00892F817090FD80E8182B1092E90093
:1045D0008091E80083FD0E94FE101F701093E90097
:1045E00082E084BD93E095BD9AEF97BD80936E0005
:1045F00010921702109218021092190210921A02C9
:104600000E94BE0C80931B010E94BE0C81110E946F
:10461000272680911B0180911B0195E0811190E07C
:104620009093260285E0891B8093250203E611E022
:10463000D8018D918D018F3F11F00E942B07B1E0C1
:1046400008361B07A9F708E611E0F80181918F01F0
:104650008F3F11F00E942B07F1E00E361F07A9F7DC
:104660008AE0EDE2F2E0DF01282F1D922A95E9F7BA
:10467000EBE1F2E0DF011D928A95E9F790E080E03E
:104680000E943628873E9E4F09F45EC067EE7EEF9B
:1046900090E080E00E945A2860E082E090E00E9472
:1046A0003C2860E083E090E00E943C2810922802C1
:1046B0001092270260E074E184E090E00E945A28A2
:1046C00060E086E090E00E943C286FEF87E090E099
:1046D0000E943C2840E050E0BA0188E090E00E944F
:1046E0004E2860E08DE090E00E943C2840E050E0E1
:1046F000BA0188E190E00E944E2860E087E190E0F6
:104700000E943C2840E050E0BA018CE190E00E9419
:104710004E2870E060E080E290E00E945A2840E07D
:1047200050E0BA0188E190E00E944E2840E050E05D
:10473000BA018FE090E00E944E2840E050E0BA01BC
:1047400083E190E00E944E2882E090E00E942E28B3
:104750008093370284E090E00E94362890932C02E8
:1047600080932B0283E090E00E942E2890E00E942C
:10477000CB0A0E94BE0C811102C00E942A268CE145
:1047800091E0909395028093940208E110E040E458
:10479000D42E57E3E52E52E0F52E8091AB0220E1B6
:1047A000B22E32E1C32E853009F480C00E94C01FB2
:1047B00088E3A82E82E0B82E9DE2892E92E0992E01
:1047C000D401F50191918D9122E0E234F20709F4D0
:1047D00079C09817B9F30E94BE0C382EC12CD401B1
:1047E0007D904D01F50141905F01471429F1612C45
:1047F000552453944724842D8521B1F03320A1F012
:104800006F82C88691E0852D872109F490E0998711
:104810000E94B3058160782F9B878A874F815885D6
:1048200069858B850E94E61D6394550CF6E06F1236
:10483000E2CFF50131977082C3942AE0C212CFCF44
:104840000E94A70543C08091AB02843009F1109209
:1048500098020FB6F894A895009360000FBED0920E
:10486000600083B7817F846083BF83B7816083BF2B
:104870007894889583B78E7F83BF0FB6F894A895F8
:1048800080916000886180936000109260000FBE8C
:104890008091AA02882351F00E94C01FEDE2F2E04D
:1048A000819181115EC1EE16FF06D1F78091AB02B6
:1048B000853009F4C8CF10929E020E94D1100E9448
:1048C000E10C74CF981387CF0E94901E0E94BE0CFB
:1048D000882309F462C080918E0290918F02892B07
:1048E00009F43EC040918302509184026091850298
:1048F000709186022FB7F8948091990290919A0254
:10490000A0919B02B0919C022FBF841B950BA60B1C
:10491000B70B40917F0250918002609181027091AB
:10492000820284179507A607B707D0F080918E0200
:1049300090918F020E94DB0F10928F0210928E02D4
:1049400010928302109284021092850210928602C5
:1049500010927F02109280021092810210928202C5
:104960008091260182FF19C00E94B30520917B022D
:1049700030917C02AC01421B530B209124013091F9
:1049800025014217530748F042E452E0BC018091F0
:104990007D0290917E020E94F30F86E0E4E5F2E052
:1049A000DE01119601900D928A95E1F71092560260
:1049B000109257021092580210925902C090490268
:1049C000CC20E1F180915202909153020E9498050F
:1049D00041E030E020E04C1510F428E030E02817EA
:1049E000390760F590904A02A0904D02C0904C02A9
:1049F00060914B02892D0E94A106B82E80934B0234
:104A00006A2D8C2D0E94A106A82E80934D0280E075
:104A10000E94D1068093560281E00E94D1068093C5
:104A20005702B92809F41B82CA2809F41C82809114
:104A30004902823018F48F5F8093490280914A02C4
:104A400090914C02892B90914B02892B90914D02B1
:104A5000892B21F4109249021B821C828D819E8138
:104A6000892B09F448C080915002909151020E9414
:104A700098059C0190914E02992309F48AC0213532
:104A80003105C8F19F3F19F09F5F90934E02CD8092
:104A9000CC2059F00E94CF069FEF1C140CF491E03B
:104AA000899F802D112480935802CE80CC2059F00C
:104AB0000E94CF069FEF1C140CF491E0899F802D7B
:104AC000112480935902309158023323A1F0209190
:104AD0005902222381F045EB3403C00111249923AC
:104AE000C1F19093580245EB240390011124332324
:104AF000A1F13093590246E050E0BE016F5F7F4F55
:104B000084E592E00E947028892B61F4809156021E
:104B100090915702892B90915802892B90915902BC
:104B2000892B11F00E947A0686E0FE013196A4E5F9
:104B3000B2E001900D928A95E1F70E94E10C90910C
:104B40004802891709F429CE809348020E94A705DC
:104B500024CE81E080935802C6CF81E08093590231
:104B6000CACFB9BCC9BC09B400FEFDCF8091D80042
:104B70008F7D8093D8008091E00082608093E00078
:104B80008091E00081FDFCCF10929E020E94D11026
:104B90008DCE232B09F078CFAECF8EE14A9B02C099
:104BA0008150E1F74A9BFECF08955A9880E28A959A
:104BB000F1F75A9A0895FC013BE03A95F1F798E035
:104BC00020E080E031E040E14A95F1F7880F4A9B10
:104BD00002C08160232742E04A95F1F7000040E1DE
:104BE0004A95F1F7915079F790E19A95F1F799B1DB
:104BF00032E03A95F1F7000040E14A95F1F792FB77
:104C0000992790F992272081920F90830895A1E02F
:104C1000B0E0EDE0F6E20C94952719828C017C015E
:104C2000E60EF11C0E151F0541F481E099819111EA
:104C300080E02196E6E00C94B1270E94CD25CE01BC
:104C400001960E94DB25F80181938F01EBCF529AE8
:104C50005A9A089552985A9AEA9AE9E6F0E08081C1
:104C60008F7C808308956150770B91E001C0990F8C
:104C70006A95EAF720E031E0911108C0222391F013
:104C80005A9A80E28A95F1F75A980895492F482355
:104C900039F05A9A232740E24A95F1F79695ECCFDE
:104CA0005A98F9CF5A98EDCFFF920F931F93CF9355
:104CB000DF93EC018C01060F111DC017D10729F4F9
:104CC000CDB7DEB7E5E00C94B227F9900E94D52568
:104CD00068E08F2D0E943326F0CF1F920F920FB6FF
:104CE0000F9211240F931F932F933F934F935F9332
:104CF0006F937F938F939F93AF93BF93EF93FF93A4
:104D0000CF93DF930F92CDB7DEB719820E94CD25E6
:104D1000CE0101960E94DB25082F06950695069583
:104D2000282F22952570902F9570290F922F937020
:104D300026952695920F982797708981982B09F0D0
:104D40005CC0043008F059C080E18A95F1F75A9AA6
:104D5000529A82E08A95F1F700C05A9888E0089F3D
:104D600080011124D801AD5FBE4F1696ED91FC91E4
:104D700017973097A9F060916101709162011496C4
:104D80002D913C911597260F371F11968D919C916F
:104D90001297680F791F13964C9113978C91099570
:104DA000F801ED5FFE4F6381662351F020916101B0
:104DB0003091620184819581820F931F0E94542655
:104DC0000E94D52580E18A95F1F75A9852985A9A0F
:104DD00080E18A95F1F7F801ED5FFE4F608166236F
:104DE00051F0209161013091620181819281820FA5
:104DF000931F0E9407260E94CD250F90DF91CF912F
:104E0000FF91EF91BF91AF919F918F917F916F91A2
:104E10005F914F913F912F911F910F910F900FBE76
:104E20000F901F9018950F931F93CF93DF93EC0172
:104E300004970CF04CC0F894529A5A9885E08A95E1
:104E4000F1F700009C2F969595708C2F8570980F28
:104E5000892F83709695969523E0CC0FDD1F2A95B8
:104E6000E1F7980F8E01092B0E94D52500C068E05C
:104E7000802F0E94332680E18A95F1F752985A9A42
:104E80004A9B1EC087E090E04A991CC0FE01ED5F7E
:104E9000FE4F63816623F9F0209161013091620138
:104EA00084819581820F931F0E940726811113C070
:104EB000529A5A9A7894DF91CF911F910F91089549
:104EC00000C0DECF019729F4529A5A9A789480E074
:104ED000F2CF00C0D9CF0E94CD2580E28A95F1F7AC
:104EE0005A98529A80E18A95F1F7CD5FDE4F68813A
:104EF000662351F0209161013091620189819A818C
:104F0000820F931F0E9454260E94D525789481E039
:104F1000D2CF2F923F924F925F926F927F928F9259
:104F20009F92AF92BF92CF92DF92EF92FF920F9338
:104F30001F93CF93DF93CDB7DEB7CA1BDB0B0FB642
:104F4000F894DEBF0FBECDBF09942A8839884888FF
:104F50005F846E847D848C849B84AA84B984C88495
:104F6000DF80EE80FD800C811B81AA81B981CE0F8C
:104F7000D11D0FB6F894DEBF0FBECDBFED01089571
:104F800097FB072E16F4009407D077FD09D00E94F6
:104F90001A2807FC05D03EF4909581959F4F0895FF
:104FA000709561957F4F0895A1E21A2EAA1BBB1B35
:104FB000FD010DC0AA1FBB1FEE1FFF1FA217B307E5
:104FC000E407F50720F0A21BB30BE40BF50B661FFB
:104FD000771F881F991F1A9469F7609570958095BF
:104FE00090959B01AC01BD01CF010895EE0FFF1F0D
:104FF0000590F491E02D09940E940428332312F4C3
:105000008A1B9B0B0C941528A29FB001B39FC00173
:10501000A39F700D811D1124911DB29F700D811DE4
:105020001124911D08950E940428B7FF0895821B42
:10503000930B0895AA1BBB1B51E107C0AA1FBB1FFE
:10504000A617B70710F0A61BB70B881F991F5A9514
:10505000A9F780959095BC01CD010895F999FECFEF
:1050600092BD81BDF89A992780B50895A8E1B0E076
:1050700042E050E00C946228262FF999FECF92BDB1
:1050800081BDF89A019700B4021639F01FBA20BD0D
:105090000FB6F894FA9AF99A0FBE08950396272F3F
:1050A0000E943D280E943C28252F0E943D28242F45
:1050B0000C943D280196272F0E943D280C943C28F3
:1050C000DC01CB01FC01F999FECF06C0F2BDE1BDC8
:1050D000F89A319600B40D9241505040B8F70895B7
:1050E000FB01DC0104C08D910190801921F4415035
:1050F0005040C8F7881B990B0895FB01DC0102C0E2
:1051000001900D9241505040D8F70895F894FFCF88
:10511000DF1107129F1307129F133A125B129F139E
:10512000581365139B189B18D418D4187C19981918
:0C513000101910199D19251A341A341A90
:10513C0001FF00000000010000000000000005015C
:10514C000000000406000000000000019505770C2B
:10515C00700C690CAF000101818283E200E900EA66
:10516C0000B500B600B700CD008301CC008A0192D7
:10517C000194012102230224022502260227022A7D
:10518C0002B300B4006F0070009F01CB019F02A01E
:0E519C000208026697C63435F6F73133323614
:00000001FF
