:100000000C943D030C9484030C9484030C9484039B
:100010000C9484030C9484030C9484030C94840344
:100020000C9484030C9484030C94F8280C94CA292F
:100030000C94521F0C9484030C9484030C9484033A
:100040000C9484030C9484030C9484030C94840314
:100050000C9484030C94BA1F0C9484030C948403B2
:100060000C9484030C9484030C9484030C948403F4
:100070000C9484030C9484030C9484030C948403E4
:100080000C9484030C9484030C9484030C948403D4
:100090000C9484030C9484030C9484030C948403C4
:1000A0000C9484030C9484030C948403DD05DF0515
:1000B000EA05E105E305E505E705E905EC05EE05DB
:1000C000F005FB05F205F405F605F805FA05FD0552
:1000D000D314D3140515051543156315F816F81632
:1000E000A515F81652165216C416CD16F816F116A6
:1000F0005F165F165F165F165F165F165F165F1658
:100100005F165F165F165F165F165F165F165F1647
:1001100070167E1685168C169616871787179917F0
:100120009917901799179917991787178717951780
:10013000991799179517372A5E2A502B5E2A502B4C
:10014000AA2ACD2A502B232B322B07634236B79B8A
:10015000D8A71A39685618AEBAAB558C1D3CB7CC27
:100160005763BD6DEDFD753EF6177231BF0000009F
:10017000803F05A84CCDB2D44EB93836A9020C50F8
:10018000B9918688083CA6AAAA2ABE000000803F32
:1001900029001E001F00200021002200230024004F
:1001A0002500260027002D002E0035004C002B00D6
:1001B000000014001A000800150017001C001800A9
:1001C0000C00120013002F00300031003900000035
:1001D00004001600070009000A000B000D000E00C5
:1001E0000F003300340028000000E10000001D0073
:1001F0001B00060019000500110010003600370032
:100200000000387252003800E000E2000000E30015
:100210002C000000015400002A000000035102518C
:10022000500051004F0066003A003B003C003D008A
:100230003E003F00400041004200430044004500B2
:100240000000005C00000000045C0D5C0000000089
:10025000000000000000000000000000000000009E
:10026000000000000000000000000000000000008E
:10027000000000000000000000000000000000007E
:10028000E100000000007B007C007D000000000019
:10029000000000000000000000004A004B00E000E9
:1002A000E2000000E3007E00000001000000760094
:1002B00000000100010046004D004E00000000005B
:1002C000000000000000000000000000000000002E
:1002D0000000000000000000000000000000BF5C03
:1002E000BE5C0000000000000000000000000000F4
:1002F000000000000000000000000000C05CBD5CC9
:1003000000000000000000000000000000000000ED
:1003100000000000000000000000C15C00000000C0
:1003200000000000000000000000000000000000CD
:100330004A004B0000000000000000000000000028
:1003400000000000000000000100010000004D005E
:100350004E0000000000000000000000000000004F
:10036000000000000000000000000000000000008D
:100370000000000000004800000000000000000035
:10038000000000000000000000000000000000006D
:100390000000000047000000000000000000000016
:1003A000000000000000000000000000000000004D
:1003B000000000000000000000000000000000003D
:1003C000000000007F008000B0000000000000007E
:1003D000000000000000000000000000000001001C
:1003E0000100BC008100BB0000047F3F1F64321489
:1003F000643214783C1E1E140A056801F000B40033
:1004000078005A0000000000000101010101010113
:1004100001010202020202020202020303030303B9
:100420000303030404040404040505050505060686
:1004300006060607070707080808080909090A0A3F
:100440000A0A0B0B0B0C0C0C0D0D0D0E0E0F0F0FE3
:10045000101011111112121313141415151616176A
:1004600017181819191A1A1B1C1C1D1D1E1F1F20D6
:10047000202122222324252526272728292A2B2B21
:100480002C2D2E2F2F303132333435363637383944
:100490003A3B3C3D3E3F4041424344464748494A3F
:1004A0004B4C4D4F50515253555657585A5B5C5E0A
:1004B0005F606263646667696A6C6D6E70717374A5
:1004C0007678797B7C7E8081838486888A8B8D8F09
:1004D00091929496989A9B9D9FA1A3A5A7A9ABAD35
:1004E000AFB1B3B5B7B9BBBDBFC1C4C6C8CACCCF25
:1004F000D1D3D6D8DADCDFE1E4E6E8EBEDF0F2F5D3
:10050000F7FAFCFF0403300000000A0344005A001D
:1005100036003000000010034B004200440046004B
:1005200061006E00730000000403090409023B002F
:10053000020100A0FA0904000001030101000921E1
:10054000110100012240000705810308000A090487
:100550000100010300000009211101000122C00077
:100560000705820320000A1201100100000008EDB7
:10057000FE602201000102030105010902A10185BB
:10058000020901A100050919012905150025019598
:100590000575018102950175038101050109300985
:1005A000311581257F950275088106093815812549
:1005B0007F950175088106050C0A38021581257F93
:1005C000950175088106C0C005010980A101850358
:1005D0001601002603001A81002A83007510950178
:1005E0008100C0050C0901A1018504160100269CAB
:1005F000021A01002A9C02751095018100C00501B4
:100600000906A1018505050719E029E7150025015F
:1006100095087501810205081901290595057501DF
:1006200091029501750391010507190029EF150045
:10063000250195F075018102C005010906A101059A
:100640000719E029E7150025019508750181029534
:1006500001750881010508190129059505750191A4
:10066000029501750391010507190029FF15002660
:10067000FF00950675088100C00011241FBECFEF52
:10068000DAE0DEBFCDBF04B603FE27C0809194023E
:1006900090919502A0919602B09197028730904B6D
:1006A000A740B04BD1F41092940210929502109290
:1006B00096021092970214BE84B7877F84BF0FB64C
:1006C000F894A895809160008861809360001092F2
:1006D00060000FBEE0E0F8E3099511E0A0E0B1E0B2
:1006E000ECE3FFE502C005900D92A433B107D9F702
:1006F00022E0A4E3B1E001C01D92A439B207E1F702
:100700000E941A260C949C2F0C9400000C945F09F4
:10071000229A2A9A08950E945E090C94880381FF08
:1007200002C02A9801C02A9A0C94140481E008950A
:1007300081E008950C9498030C948603CF92DF9285
:10074000EF92FF92863030F4811105C090918000C5
:100750009F7D04C085E0909180009062909380001E
:10076000282F30E0AFEFBFEF0E942D2F25E030E0C3
:1007700040E050E00E94052F2C3784E13807410506
:10078000510530F4C90169E070E00E94DD2E29C0F6
:10079000DA01C9018A50974DAF4FBF4F6627782FB6
:1007A000892F9A2F25EF38E241E050E00E94052F73
:1007B00069017A01CA01B9010E94CD2E9B01AC01E9
:1007C000C701B6010E94CD2EBB27A92F982F872FD6
:1007D000009721E0A207B10511F0BC0102C06FEF44
:1007E0007FEF70938B0060938A00FF90EF90DF9013
:1007F000CF900895269A2E9882E28093800089E116
:10080000809381008FEF9FEF909387008093860005
:100810000C949A230E94DC1D811102C00E94691E63
:100820000E94FA030C948B0308950C948F0308958F
:100830000E9477170E9417042FEF84E39CE0215059
:1008400080409040E1F700C000000C94E01FFF9250
:100850000F931F93CF93DF938C01FC01C081D18153
:1008600080918201811113C08281882349F0CE01D9
:100870000E94AC1CF82E682FCE010E94511C04C0AF
:10088000CE010E94801CF82EBE018F2D04C0CE0127
:100890000E94AC1CBE010E94B106EC01B8010E948E
:1008A0009A03882309F452C2CC3CFCE5DF0709F423
:1008B000E1C0E8F5C43C9CE5D90709F4A5C0F8F40B
:1008C000C531FCE5DF0778F4C2308CE5D80708F0C5
:1008D00052C1C1159CE5D90709F467C0C130DC4598
:1008E00009F46BC026C2C23CFCE5DF0709F478C0FE
:1008F00008F07EC0C631DC4509F4F4C11AC2F80123
:100900008281C83CFCE5DF0709F49CC040F4C63C8A
:10091000ECE5DE0709F48AC008F482C08DC0CA3C49
:100920009CE5D90709F49AC008F492C09DC0C43D63
:10093000FCE5DF0709F4F8C0C0F4F8018281C03D8E
:10094000FCE5DF0709F4BFC040F4CE3CECE5DE0770
:1009500009F49DC008F496C0A8C0C23D9CE5D90723
:1009600009F4CFC008F4BFC0DAC0C93DFCE5DF0719
:1009700009F49DC160F4C73D9CE5D90709F44DC158
:1009800008F06EC1C53DDC4509F4DEC0D2C1CD3DE5
:100990008CE5D80709F4E6C0CE3D9CE5D907C1F047
:1009A000CC3DDC4509F0C5C1D6C0F8018281882361
:1009B00009F4CCC10E941804C9C1F80182818823BE
:1009C00009F4C4C180911A02816080931A02BEC1E9
:1009D000F8018281882309F4B9C10E94691EB6C159
:1009E000F8018281882309F4B1C10E941F0EAEC1B3
:1009F000F8018281882309F4A9C10E942C1D82720A
:100A000061F00E94BB0DA2C1F8018281882309F424
:100A10009DC10E942C1D8272A1F30E94AD0D96C152
:100A2000882309F493C10E94B00C90C1882309F473
:100A30008DC10E94D40C8AC1882309F487C10E9409
:100A4000F40C84C1882309F481C10E94140D7EC175
:100A5000882309F47BC10E94340D78C1882309F4EE
:100A600075C10E94540D72C1882309F46FC10E94A0
:100A70006A0B6CC1F8018281882309F467C10E9466
:100A80007F0B64C1882309F461C181E029C08823F8
:100A900009F45CC10E94610B823028F00E94610B56
:100AA000853008F4BACF82E01BC0882309F44EC118
:100AB0000E94610B863028F00E94610B883008F498
:100AC000ACCF86E00DC0882309F440C10E94610BC1
:100AD000893028F00E94610B8E3008F49ECF89E0A7
:100AE0000E94BE0D33C1882309F430C10E94610BFE
:100AF0008F3028F00E94610B843108F48ECF8FE094
:100B0000EFCF882309F422C10E94610B853128F0C0
:100B10000E94610B873108F480CF85E1E1CF882303
:100B200009F414C188E1DCCFF8018281882309F43B
:100B30000DC10E94610B893128F00E94610B823245
:100B400008F46BCF89E1CCCFF8018281882309F4C6
:100B5000FDC083E2C5CFF8018281882309F4F6C085
:100B600080E006C0F8018281882309F4EFC082E0AA
:100B70000E94BB26EBC0F8018281882309F4DEC005
:100B80000E94DC1D811102C00E94691E0E94F91D95
:100B900090E09093850280938402FE01E350FC452F
:100BA000E231F10530F4EA5AFF4F809184020C944F
:100BB000272F80918402816027C0826025C08460D5
:100BC00023C0806121C080621FC080641DC0806816
:100BD0001BC08460886018C08E7F16C08D7F14C0D3
:100BE0008B7F12C08F7E10C08F7D0EC08F7B0CC09C
:100BF0008F770AC08B7F877F07C087FB222720F96A
:100C000091E0922790FB87F980938402809184027F
:100C10000E94FD1D0E94771799C0F80182818823E8
:100C200051F0109239010E94841F909336018093F5
:100C3000350182E022C08091390181110FC080917D
:100C40003501909136010E94901F883C910530F447
:100C500086E20E94091386E20E94271482E024C0E3
:100C6000F8018281882361F010923A010E94841F6A
:100C7000909338018093370180E20E948F1466C000
:100C800080913A0181110FC0809137019091380114
:100C90000E94901F883C910530F487E20E9409135E
:100CA00087E20E94271480E20E9496144FC0F80148
:100CB00082818111D9CF80913A018111F4CF809145
:100CC0003701909138010E94901F883C910558F798
:100CD00080E20E94961488E20E94091388E20E9432
:100CE000271434C00E942C1D282FF80182814091C6
:100CF0000D0150910E01882379F02A7A91E009F4D0
:100D000090E090933401911102C069E201C065E363
:100D1000CA010E94D01E0AC080913401811102C014
:100D200069E201C065E3CA010E94DB1E0E94781DD2
:100D30000DC081E08093390180933A01C801DF91B1
:100D4000CF911F910F91FF900C94960380E0DF915B
:100D5000CF911F910F91FF90089580E090E008954A
:100D600008959FE0799FF00111249BE4899FE00D95
:100D7000F11D1124E60FF11DEE0FFF1FE057FE4F8E
:100D8000859194910895880F991FFC01E851FC4FBB
:100D9000859194910895CF93DF930E94B1060E94AC
:100DA000BE08EC01811521E5920708F042C08115CB
:100DB00060E5960708F031C1883E910500F5803E58
:100DC000910508F0D7C1883A910570F4853A9105EC
:100DD00008F0A6C08130910509F4CCC108F47DC1AA
:100DE000049708F0C7C179C18F3B910508F4A3C0EF
:100DF000803C910508F471C1805C9109FDC0C1156A
:100E000080E3D80780F4C11590E2D90708F0F2C05A
:100E1000C03FD10508F461C1CF3FD10511F008F002
:100E2000A9C1D065A7C1C11520E4D20708F0F2C05E
:100E3000E7C0811569E5960760F5C11588E5D80713
:100E400008F037C1C11594E5D90778F4C11523E539
:100E5000D20708F013C1C11562E5D60708F0F8C043
:100E6000DC2FCC27C16FD06A85C1C11585E5D807B5
:100E700008F41AC1C11596E5D90708F02EC18C2FC8
:100E80000E943B098F71C82FD0E0DC2FCC27D062A5
:100E900071C18D3B2CE5920709F416C1F0F4CB3BF0
:100EA0008CE5D80709F40AC108F00BC1C1152AE581
:100EB000D20708F012C18C2F8F700E943B0994E07A
:100EC000D695C7959A95E1F7CF70D0E0DC2FCC2767
:100ED000D06A8F70806EC82B4DC1803C9C4509F450
:100EE000F9C0C13C8CE5D80760F4CE3B9CE5D9073E
:100EF00009F4EDC0CF3BDC4509F0EFC0C0E0D2ED16
:100F000039C1CE0190568115904208F0E6C08D2F70
:100F10008F710E943B09DD27D0628F71D82B2AC1C7
:100F2000853A910509F4DCC0863A910509F0DBC0E9
:100F3000C2E8D0E41FC1883A910509F4D7C0893AC4
:100F4000910509F4D6C08A3A910509F4D5C08B3AC7
:100F5000910509F4D4C08C3A910509F4D3C08B3BB8
:100F6000910509F4D2C08C3B910509F4D1C08D3AAA
:100F7000910509F4D0C0803B910509F4CFC08E3AA9
:100F8000910509F4CEC08F3A910509F4CDC0813B9B
:100F9000910509F4CCC0823B910509F4CBC0833B99
:100FA000910509F4CAC0843B910509F4C9C0853B89
:100FB000910509F4C8C0863B910509F4C7C0873B79
:100FC000910509F4C6C0883B910509F4C5C0893B69
:100FD000910509F4C4C08D3B910509F4C3C08E3B53
:100FE000910509F4C2C08A3B910509F4C1C0C0E073
:100FF000D4E4C0C0CE019F700E94C306EC01BAC009
:10100000CE019927D3FF03C0EC01D86CB3C0EC012B
:10101000D06CB0C0DF70D06AADC0837021E030E02A
:1010200002C0220F331F8A95E2F73C68CE0174E0BC
:10103000969587957A95E1F78370382BCF70C69592
:10104000C69580E2C89FE0011124C22BD32B92C029
:101050004C2F4695469590E2499FA0011124C370FC
:10106000DD2721E030E0C90102C0880F991FCA9531
:10107000E2F7EC01C42BD52BDC687CC04C2F4695E5
:10108000469580E2489FA0011124C370DD2721E02E
:1010900030E0C90102C0880F991FCA95E2F7EC0140
:1010A000C42BD52BDA6866C0DC2FCC27C46FD06A7E
:1010B00061C0DC2FCC27C06FD06A5CC0C0E0D4ED2B
:1010C00059C0C0E0D5ED56C0C0E0D1ED53C0C0E07E
:1010D000D0ED50C0C0E0D3ED4DC0C0E0D0E04AC07C
:1010E000C1E8D0E447C0C3E8D0E444C0C2EED4E4D1
:1010F00041C0C9EED4E43EC0CAEED4E43BC0C5EB67
:10110000D4E438C0C6EBD4E435C0C3EBD4E432C079
:10111000C4EBD4E42FC0C7EBD4E42CC0CCECD4E4B3
:1011200029C0CDECD4E426C0C3E8D5E423C0CAE886
:10113000D5E420C0C2E9D5E41DC0C4E9D5E41AC095
:10114000C1E2D6E417C0C3E2D6E414C0C4E2D6E4D8
:1011500011C0C5E2D6E40EC0C6E2D6E40BC0C7E2B9
:10116000D6E408C0CFE6D4E405C0C0E7D4E402C0AA
:10117000CAE2D6E4CE01DF91CF910895823891057D
:1011800049F1B0F48133910509F458C048F489322B
:10119000910509F44EC08A32910509F454C00895AE
:1011A0008533910509F440C08933910599F008957C
:1011B000833E910529F138F4803E910591F0823EFD
:1011C0009105A1F00895863E9105F9F0873E9105BD
:1011D00031F108952091840220FD3AC021FD38C0EC
:1011E00008958091840280FD35C032C080918402D0
:1011F00082FF32C08091840284FD30C083EE39C00A
:101200008091840282FD28C0F5CF8091840283FF03
:1012100027C08091840284FD21C087EE2AC080917E
:10122000840283FD1DC0F5CF8091840285FD1AC024
:101230001BC08091840285FD17C014C08091840278
:1012400086FD14C015C08091840286FD11C00EC0B9
:1012500080EE0FC089E30DC082EE0BC080E009C0B4
:1012600086EE07C089E205C085E303C08AE201C0BB
:1012700081E390E008959091840292FF0DC0282FA1
:101280002871283019F4877F846006C0282F2471C4
:10129000243011F48B7F886093FF0DC0282F2871B4
:1012A000283119F4877E846106C0282F24712431E7
:1012B00011F48B7E886194FD877E089508950895CA
:1012C000EFE2F1E041E050E025E02E0F9191A92FEF
:1012D000A295AF70B0E091963C9191979F70BA0142
:1012E00002C0660F771F9A95E2F7CB0180958323A2
:1012F00091968C932E13EACFA0E2B1E041E050E04A
:101300002FE02A0F8D91E82FE295EF70F0E031A1E8
:101310008F70BA0102C0660F771F8A95E2F7CB0182
:10132000962F9095932391A392A1892B82A32A13A0
:10133000E9CFE5E4F1E0ABE3B1E0119211921D9247
:101340001D9271E0EF34F707C1F785E00E944C0A67
:101350000C940A044F925F927F928F929F92AF9269
:10136000BF92CF92DF92EF92FF920F931F93CF9392
:10137000DF932FE2422E21E0522EA5E4B1E020E0DF
:1013800001E010E05D018D909C90119711961C92E8
:101390001E92E20189912E01E82FE295EF70F0E0B4
:1013A00031A18F70A80102C0440F551F8A95E2F742
:1013B000CA01342B31A342A1382F3095432342A3D5
:1013C00050EA5A95F1F790E2C92E91E0D92E40E00B
:1013D00050E0E60179906E01672D62956F7070E0C4
:1013E000EB01E8A06D917C911197F12CD72DDF7066
:1013F00002C0F594E794DA95E2F7E0FC08C07801C2
:10140000042E02C0EE0CFF1C0A94E2F702C0E12C8D
:10141000F12C6E297F2911967C936E934F5F5F4F5D
:101420004F305105B1F691A1392331A392A1892BF7
:1014300082A3129681E0F5014081518184169506C0
:1014400009F480E0282BF1E0AF34BF0709F09ACF10
:1014500045E06BE371E085E491E00E944D0A0E9453
:101460009C0381E0DF91CF911F910F91FF90EF904E
:10147000DF90CF90BF90AF909F908F907F905F90C4
:101480004F900895E82FF0E0EE0FFF1FE55CFE4F50
:1014900080819181089508950895FF920F931F937D
:1014A000CF93DF93F82E092F162FD72FC42F222387
:1014B00049F081E0809351010E94841F9093500174
:1014C00080934F01809151018823D9F080914F0181
:1014D000909150010E94901F069798F0EF2DF02FE9
:1014E000A12FBD2F80E090E04C2F50E0841795078E
:1014F00034F4219131912D933D930196F7CF1092C1
:101500005101DF91CF911F910F91FF900895EF92BC
:10151000FF920F931F93CF93DF93E901662309F4A2
:101520004BC0242F30E0EFEFF0E0E61BF109B901EA
:10153000E69F9001E79F300DF69F300D1124232F79
:101540008B01031B11095CE3E52EF12CB7010E940E
:10155000DD2EFB01BC01069FC001079F900D169F69
:10156000900D1124B7010E94DD2EE230F105B1F09B
:1015700040F4309779F0319711F5832F242F461BD3
:1015800021C0E430F105A1F068F03597C1F4842F53
:10159000861B18C0832F262F230F14C0862F830F7E
:1015A000E42F03C0E42FE61B842F432F2E2F0AC005
:1015B000842F462F430F06C0842F242F03C080E0C2
:1015C00020E040E0E42FF0E0EC5FFB4F4491E22F9D
:1015D000F0E0EC5FFB4F9491E82FF0E0EC5FFB4F05
:1015E000E49149839883EA83DF91CF911F910F9112
:1015F000FF90EF90089580914902282F26952F7330
:1016000030E02115310519F48178826005C025325A
:10161000310524F081788864809349023091490231
:10162000432F441F4427441F20914A02522F550F35
:10163000852F842B27FB992790F9893641E0940761
:101640007CF068E671E00E94F12E80FB37F9309360
:10165000490286952078822B90FB87F980934A0275
:10166000089588E090E00C945C2FCF93DF9300D036
:1016700000D0CDB7DEB7AB01BC0149835A836B8381
:101680007C830E94FB0A49815A816B817C8188E0BE
:1016900090E00F900F900F900F90DF91CF910C94EE
:1016A0007A2FE9E4F2E083E0808310924A028FEF20
:1016B00082838383148260817181828193810C94FF
:1016C000350B8091490280FF03C086958F73089582
:1016D00080E0089580914D0290E00196843091055C
:1016E00014F083E090E080934D0260914902709184
:1016F0004A0280914B0290914C020C94350B8091E0
:101700004D0290E0019797FF02C080E090E08430A6
:10171000910514F083E090E080934D0260914902BE
:1017200070914A0280914B0290914C020C94350BBF
:101730008091490280FF06C060E170E08EE492E093
:101740000C948D1180E090E0FC01E25BFD4F118272
:1017500010821282039680339105B1F7EDCF9091FC
:10176000490290FF0FC020E030E0F901E25BFD4F3D
:101770008183608342832D5F3F4F20333105A9F77A
:101780000C94980B0895CF93DF9300D01F92CDB7A0
:10179000DEB72091490220FF0AC09E012F5F3F4F14
:1017A0000E94870A4B8169818A810E94AF0B0F904A
:1017B0000F900F90DF91CF9108955F926F927F927B
:1017C0008F929F92AF92BF92CF92DF92EF92FF9251
:1017D0000F931F93CF93DF9300D01F92CDB7DEB747
:1017E0008C01E62EF42E522E8091490280FF8BC090
:1017F000982F9E77923061F49E012F5F3F4FC80172
:101800000E94870A4B8169818A810E94AF0B5BC06D
:10181000E82FE695EF739EE39E0F9F73943018F4C4
:10182000F0904C0250C09AE39E0F9F73993068F479
:10183000881F8827881F90914A02292F220F022F84
:10184000082B97FB112710F93EC087E28E0F8F738C
:101850008A30C8F5F0E07997E0FD02C021E001C0D0
:101860002FEFEE7FE650FC4F85919491AC0184E020
:10187000569547958A95E1F724034001259F900CE2
:101880001124580188E9A81A8EEFB80A9EE4C92EDF
:1018900092E0D92E28E6622E77247394C501B30115
:1018A0000E94DD2E96014F2D6E2D0E94870AA80CF6
:1018B000B91C83E0C80ED11C8EE7C81682E0D8069A
:1018C00069F70E94980B8091490200FB87F9809389
:1018D0004902902F969580914A028078892B10FBBF
:1018E00087F980934A02E0924B02F0924C02552015
:1018F00051F06091490270914A0280914B0290919F
:101900004C020E94350B0F900F900F90DF91CF91FA
:101910001F910F91FF90EF90DF90CF90BF90AF900D
:101920009F908F907F906F905F900895282FE9E4AB
:10193000F2E09081991F9927991F30914A02832FD5
:10194000880F482F492B37FB552750F9CA010896B5
:1019500068E671E00E94F12E438162810C94DD0BF8
:1019600081E00C94960C282F90914902991F992799
:10197000991F30914A02832F880F482F492B37FB3C
:10198000552750F9CA01483051051CF4805A9E4F22
:1019900001C0089768E671E00E94F12E40914C0268
:1019A00060914B020C94DD0B81E00C94B30C6091C0
:1019B0004B02262F30E0283F310514F4685F01C048
:1019C0006FEF30914902331F3327331F90914A0242
:1019D000592F550F97FB992790F9282F40914C02CA
:1019E000852F832B0C94DD0B81E00C94D70C609138
:1019F0004B02262F30E02830310514F0685001C02A
:101A000060E030914902331F3327331F90914A021F
:101A1000592F550F97FB992790F9282F40914C0289
:101A2000852F832B0C94DD0B81E00C94F70C4091F7
:101A30004C02242F30E0283F310514F4485F01C0E8
:101A40004FEF30914902331F3327331F90914A02E1
:101A5000592F550F97FB992790F9282F60914B022A
:101A6000852F832B0C94DD0B81E00C94170D409196
:101A70004C02242F30E02830310514F0485001C0CA
:101A800040E030914902331F3327331F90914A02BF
:101A9000592F550F97FB992790F9282F60914B02EA
:101AA000852F832B0C94DD0B81E00C94370D20E007
:101AB0000C94DD0BCF939091490290FF40C0917838
:101AC000811102C0926007C0853210F0986403C093
:101AD0008F73880F982B90934902662351F0609181
:101AE000490270914A0280914B0290914C020E94EF
:101AF000350BC09149026C2F66956F7370E04BE017
:101B000050E082E091E00E94472F892B19F010925B
:101B10006F0103C081E080936F01CC1FCC27CC1FE5
:101B200090914A02892F880F97FB992790F940914D
:101B30004C0260914B028C2BCF910C94570DCF919E
:101B40000895682F9091490296959F7381E0890FBF
:101B5000853208F081E00C945A0D81E00C94A10DBF
:101B6000682F9091490296959F738FEF890F09F422
:101B700084E20C945A0D81E00C94B00D61E00C9459
:101B80005A0DE9E4F2E080818160808386958F734D
:101B90000C94BE0D60E00C945A0D8091700181117F
:101BA00035C080911A02816080931A020E94DC1D68
:101BB000811104C00E94691E0E94510B0E94310BCA
:101BC0006093490270934A0280934B0290934C02B7
:101BD0006E7761F40E94510B0E94310B60934902B1
:101BE00070934A0280934B0290934C020E94FB0A2E
:101BF00081E080936F018091490280FF04C0869547
:101C00008F730E94CA0D81E0809370010895E9E40A
:101C1000F2E080818E7F80836081718182819381F7
:101C20000E94350B10926F012FEF80E792E0215058
:101C300080409040E1F700C000000C94980B809128
:101C4000490280FD0C94070E0C94C10DCF93E82F30
:101C5000F0E0EA50FC4FC49180916D0190916E01CB
:101C60000E94901FEC2FF0E08E179F0708F443C0EE
:101C70000E94841F90936E0180936D0160916C01AE
:101C800070E080E090E00E94CE2C20E030E04FE752
:101C900053E40E94F12B2BED3FE049E450E40E9415
:101CA000F72D0E94642E0E946B2C2BE43AE34EE247
:101CB0005FE30E94842B20EF3BEF48ED52E40E944B
:101CC000F72D0E949D2C462F80914902881F88275E
:101CD000881F90914A02292F220F97FB992790F98C
:101CE00060914B02822B0E94C30B80916C0190E0AB
:101CF000019680936C01CF910895CF93E82FF0E087
:101D0000ED50FC4FC49180916A0190916B010E944B
:101D1000901FEC2FF0E08E179F07E8F00E94841FC1
:101D200090936B0180936A0140914C0260914B0249
:101D300080916801909169010E94C30B80916801B4
:101D400090916901019668E671E00E94DD2E909302
:101D5000690180936801CF910895CF92DF92FF923D
:101D60000F931F93CF93DF93F82EE82FE695F0E0C3
:101D7000E051FC4FC49180916601909167010E94EF
:101D8000901FEC2FF0E08E179F07F0F10E94841F48
:101D900090936701809366010EE412E0C0E0D0E00A
:101DA00088E6C82EDD24D39480916401909165016A
:101DB0008C0F9D1FB6010E94DD2E980140914C02B0
:101DC00060914B020E94870A66960D5F1F4FC036D6
:101DD00081E0D80749F70E94980B20916401309167
:101DE0006501F0FE0BC0C901019668E671E00E9432
:101DF000DD2E909365018093640106C02150310966
:101E00003093650120936401DF91CF911F910F9171
:101E1000FF90DF90CF900895AF92BF92CF92DF9264
:101E2000EF92FF920F931F93CF93DF9380FF02C037
:101E30001FEF01C011E08695E82FF0E0E351FC4F61
:101E4000C49180916201909163010E94901FEC2FD8
:101E5000F0E08E179F0708F465C00E94841F9093DE
:101E60006301809362012EE4C22E22E0D22E30E57F
:101E7000E32E32E0F32EC0E0D0E0F701319710827C
:101E8000F6011082F701108294E0A92EB12C00E037
:101E900080916101800F87FD805F082E000C990BF7
:101EA000C817D907E9F480914C028A9DA0018B9D47
:101EB000500D1124559547955595479580914902A8
:101EC000881F8827881F90914A02592F550F97FB2A
:101ED000992790F9960160914B02852B0E94870A01
:101EE000010FF1E0AF1AB10899F6219683E0C80E10
:101EF000D11CE3E0EE0EF11CC031D10509F0BDCFDD
:101F00000E94980B80916101113031F4811102C05F
:101F10008FE006C0815004C090E001968F70992731
:101F200080936101DF91CF911F910F91FF90EF900E
:101F3000DF90CF90BF90AF900895EF92FF920F93F4
:101F40001F93CF93DF93E82FF0E0E651FC4FC4914D
:101F500080915F01909160010E94901FEC2FF0E052
:101F60008E179F0708F464C00E94841F909360013D
:101F700080935F0180E090E0FC01E25BFD4F118205
:101F800010821282039680339105B1F78EE4E82E19
:101F900082E0F82E00E512E0C0E0D0E080915E0122
:101FA000082E000C990BC817D907ECF0809101019D
:101FB000082E000C990B8C179D07ACF080914902FC
:101FC000881F8827881F90914A02592F550F97FB29
:101FD000992790F9970140914C0260914B02852B13
:101FE0000E94870A07C0F80131971082F70110821A
:101FF000F80110822196F3E0EF0EF11C0D5F1F4FE8
:10200000C031D10559F60E94980B80910001909142
:102010005E01980F90935E0120910101280F20939B
:102020000101121614F49F301CF081958093000179
:10203000DF91CF911F910F91FF90EF900895EF9254
:10204000FF920F931F93CF93DF9380915C01909148
:102050005D010E94901F883E9340D0F10E94841F32
:1020600090935D0180935C01C0915A01D0915B0116
:102070002196C170DD27D0935B01C0935A018EE495
:10208000E82E82E0F82E10E008E7812F8695FE0109
:10209000E80FF11DCF0181709927970140914C0203
:1020A00060914B02FC010E9FC0010F9F900D112407
:1020B0000E94870A1F5FF3E0EF0EF11C103129F731
:1020C000DF91CF911F910F91FF90EF900C94980B9F
:1020D000DF91CF911F910F91FF90EF900895CF93D3
:1020E000DF9300D01F92CDB7DEB780915801909159
:1020F00059010E94901FE8EEF3E025913491821778
:102100009307C0F18091570181110CC09E012F5F90
:102110003F4F4FEF6FEF80E090E00E94870A8A8187
:10212000809357010E94841F909359018093580116
:1021300080915601813051F028F0823061F4409155
:1021400057010AC08091570140E007C060915701D4
:1021500040E080E003C040E080E060E00E94AF0B20
:102160008091560190E0019663E070E00E94F12EAC
:10217000809356010F900F900F90DF91CF910895AB
:102180000F931F93CF93DF9380915401909155014A
:102190000E94901F843F914008F448C00E94841F11
:1021A0009093550180935401CEE4D2E000E010E01A
:1021B00020915201309153018091490290914A023D
:1021C000083011051CF4232B79F002C0232B61F495
:1021D000881F8827881F592F550F97FB992790F93B
:1021E0009E0140914C020AC0881F8827881F592FE2
:1021F000550F97FB992790F99E0140E060914B02A3
:10220000852B0E94870A0F5F1F4F2396003111050F
:1022100079F60E94980B809152019091530101969A
:10222000817099279093530180935201DF91CF9150
:102230001F910F91089580916F018823D9F190919A
:102240004902892F86958F732EE3280F2F73243030
:1022500018F482500C94260E2AE3280F2F73233093
:1022600018F486500C947D0E27E3280F2F73263028
:1022700018F489500C94AD0E21E3280F2F732630EB
:1022800018F48F500C940C0F2BE2280F2F7323306F
:1022900018F485510C949D0F892F8E77803311F49B
:1022A0000C941F10863411F40C946F10883411F4C0
:1022B0000C94C01008952EB1342F309523233EB1D5
:1022C000432B3FB7F894FC01680F791FE617F70717
:1022D00089F0819198E04EB9000000C087FF2EB9C7
:1022E000880F000000C000C000C02EB900C09A9541
:1022F00091F7ECCF3FBF08952DB1242B2DB99B0151
:10230000220F331F620F731F0E945B1187EC90E056
:102310000197F1F700C00000089544E00C947C118F
:1023200090937601809375010895E0917501F09185
:102330007601309721F00190F081E02D099480E042
:102340000895E0917501F0917601309799F0209110
:102350001F01222359F02091840227FF07C0DC01CE
:102360002C9111962C93119725E02C930280F381E8
:10237000E02D09940895E0917501F0917601309770
:1023800039F022E0DC012C930480F581E02D0994E2
:10239000089520917301309174018217930771F0B1
:1023A0009093740180937301E0917501F09176012F
:1023B000309721F00680F781E02D0994089520914F
:1023C0007101309172018217930771F0909372013D
:1023D00080937101E0917501F0917601309721F0C1
:1023E0000084F185E02D0994089585B7806885BF44
:1023F00085B7806885BF0895089508950C94FD11F0
:1024000008950C9400120E94F5110E94FC110C9486
:10241000FE1181E008950E947B1F0E9460090E94C6
:1024200050200E949A230E94CD0D0C9401124F92CD
:102430005F927F928F929F92AF92BF92CF92DF92E4
:10244000EF92FF920F931F93CF93DF93CDB7DEB739
:102450002A970FB6F894DEBF0FBECDBF0E94AA091F
:102460000E940912811111C08FEF89838A831B8218
:102470000E94841F8160782F9D838C8349815A81BB
:102480006B818D810E94D51257C098E7C92E91E0CB
:10249000D92E00E010E0AA24A394B12C702E802F36
:1024A0000E94420A4C01F601419051906F0148266A
:1024B00059264114510431F40F5F1F4F05301105A7
:1024C00069F7D2CF80911A0281FD0E944B0A20E069
:1024D00030E07501022E02C0EE0CFF1C0A94E2F7F8
:1024E000C70184219521892B09F12E837F828E20BB
:1024F0009F2091E0892809F490E098870E94841F2A
:102500008160782F9A8789874E815F8168858A8567
:102510000E94D512000F111FF801E858FE4F80816C
:102520009181E826F926F182E08206C02F5F3F4FB5
:102530002F30310571F6C0CF0E94F3221091770140
:102540000E9495111817D9F00E9495118093770178
:102550002A960FB6F894DEBF0FBECDBFDF91CF91A4
:102560001F910F91FF90EF90DF90CF90BF90AF90B1
:102570009F908F907F905F904F900C9415042A96B7
:102580000FB6F894DEBF0FBECDBFDF91CF911F9184
:102590000F91FF90EF90DF90CF90BF90AF909F9002
:1025A0008F907F905F904F900895CF93DF93CDB73A
:1025B000DEB72B970FB6F894DEBF0FBECDBF4F83AB
:1025C000588769877A878B87DE01119686E0FD013F
:1025D00011928A95E9F785E0FE01379601900D92F8
:1025E0008A95E1F749815A816B817C818D819E8139
:1025F0000E94211A2B960FB6F894DEBF0FBECDBFF6
:10260000DF91CF910895FC01808191810E94ED1CA2
:102610000895882309F41AC18238C1F40E949511E3
:1026200081FD14C169E380910D0190910E010E941A
:10263000D01E0E94781D2FEF81EE94E02150804043
:102640009040E1F700C0000069E319C08338F9F455
:102650000E94951180FDFAC063E580910D01909173
:102660000E010E94D01E0E94781D2FEF81EE94E093
:10267000215080409040E1F700C0000063E5809168
:102680000D0190910E010E94DB1E0C94781D843880
:10269000C1F40E94951182FDD9C067E480910D01BB
:1026A00090910E010E94D01E0E94781D2FEF81EEA6
:1026B00094E0215080409040E1F700C0000067E4C2
:1026C000DECF9CEF980F913A40F4682F80910D0176
:1026D00090910E010E94D01ED8CF90E2980F9830B2
:1026E00050F4877091E001C0990F8A95EAF7892F1D
:1026F0000E942F1DCACF9BE5980F933070F4853A46
:1027000029F0863A31F083E890E005C081E890E056
:1027100002C082E890E00C94C91198E5980F9731B7
:1027200008F08EC0883A09F445C0893A09F445C0DA
:102730008A3A09F445C08B3A09F445C08C3A09F449
:1027400045C08B3B09F445C08C3B09F445C08D3A2C
:1027500009F445C0803B09F445C08E3A09F445C0F0
:102760008F3A09F445C0813B09F445C0823B09F426
:1027700045C0833B09F445C0843B09F445C0853B13
:1027800009F445C0863B09F445C0873B09F445C0C0
:10279000883B09F445C0893B09F445C08D3B09F4E9
:1027A00045C08E3B09F445C08A3B09F445C080E032
:1027B00090E044C082EE90E041C089EE90E03EC0DF
:1027C0008AEE90E03BC085EB90E038C086EB90E06D
:1027D00035C083EB90E032C084EB90E02FC087EBF4
:1027E00090E02CC08CEC90E029C08DEC90E026C0ED
:1027F00083E891E023C08AE891E020C082E991E07B
:102800001DC084E991E01AC081E292E017C083E222
:1028100092E014C084E292E011C085E292E00EC022
:1028200086E292E00BC087E292E008C08FE690E07B
:1028300005C080E790E002C08AE292E00C94DF11CC
:10284000803F20F00E94FB210C94E8220895882309
:1028500009F464C0823879F40E94951181FF5EC04A
:1028600069E380910D0190910E010E94D01E0E949B
:10287000781D69E310C08338B1F40E94951180FF80
:102880004DC063E580910D0190910E010E94D01E14
:102890000E94781D63E580910D0190910E010E94C8
:1028A000DB1E0C94781D843879F40E94951182FF08
:1028B00035C067E480910D0190910E010E94D01EF9
:1028C0000E94781D67E4E7CF9CEF980F913A10F4CF
:1028D000682FE1CF90E2980F983050F4877091E024
:1028E00001C0990F8A95EAF7892F0E94351DD9CF2B
:1028F0009BE5980F933020F480E090E00C94C91190
:1029000098E5980F973120F480E090E00C94DF1167
:10291000803F20F00E9463220C94E82208958823CF
:1029200021F00E942F1D0C94781D0895882321F01A
:102930000E94351D0C94781D08954F925F926F92FE
:102940007F92BF92CF92DF92EF92FF920F931F93ED
:10295000CF93DF937C01D62FC72FFC010581029511
:102960000F70128111110E944C1D0E94251D882399
:1029700079F0112369F080E28D0F883048F082E011
:102980000E94C31D0E94251D91E0B82EB92601C0EA
:10299000B12CCC2EC2948FE0C822D12CF601E8597C
:1029A000FF4F0C94272F8C2F807FCF70882311F03E
:1029B000C295C07F112399F0CC2309F4D0C180E2E5
:1029C0008D0F883010F0D11104C08C2F0E942F1D64
:1029D00003C08C2F0E943F1D0E94781DC0C18D2F07
:1029E0000E942714CC2309F403C280E28D0F8830A3
:1029F00010F0D11104C08C2F0E94351D03C08C2F04
:102A00000E94451D0E94781DF3C18C2F807FCF70DE
:102A1000803211F0C295C07FDD2319F0D130C9F0AA
:102A200022C0112371F0002341F0013031F40E94E3
:102A30005F1D8C2B0E94651DDBC10E945F1D8C2BCE
:102A400046C1002319F0013009F4D2C10E946E1D65
:102A500018C0112321F0063008F0CAC10EC005309D
:102A600008F0C6C10EC0112351F0002331F0F70168
:102A7000858180FF74C18F7085838C2F28C10111DF
:102A80007FC18C2F2AC18C2F86958695837090E00C
:102A9000009719F0019761F0ABC1112321F08D2F40
:102AA0009C2F937002C080E090E00E94C911B0C1D9
:102AB000112321F08D2F9C2F937002C080E090E0B5
:102AC0000E94DF11A5C11123F9F0D53F51F0D63F87
:102AD00071F0D43FA9F480917E0290917F028160D1
:102AE0000BC080917E0290917F02826005C0809130
:102AF0007E0290917F02846090937F0280937E0299
:102B00008D2F0E94FB211EC0D53F51F0D63F71F0A2
:102B1000D43FA9F480917E0290917F028E7F0BC0FA
:102B200080917E0290917F028D7F05C080917E0210
:102B300090917F028B7F90937F0280937E028D2FF6
:102B40000E9463220E94E82263C18C2F837009F0E7
:102B500050C0111159C18D2F829586958770880FAD
:102B6000880F9D2F9F70492E512C612C712C082E9F
:102B700004C0440C551C661C771C0A94D2F7D4FF81
:102B800014C00FE010E020E030E0B901A80104C05B
:102B9000440F551F661F771F8A95D2F7CB01BA01E4
:102BA000609570958095909503C060E070E0CB01D2
:102BB000C695C695C370D0E0C230D10561F0C33070
:102BC000D10581F06429752986299729219771F00B
:102BD0000E94661B19C164297529862997290E94BC
:102BE000781B12C10E94661BC301B2010E94541BD4
:102BF0000BC1112319F08C2F817001C08695882399
:102C000009F402C18D2F829586958770880F880FF1
:102C10009D2F9F70492E512C612C712C082E04C0C1
:102C2000440C551C661C771C0A94D2F7D4FF14C0C0
:102C30000FE010E020E030E0B901A80104C0440F2B
:102C4000551F661F771F8A95D2F7CB01BA01609591
:102C500070958095909503C060E070E0CB01C695BB
:102C6000C695C3704C2F50E04230510569F0433097
:102C7000510589F064297529862997294130510524
:102C800071F00E942C1CC0C06429752986299729DF
:102C90000E943E1CB9C00E942C1CC301B2010E94BC
:102CA0001A1CB2C08D2F90E0FC01E05EF109E53105
:102CB000F10508F050C0E858FF4F0C94272FDF7043
:102CC0008C2F8F71112331F00E94B31B8D2F0E9426
:102CD0008F148EC00E94D41B8D2F0E94961488C022
:102CE000112341F0053008F083C08C2F8F710E94B2
:102CF000F91B7EC0063008F07BC0F7CF112339F0F6
:102D00008C2F8F710E94B31B73C01123C9F38C2FBA
:102D10008F710E94D41B6CC0112329F08C2F8F71EE
:102D20000E949E1B65C00E94991B62C0112349F03E
:102D3000CF718C2F0E94B31B63E08C2F0E94AE1DBD
:102D400057C081E00E94C31D023008F451C082E0E8
:102D50000E94C31D4DC0112331F0002389F28D2F35
:102D60000E94091345C0002391F2D93349F45FEF63
:102D700067EE73E0515060407040E1F700C0000022
:102D80008D2F0E94271434C04C2F4F706D2FC70118
:102D90000E94AD060E94C51A3BC0111139C0CF7008
:102DA000D0E0C230D10599F03CF4209769F021972A
:102DB000F9F40E94D4232CC0C430D10571F054F032
:102DC0002597B1F480E00AC00E94B72321C00E9479
:102DD00013241EC00E941A241BC085E00E943D24BB
:102DE00017C04C2F4F706D2FC7010E94B00610C046
:102DF00088E0C816D10441F05CF0EAE0CE1AD108B0
:102E0000F2E0CF16D10420F40E9495110E9415041F
:102E1000BB20F1F00E94211D80FD1AC0F701128233
:102E20000E941B1D0E94B31BC7010E9436170E94FF
:102E30001B1DDF91CF911F910F91FF90EF90DF90BD
:102E4000CF90BF907F906F905F904F900C94D41B69
:102E5000DF91CF911F910F91FF90EF90DF90CF9076
:102E6000BF907F906F905F904F9008950F931F9346
:102E7000CF93DF93EC01888199812B813C81232BB7
:102E8000B9F09F3F11F48F3F99F0CE010E942704C3
:102E9000882371F0688179818A810E94F81C8C01F5
:102EA0000E94501C0E94511BB801CE010E949D142B
:102EB000DF91CF911F910F9108950E944C1D0E94A8
:102EC0005C1D0E94781D0E948E230E94E82280E0F3
:102ED00090E00E94C91180E090E00C94DF11809195
:102EE0000D0190910E010E94E61E0C945D170E9448
:102EF0003C1D0C946F17E92FE295EF70F0E03297CC
:102F0000EE30F105B0F4E357FF4F0C94272F803FCC
:102F100091F018F4803E68F40EC0843F51F40BC069
:102F2000803E48F0813F29F406C093FB882780F952
:102F3000089580E0089581E008950E94ED1C0E94AC
:102F40007B170895CF93DF9300D000D01F92CDB7A9
:102F5000DEB70F900F900F900F900F90DF91CF91F1
:102F60000895CF93DF9300D000D000D0CDB7DEB767
:102F700026960FB6F894DEBF0FBECDBFDF91CF917E
:102F800008951F93CF93DF93C091830116E0809142
:102F90008401C81799F0D0E01C9FF0011D9FF00D2F
:102FA0001124EB57FE4F40815181628173818481EE
:102FB00095810E94B1172196C770E9CFDF91CF911B
:102FC0001F9108954091B5015091B6016091B701EC
:102FD0007091B8018091B9019091BA010C94B11728
:102FE0008091BA0182958F7009F054C08091B70129
:102FF000882309F44FC080918301A09184016091DE
:10300000B5017091B6014091B8015091B901B6E097
:103010008A1709F43FC090E041155105C1F17F3F87
:1030200011F46F3FA1F1B89FF001B99FF00D112489
:10303000EB57FE4F218172132AC02081621327C0F3
:103040002281211124C0238134812417350710F4F3
:1030500021503109241B350B283C3105C0F4209147
:10306000BA012F7020612093BA0126E0289FF00159
:10307000299FF00D1124E657FE4F80818F708061EB
:10308000808385EB91E00E9436170C94C11701965E
:103090008770BECF0895CF92DF92EF92FF920F9389
:1030A0001F93CF93DF93CDB7DEB762970FB6F89437
:1030B000DEBF0FBECDBF8C0185E0F801DE011D969D
:1030C00001900D928A95E1F7D8014C9111965C918F
:1030D000119712966C9112971396CD90DC901497DD
:1030E0003091B5017091B6018091B8019091B9010C
:1030F000009709F46BC17F3F19F43F3F09F466C1A3
:10310000E090B701EE2009F4C0C02091BA01C816C2
:10311000D90628F0F601E81BF90BCF0104C0809511
:1031200090958C0D9D1DFF24F394883C910578F0BB
:10313000F12C207F09F0C6C07C2DD98AC88A8989E4
:103140000E94A21785EB91E00E943617B1C0822F32
:10315000807F09F046C0751314C0341312C061118A
:1031600010C02F7020612093BA010E94E21785EBF6
:1031700091E00E9436178091BA01D80115968C9380
:103180002EC0CD2819F15F3F11F44F3FF9F0F62E14
:1031900061111CC0809183012091840136E0821767
:1031A00009F45AC090E0389FF001399FF00D1124C6
:1031B000EB57FE4F7181571306C07081471303C050
:1031C0007281711103C001968770E9CFF62E6623D4
:1031D00009F427C18091BA0181608093BA01F12C72
:1031E00020C1751308C0341306C0611104C080915A
:1031F000BA01D801C3C04D875E878D859E856A8BD5
:103200000E949D176A898823E1F16623D1F12091FC
:10321000BA01822F82958F7090E0029774F08091AE
:10322000B5019091B60198878F831986DB86CA868F
:103230002C87CE0107960E94361786E0F801A5EB91
:10324000B1E001900D928A95E1F70E94F0170E947B
:10325000E217FF24F394E5C04D875E878D859E8538
:103260000E94ED1C292F22952F7030E0223031056D
:103270000CF0CBC09F7009F0C5C0805E883008F4A8
:10328000D0C0C8010E943617E4CFC816D90608F48A
:1032900053C0F601E81BF90BCF01883C910508F4F7
:1032A00050C0F12C7C2DD98AC88A89890E94A21726
:1032B000E5EBF1E086E0DF011D928A95E9F70E94D7
:1032C000E217AFC0751314C0341312C0611110C0DF
:1032D0008091BA01F8018583C8010E94361786E003
:1032E000E5EBF1E0DF011D928A95E9F7FE2C99C02C
:1032F0004D875E878D859E856A8B0E949D176A89A2
:10330000882309F4BECF662309F4BBCF2091BA010C
:10331000822F82958F7090E002970CF48ECF80916F
:10332000B5019091B6019A8389831B82DD82CC829C
:103330002E83CE0101967FCF809590958C0D9D1D9B
:10334000ACCFF62E662309F49CCF75132EC0341330
:103350002CC02091BA0120FD1FC0822F82958F7052
:10336000D9F0D80115962C9315978F3049F08F5FBF
:10337000982F9295907F822F8F70892B15968C9322
:10338000C8010E94361786E0F801A5EBB1E0019074
:103390000D928A95E1F793CF86E0F801A5EBB1E0B5
:1033A00001900D928A95E1F73CC04D875E878D852F
:1033B0009E850E949D17811140CF8091BA01816046
:1033C0008093BA01C8010E9436172BC0662309F406
:1033D00058CF4D875E878D859E850E949D17F82E5C
:1033E000882309F44ECF86E0F801A5EBB1E0019007
:1033F0000D928A95E1F785EB91E00E9403130E94FC
:10340000F0175DCF811139CF0CC0243031050CF09D
:1034100038CF9F7009F431CFF8019581907F09F082
:103420002CCF8F2D62960FB6F894DEBF0FBECDBFA6
:10343000DF91CF911F910F91FF90EF90DF90CF9090
:1034400008951F93CF93DF93CDB7DEB72C970FB6B8
:10345000F894DEBF0FBECDBF4F83588769877A8748
:103460008B879C87CE0107960E944B18882369F0B2
:103470008F8198852A853B85232BF1F19F3F09F0A9
:1034800063C08F3F09F060C037C086E0FE01379609
:10349000DE01119601900D928A95E1F76F81788592
:1034A000EA85FB85309741F17F3F11F46F3F21F1B1
:1034B0002091840130E0C9010196877099274091DD
:1034C000830150E08417950709F447C069837A8324
:1034D000FD83EC8396E0929FD001939FB00D112461
:1034E000AB57BE4FFE01319601900D929A95E1F7D0
:1034F000809384010E94C11716E08091830190910E
:1035000084018917C1F1189FC00111248B579E4F68
:103510000E944B18882379F1E09183011E9FF001EE
:103520001124EB57FE4F4081518162817381848168
:1035300095810E94B1178091830190E00196877078
:10354000992780938301D9CF4F81588569857A85E2
:103550008B859C850E94B117CFCF0E947717109260
:10356000840110928301E5EBF1E086E0DF011D921A
:103570008A95E9F7C1CF2C960FB6F894DEBF0FBE3F
:10358000CDBFDF91CF911F910895EF92FF920F93DE
:103590001F93CF93DF938C01892B09F46CC0F12C1E
:1035A000EE24E394E8012196F8018491843740F4F5
:1035B000843008F051C0813081F0823019F15BC055
:1035C000853709F444C0A8F19CE7980F903708F0BC
:1035D00052C08F770E94271441C00E5F1F4FFE011B
:1035E000C49180E28C0F883048F4C7708E2D01C0E2
:1035F000880FCA95EAF70E944F1D14C08C2F0E94B5
:1036000009132DC00E5F1F4FFE01C49180E28C0F85
:10361000883058F4C7708E2D01C0880FCA95EAF71C
:103620000E94551D0E94781D1AC08C2F0E942714DD
:1036300016C00E5F1F4FFE01C491CC2381F08FE9AD
:103640009FE00197F1F700C00000C150F6CF0E5F78
:103650001F4FFE01F49003C00E9409138E018F2DAD
:10366000882309F49FCFEFE9FFE03197F1F700C01D
:1036700000008150F5CFDF91CF911F910F91FF9006
:10368000EF90089508950C94421B0E94431B609391
:10369000F1017093F2018093F3019093F4010C9483
:1036A0005D1708950C94451B0F931F930091F10132
:1036B0001091F2012091F3013091F401602B712BF4
:1036C000822B932B1F910F910C94451B0F931F93EB
:1036D0000091F1011091F2012091F3013091F40178
:1036E00060237123822393231F910F910C94451B18
:1036F0000F931F930091F1011091F2012091F301BA
:103700003091F40160277127822793271F910F9131
:103710000C94451B08950C948A1B0E948B1B60938C
:10372000ED017093EE018093EF019093F0010C9402
:103730005D1760E070E0CB010C948D1B0F931F931D
:1037400041E050E060E070E08A019B0104C0000F9E
:10375000111F221F331F8A95D2F7C901B8011F918B
:103760000F910C948D1B0F931F9341E050E060E08C
:1037700070E004C0440F551F661F771F8A95D2F76B
:103780008091ED019091EE01A091EF01B091F001D7
:103790008A019B01082B192B2A2B3B2BC901B8014D
:1037A0001F910F910C948D1B0F931F9341E050E0DC
:1037B00060E070E004C0440F551F661F771F8A95B4
:1037C000D2F740955095609570958091ED0190915C
:1037D000EE01A091EF01B091F0018A019B01082355
:1037E00019232A233B23C901B8011F910F910C947F
:1037F0008D1B0F931F9341E050E060E070E004C028
:10380000440F551F661F771F8A95D2F78091ED01EF
:103810009091EE01A091EF01B091F0018A019B011E
:10382000082719272A273B27C901B8011F910F91A3
:103830000C948D1B0F931F930091ED011091EE01DD
:103840002091EF013091F001602B712B822B932B93
:103850001F910F910C948D1B0F931F930091ED01FD
:103860001091EE012091EF013091F001602371235E
:10387000822393231F910F910C948D1B0F931F9301
:103880000091ED011091EE012091EF013091F001D6
:1038900060277127822793271F910F910C948D1B0E
:1038A00008952FE0929F800D1124A82FA695A6952C
:1038B000A695877051E001C0550F8A95EAF785E01B
:1038C000A89FD001112420E030E070E0F901EA0F58
:1038D000FB1FE554FE4F4081CB01022E02C096959E
:1038E00087950A94E2F7817099278195842785232B
:1038F000842780832F5F3F4F2530310539F70895A6
:103900002FE0929F800D1124682F6695669566952D
:10391000982F977085E0689FB001112440E050E037
:1039200080E0FA01E60FF71FE554FE4F208130E0FA
:10393000092E02C0369527950A94E2F721703327A5
:10394000042E01C0220F0A94EAF7822B4F5F5F4FCB
:103950004530510531F70895BF92CF92DF92EF9233
:10396000FF920F931F93CF93DF938C01C090F101CF
:10397000D090F201E090F301F090F4018091ED011C
:103980009091EE01A091EF01B091F001C82AD92ADF
:10399000EA2AFB2ACFE1D0E0D701C6010C2E04C0F1
:1039A000B695A795979587950A94D2F780FF07C09B
:1039B000BC2EB8018C2F0E94CB06019719F42197D9
:1039C00058F7B12C8B2DDF91CF911F910F91FF9064
:1039D000EF90DF90CF90BF900895CF93DF93EC01ED
:1039E0000E94AC1CBE010E94CB06DF91CF910895CE
:1039F0001F93CF93DF93EB0190918201992321F0E4
:103A0000CB010E94ED1C13C0882349F0CB010E941A
:103A1000AC1C182F682FCE010E94511C04C0CB0192
:103A20000E94801C182FBE01812F0E94CB06DF91BF
:103A3000CF911F9108958091F50185958595859584
:103A400008958091F501877008959091F501977020
:103A500081E009F480E00895809119020895909121
:103A60001902892B8093190208958095909119026B
:103A70008923809319020895109219020895909154
:103A80001802892B8093180208958095909118024E
:103A90008923809318020895109218020895909136
:103AA0001702892B80931702089580959091170231
:103AB0008923809317020895109217020895809128
:103AC000F601089508950C94621D9091F6019817DF
:103AD00021F08093F6010C94631D08958091F60106
:103AE000882329F01092F60180E00C94631D08955C
:103AF000E0910D01F0910E01809119028083E09117
:103B00000D01F0910E01908180911802892B808324
:103B1000E0910D01F0910E01908180911702892BA7
:103B200080838091F601882381F0E0910D01F0916E
:103B30000E019081892B808380910D0190910E015F
:103B40000E946B1E81110E946E1D80910D0190914B
:103B50000E010C94A11108950C94AB1D98E0899F5F
:103B600090011124262B2093F5010E94B31B809114
:103B7000F5018595859585950C94AC1D1092F50100
:103B800080E00C94AC1D2091F501809582238093F8
:103B9000F501982F977079F430E0482F082E000C2B
:103BA000550B2417350739F08595859585950E9425
:103BB000D41B0C94BE1D089580E090E00E94622FFB
:103BC00021E08D3E9E4F09F020E0822F089582E093
:103BD00090E00C94542F682F82E090E00C94682FB2
:103BE00083E090E00C94542F682F83E090E00C94D5
:103BF000682F84E090E00C94542F682F84E090E0CC
:103C00000C94682F86E090E00C94542F682F86E087
:103C100090E00C94682FAB01BC018FE090E00C9415
:103C20007A2FAB01BC0183E190E00C947A2F60E025
:103C300070E0CB010C94111E60E070E0CB010E949B
:103C40000B1E0C94171E6DEE7EEF80E090E00E943C
:103C5000862F60E082E090E00E94682F60E083E0C1
:103C600090E00E94682F1092F1011092F2011092E0
:103C7000F3011092F40160E084E090E00E94682F6C
:103C800060E085E090E00E94682F60E086E090E0D0
:103C90000E94682F6FEF87E090E00E94682F40E05D
:103CA00050E0BA0188E090E00E947A2F60E08DE059
:103CB00090E00E94682F40E050E0BA0188E190E077
:103CC0000E947A2F60E087E190E00E94682F0C94B8
:103CD0001C1E0C94231EFC01329680911F01882328
:103CE00031F08091840287FF02C09EE101C096E01E
:103CF00080E0915028F021912223D9F38F5FF9CFF2
:103D000008959C01FC0132969FEF80E04191461797
:103D100089F09F3F19F4411101C0982F8F5F8630C1
:103D2000A9F79F3F39F0F901E90FF11D97FDFA95C9
:103D3000628308950895FC01329608962081261327
:103D400001C010823196E817F907C1F70895262FB0
:103D50002695269526952E3168F4FC01E20FF11D7B
:103D6000677021E030E001C0220F6A95EAF7828196
:103D7000282B22830895262F2695269526952E31C9
:103D800070F4FC01E20FF11D677021E030E001C02A
:103D9000220F6A95EAF720958281282322830895CD
:103DA00020911F01222329F02091840227FD0C94E9
:103DB000A71E0C94811E20911F01222329F020911F
:103DC000840227FD0C94BB1E0C949B1E20911F01A6
:103DD000FC013296222331F08091840287FF02C0D9
:103DE0008EE101C086E0DF011D928A95E9F7089512
:103DF00008950C94F81E0E94F91E80918B02843065
:103E000061F110921B0220E488E190E00FB6F89473
:103E1000A895809360000FBE2093600080E00E9410
:103E20009E0380E00E9415040E94F91E83B7817FE3
:103E3000846083BF83B7816083BF7894889583B79C
:103E40008E7F83BF0FB6F894A8958091600088613B
:103E500080936000109260000FBE08950895089549
:103E6000CF930E942E1F0E94AA090E942F1FC0E01C
:103E70008C2F0E94420A892B29F4CF5FC530C1F7ED
:103E800080E001C081E0CF91089508950C94451F12
:103E90000E9477170E949A230E9495110E94150490
:103EA0000C94461F1F920F920FB60F9211248F93FE
:103EB0009F93AF93BF9380911B02811113C0809198
:103EC000800290918102A0918202B091830241967A
:103ED000A11DB11D8093800290938102A093820264
:103EE000B0938302BF91AF919F918F910F900FBEBE
:103EF0000F901F90189582E084BD93E095BD9AEFD6
:103F000097BD80936E0008952FB7F894809180023A
:103F100090918102A0918202B09183022FBF0895F7
:103F2000CF92DF92EF92FF920F931F932FB7F894E7
:103F300040918002509181026091820270918302CF
:103F40002FBF6A017B01EE24FF248C0120E030E0CA
:103F5000C016D106E206F30610F4415051099A0149
:103F6000281B390BC9011F910F91FF90EF90DF9033
:103F7000CF90089578941F920F920FB60F9211244C
:103F80008F939F93AF93BF93809180029091810212
:103F9000A0918202B09183020196A11DB11D809370
:103FA000800290938102A0938202B0938302BF911A
:103FB000AF919F918F910F900FBE0F901F9018950A
:103FC00081E08093E00080E28093D8001092C900E5
:103FD0008FE19EE40197F1F700C0000087E090EBCD
:103FE000DC018093940290939502A0939602B09383
:103FF00097029CE088E10FB6F894A8958093600042
:104000000FBE90936000FFCFAF92BF92CF92DF922E
:10401000EF92FF920F931F93CF93C0E0CC24C394F1
:10402000D12CE82EF12C8C2F0E94420A5C0100E07A
:1040300010E09601002E02C0220F331F0A94E2F70F
:104040002A213B21232B31F40F5F1F4F0F30110525
:1040500081F70AC0602F7C2F80E00E94B106E8162D
:10406000F90691F781E004C0CF5FC530E1F680E04A
:10407000CF911F910F91FF90EF90DF90CF90BF9065
:10408000AF900895CF93C82F8CE20E94042088231C
:1040900021F08C2FCF910C94042080E0CF910895D3
:1040A000CF930E94DC1D811102C00E94691EC5E6EB
:1040B000C15049F00E94AA098FE39CE90197F1F7EA
:1040C00000C00000F5CF89E20E94422081110FC19B
:1040D0008AE20E94422081110E94691E85E00E94AE
:1040E000422081110E94E01F0E94E71D80931A0266
:1040F00087E00E9442208823A9F18BE10E944220A0
:10410000882351F080911A0281FB222720F991E047
:10411000922790FB81F90EC08EE00E9442208823F6
:1041200061F080911A0282FB222720F991E0922708
:1041300090FB82F980931A0215C080E10E94422010
:1041400090911A02882341F093FB222720F981E005
:10415000822780FB93F904C0892F809580FB90F91A
:1041600090931A0280911A020E94EB1D0E94F91D81
:1041700090E0909385028093840280EE0E9442201A
:10418000882341F080918402982F909590FB80F9CC
:104190008093840289E30E944220882359F0809111
:1041A000840281FB222720F991E0922790FB81F97C
:1041B0008093840282EE0E944220882359F08091ED
:1041C000840282FB222720F991E0922790FB82F95A
:1041D0008093840286EE0E944220882359F08091C9
:1041E000840283FB222720F991E0922790FB83F938
:1041F0008093840283EE0E944220882359F08091AC
:10420000840284FB222720F991E0922790FB84F915
:104210008093840285E30E944220882359F0809194
:10422000840285FB222720F991E0922790FB85F9F3
:104230008093840281E30E944220882359F0809178
:10424000840286FB222720F991E0922790FB86F9D1
:104250008093840281E10E944220882359F080915A
:10426000840287FB222720F991E0922790FB87F9AF
:1042700080938402809184020E94FD1D87E20E9447
:104280004220C82F8EE10E9442208111C2608FE13E
:104290000E9442208111C46080E20E94422081116C
:1042A000C86081E20E9442208111C06182E20E94C6
:1042B00042208111C06283E20E9442208111C064C9
:1042C00084E20E944220882311F0C06802C0CC23FF
:1042D00029F08C2F0E94F41D6C2F03C00E94F01D4A
:1042E000682F70E080E090E0CF910C94521BCF914A
:1042F000089580911E0280FF0BC06091120185E03D
:10430000689FB001112475956795759567952BC0C9
:1043100081FF09C06091120185E0689FB0011124FE
:104320007595679520C082FF07C06091120185E0F6
:10433000689FB001112417C090911F029923D1F0FA
:1043400060911101961788F72091120185E0289F4E
:1043500090011124929FA001939F500D112470E0B1
:10436000CA010E94F12E6038710540F46115710593
:1043700039F002C065E070E0862F08958FE7089558
:1043800081E0089580911E0280FF08C060911001B5
:1043900070E0759567957595679521C081FF06C09A
:1043A0006091100170E07595679519C082FF04C097
:1043B0006091100170E010C090911F029923C1F02C
:1043C00060910F019617A0F780911001899FC0019D
:1043D000112470E00E94F12E6038710528F46115F7
:1043E000710521F0862F08958FE7089581E00895E3
:1043F00061E070E0F4CF803F21F40E947921819543
:1044000004C0813F29F40E947921809323020895FA
:10441000823F21F40E947921819504C0833F29F4D1
:104420000E947921809322020895893F19F40E9405
:10443000C22105C08A3F31F40E94C2218195809338
:10444000240208958B3F21F40E94C221819504C06B
:104450008C3F29F40E94C221809325020895843F55
:1044600021F480912102816017C0853F21F4809161
:104470002102826011C0863F21F480912102846074
:104480000BC0873F21F480912102886005C0883FDE
:1044900031F48091210280618093210208958D3F43
:1044A00021F480911E0281600BC08E3F21F4809127
:1044B0001E02826005C08F3F29F480911E02846035
:1044C00080931E020895803F39F48091230287FF74
:1044D0006CC01092230269C0813F29F480912302AD
:1044E0001816BCF362C090912202823F29F497FF14
:1044F0005CC01092220259C0833F19F41916CCF304
:1045000054C0893F41F48091240218160CF04DC02C
:10451000109224024AC08A3F29F48091240287FF26
:1045200044C0F6CF8B3F39F48091250287FF3DC010
:10453000109225023AC08C3F29F48091250218166A
:10454000BCF333C0843F21F4809121028E7F17C0D9
:10455000853F21F4809121028D7F11C0863F21F497
:10456000809121028B7F0BC0873F21F48091210233
:10457000877F05C0883F31F4809121028F7E809330
:10458000210213C08D3F21F480911E028E7F0BC04B
:104590008E3F21F480911E028D7F05C08F3F29F44C
:1045A00080911E028B7F80931E02809122028111D6
:1045B0000EC08091230281110AC0809124028111D2
:1045C00006C080912502811102C010921F02089539
:1045D00080E292E00E94BB110E94841F90931D0212
:1045E00080931C0208951F93CF93DF9380911C0248
:1045F00090911D020E94901FAC0190911F0299237F
:1046000021F02091130130E006C0209114018AE0CE
:10461000289F900111244217530708F47BC0809112
:104620002202C0912302D09124021091250281110F
:1046300007C0C1116BC0D11169C0111167C06AC038
:104640009F3F19F09F5F90931F02181624F40E9459
:104650007921809322028091220287FF05C00E9467
:1046600079218195809322021C1624F40E947921DD
:10467000809323028091230287FF05C00E94792145
:10468000819580932302309122023323E1F020911F
:1046900023022223C1F045EB3403C0011124892FEA
:1046A000990F990B009709F481E08093220235EB72
:1046B0002303C0011124892F990F990B009709F446
:1046C00081E0809323021D1624F40E94C22180936E
:1046D00024028091240287FF05C00E94C221819597
:1046E00080932402111624F40E94C2218093250293
:1046F0008091250287FF05C00E94C2218195809389
:104700002502DF91CF911F910C94E8229F3F09F081
:1047100099CFA1CFDF91CF911F910895E0E2F2E010
:1047200086E0DF011D928A95E9F710921F02109230
:104730001E0208950E94DC1D811102C00E94691EA4
:104740000E94021E80938602282F269530E0263094
:10475000310524F081708A60809386028091860200
:1047600080FF02C0869501C080E00C949E032091DA
:104770008602822F8695482F50E04530510544F43B
:104780008F5F982F990F822F8170892B80938602DB
:10479000809186028160809386020E94061E80912D
:1047A000860286950C949E0380918602982F96959A
:1047B00091F09158990F8170892B809386028E7F9A
:1047C00091E009F490E08091860290FB80F980935B
:1047D00086020E94061E8091860286950C949E0396
:1047E0008091860280FD11C08160809386028130B5
:1047F00019F483E080938602809186020E94061E4F
:104800008091860286950C949E030895809186027D
:1048100080FF08C08E7F809386020E94061E80E083
:104820000C949E0308958091860280FD0C940624CA
:104830000C94F02390918602892F86958F5F8F7755
:104840009170863028F4880F892B8093860202C0ED
:1048500090938602809186028E7F91E009F490E029
:104860008091860290FB80F9809386020E94061E4A
:104870008091860286950C949E03863008F085E030
:10488000880F909186029170892B809386028E7F8B
:1048900091E009F490E08091860290FB80F980938A
:1048A00086020E94061E8091860286950C949E03C5
:1048B0008091460208950F931F93CF93DF9300D00A
:1048C0001F92CDB7DEB78C010E94CB26823011F04B
:1048D000843021F584E089831B830A8382E08093FE
:1048E000E9008FEF9091E800815095FD06C095EDAD
:1048F0009A95F1F700008111F5CF8091E80085FFCE
:104900000DC040E050E063E070E0CE0101960E94EF
:10491000E8268091E8008E778093E8000F900F9052
:104920000F90DF91CF911F910F910895CF93DF9357
:1049300000D01F92CDB7DEB720918B02243031F525
:1049400023E02983805891099B838A8382E08093A6
:10495000E9008FEF9091E800815095FD06C095ED3C
:104960009A95F1F700008111F5CF8091E80085FF5D
:104970000DC040E050E063E070E0CE0101960E947F
:10498000E8268091E8008E778093E8000F900F90E2
:104990000F90DF91CF910895CF93DF93EC010E94A8
:1049A000CB26823011F08430F9F482E08093E90064
:1049B0009FEF8091E800915085FD06C085ED8A95B6
:1049C000F1F700009111F5CF8091E80085FF0CC050
:1049D00040E050E066E070E0CE010E94E826809161
:1049E000E8008E778093E800DF91CF910895CF9310
:1049F000DF93EC010E94CB26823011F08430D9F590
:104A000080911F01882339F08091840287FF03C0C1
:104A100060E282E002C068E081E08093E9008FEF0D
:104A20009091E800815095FD06C095ED9A95F1F7BB
:104A300000008111F5CF8091E80085FF1CC08091B6
:104A40001F01811105C040E050E068E070E003C044
:104A500070E040E050E0CE010E94E8268091E8003E
:104A60008E778093E80080E2FE01A6E2B2E001903A
:104A70000D928A95E1F7DF91CF91089580918A0296
:104A8000811109C00E947D280E94DA288091E200ED
:104A900084608093E200089510928A020895089538
:104AA00008950C94481F42E061EC81E00E94F727D2
:104AB00042E261EC82E00C94F72780918D02833012
:104AC00009F460C030F4813071F0823009F499C08B
:104AD00008958A3009F485C08B3009F46BC08930A1
:104AE00009F0A7C020C080918C02813A09F0A1C0D2
:104AF0008091E800877F8093E800809190029091F8
:104B00009102892B21F460E286E292E003C060E02A
:104B100080E090E070E00E9433278091E8008B777E
:104B20008093E800089580918C02813209F081C061
:104B30008091900290919102029708F07AC0809142
:104B4000E800877F8093E8008091E80082FD05C03F
:104B500080918B028111F8CF6CC02091F30080917D
:104B6000F20090E0922B029729F48091F1008B7F64
:104B7000813021F48091F100809346028091E80019
:104B80008B7753C080918C02813A09F052C080919A
:104B9000900290919102892B09F04BC08091E8001E
:104BA000877F8093E8008091E80080FFFCCF8091B0
:104BB0001F0136C080918C028132D9F5809190021C
:104BC00090919102892BA9F58091E800877F8093CD
:104BD000E8000E942C2880918E0280931F010C9483
:104BE000771780918C02813221F58091E800877FD0
:104BF0008093E8000E942C2880918F0280934702C6
:104C0000089580918C02813AA1F48091E800877F19
:104C10008093E8008091E80080FFFCCF80914702FC
:104C20008093F1008091E8008E778093E8000C94E7
:104C30002C28089584B7877F84BF0FB6F894A89571
:104C400080916000886180936000109260000FBEC8
:104C500080E880936100109261000E9403120E941C
:104C60007D280E94DA288091E20084608093E2002F
:104C700078940E94692B0E940B1285E191E00E94BA
:104C8000901180918B02853069F40E94FB1E809107
:104C900089028823B1F30E94301F882391F30E9478
:104CA000D226EFCF0E9417120E941B11EACF0C945C
:104CB0005926292F332723303105C9F064F42130D8
:104CC000310581F02230310509F04CC08BE390E0D2
:104CD0002CE235E04BC02132310521F12232310581
:104CE00089F140C082E190E027E635E03FC0992796
:104CF0008130910571F02CF4892BA1F5E8E2F5E003
:104D00000DC08230910541F0039761F5E4E0F5E0D4
:104D100005C0E6E1F5E002C0EAE0F5E0849190E04C
:104D20009F0124C06115710541F061307105D1F416
:104D300089E090E027E535E019C089E090E02EE3B6
:104D400035E014C06115710541F06130710551F411
:104D500080EC90E029E735E009C080E490E029E3A9
:104D600036E004C080E090E020E030E0FA013183DA
:104D7000208308950895CF93C82F0E94BA26C09328
:104D80004802CF91089580918B02843011F081E028
:104D9000089582E0089580914802811102C00C9428
:104DA000C326089580E189BD82E189BD09B400FE72
:104DB000FDCF8091D8008F7D8093D8008091E00056
:104DC00082608093E0008091E00081FDFCCF089537
:104DD000CF92DF92EF92FF920F931F93CF93DF93C7
:104DE000EC018B016A010E944B28811133C0C11470
:104DF000D10439F0F60180819181081B190BC80F8D
:104E0000D91FE12CF12C0115110519F18091E80051
:104E100085FD16C08091E8008E778093E800C1146C
:104E2000D10449F0F60180819181E80EF91EF182EA
:104E3000E08285E00FC00E944B28882321F30AC03E
:104E400089918093F10001501109FFEFEF1AFF0AD9
:104E5000DACF80E0DF91CF911F910F91FF90EF901B
:104E6000DF90CF90089520919202309193022617FF
:104E7000370748F06115710539F42091E8002E7765
:104E80002093E80001C0B90140E061157105A9F166
:104E900020918B02222309F443C0253009F442C03B
:104EA0002091E80023FD40C02091E80022FD32C09F
:104EB0002091E80020FFE9CF4091F3002091F2001B
:104EC00030E0342BFC01CF016115710559F0283019
:104ED000310540F481918093F100615071092F5F99
:104EE0003F4FF1CF41E02830310509F040E02091FB
:104EF000E8002E772093E800C8CF4111C9CF0AC03F
:104F000080918B02882361F0853061F08091E80008
:104F100083FD0AC08091E80082FFF2CF80E008950F
:104F200082E0089583E0089581E00895209192023F
:104F3000309193022617370748F06115710539F44F
:104F40002091E8002E772093E80001C0B901FC0110
:104F500020E06115710591F180918B02882309F49D
:104F600040C0853009F43FC08091E80083FD3DC01A
:104F70008091E80082FD2FC08091E80080FFE9CF9A
:104F80002091F3008091F20090E0922B6115710561
:104F900059F08830910540F424912093F100319626
:104FA000615071090196F2CF21E0089709F020E0E5
:104FB0008091E8008E778093E800CBCF2111CCCF91
:104FC0000AC080918B02882361F0853061F0809166
:104FD000E80083FD0AC08091E80082FFF2CF80E004
:104FE000089582E0089583E0089581E00895982F60
:104FF000973058F59093E900981739F07091EC00CC
:105000002091ED005091F00003C0242F762F50E046
:1050100021FF19C03091EB003E7F3093EB003091BF
:10502000ED003D7F3093ED003091EB003160309327
:10503000EB007093EC002093ED005093F000209172
:10504000EE0027FF07C09F5FD3CF8F708093E900EA
:1050500081E0089580E0089580918C0287FF11C05F
:105060008091E80082FD05C080918B028111F8CF0C
:1050700011C08091E8008B770BC080918B02882350
:1050800049F08091E80080FFF8CF8091E8008E77AA
:105090008093E80008952091E4003091E50095E6C2
:1050A0004091EC00842F817040FF22C08091E80085
:1050B00080FD1CC080918B02882391F0853091F097
:1050C0008091EB0085FD10C04091E4005091E50017
:1050D0004217530729F39A01915011F784E008957C
:1050E00082E0089583E0089581E0089580E00895C6
:1050F0004091E80042FFDECF08950E94EB280E9415
:10510000F328E0EEF0E0808181608083E8EDF0E05C
:1051100080818F77808319BCA7EDB0E08C918E7F62
:105120008C9380818F7E808310928A0208950F93E2
:105130001F93CF93DF930E94EB280E94F328C8EDC2
:10514000D0E088818F778883888180688883888190
:105150008F7D888319BC10928B0210928702109267
:1051600089021092880200EE10E0F80180818B7FA6
:10517000808388818160888342E060E080E00E94D3
:10518000F727E1EEF0E080818E7F8083E2EEF0E0B1
:10519000808181608083808188608083F801808144
:1051A0008E7F8083888180618883DF91CF911F917A
:1051B0000F910895E8EDF0E080818F7E8083E7ED28
:1051C000F0E080818160808384E082BF81E0809311
:1051D0008A020C949728E8EDF0E080818E7F80832E
:1051E0001092E20008951092DA001092E100089502
:1051F0001F920F920FB60F9211242F933F934F934C
:105200005F936F937F938F939F93AF93BF93EF932E
:10521000FF938091E10082FF0BC08091E20082FF4A
:1052200007C08091E1008B7F8093E1000E94682B92
:105230008091DA0080FF1FC08091D80080FF1BC0E2
:105240008091DA008E7F8093DA008091D90080FF10
:105250000DC080E189BD82E189BD09B400FEFDCFAA
:1052600081E080938B020E943E2505C019BC1092FC
:105270008B020E944C258091E10080FF19C0809133
:10528000E20080FF15C08091E2008E7F8093E200F3
:105290008091E20080618093E2008091D80080627A
:1052A0008093D80019BC85E080938B020E94502522
:1052B0008091E10084FF30C08091E20084FF2CC027
:1052C00080E189BD82E189BD09B400FEFDCF8091F6
:1052D000D8008F7D8093D8008091E1008F7E8093ED
:1052E000E1008091E2008F7E8093E2008091E200F5
:1052F00081608093E20080918702882311F084E02E
:1053000007C08091E30087FD02C081E001C083E017
:1053100080938B020E9451258091E10083FF29C078
:105320008091E20083FF25C08091E100877F809318
:10533000E10082E080938B02109287028091E1006D
:105340008E7F8093E1008091E2008E7F8093E20067
:105350008091E20080618093E20042E060E080E0C2
:105360000E94F7278091F00088608093F0000E94EF
:105370004F25FF91EF91BF91AF919F918F917F91B9
:105380006F915F914F913F912F910F900FBE0F90B2
:105390001F9018951F920F920FB60F9211242F9302
:1053A0003F934F935F936F937F938F939F93AF93AD
:1053B000BF93CF93DF93EF93FF93C091E900CF703A
:1053C0008091EC00D82FD17080FDD0E81092E900D8
:1053D0008091F000877F8093F00078940E940E2ADD
:1053E0001092E9008091F00088608093F000CD2B4E
:1053F000CF70C093E900FF91EF91DF91CF91BF9102
:10540000AF919F918F917F916F915F914F913F915C
:105410002F910F900FBE0F901F9018951F93CF9351
:10542000DF93CDB7DEB7AA970FB6F894DEBF0FBEF5
:10543000CDBFECE8F2E088E08E0F9091F1009193FF
:105440008E13FBCF0E945D258091E80083FF28C169
:1054500080918C0290918D02492F50E04A30510585
:1054600008F01EC1FA01E556FF4F0C94272F803833
:1054700021F0823809F014C108C08091880290910F
:105480008902992389F082600FC0809190028F7009
:10549000873008F005C18093E9008091EB0085FB1F
:1054A000882780F91092E9009091E800977F909307
:1054B000E8008093F1001092F100D0C0282F2D7FDA
:1054C00009F0EEC0882319F0823061F0E9C08091C4
:1054D0008E02813009F0E4C0933009F080E08093BF
:1054E00089022EC080918E0281112AC08091900283
:1054F0008F702FEF280F263008F0D2C08093E9007C
:105500002091EB0020FF1CC0933021F48091EB0030
:10551000806214C09091EB0090619093EB0021E0C9
:1055200030E0A90102C0440F551F8A95E2F740936D
:10553000EA001092EA008091EB0088608093EB0013
:105540001092E9008091E800877F8093E8000E9434
:105550002C28A6C08111A4C010918E021F778091C3
:10556000E3008078812B8093E3008091E800877FBF
:105570008093E8000E942C288091E80080FFFCCFF7
:105580008091E30080688093E300111102C082E003
:1055900001C083E080938B0283C08058823008F082
:1055A0007FC080918E0290918F028C3D53E09507D1
:1055B00079F583E08A838AE289834FB7F894DE0124
:1055C000139620E03EE051E2E32FF0E050935700C5
:1055D000E49120FF03C0E295EF703F5FEF708E2FE4
:1055E00090E0EA3010F0C79601C0C0968D939D936D
:1055F0002F5F243149F74FBF8091E800877F809368
:10560000E8006AE270E0CE0101960E94332715C0DF
:105610006091900270919102AE014F5F5F4F0E94C6
:105620005726BC01892BE1F19091E800977F909378
:10563000E80089819A810E9496278091E8008B7703
:105640008093E8002DC0803859F58091E800877F6D
:105650008093E800809187028093F1008091E800B8
:105660008E7773CF81111CC090918E029230C0F45E
:105670008091E800877F8093E800909387020E94E2
:105680002C2880918702811106C08091E30087FD5C
:1056900002C081E001C084E080938B020E94532508
:1056A0008091E80083FF0AC08091E800877F8093A3
:1056B000E8008091EB0080628093EB00AA960FB621
:1056C000F894DEBF0FBECDBFDF91CF911F9108953B
:1056D0000895CF9380918B028823A1F0C091E900B7
:1056E000CF709091EC00892F817090FD80E8C82BDD
:1056F0001092E9008091E80083FD0E940E2ACF708D
:10570000C093E900CF9108955058BB27AA270E9463
:105710009C2B0C94472D0E94392D38F00E94402D6F
:1057200020F039F49F3F19F426F40C940F2D0EF459
:10573000E095E7FB0C94092DE92F0E94582D58F3B2
:10574000BA17620773078407950720F079F4A6F566
:105750000C947A2D0EF4E0950B2EBA2FA02D0B0190
:10576000B90190010C01CA01A0011124FF27591BA6
:1057700099F0593F50F4503E68F11A16F040A22FAC
:10578000232F342F4427585FF3CF4695379527951D
:10579000A795F0405395C9F77EF41F16BA0B620B1C
:1057A000730B840BBAF09150A1F0FF0FBB1F661F63
:1057B000771F881FC2F70EC0BA0F621F731F841FA6
:1057C00048F4879577956795B795F7959E3F08F0CC
:1057D000B0CF9395880F08F09927EE0F979587958E
:1057E00008950E94052C0C94472D0E94402D58F0DE
:1057F0000E94392D40F029F45F3F29F00C94092DC7
:1058000051110C947B2D0C940F2D0E94582D68F390
:105810009923B1F3552391F3951B550BBB27AA2769
:1058200062177307840738F09F5F5F4F220F331FA3
:10583000441FAA1FA9F335D00E2E3AF0E0E832D06B
:1058400091505040E695001CCAF72BD0FE2F29D06E
:10585000660F771F881FBB1F261737074807AB0740
:10586000B0E809F0BB0B802DBF01FF2793585F4FB5
:105870003AF09E3F510578F00C94092D0C947B2D45
:105880005F3FE4F3983ED4F3869577956795B79597
:10589000F7959F5FC9F7880F911D9695879597F9A2
:1058A0000895E1E0660F771F881FBB1F621773071B
:1058B0008407BA0720F0621B730B840BBA0BEE1F30
:1058C00088F7E095089529F416F00C94092D0C94AE
:1058D0007A2D0C940F2D0E94602DA8F39638A0F716
:1058E00007F80F92E8942BE33AEA48EB5FE70E944F
:1058F0000D2E0F920F920F924DB75EB70F920E942E
:10590000C32DEAE4F1E00E94122D4F915F91EF91D7
:10591000FF91E595EE1FFF1F49F0FE57E068442711
:10592000EE0F441FFA95E1F74195550B0E948D2D1E
:105930000F9007FE0C94812D08950E94602D88F031
:105940009F5798F0B92F9927B751B0F0E1F0660F43
:10595000771F881F991F1AF0BA95C9F714C0B13084
:1059600091F00E947A2DB1E008950C947A2D672F62
:10597000782F8827B85F39F0B93FCCF386957795B3
:105980006795B395D9F73EF490958095709561959C
:105990007F4F8F4F9F4F0895E89409C097FB3EF4C7
:1059A00090958095709561957F4F8F4F9F4F99236C
:1059B000A9F0F92F96E9BB279395F69587957795EA
:1059C0006795B795F111F8CFFAF4BB0F11F460FFAA
:1059D0001BC06F5F7F4F8F4F9F4F16C0882311F002
:1059E00096E911C0772321F09EE8872F762F05C016
:1059F000662371F096E8862F70E060E02AF09A95B1
:105A0000660F771F881FDAF7880F9695879597F9A5
:105A1000089597F99F6780E870E060E008959FEF30
:105A200080EC0895DF93CF931F930F93FF92EF9233
:105A3000DF927B018C01689406C0DA2EEF010E9490
:105A40000A2EFE01E894A591259135914591559135
:105A5000A6F3EF010E949C2BFE019701A801DA94A6
:105A600069F7DF90EF90FF900F911F91CF91DF9139
:105A7000089500240A9416161706180609060895B4
:105A800000240A9412161306140605060895092E1A
:105A90000394000C11F4882352F0BB0F40F4BF2B89
:105AA00011F460FF04C06F5F7F4F8F4F9F4F0895C9
:105AB00057FD9058440F551F59F05F3F71F04795BF
:105AC000880F97FB991F61F09F3F79F087950895A4
:105AD000121613061406551FF2CF4695F1DF08C0C3
