:100000000C94D2010C9419020C9419020C9419024C
:100010000C9419020C9419020C9419020C941902F4
:100020000C9419020C9419020C94B60B0C94880CC5
:100030000C94191A0C9419020C9419020C941902BC
:100040000C9419020C9419020C9419020C941902C4
:100050000C9419020C94891A0C9419020C9419022C
:100060000C9419020C9419020C9419020C941902A4
:100070000C9419020C9419020C9419020C94190294
:100080000C9419020C9419020C9419020C94190284
:100090000C9419020C9419020C9419020C94190274
:1000A0000C9419020C9419020C9419022B001400E0
:1000B0001A000800150017001C0018000C001200A0
:1000C00013002A00290004001600070009000A0096
:1000D0000B000D000E000F0033003400E1001D0086
:1000E0001B00060019000500110010003600370043
:1000F00038002800E500E000E200E30001302C00B9
:100100002C0002305000510052004F0035021E02F8
:100110001F022002210222022302240225022602BB
:1001200027022A004C003A003B003C003D003E0004
:100130003F002D022E022F0230023102010040004A
:1001400041004200430044004500320264020100C5
:100150000100010000700100010001000100010028
:1001600001000100AB00AA00A900AE0035001E008E
:100170001F0020002100220023002400250026006B
:1001800027002A004C003A003B003C003D003E00A6
:100190003F002D002E002F003000310001004000F4
:1001A0004100420043004400450032006400010069
:1001B00001000100007001000100010001000100C8
:1001C00001000100AB00AA00A900AE00050109066C
:1001D000A101050719E029E715002501950875011A
:1001E0008102950175088101050819012905950508
:1001F000750191029501750391010507190029FF09
:10020000150026FF00950675088100C0050109024A
:10021000A1010901A1000509190129051500250100
:10022000950575018102950175038101050109306C
:1002300009311581257F95027508810609381581D8
:10024000257F950175088106050C0A380215812560
:100250007F950175088106C0C005010980A101854F
:100260000216010026B7001A01002AB70075109582
:10027000018100C0050C0901A101850316010026BA
:100280009C021A01002A9C02751095018100C0058C
:10029000010906A101050719E029E71500250195C7
:1002A0000875018102050819012905950575019157
:1002B000029501750391010507190029771500259D
:1002C00001957875018102C012011001000000083B
:1002D000EDFE606004000102000109026D000401EE
:1002E00000A0FA0904000001030101000921110125
:1002F00000012240000705810308000A09040100EB
:100300000103010200092111010001224D0007052E
:10031000820308000A090402000103000000092109
:10032000110100012236000705830308000A0904B1
:10033000030001030000000921110100012239001E
:1003400007058403100001040309042C034F007205
:1003500000740068006F006C0069006E0065006149
:1003600000720020004B006500790062006F0061A0
:1003700000720064007300000028035400680065E8
:1003800000200050006C0061006E0063006B0020D4
:10039000004B006500790062006F0061007200642C
:1003A0000000000011241FBECFEFDAE0DEBFCDBF9A
:1003B00004B603FE27C08091EE019091EF01A09159
:1003C000F001B091F101873020EB920727E0A207FE
:1003D00020EBB207B9F41092EE011092EF011092E7
:1003E000F0011092F10114BE84B7877F84BF88E1C9
:1003F0000FB6F89480936000109260000FBEE0E0AA
:10040000F8E3099511E0A0E0B1E0EEEBFDE302C0F6
:1004100005900D92AE33B107D9F711E0AEE3B1E02C
:1004200001C01D92AE3EB107E1F70E94DA080C94BC
:10043000DD1E0C9400000895089581E0089508954C
:100440006E9A769A0E941B0208950E941C020895DB
:100450000E941D0208950E941F020895FC01613050
:1004600019F0623091F407C08281882311F081E095
:1004700006C081E008C08281882321F082E00E94CA
:10048000D01703C082E00E94EC1780E090E008954E
:1004900081E008950E944802089508950F931F93E4
:1004A000CF93DF938C01DC01CD91DC91CE010E94D2
:1004B0005618BE010E94B203EC01B8010E944A0224
:1004C000882309F442C1F80182818823C9F180910F
:1004D0003E018823F1F4F0E7C431DF0789F50E947B
:1004E0004D0281E080933E010E944B1A909340019F
:1004F00080933F01109247011092420110924101F6
:10050000109244011092430110924601109245014D
:100510001CC180913F01909140010E94581A883C73
:10052000910570F480914701E82FF0E0EE0FFF1F76
:10053000EF5BFE4FD183C0838F5F8093470105C17E
:1005400080E7C431D80770F490E7C230D907B8F516
:10055000A0E7C030DA0789F0B0E7C130DB0709F067
:10056000EBC020C0E0E7C333DE0709F4B7C0F0E713
:10057000C433DF0709F0E0C0C7C0D80112968C91E0
:100580001297882309F4DDC00E9424138FEF94E3AF
:10059000ACE081509040A040E1F700C000000E9414
:1005A000AE1AD3C0D80112968C911297882309F401
:1005B000C8C08091D00181608093D001C6C0F8018D
:1005C0008281882309F4BDC00E940B1B882311F48B
:1005D0000E94F01A0E94211B8093DF011092E0011B
:1005E000F0E7C230DF0711F4816071C090E7C330DB
:1005F000D90711F482606BC0A0E7C430DA0711F4A8
:10060000846065C0B0E7C530DB0711F488605FC067
:10061000E0E7C630DE0711F4806159C0F0E7C7306B
:10062000DF0711F4806253C090E7C830D90711F496
:1006300080644DC0A0E7C930DA0711F4806847C074
:10064000B0E7CA30DB0711F48C6041C0E0E7CB3083
:10065000DE0721F48091DF018E7F39C0F0E7CC30D6
:10066000DF0721F48091DF018D7F31C080E7CD303D
:10067000D80721F48091DF018B7F29C090E7CE302D
:10068000D90721F48091DF01877F21C0A0E7CF3017
:10069000DA0721F48091DF018F7E19C0B0E7C03105
:1006A000DB0721F48091DF018F7D11C0E0E7C131CC
:1006B000DE0721F48091DF018F7B09C08091DF018B
:1006C000F0E7C231DF0711F48F7701C0837F809399
:1006D000DF018091DF010E94261B37C0D8011296EE
:1006E0008C911297882321F01092480182E013C068
:1006F00080914801882331F486E20E94890F86E2C6
:100700000E94491082E015C0F8018281882331F0EF
:100710001092490182E10E949B1017C0809149010B
:10072000882331F487E20E94890F87E20E944910F2
:1007300082E10E94A21009C081E080934801809369
:100740004901C8010E94280201C080E0DF91CF91D9
:100750001F910F9108950E94200208950E94250282
:1007600008950895E62FF0E0EE0FFF1F98E1799FBE
:1007700090011124E20FF31F90E6899FC00111241C
:10078000E80FF91FE455FF4F25913491C9010895F1
:100790000E94B2030E9443059C0140E4803094070C
:1007A000C0F580E32030380708F0D2C0203E310584
:1007B000E8F4203C310508F058C0283A310588F4A7
:1007C000253A310508F05BC02130310509F418C124
:1007D0002130310508F411C12430310508F40DC170
:1007E00050C12B3B310508F008C154C02F3F3105E3
:1007F00009F048F4203F310508F09BC0283E310540
:1008000008F0FBC03EC140E22030340708F493C03A
:1008100094C083E52030380780F442E52030340767
:1008200008F0B9C081E52030380708F0AEC040E5D7
:100830002030340708F092C08EC085E5203038079C
:1008400030F444E52030340708F0C8C0BCC086E569
:100850002030380708F4C8C0C9018050904640E1F4
:100860008030940708F0C9C0C5C0F901EE0FFF1F22
:10087000E45BFF4F85919491282F392F02C1253ACF
:10088000310509F4C0C0263A310509F4BFC023E898
:1008900030E4F7C0283A310509F4BBC0293A3105E4
:1008A00009F4BAC02A3A310509F4B9C02B3A310526
:1008B00009F4B8C02C3A310509F4B7C02D3A310516
:1008C00009F4B6C0203B310509F4B5C02E3A310514
:1008D00009F4B4C02F3A310509F4B3C0213B310506
:1008E00009F4B2C0223B310509F4B1C0233B310504
:1008F00009F4B0C0243B310509F4AFC0253B3105F4
:1009000009F4AEC0263B310509F4ADC0273B3105E3
:1009100009F4ACC0283B310509F4ABC0293B3105D3
:1009200009F4AAC02A3B310509F0A9C02AE236E43D
:10093000A8C03065A6C03F71A4C03F70220F331F0E
:1009400024533E4FF90145915491242F352F99C0DE
:100950003070306C96C03F70306A93C0422F4F7039
:10096000E4E036952795EA95E1F7922F937080E0C1
:10097000242F2695269530E075E0220F331F7A95B7
:10098000E1F7282B392B3C6811C0922F80E09C01A5
:10099000216F306A76C0822F2695269530E065E07B
:1009A000220F331F6A95E1F73C68482F437081E0BE
:1009B00090E002C0880F991F4A95E2F78F719070FE
:1009C000282B392B5EC0822F2695269530E055E0E6
:1009D000220F331F5A95E1F73A68E7CF922F80E054
:1009E0009C01246F306A4DC030E02F713070322F7F
:1009F000222701C03F70306244C020E030E041C097
:100A000021E030E03EC021E830E43BC022E830E4A1
:100A100038C022EE34E435C029EE34E432C02AEE88
:100A200034E42FC025EB34E42CC026EB34E429C099
:100A300027EB34E426C02CEC34E423C02DEC34E462
:100A400020C023E835E41DC02AE835E41AC022E9B5
:100A500035E417C024E935E414C021E236E411C0BE
:100A600023E236E40EC024E236E40BC025E236E48D
:100A700008C026E236E405C027E236E402C020E0E2
:100A800034E4C90108959C018238910591F18338BD
:100A90009105C8F48133910509F463C0823391054F
:100AA00048F48932910509F455C08A32910509F05C
:100AB00074C05EC08533910509F445C08933910542
:100AC00009F06BC016C0833E910541F1843E91054B
:100AD00040F4803E9105A1F0823E910509F05DC091
:100AE00016C0863E9105F9F0873E910509F055C084
:100AF00021C08091DF0180FD42C081FF4EC03FC018
:100B00008091DF0180FF49C029E330E046C0809139
:100B1000DF0182FF42C084FF35C012C08091DF0137
:100B200082FF0CC032C08091DF0183FF36C084FF9A
:100B30002FC006C08091DF0183FD2DC084FF2DC032
:100B400020E030E02AC08091DF0185FF26C029E245
:100B500030E023C08091DF0185FF1FC025E330E036
:100B60001CC08091DF0186FF18C02AE230E015C06A
:100B70008091DF0186FF11C021E330E00EC020EE3E
:100B800030E00BC023EE30E008C022EE30E005C0BC
:100B900027EE30E002C026EE30E0C90108950E9441
:100BA0002B020895E82FF0E0EF5DFE4F8081E82FE3
:100BB000EF70F0E0282F22952F7081E090E002C0C6
:100BC000880F991F2A95E2F780A308950F931F932A
:100BD000CF93DF93C3E0D0E001E010E0FE01EF5DD2
:100BE000FE4F8081E82FEF70F0E021A182958F7099
:100BF000A80102C0440F551F8A95E2F7242B21A3B8
:100C00008C2F0E94D2052197BFEFCF3FDB0731F732
:100C10008BE090E021E030E0FC01EB5EFE4F408194
:100C2000E42FEF70F0E062A142954F70D90102C04D
:100C3000AA0FBB1F4A95E2F76A2B62A30197BFEF89
:100C40008F3F9B0749F7DF91CF911F910F91089537
:100C50000F931F93CF93DF9385B7806885BF85B7C8
:100C6000806885BFC3E0D0E001E010E0FE01EF5DE9
:100C7000FE4F8081E82FEF70F0E021A182958F7008
:100C8000A80102C0440F551F8A95E2F7242B21A327
:100C90008C2F0E94D2052197BFEFCF3FDB0731F7A2
:100CA0008BE090E021E030E0FC01EB5EFE4F408104
:100CB000E42FEF70F0E062A142954F70D90102C0BD
:100CC000AA0FBB1F4A95E2F76A2B62A30197BFEFF9
:100CD0008F3F9B0749F70E94AB03DF91CF911F9194
:100CE0000F910895EF92FF920F931F93CF93DF938D
:100CF000CAE5D1E093E0F92E01E010E085E0E82EAE
:100D00008F2D0E94D2052BE030E040E050E0F90149
:100D1000EB5EFE4F8081E82FEF70F0E060A170E0A5
:100D200082958F7002C0759567958A95E2F760FD90
:100D300009C0B801022E02C0660F771F0A94E2F7BD
:100D4000462B572B215030408FEF2F3F3807F9F6B5
:100D50003A912A912417350721F059834883E0926C
:100D600000018F2D0E94D205FA949F2D9F3F41F6DE
:100D70008091000187FD2CC08150809300018F3F3E
:100D800009F58091580190915901909351018093F8
:100D90005001809156019091570190934F0180939B
:100DA0004E01809154019091550190934D01809393
:100DB0004C01809152019091530190934B0180938B
:100DC0004A0106C08FE99FE00197F1F700C00000DB
:100DD0000E94AE0381E0DF91CF911F910F91FF90B0
:100DE000EF900895E82FF0E0EE0FFF1FE65BFE4F57
:100DF00080819181089508950F931F9313E000E07F
:100E0000812F0E94F2060E94CD19080F1150C0F7E1
:100E1000802F1F910F91089580916B010895DF93AA
:100E2000CF9300D00F92CDB7DEB72091E5012430EB
:100E300021F523E029839B838A832093E9008FEFA8
:100E400006C095ED9A95F1F70000882329F090915E
:100E5000E800815095FFF5CF8091E80085FF0DC037
:100E6000CE01019663E070E040E050E00E947F090F
:100E70008091E8008E778093E8000F900F900F909C
:100E8000CF91DF910895DF93CF9300D00F92CDB72C
:100E9000DEB72091E501243029F522E029839B83E8
:100EA0008A8383E08093E9008FEF06C095ED9A95E1
:100EB000F1F70000882329F09091E800815095FF18
:100EC000F5CF8091E80085FF0DC0CE01019663E06B
:100ED00070E040E050E00E947F098091E8008E774A
:100EE0008093E8000F900F900F90CF91DF910895BD
:100EF0002091E5012430F9F422E02093E9002FEF5E
:100F000006C035ED3A95F1F70000222329F0309123
:100F1000E800215035FFF5CF2091E80025FF0BC0F8
:100F200065E070E040E050E00E947F098091E800B9
:100F30008E778093E80008950F931F938C01809122
:100F4000E501843009F049C0909101019923D9F05D
:100F500090910C019923B9F08093E9008FEF06C0BE
:100F600095E19A95F1F70000882329F09091E80027
:100F7000815095FFF5CF8091E80085FF2EC0C80114
:100F800060E170E017C081E08093E9008FEF06C058
:100F900095ED9A95F1F70000882329F09091E800EB
:100FA000815095FFF5CF8091E80085FF16C0C801FC
:100FB00068E070E040E050E00E947F098091E80026
:100FC0008E778093E800ABE5B1E0802F912FFC0194
:100FD00080E101900D928150E1F71F910F910895EA
:100FE0008091E401882349F40E943A0B0E94970BF8
:100FF0008091E20084608093E20008951092E40101
:101000000895089508950E94121A089581E061ECF0
:1010100042E00E94AE0A82E061EC42E00E94AE0A29
:1010200083E061EC42E00E94AE0A84E061EC42E1C0
:101030000E94AE0A08958091E701833009F458C0F8
:10104000843030F4813071F0823009F0B2C099C040
:101050008A3009F486C08B3009F46BC0893009F0FE
:10106000A8C020C08091E601813A09F0A2C0809119
:10107000E800877F8093E8008091EA019091EB017E
:10108000009721F060E080E090E003C060E18BE534
:1010900091E070E00E94DE098091E8008B778093F8
:1010A000E80008958091E601813209F082C08091C4
:1010B000EA019091EB01009721F08330910509F04E
:1010C00078C08091E800877F8093E80005C0809118
:1010D000E501882309F46DC08091E80082FFF7CF15
:1010E0008091F10080936B018091E8008B771CC0A8
:1010F0008091E601813A09F05CC08091EA0190910B
:10110000EB01009709F055C08091E800877F80933C
:10111000E8008091E80080FFFCCF8091010180937E
:10112000F1008091E8008E778093E8000E94E50A44
:1011300008958091E6018132E1F58091EA01909174
:10114000EB010097B1F58091E800877F8093E8007C
:101150000E94E50A8091E801809301010E94241316
:1011600008958091E601813221F58091E800877F22
:101170008093E8000E94E50A8091E90180935A017A
:1011800008958091E601813AA1F48091E800877F7B
:101190008093E8008091E80080FFFCCF80915A01A5
:1011A0008093F1008091E8008E778093E8000E94A0
:1011B000E50A089584B7877F84BF88E10FB6F89465
:1011C00080936000109260000FBE80E88093610001
:1011D000109261000E94A20E0E943A0B0E94970B8F
:1011E0008091E20084608093E20078940E94300E47
:1011F0000E94A50E82E091E00E944D0E0CC00E945C
:10120000DA198091E301882331F00E94041A8823BF
:1012100011F00E9469098091E501853081F30E94F7
:10122000AF0EF9CF9330A1F0943038F4913009F437
:1012300041C0923009F043C006C09132D9F09232D9
:1012400009F03DC025C02DE630E0EAEDF2E03BC0FC
:10125000813041F0813018F0823089F506C0E7E432
:10126000F3E005C0EBE4F3E002C0E9E7F3E024912A
:1012700030E029C0643018F5E62FF0E0EE0FFF1FD4
:10128000EB5DFE4F0190F081E02D29E030E01BC0C6
:101290006430A8F470E0660F771FFB01E35DFE4F3A
:1012A0000190F081E02D6B5C7E4FDB012D913C9134
:1012B000119709C022E130E0E8ECF2E004C020E040
:1012C00030E0E0E0F0E0DA011196FC93EE93C90122
:1012D000089580E189BD82E189BD09B400FEFDCF9A
:1012E0008091D8008F7D8093D8008091E00082604B
:1012F0008093E0008091E00081FDFCCF08958F9203
:101300009F92BF92CF92DF92EF92FF920F931F9323
:10131000DF93CF930F92CDB7DEB7E82E4B018A0152
:1013200099830E94060BB82E99818823C9F5F92E5E
:101330000115110539F0F80120813181821A930AD3
:10134000E20EF31ECC24DD2426C08091E80085FD4A
:1013500017C08091E8008E778093E8000115110591
:1013600051F0F801808191818C0D9D1D91838083C6
:1013700025E0B22E15C00E94060B882361F00FC035
:10138000F70181917F018093F10008948108910811
:101390000894C11CD11C81149104B9F601C0B82E67
:1013A0008B2D0F90CF91DF911F910F91FF90EF90B8
:1013B000DF90CF90BF909F908F900895482F592F26
:1013C000FA018091EC019091ED018617970718F4CE
:1013D000BC0140E03DC061157105D9F78091E8007E
:1013E0008E778093E800F5CF8091E501882309F49A
:1013F00047C0853009F446C08091E80083FD3EC0B7
:101400008091E80082FD34C08091E80080FF20C018
:101410009091F3008091F200392F20E090E0822B30
:10142000932B06C041914093F100615070400196AA
:101430006115710519F088309105A0F341E08830FD
:10144000910509F040E08091E8008E778093E800F4
:101450006115710549F6442339F60AC08091E5010A
:10146000882371F0853071F08091E80083FD0CC015
:101470008091E80082FFF2CF80E0089581E0089536
:1014800082E0089583E0089581E00895E82FF92F20
:101490008091EC019091ED018617970718F4BC013B
:1014A00040E03EC061157105D9F78091E8008E7764
:1014B0008093E800F5CF8091E501882309F448C0C6
:1014C000853009F447C08091E80083FD3FC08091DA
:1014D000E80082FD35C08091E80080FF21C0909136
:1014E000F3008091F200392F20E090E0822B932BC3
:1014F00007C044914093F1003196615070400196CD
:101500006115710519F08830910598F341E0883034
:10151000910509F040E08091E8008E778093E80023
:101520006115710541F6442331F60AC08091E50149
:10153000882371F0853071F08091E80083FD0CC044
:101540008091E80082FFF2CF80E0089581E0089565
:1015500082E0089583E0089581E00895982F2CC0DB
:10156000292F2F702093E900981739F07091EC0023
:101570002091ED005091F00003C0242F762F50E011
:1015800021FF19C03091EB003E7F3093EB0030918A
:10159000ED003D7F3093ED003091EB0031603093F2
:1015A000EB007093EC002093ED005093F00020913D
:1015B000EE0027FF08C09F5F973090F28F708093F6
:1015C000E90081E0089580E008958091E60187FFB9
:1015D00013C004C08091E5018823B9F08091E80030
:1015E00082FFF8CF8091E8008B778093E800089520
:1015F0008091E501882349F08091E80080FFF8CFD1
:101600008091E8008E778093E80008958091E4004F
:101610009091E50044E62091EC0020FF26C0209147
:10162000E80020FD16C02091E5012223A1F025301D
:10163000A1F02091EB0025FD12C02091E400309133
:10164000E5002817390739F3442359F04150C901FF
:10165000E2CF80E0089582E0089583E0089581E07C
:10166000089584E0089580E008952091E80022FF25
:10167000DACFF9CF0E94A90B0E94B10BE0EEF0E0A7
:10168000808181608083E8EDF0E080818F778083C6
:1016900019BCA7EDB0E08C918E7F8C9380818F7EFA
:1016A00080831092E40108950F931F93CF93DF93EB
:1016B0000E94A90B0E94B10BC8EDD0E088818F7702
:1016C000888388818068888388818F7D888319BC1E
:1016D0001092E5011092E1011092E3011092E201F3
:1016E00000EE10E0F80180818B7F8083888181602B
:1016F000888380E060E042E00E94AE0AE1EEF0E024
:1017000080818E7F8083E2EEF0E080818160808343
:10171000808188608083F80180818E7F80838881CA
:1017200080618883DF91CF911F910F910895E8ED3B
:10173000F0E080818F7E8083E7EDF0E08081816042
:10174000808384E082BF81E08093E4010E94540B97
:101750000895E8EDF0E080818E7F80831092E200B2
:1017600008951092DA001092E10008951F920F92EE
:101770000FB60F9211242F933F934F935F936F9364
:101780007F938F939F93AF93BF93EF93FF9380913A
:10179000E10082FF0BC08091E20082FF07C08091D0
:1017A000E1008B7F8093E1000E942F0E8091DA0090
:1017B00080FF1FC08091D80080FF1BC08091DA009D
:1017C0008E7F8093DA008091D90080FF0DC080E188
:1017D00089BD82E189BD09B400FEFDCF81E080931F
:1017E000E5010E94F00705C019BC1092E5010E94B6
:1017F000FE078091E10080FF19C08091E20080FF28
:1018000015C08091E2008E7F8093E2008091E2001B
:1018100080618093E2008091D80080628093D8003C
:1018200019BC85E08093E5010E9402088091E100E7
:1018300084FF30C08091E20084FF2CC080E189BD2C
:1018400082E189BD09B400FEFDCF8091D8008F7D73
:101850008093D8008091E1008F7E8093E100809199
:10186000E2008F7E8093E2008091E20081608093AD
:10187000E2008091E101882311F084E007C08091AB
:10188000E30087FF02C083E001C081E08093E501AF
:101890000E9403088091E10083FF29C08091E2004B
:1018A00083FF25C08091E100877F8093E10082E083
:1018B0008093E5011092E1018091E1008E7F809399
:1018C000E1008091E2008E7F8093E2008091E2004F
:1018D00080618093E20080E060E042E00E94AE0A16
:1018E0008091F00088608093F0000E940108FF91D1
:1018F000EF91BF91AF919F918F917F916F915F9188
:101900004F913F912F910F900FBE0F901F90189500
:101910001F920F920FB60F9211241F932F933F9394
:101920004F935F936F937F938F939F93AF93BF93E7
:10193000EF93FF931091E9001F708091EC001092DB
:10194000E9008091F000877F8093F00078940E94F6
:10195000C40C1092E9008091F00088608093F00040
:101960001093E900FF91EF91BF91AF919F918F91FB
:101970007F916F915F914F913F912F911F910F90A8
:101980000FBE0F901F9018951F93DF93CF93CDB785
:10199000DEB7AC970FB6F894DEBF0FBECDBFE6EE54
:1019A000F1E08091F100819321E0EE3EF207C9F76A
:1019B0000E941B088091E80083FF39C18091E601F5
:1019C0002091E701253009F484C0263040F421300D
:1019D000A1F1213070F0233009F029C12EC0283048
:1019E00009F4F4C0293009F404C1263009F01FC1FC
:1019F00094C0803821F0823809F019C108C0809164
:101A0000E2019091E301992371F082600CC0809112
:101A1000EA018F708093E9009091EB0081E095FFDF
:101A200080E01092E9009091E800977F9093E800A1
:101A30008093F1001092F100D4C0882319F0823015
:101A400009F0F5C090E08F719070009729F0823016
:101A5000910509F0ECC00BC08091E801813009F0DC
:101A6000E6C0233009F080E08093E3012CC0809130
:101A7000E801882341F52091EA012F7009F4D7C0CD
:101A80002093E9008091EB0080FF1DC08091E70169
:101A9000833021F48091EB00806213C08091EB00D1
:101AA00080618093EB0081E090E002C0880F991F75
:101AB0002A95E2F78093EA001092EA008091EB0009
:101AC00088608093EB001092E9008091E800877FA6
:101AD0008BC0882309F0ABC01091E8011F7780917B
:101AE000E3008078812B8093E3008091E800877F7A
:101AF0008093E8000E94E50A8091E80080FFFCCF17
:101B00008091E30080688093E300112311F083E06B
:101B100001C082E08093E5018AC08058823008F0DD
:101B200086C08091E8019091E90123E08C3D920705
:101B300099F583E08C838AE28B835FB7F894DE01AA
:101B4000159680E090E04EE061E2E42FF0E06093D3
:101B50005700E49180FF03C0E295EF704F5FEF7094
:101B60002E2F30E0EA3018F0295C3F4F02C0205D94
:101B70003F4F2D933D9301968431910531F75FBF1F
:101B80008091E800877F8093E800CE0103966AE2A7
:101B900070E00E94DE0914C06091EA01AE014F5F5F
:101BA0005F4F0E941209BC01009709F440C0809168
:101BB000E800877F8093E80089819A810E94460A25
:101BC0008091E8008B778093E80031C0803879F508
:101BD0008091E800877F8093E8008091E101809305
:101BE000F1008091E8008E778093E8000E94E50A7A
:101BF0001EC08823E1F49091E8019230C0F48091F6
:101C0000E800877F8093E8009093E1010E94E50A55
:101C10008091E101882321F48091E30087FF02C0D5
:101C200084E001C081E08093E5010E940608809174
:101C3000E80083FF0AC08091E800877F8093E80076
:101C40008091EB0080628093EB00AC960FB6F89425
:101C5000DEBF0FBECDBFCF91DF911F9108950895D4
:101C60001F938091E5018823B1F08091E9008F7086
:101C70009091EC0090FF02C010E801C010E0182B1A
:101C80001092E9008091E80083FF02C00E94C40C1A
:101C90001F701093E9001F91089590937101809334
:101CA00070010895E0917001F0917101309729F071
:101CB0000190F081E02D0995089580E00895E0916C
:101CC0007001F0917101309721F00280F381E02DD5
:101CD00009950895E0917001F0917101309721F01C
:101CE0000480F581E02D0995089520916E013091D1
:101CF0006F018217930771F090936F0180936E01CB
:101D0000E0917001F0917101309721F00680F78128
:101D1000E02D0995089520916C0130916D01821795
:101D2000930771F090936D0180936C01E0917001C5
:101D3000F0917101309721F00084F185E02D099533
:101D4000089508950E94A10E08950E94421A0E94CB
:101D500028060E94D21A08950E94CF0508955F9226
:101D60006F927F928F929F92AF92BF92CF92DF92AB
:101D7000EF92FF920F931F93DF93CF93CDB7DEB710
:101D80002A970FB6F894DEBF0FBECDBF0E94720631
:101D90002AE7E22E21E0F22E03E010E091E0692E26
:101DA000712C502E802F0E94F2065C01F701D29018
:101DB000C2907F01C826D926C114D104E1F18091D7
:101DC000D00181FF02C00E94FB068BE090E043013E
:101DD000082E02C0880C991C0A94E2F794012C2169
:101DE0003D212115310511F189835A82A820B9209E
:101DF00081E0A114B10409F480E08B830E944B1AA6
:101E00008160782F9D838C8349815A816B818D817C
:101E10000E94570FF801EE0FFF1FEE58FE4F808112
:101E2000918188259925918380831DC00197FFEFBB
:101E30008F3F9F0761F60150104022E7E21621E034
:101E4000F20609F0AECF0E944B1A2FEF2E832F839C
:101E500018868160782F9A8789874FEF5FEF60E05F
:101E60008A850E94570F0E94B21C00917A010E943D
:101E7000520E081731F00E94520E80937A010E9490
:101E8000AC0E2A960FB6F894DEBF0FBECDBFCF9131
:101E9000DF911F910F91FF90EF90DF90CF90BF9057
:101EA000AF909F908F907F906F905F900895DF9399
:101EB000CF93CDB7DEB72B970FB6F894DEBF0FBE2A
:101EC000CDBF4F83588769877A878B87972F282FB5
:101ED000DE01119686E0FD0111928A95E9F7FE0177
:101EE000379685E001900D928150E1F749835A833E
:101EF000792F9C832D836B81822F9E810E944016B7
:101F00002B960FB6F894DEBF0FBECDBFCF91DF91F9
:101F10000895882309F4BCC0823859F40E94520EF7
:101F200081FDB6C089E30E94DE180E949C1989E3F6
:101F30000CC0833869F40E94520E80FDA9C083E56D
:101F40000E94DE180E949C1983E50E941A1922C083
:101F5000843859F40E94520E82FD9AC087E40E9490
:101F6000DE180E949C1987E4F0CF982F9450913A84
:101F700018F40E94DE180EC0982F905E983068F416
:101F8000282F277081E090E001C0880F2A95EAF79A
:101F90000E9459190E949C190895982F955A9330C0
:101FA00078F4853A29F0863A31F482E890E005C069
:101FB00081E890E002C083E890E00E94750E0895E9
:101FC000982F985A933108F063C0883A39F1893ACA
:101FD00041F18A3A49F18B3A51F18C3A59F18D3AF3
:101FE00061F1803B69F18E3A71F18F3A79F1813B71
:101FF00081F1823B89F1833B91F1843B99F1853BEF
:10200000A1F1863BA9F1873BB1F1883BB9F1893B4E
:10201000C1F18A3BC9F58AE292E038C082EE90E0D5
:1020200035C089EE90E032C08AEE90E02FC085EB9B
:1020300090E02CC086EB90E029C087EB90E026C0B2
:102040008CEC90E023C08DEC90E020C083E891E020
:102050001DC08AE891E01AC082E991E017C084E9C6
:1020600091E014C081E292E011C083E292E00EC0E0
:1020700084E292E00BC085E292E008C086E292E042
:1020800005C087E292E002C080E090E00E948B0EE3
:102090000895882309F44EC0823859F40E94520EE4
:1020A00081FF48C089E30E94DE180E949C1989E3E1
:1020B0000CC0833869F40E94520E80FF3BC083E558
:1020C0000E94DE180E949C1983E50E941A191FC005
:1020D000843859F40E94520E82FF2CC087E40E947B
:1020E000DE180E949C1987E4F0CF982F9450913A03
:1020F00060F3982F905E983068F4282F277081E065
:1021000090E001C0880F2A95EAF70E945F190E94AB
:102110009C190895982F955A933028F480E090E008
:102120000E94750E0895885A833120F480E090E073
:102130000E948B0E0895882321F00E9459190E9455
:102140009C190895882321F00E945F190E949C1910
:102150000895AF92BF92DF92EF92FF920F931F9379
:10216000DF93CF9300D0CDB7DEB75C01472FFC01E2
:10217000E280158112951F70EE2031F079836A8319
:102180000E9476196A81498149836A830E94D7181F
:1021900049816A81882389F0EE2079F0862F805E5C
:1021A000883058F082E00E94C0180E94D718DD24C1
:1021B000D394D82649816A8101C0DD24842F829579
:1021C0008F7090E08530910509F4B5C08630910597
:1021D0005CF4843091050CF08CC0242F207F823079
:1021E00091050CF04BC015C08C3091054CF48A3031
:1021F00091050CF050C18830910509F0C8C1A7C005
:102200008C30910509F4B8C18F30910509F0BFC138
:10221000BAC14F70222311F4142F03C0142F12954A
:10222000107FEE20B1F0112309F492C1862F805E59
:10223000883028F4812F6A830E94591904C0812FA5
:102240006A830E9469196A816A830E949C196A8163
:102250007FC1862F6A830E9449106A81112309F485
:1022600096C1605E683020F4812F0E945F1903C020
:10227000812F0E946F190E949C1989C14F702032D2
:1022800011F4842F03C0842F8295807F662319F078
:102290006130F1F413C0EE2039F0112319F111303F
:1022A00009F50E94891973C1112319F0113009F43D
:1022B0006EC189830E948C1989810CC1EE2021F0A6
:1022C000163008F064C10EC0153008F060C102C1BC
:1022D000EE2059F0112331F0F501958190FF38C1BE
:1022E0009F7095830E949B1052C1112309F4F2C084
:1022F0003AC1842F86958695837090E0009729F0E7
:102300008130910509F043C10BC0EE2021F0862FEA
:10231000942F937002C080E090E00E94750E37C148
:10232000EE2021F0862F942F937002C080E090E081
:102330000E948B0E2CC1EE2021F0862F0E94B51B2F
:1023400003C0862F0E941F1C0E94A71C20C1842F3F
:10235000837009F04EC0EE2009F019C1262F229596
:1023600026952770220F220F862F8F70E82EFF24CC
:1023700000E010E0022E04C0EE0CFF1C001F111F35
:102380000A94D2F764FF10C06FE070E080E090E044
:1023900004C0660F771F881F991F2A95D2F7609592
:1023A00070958095909503C060E070E0CB014695F4
:1023B0004695437050E04230510569F04330510575
:1023C00089F06E297F29802B912B4130510571F0C6
:1023D0000E949C17DCC06E297F29802B912B0E94C4
:1023E000AB17D5C00E949C17C801B7010E948D177A
:1023F000CEC0EE2019F080FFCAC002C081FFC7C066
:10240000262F229526952770220F220F862F8F7058
:10241000E82EFF2400E010E0022E04C0EE0CFF1CAA
:10242000001F111F0A94D2F764FF10C06FE070E024
:1024300080E090E004C0660F771F881F991F2A95DF
:10244000D2F7609570958095909503C060E070E03C
:10245000CB0146954695437050E04230510569F0F6
:102460004330510589F06E297F29802B912B413013
:10247000510571F00E9437188AC06E297F29802B80
:10248000912B0E94461883C00E943718C801B701DB
:102490000E9428187CC0613F71F1623F30F4603EB9
:1024A00008F452C0603F48F018C0633F71F1633FC9
:1024B00038F1643F09F048C032C0162F1F70842FD6
:1024C0008F71EE2021F00E94D017812F0BCF0E9438
:1024D000EC17812F0E94A2105AC0EE2021F0153077
:1024E00008F055C003C0163008F051C0842F8F711A
:1024F0000E940C184CC0842F8F71EE20D1F12EC099
:10250000842F8F71EE2051F134C0EE2029F0842FFA
:102510008F710E94C0173BC00E94BA1738C0EE20CE
:1025200051F0142F1F71812F0E94D017812F63E06B
:102530000E94B6182CC081E00E94C018123038F1F9
:1025400082E00E94C01823C0EE2059F0112321F030
:10255000862F0E94890F1BC0842F8F710E94D01775
:1025600016C0112321F0862F0E94491010C0842F1D
:102570008F710E94EC170BC04F70C5010E942E0294
:102580000E94FF1604C04F70C5010E94B103DD20F8
:1025900089F00E94B21880FD0DC0F50112820E94E0
:1025A000AC180E94D017C5010E94E6120E94AC1818
:1025B0000E94EC170F900F90CF91DF911F910F9118
:1025C000FF90EF90DF90BF90AF9008950F931F930F
:1025D000CF93DF93EC01288139818B819C81009717
:1025E000C9F03F3F91F42F3F81F414C06881798195
:1025F0008A810E94A8188C010E9455180E94891790
:10260000CE01B8010E94A91005C0CE010E944E0261
:10261000882361F7DF91CF911F910F9108950E9458
:1026200076190E9486190E944B190E949C190E94DB
:10263000521D0E94A71C80E090E00E94750E80E071
:1026400090E00E948B0E08950E9466190E940F135D
:1026500008950E949D18492F4F7092959F70292FC1
:1026600030E02C3031054CF42A3031056CF4225026
:10267000304022303105B0F407C02C30310579F0FC
:102680002F30310579F40BC0803F39F0813F18F4C9
:10269000803E50F402C0843F39F481E0089581E027
:1026A00043FD03C080E0089580E00895DF93CF9359
:1026B00000D000D00F92CDB7DEB70F900F900F90E3
:1026C0000F900F90CF91DF910895DF93CF9300D0BB
:1026D00000D000D0CDB7DEB726960FB6F894DEBF97
:1026E0000FBECDBFCF91DF910895CF93DF9380913F
:1026F000820117C0C82FD0E0FE01EE0FFF1FEC0FC4
:10270000FD1FEE0FFF1FED57FE4F4081518162818B
:102710007381848195810E94651321969E012770A3
:10272000822F90918101891729F7DF91CF91089528
:1027300040917B0150917C0160917D0170917E01FF
:1027400080917F01909180010E9465130895411549
:10275000510551F06F3F59F421E030E08F3F11F007
:1027600020E030E0C901089581E090E0089580E024
:1027700090E00895AF92BF92DF92EF92FF920F9395
:102780001F93DF93CF930F92CDB7DEB78091800177
:1027900082958F7009F05EC080917D01882309F4D5
:1027A00059C090918201D0908101E0907B01F0901E
:1027B0007C01A0907E01B0907F018501009510956D
:1027C00046C08E2D6F2DA50199830E94A713998174
:1027D0008823D9F5292F30E0F901EE0FFF1FE20F12
:1027E000F31FEE0FFF1FED57FE4F8181F81669F5BD
:1027F0008081E81651F58281882339F5438154811F
:102800004A155B0518F04A195B0902C0400F511FB9
:10281000483C5105D0F4809180018F708061809395
:102820008001F901EE0FFF1FE20FF31FEE0FFF1FF4
:10283000E857FE4F80818F70806180838BE791E045
:102840000E94E6120E94751305C09F5F97709D1548
:1028500009F0B7CF0F90CF91DF911F910F91FF90AB
:10286000EF90DF90BF90AF9008957F928F929F92EC
:10287000AF92BF92CF92DF92EF92FF920F931F938E
:10288000DF93CF93CDB7DEB761970FB6F894DEBF75
:102890000FBECDBF8C01DE011196FC0185E00190D9
:1028A0000D928150E1F7D8019C901196AC90119750
:1028B0001296BC9012971396ED90FC90149780900E
:1028C0007B0170907C01C0907E01D0907F01882DAB
:1028D000672DA6010E94A713882309F08EC180915D
:1028E0007D01882309F413C120918001EC14FD04BB
:1028F00038F0C7018C199D09883C910550F0A9C09A
:10290000C094D094CE0CDF1CB8ECCB16D10408F0E8
:10291000A0C0822F807F09F058C07A1499F48914DE
:1029200089F4BB2079F42F702061209380010E94EC
:1029300098138BE791E00E94E61280918001F801E4
:10294000858377C1892D6A2DA7010E94A71388234B
:1029500099F5BB20A1F5809182012091810116C0DB
:1029600090E0FC01EE0FFF1FE80FF91FEE0FFF1FB5
:10297000ED57FE4F3181A31639F43081931621F4BF
:102980003281332309F055C101968770821741F7D0
:1029900065C19F7061F0882351F44BC19F7039F07D
:1029A000D80115969C911597907F09F442C1805EDD
:1029B000883008F43EC138C1BB2009F43AC1809187
:1029C000800181608093800134C17A1491F489146C
:1029D00081F4BB2071F4F8012583C8010E94E6123E
:1029E000ABE7B1E0F80186E001900D928150E1F78C
:1029F00018C19982AA8289819A810E942913882309
:102A000009F412C1BB2009F40FC140918001842F49
:102A100082958F7090E08230910594F0CE010696F9
:102A200026E0DC011D922A95E9F720917B01309187
:102A30007C013F832E83FA86E9864B870E94E6124B
:102A4000ABE7B1E0F80186E001900D928150E1F72B
:102A5000E6C0822F807FB9F49982AA82BB827E2D44
:102A6000FD82EC82492D5A2D6B2D8D810E945613CB
:102A70000BE711E0C8010E94E61286E0F80111920E
:102A80008A95E9F7B7C07A1491F4891481F4BB20D0
:102A900071F4D80115962C93C8010E94E612EBE759
:102AA000F1E086E0DF011D928A95E9F7C0C09982C6
:102AB000AA8289819A810E942913882309F4B4C0CB
:102AC000BB2009F4B1C040918001842F82958F70A2
:102AD00090E08230910594F0CE010C9626E0FC0146
:102AE00011922A95E9F720917B0130917C013D8775
:102AF0002C87F88AEF86498B0E94E612ABE7B1E09B
:102B0000F80186E001900D928150E1F788C0EC1445
:102B1000FD0438F0C7018C199D09883C910550F0DF
:102B200056C0C094D094CE0CDF1CF8ECCF16D10464
:102B300008F04DC0BB2009F477C07A1489F58914D8
:102B400079F52091800120FD22C0322F32953F700F
:102B5000832F90E00097D9F0D80115962C93159704
:102B60008F30910541F0832F8F5F8295807F2F708A
:102B7000282B15962C93C8010E94E612ABE7B1E012
:102B8000F80186E001900D928150E1F74AC0ABE771
:102B9000B1E0F80186E001900D928150E1F747C065
:102BA0009982AA8289819A810E942913882349F0F7
:102BB000ABE7B1E0F80186E001900D928150E1F7BA
:102BC0002EC0809180018160809380012DC0998208
:102BD000AA82BB827E2DFD82EC82492D5A2D6B2D5F
:102BE0008D810E945613EBE7F1E086E0DF011D9234
:102BF0008A95E9F70E9498131CC0BB20A9F099821E
:102C0000AA8289819A810E942913882369F0ABE7FF
:102C1000B1E0F80186E001900D928150E1F70E9449
:102C2000BA130E94981303C0C8010E94E61281E003
:102C300001C080E061960FB6F894DEBF0FBECDBF35
:102C4000CF91DF911F910F91FF90EF90DF90CF9088
:102C5000BF90AF909F908F907F9008959982AA82A5
:102C600089819A810E949D18292F22952F7030E02A
:102C7000223031050CF48DCE24303105ACF68ECEE9
:102C8000EF92FF920F931F93DF93CF93CDB7DEB7F1
:102C90002C970FB6F894DEBF0FBECDBF4F83588779
:102CA00069877A878B879C878E01095F1F4FC801D0
:102CB0000E943514882391F04A855B858F81688551
:102CC0000E94A713882309F078C04F815885698531
:102CD0007A858B859C850E9465136FC0DE011196F5
:102CE000F80186E001900D928150E1F7EF80F884C1
:102CF0000A851B858E2D6F2DA8010E94A71388239E
:102D000009F05BC02091810130E0A9014F5F5F4F66
:102D1000477050708091820190E04817590709F47C
:102D200053C0F901EE0FFF1FE20FF31FEE0FFF1F5D
:102D3000ED57FE4FDE01119686E00D900192815015
:102D4000E1F7F901EE0FFF1FE20FF31FEE0FFF1F78
:102D5000ED57FE4FE082F18214830383409381019B
:102D60000E9475132AC030E0C901880F991F820F95
:102D7000931F880F991F8D579E4F0E9435148823EB
:102D800089F18091820190E0FC01EE0FFF1FE80FB6
:102D9000F91FEE0FFF1FED57FE4F408151816281F9
:102DA0007381848195810E9465138091820190E0F6
:102DB00001968770907080938201209182018091AA
:102DC0008101281781F60EC00E9424131092810100
:102DD00010928201EBE7F1E086E0DF011D928A9517
:102DE000E9F7EBCF2C960FB6F894DEBF0FBECDBF40
:102DF000CF91DF911F910F91FF90EF900895FF9277
:102E00000F931F93CF93DF93EC01009709F465C0F4
:102E1000FF2401E010E0FE0121968491843748F4FC
:102E2000843008F047C0813079F0823009F055C015
:102E30001CC0853709F43AC0853750F1982F945853
:102E4000903708F04AC039C0FE0121968491982F2E
:102E5000905E983078F58770902F01C0990F8A9511
:102E6000EAF7892F0E94791910C0FE0121968491FA
:102E7000982F905E983010F58770E02F01C0EE0F0C
:102E80008A95EAF78E2F0E947F190E949C1918C01C
:102E9000FE012196E49107C08FE99FE00197F1F7C9
:102EA00000C00000E150EE23B9F70AC0FE012196F0
:102EB000F49006C00E94890F03C08F770E944910CA
:102EC0008F2D07C0EFE9FFE03197F1F700C0000058
:102ED0008150882309F49FCFF5CFDF91CF911F91C7
:102EE0000F91FF9008956093B3017093B4018093A4
:102EF000B5019093B6010E940F1308956093B70136
:102F00007093B8018093B9019093BA010E940F1396
:102F1000089508950E94731708952091B301309188
:102F2000B4014091B5015091B601622B732B842BF3
:102F3000952B0E94731708952091B3013091B4012D
:102F40004091B5015091B6016223732384239523E8
:102F50000E94731708952091B3013091B4014091FC
:102F6000B5015091B60162277327842795270E94E7
:102F70007317089560E070E0CB010E947E170895FA
:102F800021E030E040E050E004C0220F331F441F36
:102F9000551F8A95D2F7CA01B9010E947E1708957C
:102FA00021E030E040E050E004C0220F331F441F16
:102FB000551F8A95D2F78091B7019091B801A091E1
:102FC000B901B091BA01282B392B4A2B5B2BCA01CE
:102FD000B9010E947E17089521E030E040E050E002
:102FE00004C0220F331F441F551F8A95D2F7209526
:102FF0003095409550958091B7019091B801A0917E
:10300000B901B091BA01282339234A235B23CA01AD
:10301000B9010E947E17089521E030E040E050E0C1
:1030200004C0220F331F441F551F8A95D2F7809189
:10303000B7019091B801A091B901B091BA012827C8
:1030400039274A275B27CA01B9010E947E170895D4
:103050002091B7013091B8014091B9015091BA0166
:10306000622B732B842B952B0E947E170895209141
:10307000B7013091B8014091B9015091BA01622372
:103080007323842395230E947E1708952091B7010E
:103090003091B8014091B9015091BA01622773276C
:1030A000842795270E947E1708950895BF92CF9296
:1030B000DF92EF92FF920F931F93CF93DF936C01F8
:1030C000E090B301F090B4010091B5011091B60108
:1030D0008091B7019091B801A091B901B091BA0166
:1030E000E82AF92A0A2B1B2BCFE1D0E0BC2ED8010D
:1030F000C7010C2E04C0B695A795979587950A949D
:10310000D2F781709070009739F08C2FB6010E9431
:10311000C8038130910531F421973FEFCF3FD307AA
:1031200029F7BB248B2DDF91CF911F910F91FF9039
:10313000EF90DF90CF90BF900895CF93DF93EC0195
:103140000E945618BE010E94C803DF91CF910895D6
:10315000CB010E949D1808958091BF0185958595AA
:10316000859508958091BF0187700895982F990FD4
:10317000990F990F962B9093BF010E94D017089535
:103180004091BF01809584238093BF01982F977051
:1031900069F450E0282F332727FD30954217530755
:1031A00029F08595859585950E94EC170895909155
:1031B000BF01977081E009F480E0089590910101CA
:1031C0009923E1F090910C019923C1F0982F9695E5
:1031D000969596959F3068F5E0910D01F0910E015E
:1031E000E90FF11D877021E030E002C0220F331F8C
:1031F0008A95E2F78181822B8183089520910D01C8
:1032000030910E01D9011296EFEF90E04D914817E1
:1032100081F0EF3F19F4442309F4E92F9F5F9E30BA
:10322000A9F7EF3F31F0FF27E7FDF095E20FF31F1D
:1032300082830895909101019923E9F090910C0106
:103240009923C9F0982F9695969596959F3010F5ED
:10325000E0910D01F0910E01E90FF11D877021E061
:1032600030E002C0220F331F8A95E2F7209581815A
:1032700028232183089520910D0130910E0190E0C3
:10328000F901E90FF11D4281481709F412829F5F8D
:103290009E30B1F7089580E090E00196E0910D0135
:1032A000F0910E01E80FF91F10828F309105A9F7F8
:1032B00008959091BB01982B9093BB010895809540
:1032C0009091BB0198239093BB0108951092BB018C
:1032D00008959091BE01982B9093BE01089580951A
:1032E0009091BE0198239093BE0108951092BE0163
:1032F00008959091BD01982B9093BD0108958095FC
:103300009091BD0198239093BD0108951092BD0145
:1033100008958093BC0108951092BC010895E09136
:103320000D01F0910E0131969FE080E02191211175
:103330008F5F9150D9F70895E0910D01F0910E0142
:103340008091BB018083E0910D01F0910E0180819D
:103350009091BE01892B8083E0910D01F0910E01C7
:1033600080819091BD01892B80839091BC0199232C
:1033700069F0E0910D01F0910E018081892B80832D
:103380000E948F19882311F00E948C1980910D01E1
:1033900090910E010E945F0E08959C0180E006C08E
:1033A000A90141505040242335238F5F2115310559
:1033B000B9F708958091E501843021F11092D1018F
:1033C00020E488E190E00FB6F894A895809360001F
:1033D0000FBE2093600080E00E94CF0583B7817FFD
:1033E000846083BF83B7816083BF7894889583B7F7
:1033F0008E7F83BF88E10FB6F894809360001092AF
:1034000060000FBE089508950E94E6050E947206AE
:103410000E94031A0E94FC0691E0882309F490E0C0
:10342000892F08950E9424130E94520E0E94CF05F6
:1034300008951F920F920FB60F9211248F939F93AE
:10344000AF93BF938091D101882399F48091D201E9
:103450009091D301A091D401B091D5014196A11DC5
:10346000B11D8093D2019093D301A093D401B09366
:10347000D501BF91AF919F918F910F900FBE0F908B
:103480001F90189582E084BD93E095BD9AEF97BD9B
:1034900080936E0008958FB7F8942091D2013091F7
:1034A000D3014091D4015091D5018FBFC901089536
:1034B000EF92FF920F931F93FC018FB7F894209126
:1034C000D2013091D3014091D4015091D5018FBFE9
:1034D0008FEFE82E8FEFF82E012D112DE222F3222F
:1034E00004231523BF0180E090E0E616F7060807E5
:1034F000190720F0B9016E1B7F0B05C0BF01609555
:103500007095620F731FCB011F910F91FF90EF9089
:1035100008951F920F920FB60F9211248F939F93CD
:10352000AF93BF938091D2019091D301A091D40128
:10353000B091D5010196A11DB11D8093D201909348
:10354000D301A093D401B093D501BF91AF919F91C6
:103550008F910F900FBE0F901F9018950E943A0BFD
:10356000F8948FEF97EAA1E681509040A040E1F7F0
:1035700000C0000087E090EBA7E0B0EB8093EE0185
:103580009093EF01A093F001B093F1012CE088E15A
:1035900090E00FB6F894A895809360000FBE20933A
:1035A0006000FFCF0E940B1B882311F40E94F01AC9
:1035B0000E94171B8093D0010E94211B8093DF0182
:1035C0001092E001881F8827881F80930C010E94B9
:1035D0001C1B682F70E080E090E00E948A1708951D
:1035E00080E090E06DEE7EEF0E94C71E82E090E0EA
:1035F00060E00E94B51E83E090E060E00E94B51E8E
:1036000084E090E060E00E94B51E85E090E060E01C
:103610000E94B51E089580E090E00E94AF1E21E058
:103620003EEF8D3E930709F020E0822F089582E05F
:1036300090E00E94A71E089583E090E00E94A71EDC
:10364000089584E090E00E94A71E0895682F84E00A
:1036500090E00E94B51E08958091DC0180FF0BC0B0
:103660006091110185E0689FB001112475956795FF
:103670007595679530C081FF09C06091110185E0A3
:10368000689FB00111247595679525C082FF07C01A
:103690006091110185E0689FB00111241CC08091E8
:1036A000DB018823F9F06091120120911101861746
:1036B00028F065E0269FB00111240DC0829F900183
:1036C0001124C901880F991F880F991F820F931F1A
:1036D00070E00E94801E6038710540F4611571052C
:1036E00039F002C065E070E0862F08958FE70895F5
:1036F00081E008958091DC0180FF08C06091130192
:1037000070E0759567957595679523C081FF06C034
:103710006091130170E0759567951BC082FF03C02F
:10372000609113010BC08091DB018823D9F0609177
:10373000140190911301861718F0692F70E006C0EC
:10374000899FC001112470E00E94801E60387105BD
:1037500028F46115710521F0862F08958FE70895EB
:1037600081E0089561E070E0F4CF803F21F40E9491
:103770002C1B819504C0813F29F40E942C1B80934F
:10378000D8010895823F21F40E942C1B819504C02A
:10379000833F29F40E942C1B8093D7010895893F11
:1037A00019F40E947A1B05C08A3F31F40E947A1BEB
:1037B00081958093D90108958B3F21F40E947A1B53
:1037C000819504C08C3F29F40E947A1B8093DA0112
:1037D0000895843F21F48091D601816017C0853F10
:1037E00021F48091D601826011C0863F21F480913E
:1037F000D60184600BC0873F21F48091D601886098
:1038000005C0883F31F48091D60180618093D60154
:1038100008958D3F21F48091DC01816005C08E3FC9
:1038200031F48091DC0182608093DC0108958F3F48
:1038300029F48091DC0184608093DC010895803F4D
:1038400029F48091D80187FF6FC007C0813F41F400
:103850008091D80118160CF067C01092D80164C08E
:10386000823F29F48091D70187FF5EC007C0833F64
:1038700041F48091D70118160CF056C01092D70170
:1038800053C0893F29F48091D90118163CF04CC0EF
:103890008A3F39F48091D90187FF46C01092D9013F
:1038A00043C08B3F29F48091DA0187FF3DC006C0F9
:1038B0008C3F39F48091DA011816B4F51092DA01D0
:1038C00033C0843F21F48091D6018E7F05C0853FAF
:1038D00031F48091D6018D7F8093D60125C0863F3B
:1038E00021F48091D6018B7FF7CF873F21F480911F
:1038F000D601877FF1CF883F21F48091D6018F7E5A
:10390000EBCF8D3F21F48091DC018E7F0BC08E3F89
:1039100021F48091DC018D7F05C08F3F29F48091D7
:10392000DC018B7F8093DC018091D701882371F4C7
:103930008091D801882351F48091D901882331F4F2
:103940008091DA01882311F41092DB01089586ED4D
:1039500091E00E946A0E0E944B1A9093DE018093C0
:10396000DD0108951F938091DD019091DE010E9499
:10397000581A4091DB01442321F02091100130E0DE
:1039800006C030910F012AE0329F90011124821766
:10399000930708F485C08091D701882369F490913A
:1039A000D801992349F49091D901992329F4909150
:1039B000DA01992309F474C04F3F19F04F5F409327
:1039C000DB01181624F40E942C1B8093D7018091F0
:1039D000D70187FF05C00E942C1B81958093D701DA
:1039E0008091D801181624F40E942C1B8093D801D2
:1039F0008091D80187FF05C00E942C1B8195809380
:103A0000D8016091D701662339F11091D8011123B3
:103A100019F1772767FD7095872F972F0E94911DC9
:103A200023E333E343E35FE30E94F51D0E945E1D41
:103A30006093D701612F772767FD7095872F972FA8
:103A40000E94911D23E333E343E35FE30E94F51DEE
:103A50000E945E1D6093D8018091D901181624F44C
:103A60000E947A1B8093D9018091D90187FF05C0FC
:103A70000E947A1B81958093D9018091DA011816F2
:103A800024F40E947A1B8093DA018091DA0187FF87
:103A900005C00E947A1B81958093DA010E94A71CC1
:103AA0001F910895E6EDF1E085E0DF011D928A9512
:103AB000E9F71092DB011092DC01089504D06894BC
:103AC000B1118DC0089570D088F09F5790F0B92F34
:103AD0009927B751A0F0D1F0660F771F881F991F63
:103AE0001AF0BA95C9F712C0B13081F077D0B1E0C1
:103AF000089574C0672F782F8827B85F39F0B93FD1
:103B0000CCF3869577956795B395D9F73EF4909564
:103B10008095709561957F4F8F4F9F4F0895E894E2
:103B200009C097FB3EF490958095709561957F4F05
:103B30008F4F9F4F9923A9F0F92F96E9BB279395B3
:103B4000F695879577956795B795F111F8CFFAF4C3
:103B5000BB0F11F460FF1BC06F5F7F4F8F4F9F4FF4
:103B600016C0882311F096E911C0772321F09EE852
:103B7000872F762F05C0662371F096E8862F70E0B8
:103B800060E02AF09A95660F771F881FDAF7880F92
:103B90009695879597F9089557FD9058440F551FAE
:103BA00059F05F3F71F04795880F97FB991F61F0BF
:103BB0009F3F79F087950895121613061406551F36
:103BC000F2CF4695F1DF08C0161617061806991FA2
:103BD000F1CF86957105610508940895E894BB2797
:103BE00066277727CB0197F908950BD078C069D065
:103BF00028F06ED018F0952309F05AC05FC0112448
:103C0000EECFCADFA0F3959FD1F3950F50E0551F7B
:103C1000629FF001729FBB27F00DB11D639FAA2721
:103C2000F00DB11DAA1F649F6627B00DA11D661F70
:103C3000829F2227B00DA11D621F739FB00DA11D91
:103C4000621F839FA00D611D221F749F3327A00D4B
:103C5000611D231F849F600D211D822F762F6A2FE7
:103C600011249F5750408AF0E1F088234AF0EE0F6C
:103C7000FF1FBB1F661F771F881F91505040A9F779
:103C80009E3F510570F014C0AACF5F3FECF3983E01
:103C9000DCF3869577956795B795F795E7959F5FE0
:103CA000C1F7FE2B880F911D9695879597F908957A
:103CB00097F99F6780E870E060E008959FEF80ECDF
:103CC000089500240A941616170618060906089582
:103CD00000240A9412161306140605060895092EE8
:103CE0000394000C11F4882352F0BB0F40F4BF2B57
:103CF00011F460FF04C06F5F7F4F8F4F9F4F089597
:103D000097FB092E07260AD077FD04D00CD006D0E9
:103D100000201AF4709561957F4F0895F6F79095FD
:103D200081959F4F0895AA1BBB1B51E107C0AA1F95
:103D3000BB1FA617B70710F0A61BB70B881F991F4C
:103D40005A95A9F780959095BC01CD010895F999F0
:103D5000FECF92BD81BDF89A992780B50895A8E15C
:103D6000B0E042E050E00C94CF1E262FF999FECF30
:103D700092BD81BDF89A019700B4021639F01FBABE
:103D800020BD0FB6F894FA9AF99A0FBE08950196DD
:103D9000272F0E94B61E0C94B51EDC01CB01FC013E
:103DA000F999FECF06C0F2BDE1BDF89A319600B494
:0E3DB0000D9241505040B8F70895F894FFCF9F
:103DBE00FF010C079C07780743070F0701C0011E80
:103DCE00320A1408281F0F03764F5F6F7F4969432D
:103DDE007909595363EC0205031E033703CC010C1A
:0E3DEE000259028F0240004D003600390000DD
:00000001FF
