:100000000C94D7020C941B030C941B030C941B033D
:100010000C941B030C941B030C941B030C941B03E8
:100020000C941B030C941B030C944A0E0C941C0F91
:100030000C941B030C941B030C941B030C941B03C8
:100040000C941B030C949B230C941B030C941B0318
:100050000C941B030C943F1D0C941B030C941B036A
:100060000C941B030C941B030C941B030C941B0398
:100070000C941B030C941B030C941B030C941B0388
:100080000C941B030C941B030C941B030C941B0378
:100090000C941B030C941B030C941B030C941B0368
:1000A0000C941B030C941B030C941B032B035F0386
:1000B0008403C2032B036803A603D00391049104B5
:1000C00054045E0468047A04810FA30F8E10A30FFA
:1000D0008E10E50F08108E105D1070106A136A13F1
:1000E000AB13AB13ED132914291629164114291645
:1000F00038153815031629162916171600000000A2
:1001000000000000000000000000000000000000EF
:100110000AC80BC80CC80DC80EC80FC810C811C833
:100120000D200C200B300A30E00000001E001400EF
:1001300004001D0000074E001F001A0016001B00DF
:10014000000F4C002000080007000600E2002A0013
:100150002100150009001900E3004B0022001700E0
:100160000A00050000004A0029002F0000002B02B1
:1001700000004D002D00300000002B00000050005A
:1001800023001C000B00110000004F002400180089
:100190000D001000E700520025000C000E00360094
:1001A000E6002C00260012000F003700000F280088
:1001B00027001300330038000007510011201020E1
:1001C0000F200E30E40000000100010001000100DA
:1001D000E00000003A001E02200222020007510047
:1001E0003B001F0221022302000F28003C002F02C7
:1001F00026022F00E2002C003D00300227023000D2
:10020000E30052003E002402350035020000500099
:100210002900360200002B0000004F002D0037029D
:1002200000002B0200004A003F003102380031007C
:1002300000004D004000240021001E0027784B00E4
:100240004100250022001F0037744C0042002600A8
:10025000230020002E7F2A004300380025022D00B5
:100260002E774E00010001000100010028710000FE
:100270000100010001000100E000000044006600F0
:10028000A60000000007B50045001430F20016304B
:10029000F60000006800F000F100F100F400B60084
:1002A00069001530F3001730F500B4006A00A900AA
:1002B000AA00A8000000B8002900F9000000FA0018
:1002C0000000B9000000F9000000FA000000AC00D6
:1002D0006B004600530000000000AB006C004A00B9
:1002E00050004D004978A9006D00520051005100A6
:1002F0004C74AE006E004B004F004E00000FAD007E
:100300006F00B100B30000000007AA000100010067
:1003100001000100E40000000100010001000100F3
:10032000010000002900010001000100010001009E
:1003300001000100010001000100010001000100B5
:1003400001000100010001000100010001000100A5
:100350000100010001000100010001000000010096
:100360000100010000000100000001000100010087
:100370000000010000000100010001000100010077
:100380000000010001000100010001000100010066
:100390000100010001000100010001000100010055
:1003A00001000100010001002A000100010001001C
:1003B00001000100010001000100E5000100000052
:1003C00016034500720067006F0044006F0078005C
:1003D000200045005A000000160345007200670027
:1003E0006F0044006F007800200045005A000000B4
:1003F0000403090409026D00040100A0FA090400C5
:10040000000103010100092111010001223F000741
:1004100005810308000A0904010001030102000923
:100420002111010001224D000705820308000A097D
:10043000040200010300000009211101000122361D
:10044000000705830308000A0904030001030000F4
:100450000009211101000122390007058403100061
:10046000011201100100000008EDFE071301000158
:1004700002000105010906A101050719E029E71598
:1004800000250195087501810205081901290595C6
:100490000575019102950175039101050719002960
:1004A0007715002501957875018102C00501098045
:1004B000A101850216010026B7001A01002AB70023
:1004C000751095018100C0050C0901A10185031675
:1004D0000100269C021A01002A9C027510950181D8
:1004E00000C005010902A1010901A10005091901C6
:1004F00029051500250195057501810295017503F2
:1005000081010501093009311581257F95027508A2
:10051000810609381581257F950175088106050C2E
:100520000A38021581257F950175088106C0C0052E
:10053000010906A101050719E029E7150025019524
:1005400008750181029501750881010508190129C5
:10055000059505750191029501750391010507192E
:100560000029FF150025FF950675088100C00000D1
:10057000000000000000000000010204060A0F173E
:10058000202C3A4A5D71879DB3C7DAE9F5FCFFFC80
:10059000F5E9DAC7B39D87715D4A3A2C20170F0A37
:1005A0000604020100000000000000000000112409
:1005B0001FBECFEFDAE0DEBFCDBF04B603FE24C01E
:1005C0008091F6019091F701A091F801B091F901A5
:1005D0008730904BA740B04BB9F41092F6011092BF
:1005E000F7011092F8011092F90114BE84B7877FC9
:1005F00084BF88E10FB6F894809360001092600089
:100600000FBEE0E0FFE3099511E0A0E0B1E0E4EC0B
:10061000FAE402C005900D92A433B107D9F721E0A6
:10062000A4E3B1E001C01D92A63FB207E1F70E942A
:10063000900B0C9460250C940000DC01462F50E0D8
:100640004A5051094E30510508F06BC14A5A5F4F6C
:10065000FA010C94102512962C91129780913A0170
:1006600090913B012223F9F015962C91207FD9F42B
:1006700001968330910510F082E090E090933B0169
:1006800080933A0180913A0190913B01823091052B
:1006900029F489E30E94F21189E30EC0019709F061
:1006A00040C181EEFAC0019790933B0180933A01DB
:1006B000892B09F036C181EE0E94BA1232C112961E
:1006C0002C918091380190913901222379F090C0CA
:1006D00012963C91129715962C9180913801909129
:1006E0003901207F31117AC009F09FC001979093A2
:1006F000390180933801892B09F013C180913501AC
:1007000081110FC181E067C012963C911297159636
:100710002C918091360190913701207F332361F035
:10072000222309F491C0009709F08EC02091340172
:1007300021118AC08BE2B1C02223B1F00097A1F44D
:1007400020913401211110C08BE2B6CF12963C915A
:10075000129715962C918091360190913701207F48
:10076000311168C009F08DC00197909337018093D3
:100770003601892B09F0D5C0809134018111D1C097
:1007800082E029C012969C91129715968C9199231C
:10079000B1F0982F907F79F080FD0DC085E37DC08A
:1007A00012969C91129715968C91992379F0982F17
:1007B000907F09F06FC083E00E94BD1AB2C0982FED
:1007C000907F41F080FD06C085E376CF982F907F23
:1007D00009F066C083E00E94DE1AA3C0222341F024
:1007E000009731F420913501211102C084E355C0F6
:1007F00001968330910510F082E090E090933901EA
:1008000080933801809138019091390182309105AF
:1008100029F0019709F085C081E0CECF80913501A4
:1008200091E08927809335017CC0009709F05ECF65
:1008300084E342CF222341F0009731F42091340128
:10084000211102C081E329C001968330910510F087
:1008500082E090E0909337018093360180913601D9
:10086000909137018230910529F0019709F059C024
:1008700082E0A2CF8091340191E0892780933401F6
:1008800050C0009709F070CF2091340121116CCF36
:1008900081E312CF80FD8FCF8EE20E94F21141C022
:1008A00080FD98CF8EE208CF12968C91882319F0A4
:1008B00080EF90E013C080EF90E017C012968C910B
:1008C000882319F080EF90E01BC080EF90E021C0FA
:1008D00012968C91882339F081EF90E00E94B31F2B
:1008E00082EF90E011C081EF90E00E941B2082EF28
:1008F00090E013C012968C91882349F081EF90E02C
:100900000E94B31F83EF90E00E94B31F08C081EFE5
:1009100090E00E941B2083EF90E00E941B200E9429
:10092000A02080E090E008950895E0910E01F091FC
:100930000F018081827219F0259A2D9A06C00E94BB
:10094000C91081FDF9CF25982D988091B90181FFBB
:1009500003C0269A2E9A02C026982E988091B9013B
:1009600082FF03C0279A2F9A089527982F980895F9
:100970000C94950456985E9825982D9826982E9854
:1009800027982F988FEF90E09093890080938800AC
:1009900090938B0080938A0090938D0080938C00BD
:1009A000259A2D9A2FEF80E792E0215080409040C9
:1009B000E1F700C00000269A2E9A2FEF80E792E020
:1009C000215080409040E1F700C00000279A2F9A04
:1009D0002FEF80E792E0215080409040E1F700C087
:1009E000000025982D982FEF80E792E0215080405D
:1009F0009040E1F700C0000026982E982FEF80E786
:100A000092E0215080409040E1F700C0000027981C
:100A10002F9856985E9825982D9826982E98279866
:100A20002F98089589EA8093800089E0809381005F
:100A300024982C983F988AB18F748AB96E98479AF7
:100A40008BB1806B8BB9769A0E94BA040C94940493
:100A500080E28093000180913C0181110EC00E94D0
:100A6000770581E080933C012FEF83ED90E32150E7
:100A700080409040E1F700C0000080E40E947D05C6
:100A80008093000181112EC00E94A7058093000170
:100A9000811128C00E94A70580930001811122C006
:100AA0008FE30E94A7058093000181111BC00E9463
:100AB0009F0580E40E947D0580930001811112C092
:100AC0008CE00E94A7058093000181110BC00E9459
:100AD000A70580930001811105C08FE30E94A7053F
:100AE000809300010E949F0580910001089510925B
:100AF000B9008AE08093B800089594EA9093BC000E
:100B00009091BC0097FFFCCF9091B900987F9830EE
:100B100021F0903111F081E008958093BB0084E8CA
:100B20008093BC008091BC0087FFFCCF8091B9000E
:100B3000887F883111F0803471F780E0089584E96E
:100B40008093BC008091BC0084FDFCCF089580930D
:100B5000BB0084E88093BC008091BC0087FFFCCF81
:100B60009091B900987F81E0983209F480E008956F
:100B700084E88093BC008091BC0087FFFCCF80910B
:100B8000BB00089580910001811115C080E40E948E
:100B90007D058093000181110CC082E10E94A705B0
:100BA00080930001811105C08FEF0E94A7058093FB
:100BB00000010E949F0584B1807F84B985B1807F48
:100BC00085B98AB1837F8AB98BB1837F8BB93E980F
:100BD000469808950E942805809300010E94C2054E
:100BE00080B38C7080BB81B3836F81BBECE4F1E098
:100BF000AEE3B1E011921D9281E0EA35F807D1F73A
:100C00000C941205BF92CF92DF92EF92FF920F9356
:100C10001F93CF93DF9380910001882379F0809117
:100C20003D018F5F80933D01811108C00E9428051E
:100C300080930001811102C00E94BA040EE311E00A
:100C4000C0E0D0E0DD24D39482E0C82EEE24E3940B
:100C5000F12CC73000F580910001811162C080E461
:100C60000E947D0580930001811112C082E10E94E3
:100C7000A7058093000181110BC0C7010C2E01C094
:100C8000880F0A94EAF780950E94A70580930001D7
:100C90000E949F0546C0CA30A1F028F4C83059F020
:100CA000C93061F005C0CC3089F070F0CD3089F0EA
:100CB000209A289810C0219A29980DC0229A2A9823
:100CC0000AC0239A2B9807C0529A01C0539A5B9886
:100CD00002C03E9A4698E0EAEA95F1F78FB1799919
:100CE0005AC092E081708D25892B7C9B02C090E0D8
:100CF00001C094E0892B7D9B02C090E001C098E088
:100D0000892B7E9B02C090E001C090E1892B9FB1AE
:100D10009095991F9927991F9295990F907E892BED
:100D20000FC08091000181114BC080E40E947D05BD
:100D300080930001882389F1B12C0E949F058B2D9F
:100D4000F8019081981719F08083C09201010E94E8
:100D5000C20521960F5F1F4FCE30D10509F079CF24
:100D600080910101882371F18150809301018823D2
:100D700039F08FE99FE00197F1F700C0000022C031
:100D8000ACE4B1E0EEE3F1E081918D9391E0EC34DD
:100D9000F907D1F717C090E0A5CF83E10E94A7051E
:100DA000809300018111C8CF81E40E947D0580936A
:100DB00000018111C1CF0E94B805B82EB094BDCFFB
:100DC00080E0BECF0E94B80481E0DF91CF911F91F7
:100DD0000F91FF90EF90DF90CF90BF900895E82F94
:100DE000F0E0E45BFE4F808108950895089596E059
:100DF000799FF001112494E5899FE00DF11D1124E4
:100E0000E60FF11DEE0FFF1FE05EFE4F85919491FE
:100E10000895880F991F84589040FC018591949102
:100E20000895880F991F84509F4FFC0185919491DC
:100E300008950F931F93CF93DF93EC01811520E367
:100E4000920730F5811530E2930708F0B1C08B3B73
:100E5000910588F4883A910508F058C0853A9105C3
:100E600008F049C08430910508F043C081309105F5
:100E700009F4B2C1AEC18F3F910509F0D0F5803FB2
:100E8000910508F092C0805E9109089790F1A1C188
:100E9000C11581E5D807A8F4C23090E5D90708F05C
:100EA0009FC0C11520E5D20709F486C008F092C0A2
:100EB000C11580E4D80708F08CC18E011127106C91
:100EC000CCC1C11590E8D90758F4C11520E7D20765
:100ED00008F07BC1C11530E6D30708F423C179C1FE
:100EE000C11580E9D80708F074C18E011F70106A1F
:100EF000B4C18E01B2C1853A910509F470C1863A38
:100F0000910509F46FC103E810E4A7C1883A91057F
:100F100009F46BC1893A910509F46AC18A3A9105CD
:100F200009F469C18B3A910509F468C18C3A9105BD
:100F300009F467C18D3A910509F466C1803B9105BA
:100F400009F465C18E3A910509F464C18F3A91059F
:100F500009F463C1813B910509F462C1823B9105AB
:100F600009F461C1833B910509F460C1843B91059B
:100F700009F45FC1853B910509F45EC1863B91058B
:100F800009F45DC1873B910509F45CC1883B91057B
:100F900009F45BC1893B910509F45AC18A3B91056B
:100FA00009F059C10AE216E458C18C01106555C117
:100FB0009F700E94110752C10E944C169FEF24E3BC
:100FC0003CE0915020403040E1F700C000000E941A
:100FD000641D43C18091D50181608093D5013DC1DD
:100FE0000E940C1F811102C00E94F21E0E94291F44
:100FF00090E09093F6018093F501C23080E5D80728
:1010000021F48091F501816086C0C43090E5D90754
:1010100021F48091F50182607EC0C63020E5D207C0
:1010200021F48091F501846076C0C83030E5D307A3
:1010300019F48091F50127C0CA3080E5D80721F462
:101040008091F501806167C0CC3090E5D90721F42B
:101050008091F50180625FC0CE3020E5D20721F497
:101060008091F501806457C0C03130E5D30721F489
:101070008091F50180684FC0C23180E5D80729F41E
:101080008091F5018460886046C0C33090E5D9073F
:1010900021F48091F5018E7F3EC0C53020E5D20756
:1010A00021F48091F5018D7F36C0C73030E5D3073C
:1010B00021F48091F5018B7F2EC0C93080E5D807DF
:1010C00019F48091F50126C0CB3090E5D90721F4C1
:1010D0008091F5018F7E1FC0CD3020E5D20721F42D
:1010E0008091F5018F7D17C0CF3030E5D30721F413
:1010F0008091F5018F7B0FC0C13180E5D80721F4C5
:101100008091F5018F7707C0C331D04531F48091CC
:10111000F5018B7F877F8093F5018091F5010E9417
:101120002D1F9BC08D2F99278F7099278130910596
:10113000E9F48E01037011279C0102C0220F331FB6
:101140000A95E2F789011C68CE0164E0880F991FB7
:101150006A95E1F788279370082B192B73E0CC0F61
:10116000DD1F7A95E1F7C076DD272CC0823091052E
:1011700029F41C2F0027016F106A6FC0833091057E
:1011800061F4CE018370992701E010E002C0000FE6
:10119000111F8A95E2F71C680EC0049709F05DC024
:1011A000CE018370992701E010E002C0000F111FEB
:1011B0008A95E2F71A6843E0CC0FDD1F4A95E1F704
:1011C000C07ED7700C2B1D2B48C08E011F70106283
:1011D00044C000E010E041C001E010E03EC001E882
:1011E00010E43BC002E810E438C002EE14E435C05D
:1011F00009EE14E432C00AEE14E42FC005EB14E447
:101200002CC006EB14E429C007EB14E426C00CEC58
:1012100014E423C00DEC14E420C003E815E41DC061
:101220000AE815E41AC002E915E417C004E915E458
:1012300014C001E216E411C003E216E40EC004E299
:1012400016E40BC005E216E408C006E216E405C089
:1012500007E216E402C000E014E4C801DF91CF9178
:101260001F910F91089596E0799FF001112494E564
:10127000899FE00DF11D1124E60FF11DEE0FFF1FF8
:10128000E05EFE4F85919491803E9105E0F4803CB4
:10129000910558F58133910509F46FC048F48932FE
:1012A000910509F463C08A32910509F46DC072C0DA
:1012B00089339105E9F082389105D1F085339105A4
:1012C00009F44DC067C0833E910581F138F4803E3A
:1012D0009105B9F0823E9105D9F05CC0863E91053A
:1012E00061F1873E9105A1F155C00E94090708955B
:1012F0002091F50120FD02C021FF4CC080EE90E05E
:1013000049C08091F50180FFF9CF89E390E042C0A8
:101310008091F50182FF0EC08091F50184FF03C02A
:1013200080E090E037C083EE90E034C08091F5011A
:1013300082FFF2CF82EE90E02DC08091F50183FF15
:101340000BC08091F50184FDEBCF87EE90E022C0C9
:101350008091F50183FFF5CF86EE90E01BC0809170
:10136000F50185FF07C089E290E014C08091F50186
:1013700085FFF9CF85E390E00DC08091F50186FFF0
:1013800007C08AE290E006C08091F50186FFF9CFA0
:1013900081E390E00E941907089508950C94CD0907
:1013A00080916A010895CF93DF9300D01F92CDB74B
:1013B000DEB72091EC01243019F523E029839B83CB
:1013C0008A832093E9008FEF9091E800815095FD8A
:1013D00006C095ED9A95F1F700008111F5CF809147
:1013E000E80085FF0DC040E050E063E070E0CE0112
:1013F00001960E943D0C8091E8008E778093E80072
:101400000F900F900F90DF91CF910895CF93DF93BE
:1014100000D01F92CDB7DEB72091EC01243021F52A
:1014200022E029839B838A8383E08093E9008FEF06
:101430009091E800815095FD06C095ED9A95F1F7E1
:1014400000008111F5CF8091E80085FF0DC040E0DC
:1014500050E063E070E0CE0101960E943D0C809167
:10146000E8008E778093E8000F900F900F90DF9147
:10147000CF9108952091EC012430F1F422E02093E3
:10148000E9002FEF3091E800215035FD06C035ED21
:101490003A95F1F700002111F5CF2091E80025FFE2
:1014A0000BC040E050E065E070E00E943D0C809190
:1014B000E8008E778093E8000895CF93DF93EC01E6
:1014C0008091EC01843009F046C090910C01992381
:1014D000D9F090910D019923B9F08093E9008FEF35
:1014E0009091E800815095FD06C095E19A95F1F73D
:1014F00000008111F5CF8091E80085FF2CC040E00D
:1015000050E060E170E017C081E08093E9008FEF68
:101510009091E800815095FD06C095ED9A95F1F700
:1015200000008111F5CF8091E80085FF14C040E0F4
:1015300050E068E070E0CE010E943D0C8091E80030
:101540008E778093E80080E1FE01AAE5B1E001908A
:101550000D928A95E1F7DF91CF9108958091EB018B
:10156000811109C00E94CF0D0E942C0E8091E200D3
:1015700084608093E20008951092EB01089508952D
:101580000C9488230E94FB1C0E948E230E94C91089
:101590000C94CE0942E061EC81E00E94490D42E0EA
:1015A00061EC82E00E94490D42E061EC83E00E9420
:1015B000490D42E161EC84E00C94490D8091EE010B
:1015C000833009F455C030F4813071F0823009F471
:1015D0008EC008958A3009F47AC08B3009F460C057
:1015E000893009F09CC020C08091ED01813A09F05A
:1015F00096C08091E800877F8093E8008091F10198
:101600009091F201892B21F060E080E090E003C02E
:1016100060E18AE591E070E00E94860C8091E8002C
:101620008B778093E80008958091ED01813209F075
:1016300076C08091F1019091F201009719F0039723
:1016400009F06DC08091E800877F8093E800809169
:10165000E80082FD05C08091EC018111F8CF5FC0E8
:101660008091F10080936A018091E8008B7753C0EC
:101670008091ED01813A09F052C08091F101909181
:10168000F201892B09F04BC08091E800877F80939D
:10169000E8008091E80080FFFCCF80910C0136C00B
:1016A0008091ED018132D9F58091F1019091F201A3
:1016B000892BA9F58091E800877F8093E8000E943C
:1016C0007E0D8091EF0180930C010C944C1680915B
:1016D000ED01813221F58091E800877F8093E80059
:1016E0000E947E0D8091F00180936B01089580919E
:1016F000ED01813AA1F48091E800877F8093E800B2
:101700008091E80080FFFCCF80916B018093F10015
:101710008091E8008E778093E8000C947E0D089508
:1017200084B7877F84BF88E10FB6F8948093600008
:10173000109260000FBE90E080E80FB6F89480939E
:101740006100909361000FBE0E9418110E94CF0D9E
:101750000E942C0E8091E20084608093E2007894D5
:101760000E94A7100E941A1182E091E00E94C4100A
:101770000E9476238091EC01853069F40E94BB1CA5
:101780008091EA018823B1F30E94E61C882391F33B
:101790000E94270CEFCF0E942011ECCF292F332776
:1017A00023303105A9F06CF42130310509F442C031
:1017B0002230310509F043C08DE690E024EF33E09C
:1017C00042C021323105C9F02232310519F137C04A
:1017D00099278130910541F08230910541F0892BA4
:1017E00071F5E0EFF3E005C0E8EDF3E002C0E0ECF6
:1017F000F3E0849190E09F0126C0643000F5E62F6D
:10180000F0E0EE0FFF1FEE5DFE4F2081318189E099
:1018100090E019C0643098F4E62FF0E0DF01AA0FE1
:10182000BB1FA65EBE4F2D913C91EA5EFE4F8081AC
:1018300090E009C082E190E021E634E004C080E05D
:1018400090E020E030E0FA0131832083089580E1C8
:1018500089BD82E189BD09B400FEFDCF8091D80029
:101860008F7D8093D8008091E00082608093E000BB
:101870008091E00081FDFCCF0895CF92DF92EF923E
:10188000FF920F931F93CF93DF937C018B01EA01AB
:101890000E949F0D811131C0209731F0888199817C
:1018A000081B190BE80EF91EC12CD12C01151105CE
:1018B00019F18091E80085FD14C08091E8008E77D1
:1018C0008093E800209741F0888199818C0D9D1DBF
:1018D0009983888385E011C00E949F0D882331F38E
:1018E0000CC0F70181917F018093F1000150110933
:1018F000FFEFCF1ADF0ADACF80E0DF91CF911F919F
:101900000F91FF90EF90DF90CF9008952091F30119
:101910003091F4012617370748F06115710539F445
:101920002091E8002E772093E80001C0B901FC0166
:1019300020E061157105B9F18091EC01882309F46B
:1019400040C0853009F43FC08091E80083FD3DC070
:101950008091E80082FF06C08091E80082FF26C0E7
:1019600080E008958091E80080FFE3CF2091F300AC
:101970008091F20090E0922B6115710551F0883052
:10198000910538F421912093F1006150710901967D
:10199000F3CF21E0089709F020E08091E8008E77EE
:1019A0008093E800C6CF2111C7CFD6CF8091EC013C
:1019B000882339F0853039F08091E80083FFCCCF5F
:1019C00004C082E0089583E0089581E008952091A5
:1019D000F3013091F4012617370748F061157105BE
:1019E00039F42091E8002E772093E80001C0B90176
:1019F000FC0120E061157105C1F18091EC018823A3
:101A000009F441C0853009F440C08091E80083FDAD
:101A10003EC08091E80082FF06C08091E80082FF0E
:101A200027C080E008958091E80080FFE3CF2091F7
:101A3000F3008091F20090E0922B6115710559F04E
:101A40008830910540F424912093F1003196615043
:101A500071090196F2CF21E0089709F020E080910A
:101A6000E8008E778093E800C5CF2111C6CFD5CF8F
:101A70008091EC01882339F0853039F08091E800BD
:101A800083FFCBCF04C082E0089583E0089581E016
:101A90000895982F973058F59093E900981739F0EA
:101AA0007091EC002091ED005091F00003C0242FC4
:101AB000762F50E021FF19C03091EB003E7F30932C
:101AC000EB003091ED003D7F3093ED003091EB0065
:101AD00031603093EB007093EC002093ED00509355
:101AE000F0002091EE0027FF07C09F5FD3CF8F70DB
:101AF0008093E90081E0089580E008958091ED01F0
:101B000087FD05C08091E80080FF0EC012C0809163
:101B1000E80082FD05C08091EC018111F8CF0895A5
:101B20008091E8008B7708C08091EC018111EACFA9
:101B300008958091E8008E778093E8000895809161
:101B4000E4009091E50045E62091EC0020FF21C0E3
:101B50002091E80020FD21C02091EC01222389F092
:101B6000253089F02091EB0025FD0FC02091E40085
:101B70003091E5002817390739F3415041F0C90188
:101B8000E3CF82E0089583E0089581E0089584E042
:101B900008952091E80022FFDFCF80E008950E94A1
:101BA0003D0E0E94450EE0EEF0E080818160808372
:101BB000E8EDF0E080818F77808319BCA7EDB0E07D
:101BC0008C918E7F8C9380818F7E80831092EB012D
:101BD00008950F931F93CF93DF930E943D0E0E94B1
:101BE000450EC8EDD0E088818F7788838881806832
:101BF000888388818F7D888319BC1092EC011092B4
:101C0000E8011092EA011092E90100EE10E0F801FB
:101C100080818B7F808388818160888342E060E05F
:101C200080E00E94490DE1EEF0E080818E7F8083AC
:101C3000E2EEF0E080818160808380818860808333
:101C4000F80180818E7F8083888180618883DF9125
:101C5000CF911F910F910895E8EDF0E080818F7E84
:101C60008083E7EDF0E080818160808384E082BF43
:101C700081E08093EB010C94E90DE8EDF0E08081C8
:101C80008E7F80831092E20008951092DA00109205
:101C9000E10008951F920F920FB60F9211242F9317
:101CA0003F934F935F936F937F938F939F93AF93E4
:101CB000BF93EF93FF938091E10082FF0BC080916F
:101CC000E20082FF07C08091E1008B7F8093E100FA
:101CD0000E94A6108091DA0080FF1FC08091D8007A
:101CE00080FF1BC08091DA008E7F8093DA008091A4
:101CF000D90080FF0DC080E189BD82E189BD09B4B2
:101D000000FEFDCF81E08093EC010E94AE0A05C089
:101D100019BC1092EC010E94BC0A8091E10080FF86
:101D200019C08091E20080FF15C08091E2008E7F93
:101D30008093E2008091E20080618093E2008091D4
:101D4000D80080628093D80019BC85E08093EC01B4
:101D50000E94C00A8091E10084FF30C08091E200BF
:101D600084FF2CC080E189BD82E189BD09B400FEF9
:101D7000FDCF8091D8008F7D8093D8008091E100C5
:101D80008F7E8093E1008091E2008F7E8093E2005D
:101D90008091E20081608093E2008091E8018823D5
:101DA00011F084E007C08091E30087FF02C083E068
:101DB00001C081E08093EC010E94C20A8091E100A1
:101DC00083FF29C08091E20083FF25C08091E1005C
:101DD000877F8093E10082E08093EC011092E8011C
:101DE0008091E1008E7F8093E1008091E2008E7F00
:101DF0008093E2008091E20080618093E20042E003
:101E000060E080E00E94490D8091F000886080933E
:101E1000F0000E94BF0AFF91EF91BF91AF919F9197
:101E20008F917F916F915F914F913F912F910F9083
:101E30000FBE0F901F9018951F920F920FB60F9222
:101E400011242F933F934F935F936F937F938F93BF
:101E50009F93AF93BF93CF93EF93FF93C091E9000C
:101E6000CF708091EC001092E9008091F000877FA4
:101E70008093F00078940E94580F1092E9008091AE
:101E8000F00088608093F000C093E900FF91EF912B
:101E9000CF91BF91AF919F918F917F916F915F9102
:101EA0004F913F912F910F900FBE0F901F9018955B
:101EB0001F93CF93DF93CDB7DEB7AA970FB6F894F1
:101EC000DEBF0FBECDBFEDEEF1E08091F10081935A
:101ED00021E0E53FF207C9F70E94DE0A8091E800A1
:101EE00083FF1CC12091ED013091EE01832F90E022
:101EF0008A30910508F012C1FC01EC59FF4F0C9497
:101F00001025203881F0223809F008C18091F101B4
:101F10008F708093E9008091EB0085FB882780F922
:101F20001092E90006C08091E9019091EA019111B7
:101F300082609091E800977F9093E8008093F10091
:101F40001092F100C5C0822F8D7F09F0E7C02223D7
:101F500019F0223061F0E2C08091EF01813009F088
:101F6000DDC0333009F080E08093EA0128C0809121
:101F7000EF01811124C02091F1012F7009F4CEC02E
:101F80002093E9008091EB0080FF19C08091EB0065
:101F9000333011F4806211C080618093EB0081E0E6
:101FA00090E0022E01C0880F0A94EAF78093EA00BD
:101FB0001092EA008091EB0088608093EB00109211
:101FC000E9008091E800877F86C02111A7C01091A9
:101FD000EF011F778091E3008078812B8093E300ED
:101FE0008091E800877F8093E8000E947E0D8091B9
:101FF000E80080FFFCCF8091E30080688093E300DD
:10200000112311F083E001C082E08093EC0186C0CF
:102010002058223008F082C08091EF019091F001A9
:102020008C3D23E0920779F583E08A838AE28983F5
:102030004FB7F894DE01139620E03EE051E2E32F23
:10204000F0E050935700E49120FF03C0E295EF7059
:102050003F5FEF708E2F90E0EA3010F0C79601C01E
:10206000C0968D939D932F5F243149F74FBF809188
:10207000E800877F8093E8006AE270E0CE01019675
:102080000E94860C14C0AE014F5F5F4F6091F1015A
:102090000E94CE0B009709F441C02091E800277FF1
:1020A0002093E800BC0189819A810E94E70C80910D
:1020B000E8008B778093E80031C0203879F5809173
:1020C000E800877F8093E8008091E8018093F10029
:1020D0008091E8008E778093E8000E947E0D1EC0FC
:1020E00021111CC09091EF019230C0F48091E80062
:1020F000877F8093E8009093E8010E947E0D809195
:10210000E801811104C08091E30087FF02C084E0F0
:1021100001C081E08093EC010E94CA0A8091E8002E
:1021200083FF0AC08091E800877F8093E800809158
:10213000EB0080628093EB00AA960FB6F894DEBFA6
:102140000FBECDBFDF91CF911F9108950895CF931A
:102150008091EC018823B1F08091E9008F7090911B
:10216000EC0090FF02C090E801C090E0C92FC82B9E
:102170001092E9008091E80083FD0E94580FCF7013
:10218000C093E900CF9108959093710180937001FD
:102190000895E0917001F0917101309721F0019064
:1021A000F081E02D099480E00895E0917001F091B4
:1021B0007101309721F00280F381E02D0994089598
:1021C000E0917001F0917101309721F00480F58168
:1021D000E02D0994089520916E0130916F018217CE
:1021E000930771F090936F0180936E01E0917001FD
:1021F000F0917101309721F00680F781E02D09946C
:10220000089520916C0130916D018217930771F050
:1022100090936D0180936C01E0917001F0917101D8
:10222000309721F00084F185E02D099408950895F8
:102230000C9417110E94011D0E94EA050C94C71D01
:10224000CF92DF92EF92FF920F931F93CF93DF9382
:10225000CDB7DEB72B970FB6F894DEBF0FBECDBF5C
:102260000E94020633E7E32E31E0F32E00E010E097
:10227000C02E802F0E94EF06F701D1907F01D82653
:10228000B1F40F5F1F4F0E30110591F78FEF898367
:102290008A831B820E940A1D8160782F9D838C8314
:1022A00049815A816B818D810E94C31141C09091F7
:1022B000D50191FF04C08B870E94F5068B8520E035
:1022C00030E04D2D50E0922FBA01022E02C07595DC
:1022D00067950A94E2F760FF25C02E83CF82EE2433
:1022E000E394F12C02C0EE0CFF1C9A95E2F790E00B
:1022F0008E219F2121E0892B09F420E028870E946C
:102300000A1D8160782F9A8789874E815F81688551
:102310008A850E94C311F801ED58FE4F80818E25F9
:10232000808306C02F5F3F4F2630310561F6A9CF6D
:102330000E94AB20109172010E94C9101817A1F0E1
:102340000E94C910809372012B960FB6F894DEBFDD
:102350000FBECDBFDF91CF911F910F91FF90EF90F6
:10236000DF90CF900C94CE092B960FB6F894DEBF79
:102370000FBECDBFDF91CF911F910F91FF90EF90D6
:10238000DF90CF900895CF93DF93CDB7DEB72B9733
:102390000FB6F894DEBF0FBECDBF4F835887698755
:1023A0007A878B87DE01119686E0FD0111928A956E
:1023B000E9F785E0FE01379601900D928A95E1F7E5
:1023C00049815A816B817C818D819E810E9418197F
:1023D0002B960FB6F894DEBF0FBECDBFDF91CF9125
:1023E00008950895CF93C82F882309F4C1C0823877
:1023F00059F40E94C91081FDBBC089E30E94C21B31
:102400000E948C1C89E30CC0833879F40E94C910A7
:1024100080FDAEC083E50E94C21B0E948C1C83E538
:102420000E94021CCF910C948C1C843859F40E9499
:10243000C91082FD9DC087E40E94C21B0E948C1CB3
:1024400087E4EECF8CEF8C0F813A48F48C2F0E94FA
:10245000DE2281118DC08C2F0E94C21BE3CF80E24F
:102460008C0F883048F4C77081E001C0880FCA958E
:10247000EAF70E94431CD6CF8BE58C0F833078F4AB
:10248000C53A29F0C63A31F482E890E005C081E807
:1024900090E002C083E890E0CF910C94EB1088E5C7
:1024A0008C0F833108F064C0C83A39F1C93A41F160
:1024B000CA3A49F1CB3A51F1CC3A59F1CD3A61F1EE
:1024C000C03B69F1CE3A71F1CF3A79F1C13B81F16C
:1024D000C23B89F1C33B91F1C43B99F1C53BA1F1EA
:1024E000C63BA9F1C73BB1F1C83BB9F1C93BC1F14A
:1024F000CA3BC9F58AE292E038C082EE90E035C06E
:1025000089EE90E032C08AEE90E02FC085EB90E03B
:102510002CC086EB90E029C087EB90E026C08CECC5
:1025200090E023C08DEC90E020C083E891E01DC0D6
:102530008AE891E01AC082E991E017C084E991E04D
:1025400014C081E292E011C083E292E00EC084E206
:1025500092E00BC085E292E008C086E292E005C0FE
:1025600087E292E002C080E090E0CF910C940111EC
:10257000CF910895882309F44BC0823859F40E9402
:10258000C91081FF45C089E30E94C21B0E948C1CB8
:1025900089E30CC0833871F40E94C91080FF38C0F1
:1025A00083E50E94C21B0E948C1C83E50E94021CD2
:1025B0000C948C1C843859F40E94C91082FF28C0E6
:1025C00087E40E94C21B0E948C1C87E4EFCF9CEF23
:1025D000980F913A58F390E2980F983050F4877022
:1025E00091E001C0990F8A95EAF7892F0E94491C52
:1025F000DFCF9BE5980F933020F480E090E00C94BF
:10260000EB10885A833120F480E090E00C940111A3
:102610000895882321F00E94431C0C948C1C08957B
:10262000882321F00E94491C0C948C1C0895CF92A1
:10263000DF92EF92FF920F931F93CF93DF93CDB76B
:10264000DEB728970FB6F894DEBF0FBECDBF8C0162
:1026500085E0F801DE01119601900D928A95E1F76F
:10266000F801D080E180F280558152955F7023811E
:102670003481232B39F0FFEFEF1206C081E0DF1227
:1026800003C003C081E001C080E080FDE2C2C80158
:102690005F830E94F111D982EA8269817A818F2D4C
:1026A0000E94BE1B9E8388870E94721B0E94451A4F
:1026B0004E815F816885FF2029F00E94601C68853B
:1026C0005F814E81E42FE295EF70F0E0E259FF4F19
:1026D0000C941025842F807F142F1F70882311F0F5
:1026E0001295107FFF20B1F0112309F467C280E238
:1026F000860F883028F4812F68870E94431C04C00D
:10270000812F68870E94531C688568870E948C1CF3
:10271000688554C2862F68870E94BA126885112383
:1027200009F497C2605E812F683018F40E94491C3A
:1027300002C00E94591C28960FB6F894DEBF0FBE47
:10274000CDBFDF91CF911F910F91FF90EF90DF9060
:10275000CF900C948C1C242F207F842F8F702032DC
:1027600011F08295807F662319F0613019F12BC03A
:10277000FF20B1F0552309F493C1513009F090C105
:1027800028960FB6F894DEBF0FBECDBFDF91CF9174
:102790001F910F91FF90EF90DF90CF900C94731CDE
:1027A000552319F0513009F454C28E830E94761CCF
:1027B0008E8189C1FF2021F0523008F04AC270C1D9
:1027C000511147C280C1FF2021F0552309F468C18F
:1027D000F5C1552309F477C105C2242F2695269506
:1027E000237030E02115310521F021303105C9F089
:1027F00030C2FF2021F0862F942F937002C080E01A
:1028000090E028960FB6F894DEBF0FBECDBFDF91E3
:10281000CF911F910F91FF90EF90DF90CF900C948C
:10282000EB10FF2021F0862F942F937002C080E0E0
:1028300090E028960FB6F894DEBF0FBECDBFDF91B3
:10284000CF911F910F91FF90EF90DF90CF900C945C
:102850000111862FFF2019F00E94B31F02C00E94B1
:102860001B2028960FB6F894DEBF0FBECDBFDF91B8
:10287000CF911F910F91FF90EF90DF90CF900C942C
:10288000A020842F837009F076C0F110E2C1262FBA
:10289000229526952770220F220F862F8F70C82E23
:1028A000D12CE12CF12C022E04C0CC0CDD1CEE1C32
:1028B000FF1C0A94D2F764FF10C06FE070E080E064
:1028C00090E004C0660F771F881F991F2A95D2F7E2
:1028D000609570958095909503C060E070E0CB01A5
:1028E000242F269526952370422F50E04230510523
:1028F000D1F04330510559F16C297D298E299F294A
:102900004130510541F128960FB6F894DEBF0FBE55
:10291000CDBFDF91CF911F910F91FF90EF90DF908E
:10292000CF900C946A1A6C297D298E299F292896AC
:102930000FB6F894DEBF0FBECDBFDF91CF911F91D0
:102940000F91FF90EF90DF90CF900C94841A0E942B
:102950006A1AC701B60128960FB6F894DEBF0FBEFB
:10296000CDBFDF91CF911F910F91FF90EF90DF903E
:10297000CF900C94501AFF2019F0842F817001C061
:102980008695882309F465C1262F22952695277000
:10299000220F220F862F8F70C82ED12CE12CF12C04
:1029A000022E04C0CC0CDD1CEE1CFF1C0A94D2F7D6
:1029B00064FF10C06FE070E080E090E004C0660F3C
:1029C000771F881F991F2A95D2F76095709580957B
:1029D000909503C060E070E0CB01242F26952695EA
:1029E0002370422F50E042305105D1F04330510561
:1029F00059F16C297D298E299F294130510541F1DA
:102A000028960FB6F894DEBF0FBECDBFDF91CF91F1
:102A10001F910F91FF90EF90DF90CF900C943E1B91
:102A20006C297D298E299F2928960FB6F894DEBF40
:102A30000FBECDBFDF91CF911F910F91FF90EF900F
:102A4000DF90CF900C94581B0E943E1BC701B6012B
:102A500028960FB6F894DEBF0FBECDBFDF91CF91A1
:102A60001F910F91FF90EF90DF90CF900C94241B5B
:102A7000603FC9F118F4603E50F49BC0623F09F416
:102A800060C008F44AC0633F09F46FC092C0162FBB
:102A90001F70842F8F71FF2099F00E94BD1A812F23
:102AA00028960FB6F894DEBF0FBECDBFDF91CF9151
:102AB0001F910F91FF90EF90DF90CF900C9409132E
:102AC0000E94DE1A812F28960FB6F894DEBF0FBE43
:102AD000CDBFDF91CF911F910F91FF90EF90DF90CD
:102AE000CF900C941013FF20A1F05111B2C0842F8D
:102AF0008F7128960FB6F894DEBF0FBECDBFDF9161
:102B0000CF911F910F91FF90EF90DF90CF900C9499
:102B1000031B523008F09DC0EACFFF20A1F0842FA4
:102B20008F7128960FB6F894DEBF0FBECDBFDF9130
:102B3000CF911F910F91FF90EF90DF90CF900C9469
:102B4000BD1AFF2061F3842F8F7128960FB6F89479
:102B5000DEBF0FBECDBFDF91CF911F910F91FF90D0
:102B6000EF90DF90CF900C94DE1AFF2091F0842F2D
:102B70008F7128960FB6F894DEBF0FBECDBFDF91E0
:102B8000CF911F910F91FF90EF90DF90CF900C9419
:102B9000A81A28960FB6F894DEBF0FBECDBFDF91FE
:102BA000CF911F910F91FF90EF90DF90CF900C94F9
:102BB0009E1AFF20A1F0552309F4B1CF862F289645
:102BC0000FB6F894DEBF0FBECDBFDF91CF911F913E
:102BD0000F91FF90EF90DF90CF900C94F21155235E
:102BE00009F4B1CF862F28960FB6F894DEBF0FBE3A
:102BF000CDBFDF91CF911F910F91FF90EF90DF90AC
:102C0000CF900C94BA124F70C8010E941D032896F1
:102C10000FB6F894DEBF0FBECDBFDF91CF911F91ED
:102C20000F91FF90EF90DF90CF900C94C5194F70EB
:102C3000C80128960FB6F894DEBF0FBECDBFDF9156
:102C4000CF911F910F91FF90EF90DF90CF900C9458
:102C5000F60628960FB6F894DEBF0FBECDBFDF9103
:102C6000CF911F910F91FF90EF90DF90CF9008953B
:102C70000E94601C0E94701C0E94351C0E948C1CCB
:102C80000E944C210E94A02080E090E00E94EB1066
:102C900080E090E00C9401110E94501C0C943816B6
:102CA0000E94B31B292F22952F7030E02C30310564
:102CB0004CF42A3031056CF42250310922303105B0
:102CC00090F407C02C30310551F02F30310539F028
:102CD0000AC0803E10F0803F31F481E0089593FBFC
:102CE000882780F9089580E00895CF93DF9300D07E
:102CF00000D01F92CDB7DEB70F900F900F900F90BE
:102D00000F90DF91CF910895CF93DF9300D000D043
:102D100000D0CDB7DEB726960FB6F894DEBF0FBE53
:102D2000CDBFDF91CF9108951F93CF93DF93C091D3
:102D3000810116E080918201C81799F0D0E01C9FB4
:102D4000F0011D9FF00D1124ED57FE4F4081518180
:102D500062817381848195810E9484162196C77057
:102D6000E9CFDF91CF911F9108954091B301509128
:102D7000B4016091B5017091B6018091B701909155
:102D8000B8010C948416CF938091B80182958F700E
:102D900009F05FC08091B501882309F45AC02091E1
:102DA0008101A09182016091B3017091B401809181
:102DB000B6019091B70131E06F3F09F030E0B32FD9
:102DC000C6E02A1709F445C0009721F07F3F21F49F
:102DD0004B2F03C041E001C040E030E040FD35C072
:102DE000C29FF001C39FF00D1124ED57FE4F4181AA
:102DF00074132BC04081641328C04281411125C047
:102E0000438154814817590710F441505109481B18
:102E1000590B483C5105C8F48091B8018F7080610E
:102E20008093B80186E0829FF001839FF00D11240A
:102E3000E857FE4F80818F708061808383EB91E043
:102E40000E941713CF910C9494162F5F3F4F277059
:102E5000B8CFCF910895CF92DF92EF92FF920F9368
:102E60001F93CF93DF93CDB7DEB762970FB6F89479
:102E7000DEBF0FBECDBF8C0185E0F801DE011D96DF
:102E800001900D928A95E1F7D8014C9111965C91D1
:102E9000119712966C9112971396ED90FC901497DF
:102EA0007091B301E091B4012091B6013091B70166
:102EB0002115310531F0EF3F31F481E07F3F19F406
:102EC00003C081E001C080E0B82FB170CB2E80FD3F
:102ED0006CC1D090B501DD2009F4F5C0F091B801C6
:102EE000E216F30638F0C701821B930B883C91056C
:102EF00048F09BC0209530952E0D3F1D283C310594
:102F000008F093C08F2F807F09F052C0E51314C0E2
:102F1000741312C0D62E61110FC0FF70F061F093D0
:102F2000B8010E94B51683EB91E00E9417138091BF
:102F3000B801F80185836CC1EF2831F05F3F31F4AF
:102F400081E04F3F19F403C081E001C080E080FDC3
:102F500003C081E0862701C080E0F82FF170FF2ECA
:102F600080FF1CC0809181012091820136E0821790
:102F700009F428C190E0389FF001399FF00D112429
:102F8000ED57FE4F7181571306C07081471303C080
:102F90007281671303C001968770E9CFD62E66232E
:102FA00009F436C18091B80181608093B80153C0A3
:102FB000E51308C0741306C0611104C0D80115964A
:102FC000FC93AEC04D875E878D859E856A8B0E947F
:102FD00050166A89882329F1D62E662311F1209193
:102FE000B801822F82958F7090E002970CF460C038
:102FF0008091B3019091B40198878F831986FB86E5
:10300000EA862C87CE01079651C0E51731F14D872E
:103010005E878D859E856A8B0E9450166A89811114
:103020002EC0C8010E941713A4C08F2F807F69F79C
:103030007E2DF98AE88A89890E94751683EB91E0D2
:103040000E941713E3EBF1E086E0DF011D928A9501
:10305000E9F70E94B516D12CDBC07413D8CF6111EB
:10306000D6CFD8011596FC93C8010E941713E3EB45
:10307000F1E086E0DF011D928A95E9F7C9C0D62EFE
:10308000662379F22091B801822F82958F7090E0AB
:10309000029774F08091B3019091B4019A8389836F
:1030A0001B82FD82EC822E83CE0101960E941713B3
:1030B00086E0F801A3EBB1E001900D928A95E1F76B
:1030C0000E94C3166FC0E216F30628F0C701821BE8
:1030D000930B9C0104C0209530952E0D3F1D283C7C
:1030E000310508F052C0D62E662309F49ACFE513B5
:1030F0002CC074132AC08091B80180FD1DC0982F88
:1031000092959F70C9F0D80115968C9315979F30B2
:1031100039F09F5F9295907F8F70892B15968C93D5
:10312000C8010E94171386E0F801A3EBB1E00190FB
:103130000D928A95E1F736C086E0F801A3EBB1E085
:1031400001900D928A95E1F763C04D875E878D856A
:103150009E850E945016882379F086E0F801A3EB43
:10316000B1E001900D928A95E1F70E94C3160E948A
:10317000B516DD24D3944CC08091B8018160809352
:10318000B801C8010E94171343C07E2DF98AE88A4E
:1031900089890E947516E3EBF1E086E0DF011D925C
:1031A0008A95E9F70E94B51633C0662309F439CF32
:1031B0004D875E878D859E850E945016882309F471
:1031C00030CFCBCF4D875E878D859E850E94B31B08
:1031D000292F22952F7030E0223031052CF49F707A
:1031E00041F0811106C00CC0243031052CF49F70D1
:1031F00049F4805E883020F0C8010E941713CF2C5C
:10320000DC2C06C0D80115969C91907F91F7F8CFE1
:103210008D2D62960FB6F894DEBF0FBECDBFDF9145
:10322000CF911F910F91FF90EF90DF90CF90089575
:103230001F93CF93DF93CDB7DEB72C970FB6F894DB
:10324000DEBF0FBECDBF4F83588769877A878B87D4
:103250009C87CE0107960E942B178823C1F02F81EF
:1032600038858A859B85892B31F03F3F11F080E0BE
:1032700003C02F3FE1F781E0811147C04F8158859E
:1032800069857A858B859C850E9484163EC086E080
:10329000FE013796DE01119601900D928A95E1F7B5
:1032A000FF81E8854A855B854115510531F0EF3F87
:1032B00031F481E0FF3F19F403C081E001C080E0F8
:1032C00080FD23C02091820130E0C9010196877002
:1032D00099276091810170E086179707F1F1F983D2
:1032E000EA835D834C8396E0929FD001939FB00D5B
:1032F0001124AD57BE4FFE01319601900D929A9563
:10330000E1F7809382010E94941616E0809181017A
:1033100090918201891779F1189FC00111248D576E
:103320009E4F0E942B17882331F1E09181011E9F4F
:10333000F0011124ED57FE4F40815181628173816C
:10334000848195810E9484168091810190E001968C
:103350008770992780938101D9CF0E944C161092D3
:10336000820110928101E3EBF1E086E0DF011D9222
:103370008A95E9F7CACF2C960FB6F894DEBF0FBE38
:10338000CDBFDF91CF911F910895EF92FF920F93E0
:103390001F93CF93DF93FC01009709F46FC0F12CCA
:1033A000EE24E394EF0121968491843740F4843035
:1033B00008F055C0813081F0823021F15FC085373F
:1033C00009F447C0C0F19CE7980F903708F056C049
:1033D0008F770E94BA1245C08F010E5F1F4FFE010A
:1033E000849190E2980F983050F48770FE2D01C0C0
:1033F000FF0F8A95EAF78F2F0E94631C15C00E9469
:10340000F21114C08F010E5F1F4FFE01849190E2F4
:10341000980F983068F48770FE2D01C0FF0F8A95D1
:10342000EAF78F2F0E94691C0E948C1CE80119C0CA
:103430000E94BA12FBCFCF010296FE01C491CC23A9
:1034400061F0EFE9FFE03197F1F700C00000C150F3
:10345000F6CFCF010296FE01F490EC0102C00E946B
:10346000F2118F2D882341F0EFE9FFE03197F1F75A
:1034700000C000008150F6CFFE0194CFDF91CF91C4
:103480001F910F91FF90EF90089508956093BD01F3
:103490007093BE018093BF019093C0010C943816C5
:1034A0000F931F930091BD011091BE012091BF01A8
:1034B0003091C001062B172B282B392B0093BD010F
:1034C0001093BE012093BF013093C0011F910F9153
:1034D0000C9438160F931F930091BD011091BE01FB
:1034E0002091BF013091C0010623172328233923DF
:1034F0000093BD011093BE012093BF013093C00122
:103500001F910F910C9438160F931F930091BD01DA
:103510001091BE012091BF013091C00106271727ED
:10352000282739270093BD011093BE012093BF01C6
:103530003093C0011F910F910C9438161092B9016D
:103540001092BA011092BB011092BC010C94381673
:1035500041E050E060E070E004C0440F551F661F7A
:10356000771F8A95D2F74093B9015093BA016093BF
:10357000BB017093BC010C94381641E050E060E050
:1035800070E004C0440F551F661F771F8A95D2F75D
:103590008091B9019091BA01A091BB01B091BC0199
:1035A000842B952BA62BB72B8093B9019093BA014E
:1035B000A093BB01B093BC010C94381641E050E0DD
:1035C00060E070E004C0440F551F661F771F8A95A6
:1035D000D2F740955095609570958091B901909182
:1035E000BA01A091BB01B091BC0184239523A6230D
:1035F000B7238093B9019093BA01A093BB01B09314
:10360000BC010C94381641E050E060E070E004C06A
:10361000440F551F661F771F8A95D2F78091B90115
:103620009091BA01A091BB01B091BC01842795276C
:10363000A627B7278093B9019093BA01A093BB0145
:10364000B093BC010C9438160F931F930091B901ED
:103650001091BA012091BB013091BC01062B172BB0
:10366000282B392B0093B9011093BA012093BB0189
:103670003093BC011F910F910C9438160F931F9338
:103680000091B9011091BA012091BB013091BC01A8
:1036900006231723282339230093B9011093BA0175
:1036A0002093BB013093BC011F910F910C943816ED
:1036B0000F931F930091B9011091BA012091BB01A2
:1036C0003091BC0106271727282739270093B90115
:1036D0001093BA012093BB013093BC011F910F914D
:1036E0000C9438160895CF92DF92EF92FF920F93C9
:1036F0001F93CF93DF93EC01C090BD01D090BE012A
:10370000E090BF01F090C0018091B9019091BA01A1
:10371000A091BB01B091BC01C82AD92AEA2AFB2A90
:103720000FE110E0B701A601002E04C07695679561
:10373000579547950A94D2F740FD05C001501109ED
:1037400088F780E007C0BE01802F0E9433090197EF
:10375000A9F3802FDF91CF911F910F91FF90EF90F0
:10376000DF90CF900895CF93DF93EC010E94731BFD
:10377000BE010E943309DF91CF910895CB010E94D1
:10378000B31B089590910C019923D9F090910D01EC
:103790009923B9F0982F9695969596959F3088F530
:1037A000E0910E01F0910F01E90FF11D877021E00A
:1037B00030E001C0220F8A95EAF78181822B818354
:1037C000089540910E0150910F0120E030E09FEFED
:1037D000FA01E20FF31F6281681799F09F3F19F415
:1037E000611101C0922F2F5F3F4F2E30310581F7BD
:1037F0009F3F39F0FA01E90FF11D97FDFA95828399
:103800000895089590910C019923E1F090910D0194
:103810009923C1F0982F9695969596959F3020F50F
:10382000E0910E01F0910F01E90FF11D877021E089
:1038300030E001C0220F8A95EAF720958181282384
:103840002183089540910E0150910F0120E030E056
:10385000FA01E20FF31F9281981301C012822F5FC9
:103860003F4F2E303105A1F7089581E090E0E091BF
:103870000E01F0910F01E80FF91F108201968031BF
:103880009105A9F708959091D401982B9093D401B4
:10389000089580959091D40198239093D401089530
:1038A0001092D40108959091D301982B9093D30155
:1038B000089580959091D30198239093D301089512
:1038C0001092D30108959091D201982B9093D20138
:1038D000089580959091D20198239093D2010895F4
:1038E0001092D20108958093C10108951092C101F0
:1038F000089540910E0150910F0120E030E080E0EA
:10390000FA01E20FF31F918191118F5F2F5F3F4FFB
:103910002F303105A9F70895E0910E01F0910F01C4
:103920008091D4018083E0910E01F0910F0180819C
:103930009091D301892B8083E0910E01F0910F01CA
:1039400080819091D201892B80839091C10199232C
:1039500061F0E0910E01F0910F018081892B80834D
:103960000E94791C81111092C10180910E019091E9
:103970000F010C94D5108091EC01843021F110924C
:10398000D60120E488E190E00FB6F894A8958093E2
:1039900060000FBE2093600080E00E94CE0983B7D4
:1039A000817F846083BF83B7816083BF789488956B
:1039B00083B78E7F83BF88E10FB6F8948093600051
:1039C000109260000FBE089508950895CF930E944D
:1039D000E41C0E9402060E94E51CC0E08C2F0E949D
:1039E000EF06811105C0CF5FCE30C1F780E001C086
:1039F00081E0CF9108950E944C160E94C9100C944A
:103A0000CE0982E084BD93E095BD9AEF97BD809387
:103A10006E0008952FB7F8948091D7019091D80146
:103A2000A091D901B091DA012FBF0895CF92DF9212
:103A3000EF92FF920F931F932FB7F8944091D70105
:103A40005091D8016091D9017091DA012FBF6A01BC
:103A50007B01EE24FF248C0120E030E0C016D1066B
:103A6000E206F30610F441505109481B590BCA01F4
:103A70001F910F91FF90EF90DF90CF9008951F92CC
:103A80000F920FB60F9211248F939F93AF93BF9312
:103A90008091D7019091D801A091D901B091DA011C
:103AA0000196A11DB11D8093D7019093D801A093D9
:103AB000D901B093DA01BF91AF919F918F910F908F
:103AC0000FBE0F901F9018950E94CF0DF8942FEF06
:103AD00087EA91E6215080409040E1F700C0000065
:103AE00087E090EBDC018093F6019093F701A093BF
:103AF000F801B093F9012CE088E190E00FB6F8945A
:103B0000A895809360000FBE20936000FFCFEF92D6
:103B1000FF920F931F93CF93DF93E82EF12C8F2DFD
:103B20000E94EF06C0E0D0E0082F10E098010C2EB4
:103B300002C0359527950A94E2F720FD05C021962D
:103B4000C630D10599F709C06C2F7F2D80E00E9407
:103B5000F706E812F4CF81E005C0F3948EE0F81286
:103B6000DECF80E0DF91CF911F910F91FF90EF901A
:103B70000895CF93C82F8CE20E94871D882321F0DF
:103B80008C2FCF910C94871D80E0CF910895CF9317
:103B90000E940C1F811102C00E94F21EC5E6C15096
:103BA00049F00E9402068FE39CE90197F1F700C0FB
:103BB0000000F5CF89E20E94B91D811111C18AE28E
:103BC0000E94B91D81110E94F21E85E00E94B91D5C
:103BD00081110E94641D0E94171F8093D50187E008
:103BE0000E94B91D882399F18BE10E94B91D882399
:103BF00051F09091D50191FB882780F921E082272F
:103C000080FB91F922C08EE00E94B91D882351F0FB
:103C10009091D50192FB882780F921E0822780FBD3
:103C200092F913C080E10E94B91D9091D5018823BB
:103C300041F093FB882780F921E0822780FB93F9EC
:103C400004C0892F809580FB90F99093D5018091D5
:103C5000D5010E941B1F0E94291F8093F50180EE51
:103C60000E94B91D882341F08091F501982F90950D
:103C700090FB80F98093F50189E30E94B91D8823A8
:103C800059F09091F50191FB882780F921E0822776
:103C900080FB91F99093F50182EE0E94B91D882373
:103CA00059F09091F50192FB882780F921E0822755
:103CB00080FB92F99093F50186EE0E94B91D88234E
:103CC00059F09091F50193FB882780F921E0822734
:103CD00080FB93F99093F50183EE0E94B91D882330
:103CE00059F09091F50194FB882780F921E0822713
:103CF00080FB94F99093F50185E30E94B91D882318
:103D000059F09091F50195FB882780F921E08227F1
:103D100080FB95F99093F50181E30E94B91D8823FA
:103D200059F09091F50196FB882780F921E08227D0
:103D300080FB96F99093F50181E10E94B91D8823DB
:103D400059F09091F50197FB882780F921E08227AF
:103D500080FB97F99093F5018091F5010E942D1F4A
:103D60008091F50187FB882780F980930D0187E218
:103D70000E94B91DC82F8EE10E94B91D8111C26039
:103D80008FE10E94B91D8111C46080E20E94B91DBB
:103D90008111C86081E20E94B91D8111C06182E277
:103DA0000E94B91D8111C06283E20E94B91D811178
:103DB000C06484E20E94B91D882311F0C06802C06B
:103DC000CC2329F08C2F0E94241F6C2F03C00E944B
:103DD000201F682F70E080E090E0CF910C94461A8D
:103DE000CF9108956DEE7EEF80E090E00E944A252D
:103DF00060E082E090E00E94382560E083E090E09F
:103E00000E94382560E084E090E00E94382560E060
:103E100085E090E00C94382580E090E00E94322507
:103E200021E08D3E9E4F09F020E0822F089582E030
:103E300090E00C942A25682F82E090E00C943825BD
:103E400083E090E00C942A25682F83E090E00C94A6
:103E5000382584E090E00C942A25682F84E090E0D7
:103E60000C9438258091DD0180FF0BC06091130117
:103E700085E0689FB00111247595679575956795E4
:103E80002AC081FF09C06091130185E0689FB001DD
:103E90001124759567951FC082FF07C060911301BB
:103EA00085E0689FB001112416C04091DE014423D3
:103EB000C9F060911201461788F72091130185E03F
:103EC000289F90011124429FC001439F900D11240F
:103ED00070E00E94FC246038710540F461157105A2
:103EE00039F002C065E070E0862F08958FE70895ED
:103EF00081E008958091DD0180FF08C0609111018B
:103F000070E0759567957595679521C081FF06C02E
:103F10006091110170E07595679519C082FF04C02A
:103F20006091110170E010C08091DE018823C1F022
:103F3000609110018617A0F790911101989FC00120
:103F4000112470E00E94FC246038710528F461158A
:103F5000710521F0862F08958FE7089581E0089577
:103F600061E070E0F4CF803F21F40E94321F819520
:103F700004C0813F29F40E94321F8093E10108951B
:103F8000823F21F40E94321F819504C0833F29F4AF
:103F90000E94321F8093E0010895893F19F40E9426
:103FA0007A1F05C08A3F31F40E947A1F8195809361
:103FB000E20108958B3F21F40E947A1F819504C08D
:103FC0008C3F29F40E947A1F8093E3010895843F77
:103FD00021F48091DF01816017C0853F21F4809139
:103FE000DF01826011C0863F21F48091DF0184608F
:103FF0000BC0873F21F48091DF01886005C0883FB6
:1040000031F48091DF0180618093DF0108958D3F5D
:1040100021F48091DD0181600BC08E3F21F48091FD
:10402000DD01826005C08F3F29F48091DD0184604D
:104030008093DD010895803F39F48091E10187FF8D
:104040006CC01092E10169C0813F29F48091E101C7
:104050001816BCF362C09091E001823F29F497FFEB
:104060005CC01092E00159C0833F19F41916CCF3DB
:1040700054C0893F41F48091E20118160CF04DC004
:104080001092E2014AC08A3F29F48091E20187FF41
:1040900044C0F6CF8B3F39F48091E30187FF3DC0E8
:1040A0001092E3013AC08C3F29F48091E301181685
:1040B000BCF333C0843F21F48091DF018E7F17C0B1
:1040C000853F21F48091DF018D7F11C0863F21F46F
:1040D0008091DF018B7F0BC0873F21F48091DF014E
:1040E000877F05C0883F31F48091DF018F7E809308
:1040F000DF0113C08D3F21F48091DD018E7F0BC065
:104100008E3F21F48091DD018D7F05C08F3F29F422
:104110008091DD018B7F8093DD018091E001811131
:104120000EC08091E10181110AC08091E2018111EC
:1041300006C08091E301811102C01092DE01089552
:104140008FED91E00E94E0100E940A1D9093DC0127
:104150008093DB0108951F93CF93DF938091DB0160
:104160009091DC010E94161D4091DE01442321F054
:104170002091140130E006C0209115015AE0259FDE
:10418000900111248217930708F482C08091E00106
:104190001091E101D091E201C091E301811107C0CA
:1041A000111105C0D11103C0CC2309F471C04F3FD8
:1041B00019F04F5F4093DE01181624F40E94321F5D
:1041C0008093E0018091E00187FF05C00E94321FCB
:1041D00081958093E001111624F40E94321F809390
:1041E000E1018091E10187FF05C00E94321F8195A6
:1041F0008093E1016091E001662339F11091E101C2
:10420000112319F1772767FD7095872F972F0E944B
:104210000D2423E333E343E35FE30E9471240E9410
:10422000DA236093E001612F772767FD7095872F70
:10423000972F0E940D2423E333E343E35FE30E94BF
:1042400071240E94DA236093E1011D1624F40E9478
:104250007A1F8093E2018091E20187FF05C00E94EE
:104260007A1F81958093E2011C1624F40E947A1F24
:104270008093E3018091E30187FF05C00E947A1FCC
:1042800081958093E301DF91CF911F910C94A02041
:10429000DF91CF911F910895EFEDF1E085E0DF010F
:1042A0001D928A95E9F71092DE011092DD010895C2
:1042B000833081F128F4813059F08230D1F00895B3
:1042C000853009F449C0B8F1863009F456C0089524
:1042D00020911501862F90E0820F911D8F3F91054F
:1042E00020F4620F6093150108958FEF80931501FC
:1042F000089520911401862F90E0820F911D8F3F29
:10430000910520F4620F6093140108958FEF80935C
:104310001401089520911301862F90E0820F911DC2
:104320008F3F910520F4620F6093130108958FEF82
:1043300080931301089520911201862F90E0820F3F
:10434000911D8F3F910520F4620F60931201089533
:104350008FEF80931201089520911101862F90E034
:10436000820F911D8F3F910520F4620F6093110120
:1043700008958FEF80931101089520911001862FE9
:1043800090E0820F911D8F3F910520F4620F6093A2
:10439000100108958FEF809310010895833011F17B
:1043A00028F4813049F0823091F00895853081F110
:1043B00020F18630C1F1089580911501681720F42D
:1043C000861B809315010895109215010895809120
:1043D0001401681720F4861B80931401089510922D
:1043E0001401089580911301681720F4861B8093AF
:1043F0001301089510921301089580911201681716
:1044000020F4861B809312010895109212010895E2
:1044100080911101681720F4861B80931101089583
:1044200010921101089580911001681720F4861BE5
:104430008093100108951092100108958D3109F4B0
:1044400042C020F58E3009F477C070F4873009F44B
:1044500059C018F48630F1F134C0883009F4A8C08E
:104460008B3009F4A5C02DC0863109F4A1C038F401
:10447000803109F472C0813109F479C022C08931D8
:1044800009F496C08B3109F44DC01BC0853309F483
:1044900087C048F4873209F483C008F473C08932B6
:1044A00009F47EC00EC0833438F48A3308F068C043
:1044B000883309F47DC005C0833409F471C08834A1
:1044C00099F080E008950E9494230E94C9100E94F0
:1044D000CE096EC08091D501817F8E7F8093D501FA
:1044E00081E08093E50108950E944C162FEF83ED43
:1044F00090E3215080409040E1F700C000000E940E
:10450000641D56C09091D501892F8095817080FBE4
:1045100090F919F0966098601DC0997F977F9093ED
:10452000D50146C09091D50191FB882780F921E003
:10453000822780FB91F909C09091D50192FB8827D1
:1045400080F921E0822780FB92F99093D50188239E
:1045500079F191609093D50108959091D50193FBE5
:10456000882780F921E0822780FB93F9EECF0E9413
:104570004C1680910D0191E0892780930D0118C0A0
:1045800027EC01C023EE280F61E070E080E090E0AE
:1045900004C0660F771F881F991F2A95D2F704C0A1
:1045A00061E070E080E090E00E94461A0E944C16A4
:1045B00081E0089580E0089580E00895CF93C82FAA
:1045C0008091E501813079F018F08230D1F184C01A
:1045D000A0910E01B0910F018C91813169F082326E
:1045E00009F07CC009C0A0910E01B0910F018C911F
:1045F000813111F0823249F48C2F0E94DA2281112C
:104600001DC08C2F0E941E221AC08C2F0E94DC22FB
:10461000811114C0C43179F048F4CB3079F0C03145
:1046200009F060C082E08093E50108C0C93219F04A
:10463000C83321F057C01092E50154C081E0817069
:1046400053C0C93289F118F5C43171F1A8F4C730EB
:1046500009F046C08AE08093150194E1909314011B
:1046600093E0909313018093120188E080931101ED
:1046700088E28093100134C0CE51C63088F5EC2F0B
:10468000F0E0E65DFE4F80818093E40129C0CE34E6
:10469000E9F020F4CB3421F56AE013C0C13579F09C
:1046A000C235F1F461E00DC08091E401882319F076
:1046B0001092E40115C081E08093E50115C061E02E
:1046C00006C08091E4010E9458210AC06AE08091EE
:1046D000E4010E94CE2104C01092E50180E004C0F4
:1046E00081E002C080E0ABCFCF910895E1E8F0E037
:1046F0008081886080838081816080838FB7F89417
:1047000093E09093890090ED909388008FBF089577
:10471000EFE6F0E08081826080830895EFE6F0E0CC
:1047200080818D7F80830895EFE6F0E0808192E0C4
:104730008927808308951F920F920FB60F9211243C
:104740002F933F934F935F936F937F938F939F9399
:10475000AF93BF93EF93FF938091E6019091E701B0
:1047600001969093E7018093E601811103C082E0F6
:104770000E94CE09E091E701E695E695F0E0E25966
:10478000FA4FE4918091E6018E1303C080E00E940D
:10479000CE09FF91EF91BF91AF919F918F917F9142
:1047A0006F915F914F913F912F910F900FBE0F909E
:1047B0001F90189504D06894B1118DC0089570D0E1
:1047C00088F09F5790F0B92F9927B751A0F0D1F0FA
:1047D000660F771F881F991F1AF0BA95C9F712C084
:1047E000B13081F077D0B1E0089574C0672F782F91
:1047F0008827B85F39F0B93FCCF3869577956795F0
:10480000B395D9F73EF490958095709561957F4F5B
:104810008F4F9F4F0895E89409C097FB3EF4909501
:104820008095709561957F4F8F4F9F4F9923A9F089
:10483000F92F96E9BB279395F69587957795679518
:10484000B795F111F8CFFAF4BB0F11F460FF1BC05C
:104850006F5F7F4F8F4F9F4F16C0882311F096E9EF
:1048600011C0772321F09EE8872F762F05C066239D
:1048700071F096E8862F70E060E02AF09A95660F56
:10488000771F881FDAF7880F9695879597F908950F
:1048900057FD9058440F551F59F05F3F71F04795F1
:1048A000880F97FB991F61F09F3F79F087950895D6
:1048B000121613061406551FF2CF4695F1DF08C0F5
:1048C000161617061806991FF1CF86957105610512
:1048D00008940895E894BB2766277727CB0197F9BA
:1048E00008950BD078C069D028F06ED018F09523C9
:1048F00009F05AC05FC01124EECFCADFA0F3959F24
:10490000D1F3950F50E0551F629FF001729FBB27B6
:10491000F00DB11D639FAA27F00DB11DAA1F649F62
:104920006627B00DA11D661F829F2227B00DA11D15
:10493000621F739FB00DA11D621F839FA00D611D9B
:10494000221F749F3327A00D611D231F849F600DBC
:10495000211D822F762F6A2F11249F5750408AF0F5
:10496000E1F088234AF0EE0FFF1FBB1F661F771F81
:10497000881F91505040A9F79E3F510570F014C018
:10498000AACF5F3FECF3983EDCF386957795679569
:10499000B795F795E7959F5FC1F7FE2B880F911D9F
:1049A0009695879597F9089597F99F6780E870E045
:1049B00060E008959FEF80EC089500240A94161695
:1049C000170618060906089500240A9412161306FD
:1049D000140605060895092E0394000C11F488238B
:1049E00052F0BB0F40F4BF2B11F460FF04C06F5FA7
:1049F0007F4F8F4F9F4F089597FB072E16F400941B
:104A000007D077FD09D00E94162507FC05D03EF49B
:104A1000909581959F4F0895709561957F4F08956A
:104A2000EE0FFF1F0590F491E02D0994AA1BBB1B0C
:104A300051E107C0AA1FBB1FA617B70710F0A61B9E
:104A4000B70B881F991F5A95A9F780959095BC01BF
:104A5000CD010895F999FECF92BD81BDF89A9927AD
:104A600080B50895A8E1B0E042E050E00C945225F2
:104A7000262FF999FECF92BD81BDF89A019700B417
:104A8000021639F01FBA20BD0FB6F894FA9AF99AB7
:104A90000FBE08950196272F0E9439250C943825C2
:104AA000DC01CB01FC01F999FECF06C0F2BDE1BDEE
:104AB000F89A319600B40D9241505040B8F70895DD
:044AC000F894FFCF98
:104AC4002002D0095D0A3A0A060AD3090101C2018B
:104AD40028080A03140A3F4D36392F05E204AC04B2
:104AE400730406041F043804510401020304050678
:044AF40007080900A6
:00000001FF
