:100000000C94F6010C943D020C943D020C943D02BC
:100010000C943D020C943D020C943D020C943D0264
:100020000C943D020C943D020C94280D0C94FA0D96
:100030000C943D020C943D020C943D020C943D0244
:100040000C943D020C94C5220C943D020C943D028C
:100050000C943D020C94091C0C943D020C943D023E
:100060000C943D020C943D020C943D020C943D0214
:100070000C943D020C943D020C943D020C943D0204
:100080000C943D020C943D020C943D020C943D02F4
:100090000C943D020C943D020C943D020C943D02E4
:1000A0000C943D020C943D020C943D0235002B0053
:1000B0003961E100E00000001E00140004001D0092
:1000C00029002F001F001A0016001B00E3004C003F
:1000D0002000080007000600E2002C0021001500A7
:1000E00009001900E2002602220017000A0005009C
:1000F000000006012300B60000004B0000002F02A4
:100100002400B70000004E000000300225001C0053
:100110000B00110000001901260018000D0010004E
:100120005200270227000C000E00360050002A0063
:100130002D0012000F0037004F0028002E00130082
:1001400033003800510030002A003100280034000C
:10015000015300002900010001000100010000001E
:100160003A00010001000100010001003B00010014
:10017000F2000100010001003C00F000F10001006C
:10018000F40000703D000100F3000100F5000100E3
:100190003E00010001000100000001003F000100DD
:1001A000000001000000010040000100000001000B
:1001B00000000100410001000100010000000100F9
:1001C00042000100010001000100010043000100A4
:1001D00001000100AA00010044000100010001002B
:1001E000A90001004500010001000100A800010074
:1001F0002A000100AE00010001000000050109060F
:10020000A101050719E029E71500250195087501E9
:1002100081029501750881010508190129059505D7
:10022000750191029501750391010507190029FFD8
:10023000150026FF00950675088100C0050109021A
:10024000A1010901A10005091901290515002501D0
:10025000950575018102950175038101050109303C
:1002600009311581257F95027508810609381581A8
:10027000257F950175088106050C0A380215812530
:100280007F950175088106C0C005010980A101851F
:100290000216010026B7001A01002AB70075109552
:1002A000018100C0050C0901A1018503160100268A
:1002B0009C021A01002A9C02751095018100C0055C
:1002C000010906A101050719E029E7150025019597
:1002D0000875018102050819012905950575019127
:1002E000029501750391010507190029771500256D
:1002F00001957875018102C012011001000000080B
:10030000EDFE071301000102000109026D00040166
:1003100000A0FA09040000010301010009211101F4
:1003200000012240000705810308000A09040100BA
:100330000103010200092111010001224D000705FE
:10034000820308000A0904020001030000000921D9
:10035000110100012236000705830308000A090481
:1003600003000103000000092111010001223900EE
:1003700007058403100001040309041603450072F5
:100380000067006F0044006F007800200045005AAD
:1003900000000016034500720067006F0044006F04
:1003A000007800200045005A000000000000000016
:1003B000000000000000010204060A0F17202C3A7A
:1003C0004A5D71879DB3C7DAE9F5FCFFFCF5E9DA10
:1003D000C7B39D87715D4A3A2C20170F0A060402A5
:1003E00001000000000000000000000011241FBEFA
:1003F000CFEFDAE0DEBFCDBF04B603FE27C08091A9
:10040000000290910102A0910202B0910302873094
:1004100020EB920727E0A20720EBB207B9F4109275
:10042000000210920102109202021092030214BE06
:1004300084B7877F84BF88E10FB6F894809360000B
:10044000109260000FBEE0E0FFE3099511E0A0E02C
:10045000B1E0EAE0F9E402C005900D92A833B107DB
:10046000D9F712E0A8E3B1E001C01D92A030B107B6
:10047000E1F70E944A0A0C9483240C940000109225
:10048000B9008AE08093B800089594EA9093BC0084
:100490009091BC0097FFFCCF9091B900987F983065
:1004A00011F0903199F48093BB0084E88093BC00F4
:1004B0008091BC0087FFFCCF9091B900987F983164
:1004C00039F081E0903429F480E0089581E00895C6
:1004D00080E0089584E98093BC008091BC0084FD95
:1004E000FCCF08958093BB0084E88093BC0080918A
:1004F000BC0087FFFCCF9091B900987F81E09832D3
:1005000009F480E0089584E88093BC008091BC00E9
:1005100087FFFCCF8091BB00089580B38C7080BBB7
:1005200081B3836F81BB0895809101018823A9F471
:1005300080E40E94450280930101882361F482E1F6
:100540000E94720280930101882329F48FEF0E9498
:100550007202809301010E946A0284B1807F84B993
:1005600085B1807F85B98AB1837F8AB98BB1837F5A
:100570008BB93E98469808950E94700480930101BB
:100580000E9494020E948D02E8E3F1E0A7E4B1E04A
:1005900011921D9281E0E634F807D1F70E945904C8
:1005A00008950E947004809301010E9494020E94A9
:1005B0008D02E8E3F1E0A7E4B1E011921D9281E041
:1005C000E634F807D1F708958F929F92BF92CF92A9
:1005D000DF92EF92FF920F931F93DF93CF930F92CF
:1005E000CDB7DEB780910101882379F08091460173
:1005F0008F5F80934601882341F40E9470048093AA
:100600000101882311F40E94010407E411E078013C
:100610008824992492E0B92E81E0C82ED12C882D0F
:10062000873010F580910101882309F0C6C080E46D
:100630000E94450280930101882399F482E10E947F
:10064000720280930101882361F4C601082C02C064
:10065000880F991F0A94E2F780950E947202809396
:1006600001010E946A02A9C08A30B1F08B3028F4DF
:10067000883061F0893039F40CC08C3091F08C30C6
:1006800070F08D3089F0209A28988DC0219A299891
:100690008AC0229A2A9887C0239A2B9884C0529A9B
:1006A00001C0539A5B987FC03E9A46987CC080E414
:1006B0000E94450280930101882391F483E10E9406
:1006C000720280930101882359F481E40E9445025B
:1006D00080930101882321F40E948302809501C048
:1006E00080E089830E946A0289811FC082E0892B91
:1006F0007C9B02C020E001C024E0822B7D9B02C0D5
:1007000020E001C028E0822B7E9B02C020E001C0D7
:1007100020E1822B9FB19095991F9927991F92955F
:10072000990F907E892B01C080E0D7019C9198178A
:1007300019F08C93B09200010E9494020894811CDD
:10074000911C0894E11CF11CBEE08B16910409F089
:1007500066CF809100018823B1F081508093000121
:10076000882339F0EFE9FFE03197F1F700C000008E
:100770000AC0E8E3F1E0D8018D918D018193B1E0E9
:1007800005351B07C1F70E94FE0381E00F90CF9152
:10079000DF911F910F91FF90EF90DF90CF90BF906E
:1007A0009F908F900895E0EAEA95F1F791E07899AB
:1007B00090E0799B9BCF80E09ACF809101018823C4
:1007C00009F0B2CF74CFE8E3F1E0E80FF11D8081CA
:1007D000089508951F93CF93DF93C8E3D1E010E00D
:1007E000899190E00E942F1B180F81E0C634D80732
:1007F000B9F7812FDF91CF911F9108950E94D00406
:10080000089556985E9825982D9826982E982798A2
:100810002F988FEF90E090938900809388009093B9
:100820008B0080938A0090938D0080938C00259A92
:100830002D9A8FEF90E7A2E081509040A040E1F721
:1008400000C00000269A2E9A8FEF90E7A2E0815018
:100850009040A040E1F700C00000279A2F9A8FEF48
:1008600090E7A2E081509040A040E1F700C0000076
:1008700025982D988FEF90E7A2E081509040A040FE
:10088000E1F700C0000026982E988FEF90E7A2E0D5
:1008900081509040A040E1F700C0000027982F98B9
:1008A00056985E9825982D9826982E9827982F98D8
:1008B000089589EA8093800089E0809381002498DC
:1008C0002C983F988AB18F748AB96E98479A8BB1E9
:1008D000806B8BB9769A0E9401040E94CF04089520
:1008E00080E28093010180915501882371F40E9478
:1008F0003F0281E0809355018FEF93EDA0E381509B
:100900009040A040E1F700C0000080E40E94450252
:1009100080930101882371F50E9472028093010186
:10092000882341F50E94720280930101882311F50A
:100930008FE30E947202809301018823D9F40E9400
:100940006A0280E40E94450280930101882391F4A9
:100950008CE00E94720280930101882359F40E9466
:10096000720280930101882329F48FE30E947202AE
:10097000809301010E946A0280910101089566231B
:1009800059F4FC018281882321F085EE0E94E61053
:1009900003C085EE0E94AE1180E090E008950895B6
:1009A0006091C5017091C6018091C7019091C80105
:1009B0000E943C1B56985E9825982D9826982E9854
:1009C00027982F98813019F0823031F403C0259A8E
:1009D0002D9A0895269A2E9A089581E0089581E02F
:1009E00008950E94EF04089508950F931F93CF93E5
:1009F000DF938C01DC01CD91DC91CE010E94B8190E
:100A0000BE010E945306EC01B8010E94F104882344
:100A100009F442C1F80182818823C9F1809156010D
:100A20008823F1F4F0E7C431DF0789F50E94F4046C
:100A300081E0809356010E94CB1B909358018093D4
:100A4000570110925F0110925A01109259011092B1
:100A50005C0110925B0110925E0110925D011CC15D
:100A600080915701909158010E94D81B883C9105B4
:100A700070F480915F01E82FF0E0EE0FFF1FE75A5E
:100A8000FE4FD183C0838F5F80935F0105C180E7F4
:100A9000C431D80770F490E7C230D907B8F5A0E7A1
:100AA000C030DA0789F0B0E7C130DB0709F0EBC0EE
:100AB00020C0E0E7C333DE0709F4B7C0F0E7C43372
:100AC000DF0709F0E0C0C7C0D80112968C911297D9
:100AD000882309F4DDC00E9486148FEF94E3ACE014
:100AE00081509040A040E1F700C000000E942E1C01
:100AF000D3C0D80112968C911297882309F4C8C0EC
:100B00008091DE0181608093DE01C6C0F8018281A0
:100B1000882309F4BDC00E94FC1D882311F40E94A3
:100B2000E11D0E941E1E8093F1011092F201F0E778
:100B3000C230DF0711F4816071C090E7C330D9077C
:100B400011F482606BC0A0E7C430DA0711F484604E
:100B500065C0B0E7C530DB0711F488605FC0E0E72F
:100B6000C630DE0711F4806159C0F0E7C730DF07F7
:100B700011F4806253C090E7C830D90711F4806443
:100B80004DC0A0E7C930DA0711F4806847C0B0E76C
:100B9000CA30DB0711F48C6041C0E0E7CB30DE07E0
:100BA00021F48091F1018E7F39C0F0E7CC30DF076E
:100BB00021F48091F1018D7F31C080E7CD30D807DD
:100BC00021F48091F1018B7F29C090E7CE30D907C5
:100BD00021F48091F101877F21C0A0E7CF30DA07AF
:100BE00021F48091F1018F7E19C0B0E7C031DB079D
:100BF00021F48091F1018F7D11C0E0E7C131DE0762
:100C000021F48091F1018F7B09C08091F101F0E71F
:100C1000C231DF0711F48F7701C0837F8093F10128
:100C20008091F1010E94231E37C0D80112968C9149
:100C30001297882321F01092600182E013C0809106
:100C40006001882331F486E20E94E61086E20E9469
:100C5000AE1182E015C0F8018281882331F0109234
:100C6000610182E10E94001217C080916101882316
:100C700031F487E20E94E61087E20E94AE1182E121
:100C80000E94071209C081E0809360018093610196
:100C9000C8010E94ED0401C080E0DF91CF911F9157
:100CA0000F9108950895E62FF0E0EE0FFF1F9CE0EE
:100CB000799F90011124E20FF31F98EA899FC001E8
:100CC0001124E80FF91FE455FF4F25913491C90114
:100CD00008950E9453060E94E4079C0140E480307E
:100CE0009407C0F580E32030380708F0D2C0203EDA
:100CF0003105E8F4203C310508F058C0283A3105A8
:100D000088F4253A310508F05BC02130310509F43B
:100D100018C12130310508F411C12430310508F41F
:100D20000DC150C12B3B310508F008C154C02F3F05
:100D3000310509F048F4203F310508F09BC0283EFA
:100D4000310508F0FBC03EC140E22030340708F412
:100D500093C094C083E52030380780F442E520300A
:100D6000340708F0B9C081E52030380708F0AEC07C
:100D700040E52030340708F092C08EC085E5203071
:100D8000380730F444E52030340708F0C8C0BCC050
:100D900086E52030380708F4C8C0C9018050904665
:100DA00040E18030940708F0C9C0C5C0F901EE0FDA
:100DB000FF1FE458FF4F85919491282F392F02C1CE
:100DC000253A310509F4C0C0263A310509F4BFC0FF
:100DD00023E830E4F7C0283A310509F4BBC0293ACA
:100DE000310509F4BAC02A3A310509F4B9C02B3AE1
:100DF000310509F4B8C02C3A310509F4B7C02D3AD1
:100E0000310509F4B6C0203B310509F4B5C02E3ACE
:100E1000310509F4B4C02F3A310509F4B3C0213BC0
:100E2000310509F4B2C0223B310509F4B1C0233BBE
:100E3000310509F4B0C0243B310509F4AFC0253BAE
:100E4000310509F4AEC0263B310509F4ADC0273B9E
:100E5000310509F4ACC0283B310509F4ABC0293B8E
:100E6000310509F4AAC02A3B310509F0A9C02AE2DC
:100E700036E4A8C03065A6C03F71A4C03F70220F01
:100E8000331F24503E4FF90145915491242F352FA3
:100E900099C03070306C96C03F70306A93C0422F5A
:100EA0004F70E4E036952795EA95E1F7922F93701D
:100EB00080E0242F2695269530E075E0220F331F21
:100EC0007A95E1F7282B392B3C6811C0922F80E0EE
:100ED0009C01216F306A76C0822F2695269530E0DE
:100EE00065E0220F331F6A95E1F73C68482F437095
:100EF00081E090E002C0880F991F4A95E2F78F7158
:100F00009070282B392B5EC0822F2695269530E0D5
:100F100055E0220F331F5A95E1F73A68E7CF922F39
:100F200080E09C01246F306A4DC030E02F7130703A
:100F3000322F222701C03F70306244C020E030E0F1
:100F400041C021E030E03EC021E830E43BC022E86F
:100F500030E438C022EE34E435C029EE34E432C047
:100F60002AEE34E42FC025EB34E42CC026EB34E425
:100F700029C027EB34E426C02CEC34E423C02DEC4C
:100F800034E420C023E835E41DC02AE835E41AC063
:100F900022E935E417C024E935E414C021E236E43F
:100FA00011C023E236E40EC024E236E40BC025E291
:100FB00036E408C026E236E405C027E236E402C083
:100FC00020E034E4C90108959C018238910591F133
:100FD00083389105C8F48133910509F463C08233E5
:100FE000910548F48932910509F455C08A3291057A
:100FF00009F074C05EC08533910509F445C089339A
:10100000910509F06BC016C0833E910541F1843E05
:10101000910540F4803E9105A1F0823E910509F0D2
:101020005DC016C0863E9105F9F0873E910509F036
:1010300055C021C08091F10180FD42C081FF4EC0AA
:101040003FC08091F10180FF49C029E330E046C0F4
:101050008091F10182FF42C084FF35C012C08091AF
:10106000F10182FF0CC032C08091F10183FF36C0D4
:1010700084FF2FC006C08091F10183FD2DC084FF45
:101080002DC020E030E02AC08091F10185FF26C00C
:1010900029E230E023C08091F10185FF1FC025E3E4
:1010A00030E01CC08091F10186FF18C02AE230E0D8
:1010B00015C08091F10186FF11C021E330E00EC020
:1010C00020EE30E00BC023EE30E008C022EE30E02E
:1010D00005C027EE30E002C026EE30E0C9010895D9
:1010E00008950E9470080895809173010895DF9318
:1010F000CF9300D00F92CDB7DEB72091F701243007
:1011000021F523E029839B838A832093E9008FEFD5
:1011100006C095ED9A95F1F70000882329F090918B
:10112000E800815095FFF5CF8091E80085FF0DC064
:10113000CE01019663E070E040E050E00E94F10AC9
:101140008091E8008E778093E8000F900F900F90C9
:10115000CF91DF910895DF93CF9300D00F92CDB759
:10116000DEB72091F701243029F522E029839B8303
:101170008A8383E08093E9008FEF06C095ED9A950E
:10118000F1F70000882329F09091E800815095FF45
:10119000F5CF8091E80085FF0DC0CE01019663E098
:1011A00070E040E050E00E94F10A8091E8008E7704
:1011B0008093E8000F900F900F90CF91DF910895EA
:1011C0002091F7012430F9F422E02093E9002FEF79
:1011D00006C035ED3A95F1F70000222329F0309151
:1011E000E800215035FFF5CF2091E80025FF0BC026
:1011F00065E070E040E050E00E94F10A8091E80074
:101200008E778093E80008950F931F938C0180914F
:10121000F701843009F049C0909102019923D9F077
:1012200090910D019923B9F08093E9008FEF06C0EA
:1012300095E19A95F1F70000882329F09091E80054
:10124000815095FFF5CF8091E80085FF2EC0C80141
:1012500060E170E017C081E08093E9008FEF06C085
:1012600095ED9A95F1F70000882329F09091E80018
:10127000815095FFF5CF8091E80085FF16C0C80129
:1012800068E070E040E050E00E94F10A8091E800E0
:101290008E778093E800A3E6B1E0802F912FFC01C8
:1012A00080E101900D928150E1F71F910F91089517
:1012B0008091F601882349F40E94AC0C0E94090D2C
:1012C0008091E20084608093E20008951092F6011C
:1012D000089508950E94B22208950E94BB1B0E94A7
:1012E000B8220E94C40F0E947108089581E061EC49
:1012F00042E00E94200C82E061EC42E00E94200C5F
:1013000083E061EC42E00E94200C84E061EC42E169
:101310000E94200C08958091F901833009F458C08F
:10132000843030F4813071F0823009F0B2C099C05D
:101330008A3009F486C08B3009F46BC0893009F01B
:10134000A8C020C08091F801813A09F0A2C0809124
:10135000E800877F8093E8008091FC019091FD0177
:10136000009721F060E080E090E003C060E183E658
:1013700091E070E00E94500B8091E8008B778093A1
:10138000E80008958091F801813209F082C08091CF
:10139000FC019091FD01009721F08330910509F047
:1013A00078C08091E800877F8093E80005C0809135
:1013B000F701882309F46DC08091E80082FFF7CF20
:1013C0008091F100809373018091E8008B771CC0BD
:1013D0008091F801813A09F05CC08091FC01909104
:1013E000FD01009709F055C08091E800877F809348
:1013F000E8008091E80080FFFCCF8091020180939B
:10140000F1008091E8008E778093E8000E94570CED
:1014100008958091F8018132E1F58091FC0190916D
:10142000FD010097B1F58091E800877F8093E80087
:101430000E94570C8091FA01809302010E94861449
:1014400008958091F801813221F58091E800877F2D
:101450008093E8000E94570C8091FB018093620109
:1014600008958091F801813AA1F48091E800877F86
:101470008093E8008091E80080FFFCCF80916201BA
:101480008093F1008091E8008E778093E8000E94BD
:10149000570C089584B7877F84BF88E10FB6F8940E
:1014A00080936000109260000FBE80E8809361001E
:1014B000109261000E9414100E94AC0C0E94090D51
:1014C0008091E20084608093E20078940E94A20FF1
:1014D0000E94171083E091E00E94BF0F0E94A0229B
:1014E0000CC00E94831B8091F501882331F00E947B
:1014F000AD1B882311F00E94DB0A8091F701853033
:1015000081F30E942110F9CF9330A1F0943038F488
:10151000913009F441C0923009F043C006C09132C5
:10152000D9F0923209F03DC025C02DE630E0EAE066
:10153000F3E03BC0813041F0813018F0823089F512
:1015400006C0E7E7F3E005C0EBE7F3E002C0E3E93C
:10155000F3E0249130E029C0643018F5E62FF0E084
:10156000EE0FFF1FEA5EFE4F0190F081E02D29E0B3
:1015700030E01BC06430A8F470E0660F771FFB01F9
:10158000E25EFE4F0190F081E02D6A5D7E4FDB014F
:101590002D913C91119709C022E130E0E8EFF2E093
:1015A00004C020E030E0E0E0F0E0DA011196FC93C6
:1015B000EE93C901089580E189BD82E189BD09B436
:1015C00000FEFDCF8091D8008F7D8093D800809160
:1015D000E00082608093E0008091E00081FDFCCF1C
:1015E00008958F929F92BF92CF92DF92EF92FF92D7
:1015F0000F931F93DF93CF930F92CDB7DEB7E82EF3
:101600004B018A0199830E94780CB82E9981882316
:10161000C9F5F92E0115110539F0F8012081318144
:10162000821A930AE20EF31ECC24DD2426C0809198
:10163000E80085FD17C08091E8008E778093E80070
:101640000115110551F0F801808191818C0D9D1DCE
:101650009183808325E0B22E15C00E94780C8823E8
:1016600061F00FC0F70181917F018093F100089430
:10167000810891080894C11CD11C81149104B9F609
:1016800001C0B82E8B2D0F90CF91DF911F910F913C
:10169000FF90EF90DF90CF90BF909F908F90089534
:1016A000482F592FFA018091FE019091FF01861772
:1016B000970718F4BC0140E03DC061157105D9F7EA
:1016C0008091E8008E778093E800F5CF8091F70154
:1016D000882309F447C0853009F446C08091E800AA
:1016E00083FD3EC08091E80082FD34C08091E80017
:1016F00080FF20C09091F3008091F200392F20E00C
:1017000090E0822B932B06C041914093F1006150F1
:10171000704001966115710519F088309105A0F3AC
:1017200041E08830910509F040E08091E8008E7733
:101730008093E8006115710549F6442339F60AC023
:101740008091F701882371F0853071F08091E80075
:1017500083FD0CC08091E80082FFF2CF80E0089505
:1017600081E0089582E0089583E0089581E008957E
:10177000E82FF92F8091FE019091FF0186179707BE
:1017800018F4BC0140E03EC061157105D9F78091A5
:10179000E8008E778093E800F5CF8091F7018823E9
:1017A00009F448C0853009F447C08091E80083FD02
:1017B0003FC08091E80082FD35C08091E80080FF45
:1017C00021C09091F3008091F200392F20E090E049
:1017D000822B932B07C044914093F10031966150C6
:1017E000704001966115710519F08830910598F3E4
:1017F00041E08830910509F040E08091E8008E7763
:101800008093E8006115710541F6442331F60AC062
:101810008091F701882371F0853071F08091E800A4
:1018200083FD0CC08091E80082FFF2CF80E0089534
:1018300081E0089582E0089583E0089581E00895AD
:10184000982F2CC0292F2F702093E900981739F07A
:101850007091EC002091ED005091F00003C0242F16
:10186000762F50E021FF19C03091EB003E7F30937E
:10187000EB003091ED003D7F3093ED003091EB00B7
:1018800031603093EB007093EC002093ED005093A7
:10189000F0002091EE0027FF08C09F5F973090F284
:1018A0008F708093E90081E0089580E00895809131
:1018B000F80187FF13C004C08091F7018823B9F0B5
:1018C0008091E80082FFF8CF8091E8008B778093C9
:1018D000E80008958091F701882349F08091E8009D
:1018E00080FFF8CF8091E8008E778093E80008951C
:1018F0008091E4009091E50044E62091EC0020FF07
:1019000026C02091E80020FD16C02091F701222377
:10191000A1F02530A1F02091EB0025FD12C020910F
:10192000E4003091E5002817390739F3442359F0D2
:101930004150C901E2CF80E0089582E0089583E03C
:10194000089581E0089584E0089580E0089520914D
:10195000E80022FFDACFF9CF0E941B0D0E94230D71
:10196000E0EEF0E0808181608083E8EDF0E080814E
:101970008F77808319BCA7EDB0E08C918E7F8C931C
:1019800080818F7E80831092F60108950F931F93BC
:10199000CF93DF930E941B0D0E94230DC8EDD0E072
:1019A00088818F77888388818068888388818F7D0C
:1019B000888319BC1092F7011092F3011092F5017F
:1019C0001092F40100EE10E0F80180818B7F80839B
:1019D00088818160888380E060E042E00E94200C82
:1019E000E1EEF0E080818E7F8083E2EEF0E08081A6
:1019F00081608083808188608083F80180818E7F10
:101A00008083888180618883DF91CF911F910F91BE
:101A10000895E8EDF0E080818F7E8083E7EDF0E0CF
:101A200080818160808384E082BF81E08093F601C1
:101A30000E94C60C0895E8EDF0E080818E7F8083DF
:101A40001092E20008951092DA001092E1000895D9
:101A50001F920F920FB60F9211242F933F934F9323
:101A60005F936F937F938F939F93AF93BF93EF9306
:101A7000FF938091E10082FF0BC08091E20082FF22
:101A800007C08091E1008B7F8093E1000E94A10F4D
:101A90008091DA0080FF1FC08091D80080FF1BC0BA
:101AA0008091DA008E7F8093DA008091D90080FFE8
:101AB0000DC080E189BD82E189BD09B400FEFDCF82
:101AC00081E08093F7010E94580905C019BC10926B
:101AD000F7010E9466098091E10080FF19C08091A2
:101AE000E20080FF15C08091E2008E7F8093E200CB
:101AF0008091E20080618093E2008091D800806252
:101B00008093D80019BC85E08093F7010E946A0990
:101B10008091E10084FF30C08091E20084FF2CC0FE
:101B200080E189BD82E189BD09B400FEFDCF8091CD
:101B3000D8008F7D8093D8008091E1008F7E8093C4
:101B4000E1008091E2008F7E8093E2008091E200CC
:101B500081608093E2008091F301882311F084E09A
:101B600007C08091E30087FF02C083E001C081E0ED
:101B70008093F7010E946D098091E10083FF29C0E5
:101B80008091E20083FF25C08091E100877F8093F0
:101B9000E10082E08093F7011092F3018091E1006F
:101BA0008E7F8093E1008091E2008E7F8093E2003F
:101BB0008091E20080618093E20080E060E042E09A
:101BC0000E94200C8091F00088608093F0000E94B9
:101BD0006909FF91EF91BF91AF919F918F917F9193
:101BE0006F915F914F913F912F910F900FBE0F908A
:101BF0001F9018951F920F920FB60F9211241F93EA
:101C00002F933F934F935F936F937F938F939F9304
:101C1000AF93BF93EF93FF931091E9001F708091F2
:101C2000EC001092E9008091F000877F8093F00033
:101C300078940E94360E1092E9008091F00088603E
:101C40008093F0001093E900FF91EF91BF91AF9165
:101C50009F918F917F916F915F914F913F912F91C4
:101C60001F910F900FBE0F901F9018951F93DF9339
:101C7000CF93CDB7DEB7AC970FB6F894DEBF0FBEEB
:101C8000CDBFE8EFF1E08091F100819322E0E030F8
:101C9000F207C9F70E948B098091E80083FF39C1E0
:101CA0008091F8012091F901253009F484C0263093
:101CB00040F42130A1F1213070F0233009F029C126
:101CC0002EC0283009F4F4C0293009F404C12630AC
:101CD00009F01FC194C0803821F0823809F019C181
:101CE00008C08091F4019091F501992371F0826010
:101CF0000CC08091FC018F708093E9009091EB0003
:101D000081E095FF80E01092E9009091E800977FD4
:101D10009093E8008093F1001092F100D4C08823E2
:101D200019F0823009F0F5C090E08F719070009743
:101D300029F08230910509F0ECC00BC08091FA01C6
:101D4000813009F0E6C0233009F080E08093F5018E
:101D50002CC08091FA01882341F52091FC012F705D
:101D600009F4D7C02093E9008091EB0080FF1DC0EB
:101D70008091F901833021F48091EB00806213C0DF
:101D80008091EB0080618093EB0081E090E002C0E5
:101D9000880F991F2A95E2F78093EA001092EA00D3
:101DA0008091EB0088608093EB001092E9008091B5
:101DB000E800877F8BC0882309F0ABC01091FA013F
:101DC0001F778091E3008078812B8093E3008091DE
:101DD000E800877F8093E8000E94570C8091E8001C
:101DE00080FFFCCF8091E30080688093E3001123A3
:101DF00011F083E001C082E08093F7018AC080582F
:101E0000823008F086C08091FA019091FB0123E0B6
:101E10008C3D920799F583E08C838AE28B835FB7D0
:101E2000F894DE01159680E090E04EE061E2E42F48
:101E3000F0E060935700E49180FF03C0E295EF70FB
:101E40004F5FEF702E2F30E0EA3018F0295C3F4FE3
:101E500002C0205D3F4F2D933D9301968431910543
:101E600031F75FBF8091E800877F8093E800CE0163
:101E700003966AE270E00E94500B14C06091FC016E
:101E8000AE014F5F5F4F0E94840ABC01009709F4C6
:101E900040C08091E800877F8093E80089819A8123
:101EA0000E94B80B8091E8008B778093E80031C0E6
:101EB000803879F58091E800877F8093E8008091F1
:101EC000F3018093F1008091E8008E778093E80021
:101ED0000E94570C1EC08823E1F49091FA019230C1
:101EE000C0F48091E800877F8093E8009093F3012D
:101EF0000E94570C8091F301882321F48091E30024
:101F000087FF02C084E001C081E08093F7010E9456
:101F100076098091E80083FF0AC08091E800877FFE
:101F20008093E8008091EB0080628093EB00AC9698
:101F30000FB6F894DEBF0FBECDBFCF91DF911F91DA
:101F4000089508951F938091F7018823B1F080913F
:101F5000E9008F709091EC0090FF02C010E801C082
:101F600010E0182B1092E9008091E80083FF02C076
:101F70000E94360E1F701093E9001F9108959093F0
:101F80007901809378010895E0917801F0917901C9
:101F9000309729F00190F081E02D0995089580E0B7
:101FA0000895E0917801F0917901309721F0028055
:101FB000F381E02D09950895E0917801F091790180
:101FC000309721F00480F581E02D09950895209146
:101FD0007601309177018217930771F09093770122
:101FE00080937601E0917801F0917901309721F0AA
:101FF0000680F781E02D09950895209174013091B4
:1020000075018217930771F09093750180937401A5
:10201000E0917801F0917901309721F00084F18509
:10202000E02D0995089508950E94131008950E94C7
:10203000C21B0E94BC020E94971C08950E94710856
:1020400008959F92AF92BF92CF92DF92EF92FF924C
:102050000F931F93DF93CF93CDB7DEB72B970FB6B8
:10206000F894DEBF0FBECDBF0E94E40298E8E92ECF
:1020700091E0F92E0DE010E081E0C82ED12CA02EC9
:10208000802F0E94E303F70192907F019826A9F127
:102090009091DE0191FF04C08B870E94E9038B853C
:1020A00025E030E0A601022E02C0440F551F0A941D
:1020B000E2F7B42E942F9921D1F02983AA828423A8
:1020C00091E009F490E09B830E94CB1B8160782F04
:1020D0009D838C8349815A816B818D810E94B410CC
:1020E000F801E658FE4F80818B2580831DC021506A
:1020F0003040FFEF2F3F3F07A9F6015010408FEF10
:102100000F3F180709F0BBCF0E94CB1B2FEF2E8388
:102110002F8318868160782F9A8789874FEF5FEF2A
:1021200060E08A850E94B4100E94AF1F0091880170
:102130000E94C40F081731F00E94C40F80938801D9
:102140000E941E102B960FB6F894DEBF0FBECDBFB7
:10215000CF91DF911F910F91FF90EF90DF90CF9083
:10216000BF90AF909F900895DF93CF93CDB7DEB728
:102170002B970FB6F894DEBF0FBECDBF4F835887A5
:1021800069877A878B87972F282FDE01119686E043
:10219000FD0111928A95E9F7FE01379685E00190DD
:1021A0000D928150E1F749835A83792F9C832D83C7
:1021B0006B81822F9E810E94A2172B960FB6F894F6
:1021C000DEBF0FBECDBFCF91DF9108951F93182FB3
:1021D000882309F4C1C0823859F40E94C40F81FDDC
:1021E000BBC089E30E94401A0E94FE1A89E30CC01A
:1021F000833879F40E94C40F80FDAEC083E50E944D
:10220000401A0E94FE1A83E50E947C1A0E94FE1A60
:10221000A3C0843859F40E94C40F82FD9DC087E496
:102220000E94401A0E94FE1A87E4EECF8450813A41
:1022300050F4812F0E94F621882309F08DC0812F50
:102240000E94401AE3CF812F805E883050F41770CF
:1022500081E090E001C0880F1A95EAF70E94BB1A4E
:10226000D5CF812F855A833078F4153A29F0163A64
:1022700031F482E890E005C081E890E002C083E894
:1022800090E00E94E70F68C0812F885A833108F0E0
:1022900063C0183A39F1193A41F11A3A49F11B3A37
:1022A00051F11C3A59F11D3A61F1103B69F11E3AA6
:1022B00071F11F3A79F1113B81F1123B89F1133B26
:1022C00091F1143B99F1153BA1F1163BA9F1173B94
:1022D000B1F1183BB9F1193BC1F11A3BC9F58AE2DA
:1022E00092E038C082EE90E035C089EE90E032C0D6
:1022F0008AEE90E02FC085EB90E02CC086EB90E05A
:1023000029C087EB90E026C08CEC90E023C08DECD8
:1023100090E020C083E891E01DC08AE891E01AC0F7
:1023200082E991E017C084E991E014C081E292E073
:1023300011C083E292E00EC084E292E00BC085E21D
:1023400092E008C086E292E005C087E292E002C017
:1023500080E090E00E94FD0F1F910895882309F40A
:102360004EC0823859F40E94C40F81FF48C089E3EF
:102370000E94401A0E94FE1A89E30CC0833869F457
:102380000E94C40F80FF3BC083E50E94401A0E9458
:10239000FE1A83E50E947C1A1FC0843859F40E94FB
:1023A000C40F82FF2CC087E40E94401A0E94FE1ACC
:1023B00087E4F0CF982F9450913A60F3982F905E75
:1023C000983068F4282F277081E090E001C0880FD2
:1023D0002A95EAF70E94C11A0E94FE1A0895982FC2
:1023E000955A933028F480E090E00E94E70F08951A
:1023F000885A833120F480E090E00E94FD0F089518
:10240000882321F00E94BB1A0E94FE1A0895882397
:1024100021F00E94C11A0E94FE1A0895AF92BF9245
:10242000DF92EF92FF920F931F93DF93CF9300D031
:10243000CDB7DEB75C01472FFC01E2801581129514
:102440001F70EE2031F079836A830E94D81A6A8166
:10245000498149836A830E94391A49816A818823A4
:1024600089F0EE2079F0862F805E883058F082E087
:102470000E94221A0E94391ADD24D394D826498159
:102480006A8101C0DD24842F82958F7090E08530B1
:10249000910509F4B0C0863091055CF48430910553
:1024A0000CF087C0242F207F823091050CF04BC0A8
:1024B00015C08C3091054CF48A3091050CF04BC15D
:1024C0008830910509F0C5C1A2C08C30910509F48E
:1024D000B5C18F30910509F0BCC1B7C14F7022233F
:1024E00011F4142F03C0142F1295107FEE20B1F0B9
:1024F000112309F48FC1862F805E883028F4812F44
:102500006A830E94BB1A04C0812F6A830E94CB1A7F
:102510006A816A830E94FE1A6A817CC1862F6A835F
:102520000E94AE116A81112309F493C1605E683084
:1025300020F4812F0E94C11A03C0812F0E94D11A5A
:102540000E94FE1A86C14F70203211F4842F03C0FE
:10255000842F8295807F662319F0613001F515C0C4
:10256000EE2049F0112309F411C1113009F00EC118
:102570000E94EB1A6EC1112319F0113009F469C1E0
:1025800089830E94EE1A898107C1EE2021F0123062
:1025900008F05FC1FBC0112309F05BC1FDC0EE2054
:1025A00021F0112309F4F2C035C1112309F4F4C05C
:1025B0003CC1842F86958695837090E0009729F022
:1025C0008130910509F045C10BC0EE2021F0862F26
:1025D000942F937002C080E090E00E94E70F39C111
:1025E000EE2021F0862F942F937002C080E090E0BF
:1025F0000E94FD0F2EC1EE2021F0862F0E94B21EF8
:1026000003C0862F0E941C1F0E94A41F22C1842F7A
:10261000837009F04EC0EE2009F01BC1262F2295D1
:1026200026952770220F220F862F8F70E82EFF2409
:1026300000E010E0022E04C0EE0CFF1C001F111F72
:102640000A94D2F764FF10C06FE070E080E090E081
:1026500004C0660F771F881F991F2A95D2F76095CF
:1026600070958095909503C060E070E0CB01469531
:102670004695437050E04230510569F043305105B2
:1026800089F06E297F29802B912B4130510571F003
:102690000E94FE18DEC06E297F29802B912B0E949C
:1026A0000D19D7C00E94FE18C801B7010E94EF188B
:1026B000D0C0EE2019F080FFCCC002C081FFC9C09D
:1026C000262F229526952770220F220F862F8F7096
:1026D000E82EFF2400E010E0022E04C0EE0CFF1CE8
:1026E000001F111F0A94D2F764FF10C06FE070E062
:1026F00080E090E004C0660F771F881F991F2A951D
:10270000D2F7609570958095909503C060E070E079
:10271000CB0146954695437050E04230510569F033
:102720004330510589F06E297F29802B912B413050
:10273000510571F00E9499198CC06E297F29802B58
:10274000912B0E94A81985C00E949919C801B70150
:102750000E948A197EC0613F81F1623F30F4603E81
:1027600008F454C0603F48F01AC0633F81F1633FF2
:1027700048F1643F09F04AC034C0162F1F70842FFF
:102780008F71EE2031F00E943219812F0E940012C9
:1027900060C00E944E19812F0E9407125AC0EE207D
:1027A00021F0112309F055C003C0123008F051C0C8
:1027B000842F8F710E946E194CC0842F8F71EE2070
:1027C000D1F12EC0842F8F71EE2051F134C0EE2054
:1027D00029F0842F8F710E9422193BC00E941C197E
:1027E00038C0EE2051F0142F1F71812F0E94321932
:1027F000812F63E00E94181A2CC081E00E94221AE7
:10280000123038F182E00E94221A23C0EE2059F0E3
:10281000112321F0862F0E94E6101BC0842F8F7198
:102820000E94321916C0112321F0862F0E94AE118A
:1028300010C0842F8F710E944E190BC04F70C501BC
:102840000E94BF040E94611804C04F70C5010E941D
:102850005206DD2089F00E94141A80FD0DC0F5019A
:1028600012820E940E1A0E943219C5010E94481459
:102870000E940E1A0E944E190F900F90CF91DF9177
:102880001F910F91FF90EF90DF90BF90AF90089550
:102890000F931F93CF93DF93EC01288139818B81B4
:1028A0009C810097C9F03F3F91F42F3F81F414C001
:1028B000688179818A810E940A1A8C010E94B71965
:1028C0000E94EB18CE01B8010E940E1205C0CE0185
:1028D0000E94F504882361F7DF91CF911F910F913A
:1028E00008950E94D81A0E94E81A0E94AD1A0E9408
:1028F000FE1A0E944F200E94A41F80E090E00E94D8
:10290000E70F80E090E00E94FD0F08950E94C81A32
:102910000E94711408950E94FF19492F4F709295DB
:102920009F70292F30E02C3031054CF42A303105CE
:102930006CF42250304022303105B0F407C02C3006
:10294000310579F02F30310579F40BC0803F39F033
:10295000813F18F4803E50F402C0843F39F481E096
:10296000089581E043FD03C080E0089580E008956C
:10297000DF93CF9300D000D00F92CDB7DEB70F908A
:102980000F900F900F900F90CF91DF910895DF93EC
:10299000CF9300D000D000D0CDB7DEB726960FB6CB
:1029A000F894DEBF0FBECDBFCF91DF910895CF93D6
:1029B000DF938091900117C0C82FD0E0FE01EE0F89
:1029C000FF1FEC0FFD1FEE0FFF1FEF56FE4F408164
:1029D000518162817381848195810E94C7142196FF
:1029E0009E012770822F90918F01891729F7DF911F
:1029F000CF9108954091890150918A0160918B0196
:102A000070918C0180918D0190918E010E94C7146C
:102A100008954115510551F06F3F59F421E030E020
:102A20008F3F11F020E030E0C901089581E090E08F
:102A3000089580E090E00895AF92BF92DF92EF9208
:102A4000FF920F931F93DF93CF930F92CDB7DEB713
:102A500080918E0182958F7009F05EC080918B010C
:102A6000882309F459C090919001D0908F01E09093
:102A70008901F0908A01A0908C01B0908D018501B0
:102A80000095109546C08E2D6F2DA50199830E944B
:102A9000091599818823D9F5292F30E0F901EE0F26
:102AA000FF1FE20FF31FEE0FFF1FEF56FE4F818156
:102AB000F81669F58081E81651F58281882339F589
:102AC000438154814A155B0518F04A195B0902C01D
:102AD000400F511F483C5105D0F480918E018F70FA
:102AE000806180938E01F901EE0FFF1FE20FF31F4B
:102AF000EE0FFF1FEA56FE4F80818F70806180834A
:102B000089E891E00E9448140E94D71405C09F5F95
:102B100097709D1509F0B7CF0F90CF91DF911F915E
:102B20000F91FF90EF90DF90BF90AF9008957F924C
:102B30008F929F92AF92BF92CF92DF92EF92FF92CD
:102B40000F931F93DF93CF93CDB7DEB761970FB687
:102B5000F894DEBF0FBECDBF8C01DE011196FC01E3
:102B600085E001900D928150E1F7D8019C9011967B
:102B7000AC9011971296BC9012971396ED90FC9022
:102B800014978090890170908A01C0908C01D09038
:102B90008D01882D672DA6010E940915882309F053
:102BA0008EC180918B01882309F413C120918E017D
:102BB000EC14FD0438F0C7018C199D09883C91057F
:102BC00050F0A9C0C094D094CE0CDF1CB8ECCB164A
:102BD000D10408F0A0C0822F807F09F058C07A1479
:102BE00099F4891489F4BB2079F42F702061209323
:102BF0008E010E94FA1489E891E00E9448148091A5
:102C00008E01F801858377C1892D6A2DA7010E9465
:102C10000915882399F5BB20A1F580919001209199
:102C20008F0116C090E0FC01EE0FFF1FE80FF91FA7
:102C3000EE0FFF1FEF56FE4F3181A31639F430819E
:102C4000931621F43281332309F055C10196877020
:102C5000821741F765C19F7061F0882351F44BC121
:102C60009F7039F0D80115969C911597907F09F4C3
:102C700042C1805E883008F43EC138C1BB2009F4EF
:102C80003AC180918E01816080938E0134C17A14A3
:102C900091F4891481F4BB2071F4F8012583C801F3
:102CA0000E944814A9E8B1E0F80186E001900D9275
:102CB0008150E1F718C19982AA8289819A810E9484
:102CC0008B14882309F412C1BB2009F40FC1409171
:102CD0008E01842F82958F7090E08230910594F060
:102CE000CE01069626E0DC011D922A95E9F7209197
:102CF000890130918A013F832E83FA86E9864B87CA
:102D00000E944814A9E8B1E0F80186E001900D9214
:102D10008150E1F7E6C0822F807FB9F49982AA82C0
:102D2000BB827E2DFD82EC82492D5A2D6B2D8D812B
:102D30000E94B81409E811E0C8010E94481486E016
:102D4000F80111928A95E9F7B7C07A1491F48914C1
:102D500081F4BB2071F4D80115962C93C8010E9410
:102D60004814E9E8F1E086E0DF011D928A95E9F771
:102D7000C0C09982AA8289819A810E948B1488237B
:102D800009F4B4C0BB2009F4B1C040918E01842F76
:102D900082958F7090E08230910594F0CE010C9670
:102DA00026E0FC0111922A95E9F7209189013091E2
:102DB0008A013D872C87F88AEF86498B0E94481448
:102DC000A9E8B1E0F80186E001900D928150E1F7A9
:102DD00088C0EC14FD0438F0C7018C199D09883CAB
:102DE000910550F056C0C094D094CE0CDF1CF8EC86
:102DF000CF16D10408F04DC0BB2009F477C07A1477
:102E000089F5891479F520918E0120FD22C0322F99
:102E100032953F70832F90E00097D9F0D801159636
:102E20002C9315978F30910541F0832F8F5F8295FA
:102E3000807F2F70282B15962C93C8010E94481470
:102E4000A9E8B1E0F80186E001900D928150E1F728
:102E50004AC0A9E8B1E0F80186E001900D928150E6
:102E6000E1F747C09982AA8289819A810E948B14D6
:102E7000882349F0A9E8B1E0F80186E001900D92BD
:102E80008150E1F72EC080918E01816080938E0188
:102E90002DC09982AA82BB827E2DFD82EC82492DB3
:102EA0005A2D6B2D8D810E94B814E9E8F1E086E07F
:102EB000DF011D928A95E9F70E94FA141CC0BB201D
:102EC000A9F09982AA8289819A810E948B14882311
:102ED00069F0A9E8B1E0F80186E001900D92815017
:102EE000E1F70E941C150E94FA1403C0C8010E9459
:102EF000481481E001C080E061960FB6F894DEBF0F
:102F00000FBECDBFCF91DF911F910F91FF90EF903A
:102F1000DF90CF90BF90AF909F908F907F9008955B
:102F20009982AA8289819A810E94FF19292F22956C
:102F30002F7030E0223031050CF48DCE2430310575
:102F4000ACF68ECEEF92FF920F931F93DF93CF9349
:102F5000CDB7DEB72C970FB6F894DEBF0FBECDBF4E
:102F60004F83588769877A878B879C878E01095F93
:102F70001F4FC8010E949715882391F04A855B85F1
:102F80008F8168850E940915882309F078C04F81D8
:102F9000588569857A858B859C850E94C7146FC08A
:102FA000DE011196F80186E001900D928150E1F763
:102FB000EF80F8840A851B858E2D6F2DA8010E9455
:102FC0000915882309F05BC020918F0130E0A90129
:102FD0004F5F5F4F477050708091900190E04817AD
:102FE000590709F453C0F901EE0FFF1FE20FF31F59
:102FF000EE0FFF1FEF56FE4FDE01119686E00D909B
:1030000001928150E1F7F901EE0FFF1FE20FF31F6C
:10301000EE0FFF1FEF56FE4FE082F1821483038311
:1030200040938F010E94D7142AC030E0C901880F55
:10303000991F820F931F880F991F8F569E4F0E94D2
:103040009715882389F18091900190E0FC01EE0FA3
:10305000FF1FE80FF91FEE0FFF1FEF56FE4F4081D5
:10306000518162817381848195810E94C71480910E
:10307000900190E00196877090708093900120916C
:10308000900180918F01281781F60EC00E9486144E
:1030900010928F0110929001E9E8F1E086E0DF01E3
:1030A0001D928A95E9F7EBCF2C960FB6F894DEBF08
:1030B0000FBECDBFCF91DF911F910F91FF90EF9089
:1030C0000895FF920F931F93CF93DF93EC01009726
:1030D00009F465C0FF2401E010E0FE01219684910F
:1030E000843748F4843008F047C0813079F082306A
:1030F00009F055C01CC0853709F43AC0853750F136
:10310000982F9458903708F04AC039C0FE01219694
:103110008491982F905E983078F58770902F01C039
:10312000990F8A95EAF7892F0E94DB1A10C0FE01D9
:1031300021968491982F905E983010F58770E02F3B
:1031400001C0EE0F8A95EAF78E2F0E94E11A0E94C5
:10315000FE1A18C0FE012196E49107C08FE99FE096
:103160000197F1F700C00000E150EE23B9F70AC063
:10317000FE012196F49006C00E94E61003C08F77EE
:103180000E94AE118F2D07C0EFE9FFE03197F1F7F4
:1031900000C000008150882309F49FCFF5CFDF9154
:1031A000CF911F910F91FF9008956093C10170938B
:1031B000C2018093C3019093C4010E9471140895C9
:1031C0006093C5017093C6018093C7019093C801B5
:1031D0000E947114089508950E94D51808952091B1
:1031E000C1013091C2014091C3015091C401622BD1
:1031F000732B842B952B0E94D51808952091C10123
:103200003091C2014091C3015091C40162237323E4
:10321000842395230E94D51808952091C1013091EF
:10322000C2014091C3015091C401622773278427D2
:1032300095270E94D518089560E070E0CB010E94A8
:10324000E018089521E030E040E050E004C0220F93
:10325000331F441F551F8A95D2F7CA01B9010E9436
:10326000E018089521E030E040E050E004C0220F73
:10327000331F441F551F8A95D2F78091C501909145
:10328000C601A091C701B091C801282B392B4A2B48
:103290005B2BCA01B9010E94E018089521E030E0DB
:1032A00040E050E004C0220F331F441F551F8A9591
:1032B000D2F720953095409550958091C501909119
:1032C000C601A091C701B091C801282339234A2320
:1032D0005B23CA01B9010E94E018089521E030E0A3
:1032E00040E050E004C0220F331F441F551F8A9551
:1032F000D2F78091C5019091C601A091C701B0910C
:10330000C801282739274A275B27CA01B9010E942B
:10331000E01808952091C5013091C6014091C70180
:103320005091C801622B732B842B952B0E94E018BF
:1033300008952091C5013091C6014091C701509177
:10334000C80162237323842395230E94E018089503
:103350002091C5013091C6014091C7015091C8012B
:1033600062277327842795270E94E01808950895FF
:10337000BF92CF92DF92EF92FF920F931F93CF9362
:10338000DF936C01E090C101F090C2010091C30194
:103390001091C4018091C5019091C601A091C7010F
:1033A000B091C801E82AF92A0A2B1B2BCFE1D0E003
:1033B000BC2ED801C7010C2E04C0B695A7959795D1
:1033C00087950A94D2F781709070009739F08C2F0E
:1033D000B6010E9469068130910531F421973FEFD3
:1033E000CF3FD30729F7BB248B2DDF91CF911F91BE
:1033F0000F91FF90EF90DF90CF90BF900895CF9303
:10340000DF93EC010E94B819BE010E946906DF91AA
:10341000CF910895CB010E94FF1908958091CD01AD
:1034200085958595859508958091CD01877008953E
:10343000982F990F990F990F962B9093CD010E9479
:10344000321908954091CD01809584238093CD0158
:10345000982F977069F450E0282F332727FD309577
:103460004217530729F08595859585950E944E1939
:1034700008959091CD01977081E009F480E008955E
:10348000909102019923E1F090910D019923C1F0EF
:10349000982F9695969596959F3068F5E0910E0138
:1034A000F0910F01E90FF11D877021E030E002C0BB
:1034B000220F331F8A95E2F78181822B8183089541
:1034C00020910E0130910F01D9011296EFEF90E09B
:1034D0004D91481781F0EF3F19F4442309F4E92F87
:1034E0009F5F9E30A9F7EF3F31F0FF27E7FDF09592
:1034F000E20FF31F82830895909102019923E9F06E
:1035000090910D019923C9F0982F969596959695CF
:103510009F3010F5E0910E01F0910F01E90FF11DC0
:10352000877021E030E002C0220F331F8A95E2F756
:103530002095818128232183089520910E013091C7
:103540000F0190E0F901E90FF11D4281481709F4DC
:1035500012829F5F9E30B1F7089580E090E001965F
:10356000E0910E01F0910F01E80FF91F10828F30EA
:103570009105A9F708959091C901982B9093C901DD
:10358000089580959091C90198239093C901089559
:103590001092C90108959091CC01982B9093CC0181
:1035A000089580959091CC0198239093CC01089533
:1035B0001092CC0108959091CB01982B9093CB0160
:1035C000089580959091CB0198239093CB01089515
:1035D0001092CB0108958093CA0108951092CA01F8
:1035E0000895E0910E01F0910F0131969FE080E087
:1035F000219121118F5F9150D9F70895E0910E012B
:10360000F0910F018091C9018083E0910E01F0914A
:103610000F0180819091CC01892B8083E0910E0174
:10362000F0910F0180819091CB01892B8083909143
:10363000CA01992369F0E0910E01F0910F01808198
:10364000892B80830E94F11A882311F00E94EE1AC0
:1036500080910E0190910F010E94D10F08959C015D
:1036600080E006C0A90141505040242335238F5FDC
:1036700021153105B9F708959C01442755272115D7
:1036800031054105510521F0CA01B901E0E101C050
:10369000E0E0272F382F492F552721153105410507
:1036A000510519F0E85FCA01B9019B01AC01B4E012
:1036B0005695479537952795BA95D1F72115310538
:1036C0004105510519F0EC5FCA01B9019B01AC013C
:1036D000A2E05695479537952795AA95D1F72115DC
:1036E00031054105510519F0EE5FCA01B901969502
:1036F000879577956795611571058105910509F0A5
:10370000EF5F8E2F08958091F701843021F11092A0
:10371000DF0120E488E190E00FB6F894A89580934B
:1037200060000FBE2093600080E00E94710883B7A4
:10373000817F846083BF83B7816083BF78948895DD
:1037400083B78E7F83BF88E10FB6F89480936000C3
:10375000109260000FBE089508950E94D1020E9449
:10376000E4020E94AC1B0E94EA0391E0882309F462
:1037700090E0892F08950E9486140E94C40F0E9431
:103780007108089582E084BD93E095BD9AEF97BDDE
:1037900080936E0008958FB7F8942091E0013091E6
:1037A000E1014091E2015091E3018FBFC901089509
:1037B000EF92FF920F931F93FC018FB7F894209123
:1037C000E0013091E1014091E2015091E3018FBFAE
:1037D0008FEFE82E8FEFF82E012D112DE222F3222C
:1037E00004231523BF0180E090E0E616F7060807E2
:1037F000190720F0B9016E1B7F0B05C0BF01609552
:103800007095620F731FCB011F910F91FF90EF9086
:1038100008951F920F920FB60F9211248F939F93CA
:10382000AF93BF938091E0019091E101A091E201FB
:10383000B091E3010196A11DB11D8093E001909329
:10384000E101A093E201B093E301BF91AF919F9199
:103850008F910F900FBE0F901F9018950E94AC0C87
:10386000F8948FEF97EAA1E681509040A040E1F7ED
:1038700000C0000087E090EBA7E0B0EB809300026F
:1038800090930102A0930202B09303022CE088E11E
:1038900090E00FB6F894A895809360000FBE209337
:1038A0006000FFCFDF92EF92FF920F931F93CF93B1
:1038B000DF939DE0D92EE82EFF248D2D0E94E30397
:1038C000C5E0D0E0082F10E098010C2E02C035951D
:1038D00027950A94E2F720FF08C080E06C2F7D2D29
:1038E0000E945306E816F90659F021973FEFCF3FA3
:1038F000D30751F7DA948D2D8F3FF9F680E001C0A0
:1039000081E0DF91CF911F910F91FF90EF90DF90B9
:1039100008951F93182F8CE20E94521C882321F0D7
:10392000812F0E94521C01C080E01F9108951F93B7
:103930000E94FC1D882311F40E94E11D14E608C0BA
:103940000E94E4028FE39CE90197F1F700C00000B8
:103950001150B0F789E20E94891C882309F02FC119
:103960008AE20E94891C882311F00E94E11D85E0F3
:103970000E94891C882311F00E942E1C0E94081EA0
:103980008093DE0187E00E94891C8823B9F18BE1D6
:103990000E94891C882349F09091DE01892F869529
:1039A00080958170880F9D7F26C08EE00E94891CC3
:1039B000882359F09091DE01892F86958695809510
:1039C0008170880F880F9B7F16C080E10E94891C40
:1039D0009091DE01882359F0892F869586958695EA
:1039E00080958170880F880F880F977F04C0892F7A
:1039F000809581709E7F982B9093DE018091DE01EF
:103A00000E940D1E0E941E1E8093F1011092F20171
:103A100080EE0E94891C882349F08091F101982F43
:103A2000909591708E7F892B8093F10189E30E949C
:103A3000891C882359F09091F101892F86958095F2
:103A40008170880F9D7F982B9093F10182EE0E94E8
:103A5000891C882369F09091F101892F86958695BC
:103A600080958170880F880F9B7F982B9093F10130
:103A700086EE0E94891C882379F09091F101892FAC
:103A800086958695869580958170880F880F880F1A
:103A9000977F982B9093F10183EE0E94891C8823D5
:103AA00069F09091F101892F82958F7080958170D6
:103AB0008295807F9F7E982B9093F10185E30E94F1
:103AC000891C882379F09091F101892F8295869540
:103AD0008770809581708295880F807E9F7D982B5E
:103AE0009093F10181E30E94891C882389F09091D1
:103AF000F101892F829586958695837080958170D6
:103B00008295880F880F807C9F7B982B9093F10182
:103B100081E10E94891C882379F09091F101892F1D
:103B2000881F8827881F21E0822787958827879507
:103B30009F77982B9093F1018091F1010E94231EB1
:103B40008091F101881F8827881F80930D0187E2EB
:103B50000E94891C182F8EE10E94891C811112601D
:103B60008FE10E94891C8111146080E20E94891CEF
:103B70008111186081E20E94891C8111106182E22A
:103B80000E94891C8111106283E20E94891C8111AC
:103B9000106484E20E94891C882311F0106802C01E
:103BA000112329F0812F0E94181E612F03C00E944B
:103BB000131E682F70E080E090E00E94EC181F91C7
:103BC000089580E090E06DEE7EEF0E946D2482E02B
:103BD00090E060E00E945B2483E090E060E00E945F
:103BE0005B2484E090E060E00E945B2485E090E04C
:103BF00060E00E945B24089580E090E00E945524DC
:103C000021E03EEF8D3E930709F020E0822F0895DA
:103C100082E090E00E944D240895682F82E090E0B9
:103C20000E945B24089583E090E00E944D24089553
:103C3000682F83E090E00E945B24089584E090E088
:103C40000E944D240895682F84E090E00E945B2438
:103C500008958091EA0180FF0BC06091120185E018
:103C6000689FB0011124759567957595679530C06B
:103C700081FF09C06091120185E0689FB0011124A5
:103C80007595679525C082FF07C06091120185E098
:103C9000689FB00111241CC08091E9018823F9F0CC
:103CA0006091130120911201861728F065E0269F8C
:103CB000B00111240DC0829F90011124C901880F09
:103CC000991F880F991F820F931F70E00E9426246E
:103CD0006038710540F46115710539F002C065E086
:103CE00070E0862F08958FE7089581E00895809110
:103CF000EA0180FF08C06091140170E07595679536
:103D00007595679523C081FF06C06091140170E02E
:103D1000759567951BC082FF03C0609114010BC0AD
:103D20008091E9018823D9F06091150190911401E7
:103D3000861718F0692F70E006C0899FC001112412
:103D400070E00E9426246038710528F46115710521
:103D500021F0862F08958FE7089581E0089561E0AE
:103D600070E0F4CF803F21F40E94291E819504C0A9
:103D7000813F29F40E94291E8093E6010895823F25
:103D800021F40E94291E819504C0833F29F40E94DA
:103D9000291E8093E5010895893F19F40E94771E3A
:103DA00005C08A3F31F40E94771E81958093E70118
:103DB00008958B3F21F40E94771E819504C08C3FAB
:103DC00029F40E94771E8093E8010895843F21F42E
:103DD0008091E401816017C0853F21F48091E40166
:103DE000826011C0863F21F48091E40184600BC0A1
:103DF000873F21F48091E401886005C0883F31F459
:103E00008091E40180618093E40108958D3F21F465
:103E10008091EA01816005C08E3F31F48091EA0112
:103E200082608093EA0108958F3F29F48091EA012E
:103E300084608093EA010895803F29F48091E6012F
:103E400087FF6FC007C0813F41F48091E6011816DB
:103E50000CF067C01092E60164C0823F29F48091A3
:103E6000E50187FF5EC007C0833F41F48091E50113
:103E700018160CF056C01092E50153C0893F29F482
:103E80008091E70118163CF04CC08A3F39F48091CC
:103E9000E70187FF46C01092E70143C08B3F29F43A
:103EA0008091E80187FF3DC006C08C3F39F48091C6
:103EB000E8011816B4F51092E80133C0843F21F4EC
:103EC0008091E4018E7F05C0853F31F48091E4014B
:103ED0008D7F8093E40125C0863F21F48091E40129
:103EE0008B7FF7CF873F21F48091E401877FF1CF6B
:103EF000883F21F48091E4018F7EEBCF8D3F21F448
:103F00008091EA018E7F0BC08E3F21F48091EA01FF
:103F10008D7F05C08F3F29F48091EA018B7F8093CC
:103F2000EA018091E501882371F48091E6018823FC
:103F300051F48091E701882331F48091E8018823CE
:103F400011F41092E901089584EE91E00E94DC0FD3
:103F50000E94CB1B9093EC018093EB0108951F937B
:103F60008091EB019091EC010E94D81B4091E901F6
:103F7000442321F02091110130E006C0309110015E
:103F80002AE0329F900111248217930708F485C01C
:103F90008091E501882369F49091E601992349F421
:103FA0009091E701992329F49091E801992309F46C
:103FB00074C04F3F19F04F5F4093E901181624F485
:103FC0000E94291E8093E5018091E50187FF05C0CD
:103FD0000E94291E81958093E5018091E6011816C3
:103FE00024F40E94291E8093E6018091E60187FF58
:103FF00005C00E94291E81958093E6016091E5012C
:10400000662339F11091E601112319F1772767FD35
:104010007095872F972F0E94372323E333E343E3E1
:104020005FE30E949B230E9404236093E501612FBC
:10403000772767FD7095872F972F0E94372323E3FB
:1040400033E343E35FE30E949B230E9404236093D6
:10405000E6018091E701181624F40E94771E8093F0
:10406000E7018091E70187FF05C00E94771E8195D7
:104070008093E7018091E801181624F40E94771ECE
:104080008093E8018091E80187FF05C00E94771EB8
:1040900081958093E8010E94A41F1F910895E4EE8A
:1040A000F1E085E0DF011D928A95E9F71092E901C0
:1040B0001092EA010895833099F1843030F4813010
:1040C00069F0823009F06FC01AC0853009F44AC027
:1040D0008530B8F1863009F066C055C020911001D6
:1040E000822F90E0860F911D8F3F910520F4620F83
:1040F0006093100108958FEF80931001089520912F
:104100001101822F90E0860F911D8F3F910520F4C1
:10411000620F6093110108958FEF8093110108954C
:1041200020911201822F90E0860F911D8F3F910503
:1041300020F4620F6093120108958FEF80931201B3
:10414000089520911301822F90E0860F911D8F3FDB
:10415000910520F4620F6093130108958FEF80930F
:104160001301089520911401822F90E0860F911D74
:104170008F3F910520F4620F6093140108958FEF33
:1041800080931401089520911501822F90E0860FED
:10419000911D8F3F910520F4620F609315010895E2
:1041A0008FEF809315010895833031F1843030F41E
:1041B000813061F0823009F04AC013C0853091F13E
:1041C000853028F1863009F042C037C08091100157
:1041D000681720F4861B8093100108951092100137
:1041E000089580911101681720F4861B80931101B6
:1041F000089510921101089580911201681720F41A
:10420000861B8093120108951092120108958091E7
:104210001301681720F4861B8093130108951092F0
:104220001301089580911401681720F4861B809370
:1042300014010895109214010895809115016817D2
:1042400020F4861B8093150108951092150108959E
:1042500021E030E040E050E004C0220F331F441F53
:10426000551F8A95D2F7CA01B9010E94EC180E9425
:10427000861408958D3109F443C08E3120F58E30B7
:1042800009F475C08F3070F4873009F457C0883056
:1042900018F4863099F53BC0883009F49FC08B3004
:1042A00069F59CC0863109F499C0873130F48031BA
:1042B00009F46EC0813111F581C0893109F48EC0D5
:1042C0008B31E1F44AC0853309F485C0863348F464
:1042D000873209F480C0873208F47BC0893271F4D8
:1042E0007AC0833430F48A3308F071C0883331F4F3
:1042F00075C0833409F46FC0883491F080E008956C
:104300000E94BE220E94C40F0E94710867C0809163
:10431000DE01807F8093DE0181E08093ED010895CE
:104320000E9486148FEF93EDA0E381509040A0404F
:10433000E1F700C000000E942E1C50C08091DE01F9
:10434000982F909591708E7F892B992311F08E6014
:1043500001C0817F8093DE0141C09091DE01892FF1
:10436000869580958170282F220F9D7F0BC090919C
:10437000DE01892F8695869580958170282F220FE2
:10438000220F9B7F922B9093DE01882339F112C07C
:104390009091DE01892F869586958695809581700E
:1043A000282F220F220F220F977F922B9093DE014E
:1043B0008823B1F091609093DE0110C00E948614B2
:1043C00080910D0191E0892780930D0107C08953E9
:1043D00003C08D5101C080E00E94282181E0089532
:1043E00081E0089580E0089580E008951F93182FDC
:1043F0008091ED01813089F0813020F0823009F028
:1044000095C03DC0A0910E01B0910F018C918131FA
:1044100069F0823209F08CC009C0A0910E01B09100
:104420000F018C91813111F0823251F4812F0E9461
:10443000F221882309F081C0812F0E943A217BC09C
:10444000812F0E94F421882309F077C0143169F08C
:10445000153130F41B3009F470C0103169F408C014
:10446000193219F0183341F468C01092ED0104C0FC
:1044700082E08093ED0161C080E090E05CC0193281
:10448000E1F01A3268F41431C1F0153120F417301C
:1044900009F050C039C01E51163008F04BC018C08A
:1044A0001E3461F11F3420F41B3409F043C020C0D6
:1044B0001135D1F01235F1F513C08091EE0188234A
:1044C00019F01092EE0136C081E08093ED0133C007
:1044D000E12FF0E0E25DFE4F80818093EE012AC083
:1044E0008091EE0161E007C08091EE0161E009C0BA
:1044F0008091EE016AE00E945B201CC08091EE0179
:104500006AE00E94D42016C08AE08093100194E1F2
:104510009093110193E0909312018093130188E02E
:104520008093140188E28093150104C01092ED017C
:1045300080E001C081E01F91089581E090E0FBCF11
:10454000E1E8F0E080818860808380818160808301
:104550008FB7F89493E09093890090ED9093880042
:104560008FBF0895EFE6F0E0808182608083089538
:10457000EFE6F0E080818D7F80830895EFE6F0E044
:10458000808192E08927808308951F920F920FB651
:104590000F9211242F933F934F935F936F937F93C9
:1045A0008F939F93AF93BF93EF93FF938091EF010E
:1045B0009091F00101969093F0018093EF01882390
:1045C00019F482E00E947108E091F001E695E69509
:1045D000F0E0E555FC4FE4918091EF018E1719F45E
:1045E00080E00E947108FF91EF91BF91AF919F9180
:1045F0008F917F916F915F914F913F912F910F908C
:104600000FBE0F901F90189504D06894B1118DC003
:10461000089570D088F09F5790F0B92F9927B7511F
:10462000A0F0D1F0660F771F881F991F1AF0BA9576
:10463000C9F712C0B13081F077D0B1E0089574C0ED
:10464000672F782F8827B85F39F0B93FCCF386956C
:1046500077956795B395D9F73EF4909580957095C9
:1046600061957F4F8F4F9F4F0895E89409C097FB46
:104670003EF490958095709561957F4F8F4F9F4F39
:104680009923A9F0F92F96E9BB279395F69587957D
:1046900077956795B795F111F8CFFAF4BB0F11F440
:1046A00060FF1BC06F5F7F4F8F4F9F4F16C08823E7
:1046B00011F096E911C0772321F09EE8872F762F1D
:1046C00005C0662371F096E8862F70E060E02AF05E
:1046D0009A95660F771F881FDAF7880F969587954A
:1046E00097F9089557FD9058440F551F59F05F3FB3
:1046F00071F04795880F97FB991F61F09F3F79F004
:1047000087950895121613061406551FF2CF469585
:10471000F1DF08C0161617061806991FF1CF869507
:104720007105610508940895E894BB2766277727EB
:10473000CB0197F908950BD078C069D028F06ED0DE
:1047400018F0952309F05AC05FC01124EECFCADFDC
:10475000A0F3959FD1F3950F50E0551F629FF00194
:10476000729FBB27F00DB11D639FAA27F00DB11DED
:10477000AA1F649F6627B00DA11D661F829F222776
:10478000B00DA11D621F739FB00DA11D621F839FFD
:10479000A00D611D221F749F3327A00D611D231FD3
:1047A000849F600D211D822F762F6A2F11249F5721
:1047B00050408AF0E1F088234AF0EE0FFF1FBB1F44
:1047C000661F771F881F91505040A9F79E3F5105E3
:1047D00070F014C0AACF5F3FECF3983EDCF38695EF
:1047E00077956795B795F795E7959F5FC1F7FE2B8E
:1047F000880F911D9695879597F9089597F99F676A
:1048000080E870E060E008959FEF80EC0895002458
:104810000A941616170618060906089500240A9425
:1048200012161306140605060895092E0394000CAB
:1048300011F4882352F0BB0F40F4BF2B11F460FF3A
:1048400004C06F5F7F4F8F4F9F4F089597FB092ED6
:1048500007260AD077FD04D00CD006D000201AF429
:10486000709561957F4F0895F6F7909581959F4FCC
:104870000895AA1BBB1B51E107C0AA1FBB1FA617A7
:10488000B70710F0A61BB70B881F991F5A95A9F7F9
:1048900080959095BC01CD010895F999FECF92BD08
:1048A00081BDF89A992780B50895A8E1B0E042E06B
:1048B00050E00C947524262FF999FECF92BD81BD4E
:1048C000F89A019700B4021639F01FBA20BD0FB64E
:1048D000F894FA9AF99A0FBE08950196272F0E942C
:1048E0005C240C945B24DC01CB01FC01F999FECF24
:1048F00006C0F2BDE1BDF89A319600B40D92415068
:0A4900005040B8F70895F894FFCF77
:10490A0002200174080409E008AB08770801CE0107
:10491A000A14030A08281C0335034E036703FC0123
:10492A003C028902BF0240004D00360039000102F4
:08493A0003040506070809004B
:00000001FF
