:100000000C94EE070C9432080C9432080C943208CD
:100010000C9432080C9432080C9432080C94320878
:100020000C9432080C9432080C94231A0C94F51A90
:100030000C94D4280C9432080C9432080C94320896
:100040000C9432080C9432080C9432080C94320848
:100050000C9432080C943C290C9432080C9432080D
:100060000C9432080C9432080C9432080C94320828
:100070000C9432080C9432080C9432080C94320818
:100080000C94BD140C9432080C9432080C94320871
:100090000C9432080C9432080C9432080C943208F8
:1000A0000C9432080C9432080C9432082809440944
:1000B0002C093009340938093C094009621B841BAA
:1000C000721C841B721CC91BEC1B721C411C541C2F
:1000D000731F731FA21FA21FE11F4C214C214C2133
:1000E00001204C21B120B120182121214C21462191
:1000F000BE20BE20BE20BE20BE20BE20BE20BE2010
:10010000BE20BE20BE20BE20BE20BE20BE20BE20FF
:10011000CE20DC20E320EA20F420696E69745F625F
:1001200061636B6C696768745F70696E28290A0087
:1001300000F001F002F003F004F005F006F007F023
:1001400029001E001F00200021002200230024009F
:100150002B0014001A000800150017001C001800DE
:10016000390004001600070009000A000B000D000A
:100170000152E1001D001B000600190005001100DE
:10018000E000E200E3008B0000002C002C000000E7
:100190002500260027002D002E0035002A004B00E8
:1001A0000C00120013002F003000310000004E0040
:1001B0000E000F0033003400320028000000000061
:1001C0001000360037003800E500015252000000F0
:1001D0008A000000E700E600E400500051004F00F4
:1001E00035003A003B003C003D003E003F0040002F
:1001F00001000100010001000100010001000100F7
:100200000100010002520100010001000100010093
:100210000152010001000100010001000100010084
:1002200001000100010001000000010001000000C8
:100230004100420043004400450001004C0083504F
:10024000010047004800010001000100000001001A
:100250000100010001000100010001000000000098
:100260000100010001000100010001524B000000EB
:10027000010000000100010001004A004E004D0095
:100280000100010001000100010001000100010066
:100290000100010001000100005001000100010007
:1002A00001000100025201000100010001000100F3
:1002B00001520100010001000100010001000100E4
:1002C00001000100010001000000012001200000E8
:1002D00001000100010001000100010000200620D2
:1002E00001000100010001000100010000000720E1
:1002F00001000100010001000100010000000000F8
:100300000100010001000100010001520420000071
:10031000010000000100010001000320052002206F
:100320000A44454255473A20656E61626C65642E09
:100330000A005374617465206F6620726F77202500
:10034000583A2025303136620A0048756D616E2DAD
:100350007265616461626C65206D61747269782098
:1003600073746174653A0D0A004465626F756E635B
:10037000696E672064656C61792072656D61696E74
:10038000696E673A2025580A0054494D455233207A
:1003900064697361626C65642E0A0054494D45526C
:1003A0003320656E61626C65642E0A007267626C50
:1003B000696768742073657420687376205B4545AF
:1003C00050524F4D5D3A2025752C25752C25750A08
:1003D000007267626C6967687420746F67676C6528
:1003E0003A207267626C696768745F636F6E6669F2
:1003F000672E656E61626C65203D2025750A00726E
:1004000067626C69676874206D6F64653A20257552
:100410000A007267626C696768745F696E6974204C
:100420007267626C696768745F636F6E6669672E76
:100430006D6F6465203D20302E20577269746520F1
:1004400064656661756C742076616C756573207483
:100450006F20454550524F4D2E0A007267626C69FD
:100460006768745F696E6974206565636F6E66693D
:1004700067206973206E6F7420656E61626C6564BD
:100480002E0A007267626C696768745F696E6974CE
:10049000207374617274210A007267626C69676804
:1004A000745F696E69742063616C6C65642E0A0008
:1004B0007267626C696768745F636F6E6669672EE6
:1004C00076616C203D2025640A007267626C696762
:1004D00068745F636F6E6669672E736174203D2078
:1004E00025640A007267626C696768745F636F6E87
:1004F0006669672E687565203D2025640A0072676D
:10050000686C696768745F636F6E6669672E6D6F8C
:100510006465203D2025640A007267626C69676823
:10052000745F636F6E6669672E656E61626C6520CD
:100530003D2025640A007267626C696768745F63B6
:100540006F6E666967206570726F6D0A006565631E
:100550006F6E6669675F7570646174655F7267620C
:100560006C696768745F64656661756C740A0064C1
:100570003214643214783C1E1E140A050000000078
:100580000101010202030405050607090A0B0C0E0E
:100590000F1112141517191B1D1F212325282A2C92
:1005A0002F313436393B3E414346494C4F52555822
:1005B0005A5D6164676A6D707376797C7F83868922
:1005C0008C8F9295989B9EA2A5A7AAADB0B3B6B901
:1005D000BCBEC1C4C6C9CBCED0D3D5D7DADCDEE031
:1005E000E2E4E6E8EAEBEDEEF0F1F3F4F5F6F8F923
:1005F000FAFAFBFCFDFDFEFEFEFFFFFFFFFFFFFF23
:10060000FEFEFEFDFDFCFBFAFAF9F8F6F5F4F3F157
:10061000F0EEEDEBEAE8E6E4E2E0DEDCDAD7D5D3B3
:10062000D0CECBC9C6C4C1BEBCB9B6B3B0ADAAA703
:10063000A5A29E9B9895928F8C898683807C7976E3
:1006400073706D6A6764615D5A5855524F4C4946E4
:1006500043413E3B393634312F2C2A282523211F94
:100660001D1B1917151412110F0E0C0B0A09070682
:10067000050504030202010101000000000101025E
:10068000020202020203030303030303030303033F
:10069000030303040404040404040404040404051C
:1006A00005050505050505050506060606060606F3
:1006B00006070707070707070808080808080909C1
:1006C000090909090A0A0A0A0A0B0B0B0B0B0C0C85
:1006D0000C0C0C0D0D0D0D0E0E0E0E0F0F0F10103D
:1006E00010101111111212121313131414141515E2
:1006F000161616171718181919191A1A1B1B1C1C6D
:100700001D1D1E1E1F2020212122232324242526D7
:1007100026272828292A2B2B2C2D2E2F303031321A
:10072000333435363738393A3B3C3D3E3F40414221
:1007300044454647494A4B4C4E4F515253555658E3
:100740005A5B5D5E6062636567696B6D6E70727443
:1007500076797B7D7F818486888B8D909295979A20
:100760009D9FA2A5A8ABAEB1B4B7BABEC1C4C8CB59
:10077000CFD3D6DADEE2E6EAEEF2F8FF5B735D0095
:100780004B6579626F6172642073746172742E0AB2
:10079000005B575D005B535D005B525D005B445D39
:1007A000005B435D00420343006C0075006500621E
:1007B000006F00610072006400200077006900741F
:1007C0000068002000520047004200200055006EE3
:1007D000006400650072006C0069006700680074C6
:1007E0000069006E0067000000140343006C007590
:1007F00000650062006F0061007200640000000488
:1008000003090409027400040100A0FA09040000AD
:100810000103010100092111010001223F00070528
:10082000810308000A0904010001030000000921F6
:10083000110100012236000705820308000A09049D
:100840000200020300000009211101000122200022
:1008500007058303200001070503032000010904A5
:1008600003000103000000092111010001223900E9
:10087000070584031000011201100100000008EDBB
:10088000C1202301000102000105010906A10105A3
:100890000719E029E7150025019508750181020572
:1008A00008190129059505750191029501750391B6
:1008B0000105071900297715002501957875018133
:1008C00002C00631FF0974A1010975150025FF95C5
:1008D00020750881020976150025FF95207508917D
:1008E00002C005010980A101850216010026B7009A
:1008F0001A01002AB700751095018100C0050C0986
:1009000001A1018503160100269C021A01002A9C00
:1009100002751095018100C005010906A1010507B6
:1009200019E029E715002501950875018102950157
:1009300075088101050819012905950575019102C0
:100940009501750391010507190029FF150025FF81
:10095000950675088100C00A002530325820006BCA
:100960006579626F6172645F7265706F72743A204C
:10097000004B6579626F617264204C45447320734B
:10098000746174653A2025780A0064656C5F6B6554
:10099000795F6269743A2063616E27742064656CC4
:1009A0003A20253032580A006164645F6B65795FD4
:1009B0006269743A2063616E2774206164643A202E
:1009C000253032580A00646F6E652E0A00626F6F20
:1009D000676D61676963207363616E3A202E2E2E06
:1009E00020003F00433E20004C25640A0074696DDE
:1009F00065725F636F756E743A202530346C580AE7
:100A0000006B6579626F6172645F6E6B726F3A2022
:100A100025580A006B6579626F6172645F69646C66
:100A2000653A2025580A006B6579626F6172645FD0
:100A300070726F746F636F6C3A2025580A00686F8C
:100A400073745F6B6579626F6172645F6C65647308
:100A500028293A2025580A000A092D205374617468
:100A60007573202D0A004743433A20342E392E3225
:100A7000204156522D4C4942433A20312E382E31D6
:100A8000204156525F415243483A20617672350AFE
:100A9000004F5054494F4E533A204C554641204246
:100AA0004F4F544D414749432045585452414B45BF
:100AB0005920434F4E534F4C4520434F4D4D414ECF
:100AC00044204E4B524F20343039360A00425549AB
:100AD0004C443A20313637313865662D646972747A
:100AE00079202832333A31303A3233204A756E2039
:100AF00020392032303136290A005649443A203014
:100B0000784331454428436C7565626F617264298E
:100B1000205049443A2030783233323028436C75C3
:100B200065626F6172642077697468205247422061
:100B3000556E6465726C69676874696E67292056C2
:100B400045523A203078303030310A004445534322
:100B50003A20514D4B206B6579626F61726420665B
:100B600069726D7761726520666F7220436C75657E
:100B7000626F6172640A000A092D205665727369FA
:100B80006F6E202D0A000A092D20436F6E736F6C63
:100B900065202D0A4553432F713A09717569740A0E
:100BA000000A092D204D61676963202D0A443A0926
:100BB0004465627567204D65737361676520546F86
:100BC00067676C650A583A094D6174726978204408
:100BD00065627567204D6F646520546F67676C654B
:100BE000202D2053686F77206B6579707265737361
:100BF000657320696E206D6174726978206772690F
:100C0000640A4B3A094B6579626F617264204465EE
:100C100062756720546F67676C65202D2053686F7D
:100C200077206B65797072657373207265706F726F
:100C3000740A4D3A094465627567204D6F75736596
:100C400020546F67676C650A563A09566572736976
:100C50006F6E0A533A095374617475730A433A0903
:100C6000416374697661746520436F6E736F6C6560
:100C7000204D6F64650A46312D4631303A0953776D
:100C80006974636820746F204C6179657220302D1F
:100C9000392028463130203D204C30290A302D396A
:100CA0003A0953776974636820746F204C617965E1
:100CB0007220302D390A4553433A095377697463DA
:100CC0006820746F204C6179657220302028616C37
:100CD0007465726E617465206B65792031290A47ED
:100CE000524156453A0953776974636820746F20FE
:100CF0004C6179657220302028616C7465726E6178
:100D00007465206B65792032290A50415553453A64
:100D1000094A756D7020746F20426F6F746C6F613B
:100D200064657220285265736574290A453A095032
:100D300072696E7420454550524F4D20536574744E
:100D4000696E67730A4E3A094E4B524F20546F67D3
:100D5000676C650A000A002575002E6C6576656C67
:100D60003A20000A002575002E656E61626C653AB6
:100D700020000A0025303258006261636B6C69679D
:100D800068745F636F6E6669672E7261773A2000E0
:100D90000A002575002E6E6B726F3A20000A00253E
:100DA00075002E737761705F6261636B736C617342
:100DB000685F6261636B73706163653A20000A006B
:100DC0002575002E737761705F67726176655F6568
:100DD00073633A20000A002575002E6E6F5F6775F9
:100DE000693A20000A002575002E737761705F72E2
:100DF000616C745F726775693A20000A002575009E
:100E00002E737761705F6C616C745F6C6775693AA3
:100E100020000A002575002E636170736C6F636B90
:100E20005F746F5F636F6E74726F6C3A20000A00BC
:100E30002575002E737761705F636F6E74726F6CCF
:100E40005F636170736C6F636B3A20000A0025303A
:100E50003258006B65796D61705F636F6E666967AC
:100E60002E7261773A20000A002575002E6D6F758D
:100E700073653A20000A002575002E6B6579626F54
:100E80006172643A20000A002575002E6D6174724B
:100E900069783A20000A002575002E656E61626C43
:100EA000653A20000A002530325800646562756793
:100EB0005F636F6E6669672E7261773A20000A0081
:100EC00025750064656661756C745F6C6179657227
:100ED0003A20003F004E4B524F3A206F66660A00A0
:100EE0004E4B524F3A206F6E0A000A6D6F75736554
:100EF0003A206F66660A000A6D6F7573653A206F57
:100F00006E0A000A6B6579626F6172643A206F66DF
:100F1000660A000A6B6579626F6172643A206F6ECF
:100F20000A000A6D61747269783A206F66660A0079
:100F30000A6D61747269783A206F6E0A000A6465FE
:100F40006275673A206F66660A000A6465627567B3
:100F50003A206F6E0A000A0A4A756D70696E672042
:100F6000746F20626F6F746C6F616465722E2E2EC9
:100F70002000433E20006565636F6E6669673A0A2C
:100F8000006261636B6C6967687420737465703AA2
:100F90002025750A006261636B6C69676874207450
:100FA0006F67676C653A2025750A006261636B6C38
:100FB000696768742064656372656173653A2025AA
:100FC000750A006261636B6C6967687420696E639F
:100FD00072656173653A2025750A000011241FBEF1
:100FE000CFEFDAE0DEBFCDBF04B603FE24C08091B0
:100FF0002E0290912F02A0913002B09131028730E1
:10100000904BA740B04BB9F410922E0210922F02D1
:10101000109230021092310214BE84B7877F84BFD1
:1010200088E10FB6F89480936000109260000FBEC4
:10103000E0E0F8E3099511E0A0E0B1E0E6EAFFE5C1
:1010400002C005900D92A633B107D9F712E0A6E3CE
:10105000B1E001C01D92AE32B107E1F70E945D1709
:101060000C94D12F0C940000FF93EF93E091360184
:10107000F0913701309709F00995EF91FF910895AC
:10108000FC018591803011F0EFDFFBCF0895FF2741
:10109000E0E230E247FF0CC0419597FF09C0EDE266
:1010A0006095709580959095611D711D811D911DB4
:1010B00027FF02C0219530E350E2AA27660F771F71
:1010C000881F991FAA1FA41710F0A41B63955A9597
:1010D000A9F7AA3008F0A95FA05DAF93F395611559
:1010E00071058105910541F7ED3211F4EF93F39508
:1010F000F21718F43F93F395FBCF8F91B5DFFA9574
:10110000E1F70895E991F9918591803021F08532D8
:1011100019F0AADFF9CF089520E0E89455915532EF
:10112000C1F3503311F4689455915A3348F4505335
:1011300090F3220F022E220F220F200D250FF4CF45
:101140000EF4219589919991533619F3533729F16A
:10115000533559F1BC0188279927E8945C3621F46E
:101160008991999168945591543639F446EF7EF0FF
:1011700077FF0DC08FEF9FEF0AC055374AE039F077
:10118000583540E121F0523642E009F00895FF93CE
:10119000EF937DDFEF91FF91B7CFFF93EF93FC01CA
:1011A00081918030B9F360DFFBCFFF93EF9368DF6D
:1011B000F1CFDF93CF93CDB7DEB72596A3DFCF91E5
:1011C000DF9108958AE191E00E944008569A279A9B
:1011D000549A5E982F985C980895811104C05E9A85
:1011E0002F9A5C9A08955E982F985C980895249A97
:1011F000089581FF02C02C9A08952C9808950895AF
:1012000008958FEF98E0892B11F00E94FF080E944B
:10121000F7080E94E2080E94F41185B7806885BF34
:1012200085B7806885BF089580E099E0892B11F02B
:101230000C9400090895462F50E04830510538F5C8
:10124000FA01EA5AFF4FDC0112968C910C94832F1D
:101250008823E9F00C945F128823C9F00C94CB101A
:101260008823A9F00C94E310882389F00C940211D0
:10127000882369F00C941D11882349F00C943711D0
:10128000882329F00C94521181110C945512089561
:1012900081E0089581E008950C944A0908950F9320
:1012A0001F93CF93DF938C01FC01C081D181CE01CC
:1012B0000E94AC26BE010E94FE09EC01B8010E940A
:1012C0004C09882309F48DC0F8018281882309F430
:1012D0004AC08091430181111FC0C431F0E5DF078E
:1012E00009F051C00E944E0981E0809343010E94A1
:1012F0000629909342018093410110923A01109285
:101300003C0110923B0110923E0110923D0110925F
:10131000400110923F0165C08091410190914201CE
:101320000E941229883C910570F480913A01E82FBF
:10133000F0E0EE0FFF1FE55CFE4FD183C0838F5FAF
:1013400080933A014EC0C43880E5D80721F0C538F3
:10135000D04501F13AC0F8018281882341F0109212
:10136000380182E01EC0C438E0E5DE0759F58091FF
:101370003801811106C086E20E94171E86E20E9493
:10138000DF1E82E01CC0C438F0E5DF0741F3C5383A
:10139000D045D9F4F8018281882331F010923901C7
:1013A00080E20E942E1F1DC080913901811106C06C
:1013B00087E20E94171E87E20E94DF1E80E20E94E1
:1013C000351F0FC0C538D04529F381E0809338011F
:1013D00080933901C801DF91CF911F910F910C9437
:1013E000480980E0DF91CF911F910F9108950C94EF
:1013F00001090C94140980E090E00895E72FF0E0D3
:101400009AE0899FE00DF11D112483E0EE0FFF1F8C
:101410008A95E1F7E60FF11DEE0FFF1FE05CFE4F2E
:10142000859194910895880F991FFC01E055F04033
:10143000859194910895880F991FFC01E05DFE4FFE
:101440008591949108950F931F93CF93DF93EC01AF
:10145000811521E39207A0F5C11580E3D80708F0B4
:10146000D7C0C83ED105D8F4C03ED10508F007C2A8
:10147000C83AD10578F4C53AD10508F06AC0C13040
:10148000D10509F463C008F4F7C1C430D10508F0F0
:10149000F6C1F2C1CB3BD10508F466C0EDC1C11560
:1014A00090E2D90708F0AFC0C11521E0D20708F0DB
:1014B000E6C1C03FD10508F4DFC18E0110651FC22F
:1014C000C03880E5D80700F5C03790E5D90708F0A7
:1014D000A3C0C11520E5D20709F4ACC050F4CE0179
:1014E000905480319F4008F0C7C1DF708E01106AB0
:1014F00006C2C13080E5D80709F4AAC0C43190E51E
:10150000D90708F4AFC0B8C1C33820E5D20709F441
:101510008EC050F4C13890E5D90709F482C008F0B4
:1015200083C000E011EDEBC1C03181E5D80708F4BC
:10153000A3C1C11597E5D90708F436C1CE0190576C
:101540008115904108F098C1DF7093C101E010E06F
:10155000D6C1C53AD10509F494C1C63AD10509F0FE
:1015600093C102E810E4CBC1C83AD10509F48FC198
:10157000C93AD10509F48EC1CA3AD10509F48DC121
:10158000CB3AD10509F48CC1CC3AD10509F48BC111
:10159000CD3AD10509F48AC1C03BD10509F489C10E
:1015A000CE3AD10509F488C1CF3AD10509F487C1F3
:1015B000C13BD10509F486C1C23BD10509F485C1FF
:1015C000C33BD10509F484C1C43BD10509F483C1EF
:1015D000C53BD10509F482C1C63BD10509F481C1DF
:1015E000C73BD10509F480C1C83BD10509F47FC1CF
:1015F000C93BD10509F47EC1CA3BD10509F47DC1BF
:1016000000E014E47CC1CE019F700E941B0A78C1E7
:10161000DD278E01106C73C1CF70DD278E01146D34
:101620006EC100E010ED6BC100E012ED68C100E09A
:1016300013ED65C10E94B3218FEF94E32CE081503C
:1016400090402040E1F700C000000E94612957C18E
:1016500080E293E00E9440088091E60181608093DF
:10166000E6014DC10E94132B811102C00E94F42A91
:101670000E94302B90E090932D0280932C02C23078
:1016800080E5D80721F480912C02816086C0C430A7
:1016900090E5D90721F480912C0282607EC0C6308B
:1016A00020E5D20721F480912C02846076C0C830F6
:1016B00080E5D80719F480912C0227C0CA3090E544
:1016C000D90721F480912C02806167C0CC3020E5DD
:1016D000D20721F480912C0280625FC0CE3080E579
:1016E000D80721F480912C02806457C0C03190E566
:1016F000D90721F480912C0280684FC0C23120E5C7
:10170000D20729F480912C028460886046C0C330DF
:1017100080E5D80721F480912C028E7F3EC0C53031
:1017200090E5D90721F480912C028D7F36C0C73017
:1017300020E5D20721F480912C028B7F2EC0C93086
:1017400080E5D80719F480912C0226C0CB3090E5B3
:10175000D90721F480912C028F7E1FC0CD3020E567
:10176000D20721F480912C028F7D17C0CF3080E505
:10177000D80721F480912C028F7B0FC0C13190E5F6
:10178000D90721F480912C028F7707C0C331D0454F
:1017900031F480912C028B7F877F80932C02809183
:1017A0002C020E94342BABC08D2F99278F70992764
:1017B00081309105D9F49E012370332702C0880F30
:1017C000991F2A95E2F79C688E0144E0000F111FD3
:1017D0004A95E1F700271370802B912B53E0CC0F33
:1017E000DD1F5A95E1F7C076DD272FC082309105C5
:1017F00031F4DC2FCC278E01016F106A80C083305A
:10180000910569F4CE018370992701E010E002C0D0
:10181000000F111F8A95E2F7C8019C680FC0843041
:101820009105B9F4CE018370992701E010E002C060
:10183000000F111F8A95E2F7C8019A6823E0CC0FC8
:10184000DD1F2A95E1F7C07ED7708C010C2B1D2B74
:1018500056C08530910531F4DC2FCC278E01046F02
:10186000106A4DC0069709F04AC0CF71DD27DC2F02
:10187000CC278E01106243C000E010E040C08E0112
:101880003EC001E810E43BC003E810E438C002EEBB
:1018900014E435C009EE14E432C00AEE14E42FC09B
:1018A00005EB14E42CC006EB14E429C007EB14E4A8
:1018B00026C00CEC14E423C00DEC14E420C003E8B3
:1018C00015E41DC00AE815E41AC002E915E417C0C2
:1018D00004E915E414C001E216E411C003E216E4C1
:1018E0000EC004E216E40BC005E216E408C006E2EE
:1018F00016E405C007E216E402C00AE216E4C801D5
:10190000DF91CF911F910F910895E72FF0E09AE0BA
:10191000899FE00DF11D112483E0EE0FFF1F8A95D2
:10192000E1F7E60FF11DEE0FFF1FE05CFE4F859122
:101930009491803E9105E0F4803C910558F5813307
:10194000910509F46FC048F48932910509F463C028
:101950008A32910509F46DC072C089339105E9F0AE
:1019600082389105D1F08533910509F44DC067C0E7
:10197000833E910581F138F4803E9105B9F0823EB5
:101980009105D9F05CC0863E910561F1873E9105D5
:10199000A1F155C00E94130A089520912C0220FD48
:1019A00002C021FF4CC080EE90E049C080912C0223
:1019B00080FFF9CF89E390E042C080912C0282FF42
:1019C0000EC080912C0284FF03C080E090E037C0FD
:1019D00083EE90E034C080912C0282FFF2CF82EE41
:1019E00090E02DC080912C0283FF0BC080912C02CF
:1019F00084FDEBCF87EE90E022C080912C0283FF24
:101A0000F5CF86EE90E01BC080912C0285FF07C0C9
:101A100089E290E014C080912C0285FFF9CF85E324
:101A200090E00DC080912C0286FF07C08AE290E012
:101A300006C080912C0286FFF9CF81E390E00E94DE
:101A4000230A08950C94F908E82FF0E0E85EFE4FB1
:101A50008081E82FEF70F0E082958F7021E030E018
:101A6000A90102C0440F551F8A95E2F740A30895CB
:101A70000F931F93CF93DF9385B7806885BF85B79A
:101A8000806885BFC9E0D0E001E010E0FE01E85EBB
:101A9000FE4F8081E82FEF70F0E021A182958F70DA
:101AA000A80102C0440F551F8A95E2F7CA01822B94
:101AB00081A38C2F0E94240D219740F787E090E0AE
:101AC00061E070E0FC01E05FFE4F2081E22FEF70EB
:101AD000F0E042A122952F70DB0102C0AA0FBB1FCC
:101AE0002A95E2F79D01242B22A3019758F7DF9155
:101AF000CF911F910F910C94F709EF92FF920F93E2
:101B00001F93CF93DF930EE411E0C9E0EE24E3943A
:101B1000F12CD5E08C2F0E94240D87E090E040E06E
:101B2000FC01E05FFE4F5081E52FEF70F0E020A157
:101B300030E052955F7002C0359527955A95E2F7CF
:101B400020FD07C09701082E01C0220F0A94EAF772
:101B5000422B019728F7F80182918F01841719F021
:101B60004083D09300018C2F0E94240DC15090F629
:101B70008091000187FD32C09091E60190FF10C076
:101B8000282F332727FD30953F938F9389E693E0E5
:101B90009F938F930E94D9080F900F900F900F90F2
:101BA0008091000181508093000187FD07C08FE97B
:101BB0009FE00197F1F700C0000010C080E090E0C6
:101BC000FC01E25BFE4FDC01AC5BBE4F19962C9131
:101BD00021870197863FEFEF9E0791F70E94F90951
:101BE00081E0DF91CF911F910F91FF90EF900895C9
:101BF000E82FF0E0E25BFE4F808108950F931F9382
:101C0000CF93DF938091E60180FF04C08AE493E0E4
:101C10000E944008C0E0D0E002E313E08091E601BA
:101C200080FF15C0FE01E25BFE4F808190E00E94C4
:101C300070289F938F93DF93CF931F930F930E94EE
:101C4000D9080F900F900F900F900F900F90219642
:101C5000CA30D10519F7DF91CF911F910F910895E7
:101C60000F931F93CF9308E511E0C0E0F801829134
:101C70008F0190E00E944E28C80FF1E00E341F073C
:101C8000A9F78C2FCF911F910F9108952BB1342F6D
:101C9000309523233BB1432B3FB7F894FC01680FE9
:101CA000791FE617F70789F0819198E04BB900009A
:101CB00000C087FF2BB9880F000000C000C000C023
:101CC0002BB900C09A9591F7ECCF3FBF08952AB188
:101CD000242B2AB99B01220F331F620F731F0E940E
:101CE000460E87EC90E00197F1F700C000000895E0
:101CF00040E80C94670EAF92BF92CF92DF92EF92C2
:101D0000FF920F931F93CF93DF936C01790150E003
:101D1000FA01E458F94F44918FEF90E0FC01E61B83
:101D2000F109E458F94FE491E09509F495C0C42F06
:101D3000D0E08E1B91098C9F90018D9F300D9C9F50
:101D4000300D1124E32F8CE3A82EB12CC601B50170
:101D50000E945B2FDC016230710509F446C0D0F4AB
:101D60006115710599F16130710509F079C0C31BE6
:101D7000D109B501681B790BC69FC001C79F900DA3
:101D8000D69F900D1124B5010E945B2F032F060FE3
:101D9000142F67C06430710509F44BC0B8F1653089
:101DA000710509F05DC0C31BD109B501681B790B32
:101DB000C69FC001C79F900DD69F900D1124B501FD
:101DC0000E945B2F132FE32FE60F44C0C31BD109E2
:101DD000CC9DC001CD9D900DDC9D900D1124B501D1
:101DE0000E945B2F132F160F35C0C31BD109CA9F4A
:101DF000C001CB9F900DDA9F900D1124B5010E9478
:101E00005B2F142F032FE32FE60F2BC0C31BD10929
:101E1000B501681B790BC69FC001C79F900DD69F67
:101E2000900D1124B5010E945B2F132F160F032F65
:101E30000FC0C31BD109CA9FC001CB9F900DDA9F71
:101E4000900D1124B5010E945B2F032F060F132F55
:101E5000E42F07C0042F05C0E42F142F042F01C066
:101E6000E0E0D70111960C9311971C931296EC9316
:101E7000DF91CF911F910F91FF90EF90DF90CF9066
:101E8000BF90AF90089587E090E00C94912FAB0144
:101E9000BC0187E090E00C94AF2F8091E60180FFB9
:101EA00008C08DE495E09F938F930E94D9080F900E
:101EB0000F9083E08093ED018091EE01807884663D
:101EC0008F778093EE018CEC8093EF018093F0018B
:101ED0006091ED017091EE018091EF019091F00120
:101EE0000C94470F8091E60180FF08C086E395E0DF
:101EF0009F938F930E94D9080F900F908091E601D5
:101F000080FF0FC08091ED0181701F928F9389E156
:101F100095E09F938F930E94D9080F900F900F9098
:101F20000F908091E60180FF10C08091ED018695B1
:101F30008F731F928F938EEF94E09F938F930E94E5
:101F4000D9080F900F900F900F908091E60180FFBD
:101F500019C08091ED01881F8827881F9091EE019C
:101F6000292F220F822B97FB992790F99F938F930C
:101F700084EE94E09F938F930E94D9080F900F9066
:101F80000F900F908091E60180FF0EC08091EF01CD
:101F90001F928F938AEC94E09F938F930E94D908AD
:101FA0000F900F900F900F908091E60180FF0EC070
:101FB0008091F0011F928F9380EB94E09F938F9319
:101FC0000E94D9080F900F900F900F900895809164
:101FD000ED0180FF06C06EE070E085EF91E00C94AB
:101FE000780E80E090E0FC01EB50FE4F11821082F1
:101FF000128203968A329105B1F7EDCF20E030E0EE
:10200000F901EB50FE4F8183608342832D5F3F4F88
:102010002A323105A9F70C94E70FEF92FF920F9344
:102020001F93CF93DF9300D01F92CDB7DEB70091FF
:10203000ED011091EE012091EF013091F00100933C
:10204000F1011093F2012093F3013093F4012091F8
:10205000ED0120FF21C0042FF62EE92E182F9E013E
:102060002F5F3F4F0E947B0E8091F10110FB87F99B
:102070008093F10116958091F2018078182BE0FA97
:1020800017F91093F201F092F3010093F4014B81E0
:1020900069818A810E94FE0F0F900F900F90DF914F
:1020A000CF911F910F91FF90EF9008950F931F9381
:1020B000CF93DF93EC01062F142F9091ED0190FF49
:1020C00065C0892F8E77823021F4CE010E940D10D9
:1020D0001BC0892F86958F732EE3280F2F73243012
:1020E00018F41091F00110C0865C8F73893060F491
:1020F000C92FCC1FCC27CC1FD091EE018D2F880F7C
:10210000C82BD7FBDD27D0F98091ED01C0FB87F903
:102110008093ED01C6958091EE018078C82BD0FBAD
:10212000C7F9C093EE010093EF011093F0016091A5
:10213000ED017091EE018091EF019091F0010E940C
:10214000470F8091F0011F928F938091EF011F92B2
:102150008F938091ED01881F8827881F9091EE0151
:10216000292F220F822B97FB992790F99F938F930A
:102170008CEA93E09F938F930E94D9088DB79EB706
:1021800008960FB6F8949EBF0FBE8DBFDF91CF911A
:102190001F910F910895EDEEF1E02081221F22277B
:1021A000221F3091EE01432F440F842F822B37FBE7
:1021B000992790F90A9668E671E00E946F2F438193
:1021C00062810C9456102091ED01221F2227221FBC
:1021D0003091EE01432F440F842F822B37FB992738
:1021E00090F98A3091051CF4825A9E4F01C00A97DB
:1021F00068E671E00E946F2F4091F0016091EF015D
:102200000C9456106091EF01862F90E08F3E91055F
:1022100014F46F5E01C06FEF8091ED01881F882775
:10222000881F9091EE01292F220F97FB992790F993
:102230004091F001822B0C9456106091EF01862F93
:1022400090E0419714F0615101C060E08091ED0190
:10225000881F8827881F9091EE01292F220F97FB56
:10226000992790F94091F001822B0C9456104091DF
:10227000F001842F90E08F3E910514F44F5E01C071
:102280004FEF8091ED01881F8827881F9091EE0104
:10229000292F220F97FB992790F96091EF01822B4C
:1022A0000C9456104091F001842F90E0419714F067
:1022B000415101C040E08091ED01881F8827881FAF
:1022C0009091EE01292F220F97FB992790F96091A9
:1022D000EF01822B0C9456108091690181110FC07F
:1022E00081E08093690189E0809391008FB7F89431
:1022F00093E09093990090ED909398008FBF08958C
:10230000809171008260809371008091E60180FF6E
:1023100008C08BE993E09F938F930E94D9080F9098
:102320000F900895809171008D7F8093710080914E
:10233000E60180FF08C089E893E09F938F930E9495
:10234000D9080F900F9008959091ED0190FF4BC028
:102350009178811102C0926007C0883110F09E62AE
:1023600003C08F73880F982B9093ED016091ED015E
:102370007091EE018091EF019091F0010E94470F62
:102380008091ED0186958F731F928F938FEF93E06D
:102390009F938F930E94D9088091ED01982F9E778B
:1023A0000F900F900F900F90923019F40E9492119D
:1023B00007C08695825C8F73863110F40E9480116D
:1023C0008091ED01881F8827881F9091EE01292FA9
:1023D000220F97FB992790F94091F0016091EF014E
:1023E000822B0C94561008958091E60181608093B1
:1023F000E60189E994E09F938F930E94D90881E0D8
:1024000080936A018091E6010F900F9080FF08C0D1
:1024100083E894E09F938F930E94D9080F900F90C8
:102420000E94132B811110C08091E60180FF08C02B
:102430008BE594E09F938F930E94D9080F900F90A3
:102440000E94F42A0E944D0F0E94430F6093ED01F9
:102450007093EE018093EF019093F0016E77C1F4D9
:102460008091E60180FF08C082E194E09F938F9302
:102470000E94D9080F900F900E944D0F0E94430FA9
:102480006093ED017093EE018093EF019093F00162
:102490000E94720F0E946C118091ED0180FF04C0B8
:1024A00086958F730C94A41108958091ED01869503
:1024B0008F738F5F883108F081E00C94A4118091B4
:1024C000ED01982F909590FB80F98093ED0160913C
:1024D000ED017091EE018091EF019091F0010E9469
:1024E000470F8091ED0181701F928F9381ED93E0F2
:1024F0009F938F930E94D9088091ED010F900F90C8
:102500000F900F9080FF04C086958F730C94A411D8
:102510000E9492112FEF80E792E02150804090407E
:10252000E1F700C000000C94E70FCF93C82F809113
:102530006701909168010E941229EC2FF0E0E858A1
:10254000FA4FE491F0E08E179F0718F10E940629D8
:102550009093680180936701E0916601F0E0E45890
:10256000FA4F44918091ED01881F8827881F909130
:10257000EE01292F220F97FB992790F96091EF0127
:10258000822B0E940D108091660190E0019680934D
:102590006601CF910895CF93C82F809164019091E7
:1025A00065010E941229EC2FF0E0EB58FA4FE491FC
:1025B000F0E08E179F07E8F00E94062990936501CE
:1025C000809364014091F0016091EF01809162017C
:1025D000909163010E940D108091620190916301BE
:1025E000019668E671E00E945B2F909363018093EF
:1025F0006201CF910895CF92DF92FF920F931F93C4
:10260000CF93DF93F82E80916001909161010E9439
:102610001229EF2DE695F0E0EB58FA4FE491F0E047
:102620008E179F07F0F10E94062990936101809315
:10263000600105EF11E0C0E0D0E088E6C82EDD249F
:10264000D39480915E0190915F018C0F9D1FB60124
:102650000E945B2F98014091F0016091EF010E9470
:102660007B0E69960D5F1F4FCE3581E0D80749F785
:102670000E94E70F20915E0130915F01F0FE0BC0D8
:10268000C901019668E671E00E945B2F90935F019B
:1026900080935E0106C02150310930935F01209381
:1026A0005E01DF91CF911F910F91FF90DF90CF904E
:1026B00008958F929F92AF92BF92CF92DF92EF9246
:1026C000FF920F931F93CF93DF93C82F80FF03C018
:1026D000DD24DA9402C0DD24D39480915C019091D2
:1026E0005D010E941229C695EC2FF0E0EE58FA4FDA
:1026F000E491F0E08E179F0708F467C00E94062956
:1027000090935D0180935C0195EFE92E91E0F92EA5
:1027100007EF11E0C0E0D0E027E0822E912CF80115
:1027200031971082F7011082F801108287E0A82EFD
:10273000B12CC12C80915B018C0D87FD825F9927A4
:1027400087FD9095C817D907E9F42091F0012A9DDB
:10275000C0012B9D900D1124B4010E946F2F462FB4
:102760008091ED01881F8827881F9091EE01592FD5
:10277000550F97FB992790F997016091EF01852BF1
:102780000E947B0ECD0CF1E0AF1AB10899F62196AC
:1027900083E0E80EF11C0D5F1F4FCE30D10509F02C
:1027A000BECF0E94E70F80915B0191E0D91206C075
:1027B000811102C08DE007C0815005C090E00196F4
:1027C000BE010E946F2F80935B01DF91CF911F911B
:1027D0000F91FF90EF90DF90CF90BF90AF909F90C0
:1027E0008F9008959F92AF92BF92CF92DF92EF9217
:1027F000FF920F931F93CF93DF93CDB7DEB7AA97C6
:102800000FB6F894DEBF0FBECDBF182F80915901CF
:1028100090915A010E941229E12FF0E0E159FA4FFC
:10282000E491F0E08E179F0708F495C00E940629F6
:1028300090935A0180935901CE0101967C015E016B
:1028400093E0A90EB11CC12CD12C8701F501319761
:102850001082F7011082F5011082912C90910101F4
:1028600080915801999E800D112487FD04C08E30FF
:102870001CF08DE001C080E0992787FD9095C81677
:10288000D906A1F48091ED01881F8827881F9091B7
:10289000EE01592F550F97FB992790F99701409119
:1028A000F0016091EF01852B0E947B0E9394F7E07D
:1028B0009F12D4CF8FEFC81AD80A93E0E90EF11C0B
:1028C000E3E0AE0EB11CFEE0CF16D10409F0BECF9E
:1028D00027EF31E059E0E52EF12C6EE0C62ED12C29
:1028E000C701B6010E946F2FD9011197FC01EE0FAD
:1028F000FF1FE80FF91FE00FF11F81818C931197E3
:1029000080818C938281F9018083FFEFEF1AFF0AA7
:102910002D5F3F4F87E1E816F10411F70E94E70FA2
:102920009091010180915801913049F48A3F2CF433
:1029300089EF809358018FEF08C081500AC085311C
:102940003CF084E18093580181E08093010103C051
:102950008F5F80935801AA960FB6F894DEBF0FBE22
:10296000CDBFDF91CF911F910F91FF90EF90DF903E
:10297000CF90BF90AF909F9008951F920F920FB687
:102980000F9211242F933F934F935F936F937F93F5
:102990008F939F93AF93BF93EF93FF938091ED013C
:1029A00086958F739EE3980F9F73943020F4825026
:1029B0000E94951223C09AE3980F9F73933020F4DE
:1029C00086500E94CB121AC097E3980F9F739630DF
:1029D00020F489500E94FB1211C091E3980F9F735D
:1029E000963020F48F500E94591308C09BE2980F34
:1029F0009F73933018F485510E94F213FF91EF9169
:102A0000BF91AF919F918F917F916F915F914F9106
:102A10003F912F910F900FBE0F901F9018958091AE
:102A20007E01089508959FB7F89410926D019FBF9D
:102A300090912302943009F057C09091E9009F7063
:102A40003091EC00232F217030FD20E8922B23E001
:102A50002093E9002091EB0020FF43C02091EE007D
:102A600027FF3FC020916B01222321F02091E80035
:102A700025FF37C010926B0126E03091E80035FD4C
:102A800015C030912302343061F53091EB0035FDF3
:102A900028C0215021F481E080936B0122C0EFE92E
:102AA000FFE03197F1F700C00000E7CF8093F1001D
:102AB0008091E80085FD0AC08091E80080FFFCCF8E
:102AC0008091E8008E778093E80006C08FB7F89475
:102AD00021E020936D018FBF9F709093E90080E00B
:102AE00008959F709093E9008FEF0895CF93DF933F
:102AF00000D01F92CDB7DEB720912302243021F5FC
:102B000023E029839B838A8382E08093E9008FEF0F
:102B10009091E800815095FD06C095ED9A95F1F7EA
:102B200000008111F5CF8091E80085FF0DC040E0E5
:102B300050E063E070E0CE0101960E94131880918E
:102B4000E8008E778093E8000F900F900F90DF9150
:102B5000CF910895CF93DF9300D01F92CDB7DEB70A
:102B60009C0180912302843019F592E099833B8384
:102B70002A839093E9008FEF9091E800815095FDB2
:102B800006C095ED9A95F1F700008111F5CF80917F
:102B9000E80085FF0DC040E050E063E070E0CE014A
:102BA00001960E9413188091E8008E778093E800C8
:102BB0000F900F900F90DF91CF910895CF93DF93F7
:102BC000EC0190912302943009F046C080910C01F1
:102BD0008823D9F080910D018823B9F09093E90002
:102BE0008FEF9091E800815095FD06C095E19A9590
:102BF000F1F700008111F5CF8091E80085FF2CC02E
:102C000040E050E060E170E017C081E08093E900AF
:102C10008FEF9091E800815095FD06C095ED9A9553
:102C2000F1F700008111F5CF8091E80085FF14C015
:102C300040E050E068E070E0CE010E9413188091FF
:102C4000E8008E778093E80080E1FE01AEE6B1E017
:102C500001900D928A95E1F7DF91CF91089581EA75
:102C600097E00E94400880912202811109C00E94D1
:102C7000A8190E94051A8091E20084608093E20006
:102C800008958DE997E00E9440081092220208956D
:102C900089E997E00C94400885E997E00C94400896
:102CA00081E997E00E9440080C94C92820916C01AA
:102CB0002F5F822F62E30E944F2F992319F02093F8
:102CC0006C01089510926C0180916D01882371F15F
:102CD00080912302843041F58091E9008F7020912A
:102CE000EC00922F917020FD90E8892B93E0909357
:102CF000E9009091EB0090FF14C09091EE0097FFD7
:102D000010C09091E80095FF03C01092F100F9CF38
:102D10009091E80090FF05C09091E8009E77909315
:102D2000E8008F708093E90010926D01089542E0F1
:102D300061EC81E00E94221942E061EC82E00E9495
:102D4000221942E261EC83E00E94221942E161EC27
:102D500084E00C94221980912502833009F455C037
:102D600030F4813071F0823009F48EC008958A30D9
:102D700009F47AC08B3009F460C0893009F09CC036
:102D800020C080912402813A09F096C08091E80029
:102D9000877F8093E8008091280290912902892BF7
:102DA00021F460E18EE691E003C060E080E090E015
:102DB00070E00E945E188091E8008B778093E800B5
:102DC000089580912402813209F076C08091280212
:102DD00090912902009719F0039709F06DC0809136
:102DE000E800877F8093E8008091E80082FD05C0BD
:102DF000809123028111F8CF5FC08091F100809310
:102E00007E018091E8008B7753C080912402813A43
:102E100009F052C08091280290912902892B09F073
:102E20004BC08091E800877F8093E8008091E800A4
:102E300080FFFCCF80910C0136C08091240281324A
:102E4000D9F58091280290912902892BA9F58091CA
:102E5000E800877F8093E8000E945719809126023E
:102E600080930C010C94B32180912402813221F5CE
:102E70008091E800877F8093E8000E945719809135
:102E8000270280937F01089580912402813AA1F462
:102E90008091E800877F8093E8008091E80080FFC0
:102EA000FCCF80917F018093F1008091E8008E77C4
:102EB0008093E8000C945719089584B7877F84BFE6
:102EC00088E10FB6F89480936000109260000FBE06
:102ED00090E080E80FB6F8948093610090936100D1
:102EE0000FBE0E942C1D0E94A8190E94051A8091F5
:102EF000E20084608093E20083E195E10E9449282A
:102F000078940E948A1C0E942E1D82E091E00E940B
:102F1000A51C80E897E00E9440088091230285303C
:102F200089F48CE797E00E9440080E948A288091EB
:102F30002102882391F30E94B828882371F30E940C
:102F4000FD17EBCF0E94541DE8CF292F33272330E4
:102F50003105C9F064F42130310581F022303105AA
:102F600009F043C084E790E023E038E042C021321A
:102F70003105F1F02232310541F137C082E190E0B4
:102F800027E738E036C099278130910541F082303B
:102F9000910541F0892B49F5EFEFF7E005C0E9EE27
:102FA000F7E002C0E5EAF7E0849190E09F0121C0DC
:102FB0006430D8F4E62FF0E0EE0FFF1FE25DFE4F25
:102FC0002081318189E090E014C0643070F470E0B9
:102FD000FB01EE0FFF1FEA5DFE4F20813181FB01F7
:102FE000EE5DFE4F808190E004C080E090E020E044
:102FF00030E0FA0131832083089580E189BD82E1C8
:1030000089BD09B400FEFDCF8091D8008F7D8093EB
:10301000D8008091E00082608093E0008091E00021
:1030200081FDFCCF0895CF92DF92EF92FF920F9334
:103030001F93CF93DF93EC018B016A010E947619F5
:10304000811133C0C114D10439F0F601808191811E
:10305000081B190BC80FD91FE12CF12C0115110504
:1030600019F18091E80085FD16C08091E8008E7707
:103070008093E800C114D10449F0F6018081918168
:10308000E80EF91EF182E08285E00FC00E947619F9
:10309000882321F30AC089918093F100015011091E
:1030A000FFEFEF1AFF0ADACF80E0DF91CF911F9197
:1030B0000F91FF90EF90DF90CF90089520912A021A
:1030C00030912B022617370748F06115710539F446
:1030D0002091E8002E772093E80001C0B90140E07C
:1030E00061157105A9F120912302222309F443C03F
:1030F000253009F442C02091E80023FD40C0209112
:10310000E80022FD32C02091E80020FFE9CF409185
:10311000F3002091F20030E0342BFC01CF01611567
:10312000710559F02830310540F481918093F10008
:10313000615071092F5F3F4FF1CF41E028303105D9
:1031400009F040E02091E8002E772093E800C8CFF6
:103150004111C9CF0AC080912302882361F08530D4
:1031600061F08091E80083FD0AC08091E80082FF51
:10317000F2CF80E0089582E0089583E0089581E031
:10318000089520912A0230912B022617370748F024
:103190006115710539F42091E8002E772093E8003D
:1031A00001C0B901FC0120E06115710591F1809128
:1031B0002302882309F440C0853009F43FC0809180
:1031C000E80083FD3DC08091E80082FD2FC0809122
:1031D000E80080FFE9CF2091F3008091F20090E0B9
:1031E000922B6115710559F08830910540F42491B6
:1031F0002093F1003196615071090196F2CF21E0E0
:10320000089709F020E08091E8008E778093E8002D
:10321000CBCF2111CCCF0AC080912302882361F04B
:10322000853061F08091E80083FD0AC08091E8005C
:1032300082FFF2CF80E0089582E0089583E0089550
:1032400081E00895982F973058F59093E9009817EA
:1032500039F07091EC002091ED005091F00003C026
:10326000242F762F50E021FF19C03091EB003E7FD4
:103270003093EB003091ED003D7F3093ED003091C5
:10328000EB0031603093EB007093EC002093ED0085
:103290005093F0002091EE0027FF07C09F5FD3CF2F
:1032A0008F708093E90081E0089580E00895809117
:1032B000240287FF11C08091E80082FD05C0809143
:1032C00023028111F8CF11C08091E8008B770BC0E9
:1032D00080912302882349F08091E80080FFF8CF95
:1032E0008091E8008E778093E80008952091E400B3
:1032F0003091E50095E64091EC00842F817040FF0D
:1033000022C08091E80080FD1CC0809123028823A8
:1033100091F0853091F08091EB0085FD10C04091D7
:10332000E4005091E5004217530729F39A019150A8
:1033300011F784E0089582E0089583E0089581E024
:10334000089580E008954091E80042FFDECF08959F
:103350000E94161A0E941E1AE0EEF0E08081816041
:103360008083E8EDF0E080818F77808319BCA7ED42
:10337000B0E08C918E7F8C9380818F7E80831092C1
:10338000220208950F931F93CF93DF930E94161A82
:103390000E941E1AC8EDD0E088818F7788838881CB
:1033A0008068888388818F7D888319BC109223026E
:1033B00010921F02109221021092200200EE10E0E3
:1033C000F80180818B7F808388818160888342E0DF
:1033D00060E080E00E942219E1EEF0E080818E7FC3
:1033E0008083E2EEF0E0808181608083808188606C
:1033F0008083F80180818E7F8083888180618883CB
:10340000DF91CF911F910F910895E8EDF0E0808159
:103410008F7E8083E7EDF0E080818160808384E0AF
:1034200082BF81E0809322020C94C219E8EDF0E0A3
:1034300080818E7F80831092E20008951092DA00DE
:103440001092E10008951F920F920FB60F9211246F
:103450002F933F934F935F936F937F938F939F939C
:10346000AF93BF93EF93FF938091E10082FF0BC076
:103470008091E20082FF07C08091E1008B7F809302
:10348000E1000E9456168091DA0080FF1FC08091F3
:10349000D80080FF1BC08091DA008E7F8093DA0015
:1034A0008091D90080FF0DC080E189BD82E189BD96
:1034B00009B400FEFDCF81E0809323020E942F1605
:1034C00005C019BC109223020E9441168091E100B0
:1034D00080FF19C08091E20080FF15C08091E2005A
:1034E0008E7F8093E2008091E20080618093E20011
:1034F0008091D80080628093D80019BC85E08093C9
:1035000023020E944C168091E10084FF30C080911C
:10351000E20084FF2CC080E189BD82E189BD09B44D
:1035200000FEFDCF8091D8008F7D8093D8008091E0
:10353000E1008F7E8093E1008091E2008F7E809396
:10354000E2008091E20081608093E20080911F029E
:10355000882311F084E007C08091E30087FD02C05A
:1035600081E001C083E0809323020E945016809185
:10357000E10083FF29C08091E20083FF25C0809194
:10358000E100877F8093E10082E080932302109224
:103590001F028091E1008E7F8093E1008091E20024
:1035A0008E7F8093E2008091E20080618093E20050
:1035B00042E060E080E00E9422198091F000886083
:1035C0008093F0000E944816FF91EF91BF91AF9158
:1035D0009F918F917F916F915F914F913F912F912B
:1035E0000F900FBE0F901F9018951F920F920FB65D
:1035F0000F9211242F933F934F935F936F937F9379
:103600008F939F93AF93BF93CF93DF93EF93FF93EA
:10361000C091E900CF708091EC00D82FD17080FD6F
:10362000D0E81092E9008091F000877F8093F0004D
:1036300078940E94391B1092E9008091F000886014
:103640008093F000CD2BCF70C093E900FF91EF91F4
:10365000DF91CF91BF91AF919F918F917F916F91AA
:103660005F914F913F912F910F900FBE0F901F9040
:1036700018951F93CF93DF93CDB7DEB7AA970FB6F8
:10368000F894DEBF0FBECDBFE4E2F2E088E08E0F1B
:103690009091F10091938E13FBCF0E94AB16809115
:1036A000E80083FF1FC18091240290912502492FD9
:1036B00050E04A30510508F015C1FA01E25AFF4FB7
:1036C0000C94832F803881F0823809F00BC18091EF
:1036D00028028F708093E9008091EB0085FB88279A
:1036E00080F91092E90006C0809120029091210299
:1036F000911182609091E800977F9093E800809309
:10370000F1001092F100C8C0282F2D7F09F0EAC007
:10371000882319F0823061F0E5C080912602813063
:1037200009F0E0C0933009F080E0809321022BC0C3
:1037300080912602811127C0809128028F7009F4A0
:10374000D1C08093E9002091EB0020FF1CC0933092
:1037500021F48091EB00806214C09091EB009061A5
:103760009093EB0021E030E0A90102C0440F551F07
:103770008A95E2F74093EA001092EA008091EB000C
:1037800088608093EB001092E9008091E800877FC9
:1037900086C08111A7C0109126021F778091E30097
:1037A0008078812B8093E3008091E800877F80936D
:1037B000E8000E9457198091E80080FFFCCF8091BB
:1037C000E30080688093E300111102C082E001C031
:1037D00083E08093230286C08058823008F082C044
:1037E00080912602909127028C3D53E0950779F550
:1037F00083E08A838AE289834FB7F894DE011396C7
:1038000020E03EE051E2E32FF0E050935700E491D6
:1038100020FF03C0E295EF703F5FEF708E2F90E0C6
:10382000EA3010F0C79601C0C0968D939D932F5F2C
:10383000243149F74FBF8091E800877F8093E800EB
:103840006AE270E0CE0101960E945E1814C0AE01DB
:103850004F5F5F4F609128020E94A517BC0100973F
:1038600009F440C09091E800977F9093E800898127
:103870009A810E94C1188091E8008B778093E800BC
:1038800031C0803879F58091E800877F8093E80027
:1038900080911F028093F1008091E8008E778093E1
:1038A000E8000E9457191EC081111CC09091260289
:1038B0009230C0F48091E800877F8093E800909375
:1038C0001F020E94571980911F02811106C080912A
:1038D000E30087FD02C081E001C084E08093230201
:1038E0000E9497168091E80083FF0AC08091E8004B
:1038F000877F8093E8008091EB0080628093EB00EB
:10390000AA960FB6F894DEBF0FBECDBFDF91CF9160
:103910001F910895CF93809123028823A1F0C09135
:10392000E900CF709091EC00892F817090FD80E8C4
:10393000C82B1092E9008091E80083FD0E94391B9A
:10394000CF70C093E900CF91089590938501809343
:1039500084010895E0918401F0918501309721F070
:103960000190F081E02D099480E00895EF92FF929C
:103970000F931F93CF93DF93E0918401F091850122
:103980003097B1F18C010280F381E02D099580918F
:10399000E60182FF2DC080FF04C08FE599E00E9400
:1039A0004008E80110E189E5E82E89E0F82E8091D1
:1039B000E60180FF0BC088811F928F93FF92EF92E8
:1039C0000E94D9080F900F900F900F9011502196E0
:1039D0001111EDCF8091E60180FF0AC087E599E0E3
:1039E000DF91CF911F910F91FF90EF900C944008C1
:1039F000DF91CF911F910F91FF90EF90089520914B
:103A00008201309183018217930771F090938301B3
:103A100080938201E0918401F0918501309721F03B
:103A20000680F781E02D099408952091800130915E
:103A300081018217930771F0909381018093800137
:103A4000E0918401F0918501309721F00084F185A7
:103A5000E02D0994089508950C942B1D0E94FD28D3
:103A60000E94380D0E94BF290C94722ECF93DF93D1
:103A70001F92CDB7DEB79091E60192FF10C090FF84
:103A80000EC01F928F9321E739E03F932F938983D4
:103A90000E94D9080F900F900F900F9089810F907E
:103AA000DF91CF910C94220D9F92AF92BF92CF9253
:103AB000DF92EF92FF920F931F93CF93DF9300D08B
:103AC00000D000D0CDB7DEB70E947D0D09E010E038
:103AD000AA24A394B12C902E802F0E94F80D980157
:103AE00029573E4F6901F901F080F826A1F40150F1
:103AF000110988F78FEF89838A831B820E94062928
:103B00008160782F9D838C8349815A816B818D815F
:103B10000E94E91D2FC09091E60191FF04C08E83A1
:103B20000E94FE0D8E8127E030E0A501022E01C02B
:103B3000440F0A94EAF7E42E4F21C1F029839A82B8
:103B40008E2191E009F490E09B830E940629816018
:103B5000782F9D838C8349815A816B818D810E944E
:103B6000E91DF6018081E826E08204C02150310978
:103B7000E0F6BDCF109186010E94AA1C1817B9F07B
:103B80000E94AA1C8093860126960FB6F894DEBF89
:103B90000FBECDBFDF91CF911F910F91FF90EF909E
:103BA000DF90CF90BF90AF909F900C94361D2696DB
:103BB0000FB6F894DEBF0FBECDBFDF91CF911F913E
:103BC0000F91FF90EF90DF90CF90BF90AF909F90BC
:103BD0000895CF93DF93CDB7DEB72B970FB6F89448
:103BE000DEBF0FBECDBF4F83588769877A878B872B
:103BF000DE01119686E0FD0111928A95E9F785E0D4
:103C0000FE01379601900D928A95E1F749815A811C
:103C10006B817C818D819E810E9451242B960FB6F1
:103C2000F894DEBF0FBECDBFDF91CF910895CF9343
:103C3000882309F4C2C0C82F823859F40E94AA1CF4
:103C400081FDBBC089E30E942B270E941A2889E3CB
:103C50000CC0833879F40E94AA1C80FDAEC083E5B5
:103C60000E942B270E941A2883E50E947E27CF916D
:103C70000C941A28843859F40E94AA1C82FD9DC015
:103C800087E40E942B270E941A2887E4EECF8CEF4E
:103C90008C0F813A48F48C2F0E94232E81118DC005
:103CA0008C2F0E942B27E3CF80E28C0F883048F4C2
:103CB000C77081E001C0880FCA95EAF70E94D32738
:103CC000D6CF8BE58C0F833078F4C53A29F0C63A0D
:103CD00031F083E890E005C081E890E002C082E81E
:103CE00090E0CF910C94FF1C88E58C0F833108F095
:103CF00064C0C83A39F1C93A41F1CA3A49F1CB3AFC
:103D000051F1CC3A59F1CD3A61F1C03B69F1CE3A6B
:103D100071F1CF3A79F1C13B81F1C23B89F1C33BEB
:103D200091F1C43B99F1C53BA1F1C63BA9F1C73B59
:103D3000B1F1C83BB9F1C93BC1F1CA3BC9F180E05F
:103D400090E038C082EE90E035C089EE90E032C05D
:103D50008AEE90E02FC085EB90E02CC086EB90E0DF
:103D600029C087EB90E026C08CEC90E023C08DEC5E
:103D700090E020C083E891E01DC08AE891E01AC07D
:103D800082E991E017C084E991E014C081E292E0F9
:103D900011C083E292E00EC084E292E00BC085E2A3
:103DA00092E008C086E292E005C087E292E002C09D
:103DB0008AE292E0CF910C94151DCF91089588234B
:103DC00009F44BC0823859F40E94AA1C81FF45C0F7
:103DD00089E30E942B270E941A2889E30CC08338AC
:103DE00071F40E94AA1C80FF38C083E50E942B2733
:103DF0000E941A2883E50E947E270C941A28843892
:103E000059F40E94AA1C82FF28C087E40E942B2735
:103E10000E941A2887E4EFCF9CEF980F913A58F34D
:103E200090E2980F983050F4877091E001C0990F9C
:103E30008A95EAF7892F0E94D927DFCF9BE5980F53
:103E4000933020F480E090E00C94FF1C885A83317A
:103E500020F480E090E00C94151D0895882321F053
:103E60000E94D3270C941A280895882321F00E94D9
:103E7000D9270C941A2808957F928F929F92AF921F
:103E8000BF92CF92DF92EF92FF920F931F93CF9347
:103E9000DF931F92CDB7DEB77C01C62E772EFC01D3
:103EA000058102950F70128111110E94F0270E9466
:103EB0002427882379F0112369F080E28C0D883063
:103EC00048F082E00E940D270E94242791E0D82E1E
:103ED000D92601C0D12CE72DE295EF70F0E0E8592A
:103EE000FF4F0C94832F872D807F072D0F70882321
:103EF00011F00295007F112389F0002309F48EC18F
:103F000080E28C0D883020F4802F0E94D32703C0DC
:103F1000802F0E94E3270E941A2880C18C2D0E94C6
:103F2000DF1E002309F4B8C180E28C0D883020F434
:103F3000802F0E94D92703C0802F0E94E9270E946A
:103F40001A28AAC1872D807F972D9F70803211F487
:103F5000892F03C0892F8295807FCC2021F0F1E04A
:103F6000CF16A1F01DC0112339F0002319F1013043
:103F700009F50E94032890C1002319F0013009F4CB
:103F80008BC189830E940628898105C1112321F0F4
:103F9000063008F081C10EC0053008F07DC1FBC0BD
:103FA000112359F0002331F0F701958190FF36C1BC
:103FB0009F7095830E942E1F6FC1002309F4EBC0F0
:103FC00033C1872D86958695837090E0009719F010
:103FD000019761F061C1112321F08C2D972D937011
:103FE00002C080E090E00E94FF1C56C1112321F026
:103FF0008C2D972D937002C080E090E00E94151DDB
:104000004BC1872D837009F052C0111145C18C2D11
:10401000829586958770880F880F9C2D9F70892EBA
:10402000912CA12CB12C082E04C0880C991CAA1C20
:10403000BB1C0A94D2F7C4FE14C00FE010E020E0CD
:1040400030E0B901A80104C0440F551F661F771F57
:104050008A95D2F7CB01BA016095709580959095BD
:1040600003C060E070E0CB01272D269526952370D4
:1040700030E02230310569F02330310589F06829BC
:1040800079298A299B292130310571F00E949925CF
:1040900003C1682979298A299B290E94B525FCC07A
:1040A0000E949925C501B4010E947D25F5C0112308
:1040B00019F0872D817001C08695882309F4ECC022
:1040C0008C2D829586958770880F880F9C2D9F7008
:1040D000892E912CA12CB12C082E04C0880C991C7F
:1040E000AA1CBB1C0A94D2F7C4FE14C00FE010E057
:1040F00020E030E0B901A80104C0440F551F661F3D
:10410000771F8A95D2F7CB01BA016095709580959B
:10411000909503C060E070E0CB01272D2695269591
:104120002370422F50E04230510569F04330510571
:1041300089F0682979298A299B294130510571F034
:104140000E947326A9C0682979298A299B290E947F
:104150008F26A2C00E947326C501B4010E94572673
:104160009BC08C2D90E0FC01E05EF109E531F1058A
:1041700008F050C0E858FF4F0C94832F0C2D0F709F
:10418000872D8F71112321F00E94F025802F12CFEF
:104190000E941126802F0E94351F7EC0112341F0FE
:1041A000053008F079C0872D8F710E94362674C0C3
:1041B000063008F071C0F7CF112339F0872D8F71C9
:1041C0000E94F02569C01123C9F3872D8F710E94C9
:1041D000112662C0112329F0872D8F710E94DB25E3
:1041E0005BC00E94D12558C0112351F0172D1F71BB
:1041F000812F0E94F02563E0812F0E9404274CC08C
:1042000081E00E940D27023008F446C082E00E943F
:104210000D2742C0112331F0002381F28C2D0E9422
:10422000171E3AC0002389F28C2D0E94DF1E34C075
:10423000472D4F706C2DC7010E94FB090E94F52489
:104240002BC0111129C0472D4F7050E0423051054D
:10425000B9F04CF44115510581F041305105E1F4BC
:104260000E94A72E19C04330510569F04430510512
:1042700099F48C2D0E94322F0FC00E94832E0CC007
:104280000E94D62E09C00E94FC2E06C0472D4F70FA
:104290006C2DC7010E941B09DD20F9F00E94002748
:1042A00080FD1BC0F70112820E94FA260E94F025B1
:1042B000C7010E947C210E94FA260F90DF91CF91C6
:1042C0001F910F91FF90EF90DF90CF90BF90AF9034
:1042D0009F908F907F900C9411260F90DF91CF913B
:1042E0001F910F91FF90EF90DF90CF90BF90AF9014
:1042F0009F908F907F9008950F931F93CF93DF939C
:10430000EC01888199812B813C81232BB9F09F3F5F
:1043100011F48F3F99F0CE010E944F09882371F06C
:10432000688179818A810E94F6268C010E94AB26E1
:104330000E947225B801CE010E943C1FDF91CF91EF
:104340001F910F9108950E94F0270E9400280E945B
:10435000C5270E941A2880E090E00E94FF1C80E0A0
:1043600090E00C94151D0E94E0270C94A3210E945C
:10437000EB26292F22952F7030E02C3031054CF49C
:104380002A3031056CF42250310922303105A8F46D
:1043900007C02C30310569F02F30310551F00DC0C8
:1043A000803F69F018F4803E40F409C0843F29F44E
:1043B00006C093FB882780F9089580E0089581E086
:1043C0000895CF93DF9300D000D01F92CDB7DEB712
:1043D0000F900F900F900F900F90DF91CF91089555
:1043E000CF93DF9300D000D000D0CDB7DEB72696B4
:1043F0000FB6F894DEBF0FBECDBFDF91CF91089509
:104400001F93CF93DF93C091910116E080919201A9
:10441000C81799F0D0E01C9FF0011D9FF00D1124EA
:10442000ED56FE4F40815181628173818481958177
:104430000E94F0212196C770E9CFDF91CF911F91A3
:1044400008954091C3015091C4016091C5017091DC
:10445000C6018091C7019091C8010C94F021809110
:10446000C80182958F7009F054C08091C5018823DE
:1044700009F44FC080919101A09192016091C30114
:104480007091C4014091C6015091C701B6E08A17EE
:1044900009F43FC090E041155105C1F17F3F11F48F
:1044A0006F3FA1F1B89FF001B99FF00D1124ED56B7
:1044B000FE4F218172132AC02081621327C02281FE
:1044C000211124C0238134812417350710F4215091
:1044D0003109241B350B283C3105C0F42091C8015B
:1044E0002F7020612093C80126E0289FF001299FAA
:1044F000F00D1124E856FE4F80818F70806180831B
:1045000083EC91E00E947C210C940022019687703C
:10451000BECF0895CF92DF92EF92FF920F931F9339
:10452000CF93DF93CDB7DEB762970FB6F894DEBFB7
:104530000FBECDBF8C0185E0F801DE011D96019014
:104540000D928A95E1F7D8014C9111965C911197E3
:1045500012966C9112971396CD90DC90149730912F
:10456000C3017091C4018091C6019091C701009769
:1045700009F46BC17F3F19F43F3F09F466C1E09035
:10458000C501EE2009F4C0C02091C801C816D906A3
:1045900028F0F601E81BF90BCF0104C08095909537
:1045A0008C0D9D1DFF24F394883C910578F0F12C2F
:1045B000207F09F0C6C07C2DD98AC88A89890E94CB
:1045C000E12183EC91E00E947C21B1C0822F807FA9
:1045D00009F046C0751314C0341312C0611110C025
:1045E0002F7020612093C8010E94212283EC91E06A
:1045F0000E947C218091C801D80115968C932EC011
:10460000CD2819F15F3F11F44F3FF9F0F62E6111FB
:104610001CC0809191012091920136E0821709F42B
:104620005AC090E0389FF001399FF00D1124ED56EB
:10463000FE4F7181571306C07081471303C072810A
:10464000711103C001968770E9CFF62E662309F435
:1046500018C18091C80181608093C801F12C11C1FB
:10466000751308C0341306C0611104C08091C801DD
:10467000D801C3C04D875E878D859E856A8B0E9459
:10468000B7216A898823E1F16623D1F12091C8011D
:10469000822F82958F7090E0029774F08091C30111
:1046A0009091C40198878F831986DB86CA862C87F0
:1046B000CE0107960E947C2186E0F801A3ECB1E0D0
:1046C00001900D928A95E1F70E942F220E942122EB
:1046D000FF24F394D6C04D875E878D859E850E940A
:1046E000EB26292F22952F7030E0223031050CF077
:1046F000BCC09F7009F0B6C0805E883008F4C1C0AD
:10470000C8010E947C21E4CFC816D90608F453C022
:10471000F601E81BF90BCF01883C910508F450C065
:10472000F12C7C2DD98AC88A89890E94E121E3EC89
:10473000F1E086E0DF011D928A95E9F70E942122CF
:10474000A0C0751314C0341312C0611110C0809141
:10475000C801F8018583C8010E947C2186E0E3EC52
:10476000F1E0DF011D928A95E9F7FE2C8AC04D87A2
:104770005E878D859E856A8B0E94B7216A89882312
:1047800009F4BECF662309F4BBCF2091C801822F64
:1047900082958F7090E002970CF48ECF8091C301C8
:1047A0009091C4019A8389831B82DD82CC822E83FF
:1047B000CE0101967FCF809590958C0D9D1DACCF3D
:1047C000F62E662309F49CCF75132EC034132CC02B
:1047D0002091C80120FD1FC0822F82958F70D9F0D3
:1047E000D80115962C9315978F3049F08F5F982F2D
:1047F0009295907F822F8F70892B15968C93C8018C
:104800000E947C2186E0F801A3ECB1E001900D92BA
:104810008A95E1F793CF86E0F801A3ECB1E001902F
:104820000D928A95E1F72DC04D875E878D859E8517
:104830000E94B721811140CF8091C801816080938F
:10484000C801C8010E947C211CC0662309F458CF0E
:104850004D875E878D859E850E94B721882309F448
:104860004FCF2ACF811148CF0CC0243031050CF036
:1048700047CF9F7009F440CFF8019581907F09F0F0
:104880003BCF8F2D62960FB6F894DEBF0FBECDBF23
:10489000DF91CF911F910F91FF90EF90DF90CF901C
:1048A00008951F93CF93DF93CDB7DEB72C970FB644
:1048B000F894DEBF0FBECDBF4F83588769877A87D4
:1048C0008B879C87CE0107960E948A22882369F0F5
:1048D0008F8198852A853B85232BF1F19F3F09F035
:1048E00063C08F3F09F060C037C086E0FE01379695
:1048F000DE01119601900D928A95E1F76F8178851E
:10490000EA85FB85309741F17F3F11F46F3F21F13C
:104910002091920130E0C90101968770992740915A
:10492000910150E08417950709F447C069837A83A1
:10493000FD83EC8396E0929FD001939FB00D1124EC
:10494000AD56BE4FFE01319601900D929A95E1F75A
:10495000809392010E94002216E080919101909133
:1049600092018917C1F1189FC00111248D569E4FE5
:104970000E948A22882379F1E09191011E9FF00123
:104980001124ED56FE4F40815181628173818481F3
:1049900095810E94F0218091910190E001968770AD
:1049A000992780939101D9CF4F81588569857A8560
:1049B0008B859C850E94F021CFCF0E94B32110925D
:1049C000920110929101E3ECF1E086E0DF011D928B
:1049D0008A95E9F7C1CF2C960FB6F894DEBF0FBECB
:1049E000CDBFDF91CF911F910895EF92FF920F936A
:1049F0001F93CF93DF938C01009709F46CC0F12CC7
:104A0000EE24E394E8012196F8018491843740F480
:104A1000843008F051C0813081F0823019F15BC0E0
:104A2000853709F444C0A8F19CE7980F903708F047
:104A300052C08F770E94DF1E41C00E5F1F4FFE01E4
:104A4000C49180E28C0F883048F4C7708E2D01C06D
:104A5000880FCA95EAF70E94F32714C08C2F0E9492
:104A6000171E2DC00E5F1F4FFE01C49180E28C0FF8
:104A7000883058F4C7708E2D01C0880FCA95EAF7A8
:104A80000E94F9270E941A281AC08C2F0E94DF1E4C
:104A900016C00E5F1F4FFE01C491CC2381F08FE939
:104AA0009FE00197F1F700C00000C150F6CF0E5F04
:104AB0001F4FFE01F49003C00E94171E8E018F2D20
:104AC000882309F49FCFEFE9FFE03197F1F700C0A9
:104AD00000008150F5CFDF91CF911F910F91FF9092
:104AE000EF90089508956093CD017093CE01809367
:104AF000CF019093D0010C94A3210F931F930091A9
:104B0000CD011091CE012091CF013091D001DC0177
:104B1000CB01802B912BA22BB32B8093CD019093B3
:104B2000CE01A093CF01B093D0011F910F910C94AF
:104B3000A3210F931F930091CD011091CE012091DD
:104B4000CF013091D001DC01CB0180239123A2233E
:104B5000B3238093CD019093CE01A093CF01B09366
:104B6000D0011F910F910C94A3210F931F930091DB
:104B7000CD011091CE012091CF013091D001DC0107
:104B8000CB0180279127A227B3278093CD01909353
:104B9000CE01A093CF01B093D0011F910F910C943F
:104BA000A3211092C9011092CA011092CB01109258
:104BB000CC010C94A32141E050E060E070E004C01F
:104BC000440F551F661F771F8A95D2F74093C9017E
:104BD0005093CA016093CB017093CC010C94A32134
:104BE00041E050E060E070E004C0440F551F661FD4
:104BF000771F8A95D2F78091C9019091CA01A0913F
:104C0000CB01B091CC01482B592B6A2B7B2B4093C5
:104C1000C9015093CA016093CB017093CC010C94ED
:104C2000A32141E050E060E070E004C0440F551F54
:104C3000661F771F8A95D2F74095509560957095BD
:104C40008091C9019091CA01A091CB01B091CC0192
:104C5000482359236A237B234093C9015093CA01F7
:104C60006093CB017093CC010C94A32141E050E000
:104C700060E070E004C0440F551F661F771F8A95DF
:104C8000D2F78091C9019091CA01A091CB01B09156
:104C9000CC01482759276A277B274093C9015093A5
:104CA000CA016093CB017093CC010C94A3210F93A4
:104CB0001F930091C9011091CA012091CB0130913D
:104CC000CC01DC01CB01802B912BA22BB32B809349
:104CD000C9019093CA01A093CB01B093CC011F915D
:104CE0000F910C94A3210F931F930091C901109170
:104CF000CA012091CB013091CC01DC01CB01802392
:104D00009123A223B3238093C9019093CA01A09356
:104D1000CB01B093CC011F910F910C94A3210F9361
:104D20001F930091C9011091CA012091CB013091CC
:104D3000CC01DC01CB0180279127A227B3278093E8
:104D4000C9019093CA01A093CB01B093CC011F91EC
:104D50000F910C94A3210895CF92DF92EF92FF92CE
:104D60000F931F93CF93DF938C01C090CD01D09010
:104D7000CE01E090CF01F090D0018091C9019091D7
:104D8000CA01A091CB01B091CC01C82AD92AEA2A44
:104D9000FB2ACFE1D0E0D701C6010C2E04C0B695A6
:104DA000A795979587950A94D2F780FF06C0B8011A
:104DB0008C2F0E94850C019721F4219760F780E0E9
:104DC00001C08C2FDF91CF911F910F91FF90EF9039
:104DD000DF90CF900895CF93DF93EC010E94AC2633
:104DE000BE010E94850CDF91CF910895CB010E94F6
:104DF000EB2608958091D101859585958595089537
:104E00008091D1018770089598E0899F90011124C5
:104E1000262B2093D1010C94F0252091D10180956F
:104E200082238093D101982F977069F430E0482F46
:104E3000552747FD50952417350729F08595859509
:104E400085950C94112608959091D101977081E079
:104E500009F480E0089590910C01992321F090913C
:104E60000D01911109C020910E0130910F01F9013E
:104E700032969FEF40E030C0982F96959695969584
:104E80009F30A0F4E0910E01F0910F01E90FF11DA8
:104E9000877021E030E0A90102C0440F551F8A95B8
:104EA000E2F7CA019181892B818308959091E601EF
:104EB00090FF23C01F928F9388EA99E09F938F936E
:104EC0000E94D9080F900F900F900F9008959F3F68
:104ED00039F04F5F4E3041F051915813F8CF0DC06B
:104EE0005111F7CF942FF5CF9F3F39F0F901E90F1A
:104EF000F11D97FDFA9582830895089590910C0114
:104F0000992321F090910D01911109C020910E017A
:104F100030910F01F9013296205F3F4F30C0982F3A
:104F20009695969596959F30A8F4E0910E01F09194
:104F30000F01E90FF11D877021E030E0A90102C0E7
:104F4000440F551F8A95E2F7CA0180959181892304
:104F5000818308959091E60190FF16C01F928F9370
:104F60008AE899E09F938F930E94D9080F900F9041
:104F70000F900F9008953196E217F30729F0908172
:104F80009813F9CF1082F7CF089581E090E0E09177
:104F90000E01F0910F01E80FF91F10820196803188
:104FA0009105A9F708959091E501892B8093E5017A
:104FB000089580959091E50189238093E5010895F6
:104FC0001092E50108959091E401892B8093E4010A
:104FD000089580959091E40189238093E4010895D8
:104FE0001092E40108959091E301892B8093E301ED
:104FF000089580959091E30189238093E3010895BA
:105000001092E30108958093D20108951092D20185
:10501000089580910E0190910F01FC0131969C0141
:10502000205F3F4F80E0919191118F5FE217F3076E
:10503000D1F70895E0910E01F0910F018091E50103
:105040008083E0910E01F0910F0190818091E40145
:10505000892B8083E0910E01F0910F019081809166
:10506000E301892B80838091D201882361F0E09154
:105070000E01F0910F019081892B80830E940928F5
:1050800081111092D20180910E0190910F010C9428
:10509000B61C9093370180933601089520E0009765
:1050A00039F0AC0141505109842395232F5FF7CF8C
:1050B000822F08958295982F9C7C392F36953695AE
:1050C000282F237344E0249FC0011124932F982B91
:1050D000292F2A7A2695892F8575880F822B089586
:1050E0001F93CF93DF931F92CDB7DEB799830E94B2
:1050F0005A28182F9981892F0E945A28212F30E091
:10510000322F2227A901482BCA010F90DF91CF919E
:105110001F91089580912302843039F11092E701A4
:1051200020E488E190E00FB6F894A89580936000A1
:105130000FBE2093600080E00E94ED0880E00E9496
:10514000220D83B7817F846083BF83B7816083BF73
:105150007894889583B78E7F83BF88E10FB6F894E3
:1051600080936000109260000FBE08950895089526
:1051700080E00E94ED080E94B6280E947D0D0E94EA
:10518000B7280E94300E91E0811101C090E0892F74
:1051900008950E94B32180E00E94ED080E94722EC3
:1051A0000E94AA1C0C94220D1F920F920FB60F9210
:1051B00011248F939F93AF93BF938091E701811147
:1051C00013C08091E8019091E901A091EA01B091AA
:1051D000EB014196A11DB11D8093E8019093E90177
:1051E000A093EA01B093EB01BF91AF919F918F9192
:1051F0000F900FBE0F901F90189582E084BD93E032
:1052000095BD9AEF97BD80936E0008952FB7F894DF
:105210008091E8019091E901A091EA01B091EB0140
:105220002FBF0895CF92DF92EF92FF920F931F93BB
:105230002FB7F8944091E8015091E9016091EA019B
:105240007091EB012FBF6A017B01EE24FF248C01DA
:1052500020E030E0C016D106E206F30610F441501B
:1052600051099A01281B390BC9011F910F91FF9019
:10527000EF90DF90CF9008951F920F920FB60F928C
:1052800011248F939F93AF93BF938091E8019091E6
:10529000E901A091EA01B091EB010196A11DB11DB8
:1052A0008093E8019093E901A093EA01B093EB01A8
:1052B000BF91AF919F918F910F900FBE0F901F9054
:1052C00018950E94A819F8942FEF87EA91E62150CB
:1052D00080409040E1F700C0000087E090EBDC01E7
:1052E00080932E0290932F02A0933002B09331024C
:1052F0009CE088E10FB6F894A895809360000FBEFB
:1053000090936000FFCFEF92FF920F931F93CF9384
:10531000DF93D82FC9E08C2F0E94F80D07E010E032
:10532000E82EF12CC701002E02C0959587950A94AE
:10533000E2F780FF09C0602F7C2F80E00E94FE0909
:10534000D81302C081E006C00150110958F7C150BE
:1053500010F780E0DF91CF911F910F91FF90EF90B8
:105360000895CF93C82F8CE20E948329882321F0CF
:105370008C2FCF910C94832980E0CF910895CF9307
:105380000E94132B811102C00E94F42A8DEC99E037
:105390000E944008C5E6C15049F00E947D0D8FE390
:1053A0009CE90197F1F700C00000F5CF86EC99E089
:1053B0000E94400889E20E94B129811113C18AE24A
:1053C0000E94B12981110E94F42A85E00E94B1292E
:1053D00081110E9461290E941E2B8093E60187E0C3
:1053E0000E94B1298823A9F18BE10E94B129882369
:1053F00051F08091E60181FB222720F991E092276C
:1054000090FB81F90EC08EE00E94B129882361F0E3
:105410008091E60182FB222720F991E0922790FB00
:1054200082F98093E60115C080E10E94B129909134
:10543000E601882341F093FB222720F981E08227AF
:1054400080FB93F904C0892F809580FB90F990939D
:10545000E6018091E6010E94222B0E94302B80936E
:105460002C0280EE0E94B129882341F080912C0209
:10547000982F909590FB80F980932C0289E30E94ED
:10548000B129882359F080912C0281FB222720F931
:1054900091E0922790FB81F980932C0282EE0E948A
:1054A000B129882359F080912C0282FB222720F910
:1054B00091E0922790FB82F980932C0286EE0E9465
:1054C000B129882359F080912C0283FB222720F9EF
:1054D00091E0922790FB83F980932C0283EE0E9447
:1054E000B129882359F080912C0284FB222720F9CE
:1054F00091E0922790FB84F980932C0285E30E942F
:10550000B129882359F080912C0285FB222720F9AC
:1055100091E0922790FB85F980932C0281E30E9411
:10552000B129882359F080912C0286FB222720F98B
:1055300091E0922790FB86F980932C0281E10E94F2
:10554000B129882359F080912C0287FB222720F96A
:1055500091E0922790FB87F980932C0280912C0296
:105560000E94342B80912C0287FB882780F980933E
:105570000D0187E20E94B129C82F8EE10E94B12956
:105580008111C2608FE10E94B1298111C46080E263
:105590000E94B1298111C86081E20E94B129811164
:1055A000C06182E20E94B1298111C06283E20E943F
:1055B000B1298111C06484E20E94B129882311F0CD
:1055C000C06802C0CC2329F08C2F0E942B2B6C2F9B
:1055D00003C00E94272B682F70E080E090E0CF91FD
:1055E0000C947325CF9108956DEE7EEF80E090E0EE
:1055F0000E94BB2F60E082E090E00E949D2F60E05F
:1056000083E090E00E949D2F60E084E090E00E94A3
:105610009D2F60E085E090E00E949D2F60E086E095
:1056200090E00C949D2F80E090E00E94972F21E065
:105630008D3E9E4F09F020E0822F089582E090E099
:105640000C94892F682F82E090E00C949D2F83E0CA
:1056500090E00C94892F682F83E090E00C949D2FAC
:1056600084E090E00C94892F682F84E090E00C9403
:105670009D2F86E090E00C94892F682F86E090E0C3
:105680000C949D2FCF93C82F1F928F9388EE99E093
:105690009F938F930E94D90881E090E0A0E0B0E052
:1056A000BC01CD0104C0660F771F881F991FCA95E2
:1056B000D2F70E9473250F900F900F900F90CF910B
:1056C0000C94B321CF938B3109F40FC208F049C079
:1056D0008E3009F41EC200F5873009F4E7C1A8F442
:1056E000863009F0A4C28091E601817F8E7F80938D
:1056F000E60186E89BE00E94400882E79FE00E9466
:10570000400881E08093EC01CFC1883009F45BC090
:105710008B3009F4C5C18BC2813109F470C220F409
:10572000803109F40AC283C2863109F421C2893169
:1057300009F07DC287E79BE00E9440088CE49BE073
:105740000E9440088AEF9AE00E9440088DEC9AE09F
:105750000E94400881E99AE00E94400886E69AE0AB
:10576000A1C1853309F45FC268F4873209F45BC2D2
:1057700028F48E3108F45BC28D5156C2893209F487
:1057800052C255C2833438F48A3308F04AC288338F
:1057900009F486C14CC2833409F445C2883409F047
:1057A00046C20E94B32186E59FE00E9440089FEF19
:1057B00023ED80E3915020408040E1F700C00000DD
:1057C0000E94612971C186E79FE00E94400883EC36
:1057D0009EE00E9440080E94272B1F928F9380EC2E
:1057E0009EE09F938F930E94D9088EEB9EE00E94CB
:1057F00040080E941E2BC82F8BEA9EE00E944008A2
:105800001F92CF9386EA9EE09F938F930E94D908C0
:1058100084EA9EE00E9440088AE99EE00E944008D7
:105820008C2F81701F928F9387E99EE09F938F93B7
:105830000E94D90885E99EE00E9440088BE89EE01E
:105840000E944008C1FB882780F91F928F9388E847
:105850009EE09F938F930E94D90886E89EE00E9465
:1058600040088AE79EE00E944008C2FB882780F932
:105870001F928F9387E79EE09F938F930E94D90892
:1058800085E79EE00E9440088CE69EE00E9440086A
:10589000C3FBCC27C0F91F92CF9389E69EE09F936C
:1058A0008F930E94D90887E69EE00E9440080E94DC
:1058B000302BC82F83E59EE00E9440081F92CF93B3
:1058C0008EE49EE09F938F930E94D9088CE49EE023
:1058D0000E94400883E39EE00E9440088C2F817064
:1058E0001F928F9380E39EE09F938F930E94D9082D
:1058F0008DB79EB780960FB6F8949EBF0FBE8DBF32
:105900008EE29EE00E94400887E19EE00E944008EF
:10591000C1FB882780F91F928F9384E19EE09F93BB
:105920008F930E94D90882E19EE00E94400880E0A7
:105930009EE00E944008C2FB882780F91F928F9347
:105940008DEF9DE09F938F930E94D9088BEF9DE090
:105950000E94400889EE9DE00E944008C3FB882712
:1059600080F91F928F9386EE9DE09F938F930E9404
:10597000D90884EE9DE00E9440088AED9DE00E94D7
:105980004008C4FB882780F91F928F9387ED9DE024
:105990009F938F930E94D90885ED9DE00E94400857
:1059A00083EC9DE00E944008C5FB882780F91F9288
:1059B0008F9380EC9DE09F938F930E94D9088EEB8C
:1059C0009DE00E94400882EA9DE00E944008C6FBDC
:1059D000882780F91F928F938FE99DE09F938F9383
:1059E0000E94D9088DE99DE00E94400885E99DE06C
:1059F0000E944008C7FBCC27C0F91F92CF9382E9D1
:105A00009DE09F938F930E94D90880E99DE00E94BA
:105A100040080E94392BC82F89E79DE00E9440086A
:105A20001F92CF9384E79DE09F938F930E94D908A4
:105A30008DB79EB780960FB6F8949EBF0FBE8DBFF0
:105A400082E79DE00E94400888E69DE00E944008B1
:105A50008C2F81701F928F9385E69DE09F938F938B
:105A60000E94D90883E69DE00E9440088AE59DE0F7
:105A70000E944008C6951F92CF9387E59DE09F93B3
:105A80008F930E94D90885E59DE00E9440088DB75C
:105A90009EB708960FB6F8949EBF0FBE8DBF04C088
:105AA00081EA9BE00E944008C1E0C6C08091E60107
:105AB000C82FC095C170C0FB80F98093E601CC234C
:105AC00049F08AE49FE00E9440088091E6018660E8
:105AD000886048C08DE39FE00E9440088091E60105
