:100000000C94DB020C9422030C9422030C94220324
:100010000C9422030C9422030C9422030C942203CC
:100020000C9422030C9422030C94250D0C94F70DD0
:100030000C94871B0C9422030C9422030C9422032F
:100040000C9422030C9422030C9422030C9422039C
:100050000C9422030C94F71B0C9422030C9422039F
:100060000C9422030C9422030C9422030C9422037C
:100070000C9422030C9422030C9422030C9422036C
:100080000C9422030C9422030C9422030C9422035C
:100090000C9422030C9422030C9422030C9422034C
:1000A0000C9422030C9422030C94220335001E00AE
:1000B0001F0020002100220023002400250026002C
:1000C00027002D002E002A002A002B0014001A0001
:1000D0000800150017001C0018000C001200130087
:1000E0002F00300031004C002900040016000700EA
:1000F00009000A000B000D000E000F003300340051
:10010000280028004B00E1001D001B00060019001C
:10011000050011001000360037003800E500E5004A
:1001200052004E000030E000E200E30004512C00D9
:100130002C000351E700E600E40005515000510097
:100140004F0035001E001F00200021002200230068
:1001500024002500260027002D002E002A002A005A
:100160002B0014001A00090013000A000D000F00F4
:1001700018001C0033002F00300031004C00290013
:10018000040015001600170007000B0011000800FE
:100190000C0012003400280028004B00E1001D0074
:1001A0001B000600190005000E0010003600370085
:1001B0003800E500E50052004E000030E000E200AB
:1001C000E30004512C002C000351E700E600E4009A
:1001D0000551500051004F0035001E001F00200047
:1001E00021002200230024002500260027002D00E6
:1001F0002E002A002A002B0034003600370013009E
:100200001C0009000A00060015000F002F00300036
:1002100031004C00290004001200080018000C00F6
:1002200007000B00170011001600380028002800F6
:100230004B00E100330014000D000E001B00050010
:1002400010001A0019001D00E500E50052004E00E4
:100250000030E000E200E30004512C002C000351C8
:10026000E700E600E4000551500051004F00010096
:100270003A003B003C003D003E003F004000410092
:1002800042004300440045000100010001001E023D
:100290001F0220022102220223022402250226023A
:1002A0002702010001000100490001003A003B0063
:1002B0003C003D003E003F002D022E022F02300286
:1002C0003102010001000100010040004100420034
:1002D000430044004500010001000100010001004D
:1002E0000100010001000100010001000100010006
:1002F00001000100010001000100010001000100F6
:100300000100010001003A003B003C003D003E00BE
:100310003F0040004100420043004400450001000E
:10032000010001001E001F00200021002200230008
:1003300024002500260027000100010001004900DB
:1003400001003A003B003C003D003E003F002D0014
:100350002E002F00300031000100010001000100DB
:1003600040004100420043004400450001000100FC
:100370000100010001000100010001000100010075
:100380000100010001000100010001000100010065
:100390000100010001000100010053003A003B0090
:1003A0003C003D003E003F00400041004200430051
:1003B00044004500010001004700680069006A0030
:1003C0006B006C006D006E006F00700071007200B9
:1003D0007300480046003900F800F700F600F50009
:1003E000FD00FF00AB00AA00A900AE000100010063
:1003F0000100F90001000100005201520252010007
:100400000100010001000100010001000100F000F5
:10041000FA0001000100010001000100F400F400F5
:1004200001000100010001000100F200F100F300F1
:1004300005010906A101050719E029E715002501B5
:10044000950875018102950175088101050819015A
:10045000290595057501910295017503910105071F
:10046000190029FF150026FF00950675088100C0B8
:1004700005010902A1010901A100050919012905C8
:10048000150025019505750181029501750381010E
:100490000501093009311581257F9502750881060E
:1004A00009381581257F950175088106050C0A38E4
:1004B000021581257F950175088106C0C0050109D7
:1004C00080A101850216010026B7001A01002AB793
:1004D00000751095018100C0050C0901A10185037B
:1004E000160100269C021A01002A9C027510950133
:1004F0008100C01201100100000008EDFE606001E3
:10050000000102000109025400030100A0FA0904DD
:100510000000010301010009211101000122400036
:100520000705810308000A09040100010301020014
:10053000092111010001224D000705820308000A6C
:100540000904020001030000000921110100012239
:1005500036000705830308000A040309042C034F2F
:10056000007200740068006F006C0069006E006526
:10057000006100720020004B006500790062006F8E
:1005800000610072006400730000002803540068DA
:100590000065002000410074006F006D0069006379
:1005A0000020004B006500790062006F006100725E
:1005B00000640000000011241FBECFEFDAE0DEBFB0
:1005C000CDBF04B603FE27C08091F0019091F101E8
:1005D000A091F201B091F301873020EB920727E060
:1005E000A20720EBB207B9F41092F0011092F101CA
:1005F0001092F2011092F30114BE84B7877F84BF7A
:1006000088E10FB6F89480936000109260000FBEEE
:10061000E0E0F8E3099511E0A0E0B1E0E8E4F6E4F9
:1006200002C005900D92A434B107D9F711E0A4E4FB
:10063000B1E001C01D92A03FB107E1F70E94490A55
:100640000C9422230C9400000895089581E00895ED
:1006500008950E94250308950E94260308950E948C
:10066000280308950E949F2123E030E0281B3109D0
:10067000220F2093460108952F98882351F48091EA
:100680008000877F8093800010928D0010928C00F4
:1006900020C0833040F0809180008860809380008B
:1006A0008FEF9FEF12C09091800098609093800030
:1006B00023E030E0281B3109220F331F8FEF9FEF1B
:1006C00002C0969587952A95E2F790938D008093C6
:1006D0008C000E943203089584E0809344010895C1
:1006E0000E9432030E946C03109245010895279ADC
:1006F0002F988FEF9FEF90938700809386008AE07A
:100700008093800089E1809381000E9401210E94F2
:100710007003089585B7806885BF85B7806885BFF9
:100720000E9477036E9A769A0E94240308956623A6
:1007300069F4FC018281882331F085EE0E94FA1071
:100740000E945C2103C085EE0E94C21180E090E00F
:10075000089581E008950E94A903089508950F93D4
:100760001F93CF93DF938C01DC01CD91DC91CE01FF
:100770000E94FC19BE010E941305EC01B8010E9401
:10078000AB03882309F442C1F80182818823C9F1AF
:10079000809147018823F1F4F0E7C431DF0789F540
:1007A0000E94AE0381E0809347010E94B91B9093A1
:1007B0004901809348011092500110924B01109210
:1007C0004A0110924D0110924C0110924F0110926B
:1007D0004E011CC180914801909149010E94C61BA5
:1007E000883C910570F480915001E82FF0E0EE0F05
:1007F000FF1FE65BFE4FD183C0838F5F8093500164
:1008000005C180E7C431D80770F490E7C230D9073A
:10081000B8F5A0E7C030DA0789F0B0E7C130DB07F0
:1008200009F0EBC020C0E0E7C333DE0709F4B7C02E
:10083000F0E7C433DF0709F0E0C0C7C0D801129663
:100840008C911297882309F4DDC00E94CA148FEF9F
:1008500094E3ACE081509040A040E1F700C000007C
:100860000E941C1CD3C0D80112968C911297882329
:1008700009F4C8C08091CF0181608093CF01C6C0C8
:10088000F8018281882309F4BDC00E94791C882365
:1008900011F40E94591C0E948F1C8093E001109259
:1008A000E101F0E7C230DF0711F4816071C090E729
:1008B000C330D90711F482606BC0A0E7C430DA07F7
:1008C00011F4846065C0B0E7C530DB0711F48860BF
:1008D0005FC0E0E7C630DE0711F4806159C0F0E781
:1008E000C730DF0711F4806253C090E7C830D907E2
:1008F00011F480644DC0A0E7C930DA0711F48068B4
:1009000047C0B0E7CA30DB0711F48C6041C0E0E7B4
:10091000CB30DE0721F48091E0018E7F39C0F0E713
:10092000CC30DF0721F48091E0018D7F31C080E77A
:10093000CD30D80721F48091E0018B7F29C090E76A
:10094000CE30D90721F48091E001877F21C0A0E754
:10095000CF30DA0721F48091E0018F7E19C0B0E733
:10096000C031DB0721F48091E0018F7D11C0E0E709
:10097000C131DE0721F48091E0018F7B09C08091B5
:10098000E001F0E7C231DF0711F48F7701C0837F08
:100990008093E0018091E0010E94941C37C0D8014F
:1009A00012968C911297882321F01092510182E0C7
:1009B00013C080915101882331F486E20E94FA101D
:1009C00086E20E94C21182E015C0F801828188236C
:1009D00031F01092520182E10E94141217C08091EE
:1009E0005201882331F487E20E94FA1087E20E94C4
:1009F000C21182E10E941B1209C081E08093510163
:100A000080935201C8010E942C0301C080E0DF9155
:100A1000CF911F910F9108950E948A0308950E941B
:100A2000290308950895E62FF0E0EE0FFF1F9EE1E1
:100A3000799F90011124E20FF31F96E9899FC0016D
:100A40001124E80FF91FE455FF4F25913491C90196
:100A500008950E9413050E94D2069C0140E5803053
:100A60009407E8F580E42030380708F0F3C0283E0A
:100A7000310508F5203E310508F092C1283A3105CC
:100A800088F4253A310508F079C02130310509F4A0
:100A900046C12130310508F43FC12430310508F446
:100AA0003BC17EC12B3B310508F473C0203C3105AE
:100AB00008F432C159C040E22030340750F481E0DC
:100AC0002030380708F0B6C0203F310508F424C1B3
:100AD000AFC040E32030340708F4AEC0B8C085E5AD
:100AE00020303807A8F444E52030340708F0F5C07A
:100AF00082E52030380730F441E52030340708F033
:100B0000C3C0ABC083E52030380708F4C3C0DAC0E7
:100B100040E72F32340798F480E72F31380708F088
:100B2000EBC046E52030340708F4DDC0C901805031
:100B3000904640E18030940708F0EEC0DAC080E7CC
:100B40002033380709F4DFC040E72033340708F4C6
:100B5000D7C080E72133380709F4D8C040E72233F3
:100B6000340709F0D9C0D5C0F901EE0FFF1FE055D9
:100B7000FD4F85919491282F392F12C1253A3105C7
:100B800009F4D0C0263A310509F4CFC023E830E497
:100B900007C1283A310509F4CBC0293A310509F4D7
:100BA000CAC02A3A310509F4C9C02B3A310509F403
:100BB000C8C02C3A310509F4C7C02D3A310509F4F3
:100BC000C6C0203B310509F4C5C02E3A310509F4F1
:100BD000C4C02F3A310509F4C3C0213B310509F4E3
:100BE000C2C0223B310509F4C1C0233B310509F4E1
:100BF000C0C0243B310509F4BFC0253B310509F4D1
:100C0000BEC0263B310509F4BDC0273B310509F4C0
:100C1000BCC0283B310509F4BBC0293B310509F4B0
:100C2000BAC02A3B310509F0B9C02AE236E4B8C09F
:100C30003065B6C03F71B4C03F70220F331F205DD6
:100C40003B4FF90145915491242F352FA9C03070A5
:100C5000306CA6C03F70306AA3C0422F4F70E4E0F2
:100C600036952795EA95E1F7922F937080E0242F2F
:100C70002695269530E075E0220F331F7A95E1F72F
:100C8000282B392B3C6811C0922F80E09C01216FEA
:100C9000306A86C0822F2695269530E065E0220FC7
:100CA000331F6A95E1F73C68482F437081E090E07C
:100CB00002C0880F991F4A95E2F78F719070282B18
:100CC000392B6EC0822F2695269530E055E0220FF5
:100CD000331F5A95E1F73A68E7CF922F80E09C01E5
:100CE000246F306A5DC030E02F713070322F2227C0
:100CF00001C03F70306254C02F513047346D50C036
:100D000020E031ED4DC020E030ED4AC020E032ED72
:100D100047C020E033ED44C020E030E041C021E096
:100D200030E03EC021E830E43BC022E830E438C087
:100D300022EE34E435C029EE34E432C02AEE34E445
:100D40002FC025EB34E42CC026EB34E429C027EB7C
:100D500034E426C02CEC34E423C02DEC34E420C071
:100D600023E835E41DC02AE835E41AC022E935E459
:100D700017C024E935E414C021E236E411C023E2AF
:100D800036E40EC024E236E40BC025E236E408C0A7
:100D900026E236E405C027E236E402C020E034E46F
:100DA000C90108959C018238910591F1833891051C
:100DB000C8F48133910509F463C08233910548F486
:100DC0008932910509F455C08A32910509F074C041
:100DD0005EC08533910509F445C08933910509F05A
:100DE0006BC016C0833E910541F1843E910540F4ED
:100DF000803E9105A1F0823E910509F05DC016C0CC
:100E0000863E9105F9F0873E910509F055C021C055
:100E10008091E00180FD42C081FF4EC03FC08091C3
:100E2000E00180FF49C029E330E046C08091E00145
:100E300082FF42C084FF35C012C08091E00182FF72
:100E40000CC032C08091E00183FF36C084FF2FC008
:100E500006C08091E00183FD2DC084FF2DC020E0FD
:100E600030E02AC08091E00185FF26C029E230E011
:100E700023C08091E00185FF1FC025E330E01CC046
:100E80008091E00186FF18C02AE230E015C0809111
:100E9000E00186FF11C021E330E00EC020EE30E01B
:100EA0000BC023EE30E008C022EE30E005C027EE94
:100EB00030E002C026EE30E0C90108950E942F0301
:100EC0000895E82FF0E0ED5DFE4F8081E82FEF7090
:100ED000F0E0282F22952F7081E090E002C0880F6B
:100EE000991F2A95E2F780A308950F931F93CF933C
:100EF000DF93C4E0D0E001E010E0FE01ED5DFE4FC5
:100F00008081E82FEF70F0E021A182958F70A80119
:100F100002C0440F551F8A95E2F7242B21A38C2F82
:100F20000E9461072197BFEFCF3FDB0731F78EE0CB
:100F300090E021E030E0FC01EC5EFE4F4081E42FC8
:100F4000EF70F0E062A142954F70D90102C0AA0F84
:100F5000BB1F4A95E2F76A2B62A30197BFEF8F3F51
:100F60009B0749F7DF91CF911F910F9108950F9340
:100F70001F93CF93DF9385B7806885BF85B780685F
:100F800085BFC4E0D0E001E010E0FE01ED5DFE4F62
:100F90008081E82FEF70F0E021A182958F70A80189
:100FA00002C0440F551F8A95E2F7242B21A38C2FF2
:100FB0000E9461072197BFEFCF3FDB0731F78EE03B
:100FC00090E021E030E0FC01EC5EFE4F4081E42F38
:100FD000EF70F0E062A142954F70D90102C0AA0FF4
:100FE000BB1F4A95E2F76A2B62A30197BFEF8F3FC1
:100FF0009B0749F70E940C05DF91CF911F910F913C
:101000000895EF92FF920F931F93CF93DF93C7E65C
:10101000D1E094E0F92E01E010E085E0E82E8F2D7C
:101020000E9461072EE030E040E050E0F901EC5E04
:10103000FE4F8081E82FEF70F0E060A170E08295B4
:101040008F7002C0759567958A95E2F760FD09C0BB
:10105000B801022E02C0660F771F0A94E2F7462BF2
:10106000572B215030408FEF2F3F3807F9F63A9138
:101070002A912417350721F059834883E092000113
:101080008F2D0E946107FA949F2D9F3F41F680911A
:10109000000187FD34C08150809300018F3F39F0FB
:1010A0008FE99FE00197F1F700C0000028C0809110
:1010B00065019091660190935C0180935B01809142
:1010C00063019091640190935A018093590180913A
:1010D0006101909162019093580180935701809132
:1010E0005F0190916001909356018093550180912A
:1010F0005D0190915E0190935401809353010E9491
:101100000F0581E0DF91CF911F910F91FF90EF903C
:101110000895E82FF0E0EE0FFF1FED5AFE4F80819B
:101120009181089508950F931F9314E000E0812F9B
:101130000E9489080E94301B080F1150C0F7802FB1
:101140001F910F910895809170010895DF93CF93BF
:1011500000D00F92CDB7DEB72091E601243021F503
:1011600023E029839B838A832093E9008FEF06C0C5
:1011700095ED9A95F1F70000882329F09091E80009
:10118000815095FFF5CF8091E80085FF0DC0CE011D
:10119000019663E070E040E050E00E94EE0A80912A
:1011A000E8008E778093E8000F900F900F90CF911A
:1011B000DF910895DF93CF9300D00F92CDB7DEB7C4
:1011C0002091E601243029F522E029839B838A833C
:1011D00083E08093E9008FEF06C095ED9A95F1F7D3
:1011E0000000882329F09091E800815095FFF5CF09
:1011F0008091E80085FF0DC0CE01019663E070E0AC
:1012000040E050E00E94EE0A8091E8008E778093E3
:10121000E8000F900F900F90CF91DF9108952091EB
:10122000E6012430F9F422E02093E9002FEF06C014
:1012300035ED3A95F1F70000222329F03091E800CE
:10124000215035FFF5CF2091E80025FF0BC065E068
:1012500070E040E050E00E94EE0A8091E8008E7756
:101260008093E80008950F931F938C018091E6010D
:10127000843051F581E08093E9008FEF06C095ED51
:101280009A95F1F70000882329F09091E8008150A9
:1012900095FFF5CF8091E80085FF16C0C80168E092
:1012A00070E040E050E00E94EE0A8091E8008E7706
:1012B0008093E800A8E6B1E0802F912FFC0188E040
:1012C00001900D928150E1F71F910F910895809147
:1012D000E501882349F40E94A90C0E94060D809123
:1012E000E20084608093E20008951092E501089581
:1012F000089508950E947B1B089581E061EC42E00F
:101300000E941D0C82E061EC42E00E941D0C83E013
:1013100061EC42E00E941D0C08958091E801833049
:1013200009F455C0843030F4813071F0823009F016
:10133000AFC096C08A3009F483C08B3009F468C00E
:10134000893009F0A5C020C08091E701813A09F0F9
:101350009FC08091E800877F8093E8008091EB0137
:101360009091EC01009721F060E080E090E003C0F4
:1013700068E088E691E070E00E944D0B8091E80003
:101380008B778093E80008958091E701813209F01E
:101390007FC08091EB019091EC01009709F078C03B
:1013A0008091E800877F8093E80005C08091E60186
:1013B000882309F46DC08091E80082FFF7CF809107
:1013C000F100809370018091E8008B771CC08091C0
:1013D000E701813A09F05CC08091EB019091EC014A
:1013E000009709F055C08091E800877F8093E8005E
:1013F0008091E80080FFFCCF809101018093F10093
:101400008091E8008E778093E8000E94540C089544
:101410008091E7018132E1F58091EB019091EC013F
:101420000097B1F58091E800877F8093E8000E94E3
:10143000540C8091E901809301010E94CA1408951F
:101440008091E701813221F58091E800877F8093C8
:10145000E8000E94540C8091EA018093670108958E
:101460008091E701813AA1F48091E800877F809321
:10147000E8008091E80080FFFCCF809167018093B5
:10148000F1008091E8008E778093E8000E94540C70
:10149000089584B7877F84BF88E10FB6F89480935E
:1014A0006000109260000FBE80E88093610010928F
:1014B00061000E9411100E94A90C0E94060D8091EB
:1014C000E20084608093E20078940E949F0F0E9463
:1014D000141082E091E00E94BC0F0CC00E943D1BE2
:1014E0008091E401882331F00E946A1B882311F067
:1014F0000E94D80A8091E601853081F30E94201075
:10150000F9CF9330A1F0943038F4913009F441C010
:10151000923009F043C006C09132D9F0923209F0FE
:101520003DC025C024E530E0E5E0F5E03BC081307A
:1015300041F0813018F0823089F506C0E9E5F5E028
:1015400005C0EDE5F5E002C0EBE8F5E0249130E000
:1015500029C0633018F5E62FF0E0EE0FFF1FE85DBD
:10156000FE4F0190F081E02D29E030E01BC0633098
:10157000A8F470E0660F771FFB01E25DFE4F01905B
:10158000F081E02D6C5C7E4FDB012D913C91119739
:1015900009C022E130E0E3EFF4E004C020E030E0F5
:1015A000E0E0F0E0DA011196FC93EE93C9010895B2
:1015B00080E189BD82E189BD09B400FEFDCF809143
:1015C000D8008F7D8093D8008091E0008260809366
:1015D000E0008091E00081FDFCCF08958F929F9202
:1015E000BF92CF92DF92EF92FF920F931F93DF9300
:1015F000CF930F92CDB7DEB7E82E4B018A019983C6
:101600000E94750CB82E99818823C9F5F92E011511
:10161000110539F0F80120813181821A930AE20E16
:10162000F31ECC24DD2426C08091E80085FD17C080
:101630008091E8008E778093E8000115110551F044
:10164000F801808191818C0D9D1D9183808325E01F
:10165000B22E15C00E94750C882361F00FC0F701EF
:1016600081917F018093F10008948108910808948A
:10167000C11CD11C81149104B9F601C0B82E8B2D68
:101680000F90CF91DF911F910F91FF90EF90DF901E
:10169000CF90BF909F908F900895482F592FFA01B7
:1016A0008091ED019091EE018617970718F4BC0127
:1016B00040E03DC061157105D9F78091E8008E7753
:1016C0008093E800F5CF8091E601882309F447C0B4
:1016D000853009F446C08091E80083FD3EC08091CA
:1016E000E80082FD34C08091E80080FF20C0909126
:1016F000F3008091F200392F20E090E0822B932BB1
:1017000006C041914093F10061507040019661150F
:10171000710519F088309105A0F341E088309105FA
:1017200009F040E08091E8008E778093E800611531
:10173000710549F6442339F60AC08091E6018823F1
:1017400071F0853071F08091E80083FD0CC08091CC
:10175000E80082FFF2CF80E0089581E0089582E002
:10176000089583E0089581E00895E82FF92F80918E
:10177000ED019091EE018617970718F4BC0140E047
:101780003EC061157105D9F78091E8008E7780938E
:10179000E800F5CF8091E601882309F448C0853040
:1017A00009F447C08091E80083FD3FC08091E800C4
:1017B00082FD35C08091E80080FF21C09091F30048
:1017C0008091F200392F20E090E0822B932B07C00C
:1017D00044914093F100319661507040019661153B
:1017E000710519F08830910598F341E08830910532
:1017F00009F040E08091E8008E778093E800611561
:10180000710541F6442331F60AC08091E601882330
:1018100071F0853071F08091E80083FD0CC08091FB
:10182000E80082FFF2CF80E0089581E0089582E031
:10183000089583E0089581E00895982F2CC0292F02
:101840002F702093E900981739F07091EC002091E7
:10185000ED005091F00003C0242F762F50E021FFBF
:1018600019C03091EB003E7F3093EB003091ED00DA
:101870003D7F3093ED003091EB0031603093EB0011
:101880007093EC002093ED005093F0002091EE0057
:1018900027FF08C09F5F973090F28F708093E90018
:1018A00081E0089580E008958091E70187FF13C0EB
:1018B00004C08091E6018823B9F08091E80082FF9E
:1018C000F8CF8091E8008B778093E80008958091AD
:1018D000E601882349F08091E80080FFF8CF8091ED
:1018E000E8008E778093E80008958091E40090915D
:1018F000E50044E62091EC0020FF26C02091E8009E
:1019000020FD16C02091E6012223A1F02530A1F090
:101910002091EB0025FD12C02091E4003091E500FC
:101920002817390739F3442359F04150C901E2CF50
:1019300080E0089582E0089583E0089581E00895AD
:1019400084E0089580E008952091E80022FFDACF36
:10195000F9CF0E94180D0E94200DE0EEF0E080818A
:1019600081608083E8EDF0E080818F77808319BC0F
:10197000A7EDB0E08C918E7F8C9380818F7E8083E9
:101980001092E50108950F931F93CF93DF930E9468
:10199000180D0E94200DC8EDD0E088818F778883D4
:1019A00088818068888388818F7D888319BC1092A4
:1019B000E6011092E2011092E4011092E30100EEC0
:1019C00010E0F80180818B7F80838881816088832B
:1019D00080E060E042E00E941D0CE1EEF0E08081DA
:1019E0008E7F8083E2EEF0E0808181608083808161
:1019F00088608083F80180818E7F80838881806108
:101A00008883DF91CF911F910F910895E8EDF0E069
:101A100080818F7E8083E7EDF0E08081816080832C
:101A200084E082BF81E08093E5010E94C30C0895A9
:101A3000E8EDF0E080818E7F80831092E2000895CF
:101A40001092DA001092E10008951F920F920FB6E3
:101A50000F9211242F933F934F935F936F937F9334
:101A60008F939F93AF93BF93EF93FF938091E10088
:101A700082FF0BC08091E20082FF07C08091E100ED
:101A80008B7F8093E1000E949E0F8091DA0080FF9F
:101A90001FC08091D80080FF1BC08091DA008E7F2C
:101AA0008093DA008091D90080FF0DC080E189BD6C
:101AB00082E189BD09B400FEFDCF81E08093E6019B
:101AC0000E94670905C019BC1092E6010E947509C1
:101AD0008091E10080FF19C08091E20080FF15C075
:101AE0008091E2008E7F8093E2008091E20080612D
:101AF0008093E2008091D80080628093D80019BC66
:101B000085E08093E6010E9479098091E10084FFDD
:101B100030C08091E20084FF2CC080E189BD82E169
:101B200089BD09B400FEFDCF8091D8008F7D8093E0
:101B3000D8008091E1008F7E8093E1008091E200E7
:101B40008F7E8093E2008091E20081608093E200CA
:101B50008091E201882311F084E007C08091E300C6
:101B600087FF02C083E001C081E08093E6010E940C
:101B70007A098091E10083FF29C08091E20083FF10
:101B800025C08091E100877F8093E10082E080930F
:101B9000E6011092E2018091E1008E7F8093E100E6
:101BA0008091E2008E7F8093E2008091E20080616C
:101BB0008093E20080E060E042E00E941D0C809192
:101BC000F00088608093F0000E947809FF91EF9107
:101BD000BF91AF919F918F917F916F915F914F9145
:101BE0003F912F910F900FBE0F901F9018951F924D
:101BF0000F920FB60F9211241F932F933F934F9381
:101C00005F936F937F938F939F93AF93BF93EF9364
:101C1000FF931091E9001F708091EC001092E90091
:101C20008091F000877F8093F00078940E94330EBB
:101C30001092E9008091F00088608093F00010938A
:101C4000E900FF91EF91BF91AF919F918F917F91AB
:101C50006F915F914F913F912F911F910F900FBE08
:101C60000F901F9018951F93DF93CF93CDB7DEB7DA
:101C7000AC970FB6F894DEBF0FBECDBFE7EEF1E034
:101C80008091F100819321E0EF3EF207C9F70E94B5
:101C90008D098091E80083FF39C18091E70120918F
:101CA000E801253009F484C0263040F42130A1F148
:101CB000213070F0233009F029C12EC0283009F4FA
:101CC000F4C0293009F404C1263009F01FC194C0C2
:101CD000803821F0823809F019C108C08091E301F1
:101CE0009091E401992371F082600CC08091EB0126
:101CF0008F708093E9009091EB0081E095FF80E088
:101D00001092E9009091E800977F9093E80080930B
:101D1000F1001092F100D4C0882319F0823009F04C
:101D2000F5C090E08F719070009729F08230910596
:101D300009F0ECC00BC08091E901813009F0E6C0E8
:101D4000233009F080E08093E4012CC08091E90108
:101D5000882341F52091EB012F7009F4D7C020931F
:101D6000E9008091EB0080FF1DC08091E801833085
:101D700021F48091EB00806213C08091EB008061C0
:101D80008093EB0081E090E002C0880F991F2A95B4
:101D9000E2F78093EA001092EA008091EB008860FD
:101DA0008093EB001092E9008091E800877F8BC060
:101DB000882309F0ABC01091E9011F778091E300FF
:101DC0008078812B8093E3008091E800877F809367
:101DD000E8000E94540C8091E80080FFFCCF8091C5
:101DE000E30080688093E300112311F083E001C0D9
:101DF00082E08093E6018AC08058823008F086C075
:101E00008091E9019091EA0123E08C3D920799F5D8
:101E100083E08C838AE28B835FB7F894DE011596AA
:101E200080E090E04EE061E2E42FF0E06093570044
:101E3000E49180FF03C0E295EF704F5FEF702E2FAB
:101E400030E0EA3018F0295C3F4F02C0205D3F4F80
:101E50002D933D9301968431910531F75FBF8091B9
:101E6000E800877F8093E800CE0103966AE270E085
:101E70000E944D0B14C06091EB01AE014F5F5F4FAC
:101E80000E94810ABC01009709F440C08091E800DB
:101E9000877F8093E80089819A810E94B50B8091A9
:101EA000E8008B778093E80031C0803879F5809125
:101EB000E800877F8093E8008091E2018093F10041
:101EC0008091E8008E778093E8000E94540C1EC039
:101ED0008823E1F49091E9019230C0F48091E80008
:101EE000877F8093E8009093E2010E94540C8091D8
:101EF000E201882321F48091E30087FF02C084E09F
:101F000001C081E08093E6010E947D098091E80094
:101F100083FF0AC08091E800877F8093E80080916A
:101F2000EB0080628093EB00AC960FB6F894DEBFB6
:101F30000FBECDBFCF91DF911F91089508951F93DC
:101F40008091E6018823B1F08091E9008F70909133
:101F5000EC0090FF02C010E801C010E0182B1092B6
:101F6000E9008091E80083FF02C00E94330E1F70D9
:101F70001093E9001F910895909376018093750165
:101F80000895E0917501F0917601309729F0019064
:101F9000F081E02D0995089580E00895E0917501A4
:101FA000F0917601309721F00280F381E02D0995C0
:101FB0000895E0917501F0917601309721F0048049
:101FC000F581E02D099508952091730130917401F8
:101FD0008217930771F09093740180937301E091DD
:101FE0007501F0917601309721F00680F781E02DA0
:101FF000099508952091710130917201821793071C
:1020000071F09093720180937101E0917501F091EC
:102010007601309721F00084F185E02D099508952F
:1020200008950E94101008950E94B01B0E94B707E7
:102030000E94401C0E94012108950E945E0708959D
:102040005F926F927F928F929F92AF92BF92CF9248
:10205000DF92EF92FF920F931F93DF93CF93CDB751
:10206000DEB72A970FB6F894DEBF0FBECDBF0E9431
:10207000010821E8E22E21E0F22E04E010E091E0D8
:10208000692E712C502E802F0E9489085C01F70167
:10209000D290C2907F01C826D926C114D104E1F1A3
:1020A0008091CF0181FF02C00E9492088EE090E0F3
:1020B0004301082E02C0880C991C0A94E2F794018F
:1020C0002C213D212115310511F189835A82A82047
:1020D000B92081E0A114B10409F480E08B830E944F
:1020E000B91B8160782F9D838C8349815A816B81D4
:1020F0008D810E94C810F801EE0FFF1FE958FE4FB6
:102100008081918188259925918380831DC00197C5
:10211000FFEF8F3F9F0761F60150104027E7E2165F
:1021200021E0F20609F0AECF0E94B91B2FEF2E83FB
:102130002F8318868160782F9A8789874FEF5FEF0A
:1021400060E08A850E94C8100E942B1E00918101C8
:102150000E94C10F081731F00E94C10F80938101C6
:102160000E941D102A960FB6F894DEBF0FBECDBF99
:10217000CF91DF911F910F91FF90EF90DF90CF9063
:10218000BF90AF909F908F907F906F905F900895D9
:10219000DF93CF93CDB7DEB72B970FB6F894DEBFA2
:1021A0000FBECDBF4F83588769877A878B87972F5C
:1021B000282FDE01119686E0FD0111928A95E9F73C
:1021C000FE01379685E001900D928150E1F7498339
:1021D0005A83792F9C832D836B81822F9E810E944D
:1021E000E6172B960FB6F894DEBF0FBECDBFCF918A
:1021F000DF9108951F93182F882309F4C1C08238F6
:1022000059F40E94C10F81FDBBC089E30E94841A6A
:102210000E94FF1A89E30CC0833879F40E94C10F31
:1022200080FDAEC083E50E94841A0E94FF1A83E5F8
:102230000E94A01A0E94FF1AA3C0843859F40E9479
:10224000C10F82FD9DC087E40E94841A0E94FF1A7C
:1022500087E4EECF8450813A50F4812F0E945920B8
:10226000882309F08DC0812F0E94841AE3CF812F2B
:10227000805E883050F4177081E090E001C0880FD4
:102280001A95EAF70E94BC1AD5CF812F855A833060
:1022900078F4153A29F0163A31F482E890E005C056
:1022A00081E890E002C083E890E00E94E40F68C0FB
:1022B000812F885A833108F063C0183A39F1193AEE
:1022C00041F11A3A49F11B3A51F11C3A59F11D3AC0
:1022D00061F1103B69F11E3A71F11F3A79F1113B3E
:1022E00081F1123B89F1133B91F1143B99F1153BBC
:1022F000A1F1163BA9F1173BB1F1183BB9F1193B1C
:10230000C1F11A3BC9F58AE292E038C082EE90E052
:1023100035C089EE90E032C08AEE90E02FC085EBA8
:1023200090E02CC086EB90E029C087EB90E026C0BF
:102330008CEC90E023C08DEC90E020C083E891E02D
:102340001DC08AE891E01AC082E991E017C084E9D3
:1023500091E014C081E292E011C083E292E00EC0ED
:1023600084E292E00BC085E292E008C086E292E04F
:1023700005C087E292E002C080E090E00E94FA0F80
:102380001F910895882309F44EC0823859F40E94A1
:10239000C10F81FF48C089E30E94841A0E94FF1A7E
:1023A00089E30CC0833869F40E94C10F80FF3BC0F1
:1023B00083E50E94841A0E94FF1A83E50E94A01AF6
:1023C0001FC0843859F40E94C10F82FF2CC087E4DB
:1023D0000E94841A0E94FF1A87E4F0CF982F94502D
:1023E000913A60F3982F905E983068F4282F277008
:1023F00081E090E001C0880F2A95EAF70E94C21A96
:102400000E94FF1A0895982F955A933028F480E07F
:1024100090E00E94E40F0895885A833120F480E010
:1024200090E00E94FA0F0895882321F00E94BC1AC0
:102430000E94FF1A0895882321F00E94C21A0E9468
:10244000FF1A0895AF92BF92DF92EF92FF920F931F
:102450001F93DF93CF9300D0CDB7DEB75C01472F3A
:10246000FC01E280158112951F70EE2031F0798316
:102470006A830E94D91A6A81498149836A830E94CA
:102480007D1A49816A81882389F0EE2079F0862FB0
:10249000805E883058F082E00E94661A0E947D1AA1
:1024A000DD24D394D82649816A8101C0DD24842F9C
:1024B00082958F7090E08530910509F4B9C086301F
:1024C00091055CF4843091050CF090C0242F207F9E
:1024D000823091050CF04FC019C08C3091054CF43E
:1024E0008A3091050CF054C18830910509F0F5C18E
:1024F000ABC08D30910509F4C4C18D3091050CF449
:10250000B9C18F30910509F0E8C1E3C14F702223B2
:1025100011F4142F03C0142F1295107FEE20B1F088
:10252000112309F493C1862F805E883028F4812F0F
:102530006A830E94BC1A04C0812F6A830E94CC1A4D
:102540006A816A830E94FF1A6A8180C1862F6A832A
:102550000E94C2116A81112309F4BFC1605E683014
:1025600020F4812F0E94C21A03C0812F0E94D21A28
:102570000E94FF1AB2C14F70203211F4842F03C0A1
:10258000842F8295807F662319F06130F1F413C0A7
:10259000EE2039F0112319F1113009F50E94EC1ADF
:1025A0009CC1112319F0113009F497C189830E944D
:1025B000EF1A89810CC1EE2021F0163008F08DC190
:1025C0000EC0153008F089C102C1EE2059F0112368
:1025D00031F0F501958190FF39C19F7095830E947C
:1025E00014127BC1112309F4F2C03BC1842F8695DC
:1025F0008695837090E0009729F08130910509F06D
:102600006CC10BC0EE2021F0862F942F937002C076
:1026100080E090E00E94E40F60C1EE2021F0862F60
:10262000942F937002C080E090E00E94FA0F55C191
:10263000EE2021F0862F0E942E1D03C0862F0E94BF
:10264000981D0E94201E49C1842F837009F04EC03E
:10265000EE2009F042C1262F229526952770220FE1
:10266000220F862F8F70E82EFF2400E010E0022E4C
:1026700004C0EE0CFF1C001F111F0A94D2F764FF68
:1026800010C06FE070E080E090E004C0660F771F3C
:10269000881F991F2A95D2F760957095809590951F
:1026A00003C060E070E0CB0146954695437050E072
:1026B0004230510569F04330510589F06E297F2978
:1026C000802B912B4130510571F00E94421905C1B8
:1026D0006E297F29802B912B0E945119FEC00E94E8
:1026E0004219C801B7010E943319F7C0EE2019F052
:1026F00080FFF3C002C081FFF0C0262F22952695EF
:102700002770220F220F862F8F70E82EFF2400E003
:1027100010E0022E04C0EE0CFF1C001F111F0A94D3
:10272000D2F764FF10C06FE070E080E090E004C07A
:10273000660F771F881F991F2A95D2F760957095AD
:102740008095909503C060E070E0CB01469546957A
:10275000437050E04230510569F04330510589F033
:102760006E297F29802B912B4130510571F00E94F9
:10277000DD19B3C06E297F29802B912B0E94EC19A3
:10278000ACC00E94DD19C801B7010E94CE19A5C0D6
:10279000613F71F1623F30F4603E08F453C0603F26
:1027A00048F018C0633F71F1633F38F1643F09F0AE
:1027B00049C032C0162F1F70842F8F71EE2021F078
:1027C0000E947619812F0BCF0E949219812F0E94AF
:1027D0001B1283C0EE2021F0153008F07EC003C02C
:1027E000163008F07AC0842F8F710E94B21975C01C
:1027F000842F8F71EE20D9F12FC0842F8F71EE209E
:1028000059F135C0EE2029F0842F8F710E9466198E
:1028100064C00E94601961C0EE2051F0142F1F7136
:10282000812F0E947619812F63E00E945C1A55C0A7
:1028300081E00E94661A123008F44FC082E00E94C4
:10284000661A4BC0EE2059F0112321F0862F0E940A
:10285000FA1043C0842F8F710E9476193EC0112355
:1028600021F0862F0E94C21138C0842F8F710E94E0
:10287000921933C04F70C5010E9497030E94A5189A
:102880002CC0EE2051F54F7050E042305105B9F0A8
:10289000433051053CF44115510559F04130510583
:1028A000E1F40AC04330510569F044305105A9F400
:1028B0000CC00E94132111C00E9428210EC00E944A
:1028C00045210BC00E945C2108C0862F0E948321F5
:1028D00004C04F70C5010E941205DD2089F00E94DE
:1028E000581A80FD0DC0F50112820E94521A0E94F2
:1028F0007619C5010E948C140E94521A0E949219E6
:102900000F900F90CF91DF911F910F91FF90EF905B
:10291000DF90BF90AF9008950F931F93CF93DF93F5
:10292000EC01288139818B819C810097C9F03F3F60
:1029300091F42F3F81F414C0688179818A810E94CB
:102940004E1A8C010E94FB190E942F19CE01B8016A
:102950000E94221205C0CE010E94AF03882361F7B6
:10296000DF91CF911F910F9108950E94D91A0E9473
:10297000E91A0E94AE1A0E94FF1A0E94CB1E0E9402
:10298000201E80E090E00E94E40F80E090E00E9432
:10299000FA0F08950E94C91A0E94B51408950E9462
:1029A000431A492F4F7092959F70292F30E02C3099
:1029B00031054CF42A3031056CF42250304022307D
:1029C0003105B0F407C02C30310579F02F303105D6
:1029D00079F40BC0803F39F0813F18F4803E50F409
:1029E00002C0843F39F481E0089581E043FD03C0D3
:1029F00080E0089580E00895DF93CF9300D000D069
:102A00000F92CDB7DEB70F900F900F900F900F90F1
:102A1000CF91DF910895DF93CF9300D000D000D005
:102A2000CDB7DEB726960FB6F894DEBF0FBECDBF8A
:102A3000CF91DF910895CF93DF938091890117C0E3
:102A4000C82FD0E0FE01EE0FFF1FEC0FFD1FEE0FB1
:102A5000FF1FE657FE4F408151816281738184815F
:102A600095810E940B1521969E012770822F9091CF
:102A70008801891729F7DF91CF910895409182014C
:102A8000509183016091840170918501809186014C
:102A9000909187010E940B1508954115510551F041
:102AA0006F3F59F421E030E08F3F11F020E030E03B
:102AB000C901089581E090E0089580E090E00895D4
:102AC000AF92BF92DF92EF92FF920F931F93DF932B
:102AD000CF930F92CDB7DEB78091870182958F702B
:102AE00009F05EC080918401882309F459C0909157
:102AF0008901D0908801E0908201F0908301A0903C
:102B00008501B090860185010095109546C08E2DF7
:102B10006F2DA50199830E944D1599818823D9F5C0
:102B2000292F30E0F901EE0FFF1FE20FF31FEE0F28
:102B3000FF1FE657FE4F8181F81669F58081E81680
:102B400051F58281882339F5438154814A155B050B
:102B500018F04A195B0902C0400F511F483C51054B
:102B6000D0F4809187018F70806180938701F90193
:102B7000EE0FFF1FE20FF31FEE0FFF1FE157FE4F97
:102B800080818F708061808382E891E00E948C1444
:102B90000E941B1505C09F5F97709D1509F0B7CF68
:102BA0000F90CF91DF911F910F91FF90EF90DF90E9
:102BB000BF90AF9008957F928F929F92AF92BF92F5
:102BC000CF92DF92EF92FF920F931F93DF93CF93F9
:102BD000CDB7DEB761970FB6F894DEBF0FBECDBF9D
:102BE0008C01DE011196FC0185E001900D9281506F
:102BF000E1F7D8019C901196AC9011971296BC9079
:102C000012971396ED90FC9014978090820170902B
:102C10008301C0908501D0908601882D672DA60183
:102C20000E944D15882309F08EC18091840188236C
:102C300009F413C120918701EC14FD0438F0C70199
:102C40008C199D09883C910550F0A9C0C094D0947E
:102C5000CE0CDF1CB8ECCB16D10408F0A0C0822F3C
:102C6000807F09F058C07A1499F4891489F4BB2044
:102C700079F42F702061209387010E943E1582E82D
:102C800091E00E948C1480918701F801858377C1BF
:102C9000892D6A2DA7010E944D15882399F5BB2027
:102CA000A1F5809189012091880116C090E0FC0176
:102CB000EE0FFF1FE80FF91FEE0FFF1FE657FE4F45
:102CC0003181A31639F43081931621F432813323F4
:102CD00009F055C101968770821741F765C19F7051
:102CE00061F0882351F44BC19F7039F0D8011596DB
:102CF0009C911597907F09F442C1805E883008F45A
:102D00003EC138C1BB2009F43AC18091870181607E
:102D10008093870134C17A1491F4891481F4BB2023
:102D200071F4F8012583C8010E948C14A2E8B1E077
:102D3000F80186E001900D928150E1F718C1998267
:102D4000AA8289819A810E94CF14882309F412C132
:102D5000BB2009F40FC140918701842F82958F70A9
:102D600090E08230910594F0CE01069626E0DC01D9
:102D70001D922A95E9F720918201309183013F83CA
:102D80002E83FA86E9864B870E948C14A2E8B1E074
:102D9000F80186E001900D928150E1F7E6C0822FA4
:102DA000807FB9F49982AA82BB827E2DFD82EC825B
:102DB000492D5A2D6B2D8D810E94FC1402E811E0E3
:102DC000C8010E948C1486E0F80111928A95E9F7F7
:102DD000B7C07A1491F4891481F4BB2071F4D8013E
:102DE00015962C93C8010E948C14E2E8F1E086E06D
:102DF000DF011D928A95E9F7C0C09982AA82898174
:102E00009A810E94CF14882309F4B4C0BB2009F42E
:102E1000B1C040918701842F82958F7090E08230FD
:102E2000910594F0CE010C9626E0FC0111922A95B2
:102E3000E9F720918201309183013D872C87F88A40
:102E4000EF86498B0E948C14A2E8B1E0F80186E07D
:102E500001900D928150E1F788C0EC14FD0438F028
:102E6000C7018C199D09883C910550F056C0C0944B
:102E7000D094CE0CDF1CF8ECCF16D10408F04DC076
:102E8000BB2009F477C07A1489F5891479F520916B
:102E9000870120FD22C0322F32953F70832F90E0B2
:102EA0000097D9F0D80115962C9315978F3091057E
:102EB00041F0832F8F5F8295807F2F70282B15968E
:102EC0002C93C8010E948C14A2E8B1E0F80186E0BE
:102ED00001900D928150E1F74AC0A2E8B1E0F801FB
:102EE00086E001900D928150E1F747C09982AA8255
:102EF00089819A810E94CF14882349F0A2E8B1E029
:102F0000F80186E001900D928150E1F72EC080918A
:102F100087018160809387012DC09982AA82BB823C
:102F20007E2DFD82EC82492D5A2D6B2D8D810E94C4
:102F3000FC14E2E8F1E086E0DF011D928A95E9F7F2
:102F40000E943E151CC0BB20A9F09982AA828981EB
:102F50009A810E94CF14882369F0A2E8B1E0F801B9
:102F600086E001900D928150E1F70E9460150E9469
:102F70003E1503C0C8010E948C1481E001C080E0AE
:102F800061960FB6F894DEBF0FBECDBFCF91DF9133
:102F90001F910F91FF90EF90DF90CF90BF90AF9077
:102FA0009F908F907F9008959982AA8289819A81BB
:102FB0000E94431A292F22952F7030E022303105CC
:102FC0000CF48DCE24303105ACF68ECEEF92FF920C
:102FD0000F931F93DF93CF93CDB7DEB72C970FB628
:102FE000F894DEBF0FBECDBF4F83588769877A87BD
:102FF0008B879C878E01095F1F4FC8010E94DB15DC
:10300000882391F04A855B858F8168850E944D15E4
:10301000882309F078C04F81588569857A858B852A
:103020009C850E940B156FC0DE011196F80186E0A9
:1030300001900D928150E1F7EF80F8840A851B859D
:103040008E2D6F2DA8010E944D15882309F05BC0BD
:103050002091880130E0A9014F5F5F4F47705070A9
:103060008091890190E04817590709F453C0F9018C
:10307000EE0FFF1FE20FF31FEE0FFF1FE657FE4F8D
:10308000DE01119686E00D9001928150E1F7F90181
:10309000EE0FFF1FE20FF31FEE0FFF1FE657FE4F6D
:1030A000E082F18214830383409388010E941B1500
:1030B0002AC030E0C901880F991F820F931F880F23
:1030C000991F86579E4F0E94DB15882389F18091B6
:1030D000890190E0FC01EE0FFF1FE80FF91FEE0FD2
:1030E000FF1FE657FE4F40815181628173818481C9
:1030F00095810E940B158091890190E0019687705F
:10310000907080938901209189018091880128170E
:1031100081F60EC00E94CA14109288011092890193
:10312000E2E8F1E086E0DF011D928A95E9F7EBCF56
:103130002C960FB6F894DEBF0FBECDBFCF91DF91B6
:103140001F910F91FF90EF900895FF920F931F939F
:10315000CF93DF93EC01009709F465C0FF2401E0F1
:1031600010E0FE0121968491843748F4843008F001
:1031700047C0813079F0823009F055C01CC08537D6
:1031800009F43AC0853750F1982F9458903708F0D9
:103190004AC039C0FE0121968491982F905E9830E4
:1031A00078F58770902F01C0990F8A95EAF7892FDB
:1031B0000E94DC1A10C0FE0121968491982F905E27
:1031C000983010F58770E02F01C0EE0F8A95EAF76E
:1031D0008E2F0E94E21A0E94FF1A18C0FE0121964B
:1031E000E49107C08FE99FE00197F1F700C000006C
:1031F000E150EE23B9F70AC0FE012196F49006C013
:103200000E94FA1003C08F770E94C2118F2D07C051
:10321000EFE9FFE03197F1F700C00000815088230B
:1032200009F49FCFF5CFDF91CF911F910F91FF90C0
:1032300008956093BA017093BB018093BC01909391
:10324000BD010E94B51408956093BE017093BF0143
:103250008093C0019093C1010E94B5140895089510
:103260000E94191908952091BA013091BB01409133
:10327000BC015091BD01622B732B842B952B0E94B6
:10328000191908952091BA013091BB014091BC01F8
:103290005091BD0162237323842395230E94191941
:1032A00008952091BA013091BB014091BC01509129
:1032B000BD0162277327842795270E941919089555
:1032C00060E070E0CB010E942419089521E030E015
:1032D00040E050E004C0220F331F441F551F8A9561
:1032E000D2F7CA01B9010E942419089521E030E003
:1032F00040E050E004C0220F331F441F551F8A9541
:10330000D2F78091BE019091BF01A091C001B09110
:10331000C101282B392B4A2B5B2BCA01B9010E9412
:103320002419089521E030E040E050E004C0220F6D
:10333000331F441F551F8A95D2F72095309540952D
:1033400050958091BE019091BF01A091C001B091B4
:10335000C101282339234A235B23CA01B9010E94F2
:103360002419089521E030E040E050E004C0220F2D
:10337000331F441F551F8A95D2F78091BE0190914B
:10338000BF01A091C001B091C101282739274A2768
:103390005B27CA01B9010E94241908952091BE013A
:1033A0003091BF014091C0015091C101622B732B3C
:1033B000842B952B0E94241908952091BE013091F1
:1033C000BF014091C0015091C10162237323842346
:1033D00095230E94241908952091BE013091BF01C8
:1033E0004091C0015091C10162277327842795271E
:1033F0000E94241908950895BF92CF92DF92EF9210
:10340000FF920F931F93CF93DF936C01E090BA016B
:10341000F090BB010091BC011091BD018091BE01F3
:103420009091BF01A091C001B091C101E82AF92A91
:103430000A2B1B2BCFE1D0E0BC2ED801C7010C2EEC
:1034400004C0B695A795979587950A94D2F7817091
:103450009070009739F08C2FB6010E9429058130B9
:10346000910531F421973FEFCF3FD30729F7BB24D4
:103470008B2DDF91CF911F910F91FF90EF90DF90F7
:10348000CF90BF900895CF93DF93EC010E94FC1979
:10349000BE010E942905DF91CF910895CB010E94C2
:1034A000431A08958091C60185958595859508955F
:1034B0008091C60187700895982F990F990F990FE1
:1034C000962B9093C6010E94761908954091C601EB
:1034D000809584238093C601982F977069F450E0FB
:1034E000282F332727FD30954217530729F085955C
:1034F000859585950E94921908959091C6019770BF
:1035000081E009F480E0089520910C0130910D01D3
:10351000D9011296EFEF90E04D91481781F0EF3FFF
:1035200019F4442309F4E92F9F5F9630A9F7EF3F80
:1035300031F0FF27E7FDF095E20FF31F8283089536
:10354000E0910C01F0910D0196E02281281709F419
:103550001282915031969923C1F7089580E090E04E
:103560000196E0910C01F0910D01E80FF91F108216
:1035700087309105A9F708959091C201982B9093F7
:10358000C201089580959091C20198239093C20141
:1035900008951092C20108959091C501982B9093BF
:1035A000C501089580959091C50198239093C50118
:1035B00008951092C50108959091C401982B90939D
:1035C000C401089580959091C40198239093C401FB
:1035D00008951092C40108958093C3010895109234
:1035E000C3010895E0910C01F0910D01319697E02F
:1035F00080E0219121118F5F9150D9F70895E091DA
:103600000C01F0910D018091C2018083E0910C01C9
:10361000F0910D0180819091C501892B8083E0910B
:103620000C01F0910D0180819091C401892B808360
:103630009091C301992369F0E0910C01F0910D0183
:103640008081892B80830E94F21A882311F00E94C6
:10365000EF1A80910C0190910D010E94CE0F0895F8
:103660009C0180E006C0A90141505040242335232D
:103670008F5F21153105B9F708958091E6018430F7
:1036800039F11092D00120E488E190E00FB6F8946F
:10369000A895809360000FBE2093600080E00E9498
:1036A0003C0380E00E945E0783B7817F846083BF14
:1036B00083B7816083BF7894889583B78E7F83BFFB
:1036C00088E10FB6F89480936000109260000FBEFE
:1036D0000895089580E00E943C030E9475070E94AF
:1036E00001080E94691B0E94930891E0882309F455
:1036F00090E0892F08950E94CA1480E00E943C0344
:103700000E9401210E94C10F0E945E0708951F922E
:103710000F920FB60F9211248F939F93AF93BF9385
:103720008091D001882399F48091D1019091D201A8
:10373000A091D301B091D4014196A11DB11D8093F8
:10374000D1019093D201A093D301B093D401BF9142
:10375000AF919F918F910F900FBE0F901F90189572
:1037600082E084BD93E095BD9AEF97BD80936E0093
:1037700008958FB7F8942091D1013091D2014091F2
:10378000D3015091D4018FBFC9010895EF92FF92E8
:103790000F931F93FC018FB7F8942091D1013091C2
:1037A000D2014091D3015091D4018FBF8FEFE82E09
:1037B0008FEFF82E012D112DE222F3220423152381
:1037C000BF0180E090E0E616F7060807190720F031
:1037D000B9016E1B7F0B05C0BF0160957095620F2C
:1037E000731FCB011F910F91FF90EF9008951F92CF
:1037F0000F920FB60F9211248F939F93AF93BF93A5
:103800008091D1019091D201A091D301B091D401C6
:103810000196A11DB11D8093D1019093D201A09377
:10382000D301B093D401BF91AF919F918F910F902D
:103830000FBE0F901F9018950E94A90CF8948FEF5F
:1038400097EAA1E681509040A040E1F700C0000057
:1038500087E090EBA7E0B0EB8093F0019093F1014B
:10386000A093F201B093F3012CE088E190E00FB651
:10387000F894A895809360000FBE20936000FFCF5E
:103880000E94791C882311F40E94591C0E94851CF7
:103890008093CF010E948F1C8093E0011092E10180
:1038A0000E948A1C682F70E080E090E00E9430192E
:1038B000089580E090E06DEE7EEF0E940C2382E0A0
:1038C00090E060E00E94FA2283E090E060E00E94D5
:1038D000FA2284E090E060E00E94FA2285E090E025
:1038E00060E00E94FA2286E090E060E00E94FA2206
:1038F000089580E090E00E94F42221E03EEF8D3EAA
:10390000930709F020E0822F089582E090E00E9462
:10391000EC22089583E090E00E94EC22089584E078
:1039200090E00E94EC220895682F84E090E00E94CD
:10393000FA22089586E090E00E94EC220895682F14
:1039400086E090E00E94FA2208958091DB0180FFDA
:103950000BC06091100185E0689FB001112475953E
:1039600067957595679530C081FF09C0609110011A
:1039700085E0689FB00111247595679525C082FF89
:1039800007C06091100185E0689FB00111241CC040
:103990008091DA018823F9F06091110120911001E2
:1039A000861728F065E0269FB00111240DC0829F84
:1039B00090011124C901880F991F880F991F820F48
:1039C000931F70E00E94C5226038710540F46115B4
:1039D000710539F002C065E070E0862F08958FE729
:1039E000089581E008958091DB0180FF08C0609117
:1039F000120170E0759567957595679523C081FFF5
:103A000006C06091120170E0759567951BC082FF3A
:103A100003C0609112010BC08091DA018823D9F0B4
:103A20006091130190911201861718F0692F70E0D0
:103A300006C0899FC001112470E00E94C522603831
:103A4000710528F46115710521F0862F08958FE71F
:103A5000089581E0089561E070E0F4CF803F21F4A3
:103A60000E94A51C819504C0813F29F40E94A51CD9
:103A70008093D7010895823F21F40E94A51C81956F
:103A800004C0833F29F40E94A51C8093D6010895A9
:103A9000893F19F40E94F31C05C08A3F31F40E944B
:103AA000F31C81958093D80108958B3F21F40E94E7
:103AB000F31C819504C08C3F29F40E94F31C809371
:103AC000D9010895843F21F48091D501816017C008
:103AD000853F21F48091D501826011C0863F21F499
:103AE0008091D50184600BC0873F21F48091D5017E
:103AF000886005C0883F31F48091D5018061809352
:103B0000D50108958D3F21F48091DB01816005C0CE
:103B10008E3F31F48091DB0182608093DB01089558
:103B20008F3F29F48091DB0184608093DB0108954D
:103B3000803F29F48091D70187FF6FC007C0813F84
:103B400041F48091D70118160CF067C01092D7018C
:103B500064C0823F29F48091D60187FF5EC007C010
:103B6000833F41F48091D60118160CF056C0109294
:103B7000D60153C0893F29F48091D80118163CF032
:103B80004CC08A3F39F48091D80187FF46C010921B
:103B9000D80143C08B3F29F48091D90187FF3DC0F4
:103BA00006C08C3F39F48091D9011816B4F51092F3
:103BB000D90133C0843F21F48091D5018E7F05C0A7
:103BC000853F31F48091D5018D7F8093D50125C04B
:103BD000863F21F48091D5018B7FF7CF873F21F479
:103BE0008091D501877FF1CF883F21F48091D50165
:103BF0008F7EEBCF8D3F21F48091DB018E7F0BC058
:103C00008E3F21F48091DB018D7F05C08F3F29F429
:103C10008091DB018B7F8093DB018091D60188232B
:103C200071F48091D701882351F48091D8018823C1
:103C300031F48091D901882311F41092DA010895AA
:103C400085ED91E00E94D90F0E94B91B9093DD0190
:103C50008093DC0108951F938091DC019091DD0138
:103C60000E94C61B4091DA01442321F020910F01EC
:103C700030E006C030910E012AE0329F90011124FD
:103C80008217930708F485C08091D601882369F4D0
:103C90009091D701992349F49091D801992329F45F
:103CA0009091D901992309F474C04F3F19F04F5FE7
:103CB0004093DA01181624F40E94A51C8093D601C3
:103CC0008091D60187FF05C00E94A51C8195809335
:103CD000D6018091D701181624F40E94A51C809368
:103CE000D7018091D70187FF05C00E94A51C81954F
:103CF0008093D7016091D601662339F11091D701E5
:103D0000112319F1772767FD7095872F972F0E9450
:103D1000D62123E333E343E35FE30E943A220E9488
:103D2000A3216093D601612F772767FD7095872FB8
:103D3000972F0E94D62123E333E343E35FE30E94FE
:103D40003A220E94A3216093D7018091D8011816CE
:103D500024F40E94F31C8093D8018091D80187FF3E
:103D600005C00E94F31C81958093D8018091D901F0
:103D7000181624F40E94F31C8093D9018091D90174
:103D800087FF05C00E94F31C81958093D9010E9492
:103D9000201E1F910895E5EDF1E085E0DF011D9201
:103DA0008A95E9F71092DA011092DB0108958330C9
:103DB00099F1843030F4813069F0823009F06FC0BD
:103DC0001AC0853009F44AC08530B8F1863009F050
:103DD00066C055C020910E01822F90E0860F911D84
:103DE0008F3F910520F4620F60930E0108958FEFCD
:103DF00080930E01089520910F01822F90E0860F8D
:103E0000911D8F3F910520F4620F60930F0108957B
:103E10008FEF80930F01089520911001822F90E081
:103E2000860F911D8F3F910520F4620F6093100162
:103E300008958FEF80931001089520911101822F32
:103E400090E0860F911D8F3F910520F4620F6093E3
:103E5000110108958FEF80931101089520911201AF
:103E6000822F90E0860F911D8F3F910520F4620F05
:103E70006093120108958FEF8093120108952091AD
:103E80001301822F90E0860F911D8F3F910520F442
:103E9000620F6093130108958FEF809313010895CB
:103EA000833031F1843030F4813061F0823009F0B8
:103EB0004AC013C0853091F1853028F1863009F071
:103EC00042C037C080910E01681720F4861B809392
:103ED0000E01089510920E01089580910F01681748
:103EE00020F4861B80930F01089510920F0108950E
:103EF00080911001681720F4861B809310010895AB
:103F000010921001089580911101681720F4861B0A
:103F1000809311010895109211010895809112016A
:103F2000681720F4861B80931201089510921201E5
:103F3000089580911301681720F4861B8093130164
:103F4000089510921301089521E030E040E050E020
:103F500004C0220F331F441F551F8A95D2F7CA0190
:103F6000B9010E9430190E94CA1408958B3109F4D6
:103F700060C08C31D8F48B3009F493C08C3040F49D
:103F8000863089F1873009F445C0853051F534C059
:103F9000803109F469C0813118F48E3011F553C0B5
:103FA000863109F47EC08931E1F47BC0853309F4A0
:103FB00075C0863358F4873209F470C0883218F41B
:103FC0008E3178F069C0893261F468C0833430F48E
:103FD0008A3308F05FC0883321F463C0833409F466
:103FE0005DC080E008958091CF01807F8093CF01F4
:103FF00081E08093DE0108950E94CA148FEF93ED53
:10400000A0E381509040A040E1F700C000000E9472
:104010001C1C47C08091CF01982F909591708E7F86
:10402000892B992311F08E6001C0817F8093CF018D
:1040300038C09091CF01892F869580958170282F67
:10404000220F9D7F0BC09091CF01892F8695869579
:1040500080958170282F220F220F9B7F922B9093A7
:10406000CF018823F1F012C09091CF01892F86955E
:104070008695869580958170282F220F220F220F1A
:10408000977F922B9093CF01882369F09160909352
:10409000CF0107C0895303C08D5101C080E00E9449
:1040A000A41F81E0089581E0089580E0089580E0F4
:1040B00008951F93182F8091DE01813079F08130AF
:1040C00020F0823009F093C039C0A0910C01B0916A
:1040D0000D018C91823209F08CC007C0A0910C01B7
:1040E000B0910D018C91823251F4812F0E945520A4
:1040F000882309F083C0812F0E94B61F7DC0812FC5
:104100000E945720882309F079C0143169F01531D5
:1041100030F41B3009F472C0103169F408C0193250
:1041200019F0183341F46AC01092DE0104C082E035
:104130008093DE0163C080E090E05EC01932E9F058
:104140001A3268F41431C9F0153120F4173009F02F
:1041500052C03AC01E51163008F04DC019C01E346E
:1041600069F11F3420F41B3409F045C021C011351A
:10417000D9F0123509F03FC013C08091DF018823C8
:1041800019F01092DF0137C081E08093DE0134C066
:10419000E12FF0E0E65CFE4F80818093DF012BC0D1
:1041A0008091DF0161E007C08091DF0161E009C01B
:1041B0008091DF016AE00E94D71E1DC08091DF015F
:1041C0006AE00E94501F17C08EE180930E0182E3C7
:1041D00080930F018AE08093100184E180931101A4
:1041E00088E08093120188E28093130104C010924A
:1041F000DE0180E001C081E01F91089581E090E040
:10420000FBCF0E94791C882311F40E94591C0E9444
:104210009A1C8093EF0180FF02C0869501C080E068
:104220000E943C0308958091EF018695282F30E08D
:10423000233031053CF48F5F880F81608093EF015C
:104240000E949F1C8091EF0186950E943C03089577
:104250008091EF01982F969591F09158990F817068
:10426000892B8093EF018E7F91E009F490E080919B
:10427000EF018E7F892B8093EF010E949F1C80911C
:10428000EF0186950E943C0308958091EF0191E033
:1042900080FD90E08091EF018E7F892B8093EF016C
:1042A0000E949F1C8091EF0180FF02C0869501C093
:1042B00080E00E943C0308952091EF01822F8695B3
:1042C0008F5F8F77982F990F2170292B2093EF0103
:1042D00090E0843091051CF021702093EF018091D3
:1042E000EF018E7F91E009F490E08091EF018E7FE5
:1042F000892B8093EF010E949F1C8091EF0186958E
:104300000E943C0308952091EF01922F96959827E3
:10431000990F2170292B2093EF012E7F91E009F452
:1043200090E08091EF018E7F892B8093EF010E94B6
:104330009F1C8091EF0186950E943C030895809117
:10434000EF018695089504D06894B1118DC0089549
:1043500070D088F09F5790F0B92F9927B751A0F0EF
:10436000D1F0660F771F881F991F1AF0BA95C9F709
:1043700012C0B13081F077D0B1E0089574C0672FDA
:10438000782F8827B85F39F0B93FCCF386957795B9
:104390006795B395D9F73EF49095809570956195A2
:1043A0007F4F8F4F9F4F0895E89409C097FB3EF4CD
:1043B00090958095709561957F4F8F4F9F4F992372
:1043C000A9F0F92F96E9BB279395F69587957795F0
:1043D0006795B795F111F8CFFAF4BB0F11F460FFB0
:1043E0001BC06F5F7F4F8F4F9F4F16C0882311F008
:1043F00096E911C0772321F09EE8872F762F05C01C
:10440000662371F096E8862F70E060E02AF09A95B6
:10441000660F771F881FDAF7880F9695879597F9AB
:10442000089557FD9058440F551F59F05F3F71F0A4
:104430004795880F97FB991F61F09F3F79F087950B
:104440000895121613061406551FF2CF4695F1DF94
:1044500008C0161617061806991FF1CF8695710524
:10446000610508940895E894BB2766277727CB0158
:1044700097F908950BD078C069D028F06ED018F065
:10448000952309F05AC05FC01124EECFCADFA0F314
:10449000959FD1F3950F50E0551F629FF001729FD9
:1044A000BB27F00DB11D639FAA27F00DB11DAA1FF8
:1044B000649F6627B00DA11D661F829F2227B00D45
:1044C000A11D621F739FB00DA11D621F839FA00DD0
:1044D000611D221F749F3327A00D611D231F849F20
:1044E000600D211D822F762F6A2F11249F57504077
:1044F0008AF0E1F088234AF0EE0FFF1FBB1F661F12
:10450000771F881F91505040A9F79E3F510570F0CA
:1045100014C0AACF5F3FECF3983EDCF38695779505
:104520006795B795F795E7959F5FC1F7FE2B880FC5
:10453000911D9695879597F9089597F99F6780E85B
:1045400070E060E008959FEF80EC089500240A94E5
:104550001616170618060906089500240A9412165E
:104560001306140605060895092E0394000C11F491
:10457000882352F0BB0F40F4BF2B11F460FF04C03E
:104580006F5F7F4F8F4F9F4F089597FB092E072630
:104590000AD077FD04D00CD006D000201AF4709514
:1045A00061957F4F0895F6F7909581959F4F0895F7
:1045B000AA1BBB1B51E107C0AA1FBB1FA617B70749
:1045C00010F0A61BB70B881F991F5A95A9F7809565
:1045D0009095BC01CD010895F999FECF92BD81BDA2
:1045E000F89A992780B50895A8E1B0E042E050E03C
:1045F0000C941423262FF999FECF92BD81BDF89A11
:10460000019700B4021639F01FBA20BD0FB6F89416
:10461000FA9AF99A0FBE08950196272F0E94FB225D
:104620000C94FA22DC01CB01FC01F999FECF06C003
:10463000F2BDE1BDF89A319600B40D924150504060
:08464000B8F70895F894FFCFCC
:10464800FF01A30833090F09DA08A608C7011E32BB
:104658000A1408281F0F03764F5F6F7F4969437953
:104668003929190959536366170530054905300476
:104678007004BD0440004D00360001020304050625
:044688000708090016
:00000001FF
