:100000000C9458040C949C040C949C040C949C0434
:100010000C949C040C949C040C949C040C949C04E0
:100020000C949C040C949C040C9415110C94E711F2
:100030000C949C040C949C040C949C040C949C04C0
:100040000C949C040C94A1240C949C040C949C048B
:100050000C949C040C94831F0C949C040C949C049E
:100060000C949C040C949C040C949C040C949C0490
:100070000C949C040C949C040C949C040C949C0480
:100080000C949C040C949C040C949C040C949C0470
:100090000C949C040C949C040C949C040C949C0460
:1000A0000C949C040C949C040C949C04170751071A
:1000B000630785079D07A307A907AF07B507BB0718
:1000C000D307D807DE0708080E0813082A085412B9
:1000D0007612641376126413BB12DE1264133313A8
:1000E000461315161516441644167A169A16CB178B
:1000F000CB17A516CB1755175517BC17CB17CB1712
:10010000C5176217621762176217621762176217C4
:100110006217621762176217621762176217621717
:1001200062177417811788178F17991702E002E278
:10013000012E022E02E10002E002E102E20001E0F3
:1001400001E101E20002E002E3016402640002E076
:1001500002E30001E001E30001E10137023702E1BF
:100160000138023801E10125022502E10001E10127
:1001700037023702E10138023801E10107020702C4
:10018000E10001350235012002200002E302E10214
:10019000E302E102E302E102E302E102E302E1023F
:1001A000E302E102E302E102E302E102E302E1022F
:1001B000E302E102E302E102E302E102E302E1021F
:1001C000E302E102E302E102E302E102E302E1020F
:1001D000E302E102E302E102E302E102E302E102FF
:1001E000E302E102E302E102E302E102E302E102EF
:1001F000E302E102E302E102E302E102E302E102DF
:10020000E302E102E302E102E302E102E302E102CE
:10021000E302E102E302E102E302E102E302E102BE
:10022000E302E102E302E102E302E102E302E102AE
:10023000E302E10001E301E10002E202E301310235
:10024000310002E202E30001E201E30001E10136D4
:10025000023602E10138023801E10126022602E1FC
:100260000001E10137023702E10138023801E10102
:1002700026022602E10001E10136023602E10138E0
:10028000023801E10125022502E10001E101370206
:100290003702E10138023801E20125022502E200BD
:1002A00001E10137023702E10138023801E1013092
:1002B000023002E10002E002E2013002300002E01E
:1002C00002E20001E001E20001E10131023102E15C
:1002D0000029002B00E200E100354100001E00145F
:1002E0000004001D610F304E001F001A0016001B95
:1002F0000003304C002000080007000600E0022A3E
:1003000000210015000900190000304B00220017E1
:10031000000A00050000004A000230E3000000006F
:100320006700004D000C30E7000000006F00005037
:100330000023001C000B00110000004F00240018D7
:10034000000D0010000930520025000C000E003690
:10035000002E002C00260012000F003700E10828B4
:10036000002700130033003861E10451002D002FF5
:10037000003464E500304100006500010001000127
:1003800000010000003A00350031000100010001C9
:10039000003B0035022102350001004C003C001EEC
:1003A0000224062202010001003D002D0224022445
:1003B00004010001003E00010037001104000001AB
:1003C000003E00010000000100000001003F0001AC
:1003D0000000000100000068003F00240624022401
:1003E0000400004500400022042502110431026986
:1003F0000041002304260201001F020100420035D3
:10040000002504010001000100430035022604011B
:100410000001306A0044001E0231000100010000AA
:1004200000010001000100010001000000010001C5
:100430000001000100010001000100F400F200FBD6
:1004400000010001000100F000F100FA00010001CC
:10045000000100F500F300FC00010001000100F9BB
:1004600000FA00F600000001000100010000000198
:10047000000000010001000100000001000000ACCC
:100480000001000100010001000000AB00010001BB
:1004900000010001000100A90001000100010001AC
:1004A000000100AE0001000100010001005000A8A1
:1004B0000001000100010052005100AA00010001EA
:1004C00000010001004F00000001000100010001D7
:1004D0000001000000010001000100010001000115
:1004E0000001000100010001000100010001000104
:1004F00000010001000100010001000100010001F4
:1005000000010001000100010001000100000001E4
:1005100000010001000000010000000100043001A2
:100520000000000100000001000B30053008300120
:10053000000000010001000E300730010001000141
:1005400000010006300D3001000100010001000132
:100550000001000100010001000100010001000193
:100560000001000100010001000100010001000084
:100570000001000100010001000100000001000174
:100580000001000100010001000100010050000114
:1005900000010001000100520051000100010001B2
:1005A00000010001004F00010001000100010001F5
:1005B0000001000100000001000100010000000135
:1005C0000000000100010001000000010000000126
:1005D000003F002402240222020000010040002407
:1005E0000021001E00270001004100250022001FFD
:1005F00000370001004200260023002000360001E1
:100600000043003002300001002702010044004591
:1006100000380001000100000001000100E10001BC
:1006200000E0000000010001000100010001003DA8
:100630000001000100010001000100E000010001D3
:10064000000100010001002C000100010001000177
:100650000001003C00010001000100010000003A1F
:1006600000010001000000010000003B000100014A
:100670000000000100000001000100010001000174
:100680000000000100010001000100010001000163
:100690000001000100010001000100010001000152
:1006A0000001000100010001000100010001000142
:1006B0000001300100010001000100010001000003
:1006C0000016034500720067006F0044006F007859
:1006D00000200045005A0000001603450072006724
:1006E000006F0044006F007800200045005A0000B1
:1006F000000403090409026D00040100A0FA0904C2
:100700000000010301010009211101000122400044
:100710000705810308000A09040100010301020022
:10072000092111010001224D000705820308000A7A
:100730000904020001030000000921110100012247
:1007400036000705830308000A09040300010300BB
:10075000000009211101000122390007058403105E
:1007600000011201100100000008EDFE0713010056
:100770000102000105010906A101050719E029E7A9
:100780001500250195087501810205081901290543
:1007900095057501910295017503910105071900F1
:1007A000297715002501957875018102C005010999
:1007B00080A101850216010026B7001A01002AB7A0
:1007C00000751095018100C0050C0901A101850388
:1007D000160100269C021A01002A9C027510950140
:1007E0008100C005010902A1010901A10005091943
:1007F00001290515002501950575018102950175F1
:100800000381010501093009311581257F950275A4
:1008100008810609381581257F950175088106052F
:100820000C0A38021581257F950175088106C0C024
:1008300005010906A101050719E029E715002501B1
:100840009508750181029501750881010508190156
:10085000290595057501910295017503910105071B
:10086000190029FF150026FF00950675088100C0B4
:100870000000000000000000000000010204060A61
:100880000F17202C3A4A5D71879DB3C7DAE9F5FC52
:10089000FFFCF5E9DAC7B39D87715D4A3A2C201752
:1008A0000F0A060402010000000000000000000022
:1008B00011241FBECFEFDAE0DEBFCDBF04B603FECA
:1008C00024C08091030290910402A0910502B0918E
:1008D00006028730904BA740B04BB9F41092030248
:1008E00010920402109205021092060214BE84B700
:1008F000877F84BF88E10FB6F894809360001092E0
:1009000060000FBEE0E0FFE3099511E0A0E0B1E078
:10091000E0EDFCE402C005900D92A433B107D9F7D5
:1009200012E0A4E3B1E001C01D92A330B107E1F7EA
:100930000E945D0E0C9466260C9400001092B90083
:100940008AE08093B800089594EA9093BC00909157
:10095000BC0097FFFCCF9091B900987F983021F0B0
:10096000903111F081E008958093BB0084E880937A
:10097000BC008091BC0087FFFCCF8091B900887FCC
:10098000883111F0803471F780E0089584E9809314
:10099000BC008091BC0084FDFCCF08958093BB0017
:1009A00084E88093BC008091BC0087FFFCCF9091CD
:1009B000B900987F81E0983209F480E0089584E8D6
:1009C0008093BC008091BC0087FFFCCF8091BB006E
:1009D000089580B38C7080BB81B3836F81BB089511
:1009E00080910101811115C080E40E94A4048093CC
:1009F000010181110CC082E10E94CE0480930101AB
:100A0000811105C08FEF0E94CE04809301010E94E6
:100A1000C60484B1807F84B985B1807F85B98AB1ED
:100A2000837F8AB98BB1837F8BB93E9846980895AE
:100A30000E94BA06809301010E94F0040E94E9041A
:100A4000A5E3B1E0E3E4F1E08EE08E0F11921D9298
:100A50008E13FCCF0C94A4060E94BA068093010169
:100A60000E94F0040E94E904A5E3B1E0E3E4F1E0B0
:100A70008EE08E0F11921D928E13FCCF0895BF92BF
:100A8000CF92DF92EF92FF920F931F93CF93DF935A
:100A900080910101882379F0809134018F5F8093E8
:100AA0003401811108C00E94BA06809301018111AE
:100AB00002C00E944C0605E311E0C0E0D0E0DD2456
:100AC000D39482E0C82EEE24E394F12CC730D105F4
:100AD00000F580910101811164C080E40E94A404AA
:100AE00080930101811112C082E10E94CE048093A3
:100AF000010181110BC0C7010C2E01C0880F0A949F
:100B0000EAF780950E94CE04809301010E94C604FA
:100B100048C0CA30A1F028F4C83059F0C93061F09B
:100B200005C0CC3089F070F0CD3089F0209A28983B
:100B300010C0219A29980DC0229A2A980AC0239A97
:100B40002B9807C0529A01C0539A5B9802C03E9AF4
:100B5000469890EA9A95F1F79FB1799902C082E0A0
:100B600001C080E091709D25982B7C9902C084E0A3
:100B700001C080E0892B7D9902C038E001C030E0DF
:100B8000832B7E9902C020E101C020E0822B9FB11F
:100B90009095991F9927991F9295990F907E892B6F
:100BA0000FC080910101811149C080E40E94A4041A
:100BB00080930101882379F1B12C0E94C6048B2D0A
:100BC000F8019081981719F08083C09200010E946B
:100BD000F00421960F5F1F4FCE30D10509F076CF7C
:100BE00080910001882361F1815080930001882366
:100BF00039F08FE99FE00197F1F700C0000020C0B5
:100C0000A3E4B1E0E5E3F1E0CF01825F91919D9330
:100C10008E13FCCF15C083E10E94CE0480930101A6
:100C20008111CACF81E40E94A40480930101811143
:100C3000C3CF0E94DF04B82EB094BFCF80E0C0CFF6
:100C40000E944A0681E0DF91CF911F910F91FF90A2
:100C5000EF90DF90CF90BF900895E82FF0E0ED5B2C
:100C6000FE4F8081089508950F931F93CF93DF93D4
:100C7000C3E4D1E010E00C2F025F899190E00E9464
:100C8000AA1E180F0C13F9CF812FDF91CF911F915E
:100C90000F9108950C94540856985E9825982D98B5
:100CA00026982E9827982F988FEF90E090938900A0
:100CB0008093880090938B0080938A0090938D009E
:100CC00080938C00259A2D9A2FEF80E792E0215097
:100CD00080409040E1F700C00000269A2E9A2FEF46
:100CE00080E792E0215080409040E1F700C0000092
:100CF000279A2F9A2FEF80E792E021508040904072
:100D0000E1F700C0000025982D982FEF80E792E0D2
:100D1000215080409040E1F700C0000026982E98B6
:100D20002FEF80E792E0215080409040E1F700C033
:100D3000000027982F9856985E9825982D98269809
:100D40002E9827982F98089589EA8093800089E04B
:100D50008093810024982C983F988AB18F748AB927
:100D60006E98479A8BB1806B8BB9769A0E944C062D
:100D70000C94530880E2809301018091510181110C
:100D80000EC00E949E0481E0809351012FEF83EDFD
:100D900090E3215080409040E1F700C0000080E4E3
:100DA0000E94A4048093010181112EC00E94CE04F0
:100DB00080930101811128C00E94CE04809301011B
:100DC000811122C08FE30E94CE0480930101811122
:100DD0001BC00E94C60480E40E94A4048093010109
:100DE000811112C08CE00E94CE0480930101811118
:100DF0000BC00E94CE0480930101811105C08FE3D6
:100E00000E94CE04809301010E94C60480910101DA
:100E10000895462F50E04131510508F03BC1DC01F7
:100E2000FA01EA5AFF4F12968C910C9416268823E9
:100E3000A9F00E944D1F909353018093520180911D
:100E4000C4019091C501A091C601B091C70128E0ED
:100E5000822788709927AA27BB27C6C08091C40122
:100E60009091C501A091C601B091C70128E08227E9
:100E700088709927AA27BB278093C4019093C50146
:100E8000A093C601B093C701809152019091530184
:100E90000E94591F8739910508F0FCC088EC92E048
:100EA0000895882309F4F6C08091C4019091C5018A
:100EB000A091C601B091C70120E2822780729927D4
:100EC000AA27BB2791C0882339F00E944D1F909319
:100ED0005301809352010AC08091520190915301B5
:100EE0000E94591F8739910508F4D4C08091C4012C
:100EF0009091C501A091C601B091C70120E1822760
:100F000080719927AA27BB276FC0882349F00E94C8
:100F10004D1F909353018093520183EC92E008950A
:100F200080915201909153010E94591F8739910578
:100F300008F0A7C085EB92E00895882309F4AAC0C1
:100F400080EA92E00895882309F4A4C08BE892E037
:100F50000895882309F49EC086E792E008958823C7
:100F600009F498C081E692E00895882309F492C0BC
:100F70008CE492E00895882349F00E944D1F9093DD
:100F800053018093520187E492E0089580915201C9
:100F9000909153010E94591F8739910508F074C040
:100FA00089E392E00895811172C08BE891E0089581
:100FB000882309F46FC082E891E008958823E9F05E
:100FC0000E944D1F90935301809352018091C40160
:100FD0009091C501A091C601B091C70124E082277C
:100FE00084709927AA27BB278093C4019093C501D9
:100FF000A093C601B093C7014DC08091520190915A
:1010000053010E94591F8739910508F443C0DECF70
:10101000882309F43FC08DE691E008958823D1F13B
:1010200088E591E00895882349F00E944D1F909330
:1010300053018093520183E591E00895809152011C
:10104000909153010E94591F8739910530F585E42D
:1010500091E00895882349F00E944D1F9093530119
:10106000809352018EE391E0089580915201909116
:1010700053010E94591F8739910590F48CE291E049
:1010800008958EEB92E0089582E492E0089584E35F
:1010900092E0089580E090E008958EE491E0089554
:1010A00087E391E0089508956091C4017091C501AE
:1010B0008091C6019091C7010E94B61E56985E9815
:1010C00025982D9826982E9827982F98823061F091
:1010D00018F4813031F00895843069F0853039F0AA
:1010E0000895259A2D9A0895269A2E9A0895259A5C
:1010F0002D9A269A2E9A279A2F9A089581E008957C
:1011000081E008950C9480080895282F882339F0F1
:1011100090E02A3010F44D9608950697089587E2DE
:1011200090E00895AF92BF92DF92EF92FF920F93FB
:101130001F93CF93DF938C01FC01C081D181CE013D
:101140000E942F1DBE010E940A0CEC01B8010E94F2
:101150008208882309F4D1C1F8018281882309F427
:10116000C6C080916401811127C0C431F0E7DF0758
:1011700009F0BDC10E94840881E0809364010E944F
:101180004D1F90936301809362011092570110925A
:1011900059011092580110925B0110925A0110925D
:1011A0005D0110925C0110925F0110925E0110923D
:1011B000610110926001A1C180916201909163016F
:1011C0000E94591F883C910570F480915701E82FC7
:1011D000F0E0EE0FFF1FE85AFE4FD183C0838F5F10
:1011E000809357018AC1C13020E8D20708F451C06A
:1011F000F8018281882309F47EC05E01E894B7F883
:1012000080915601813079F050F08230C1F482EE45
:101210000E94B91487E50E94B91487E50EC082EEDA
:101220000E94B9140CC080EE0E94B91481EE0E9495
:10123000B91488E10E94B91488E10E9481158CE0FC
:10124000E82EF12CC5010E2C02C0969587950A94C4
:10125000E2F78F700E948508D82E0E94B9148D2D58
:101260000E948115F4E0EF1AF1082CEFE2162FEF3F
:10127000F20641F780915601813029F010F082305A
:1012800041F482EE04C080EE0E94811581EE0E943E
:101290008115C43180E7D80768F4C23090E7D907D8
:1012A00008F046C0C115E0E7DE0771F0C130D04755
:1012B000A1F10CC1C33320E7D20709F4D8C0C4336D
:1012C000D04709F4EBC002C1F8018281882309F4F8
:1012D00002C10E943618FFEF24E38CE0F150204059
:1012E0008040E1F700C000000E94A81F06C1C13085
:1012F00080E8D80770F2C43120E7D20708F0B3C005
:10130000C23080E7D807A0F4C11590E7D90709F4E7
:10131000E2C0C130D04709F0D9C0F80182818823EA
:1013200009F4D9C08091E10181608093E101E5C0B9
:10133000F8018281882309F4CEC00E940220811125
:1013400002C00E94E81F0E94152090E09093F501D2
:101350008093F401C230F0E7DF0721F48091F401BB
:1013600081607AC0C33020E7D20721F48091F40174
:10137000826072C0C43080E7D80721F48091F40104
:1013800084606AC0C53090E7D90719F48091F401F0
:1013900027C0C630E0E7DE0721F48091F4018061C8
:1013A0005BC0C730F0E7DF0721F48091F401806271
:1013B00053C0C83020E7D20721F48091F401806443
:1013C0004BC0C93080E7D80721F48091F4018068D0
:1013D00043C0CA3090E7D90729F48091F4018460B2
:1013E00088603AC0CB30E0E7DE0721F48091F40159
:1013F0008E7F32C0CC30F0E7DF0721F48091F4011A
:101400008D7F2AC0CD3020E7D20721F48091F401EE
:101410008B7F22C0CE3080E7D80719F48091F40189
:101420001AC08091F401CF3090E7D90711F48F7E74
:1014300013C0C031E0E7DE0711F48F7D0DC0C1316C
:10144000F0E7DF0711F48F7B07C0C231D04711F4FA
:101450008F7702C08B7F877F8093F4018091F401A6
:101460000E9419204AC0C333F0E7DF07A1F4F80156
:101470008281882321F01092540182E016C080916D
:101480005401811106C086E20E94B91486E20E94CE
:10149000811582E018C0C433D047C1F4F8018281BD
:1014A000882331F01092550180E20E94D01525C0AA
:1014B00080915501811106C087E20E94B91487E22C
:1014C0000E94811580E20E94D71517C081E08093A9
:1014D000540180935501C801DF91CF911F910F9165
:1014E000FF90EF90DF90BF90AF900C947E08C130DA
:1014F000F0E8DF0708F081CECCCE80E0DF91CF911D
:101500001F910F91FF90EF90DF90BF90AF900895E3
:1015100026E0729FF001112444E5849FE00DF11D47
:101520001124E60FF11DEE0FFF1FEF52FD4F8591C5
:1015300094910E941C0C811560E49607B0F581150A
:1015400070E3970708F0DEC0803E9105D8F4803C38
:10155000910508F06CC0883A910578F4853A9105B8
:1015600008F06BC08130910509F452C108F40FC135
:101570008430910508F04CC10AC18B3B910508F4F9
:1015800067C005C18F3F910509F048F4803F910580
:1015900008F0ADC0883E910508F43AC1F8C0811545
:1015A00020E2920708F0A5C00895811543E594074D
:1015B00090F4811562E5960708F0C8C0811571E5C1
:1015C000970708F0BEC0811520E5920708F09DC07E
:1015D0009F70906A0895811545E59407D8F48115A8
:1015E00064E5960708F0C8C0482F4695469570E216
:1015F000479FA00111248370992721E030E0B901B1
:1016000002C0660F771F8A95E2F7CB01842B952BDA
:101610009A680895811576E5970708F4B2C09C0191
:1016200030562115304108F0B2C09F70AEC0FC01A9
:10163000EE0FFF1FEF5AFE4F62C0853A910509F485
:10164000A9C0863A910509F0A8C082E890E40895FF
:10165000883A910509F4A4C0893A910509F4A3C018
:101660008A3A910509F4A2C08B3A910509F4A1C008
:101670008C3A910509F4A0C08D3A910509F49FC0F8
:10168000803B910509F49EC08E3A910509F49DC0F6
:101690008F3A910509F49CC0813B910509F49BC0E8
:1016A000823B910509F49AC0833B910509F499C0E6
:1016B000843B910509F498C0853B910509F497C0D6
:1016C000863B910509F496C0873B910509F495C0C6
:1016D000883B910509F494C0893B910509F493C0B6
:1016E0008A3B910509F492C080E094E408959065E6
:1016F0000895FC01FF70EE0FFF1FEF52FD4F859123
:10170000949108959927906C0895482F437021E093
:1017100030E002C0220F331F4A95E2F73C68AC016B
:1017200064E0569547956A95E1F74370342B8F70C6
:101730008695869560E2869FC0011124822B932BAB
:101740000895982F8827816F906A0895482F4695AD
:10175000469570E2479FA00111248370992721E0EC
:1017600030E0B90102C0660F771F8A95E2F7CB011E
:10177000842B952B9C680895982F8827846F906AF6
:1017800008958F719927982F88279062089580E097
:1017900090E0089581E890E4089583E890E4089546
:1017A00082EE94E4089589EE94E408958AEE94E438
:1017B000089585EB94E4089586EB94E4089587EB0F
:1017C00094E408958CEC94E408958DEC94E40895E9
:1017D00083E895E408958AE895E4089582E995E41C
:1017E000089584E995E4089581E296E4089583E2FA
:1017F00096E4089584E296E4089585E296E40895D7
:1018000086E296E4089587E296E408958AE296E4F3
:101810000895089596E0799FF001112494E5899F39
:10182000E00DF11D1124E60FF11DEE0FFF1FEF5229
:10183000FD4F8591949108958238910549F1B0F456
:101840008133910509F458C048F48932910509F4AF
:101850004EC08A32910509F454C00895853391052C
:1018600009F440C08933910599F00895833E9105AC
:1018700029F138F4803E910591F0823E9105A1F066
:101880000895863E9105F9F0873E910531F108955E
:101890002091F40120FD3AC021FD38C008958091C7
:1018A000F40180FD35C032C08091F40182FF32C066
:1018B0008091F40184FD30C083EE39C08091F40141
:1018C00082FD28C0F5CF8091F40183FF27C080916D
:1018D000F40184FD21C087EE2AC08091F40183FDCC
:1018E0001DC0F5CF8091F40185FD1AC01BC0809109
:1018F000F40185FD17C014C08091F40186FD14C069
:1019000015C08091F40186FD11C00EC080EE0FC09D
:1019100089E30DC082EE0BC080E009C086EE07C0EF
:1019200089E205C085E303C08AE201C081E390E05B
:10193000089508950C94990C809175010895CF93A2
:10194000DF9300D01F92CDB7DEB79C018091FA01E2
:10195000843019F593E099833B832A839093E900BF
:101960008FEF9091E800815095FD06C095ED9A9516
:10197000F1F700008111F5CF8091E80085FF0DC0DF
:1019800040E050E063E070E0CE0101960E94050F58
:101990008091E8008E778093E8000F900F900F9071
:1019A000DF91CF910895CF93DF9300D01F92CDB7F1
:1019B000DEB72091FA01243021F522E029839B83B0
:1019C0008A8383E08093E9008FEF9091E800815053
:1019D00095FD06C095ED9A95F1F700008111F5CFC0
:1019E0008091E80085FF0DC040E050E063E070E0CA
:1019F000CE0101960E94050F8091E8008E778093BA
:101A0000E8000F900F900F90DF91CF9108952091F3
:101A1000FA012430F1F422E02093E9002FEF309115
:101A2000E800215035FD06C035ED3A95F1F700008C
:101A30002111F5CF2091E80025FF0BC040E050E0D8
:101A400065E070E00E94050F8091E8008E7780933A
:101A5000E8000895CF93DF93EC019091FA01943060
:101A600009F046C080910C018823D9F080910D01C6
:101A70008823B9F09093E9008FEF9091E8008150AE
:101A800095FD06C095E19A95F1F700008111F5CF1B
:101A90008091E80085FF2CC040E050E060E170E0FC
:101AA00017C081E08093E9008FEF9091E8008150AA
:101AB00095FD06C095ED9A95F1F700008111F5CFDF
:101AC0008091E80085FF14C040E050E068E070E0DD
:101AD000CE010E94050F8091E8008E778093E80088
:101AE00080E1FE01A5E6B1E001900D928A95E1F753
:101AF000DF91CF9108958091F901811109C00E9471
:101B00009A100E94F7108091E20084608093E200B6
:101B100008951092F901089508950C948E240E945E
:101B20003E1F0E9494240E949D130C949A0C42E044
:101B300061EC81E00E94141042E061EC82E00E94BE
:101B4000141042E061EC83E00E94141042E161EC69
:101B500084E00C9414108091FC01833009F455C08A
:101B600030F4813071F0823009F48EC008958A30EB
:101B700009F47AC08B3009F460C0893009F09CC048
:101B800020C08091FB01813A09F096C08091E80065
:101B9000877F8093E8008091FF0190910002892B5C
:101BA00021F460E185E691E003C060E080E090E030
:101BB00070E00E94500F8091E8008B778093E800DE
:101BC00008958091FB01813209F076C08091FF0178
:101BD00090910002009719F0039709F06DC0809171
:101BE000E800877F8093E8008091E80082FD05C0CF
:101BF0008091FA018111F8CF5FC08091F10080934C
:101C000075018091E8008B7753C08091FB01813A88
:101C100009F052C08091FF0190910002892B09F0D8
:101C20004BC08091E800877F8093E8008091E800B6
:101C300080FFFCCF80910C0136C08091FB01813286
:101C4000D9F58091FF0190910002892BA9F580912F
:101C5000E800877F8093E8000E9449108091FD0191
:101C600080930C010C9436188091FB01813221F590
:101C70008091E800877F8093E8000E94491080915E
:101C8000FE018093760108958091FB01813AA1F4D1
:101C90008091E800877F8093E8008091E80080FFD2
:101CA000FCCF809176018093F1008091E8008E77DF
:101CB0008093E8000C944910089584B7877F84BF0F
:101CC00088E10FB6F89480936000109260000FBE18
:101CD00080E880936100109261000E94EC130E94E2
:101CE0009A100E94F7108091E20084608093E200D5
:101CF00078940E947D130E94EE1382E091E00E948E
:101D000098130E947C248091FA01853069F40E9426
:101D1000061F8091F8018823B1F30E94301F8823A9
:101D200091F30E94EF0EEFCF0E94F413ECCF292F16
:101D3000332723303105C9F064F42130310581F0B7
:101D40002230310509F043C08DE690E025EF36E002
:101D500042C021323105F1F02232310541F137C064
:101D600082E190E022E637E036C099278130910584
:101D700041F08230910541F0892B49F5E1EFF6E021
:101D800005C0E9EDF6E002C0E1ECF6E0849190E0F8
:101D90009F0121C06430D8F4E62FF0E0EE0FFF1F62
:101DA000EE5DFE4F2081318189E090E014C0643007
:101DB00070F470E0FB01EE0FFF1FE65EFE4F208126
:101DC0003181FB01EA5EFE4F808190E004C080E03B
:101DD00090E020E030E0FA0131832083089580E133
:101DE00089BD82E189BD09B400FEFDCF8091D80094
:101DF0008F7D8093D8008091E00082608093E00026
:101E00008091E00081FDFCCF0895CF92DF92EF92A8
:101E1000FF920F931F93CF93DF93EC018B016A0125
:101E20000E946810811133C0C114D10439F0F60149
:101E300080819181081B190BC80FD91FE12CF12C4F
:101E40000115110519F18091E80085FD16C08091FA
:101E5000E8008E778093E800C114D10449F0F601C0
:101E600080819181E80EF91EF182E08285E00FC049
:101E70000E946810882321F30AC089918093F100A1
:101E800001501109FFEFEF1AFF0ADACF80E0DF916E
:101E9000CF911F910F91FF90EF90DF90CF90089519
:101EA00020910102309102022617370748F0611590
:101EB000710539F42091E8002E772093E80001C0E5
:101EC000B90140E061157105A9F12091FA012223C1
:101ED00009F443C0253009F442C02091E80023FDF5
:101EE00040C02091E80022FD32C02091E80020FF90
:101EF000E9CF4091F3002091F20030E0342BFC0157
:101F0000CF016115710559F02830310540F48191F8
:101F10008093F100615071092F5F3F4FF1CF41E095
:101F20002830310509F040E02091E8002E77209319
:101F3000E800C8CF4111C9CF0AC08091FA018823B7
:101F400061F0853061F08091E80083FD0AC08091E6
:101F5000E80082FFF2CF80E0089582E0089583E0F8
:101F6000089581E008952091010230910202261720
:101F7000370748F06115710539F42091E8002E7794
:101F80002093E80001C0B901FC0120E06115710552
:101F900091F18091FA01882309F440C0853009F459
:101FA0003FC08091E80083FD3DC08091E80082FD44
:101FB0002FC08091E80080FFE9CF2091F30080914D
:101FC000F20090E0922B6115710559F0883091056F
:101FD00040F424912093F1003196615071090196EB
:101FE000F2CF21E0089709F020E08091E8008E7799
:101FF0008093E800CBCF2111CCCF0AC08091FA01A9
:10200000882361F0853061F08091E80083FD0AC08B
:102010008091E80082FFF2CF80E0089582E0089589
:1020200083E0089581E00895982F973058F59093B4
:10203000E900981739F07091EC002091ED00509173
:10204000F00003C0242F762F50E021FF19C03091FB
:10205000EB003E7F3093EB003091ED003D7F3093FD
:10206000ED003091EB0031603093EB007093EC00A9
:102070002093ED005093F0002091EE0027FF07C061
:102080009F5FD3CF8F708093E90081E0089580E057
:1020900008958091FB0187FF11C08091E80082FDC7
:1020A00005C08091FA018111F8CF11C08091E8003C
:1020B0008B770BC08091FA01882349F08091E8006A
:1020C00080FFF8CF8091E8008E778093E800089534
:1020D0002091E4003091E50095E64091EC00842FDA
:1020E000817040FF22C08091E80080FD1CC080917B
:1020F000FA01882391F0853091F08091EB0085FD05
:1021000010C04091E4005091E5004217530729F3B5
:102110009A01915011F784E0089582E0089583E0D8
:10212000089581E0089580E008954091E80042FF1D
:10213000DECF08950E9408110E941011E0EEF0E039
:10214000808181608083E8EDF0E080818F778083FB
:1021500019BCA7EDB0E08C918E7F8C9380818F7E2F
:1021600080831092F90108950F931F93CF93DF930B
:102170000E9408110E941011C8EDD0E088818F776D
:10218000888388818068888388818F7D888319BC53
:102190001092FA011092F6011092F8011092F701D4
:1021A00000EE10E0F80180818B7F80838881816060
:1021B000888342E060E080E00E941410E1EEF0E0ED
:1021C00080818E7F8083E2EEF0E080818160808379
:1021D000808188608083F80180818E7F8083888100
:1021E00080618883DF91CF911F910F910895E8ED71
:1021F000F0E080818F7E8083E7EDF0E08081816078
:10220000808384E082BF81E08093F9010C94B41054
:10221000E8EDF0E080818E7F80831092E2000895E7
:102220001092DA001092E10008951F920F920FB6FB
:102230000F9211242F933F934F935F936F937F934C
:102240008F939F93AF93BF93EF93FF938091E100A0
:1022500082FF0BC08091E20082FF07C08091E10005
:102260008B7F8093E1000E947C138091DA0080FFD5
:102270001FC08091D80080FF1BC08091DA008E7F44
:102280008093DA008091D90080FF0DC080E189BD84
:1022900082E189BD09B400FEFDCF81E08093FA019F
:1022A0000E947B0D05C019BC1092FA010E94890D95
:1022B0008091E10080FF19C08091E20080FF15C08D
:1022C0008091E2008E7F8093E2008091E200806145
:1022D0008093E2008091D80080628093D80019BC7E
:1022E00085E08093FA010E948D0D8091E10084FFCA
:1022F00030C08091E20084FF2CC080E189BD82E182
:1023000089BD09B400FEFDCF8091D8008F7D8093F8
:10231000D8008091E1008F7E8093E1008091E200FF
:102320008F7E8093E2008091E20081608093E200E2
:102330008091F601882311F084E007C08091E300CA
:1023400087FD02C081E001C083E08093FA010E9412
:102350008F0D8091E10083FF29C08091E20083FF0F
:1023600025C08091E100877F8093E10082E0809327
:10237000FA011092F6018091E1008E7F8093E100D6
:102380008091E2008E7F8093E2008091E200806184
:102390008093E20042E060E080E00E9414108091AF
:1023A000F00088608093F0000E948C0DFF91EF9107
:1023B000BF91AF919F918F917F916F915F914F915D
:1023C0003F912F910F900FBE0F901F9018951F9265
:1023D0000F920FB60F9211242F933F934F935F9359
:1023E0006F937F938F939F93AF93BF93CF93DF931D
:1023F000EF93FF93C091E900CF708091EC00D82F4C
:10240000D17080FDD0E81092E9008091F000877FC4
:102410008093F00078940E942B121092E900809132
:10242000F00088608093F000CD2BCF70C093E9005E
:10243000FF91EF91DF91CF91BF91AF919F918F91DC
:102440007F916F915F914F913F912F910F900FBEB0
:102450000F901F9018951F93CF93DF93CDB7DEB7E2
:10246000AA970FB6F894DEBF0FBECDBFEBEFF1E039
:1024700088E08E0F9091F10091938E13FBCF0E9414
:10248000AB0D8091E80083FF1FC18091FB0190910B
:10249000FC01492F50E04A30510508F015C1FA01FE
:1024A000E959FF4F0C941626803881F0823809F0E4
:1024B0000BC18091FF018F708093E9008091EB0048
:1024C00085FB882780F91092E90006C08091F7010A
:1024D0009091F801911182609091E800977F90931C
:1024E000E8008093F1001092F100C8C0282F2D7FE2
:1024F00009F0EAC0882319F0823061F0E5C08091CC
:10250000FD01813009F0E0C0933009F080E0809354
:10251000F8012BC08091FD01811127C08091FF013E
:102520008F7009F4D1C08093E9002091EB0020FF67
:102530001CC0933021F48091EB00806214C0909114
:10254000EB0090619093EB0021E030E0A90102C024
:10255000440F551F8A95E2F74093EA001092EA0073
:102560008091EB0088608093EB001092E9008091ED
:10257000E800877F86C08111A7C01091FD011F77F9
:102580008091E3008078812B8093E3008091E800C4
:10259000877F8093E8000E9449108091E80080FFC7
:1025A000FCCF8091E30080688093E300111102C0AA
:1025B00082E001C083E08093FA0186C080588230B7
:1025C00008F082C08091FD019091FE018C3D53E0A6
:1025D000950779F583E08A838AE289834FB7F89477
:1025E000DE01139620E03EE051E2E32FF0E050934D
:1025F0005700E49120FF03C0E295EF703F5FEF705A
:102600008E2F90E0EA3010F0C79601C0C0968D93EF
:102610009D932F5F243149F74FBF8091E800877F5A
:102620008093E8006AE270E0CE0101960E94500FAC
:1026300014C0AE014F5F5F4F6091FF010E94970E83
:10264000BC01892B09F440C09091E800977F9093DA
:10265000E80089819A810E94B30F8091E8008B770E
:102660008093E80031C0803879F58091E800877F59
:102670008093E8008091F6018093F1008091E8005A
:102680008E778093E8000E9449101EC081111CC003
:102690009091FD019230C0F48091E800877F809393
:1026A000E8009093F6010E9449108091F601811193
:1026B00006C08091E30087FD02C081E001C084E094
:1026C0008093FA010E94970D8091E80083FF0AC071
:1026D0008091E800877F8093E8008091EB00806222
:1026E0008093EB00AA960FB6F894DEBF0FBECDBF65
:1026F000DF91CF911F9108950895CF938091FA01B2
:102700008823A1F0C091E900CF709091EC00892F4F
:10271000817090FD80E8C82B1092E9008091E8005C
:1027200083FD0E942B12CF70C093E900CF910895D2
:1027300090937C0180937B010895E0917B01F0915F
:102740007C01309721F00190F081E02D099480E028
:102750000895E0917B01F0917C01309721F0028097
:10276000F381E02D09940895E0917B01F0917C01C3
:10277000309721F00480F581E02D0994089520918F
:10278000790130917A018217930771F090937A0161
:1027900080937901E0917B01F0917C01309721F0E9
:1027A0000680F781E02D09940895209177013091FA
:1027B00078018217930771F09093780180937701E5
:1027C000E0917B01F0917C01309721F00084F1854C
:1027D000E02D0994089508950C94EB130E94441F72
:1027E0000E9418050C94CA1F9F92AF92BF92CF927D
:1027F000DF92EF92FF920F931F93CF93DF9300D05E
:1028000000D000D0CDB7DEB70E943F050DE010E04C
:10281000AA24A394B12C902E802F0E942D069801FB
:1028200022583E4F6901F901F080F826A1F40150C9
:10283000110988F78FEF89838A831B820E944D1FBD
:102840008160782F9D838C8349815A816B818D8132
:102850000E948B142FC09091E10191FF04C08E83E0
:102860000E9433068E8125E030E0A501022E01C0D2
:10287000440F0A94EAF7E42E4F21C1F029839A828B
:102880008E2191E009F490E09B830E944D1F8160AE
:10289000782F9D838C8349815A816B818D810E9421
:1028A0008B14F6018081E826E08204C021503109B2
:1028B000E0F6BDCF0E94982110917D010E949D13EA
:1028C0001817B9F00E949D1380937D0126960FB6CC
:1028D000F894DEBF0FBECDBFDF91CF911F910F9156
:1028E000FF90EF90DF90CF90BF90AF909F900C94AF
:1028F0009A0C26960FB6F894DEBF0FBECDBFDF91BF
:10290000CF911F910F91FF90EF90DF90CF90BF90EC
:10291000AF909F900895CF93DF93CDB7DEB72B97FD
:102920000FB6F894DEBF0FBECDBF4F8358876987BF
:102930007A878B87DE01119686E0FD0111928A95D8
:10294000E9F785E0FE01379601900D928A95E1F74F
:1029500049815A816B817C818D819E810E94D41A2C
:102960002B960FB6F894DEBF0FBECDBFDF91CF918F
:102970000895CF93882309F4C2C0C82F823859F430
:102980000E949D1381FDBBC089E30E94AE1D0E9481
:102990007B1E89E30CC0833879F40E949D1380FD6F
:1029A000AEC083E50E94AE1D0E947B1E83E50E949F
:1029B000F01DCF910C947B1E843859F40E949D1316
:1029C00082FD9DC087E40E94AE1D0E947B1E87E4AD
:1029D000EECF8CEF8C0F813A48F48C2F0E94E223CB
:1029E00081118DC08C2F0E94AE1DE3CF80E28C0F31
:1029F000883048F4C77081E001C0880FCA95EAF7B3
:102A00000E94341ED6CF8BE58C0F833078F4C53A04
:102A100029F0C63A31F083E890E005C081E890E003
:102A200002C082E890E0CF910C94BF1388E58C0F30
:102A3000833108F064C0C83A39F1C93A41F1CA3A61
:102A400049F1CB3A51F1CC3A59F1CD3A61F1C03B61
:102A500069F1CE3A71F1CF3A79F1C13B81F1C23BD4
:102A600089F1C33B91F1C43B99F1C53BA1F1C63B50
:102A7000A9F1C73BB1F1C83BB9F1C93BC1F1CA3BB0
:102A8000C9F180E090E038C082EE90E035C089EE78
:102A900090E032C08AEE90E02FC085EB90E02CC031
:102AA00086EB90E029C087EB90E026C08CEC90E0AC
:102AB00023C08DEC90E020C083E891E01DC08AE83F
:102AC00091E01AC082E991E017C084E991E014C056
:102AD00081E292E011C083E292E00EC084E292E0D3
:102AE0000BC085E292E008C086E292E005C087E272
:102AF00092E002C08AE292E0CF910C94D513CF917C
:102B00000895882309F44BC0823859F40E949D131C
:102B100081FF45C089E30E94AE1D0E947B1E89E3B0
:102B20000CC0833871F40E949D1380FF38C083E588
:102B30000E94AE1D0E947B1E83E50E94F01D0C9436
:102B40007B1E843859F40E949D1382FF28C087E4BD
:102B50000E94AE1D0E947B1E87E4EFCF9CEF980F72
:102B6000913A58F390E2980F983050F4877091E0C2
:102B700001C0990F8A95EAF7892F0E943A1EDFCF8C
:102B80009BE5980F933020F480E090E00C94BF1305
:102B9000885A833120F480E090E00C94D513089596
:102BA000882321F00E94341E0C947B1E08958823F4
:102BB00021F00E943A1E0C947B1E08957F928F9202
:102BC0009F92AF92BF92CF92DF92EF92FF920F93BC
:102BD0001F93CF93DF931F92CDB7DEB77C01C62E34
:102BE000772EFC01058102950F70128111110E9450
:102BF000511E0E94A71D882379F0112369F080E2FD
:102C00008C0D883048F082E00E94901D0E94A71D24
:102C100091E0D82ED92601C0D12CE72DE295EF7096
:102C2000F0E0EF58FF4F0C941626872D807F072D7C
:102C30000F70882311F00295007F112389F0002383
:102C400009F490C180E28C0D883020F4802F0E941E
:102C5000341E03C0802F0E94441E0E947B1E82C12E
:102C60008C2D0E948115002309F495C180E28C0D02
:102C7000883020F4802F0E943A1E03C0802F0E94CB
:102C80004A1E0E947B1E87C1972D907F872D8F70D3
:102C9000903211F08295807FCC2021F0F1E0CF16A8
:102CA000B1F01EC0112349F0002309F414C1013012
:102CB00009F011C10E94641E6EC1002319F0013099
:102CC00009F469C189830E94671E89810AC11123A1
:102CD00021F0023008F05FC1FEC001115CC101C1EA
:102CE000112321F0002309F4F6C03CC1002309F4AC
:102CF000F8C03EC1872D86958695837090E0009739
:102D000019F0019761F047C1112321F08C2D972D07
:102D1000937002C080E090E00E94BF133CC1112379
:102D200021F08C2D972D937002C080E090E00E94DE
:102D3000D51331C18C2D112319F00E94A02002C09F
:102D40000E9408210E948D2126C1872D837009F0E1
:102D500052C0111120C18C2D829586958770880FE5
:102D6000880F9C2D9F70892E912CA12CB12C082EA0
:102D700004C0880C991CAA1CBB1C0A94D2F7C4FE80
:102D800014C00FE010E020E030E0B901A80104C059
:102D9000440F551F661F771F8A95D2F7CB01BA01E2
:102DA000609570958095909503C060E070E0CB01D0
:102DB000272D26952695237030E02230310569F0C5
:102DC0002330310589F0682979298A299B29213006
:102DD000310571F00E941C1CDEC0682979298A29FE
:102DE0009B290E94381CD7C00E941C1CC501B4013D
:102DF0000E94001CD0C0112319F0872D817001C0E2
:102E00008695882309F4C7C08C2D82958695877096
:102E1000880F880F9C2D9F70892E912CA12CB12C8E
:102E2000082E04C0880C991CAA1CBB1C0A94D2F75B
:102E3000C4FE14C00FE010E020E030E0B901A801AA
:102E400004C0440F551F661F771F8A95D2F7CB0128
:102E5000BA01609570958095909503C060E070E030
:102E6000CB01272D269526952370422F50E0423026
:102E7000510569F04330510589F0682979298A297B
:102E80009B294130510571F00E94F61C84C06829CD
:102E900079298A299B290E94121D7DC00E94F61C57
:102EA000C501B4010E94DA1C76C08C2D90E0FC01B3
:102EB000E05EF109E531F10508F050C0EF57FF4F32
:102EC0000C9416260C2D0F70872D8F71112331F065
:102ED0000E94731C802F0E94D0155DC00E94941C1C
:102EE000802F0E94D71557C0112339F0011153C00C
:102EF000872D8F710E94B91C4EC0023008F04BC064
:102F0000F7CF112339F0872D8F710E94731C43C0B6
:102F10001123C9F3872D8F710E94941C3CC011238B
:102F200029F0872D8F710E945E1C35C00E94541CB1
:102F300032C0112351F0172D1F71812F0E94731C75
:102F400063E0812F0E94871D26C081E00E94901DB2
:102F5000023008F182E00E94901D1DC0112331F063
:102F6000002389F28C2D0E94B91415C0002391F220
:102F70008C2D0E9481150FC0472D4F706C2DC701FD
:102F80000E9409070E94781B06C0472D4F706C2DC8
:102F9000C7010E94090CDD20F9F00E94831D80FD0D
:102FA0001BC0F70112820E947D1D0E94731CC70185
:102FB0000E94FB170E947D1D0F90DF91CF911F9102
:102FC0000F91FF90EF90DF90CF90BF90AF909F90C8
:102FD0008F907F900C94941C0F90DF91CF911F9154
:102FE0000F91FF90EF90DF90CF90BF90AF909F90A8
:102FF0008F907F9008950F931F93CF93DF93EC01F1
:10300000888199812B813C81232BB9F09F3F11F45A
:103010008F3F99F0CE010E949208882371F0688159
:1030200079818A810E94791D8C010E942E1D0E9447
:10303000F51BB801CE010E94DE15DF91CF911F91E3
:103040000F9108950E94511E0E94611E0E94261E2B
:103050000E947B1E0E943E220E948D2180E090E013
:103060000E94BF1380E090E00C94D5130E94411E93
:103070000C9422180E946E1D292F22952F7030E08B
:103080002C3031054CF42A3031056CF422503109D2
:1030900022303105A8F407C02C30310569F02F30FB
:1030A000310551F00DC0803F69F018F4803E40F4C6
:1030B00009C0843F29F406C093FB882780F908954E
:1030C00080E0089581E00895CF93DF9300D000D091
:1030D0001F92CDB7DEB70F900F900F900F900F900B
:1030E000DF91CF910895CF93DF9300D000D000D02F
:1030F000CDB7DEB726960FB6F894DEBF0FBECDBFB4
:10310000DF91CF9108951F93CF93DF93C0918C01EE
:1031100016E080918D01C81799F0D0E01C9FF00156
:103120001D9FF00D1124E257FE4F408151816281B5
:103130007381848195810E9473182196C770E9CFAD
:10314000DF91CF911F9108954091BE015091BF0131
:103150006091C0017091C1018091C2019091C30141
:103160000C9473188091C30182958F7009F054C03C
:103170008091C001882309F44FC080918C01A091F7
:103180008D016091BE017091BF014091C1015091CC
:10319000C201B6E08A1709F43FC090E0411551051D
:1031A000C1F17F3F11F46F3FA1F1B89FF001B99FCA
:1031B000F00D1124E257FE4F218172132AC02081A5
:1031C000621327C02281211124C023813481241756
:1031D000350710F421503109241B350B283C3105EB
:1031E000C0F42091C3012F7020612093C30126E019
:1031F000289FF001299FF00D1124ED56FE4F80818C
:103200008F70806180838EEB91E00E94FB170C949D
:10321000831801968770BECF0895CF92DF92EF9208
:10322000FF920F931F93CF93DF93CDB7DEB76297D3
:103230000FB6F894DEBF0FBECDBF8C0185E0F8015C
:10324000DE011D9601900D928A95E1F7D8014C910F
:1032500011965C91119712966C9112971396CD90DE
:10326000DC9014973091BE017091BF018091C10133
:103270009091C201009709F46BC17F3F19F43F3F61
:1032800009F466C1E090C001EE2009F4C0C02091AD
:10329000C301C816D90628F0F601E81BF90BCF01C7
:1032A00004C0809590958C0D9D1DFF24F394883C5F
:1032B000910578F0F12C207F09F0C6C07C2DD98AC9
:1032C000C88A89890E9464188EEB91E00E94FB17DE
:1032D000B1C0822F807F09F046C0751314C034132B
:1032E00012C0611110C02F7020612093C3010E9491
:1032F000A4188EEB91E00E94FB178091C301D801C6
:1033000015968C932EC0CD2819F15F3F11F44F3FD5
:10331000F9F0F62E61111CC080918C0120918D0175
:1033200036E0821709F45AC090E0389FF001399FC7
:10333000F00D1124E257FE4F7181571306C07081C2
:10334000471303C07281711103C001968770E9CFE2
:10335000F62E662309F418C18091C3018160809321
:10336000C301F12C11C1751308C0341306C06111DB
:1033700004C08091C301D801C3C04D875E878D858D
:103380009E856A8B0E943A186A898823E1F1662338
:10339000D1F12091C301822F82958F7090E0029726
:1033A00074F08091BE019091BF0198878F83198638
:1033B000DB86CA862C87CE0107960E94FB1786E023
:1033C000F801AEEBB1E001900D928A95E1F70E9411
:1033D000B2180E94A418FF24F394D6C04D875E87CC
:1033E0008D859E850E946E1D292F22952F7030E0BD
:1033F000223031050CF0BCC09F7009F0B6C0805E71
:10340000883008F4C1C0C8010E94FB17E4CFC81679
:10341000D90608F453C0F601E81BF90BCF01883C2C
:10342000910508F450C0F12C7C2DD98AC88A89896D
:103430000E946418EEEBF1E086E0DF011D928A95B0
:10344000E9F70E94A418A0C0751314C0341312C069
:10345000611110C08091C301F8018583C8010E94E9
:10346000FB1786E0EEEBF1E0DF011D928A95E9F7AC
:10347000FE2C8AC04D875E878D859E856A8B0E9453
:103480003A186A89882309F4BECF662309F4BBCFB2
:103490002091C301822F82958F7090E002970CF4E7
:1034A0008ECF8091BE019091BF019A8389831B8248
:1034B000DD82CC822E83CE0101967FCF80959095C0
:1034C0008C0D9D1DACCFF62E662309F49CCF751391
:1034D0002EC034132CC02091C30120FD1FC0822FA9
:1034E00082958F70D9F0D80115962C9315978F304F
:1034F00049F08F5F982F9295907F822F8F70892B44
:1035000015968C93C8010E94FB1786E0F801AEEB7C
:10351000B1E001900D928A95E1F793CF86E0F80132
:10352000AEEBB1E001900D928A95E1F72DC04D8789
:103530005E878D859E850E943A18811140CF8091CB
:10354000C30181608093C301C8010E94FB171CC0A6
:10355000662309F458CF4D875E878D859E850E942E
:103560003A18882309F44FCF2ACF811148CF0CC0D5
:10357000243031050CF047CF9F7009F440CFF8019B
:103580009581907F09F03BCF8F2D62960FB6F8940E
:10359000DEBF0FBECDBFDF91CF911F910F91FF9086
:1035A000EF90DF90CF9008951F93CF93DF93CDB727
:1035B000DEB72C970FB6F894DEBF0FBECDBF4F839A
:1035C000588769877A878B879C87CE0107960E94E8
:1035D0000D19882369F08F8198852A853B85232BD7
:1035E000F1F19F3F09F063C08F3F09F060C037C021
:1035F00086E0FE013796DE01119601900D928A95C4
:10360000E1F76F817885EA85FB85309741F17F3F4F
:1036100011F46F3F21F120918D0130E0C901019635
:103620008770992740918C0150E08417950709F421
:1036300047C069837A83FD83EC8396E0929FD00133
:10364000939FB00D1124A257BE4FFE0131960190F9
:103650000D929A95E1F780938D010E94831816E0F0
:1036600080918C0190918D018917C1F1189FC00143
:10367000112482579E4F0E940D19882379F1E09101
:103680008C011E9FF0011124E257FE4F40815181B1
:1036900062817381848195810E94731880918C016D
:1036A00090E001968770992780938C01D9CF4F8144
:1036B000588569857A858B859C850E947318CFCF44
:1036C0000E94361810928D0110928C01EEEBF1E001
:1036D00086E0DF011D928A95E9F7C1CF2C960FB6DF
:1036E000F894DEBF0FBECDBFDF91CF911F9108953B
:1036F000EF92FF920F931F93CF93DF938C01892B4F
:1037000009F46CC0F12CEE24E394E8012196F80151
:103710008491843740F4843008F051C0813081F0C6
:10372000823019F15BC0853709F444C0A8F19CE7E9
:10373000980F903708F052C08F770E94811541C0D2
:103740000E5F1F4FFE01C49180E28C0F883048F459
:10375000C7708E2D01C0880FCA95EAF70E94541ECB
:1037600014C08C2F0E94B9142DC00E5F1F4FFE0194
:10377000C49180E28C0F883058F4C7708E2D01C040
:10378000880FCA95EAF70E945A1E0E947B1E1AC033
:103790008C2F0E94811516C00E5F1F4FFE01C49131
:1037A000CC2381F08FE99FE00197F1F700C0000082
:1037B000C150F6CF0E5F1F4FFE01F49003C00E9470
:1037C000B9148E018F2D882309F49FCFEFE9FFE014
:1037D0003197F1F700C000008150F5CFDF91CF9114
:1037E0001F910F91FF90EF90089508956093C80185
:1037F0007093C9018093CA019093CB010C94221855
:103800000F931F930091C8011091C9012091CA0123
:103810003091CB01DC01CB01802B912BA22BB32B60
:103820008093C8019093C901A093CA01B093CB01C2
:103830001F910F910C9422180F931F930091C801B0
:103840001091C9012091CA013091CB01DC01CB015B
:1038500080239123A223B3238093C8019093C901AD
:10386000A093CA01B093CB011F910F910C94221821
:103870000F931F930091C8011091C9012091CA01B3
:103880003091CB01DC01CB0180279127A227B32700
:103890008093C8019093C901A093CA01B093CB0152
:1038A0001F910F910C9422181092C4011092C5011F
:1038B0001092C6011092C7010C94221841E050E00A
:1038C00060E070E004C0440F551F661F771F8A95A3
:1038D000D2F74093C4015093C5016093C601709321
:1038E000C7010C94221841E050E060E070E004C091
:1038F000440F551F661F771F8A95D2F78091C40128
:103900009091C501A091C601B091C701482B592BD8
:103910006A2B7B2B4093C4015093C5016093C60171
:103920007093C7010C94221841E050E060E070E011
:1039300004C0440F551F661F771F8A95D2F7409524
:103940005095609570958091C4019091C501A091AA
:10395000C601B091C701482359236A237B234093B2
:10396000C4015093C5016093C6017093C7010C94C4
:10397000221841E050E060E070E004C0440F551FA1
:10398000661F771F8A95D2F78091C4019091C50177
:10399000A091C601B091C701482759276A277B2704
:1039A0004093C4015093C5016093C6017093C70151
:1039B0000C9422180F931F930091C4011091C5011C
:1039C0002091C6013091C701DC01CB01802B912BE6
:1039D000A22BB32B8093C4019093C501A093C60181
:1039E000B093C7011F910F910C9422180F931F934E
:1039F0000091C4011091C5012091C6013091C70109
:103A0000DC01CB0180239123A223B3238093C40143
:103A10009093C501A093C601B093C7011F910F9168
:103A20000C9422180F931F930091C4011091C501AB
:103A30002091C6013091C701DC01CB01802791277D
:103A4000A227B3278093C4019093C501A093C60118
:103A5000B093C7011F910F910C9422180895CF9233
:103A6000DF92EF92FF920F931F93CF93DF938C011E
:103A7000C090C801D090C901E090CA01F090CB017C
:103A80008091C4019091C501A091C601B091C70178
:103A9000C82AD92AEA2AFB2ACFE1D0E0D701C601F9
:103AA0000C2E04C0B695A795979587950A94D2F7E2
:103AB00080FF06C0B8018C2F0E94880A019721F46C
:103AC000219760F780E001C08C2FDF91CF911F918B
:103AD0000F91FF90EF90DF90CF900895CF93DF93F9
:103AE000EC010E942F1DBE010E94880ADF91CF9138
:103AF0000895CB010E946E1D08958091CC0185959B
:103B00008595859508958091CC018770089598E0FA
:103B1000899F90011124262B2093CC010C94731CB7
:103B20002091CC01809582238093CC01982F9770AF
:103B300069F430E0482F552747FD50952417350785
:103B400029F08595859585950C94941C0895909100
:103B5000CC01977081E009F480E0089590910C0108
:103B6000992321F090910D01911109C020910E012E
:103B700030910F01F90132969FEF40E01FC0982F5E
:103B80009695969596959F3050F5E0910E01F0919F
:103B90000F01E90FF11D877021E030E0A90102C09B
:103BA000440F551F8A95E2F7CA019181892B8183C1
:103BB00008959F3F39F04F5F4E3041F051915813B7
:103BC000F8CF0DC05111F7CF942FF5CF9F3F39F0AB
:103BD000F901E90FF11D97FDFA9582830895089583
:103BE00090910C01992321F090910D01911109C040
:103BF00020910E0130910F01F9013296205F3F4F65
:103C00001FC0982F9695969596959F30F0F4E09169
:103C10000E01F0910F01E90FF11D877021E030E0F6
:103C2000A90102C0440F551F8A95E2F7CA01809589
:103C300091818923818308953196E217F30729F052
:103C400090819813F9CF1082F7CF089581E090E02A
:103C5000E0910E01F0910F01E80FF91F108201961B
:103C600080319105A9F708959091E001892B809307
:103C7000E001089580959091E00189238093E0010F
:103C800008951092E00108959091DF01892B8093AF
:103C9000DF01089580959091DF0189238093DF01F2
:103CA00008951092DF0108959091DE01892B809391
:103CB000DE01089580959091DE0189238093DE01D5
:103CC00008951092DE0108958093CD010895109219
:103CD000CD01089580910E0190910F01FC01319664
:103CE0009C01205F3F4F80E0919191118F5FE2171F
:103CF000F307D1F70895E0910E01F0910F01809143
:103D0000E0018083E0910E01F0910F01908180919C
:103D1000DF01892B8083E0910E01F0910F019081EA
:103D20008091DE01892B80838091CD01882361F011
:103D3000E0910E01F0910F019081892B80830E9408
:103D40006A1E81111092CD0180910E0190910F0198
:103D50000C94A91320E0009739F0AC0141505109AF
:103D6000842395232F5FF7CF822F0895CF92DF9280
:103D7000EF92FF926C01EE24FF24C114D104E10400
:103D8000F10421F0C701B60120E101C020E0C72EF7
:103D9000D82EE92EFF24C114D104E104F10419F056
:103DA000285FC701B6016B017C0154E0F694E794EB
:103DB000D794C7945A95D1F7C114D104E104F10402
:103DC00019F02C5FC701B6016B017C0142E0F6944B
:103DD000E794D794C7944A95D1F7C114D104E1046C
:103DE000F10419F02E5FC701B601DC01CB01B695D5
:103DF000A79597958795892B8A2B8B2B09F02F5F99
:103E0000822FFF90EF90DF90CF9008958091FA017C
:103E1000843021F11092E20120E488E190E00FB6B5
:103E2000F894A895809360000FBE2093600080E016
:103E30000E949A0C83B7817F846083BF83B78160BF
:103E400083BF7894889583B78E7F83BF88E10FB650
:103E5000F89480936000109260000FBE089508955A
:103E60000E942C050E943F050E942F1F0E943406CD
:103E700091E0811101C090E0892F08950E943618C9
:103E80000E949D130C949A0C82E084BD93E095BD32
:103E90009AEF97BD80936E0008952FB7F8948091A4
:103EA000E3019091E401A091E501B091E6012FBFFB
:103EB0000895CF92DF92EF92FF920F931F932FB747
:103EC000F8944091E3015091E4016091E501709113
:103ED000E6012FBF6A017B01EE24FF248C0120E064
:103EE00030E0C016D106E206F30610F44150510945
:103EF0009A01281B390BC9011F910F91FF90EF9078
:103F0000DF90CF9008951F920F920FB60F92112459
:103F10008F939F93AF93BF938091E3019091E401BE
:103F2000A091E501B091E6010196A11DB11D80931C
:103F3000E3019093E401A093E501B093E601BF9102
:103F4000AF919F918F910F900FBE0F901F9018957A
:103F50000E949A10F8942FEF87EA91E62150804052
:103F60009040E1F700C0000087E090EBDC01809317
:103F7000030290930402A0930502B09306029CE012
:103F800088E10FB6F894A895809360000FBE9093D7
:103F90006000FFCF0E940220811102C00E94E81F32
:103FA0000E940D208093E1010E94152090E09093E3
:103FB000F5018093F40187FB882780F980930D0138
:103FC0000E941120682F70E080E090E00C94F61BB6
:103FD0006DEE7EEF80E090E00E94502660E082E08F
:103FE00090E00E943E2660E083E090E00E943E2642
:103FF00060E084E090E00E943E2660E085E090E092
:104000000C943E2680E090E00E94382621E08D3E10
:104010009E4F09F020E0822F089582E090E00C94FA
:10402000302683E090E00C94302684E090E00C94FD
:104030003026682F84E090E00C943E268091E901C0
:1040400080FF0BC06091130185E0689FB0011124CF
:1040500075956795759567952BC081FF09C060912F
:10406000130185E0689FB00111247595679520C004
:1040700082FF07C06091130185E0689FB0011124A1
:1040800017C09091EA019923D1F06091120196171F
:1040900088F72091130185E0289F90011124929FB9
:1040A000A001939F500D112470E0CA010E940226C6
:1040B0006038710540F46115710539F002C065E0A2
:1040C00070E0862F08958FE7089581E0089580912C
:1040D000E90180FF08C06091110170E07595679556
:1040E0007595679521C081FF06C06091110170E050
:1040F0007595679519C082FF04C06091110170E049
:1041000010C09091EA019923C1F0609110019617B7
:10411000A0F780911101899FC001112470E00E94D5
:1041200002266038710528F46115710521F0862F8B
:1041300008958FE7089581E0089561E070E0F4CF7D
:10414000803F21F40E941E20819504C0813F29F404
:104150000E941E208093ED010895823F21F40E9469
:104160001E20819504C0833F29F40E941E20809365
:10417000EC010895893F19F40E94672005C08A3F29
:1041800031F40E94672081958093EE0108958B3F62
:1041900021F40E946720819504C08C3F29F40E947D
:1041A00067208093EF010895843F21F48091EB0113
:1041B000816017C0853F21F48091EB01826011C0BE
:1041C000863F21F48091EB0184600BC0873F21F48E
:1041D0008091EB01886005C0883F31F48091EB014C
:1041E00080618093EB0108958D3F21F48091E90176
:1041F00081600BC08E3F21F48091E901826005C08F
:104200008F3F29F48091E90184608093E90108954A
:10421000803F39F48091ED0187FF6CC01092ED0171
:1042200069C0813F29F48091ED011816BCF362C08A
:104230009091EC01823F29F497FF5CC01092EC0151
:1042400059C0833F19F41916CCF354C0893F41F487
:104250008091EE0118160CF04DC01092EE014AC08C
:104260008A3F29F48091EE0187FF44C0F6CF8B3F4F
:1042700039F48091EF0187FF3DC01092EF013AC001
:104280008C3F29F48091EF011816BCF333C0843FB2
:1042900021F48091EB018E7F17C0853F21F480913E
:1042A000EB018D7F11C0863F21F48091EB018B7F64
:1042B0000BC0873F21F48091EB01877F05C0883FC9
:1042C00031F48091EB018F7E8093EB0113C08D3F21
:1042D00021F48091E9018E7F0BC08E3F21F4809103
:1042E000E9018D7F05C08F3F29F48091E9018B7F23
:1042F0008093E9018091EC0181110EC08091ED0164
:1043000081110AC08091EE01811106C08091EF01F8
:10431000811102C01092EA0108958BEE91E00E9493
:10432000B4130E944D1F9093E8018093E701089514
:104330001F93CF93DF938091E7019091E8010E9452
:10434000591FAC019091EA01992321F020911401A9
:1043500030E006C0209115018AE0289F90011124C9
:104360004217530708F486C08091EC01C091ED011B
:10437000D091EE011091EF01811107C0C11176C0FB
:10438000D11174C0111172C075C09F3F19F09F5FA9
:104390009093EA01181624F40E941E208093EC01E9
:1043A0008091EC0187FF05C00E941E2081958093BB
:1043B000EC011C1624F40E941E208093ED018091D4
:1043C000ED0187FF05C00E941E2081958093ED01BD
:1043D0006091EC01662339F1C091ED01CC2319F114
:1043E000772767FD7095872F972F0E94132523E36A
:1043F00033E343E35FE30E9477250E94E024609368
:10440000EC016C2F772767FD7095872F972F0E94FF
:10441000132523E333E343E35FE30E9477250E9400
:10442000E0246093ED011D1624F40E946720809320
:10443000EE018091EE0187FF05C00E946720819503
:104440008093EE01111624F40E9467208093EF01FF
:104450008091EF0187FF05C00E94672081958093BE
:10446000EF01DF91CF911F910C948D219F3F09F0B7
:104470008ECF96CFDF91CF911F910895EBEEF1E0B3
:1044800085E0DF011D928A95E9F71092EA0110920A
:10449000E9010895833081F128F4813059F08230A8
:1044A000D1F00895853009F449C0B8F1863009F497
:1044B00056C0089580911501262F30E0280F311D38
:1044C0002F3F310524F4680F6093150108958FEF95
:1044D00080931501089580911401262F30E0280F54
:1044E000311D2F3F310524F4680F609314010895A6
:1044F0008FEF80931401089580911301262F30E0EF
:10450000280F311D2F3F310524F4680F60931301EC
:1045100008958FEF80931301089580911201262F43
:1045200030E0280F311D2F3F310524F4680F6093D0
:10453000120108958FEF8093120108958091110167
:10454000262F30E0280F311D2F3F310524F4680F4E
:104550006093110108958FEF809311010895809168
:104560001001262F30E0280F311D2F3F310524F494
:10457000680F6093100108958FEF809310010895E4
:10458000833011F128F4813049F0823091F00895A0
:10459000853081F120F18630C1F1089580911501B7
:1045A000681720F4861B8093150108951092150159
:1045B000089580911401681720F4861B80931401DC
:1045C000089510921401089580911301681720F442
:1045D000861B809313010895109213010895809112
:1045E0001201681720F4861B80931201089510921F
:1045F0001201089580911101681720F4861B8093A1
:104600001101089510921101089580911001681709
:1046100020F4861B809310010895109210010895D4
:104620000F931F938D3109F471C008F045C080319C
:1046300009F485C008F5873009F46FC068F4863046
:1046400009F0ADC08091E101817F8E7F8093E1010F
:1046500081E08093F101A4C08B3009F49EC08E30BC
:1046600009F09DC08091E10182FB222720F991E0B1
:10467000922790FB82F96CC0863109F48EC060F4F9
:10468000813109F08CC00E94361890910D0181E0B3
:10469000892780930D0181C0893109F47EC08B3157
:1046A00009F07DC08091E10181FB222720F991E092
:1046B000922790FB81F94CC0853309F466C048F419
:1046C000873209F462C008F44FC0893209F45DC032
:1046D00066C0833438F48A3308F044C0883309F460
:1046E0005CC05DC0833409F450C0883409F057C001
:1046F0000E9436180FEF13ED20E3015010402040C8
:10470000E1F700C000000E94A81F47C00E949A2441
:104710000E949D130E949A0C40C09091E101892F44
:104720008095817080FB90F929F096609860909355
:10473000E10136C0997F977F9093E1012EC080916F
:10474000E10183FB222720F991E0922790FB83F976
:104750008093E101992309F18091E10181608093C7
:10476000E1011BC0895301C08D5141E050E060E080
:1047700070E08A019B0104C0000F111F221F331F2C
:104780008A95D2F7C901B80104C061E070E080E009
:1047900090E00E94F61B0E94361881E001C080E084
:1047A0001F910F91089580E0089580E008958E5143
:1047B0008A3030F4E82FF0E0E65DFE4F8081089506
:1047C00080E00895CF93C82F8091F101813079F076
:1047D00018F08230E9F186C0E0910E01F0910F01EE
:1047E0008081813169F0823209F07EC009C0E09198
:1047F0000E01F0910F018081813111F0823261F45C
:104800008C2F0E94D323811104C08C2F0E9410236F
:104810001DC081E090E01AC08C2F0E94D523811129
:1048200014C0C43179F048F4CB3079F0C03109F0CC
:104830005FC082E08093F10108C0C93219F0C8332B
:1048400021F056C01092F10153C081E0817052C036
:10485000C93281F110F5C43169F1A8F4C73009F00B
:1048600045C08AE08093150194E19093140193E090
:10487000909313018093120188E08093110188E2E4
:104880008093100133C082EE8C0F863078F58C2F28
:104890000E94D7238093F00129C0CE34E9F020F4A0
:1048A000CB3421F56AE013C0C13579F0C235F1F49B
:1048B00061E00DC08091F001882319F01092F001A1
:1048C00015C081E08093F10115C061E006C08091C0
:1048D000F0010E944A220AC06AE08091F0010E9421
:1048E000C02204C01092F10180E004C081E002C047
:1048F00080E0ACCFCF910895E1E8F0E0808188605E
:1049000080838081816080838FB7F89493E0909357
:10491000890090ED909388008FBF0895EFE6F0E056
:104920008081826080830895EFE6F0E080818D7F52
:1049300080830895EFE6F0E0908182E0892780830C
:1049400008951F920F920FB60F9211242F933F9349
:104950004F935F936F937F938F939F93AF93BF9387
:10496000EF93FF938091F2019091F3010196909360
:10497000F3018093F201811103C082E00E949A0C3E
:10498000E091F301E695E695F0E0E059F74FE49108
:104990008091F2018E1303C080E00E949A0CFF9177
:1049A000EF91BF91AF919F918F917F916F915F91A7
:1049B0004F913F912F910F900FBE0F901F90189520
:1049C00004D06894B1118DC0089570D088F09F57BD
:1049D00090F0B92F9927B751A0F0D1F0660F771F4B
:1049E000881F991F1AF0BA95C9F712C0B13081F02B
:1049F00077D0B1E0089574C0672F782F8827B85F0B
:104A000039F0B93FCCF3869577956795B395D9F78B
:104A10003EF490958095709561957F4F8F4F9F4F95
:104A20000895E89409C097FB3EF4909580957095A1
:104A300061957F4F8F4F9F4F9923A9F0F92F96E9EA
:104A4000BB279395F695879577956795B795F1115F
:104A5000F8CFFAF4BB0F11F460FF1BC06F5F7F4FFC
:104A60008F4F9F4F16C0882311F096E911C077230E
:104A700021F09EE8872F762F05C0662371F096E817
:104A8000862F70E060E02AF09A95660F771F881FE6
:104A9000DAF7880F9695879597F9089557FD9058FE
:104AA000440F551F59F05F3F71F04795880F97FBF2
:104AB000991F61F09F3F79F08795089512161306AC
:104AC0001406551FF2CF4695F1DF08C016161706DB
:104AD0001806991FF1CF8695710561050894089510
:104AE000E894BB2766277727CB0197F908950BD069
:104AF00078C069D028F06ED018F0952309F05AC01C
:104B00005FC01124EECFCADFA0F3959FD1F3950FBC
:104B100050E0551F629FF001729FBB27F00DB11D41
:104B2000639FAA27F00DB11DAA1F649F6627B00DD1
:104B3000A11D661F829F2227B00DA11D621F739FBA
:104B4000B00DA11D621F839FA00D611D221F749FC8
:104B50003327A00D611D231F849F600D211D822F0F
:104B6000762F6A2F11249F5750408AF0E1F0882356
:104B70004AF0EE0FFF1FBB1F661F771F881F915063
:104B80005040A9F79E3F510570F014C0AACF5F3F77
:104B9000ECF3983EDCF3869577956795B795F79596
:104BA000E7959F5FC1F7FE2B880F911D969587951E
:104BB00097F9089597F99F6780E870E060E008959D
:104BC0009FEF80EC089500240A9416161706180625
:104BD0000906089500240A94121613061406050601
:104BE0000895092E0394000C11F4882352F0BB0F92
:104BF00040F4BF2B11F460FF04C06F5F7F4F8F4FF5
:104C00009F4F089597FB072E16F4009407D077FD69
:104C100009D00E941C2607FC05D03EF49095819592
:104C20009F4F0895709561957F4F0895EE0FFF1F78
:104C30000590F491E02D0994AA1BBB1B51E107C01C
:104C4000AA1FBB1FA617B70710F0A61BB70B881F1C
:104C5000991F5A95A9F780959095BC01CD010895AB
:104C6000F999FECF92BD81BDF89A992780B5089534
:104C7000A8E1B0E042E050E00C945826262FF999C4
:104C8000FECF92BD81BDF89A019700B4021639F0AB
:104C90001FBA20BD0FB6F894FA9AF99A0FBE08957C
:104CA0000196272F0E943F260C943E26DC01CB0163
:104CB000FC01F999FECF06C0F2BDE1BDF89A31962C
:104CC00000B40D9241505040B8F70895F894FFCFCA
:104CD00002209C0C2A0D070DD30C9F0C0101CE0164
:104CE00028080A03140A404D36393008E307AD0797
:104CF0007407070720073907520701020304050656
:044D00000708090097
:00000001FF
