:100000000C9445040C9489040C9489040C94890480
:100010000C9489040C9489040C9489040C9489042C
:100020000C9489040C9489040C94E70F0C94B91077
:100030000C9489040C9489040C9489040C9489040C
:100040000C9489040C94CD240C9489040C94890498
:100050000C9489040C945C1E0C9489040C948904FF
:100060000C9489040C9489040C9489040C948904DC
:100070000C9489040C9489040C9489040C948904CC
:100080000C9489040C9489040C9489040C948904BC
:100090000C9489040C9489040C9489040C948904AC
:1000A0000C9489040C9489040C9489049904D30455
:1000B000E50407051F0525052B05310537053D0519
:1000C00042054805720577057C0593052611481100
:1000D0003612481136128D11B0113612051218124F
:1000E000F314F3142215221558157815A916A9161C
:1000F0008315A916331633169A16A916A916A31630
:10010000401640164016401640164016401640163F
:10011000401640164016401640164016401640162F
:1001200052165F1666166D16771602E002E2012E71
:10013000022E02E10002E002E102E20001E001E140
:1001400001E20002E002E3016402640002E002E373
:100150000001E001E30001E10137023702E101386B
:10016000023801E10125022502E10001E101370227
:100170003702E10138023801E10107020702E1001C
:1001800001350235012002200002E302E102E30210
:10019000E102E302E102E302E102E302E102E3023F
:1001A000E102E302E102E302E102E302E102E3022F
:1001B000E102E302E102E302E102E302E102E3021F
:1001C000E102E302E102E302E102E302E102E3020F
:1001D000E102E302E102E302E102E302E102E302FF
:1001E000E102E302E102E302E102E302E102E302EF
:1001F000E102E302E102E302E102E302E102E302DF
:10020000E102E302E102E302E102E302E102E302CE
:10021000E102E302E102E302E102E302E102E302BE
:10022000E10001E301E10001E10136023602E101F2
:1002300038023801E10126022602E10001E101371E
:10024000023702E10138023801E10126022602E10B
:100250000001E10136023602E10138023801E10114
:1002600025022502E10001E10137023702E10138F0
:10027000023801E20125022502E20001E101370214
:100280003702E10138023801E10130023002E100B9
:1002900002E002E2013002300002E002E20001E08E
:1002A00001E20001E10131023102E10029002B00ED
:1002B000E200E100358100001E00140004001D7101
:1002C0000E304E001F001A0016001B0003304C00B9
:1002D0002000080007000600E0022A0021001500A7
:1002E0000900190000304B00220017000A00050029
:1002F00000004A000230E3000000E20000004D0070
:100300000B30E7000000E6000000500023001C0056
:100310000B00110000004F00240018000D00100019
:100320003177520025000C000E0036002E7F2C0085
:10033000260012000F003700E108280027001300F4
:1003400033003871E10451002D002F003474E500B2
:100350003081000065000100010001000100000083
:100360003A00350031000100010001003B00350278
:100370002102350001004C003C001E02240622022E
:10038000010001003D002D022402240401000100AF
:100390003E00010037001104000001003E00010092
:1003A00000000100000001003F000100000001000A
:1003B000000068003F0024062402240400004500D9
:1003C0004000220425021104310269004100230487
:1003D000260201001F020100420035002504010031
:1003E00001000100430035022604010001306A00CB
:1003F00044001E0231000100010000000100010064
:1004000001000100010000000100010001000100E5
:10041000010001000100F400F200FB0001000100F6
:100420000100F000F100FA00010001000100F500F8
:10043000F300FC00010001000100F900FA00F600E1
:1004400000000100010001000000010000000100A7
:1004500001000100000001000000AC0001000100EB
:10046000010001000000AB000100010001000100DB
:100470000100A90001000100010001000100AE001F
:1004800001000100010001005000A800010001006E
:10049000010052005100AA0001000100010001000A
:1004A0004F000000010001000100010001000000F8
:1004B0000100010001000100010001000100010034
:1004C0000100010001000100010001000100010024
:1004D0000100010001000100010001000100010014
:1004E0000100010001000100000001000100010005
:1004F00000000100000001000730010000000100C1
:1005000000000100083005300A3001000000010041
:100510000C300D30043001000100010001000630F4
:1005200001000100010001000100010001000100C3
:1005300001000100010001000100010001000100B3
:1005400001000100010001000100000001000100A4
:100550000100010001000000010001000100010094
:100560000100010001000100500001000100010034
:1005700001005200510001000100010001000100D2
:100580004F00010001000100010001000100010015
:100590000000010001000100000001000000010056
:1005A0000100010000000100000001003F002402E2
:1005B00024022202000001004000240021001E004D
:1005C000270001004100250022001F003700010024
:1005D00042002600230020003600010043003002C4
:1005E00030000100270201004400450038000100EE
:1005F0000100000001000100E1000100E000000036
:10060000010001000100010001003D0001000100A6
:10061000010001000100E0000100010001000100F3
:1006200001002C00010001000100010001003C005C
:10063000010001000100010000003A00010001007A
:100640000000010000003B0001000100000001006B
:100650000000010001000100010001000000010094
:100660000100010001000100010001000100010082
:100670000100010001000100010001000100010072
:100680000100010001000100010001000130010032
:1006900001000100010001000100000016034500F7
:1006A000720067006F0044006F0078002000450072
:1006B0005A00000016034500720067006F004400F6
:1006C0006F007800200045005A0000000403090470
:1006D00009026D00040100A0FA09040000010301F1
:1006E0000100092111010001223F000705810308D3
:1006F000000A09040100010301020009211101009F
:1007000001224D000705820308000A0904020001C6
:1007100003000000092111010001223600070583B2
:100720000308000A09040300010300000009211165
:100730000100012239000705840310000112011095
:100740000100000008EDFE07130100010200010591
:10075000010906A101050719E029E7150025019502
:100760000875018102050819012905950575019192
:1007700002950175039101050719002977150025D8
:1007800001957875018102C005010980A1018502EA
:1007900016010026B7001A01002AB700751095014E
:1007A0008100C0050C0901A1018503160100269CEA
:1007B000021A01002A9C02751095018100C00501F2
:1007C0000902A1010901A100050919012905150066
:1007D00025019505750181029501750381010501CA
:1007E000093009311581257F950275088106093880
:1007F0001581257F950175088106050C0A380215BB
:1008000081257F950175088106C0C005010906A1F3
:1008100001050719E029E7150025019508750181F3
:1008200002950175088101050819012905950575CD
:100830000191029501750391010507190029FF1522
:100840000025FF950675088100C00000000000002B
:100850000000000000010204060A0F17202C3A4A8B
:100860005D71879DB3C7DAE9F5FCFFFCF5E9DAC7EE
:10087000B39D87715D4A3A2C20170F0A06040201C6
:100880000000000000000000000011241FBECFEF98
:10089000DAE0DEBFCDBF04B603FE24C08091FB01C9
:1008A0009091FC01A091FD01B091FE018730904B29
:1008B000A740B04BB9F41092FB011092FC011092CA
:1008C000FD011092FE0114BE84B7877F84BF88E1CA
:1008D0000FB6F89480936000109260000FBEE0E0C5
:1008E000FFE3099511E0A0E0B1E0E8E2FDE402C019
:1008F00005900D92A433B107D9F711E0A4E3B1E05C
:1009000001C01D92AB3FB107E1F70E942B0D0C9483
:1009100092260C940000462F50E04031510508F01B
:100920001FC1DC01FA01EA5AFF4F12968C910C9418
:1009300042268823A9F00E94261E909335018093B9
:1009400034018091BD019091BE01A091BF01B09191
:10095000C00128E0822788709927AA27BB27AEC04C
:100960008091BD019091BE01A091BF01B091C001E5
:1009700028E0822788709927AA27BB278093BD018A
:100980009093BE01A093BF01B093C0018091340148
:10099000909135010E94321E873991050CF0E0C01C
:1009A00083EA92E00895882309F4DAC08091BD01BA
:1009B0009091BE01A091BF01B091C00120E28227B9
:1009C00080729927AA27BB2779C0882339F00E9413
:1009D000261E90933501809334010AC08091340122
:1009E000909135010E94321E873991050CF4B8C0F0
:1009F0008091BD019091BE01A091BF01B091C00155
:100A000020E1822780719927AA27BB2757C0882316
:100A100049F00E94261E90933501809334018EE99F
:100A200092E0089580913401909135010E94321E28
:100A3000873991050CF08EC080E992E008958823F3
:100A400009F48EC08BE792E00895882309F488C0EA
:100A500086E692E00895882309F482C081E592E059
:100A60000895882309F47CC08CE392E008958823DC
:100A700009F476C087E292E0089581116EC089E89A
:100A800091E00895882309F46BC080E891E008950F
:100A90008823E9F00E94261E90933501809334014B
:100AA0008091BD019091BE01A091BF01B091C001A4
:100AB00024E0822784709927AA27BB278093BD0151
:100AC0009093BE01A093BF01B093C00149C0809133
:100AD0003401909135010E94321E873991050CF442
:100AE0003FC0DECF8823E1F18BE691E008958823B3
:100AF000B9F186E591E00895882349F00E94261E09
:100B0000909335018093340181E591E008958091BF
:100B10003401909135010E94321E873991051CF5F0
:100B200083E491E00895882349F00E94261E909363
:100B30003501809334018CE391E008958091340174
:100B4000909135010E94321E873991057CF48AE22A
:100B500091E0089589E992E0089582E292E0089593
:100B600080E090E008958CE491E0089585E391E0C1
:100B7000089508956091BD017091BE018091BF01FB
:100B80009091C0010E94881D56985E9825982D98D6
:100B900026982E9827982F98823061F018F481308B
:100BA00031F00895843069F0853039F00895259A40
:100BB0002D9A0895269A2E9A0895259A2D9A269A66
:100BC0002E9A279A2F9A08950C94BA0556985E98F3
:100BD00025982D9826982E9827982F988FEF90E09B
:100BE000909389008093880090938B0080938A0073
:100BF00090938D0080938C00259A2D9A2FEF80E79B
:100C000092E0215080409040E1F700C00000269A19
:100C10002E9A2FEF80E792E0215080409040E1F73C
:100C200000C00000279A2F9A2FEF80E792E0215012
:100C300080409040E1F700C0000025982D982FEFEC
:100C400080E792E0215080409040E1F700C0000032
:100C500026982E982FEF80E792E021508040904018
:100C6000E1F700C0000027982F9856985E982598C5
:100C70002D9826982E9827982F98089589EA809382
:100C8000800089E08093810024982C983F988AB155
:100C90008F748AB96E98479A8BB1806B8BB9769AAC
:100CA0000E94E6050C94B90580E2809300018091D2
:100CB000360181110EC00E94A30681E080933601A7
:100CC0002FEF83ED90E3215080409040E1F700C08A
:100CD000000080E40E94A9068093000181112EC0CB
:100CE0000E94D30680930001811128C00E94D30680
:100CF00080930001811122C08FE30E94D30680936C
:100D0000000181111BC00E94CB0680E40E94A9064D
:100D100080930001811112C08CE00E94D306809361
:100D2000000181110BC00E94D30680930001811144
:100D300005C08FE30E94D306809300010E94CB067A
:100D40008091000108951092B9008AE08093B80064
:100D5000089594EA9093BC009091BC0097FFFCCF5B
:100D60009091B900987F983021F0903111F081E096
:100D700008958093BB0084E88093BC008091BC0000
:100D800087FFFCCF8091B900887F883111F08034D3
:100D900071F780E0089584E98093BC008091BC00E5
:100DA00084FDFCCF08958093BB0084E88093BC0051
:100DB0008091BC0087FFFCCF9091B900987F81E0C3
:100DC000983209F480E0089584E88093BC00809113
:100DD000BC0087FFFCCF8091BB000895809100018B
:100DE000811115C080E40E94A90680930001811141
:100DF0000CC082E10E94D30680930001811105C0DE
:100E00008FEF0E94D306809300010E94CB0684B12D
:100E1000807F84B985B1807F85B98AB1837F8AB9A3
:100E20008BB1837F8BB93E98469808950E945406F3
:100E3000809300010E94EE0680B38C7080BB81B36A
:100E4000836F81BBA8E3B1E0E6E4F1E08EE08E0FB2
:100E500011921D928E13FCCF0C943E06BF92CF923E
:100E6000DF92EF92FF920F931F93CF93DF938091C6
:100E70000001882379F0809137018F5F80933701DB
:100E8000811108C00E94540680930001811102C0A4
:100E90000E94E60508E311E0C0E0D0E0DD24D39431
:100EA00082E0C82EEE24E394F12CC730D10500F582
:100EB00080910001811164C080E40E94A9068093A2
:100EC0000001811112C082E10E94D30680930001CB
:100ED00081110BC0C7010C2E01C0880F0A94EAF7DC
:100EE00080950E94D306809300010E94CB0648C0E3
:100EF000CA30A1F028F4C83059F0C93061F005C0FB
:100F0000CC3089F070F0CD3089F0209A289810C04C
:100F1000219A29980DC0229A2A980AC0239A2B98C0
:100F200007C0529A01C0539A5B9802C03E9A4698F5
:100F300090EA9A95F1F79FB1799902C082E001C0D9
:100F400080E091709D25982B7C9902C084E001C0BF
:100F500080E0892B7D9902C038E001C030E0832B0E
:100F60007E9902C020E101C020E0822B9FB19095C4
:100F7000991F9927991F9295990F907E892B0FC0E1
:100F800080910001811149C080E40E94A9068093EC
:100F90000001882379F1B12C0E94CB068B2DF8013A
:100FA0009081981719F08083C09201010E94EE068B
:100FB00021960F5F1F4FCE30D10509F076CF80917B
:100FC0000101882361F1815080930101882339F068
:100FD0008FE99FE00197F1F700C0000020C0A6E470
:100FE000B1E0E8E3F1E0CF01825F91919D938E1330
:100FF000FCCF15C083E10E94D306809300018111CC
:10100000CACF81E40E94A906809300018111C3CF59
:101010000E94E406B82EB094BFCF80E0C0CF0E94FB
:10102000E40581E0DF91CF911F910F91FF90EF9048
:10103000DF90CF90BF900895E82FF0E0EA5BFE4F7D
:1010400080810895089581E0089508950F931F9376
:10105000CF93DF93EC0108811981C8010E940D1C18
:10106000B8010E947D088C018A818823C1F180919A
:101070005D0181111DC00431104589F50E942508CC
:1010800081E080935D010E94261E90935C01809315
:101090005B0110925401109256011092550110926A
:1010A00058011092570110925A01109259011EC016
:1010B00080915B0190915C010E94321E883C9105F9
:1010C00074F490915401E92FF0E0EE0FFF1FEB5AFA
:1010D000FE4F118300839F5F9093540107C0CE01A0
:1010E000DF91CF911F910F910C94230880E0DF9145
:1010F000CF911F910F910895089596E0799FF00187
:10110000112494E5899FE00DF11D1124E60FF11DD6
:10111000EE0FFF1FE455FD4F859194910895880FC0
:10112000991FFC01E45DFE4F859194910895880F0D
:10113000991FFC01E455FD4F8591949108950F93FB
:101140001F93CF93DF93EC018115904350F5C115A8
:1011500080E2D80708F0B3C0CB3BD10590F4C83A81
:10116000D10508F05AC0C53AD10508F04BC0C430CB
:10117000D10508F0CCC1219709F0C6C101E010E00B
:1011800006C2CF3FD10511F008F0C1C1C03FD10563
:1011900008F092C0CE01805E9109089708F4B7C1AB
:1011A000B3C1C11591E5D907A8F4C23020E5D20733
:1011B00008F09EC0C11580E5D80709F485C008F085
:1011C00091C0C11520E4D20708F09EC1DD278E0131
:1011D000106CDDC1C11580E8D80758F4C11590E73F
:1011E000D90708F08DC1C11527E5D20708F422C13F
:1011F0008BC1C11580E9D80708F086C1DF708E0168
:10120000106AC5C1C53AD10509F483C1C63AD105F2
:1012100009F082C102E810E4BAC1C83AD10509F464
:101220007EC1C93AD10509F47DC1CA3AD10509F494
:101230007CC1CB3AD10509F47BC1CC3AD10509F484
:101240007AC1CD3AD10509F479C1C03BD10509F481
:1012500078C1CE3AD10509F477C1CF3AD10509F466
:1012600076C1C13BD10509F475C1C23BD10509F472
:1012700074C1C33BD10509F473C1C43BD10509F462
:1012800072C1C53BD10509F471C1C63BD10509F452
:1012900070C1C73BD10509F46FC1C83BD10509F442
:1012A0006EC1C93BD10509F46DC1CA3BD10509F432
:1012B0006CC100E014E46BC18E01106568C1CE0101
:1012C0009F700E94970864C10E9414179FEF24E347
:1012D0008CE0915020408040E1F700C000000E9467
:1012E000811E55C18091DA0181608093DA014FC17E
:1012F0000E942A20811102C00E9410200E944720D3
:1013000090E09093FB018093FA01C23090E5D907F9
:1013100021F48091FA01816086C0C43020E5D207B3
:1013200021F48091FA0182607EC0C63080E5D80742
:1013300021F48091FA01846076C0C83090E5D90725
:1013400019F48091FA0127C0CA3020E5D20721F4B0
:101350008091FA01806167C0CC3080E5D80721F424
:101360008091FA0180625FC0CE3090E5D90721F408
:101370008091FA01806457C0C03120E5D20721F482
:101380008091FA0180684FC0C23180E5D80729F406
:101390008091FA018460886046C0C33090E5D90727
:1013A00021F48091FA018E7F3EC0C53020E5D2073E
:1013B00021F48091FA018D7F36C0C73080E5D807CF
:1013C00021F48091FA018B7F2EC0C93090E5D907B6
:1013D00019F48091FA0126C0CB3020E5D20721F420
:1013E0008091FA018F7E1FC0CD3080E5D80721F4AF
:1013F0008091FA018F7D17C0CF3090E5D90721F495
:101400008091FA018F7B0FC0C13120E5D20721F412
:101410008091FA018F7707C0C331D04531F48091B4
:10142000FA018B7F877F8093FA018091FA010E94F5
:101430004B20ADC08D2F99278F7099278130910552
:10144000D9F49E012370332702C0880F991F2A9573
:10145000E2F79C688E0144E0000F111F4A95E1F706
:1014600000271370802B912B53E0CC0FDD1F5A9572
:10147000E1F7C076DD272FC08230910531F4DC2FF3
:10148000CC278E01016F106A82C08330910569F408
:10149000CE018370992701E010E002C0000F111FF8
:1014A0008A95E2F7C8019C680FC084309105B9F4B1
:1014B000CE018370992701E010E002C0000F111FD8
:1014C0008A95E2F7C8019A6823E0CC0FDD1F2A95C0
:1014D000E1F7C07ED7708C010C2B1D2B58C08530D6
:1014E000910531F4DC2FCC278E01046F106A4FC0B8
:1014F000069709F04CC0CF71DD27DC2FCC2701C047
:10150000DF708E01106243C000E010E040C08E0129
:101510003EC001E810E43BC003E810E438C002EE2E
:1015200014E435C009EE14E432C00AEE14E42FC00E
:1015300005EB14E42CC006EB14E429C007EB14E41B
:1015400026C00CEC14E423C00DEC14E420C003E826
:1015500015E41DC00AE815E41AC002E915E417C035
:1015600004E915E414C001E216E411C003E216E434
:101570000EC004E216E40BC005E216E408C006E261
:1015800016E405C007E216E402C00AE216E4C80148
:10159000DF91CF911F910F91089596E0799FF0010F
:1015A000112494E5899FE00DF11D1124E60FF11D32
:1015B000EE0FFF1FE455FD4F85919491803E9105FC
:1015C000E0F4803C910558F58133910509F46FC032
:1015D00048F48932910509F463C08A32910509F40F
:1015E0006DC072C089339105E9F082389105D1F060
:1015F0008533910509F44DC067C0833E910581F1A3
:1016000038F4803E9105B9F0823E9105D9F05CC076
:10161000863E910561F1873E9105A1F155C00E947A
:101620008F0808952091FA0120FD02C021FF4CC0CF
:1016300080EE90E049C08091FA0180FFF9CF89E304
:1016400090E042C08091FA0182FF0EC08091FA01C1
:1016500084FF03C080E090E037C083EE90E034C0A8
:101660008091FA0182FFF2CF82EE90E02DC080914E
:10167000FA0183FF0BC08091FA0184FDEBCF87EE66
:1016800090E022C08091FA0183FFF5CF86EE90E0D2
:101690001BC08091FA0185FF07C089E290E014C069
:1016A0008091FA0185FFF9CF85E390E00DC080912C
:1016B000FA0186FF07C08AE290E006C08091FA0135
:1016C00086FFF9CF81E390E00E949F080895089576
:1016D0000C94670B80916E010895CF93DF9300D037
:1016E0001F92CDB7DEB79C018091F101843019F5CE
:1016F00093E099833B832A839093E9008FEF909145
:10170000E800815095FD06C095ED9A95F1F700002F
:101710008111F5CF8091E80085FF0DC040E050E0D9
:1017200063E070E0CE0101960E94D70D8091E80041
:101730008E778093E8000F900F900F90DF91CF91FC
:101740000895CF93DF9300D01F92CDB7DEB72091DD
:10175000F101243021F522E029839B838A8383E0F1
:101760008093E9008FEF9091E800815095FD06C0CD
:1017700095ED9A95F1F700008111F5CF8091E80081
:1017800085FF0DC040E050E063E070E0CE010196BF
:101790000E94D70D8091E8008E778093E8000F902B
:1017A0000F900F90DF91CF9108952091F101243097
:1017B000F1F422E02093E9002FEF3091E80021506E
:1017C00035FD06C035ED3A95F1F700002111F5CF52
:1017D0002091E80025FF0BC040E050E065E070E09C
:1017E0000E94D70D8091E8008E778093E8000895DD
:1017F000CF93DF93EC019091F101943009F046C052
:1018000080910C018823D9F080910D018823B9F0D3
:101810009093E9008FEF9091E800815095FD06C00C
:1018200095E19A95F1F700008111F5CF8091E800DC
:1018300085FF2CC040E050E060E170E017C081E01F
:101840008093E9008FEF9091E800815095FD06C0EC
:1018500095ED9A95F1F700008111F5CF8091E800A0
:1018600085FF14C040E050E068E070E0CE010E94C7
:10187000D70D8091E8008E778093E80080E1FE012B
:10188000AEE5B1E001900D928A95E1F7DF91CF913D
:1018900008958091F001811109C00E946C0F0E948F
:1018A000C90F8091E20084608093E2000895109255
:1018B000F001089508950C94BA240E94171E0E9406
:1018C000C0240E946F120C94680B42E061EC81E02E
:1018D0000E94E60E42E061EC82E00E94E60E42E0E9
:1018E00061EC83E00E94E60E42E161EC84E00C943E
:1018F000E60E8091F301833009F455C030F4813055
:1019000071F0823009F48EC008958A3009F47AC0EB
:101910008B3009F460C0893009F09CC020C08091F0
:10192000F201813A09F096C08091E800877F8093A8
:10193000E8008091F6019091F701892B21F460E194
:101940008EE591E003C060E080E090E070E00E94EE
:10195000220E8091E8008B778093E80008958091B3
:10196000F201813209F076C08091F6019091F70181
:10197000009719F0039709F06DC08091E800877F08
:101980008093E8008091E80082FD05C08091F1011C
:101990008111F8CF5FC08091F10080936E0180913A
:1019A000E8008B7753C08091F201813A09F052C070
:1019B0008091F6019091F701892B09F04BC080913D
:1019C000E800877F8093E8008091E80080FFFCCFEB
:1019D00080910C0136C08091F2018132D9F580915D
:1019E000F6019091F701892BA9F58091E800877F96
:1019F0008093E8000E941B0F8091F40180930C01FA
:101A00000C9414178091F201813221F58091E80045
:101A1000877F8093E8000E941B0F8091F5018093DF
:101A20006F0108958091F201813AA1F48091E8005C
:101A3000877F8093E8008091E80080FFFCCF809151
:101A40006F018093F1008091E8008E778093E80029
:101A50000C941B0F089584B7877F84BF88E10FB66D
:101A6000F89480936000109260000FBE90E080E8D0
:101A70000FB6F89480936100909361000FBE0E94AE
:101A8000BE120E946C0F0E94C90F8091E200846018
:101A90008093E20078940E944F120E94C01282E06C
:101AA00091E00E946A120E94A8248091F101853081
:101AB00069F40E94D81D8091EF018823B1F30E9440
:101AC000031E882391F30E94C10DEFCF0E94C6121E
:101AD000ECCF292F332723303105C9F064F42130AE
:101AE000310581F02230310509F043C08DE690E0E8
:101AF00020ED36E042C021323105F1F022323105CD
:101B000041F137C082E190E02DE337E036C09927FC
:101B10008130910541F08230910541F0892B49F5E2
:101B2000ECECF6E005C0E4EBF6E002C0ECE9F6E030
:101B3000849190E09F0121C06430D8F4E62FF0E05A
:101B4000EE0FFF1FEE5DFE4F2081318189E090E0B6
:101B500014C0643070F470E0FB01EE0FFF1FE65E0E
:101B6000FE4F20813181FB01EA5EFE4F808190E0D3
:101B700004C080E090E020E030E0FA01318320836F
:101B8000089580E189BD82E189BD09B400FEFDCFE1
:101B90008091D8008F7D8093D8008091E000826092
:101BA0008093E0008091E00081FDFCCF0895CF920A
:101BB000DF92EF92FF920F931F93CF93DF93EC018D
:101BC0008B016A010E943A0F811133C0C114D10404
:101BD00039F0F60180819181081B190BC80FD91FBC
:101BE000E12CF12C0115110519F18091E80085FD1A
:101BF00016C08091E8008E778093E800C114D1046C
:101C000049F0F60180819181E80EF91EF182E082AF
:101C100085E00FC00E943A0F882321F30AC0899102
:101C20008093F10001501109FFEFEF1AFF0ADACF9C
:101C300080E0DF91CF911F910F91FF90EF90DF90A7
:101C4000CF9008952091F8013091F90126173707B8
:101C500048F06115710539F42091E8002E77209342
:101C6000E80001C0B90140E061157105A9F12091BA
:101C7000F101222309F443C0253009F442C0209128
:101C8000E80023FD40C02091E80022FD32C02091F1
:101C9000E80020FFE9CF4091F3002091F20030E00E
:101CA000342BFC01CF016115710559F02830310545
:101CB00040F481918093F100615071092F5F3F4F93
:101CC000F1CF41E02830310509F040E02091E800F3
:101CD0002E772093E800C8CF4111C9CF0AC0809168
:101CE000F101882361F0853061F08091E80083FD87
:101CF0000AC08091E80082FFF2CF80E0089582E080
:101D0000089583E0089581E008952091F8013091CD
:101D1000F9012617370748F06115710539F420914C
:101D2000E8002E772093E80001C0B901FC0120E013
:101D30006115710591F18091F101882309F440C08A
:101D4000853009F43FC08091E80083FD3DC080915B
:101D5000E80082FD2FC08091E80080FFE9CF20914C
:101D6000F3008091F20090E0922B6115710559F01B
:101D70008830910540F424912093F1003196615010
:101D800071090196F2CF21E0089709F020E08091D7
:101D9000E8008E778093E800CBCF2111CCCF0AC02A
:101DA0008091F101882361F0853061F08091E80035
:101DB00083FD0AC08091E80082FFF2CF80E00895A1
:101DC00082E0089583E0089581E00895982F973088
:101DD00058F59093E900981739F07091EC00209134
:101DE000ED005091F00003C0242F762F50E021FF2A
:101DF00019C03091EB003E7F3093EB003091ED0045
:101E00003D7F3093ED003091EB0031603093EB007B
:101E10007093EC002093ED005093F0002091EE00C1
:101E200027FF07C09F5FD3CF8F708093E90081E0C9
:101E3000089580E008958091F20187FF11C080919C
:101E4000E80082FD05C08091F1018111F8CF11C039
:101E50008091E8008B770BC08091F101882349F0D5
:101E60008091E80080FFF8CF8091E8008E77809322
:101E7000E80008952091E4003091E50095E6409156
:101E8000EC00842F817040FF22C08091E80080FD2B
:101E90001CC08091F101882391F0853091F08091F0
:101EA000EB0085FD10C04091E4005091E500421721
:101EB000530729F39A01915011F784E0089582E0C5
:101EC000089583E0089581E0089580E008954091A9
:101ED000E80042FFDECF08950E94DA0F0E94E20F71
:101EE000E0EEF0E0808181608083E8EDF0E08081C9
:101EF0008F77808319BCA7EDB0E08C918E7F8C9397
:101F000080818F7E80831092F00108950F931F933C
:101F1000CF93DF930E94DA0F0E94E20FC8EDD0E06A
:101F200088818F77888388818068888388818F7D86
:101F3000888319BC1092F1011092ED011092EF010B
:101F40001092EE0100EE10E0F80180818B7F80831B
:101F500088818160888342E060E080E00E94E60E34
:101F6000E1EEF0E080818E7F8083E2EEF0E0808120
:101F700081608083808188608083F80180818E7F8A
:101F80008083888180618883DF91CF911F910F9139
:101F90000895E8EDF0E080818F7E8083E7EDF0E04A
:101FA00080818160808384E082BF81E08093F00142
:101FB0000C94860FE8EDF0E080818E7F8083109294
:101FC000E20008951092DA001092E10008951F9245
:101FD0000F920FB60F9211242F933F934F935F935D
:101FE0006F937F938F939F93AF93BF93EF93FF93E1
:101FF0008091E10082FF0BC08091E20082FF07C068
:102000008091E1008B7F8093E1000E944E128091CD
:10201000DA0080FF1FC08091D80080FF1BC0809134
:10202000DA008E7F8093DA008091D90080FF0DC0A6
:1020300080E189BD82E189BD09B400FEFDCF81E068
:102040008093F1010E94490C05C019BC1092F10166
:102050000E94570C8091E10080FF19C08091E2003E
:1020600080FF15C08091E2008E7F8093E200809116
:10207000E20080618093E2008091D80080628093CA
:10208000D80019BC85E08093F1010E945B0C80911F
:10209000E10084FF30C08091E20084FF2CC080E129
:1020A00089BD82E189BD09B400FEFDCF8091D800D1
:1020B0008F7D8093D8008091E1008F7E8093E10036
:1020C0008091E2008F7E8093E2008091E200816047
:1020D0008093E2008091ED01882311F084E007C035
:1020E0008091E30087FD02C081E001C083E080931E
:1020F000F1010E945D0C8091E10083FF29C0809175
:10210000E20083FF25C08091E100877F8093E1009A
:1021100082E08093F1011092ED018091E1008E7FC9
:102120008093E1008091E2008E7F8093E2008091B5
:10213000E20080618093E20042E060E080E00E9483
:10214000E60E8091F00088608093F0000E945A0CA7
:10215000FF91EF91BF91AF919F918F917F916F917F
:102160005F914F913F912F910F900FBE0F901F9055
:1021700018951F920F920FB60F9211242F933F9331
:102180004F935F936F937F938F939F93AF93BF937F
:10219000CF93DF93EF93FF93C091E900CF708091CD
:1021A000EC00D82FD17080FDD0E81092E90080912A
:1021B000F000877F8093F00078940E94FD101092C9
:1021C000E9008091F00088608093F000CD2BCF7003
:1021D000C093E900FF91EF91DF91CF91BF91AF9153
:1021E0009F918F917F916F915F914F913F912F912F
:1021F0000F900FBE0F901F9018951F93CF93DF93F2
:10220000CDB7DEB7AA970FB6F894DEBF0FBECDBF2D
:10221000E2EFF1E088E08E0F9091F10091938E1340
:10222000FBCF0E94790C8091E80083FF1FC1809151
:10223000F2019091F301492F50E04A30510508F026
:1022400015C1FA01EA59FF4F0C944226803881F0FB
:10225000823809F00BC18091F6018F708093E900FC
:102260008091EB0085FB882780F91092E90006C079
:102270008091EE019091EF01911182609091E800C0
:10228000977F9093E8008093F1001092F100C8C00E
:10229000282F2D7F09F0EAC0882319F0823061F0E1
:1022A000E5C08091F401813009F0E0C0933009F07D
:1022B00080E08093EF012BC08091F401811127C051
:1022C0008091F6018F7009F4D1C08093E9002091CC
:1022D000EB0020FF1CC0933021F48091EB00806262
:1022E00014C09091EB0090619093EB0021E030E0FE
:1022F000A90102C0440F551F8A95E2F74093EA00F6
:102300001092EA008091EB0088608093EB001092BD
:10231000E9008091E800877F86C08111A7C01091F5
:10232000F4011F778091E3008078812B8093E30094
:102330008091E800877F8093E8000E941B0F8091C6
:10234000E80080FFFCCF8091E30080688093E30089
:10235000111102C082E001C083E08093F10186C0C8
:102360008058823008F082C08091F4019091F5018C
:102370008C3D53E0950779F583E08A838AE289836F
:102380004FB7F894DE01139620E03EE051E2E32FD0
:10239000F0E050935700E49120FF03C0E295EF7006
:1023A0003F5FEF708E2F90E0EA3010F0C79601C0CB
:1023B000C0968D939D932F5F243149F74FBF809135
:1023C000E800877F8093E8006AE270E0CE01019622
:1023D0000E94220E14C0AE014F5F5F4F6091F60164
:1023E0000E94690DBC01892B09F440C09091E8005E
:1023F000977F9093E80089819A810E94850E809151
:10240000E8008B778093E80031C0803879F58091BF
:10241000E800877F8093E8008091ED018093F100D0
:102420008091E8008E778093E8000E941B0F1EC009
:1024300081111CC09091F4019230C0F48091E800A9
:10244000877F8093E8009093ED010E941B0F80919D
:10245000ED01811106C08091E30087FD02C081E09B
:1024600001C084E08093F1010E94650C8091E80036
:1024700083FF0AC08091E800877F8093E800809105
:10248000EB0080628093EB00AA960FB6F894DEBF53
:102490000FBECDBFDF91CF911F9108950895CF93C7
:1024A0008091F1018823A1F0C091E900CF70909153
:1024B000EC00892F817090FD80E8C82B1092E90014
:1024C0008091E80083FD0E94FD10CF70C093E90069
:1024D000CF91089590937501809374010895E091D0
:1024E0007401F0917501309721F00190F081E02D99
:1024F000099480E00895E0917401F091750130979E
:1025000021F00280F381E02D09940895E091740197
:10251000F0917501309721F00480F581E02D099448
:10252000089520917201309173018217930771F021
:102530009093730180937201E0917401F0917501A1
:10254000309721F00680F781E02D099408952091BD
:102550007001309171018217930771F090937101AE
:1025600080937001E0917401F0917501309721F032
:102570000084F185E02D0994089508950C94BD120E
:102580000E941D1E0E9416070C94E31ECF92DF923C
:10259000EF92FF920F931F93CF93DF93CDB7DEB7E8
:1025A0002B970FB6F894DEBF0FBECDBF0E942E074B
:1025B00087E7C82E81E0D82E00E010E0E02E802FC3
:1025C0000E941C08F60141916F01F42EF826B1F427
:1025D0000F5F1F4F0E30110589F78FEF89838A83B4
:1025E0001B820E94261E8160782F9D838C834981E7
:1025F0005A816B818D810E94691340C09091DA01EC
:1026000091FF04C08B870E9422088B8520E030E078
:102610004F2D50E0922FBA01022E02C0759567959A
:102620000A94E2F760FF24C02E83EF8221E030E0BD
:10263000690102C0CC0CDD1C9A95E2F790E08C2178
:102640009D21892B09F420E028870E94261E8160A5
:10265000782F9A8789874E815F8168858A850E9455
:102660006913F801E958FE4F8081C826C08206C070
:102670002F5F3F4F2630310569F6AACF0E94CA214D
:10268000109176010E946F121817A1F00E946F122C
:10269000809376012B960FB6F894DEBF0FBECDBFA8
:1026A000DF91CF911F910F91FF90EF90DF90CF902E
:1026B0000C94680B2B960FB6F894DEBF0FBECDBFFF
:1026C000DF91CF911F910F91FF90EF90DF90CF900E
:1026D0000895CF93DF93CDB7DEB72B970FB6F8945D
:1026E000DEBF0FBECDBF4F83588769877A878B8740
:1026F000DE01119686E0FD0111928A95E9F785E0E9
:10270000FE01379601900D928A95E1F749815A8131
:102710006B817C818D819E810E94B2192B960FB6B0
:10272000F894DEBF0FBECDBFDF91CF910895CF9358
:10273000882309F4C2C0C82F823859F40E946F124E
:1027400081FDBBC089E30E948C1C0E94591D89E356
:102750000CC0833879F40E946F1280FDAEC083E50F
:102760000E948C1C0E94591D83E50E94CE1CCF91B3
:102770000C94591D843859F40E946F1282FD9DC03B
:1027800087E40E948C1C0E94591D87E4EECF8CEFD9
:102790008C0F813A48F48C2F0E940D2481118DC03A
:1027A0008C2F0E948C1CE3CF80E28C0F883048F481
:1027B000C77081E001C0880FCA95EAF70E94121D18
:1027C000D6CF8BE58C0F833078F4C53A29F0C63A22
:1027D00031F083E890E005C081E890E002C082E833
:1027E00090E0CF910C94911288E58C0F833108F022
:1027F00064C0C83A39F1C93A41F1CA3A49F1CB3A11
:1028000051F1CC3A59F1CD3A61F1C03B69F1CE3A80
:1028100071F1CF3A79F1C13B81F1C23B89F1C33B00
:1028200091F1C43B99F1C53BA1F1C63BA9F1C73B6E
:10283000B1F1C83BB9F1C93BC1F1CA3BC9F180E074
:1028400090E038C082EE90E035C089EE90E032C072
:102850008AEE90E02FC085EB90E02CC086EB90E0F4
:1028600029C087EB90E026C08CEC90E023C08DEC73
:1028700090E020C083E891E01DC08AE891E01AC092
:1028800082E991E017C084E991E014C081E292E00E
:1028900011C083E292E00EC084E292E00BC085E2B8
:1028A00092E008C086E292E005C087E292E002C0B2
:1028B0008AE292E0CF910C94A712CF9108958823D9
:1028C00009F44BC0823859F40E946F1281FF45C051
:1028D00089E30E948C1C0E94591D89E30CC0833837
:1028E00071F40E946F1280FF38C083E50E948C1C37
:1028F0000E94591D83E50E94CE1C0C94591D8438FA
:1029000059F40E946F1282FF28C087E40E948C1C39
:102910000E94591D87E4EFCF9CEF980F913A58F32E
:1029200090E2980F983050F4877091E001C0990FB1
:102930008A95EAF7892F0E94181DDFCF9BE5980F33
:10294000933020F480E090E00C949112885A833107
:1029500020F480E090E00C94A7120895882321F0E1
:102960000E94121D0C94591D0895882321F00E9485
:10297000181D0C94591D08957F928F929F92AF92CB
:10298000BF92CF92DF92EF92FF920F931F93CF935C
:10299000DF931F92CDB7DEB77C01C62E772EFC01E8
:1029A000058102950F70128111110E942F1D0E9446
:1029B000851C882379F0112369F080E28C0D883022
:1029C00048F082E00E946E1C0E94851C91E0D82E87
:1029D000D92601C0D12CE72DE295EF70F0E0E05947
:1029E000FF4F0C944226872D807F072D0F70882380
:1029F00011F00295007F112389F0002309F490C1A2
:102A000080E28C0D883020F4802F0E94121D03C0BC
:102A1000802F0E94221D0E94591D82C18C2D0E9470
:102A20005F14002309F495C180E28C0D883020F4F6
:102A3000802F0E94181D03C0802F0E94281D0E9415
:102A4000591D87C1972D907F872D8F70903211F07F
:102A50008295807FCC2021F0F1E0CF16B1F01EC02E
:102A6000112349F0002309F414C1013009F011C108
:102A70000E94421D6EC1002319F0013009F469C1A2
:102A800089830E94451D89810AC1112321F00230EA
:102A900008F05FC1FEC001115CC101C1112321F02A
:102AA000002309F4F6C03CC1002309F4F8C03EC17C
:102AB000872D86958695837090E0009719F0019791
:102AC00061F047C1112321F08C2D972D937002C026
:102AD00080E090E00E9491123CC1112321F08C2DE6
:102AE000972D937002C080E090E00E94A71231C140
:102AF0008C2D112319F00E94D22002C00E943A218D
:102B00000E94BF2126C1872D837009F052C0111188
:102B100020C18C2D829586958770880F880F9C2DFB
:102B20009F70892E912CA12CB12C082E04C0880CEA
:102B3000991CAA1CBB1C0A94D2F7C4FE14C00FE057
:102B400010E020E030E0B901A80104C0440F551F97
:102B5000661F771F8A95D2F7CB01BA0160957095F1
:102B60008095909503C060E070E0CB01272D2695FD
:102B70002695237030E02230310569F0233031058D
:102B800089F0682979298A299B292130310571F03A
:102B90000E94FA1ADEC0682979298A299B290E9495
:102BA000161BD7C00E94FA1AC501B4010E94DE1A92
:102BB000D0C0112319F0872D817001C0869588231C
:102BC00009F4C7C08C2D829586958770880F880F71
:102BD0009C2D9F70892E912CA12CB12C082E04C005
:102BE000880C991CAA1CBB1C0A94D2F7C4FE14C002
:102BF0000FE010E020E030E0B901A80104C0440F6C
:102C0000551F661F771F8A95D2F7CB01BA016095D1
:102C100070958095909503C060E070E0CB01272D02
:102C2000269526952370422F50E04230510569F0D9
:102C30004330510589F0682979298A299B29413037
:102C4000510571F00E94D41B84C0682979298A2912
:102C50009B290E94F01B7DC00E94D41BC501B401BA
:102C60000E94B81B76C08C2D90E0FC01E05EF1095B
:102C7000E531F10508F050C0E058FF4F0C944226B2
:102C80000C2D0F70872D8F71112331F00E94511B75
:102C9000802F0E94AE145DC00E94721B802F0E9484
:102CA000B51457C0112339F0011153C0872D8F710E
:102CB0000E94971B4EC0023008F04BC0F7CF112383
:102CC00039F0872D8F710E94511B43C01123C9F326
:102CD000872D8F710E94721B3CC0112329F0872D14
:102CE0008F710E943C1B35C00E94321B32C01123E1
:102CF00051F0172D1F71812F0E94511B63E0812F0E
:102D00000E94651C26C081E00E946E1C023008F102
:102D100082E00E946E1C1DC0112331F0002389F255
:102D20008C2D0E94971315C0002391F28C2D0E94C8
:102D30005F140FC0472D4F706C2DC7010E948B048C
:102D40000E94561A06C0472D4F706C2DC7010E9475
:102D50007C08DD20F9F00E94611C80FD1BC0F7019A
:102D600012820E945B1C0E94511BC7010E94D9164F
:102D70000E945B1C0F90DF91CF911F910F91FF90EC
:102D8000EF90DF90CF90BF90AF909F908F907F900B
:102D90000C94721B0F90DF91CF911F910F91FF90B8
:102DA000EF90DF90CF90BF90AF909F908F907F90EB
:102DB00008950F931F93CF93DF93EC01888199813E
:102DC0002B813C81232BB9F09F3F11F48F3F99F069
:102DD000CE010E942608882371F0688179818A815A
:102DE0000E94571C8C010E940C1C0E94D31AB8012F
:102DF000CE010E94BC14DF91CF911F910F910895D5
:102E00000E942F1D0E943F1D0E94041D0E94591DFB
:102E10000E9470220E94BF2180E090E00E949112E7
:102E200080E090E00C94A7120E941F1D0C940017E4
:102E30000E944C1C292F22952F7030E02C30310538
:102E40004CF42A3031056CF422503109223031051E
:102E5000A8F407C02C30310569F02F30310551F04E
:102E60000DC0803F69F018F4803E40F409C0843FF3
:102E700029F406C093FB882780F9089580E008951F
:102E800081E00895CF93DF9300D000D01F92CDB79B
:102E9000DEB70F900F900F900F900F90DF91CF91B2
:102EA0000895CF93DF9300D000D000D0CDB7DEB728
:102EB00026960FB6F894DEBF0FBECDBFDF91CF913F
:102EC00008951F93CF93DF93C091850116E0809101
:102ED0008601C81799F0D0E01C9FF0011D9FF00DEE
:102EE0001124E957FE4F40815181628173818481B1
:102EF00095810E9451172196C770E9CFDF91CF913C
:102F00001F9108954091B7015091B8016091B901A6
:102F10007091BA018091BB019091BC010C94511742
:102F20008091BC0182958F7009F054C08091B901E5
:102F3000882309F44FC080918501A091860160919A
:102F4000B7017091B8014091BA015091BB01B6E050
:102F50008A1709F43FC090E041155105C1F17F3F48
:102F600011F46F3FA1F1B89FF001B99FF00D11244A
:102F7000E957FE4F218172132AC02081621327C0B6
:102F80002281211124C0238134812417350710F4B4
:102F900021503109241B350B283C3105C0F4209108
:102FA000BC012F7020612093BC0126E0289FF00116
:102FB000299FF00D1124E457FE4F80818F708061AE
:102FC000808387EB91E00E94D9160C9461170196DB
:102FD0008770BECF0895CF92DF92EF92FF920F934A
:102FE0001F93CF93DF93CDB7DEB762970FB6F894F8
:102FF000DEBF0FBECDBF8C0185E0F801DE011D965E
:1030000001900D928A95E1F7D8014C9111965C914F
:10301000119712966C9112971396CD90DC9014979D
:103020003091B7017091B8018091BA019091BB01C4
:10303000009709F46BC17F3F19F43F3F09F466C163
:10304000E090B901EE2009F4C0C02091BC01C8167F
:10305000D90628F0F601E81BF90BCF0104C08095D2
:1030600090958C0D9D1DFF24F394883C910578F07C
:10307000F12C207F09F0C6C07C2DD98AC88A8989A5
:103080000E94421787EB91E00E94D916B1C0822FAF
:10309000807F09F046C0751314C0341312C061114B
:1030A00010C02F7020612093BC010E94821787EB13
:1030B00091E00E94D9168091BC01D80115968C939D
:1030C0002EC0CD2819F15F3F11F44F3FF9F0F62ED5
:1030D00061111CC0809185012091860136E0821724
:1030E00009F45AC090E0389FF001399FF00D112487
:1030F000E957FE4F7181571306C07081471303C013
:103100007281711103C001968770E9CFF62E662394
:1031100009F418C18091BC0181608093BC01F12C3D
:1031200011C1751308C0341306C0611104C0809129
:10313000BC01D801C3C04D875E878D859E856A8B93
:103140000E9418176A898823E1F16623D1F1209142
:10315000BC01822F82958F7090E0029774F080916D
:10316000B7019091B80198878F831986DB86CA864C
:103170002C87CE0107960E94D91686E0F801A7EBAE
:10318000B1E001900D928A95E1F70E9490170E949C
:103190008217FF24F394D6C04D875E878D859E8568
:1031A0000E944C1C292F22952F7030E022303105CF
:1031B0000CF0BCC09F7009F0B6C0805E883008F487
:1031C000C1C0C8010E94D916E4CFC816D90608F4B8
:1031D00053C0F601E81BF90BCF01883C910508F4B8
:1031E00050C0F12C7C2DD98AC88A89890E94421747
:1031F000E7EBF1E086E0DF011D928A95E9F70E9496
:103200008217A0C0751314C0341312C0611110C00E
:103210008091BC01F8018583C8010E94D91686E01F
:10322000E7EBF1E0DF011D928A95E9F7FE2C8AC0F9
:103230004D875E878D859E856A8B0E9418176A89E7
:10324000882309F4BECF662309F4BBCF2091BC01CB
:10325000822F82958F7090E002970CF48ECF809130
:10326000B7019091B8019A8389831B82DD82CC8259
:103270002E83CE0101967FCF809590958C0D9D1D5C
:10328000ACCFF62E662309F49CCF75132EC03413F1
:103290002CC02091BC0120FD1FC0822F82958F7011
:1032A000D9F0D80115962C9315978F3049F08F5F80
:1032B000982F9295907F822F8F70892B15968C93E3
:1032C000C8010E94D91686E0F801A7EBB1E0019091
:1032D0000D928A95E1F793CF86E0F801A7EBB1E074
:1032E00001900D928A95E1F72DC04D875E878D85FF
:1032F0009E850E941817811140CF8091BC0181608A
:103300008093BC01C8010E94D9161CC0662309F431
:1033100058CF4D875E878D859E850E94181788231C
:1033200009F44FCF2ACF811148CF0CC0243031058A
:103330000CF047CF9F7009F440CFF8019581907F42
:1033400009F03BCF8F2D62960FB6F894DEBF0FBE0B
:10335000CDBFDF91CF911F910F91FF90EF90DF9044
:10336000CF9008951F93CF93DF93CDB7DEB72C97FF
:103370000FB6F894DEBF0FBECDBF4F835887698765
:103380007A878B879C87CE0107960E94EB1788234C
:1033900069F08F8198852A853B85232BF1F19F3F2A
:1033A00009F063C08F3F09F060C037C086E0FE01BE
:1033B0003796DE01119601900D928A95E1F76F81A3
:1033C0007885EA85FB85309741F17F3F11F46F3FA7
:1033D00021F12091860130E0C9010196877099277B
:1033E0004091850150E08417950709F447C069832F
:1033F0007A83FD83EC8396E0929FD001939FB00D7A
:103400001124A957BE4FFE01319601900D929A9555
:10341000E1F7809386010E94611716E08091850193
:10342000909186018917C1F1189FC0011124895715
:103430009E4F0E94EB17882379F1E09185011E9F32
:10344000F0011124E957FE4F40815181628173815F
:10345000848195810E9451178091850190E00196A9
:103460008770992780938501D9CF4F8158856985C9
:103470007A858B859C850E945117CFCF0E941417A7
:103480001092860110928501E7EBF1E086E0DF0102
:103490001D928A95E9F7C1CF2C960FB6F894DEBF3E
:1034A0000FBECDBFDF91CF911F910895EF92FF9294
:1034B0000F931F93CF93DF938C01892B09F46CC07A
:1034C000F12CEE24E394E8012196F80184918437ED
:1034D00040F4843008F051C0813081F0823019F11D
:1034E0005BC0853709F444C0A8F19CE7980F90377A
:1034F00008F052C08F770E945F1441C00E5F1F4FCB
:10350000FE01C49180E28C0F883048F4C7708E2D84
:1035100001C0880FCA95EAF70E94321D14C08C2F93
:103520000E9497132DC00E5F1F4FFE01C49180E2D1
:103530008C0F883058F4C7708E2D01C0880FCA9543
:10354000EAF70E94381D0E94591D1AC08C2F0E9454
:103550005F1416C00E5F1F4FFE01C491CC2381F093
:103560008FE99FE00197F1F700C00000C150F6CF4E
:103570000E5F1F4FFE01F49003C00E9497138E014F
:103580008F2D882309F49FCFEFE9FFE03197F1F702
:1035900000C000008150F5CFDF91CF911F910F91B6
:1035A000FF90EF90089508956093C1017093C20158
:1035B0008093C3019093C4010C9400170F931F9341
:1035C0000091C1011091C2012091C3013091C40149
:1035D000DC01CB01802B912BA22BB32B8093C1015B
:1035E0009093C201A093C301B093C4011F910F91A6
:1035F0000C9400170F931F930091C1011091C20109
:103600002091C3013091C401DC01CB0180239123BF
:10361000A223B3238093C1019093C201A093C3015D
:10362000B093C4011F910F910C9400170F931F9337
:103630000091C1011091C2012091C3013091C401D8
:10364000DC01CB0180279127A227B3278093C101FA
:103650009093C201A093C301B093C4011F910F9135
:103660000C9400171092BD011092BE011092BF0180
:103670001092C0010C94001741E050E060E070E04F
:1036800004C0440F551F661F771F8A95D2F74093D9
:10369000BD015093BE016093BF017093C0010C94B3
:1036A000001741E050E060E070E004C0440F551F97
:1036B000661F771F8A95D2F78091BD019091BE0158
:1036C000A091BF01B091C001482B592B6A2B7B2BD5
:1036D0004093BD015093BE016093BF017093C00140
:1036E0000C94001741E050E060E070E004C0440F2B
:1036F000551F661F771F8A95D2F7409550956095A4
:1037000070958091BD019091BE01A091BF01B091D3
:10371000C001482359236A237B234093BD01509362
:10372000BE016093BF017093C0010C94001741E08B
:1037300050E060E070E004C0440F551F661F771F23
:103740008A95D2F78091BD019091BE01A091BF01F1
:10375000B091C001482759276A277B274093BD01B4
:103760005093BE016093BF017093C0010C94001789
:103770000F931F930091BD011091BE012091BF01D5
:103780003091C001DC01CB01802B912BA22BB32BFC
:103790008093BD019093BE01A093BF01B093C0017F
:1037A0001F910F910C9400170F931F930091BD016F
:1037B0001091BE012091BF013091C001DC01CB010D
:1037C00080239123A223B3238093BD019093BE0154
:1037D000A093BF01B093C0011F910F910C940017EB
:1037E0000F931F930091BD011091BE012091BF0165
:1037F0003091C001DC01CB0180279127A227B3279C
:103800008093BD019093BE01A093BF01B093C0010E
:103810001F910F910C9400170895CF92DF92EF92B1
:10382000FF920F931F93CF93DF938C01C090C10140
:10383000D090C201E090C301F090C4018091BD011D
:103840009091BE01A091BF01B091C001C82AD92AB0
:10385000EA2AFB2ACFE1D0E0D701C6010C2E04C032
:10386000B695A795979587950A94D2F780FF06C0DD
:10387000B8018C2F0E94CD0A019721F4219760F79F
:1038800080E001C08C2FDF91CF911F910F91FF90AD
:10389000EF90DF90CF900895CF93DF93EC010E94DB
:1038A0000D1CBE010E94CD0ADF91CF910895CB017E
:1038B0000E944C1C08958091C5018595859585953C
:1038C00008958091C5018770089598E0899F9001BF
:1038D0001124262B2093C5010C94511B2091C50166
:1038E000809582238093C501982F977069F430E00A
:1038F000482F552747FD50952417350729F0859502
:10390000859585950C94721B08959091C5019770CB
:1039100081E009F480E0089590910C01992321F051
:1039200090910D01911109C020910E0130910F016C
:10393000F90132969FEF40E01FC0982F969596951B
:1039400096959F3050F5E0910E01F0910F01E90F2F
:10395000F11D877021E030E0A90102C0440F551F1E
:103960008A95E2F7CA019181892B818308959F3F4F
:1039700039F04F5F4E3041F051915813F8CF0DC0E0
:103980005111F7CF942FF5CF9F3F39F0F901E90F8F
:10399000F11D97FDFA9582830895089590910C0189
:1039A000992321F090910D01911109C020910E01F0
:1039B00030910F01F9013296205F3F4F1FC0982FC1
:1039C0009695969596959F30F0F4E0910E01F091C2
:1039D0000F01E90FF11D877021E030E0A90102C05D
:1039E000440F551F8A95E2F7CA018095918189237A
:1039F000818308953196E217F30729F09081981397
:103A0000F9CF1082F7CF089581E090E0E0910E01A8
:103A1000F0910F01E80FF91F108201968031910596
:103A2000A9F708959091D901892B8093D901089520
:103A300080959091D90189238093D901089510929E
:103A4000D90108959091D801892B8093D8010895C8
:103A500080959091D80189238093D8010895109280
:103A6000D80108959091D701892B8093D7010895AB
:103A700080959091D70189238093D7010895109262
:103A8000D70108958093C60108951092C601089544
:103A900080910E0190910F01FC0131969C01205FF5
:103AA0003F4F80E0919191118F5FE217F307D1F7BB
:103AB0000895E0910E01F0910F018091D90180836A
:103AC000E0910E01F0910F0190818091D801892B36
:103AD0008083E0910E01F0910F0190818091D701D8
:103AE000892B80838091C601882361F0E0910E01CB
:103AF000F0910F019081892B80830E94481D8111D4
:103B00001092C60180910E0190910F010C947B12CE
:103B1000CF92DF92EF92FF926C01EE24FF24C1144A
:103B2000D104E104F10421F0C701B60120E101C094
:103B300020E0C72ED82EE92EFF24C114D104E104C1
:103B4000F10419F0285FC701B6016B017C0154E054
:103B5000F694E794D794C7945A95D1F7C114D10439
:103B6000E104F10419F02C5FC701B6016B017C017F
:103B700042E0F694E794D794C7944A95D1F7C114DC
:103B8000D104E104F10419F02E5FC701B601DC0194
:103B9000CB01B695A79597958795892B8A2B8B2B6B
:103BA00009F02F5F822FFF90EF90DF90CF90089564
:103BB0008091F101843021F11092DB0120E488E151
:103BC00090E00FB6F894A895809360000FBE209304
:103BD000600080E00E94680B83B7817F846083BFB0
:103BE00083B7816083BF7894889583B78E7F83BFC6
:103BF00088E10FB6F89480936000109260000FBEC9
:103C0000089508950895CF930E94011E0E942E07E3
:103C10000E94021EC0E08C2F0E941C08811104C06B
:103C2000CF5FCE30C1F701C081E0CF9108950E94EF
:103C300014170E946F120C94680B82E084BD93E00D
:103C400095BD9AEF97BD80936E0008952FB7F894B5
:103C50008091DC019091DD01A091DE01B091DF0146
:103C60002FBF0895CF92DF92EF92FF920F931F9391
:103C70002FB7F8944091DC015091DD016091DE0195
:103C80007091DF012FBF6A017B01EE24FF248C01BC
:103C900020E030E0C016D106E206F30610F44150F1
:103CA00051099A01281B390BC9011F910F91FF90EF
:103CB000EF90DF90CF9008951F920F920FB60F9262
:103CC00011248F939F93AF93BF938091DC019091C8
:103CD000DD01A091DE01B091DF010196A11DB11DB2
:103CE0008093DC019093DD01A093DE01B093DF01AE
:103CF000BF91AF919F918F910F900FBE0F901F902A
:103D000018950E946C0FF8942FEF87EA91E62150E6
:103D100080409040E1F700C0000087E090EBDC01BC
:103D20008093FB019093FC01A093FD01B093FE01F1
:103D30009CE088E10FB6F894A895809360000FBED0
:103D400090936000FFCFEF92FF920F931F93CF935A
:103D5000DF93D82FC0E08C2F0E941C0800E010E0F9
:103D6000E82EF12CC701002E02C0959587950A9484
:103D7000E2F780FD06C00F5F1F4F0630110591F777
:103D800009C0602F7C2F80E00E947D08D813F3CFFC
:103D900081E004C0CF5FCE30F1F680E0DF91CF91BB
:103DA0001F910F91FF90EF900895CF93C82F8CE251
:103DB0000E94A31E882321F08C2FCF910C94A31E68
:103DC00080E0CF910895CF930E942A20811102C0F4
:103DD0000E941020C5E6C15049F00E942E078FE3D3
:103DE0009CE90197F1F700C00000F5CF89E20E943D
:103DF000D51E811113C18AE20E94D51E81110E9435
:103E0000102085E00E94D51E81110E94811E0E9413
:103E100035208093DA0187E00E94D51E8823A9F11E
:103E20008BE10E94D51E882351F08091DA0181FB3D
:103E3000222720F991E0922790FB81F90EC08EE0B5
:103E40000E94D51E882361F08091DA0182FB22272F
:103E500020F991E0922790FB82F98093DA0115C056
:103E600080E10E94D51E9091DA01882341F093FBF6
:103E7000222720F981E0822780FB93F904C0892F53
:103E8000809580FB90F99093DA018091DA010E948D
:103E900039200E9447208093FA0180EE0E94D51EAF
:103EA000882341F08091FA01982F909590FB80F93A
:103EB0008093FA0189E30E94D51E882359F08091EE
:103EC000FA0181FB222720F991E0922790FB81F9EA
:103ED0008093FA0182EE0E94D51E882359F08091CA
:103EE000FA0182FB222720F991E0922790FB82F9C8
:103EF0008093FA0186EE0E94D51E882359F08091A6
:103F0000FA0183FB222720F991E0922790FB83F9A5
:103F10008093FA0183EE0E94D51E882359F0809188
:103F2000FA0184FB222720F991E0922790FB84F983
:103F30008093FA0185E30E94D51E882359F0809171
:103F4000FA0185FB222720F991E0922790FB85F961
:103F50008093FA0181E30E94D51E882359F0809155
:103F6000FA0186FB222720F991E0922790FB86F93F
:103F70008093FA0181E10E94D51E882359F0809137
:103F8000FA0187FB222720F991E0922790FB87F91D
:103F90008093FA018091FA010E944B208091FA01EE
:103FA00087FB882780F980930D0187E20E94D51E48
:103FB000C82F8EE10E94D51E8111C2608FE10E9440
:103FC000D51E8111C46080E20E94D51E8111C86097
:103FD00081E20E94D51E8111C06182E20E94D51E3D
:103FE0008111C06283E20E94D51E8111C06484E207
:103FF0000E94D51E882311F0C06802C0CC2329F08E
:104000008C2F0E9442206C2F03C00E943E20682FFC
:1040100070E080E090E0CF910C94D41ACF91089595
:104020006DEE7EEF80E090E00E947C2660E082E012
:1040300090E00E946A2660E083E090E00E946A2699
:1040400060E084E090E00E946A2660E085E090E015
:104050000C946A2680E090E00E94642621E08D3E68
:104060009E4F09F020E0822F089582E090E00C94AA
:104070005C26682F82E090E00C946A2683E090E052
:104080000C945C26682F83E090E00C946A2684E010
:1040900090E00C945C26682F84E090E00C946A26F3
:1040A0008091E20180FF0BC06091130185E0689F61
:1040B000B001112475956795759567952BC081FFA3
:1040C00009C06091130185E0689FB00111247595C6
:1040D000679520C082FF07C06091130185E0689F4B
:1040E000B001112417C09091E3019923D1F06091A0
:1040F0001201961788F72091130185E0289F9001FF
:104100001124929FA001939F500D112470E0CA01C9
:104110000E942E266038710540F46115710539F052
:1041200002C065E070E0862F08958FE7089581E072
:1041300008958091E20180FF08C06091110170E054
:10414000759567957595679521C081FF06C060914B
:10415000110170E07595679519C082FF04C06091E8
:10416000110170E010C09091E3019923C1F06091BA
:1041700010019617A0F780911101899FC0011124A9
:1041800070E00E942E266038710528F461157105D3
:1041900021F0862F08958FE7089581E0089561E06A
:1041A00070E0F4CF803F21F40E945020819504C03C
:1041B000813F29F40E9450208093E6010895823FB8
:1041C00021F40E945020819504C0833F29F40E946D
:1041D00050208093E5010895893F19F40E949920A9
:1041E00005C08A3F31F40E94992081958093E701B0
:1041F00008958B3F21F40E949920819504C08C3F43
:1042000029F40E9499208093E8010895843F21F4C5
:104210008091E401816017C0853F21F48091E40121
:10422000826011C0863F21F48091E40184600BC05C
:10423000873F21F48091E401886005C0883F31F414
:104240008091E40180618093E40108958D3F21F421
:104250008091E20181600BC08E3F21F48091E201E8
:10426000826005C08F3F29F48091E20184608093D1
:10427000E2010895803F39F48091E60187FF6CC028
:104280001092E60169C0813F29F48091E601181679
:10429000BCF362C09091E501823F29F497FF5CC0B6
:1042A0001092E50159C0833F19F41916CCF354C09C
:1042B000893F41F48091E70118160CF04DC010922F
:1042C000E7014AC08A3F29F48091E70187FF44C093
:1042D000F6CF8B3F39F48091E80187FF3DC0109203
:1042E000E8013AC08C3F29F48091E8011816BCF32C
:1042F00033C0843F21F48091E4018E7F17C0853F55
:1043000021F48091E4018D7F11C0863F21F48091DA
:10431000E4018B7F0BC0873F21F48091E401877F0C
:1043200005C0883F31F48091E4018F7E8093E401E1
:1043300013C08D3F21F48091E2018E7F0BC08E3F30
:1043400021F48091E2018D7F05C08F3F29F4809197
:10435000E2018B7F8093E2018091E50181110EC023
:104360008091E60181110AC08091E701811106C0A8
:104370008091E801811102C01092E301089584EE5A
:1043800091E00E9486120E94261E9093E101809384
:10439000E00108951F93CF93DF938091E001909106
:1043A000E1010E94321EAC019091E301992321F0BA
:1043B0002091140130E006C0209115018AE0289F69
:1043C000900111244217530708F486C08091E5013B
:1043D000C091E601D091E7011091E801811107C079
:1043E000C11176C0D11174C0111172C075C09F3F48
:1043F00019F09F5F9093E301181624F40E94502057
:104400008093E5018091E50187FF05C00E9450205F
:1044100081958093E5011C1624F40E94502080931E
:10442000E6018091E60187FF05C00E94502081953A
:104430008093E6016091E501662339F1C091E601C0
:10444000CC2319F1772767FD7095872F972F0E944E
:104450003F2523E333E343E35FE30E94A3250E9468
:104460000C256093E5016C2F772767FD7095872FEA
:10447000972F0E943F2523E333E343E35FE30E944A
:10448000A3250E940C256093E6011D1624F40E94CA
:1044900099208093E7018091E70187FF05C00E9482
:1044A000992081958093E701111624F40E949920A8
:1044B0008093E8018091E80187FF05C00E94992060
:1044C00081958093E801DF91CF911F910C94BF21DA
:1044D0009F3F09F08ECF96CFDF91CF911F91089526
:1044E000E4EEF1E085E0DF011D928A95E9F7109294
:1044F000E3011092E2010895833081F128F48130C4
:1045000059F08230D1F00895853009F449C0B8F1EE
:10451000863009F456C0089580911501262F30E0A9
:10452000280F311D2F3F310524F4680F60931501CA
:1045300008958FEF80931501089580911401262F1F
:1045400030E0280F311D2F3F310524F4680F6093B0
:10455000140108958FEF8093140108958091130141
:10456000262F30E0280F311D2F3F310524F4680F2E
:104570006093130108958FEF809313010895809144
:104580001201262F30E0280F311D2F3F310524F472
:10459000680F6093120108958FEF809312010895C0
:1045A00080911101262F30E0280F311D2F3F31055A
:1045B00024F4680F6093110108958FEF8093110127
:1045C000089580911001262F30E0280F311D2F3FD4
:1045D000310524F4680F6093100108958FEF8093E4
:1045E00010010895833011F128F4813049F08230B0
:1045F00091F00895853081F120F18630C1F1089560
:1046000080911501681720F4861B80931501089589
:1046100010921501089580911401681720F4861BEB
:10462000809314010895109214010895809113014C
:10463000681720F4861B80931301089510921301CC
:10464000089580911201681720F4861B809312014F
:10465000089510921201089580911101681720F4B5
:10466000861B809311010895109211010895809185
:104670001001681720F4861B809310010895109292
:10468000100108950F931F938D3109F46BC008F04A
:104690003FC08E3009F47FC0C0F4873009F469C090
:1046A00068F4863009F0B1C08091DA01817F8E7F95
:1046B0008093DA0181E08093EA01A8C0883009F490
:1046C000A2C08B3009F49FC0A0C0863109F49BC002
:1046D00078F4803109F472C0813109F096C00E94EB
:1046E000141790910D0181E0892780930D018BC0F3
:1046F000893109F488C08B3109F087C08091DA01D3
:1047000081FB222720F991E0922790FB81F94CC090
:10471000853309F470C048F4873209F46CC008F49A
:1047200059C0893209F467C070C0833438F48A33C1
:1047300008F04EC0883309F466C067C0833409F4BA
:104740005AC0883409F061C00E9414170FEF13EDAE
:1047500020E3015010402040E1F700C000000E941B
:10476000811E51C00E94C6240E946F120E94680BD5
:104770004AC09091DA01892F8095817080FB90F971
:1047800029F0966098609093DA0140C0997F977FF6
:104790009093DA0138C08091DA0182FB222720F958
:1047A00091E0922790FB82F98093DA01992359F1E5
:1047B0008091DA0181608093DA0125C08091DA016D
:1047C00083FB222720F991E0922790FB83F9ECCF1D
:1047D000895301C08D5141E050E060E070E08A01F2
:1047E0009B0104C0000F111F221F331F8A95D2F7AF
:1047F000C901B80104C061E070E080E090E00E946F
:10480000D41A0E94141781E001C080E01F910F911B
:10481000089580E0089580E00895CF93C82F809197
:10482000EA01813079F018F08230E9F187C0E09137
:104830000E01F0910F018081813169F0823209F01F
:104840007FC009C0E0910E01F0910F01808181319C
:1048500011F0823261F48C2F0E940924811104C06E
:104860008C2F0E9442231DC081E090E01AC08C2F43
:104870000E940B24811114C0C43179F048F4CB306C
:1048800079F0C03109F060C082E08093EA0108C08D
:10489000C93219F0C83321F057C01092EA0154C050
:1048A00081E0817053C0C93289F118F5C43171F1CA
:1048B000A8F4C73009F046C08AE08093150194E15E
:1048C0009093140193E0909313018093120188E078
:1048D0008093110188E28093100134C0CE51C6301C
:1048E00088F5EC2FF0E0E65DFE4F80818093E901D2
:1048F00029C0CE34E9F020F4CB3421F56AE013C0AE
:10490000C13579F0C235F1F461E00DC08091E90163
:10491000882319F01092E90115C081E08093EA0123
:1049200015C061E006C08091E9010E947C220AC0A6
:104930006AE08091E9010E94F22204C01092EA012B
:1049400080E004C081E002C080E0ABCFCF91089549
:10495000E1E8F0E0808188608083808181608083ED
:104960008FB7F89493E09093890090ED909388002E
:104970008FBF0895EFE6F0E0808182608083089524
:10498000EFE6F0E080818D7F80830895EFE6F0E030
:10499000908182E08927808308951F920F920FB63D
:1049A0000F9211242F933F934F935F936F937F93B5
:1049B0008F939F93AF93BF93EF93FF938091EB01FE
:1049C0009091EC0101969093EC018093EB018111A1
:1049D00003C082E00E94680BE091EC01E695E69549
:1049E000F0E0E65BF74FE4918091EB018E1303C09A
:1049F00080E00E94680BFF91EF91BF91AF919F9172
:104A00008F917F916F915F914F913F912F910F9077
:104A10000FBE0F901F90189504D06894B1118DC0EF
:104A2000089570D088F09F5790F0B92F9927B7510B
:104A3000A0F0D1F0660F771F881F991F1AF0BA9562
:104A4000C9F712C0B13081F077D0B1E0089574C0D9
:104A5000672F782F8827B85F39F0B93FCCF3869558
:104A600077956795B395D9F73EF4909580957095B5
:104A700061957F4F8F4F9F4F0895E89409C097FB32
:104A80003EF490958095709561957F4F8F4F9F4F25
:104A90009923A9F0F92F96E9BB279395F695879569
:104AA00077956795B795F111F8CFFAF4BB0F11F42C
:104AB00060FF1BC06F5F7F4F8F4F9F4F16C08823D3
:104AC00011F096E911C0772321F09EE8872F762F09
:104AD00005C0662371F096E8862F70E060E02AF04A
:104AE0009A95660F771F881FDAF7880F9695879536
:104AF00097F9089557FD9058440F551F59F05F3F9F
:104B000071F04795880F97FB991F61F09F3F79F0EF
:104B100087950895121613061406551FF2CF469571
:104B2000F1DF08C0161617061806991FF1CF8695F3
:104B30007105610508940895E894BB2766277727D7
:104B4000CB0197F908950BD078C069D028F06ED0CA
:104B500018F0952309F05AC05FC01124EECFCADFC8
:104B6000A0F3959FD1F3950F50E0551F629FF00180
:104B7000729FBB27F00DB11D639FAA27F00DB11DD9
:104B8000AA1F649F6627B00DA11D661F829F222762
:104B9000B00DA11D621F739FB00DA11D621F839FE9
:104BA000A00D611D221F749F3327A00D611D231FBF
:104BB000849F600D211D822F762F6A2F11249F570D
:104BC00050408AF0E1F088234AF0EE0FFF1FBB1F30
:104BD000661F771F881F91505040A9F79E3F5105CF
:104BE00070F014C0AACF5F3FECF3983EDCF38695DB
:104BF00077956795B795F795E7959F5FC1F7FE2B7A
:104C0000880F911D9695879597F9089597F99F6755
:104C100080E870E060E008959FEF80EC0895002444
:104C20000A941616170618060906089500240A9411
:104C300012161306140605060895092E0394000C97
:104C400011F4882352F0BB0F40F4BF2B11F460FF26
:104C500004C06F5F7F4F8F4F9F4F089597FB072EC4
:104C600016F4009407D077FD09D00E94482607FC6F
:104C700005D03EF4909581959F4F0895709561956C
:104C80007F4F0895EE0FFF1F0590F491E02D0994DA
:104C9000AA1BBB1B51E107C0AA1FBB1FA617B70762
:104CA00010F0A61BB70B881F991F5A95A9F780957E
:104CB0009095BC01CD010895F999FECF92BD81BDBB
:104CC000F89A992780B50895A8E1B0E042E050E055
:104CD0000C948426262FF999FECF92BD81BDF89AB7
:104CE000019700B4021639F01FBA20BD0FB6F89430
:104CF000FA9AF99A0FBE08950196272F0E946B2603
:104D00000C946A26DC01CB01FC01F999FECF06C0A8
:104D1000F2BDE1BDF89A319600B40D924150504079
:084D2000B8F70895F894FFCFE5
:104D280020026A0BF80BD50BA10B6D0B0101C70113
:104D380028080A03140A3F4D36390B08BE078807AE
:104D48004F07E206FB0614072D07010203040506B8
:044D5800070809003F
:00000001FF
